:020000040000FA
:0600000002011A02226554
:03002B0002298324
:030053000222DBAB
:03007B00022966F1
:100083000220BBE5C754F84401F5C77901220000FB
:100093000080FB120086B90003020104E47924788E
:1000A30008B800028004F709D8FCE4792C7802B878
:1000B30000028004F709D8FCE490028178CA79131E
:1000C3008002F0A3D8FCD9FA782390014A7A01BAC6
:1000D30000028007E493A3F608DAF97A4A7B1590C5
:1000E300014B78EC79038015E493A3AD82AE838A48
:1000F300828B83F0A3AA82AB838D828E83D8E9D9C6
:10010300E77582247583B2740312012C758291758D
:100113008300740012012C75D00075813F75218115
:10012300752202759F00020096C09FF59FE473D06D
:100133009F22D083D082C09FE493C0E0740193C018
:10014300E0740293F59F2201FF0000B40000280031
:100153002800283075A000A000A000A0000008001F
:1001630008E001F000100010001000100010001053
:100173000050005000500010001000D00700000095
:100183000000000F0001000500307507001000019A
:100193000081FF00000000FFFFFF520670065806B3
:1001A3009406FF02020208025000A0000000E803C8
:1001B30002C083010000A98302AC83010000A515DE
:1001C30002B283010000BF0202AC83010000A61546
:1001D30002B483010000D50202AC83010000A7151D
:1001E30002B683010000D70202AC83010000A81508
:1001F30002B883080000D80202AC83010000A915ED
:1002030002BA83010000AA15FF0100FF2002C08388
:10021300010000A68302AC830100000E1602BC831A
:10022300000000000002B08303000006031700185B
:100233000D180D180D180D180D180D180D180D1893
:100243000D180D180D180D180DD00FE20FCA0FFF62
:10025300FFFF140953696D706C65424C455065721C
:100263006970686572616C051220032003020A003D
:100273000201060302F0FF02168844474A20636125
:100283007220696E2064657669636500000000076B
:10029300F2110000F811020202020202020202013C
:1002A3000D000000100102C083010000A08302AC16
:1002B30083010000981602D683010000601302AC8C
:1002C30083010000991602D483010000BB8202ACB3
:1002D300830100009A1602D283010000758202ACEA
:1002E300830100009B1602D083010000CB8102AC86
:1002F300830100009C1602CE83010000DD8102AC65
:10030300830100009D1602CC83010000EF8102AC43
:10031300830100009E1602CA83010000018202AC21
:10032300830100009F1602C8830100009F8202AC74
:1003330083010000A01602C683010000A11601E894
:10034300030577100A0AAC12FF000130750302019E
:100353000600000000000000000000000000000094
:1003630000000000000000000000000000FFFF0686
:1003730000800CE8030A63617220696E2076616C69
:10038300756500000000000A6C6F636B20696E20C6
:1003930076616C7565000000000A7061726B2073F2
:1003A30074616D702076616C75650002C083010015
:1003B30000A38302AC83010000771702DA830300F2
:1003C300002D1502AE83010000781702AC830100F3
:1003D30000891702DC83030000351502AE83010098
:1003E300008A1702AC830100009B1702DE8303001F
:1003F300003D1502AE830100009C170000000000C1
:1004030000000000000000000000000000000000E9
:1004130000000000000000000000000000000000D9
:1004230000000000000000000000000000000000C9
:10043300000000120135D28F03120135E58F03123C
:100443000135169003120135509003120135A9901E
:1004530003120135F090031201353891031201356F
:10046300679103120135969103120135CD91031261
:1004730001351492031201352D9203120135829234
:1004830003120135B09203120135EA9203120135CA
:10049300D4AB02120135D7AC0212013510AD0212F2
:1004A300013533AD0212013545AD0212013583AD7D
:1004B30002120135FFAD02120135C7AE021201353A
:1004C300E9AE0212013580AF02120135D2AF02123A
:1004D300013503B00212013510B0021201357AB0B2
:1004E30002120135D1B002120135D4B00212013526
:1004F3000DB10212013510B1021201351AB1021207
:1005030001356EB102120135AFB102120135E2B10C
:10051300021201351FB20212013521B30212013555
:10052300C5B3021201352EB4021201356CB40212A6
:1005330001354284031201356A840312013597841D
:1005430003120135CF84031201352D8503120135C2
:10055300798503120135E0850312013520860312E4
:1005630001355D86031201358B860312013535870C
:10057300031201353F87031201354C8703120135FE
:100583007F87031201358B8703120135A38703127B
:100593000135AD87031201356DAE031201357BAE14
:1005A3000312013593AE03120135AAAE03120135CE
:1005B300F6B801120135A0B901120135B3BA01121F
:1005C30001352FBB011201354DBC0112013589BC28
:1005D3000112013524BD0112013508BE0112013596
:1005E300D4BE0112013562C001120135D3C001121C
:1005F30001358DC1011201357FC201120135BFC220
:100603000112013573C301120135A5C3011201356E
:100613009BC501120135DDC501120135FBC5011270
:10062300013561C60112013530C701120135F4C726
:100633000112013513CA01120135EFC4021201354B
:10064300D9C50212013584C602120135D5C602127C
:10065300013585C702120135F6C702120135DBC821
:10066300021201350FC90212013508CA02120135FF
:1006730045CA0212013521CB0212013560CB0212A9
:1006830001357CCB0212013506FE021201358AFECA
:1006930002120135B5FE02120135CFFF02120135F8
:1006A3003B88031201355188031201356F88031209
:1006B30001358089031201358A8903120135B58A10
:1006C30003120135AC8B03120135198C031201356A
:1006D3007ED202120135AED30212013528D40212A2
:1006E300013558D4021201356BD402120135B5D449
:1006F3000212013578D602120135E3830112013566
:100703006F8401120135D38501120135DF85011292
:1007130001351A8601120135898601120135928746
:10072300011201359B8801120135628901120135DD
:10073300BF8A01120135DD8A01120135FA8A0112DD
:100743000135C58B01120135ED8B01120135B78ED1
:1007530001120135BC8E01120135D590011201350C
:10076300239101120135939101120135D1910112A7
:100773000135AD92011201356D9301120135B99323
:1007830001120135BC9301120135009401120135A8
:10079300489401120135879401120135A99401127D
:1007A3000135DD9401120135409501120135B0DDAB
:1007B30002120135BEDD0212013511DE02120135CE
:1007C30030DE0212013575DE02120135B9DF021285
:1007D300013554E00212013598E002120135C2E0FE
:1007E3000212013531E10212013577E102120135BE
:1007F300EEE1021201359FE202120135B029001227
:100803000135C02900120135612A00120135BD2AC4
:10081300001201357A2B00120135962C0012013596
:10082300C82C00120135F72C00120135A42E00123A
:1008330001351B31001201358B33001201357D3434
:10084300001201357635001201357D37001201356E
:10085300713A00120135A03B00120135A43D00128C
:100863000135B43E001201354340001201353441D5
:1008730000120135824100120135F14100120135A8
:100883001542001201356642001201350747001276
:1008930001350848001201356948001201359448B2
:1008A300001201355A4900120135A4F00212013534
:1008B300AEF002120135F3F00212013507F1021214
:1008C300013597F102120135D0F1021201350BF215
:1008D3000212013534F20212013588F20212013597
:1008E3009DF202120135BFF202120135D4F2021257
:1008F3000135E8F202120135FDF20212013537F338
:100903000212013563F3021201359BF30212013522
:10091300FDF3021201356FF402120135B2F4021233
:100923000135DCF40212013507F5021201356FA916
:10093300031201358CF5011201356FF601120135F1
:10094300EAF60112013525F70112013576F8011295
:10095300013504F90112013596FB0112013548FCFA
:100963000112013554FD01120135C7FE0112013593
:1009730020FF01120135B6F902120135F9F902120D
:1009830001357DFA0212013554FD02120135E29B55
:1009930003120135949C03120135909D0312013516
:1009A300CF9D03120135299E0312013564A403125E
:1009B3000135C7A40312013564A50312013599A5B6
:1009C30003120135C9A50312013504A6031201352B
:1009D30024A603120135B1E2021201353DE30212EE
:1009E3000135FCE30212013514E5021201352EE74D
:1009F30002120135B27300120135D77300120135AB
:100A0300A47400120135787500120135E5750012E2
:100A13000135257600120135C17600120135F577CF
:100A230000120135D078001201352F7900120135FB
:100A3300BB7900120135297A00120135B57A00120B
:100A43000135FB7A001201356D7B00120135FF7B06
:100A530000120135A07C00120135C07C0012013563
:100A6300087D00120135517D001201356D7D0012A4
:100A73000135937D001201350D7E001201351B7E79
:100A830000120135AA7E00120135137F00120135D1
:100A93000EEC0212013593EC02120135D5EC021271
:100AA3000135B9ED0212013526EE021201356AEE67
:100AB30002120135AEEE02120135DBEE02120135F0
:100AC30003EF021201353BEF0212013579EF0212F7
:100AD3000135A0EF021201351AF00212013564F05C
:100AE3000212013598A70112013537A90112013508
:100AF3006FAB01120135C3AB01120135EEAB01122D
:100B03000135CAAC01120135FAAC0112013529AD28
:100B1300011201353CAD011201357DAD01120135E4
:100B2300AAAD01120135F8AD0112013534AE01123F
:100B3300013579AE01120135C6AE0112013540AF60
:100B43000112013581B1011201356BB30112013577
:100B5300A7B30112013536B5011201357BB5011278
:100B63000135EEB50112013543B6011201354DB61B
:100B73000112013519B701120135A3B7011201356D
:100B8300C2B801120135D3B8011201359898021287
:100B93000135119902120135CB9E02120135D69F00
:100BA300021201357FA1021201350DA20212013595
:100BB300795F00120135FA5F0012013527600012D8
:100BC3000135706000120135716100120135B561A4
:100BD30000120135EB610012013567630012013524
:100BE300E9630012013504640012013575640012D3
:100BF3000135326500120135F56500120135836652
:100C0300001201353A67001201354D6700120135B4
:100C1300E667001201357D6800120135A4680012F1
:100C230001350D6900120135576900120135A569B7
:100C3300001201354C6A00120135EA6A00120135CF
:100C4300776B00120135E86B001201352F6C00122F
:100C53000135876C00120135B96C001201357A6DCC
:100C6300001201357D6E00120135C66E001201358A
:100C7300E36E00120135026F001201353570001268
:100C83000135EC7000120135117100120135267126
:100C930000120135967100120135D771001201352A
:100CA300FB72001201357C730012013537A2021268
:100CB300013582A2021201358EA20212013562A30E
:100CC3000212013579A302120135B6A302120135CE
:100CD300E7A3021201351FA40212013575A4021203
:100CE30001358BA402120135C7A402120135DAA41F
:100CF3000212013501A50212013535A50212013593
:100D03005BA602120135A5A702120135A1A80212A2
:100D13000135B7A902120135F27F00120135ADD8B2
:100D230001120135DCD8011201352EDC0112013527
:100D330085DD0112013544DE01120135ABE10112FB
:100D4300013597E201120135E9E20112013503E3AE
:100D53000112013535E30112013540E3011201357A
:100D630049E301120135FBE301120135CBE4011222
:100D7300013512E50112013578E501120135EAE585
:100D830001120135189601120135589901120135E6
:100D93005E99011201351DA00112013542A4011211
:100DA3000135238C03120135B98C03120135CF8C25
:100DB30003120135288D031201356C8D03120135A1
:100DC300A68D031201353E8E03120135AD8E03123B
:100DD3000135B68E03120135C28E03120135DC8E46
:100DE30003120135068F031201351B8F03120135E0
:100DF3007D8F03120135A48F031201350080031286
:100E030001350D80031201352780031201355A8005
:100E130003120135988003120135FD800312013559
:100E23001281031201351D81031201352A81031238
:100E330001354181031201354F81031201355A8176
:100E430003120135668103120135758103120135E1
:100E5300808103120135A3810312013547820312F6
:100E630001355782031201357182031201358E82D7
:100E730003120135A98203120135CE820312013513
:100E8300D98203120135EE82031201350283031264
:100E930001356383031201356983031201356F83BF
:100EA300031201357583031201358D830312013556
:100EB300C083031201350580021201359C800212A2
:100EC30001353481021201352482021201355B821D
:100ED300021201356E8202120135DC8202120135E3
:100EE3007784021201359E84021201354085021275
:100EF3000135758502120135868502120135FF859C
:100F0300021201352086021201353886021201359C
:100F1300908702120135998902120135E98B021279
:100F23000135EC8C021201353B8D0212013520CACA
:100F3300011201351DCB0112013508CC0112013517
:100F430012CC0112013534CC0112013540CC01120F
:100F5300013592CD01120135C1CD01120135F1CE1A
:100F63000112013533CF011201355FD00112013572
:100F730035D10112013587D101120135E6D10112B4
:100F830001351DD20112013558D201120135F3D5B5
:100F9300011201350CD6011201358ED6011201352D
:100FA3009CD601120135F1D601120135FFD601128B
:100FB30001356CD701120135DED70112013524D872
:100FC30001120135888D02120135AA8D02120135F5
:100FD300948F021201353993021201357C94021267
:100FE300013556950212013532A60312013557A673
:100FF30003120135C8A603120135C2BC0212013522
:10100300CBBC02120135D4BC0212013505BE02125B
:10101300013524C0021201355AC00212013594C0B1
:1010230002120135CAC00212013504C10212013590
:1010330038C10212013564C102120135ADC1021279
:101043000135E7C1021201352FC20212013585C2F3
:1010530002120135BAC20212013515C3021201355B
:101063004FC302120135A0C302120135D6C30212C7
:10107300013510C4021201353EC40212013561C4A8
:1010830002120135367F00120135627F00120135ED
:10109300BD7F00120135C77F00120135D77F0012D3
:1010A300013547D80212013551D8021201358FD8C4
:1010B30002120135D8D80212013512D902120135B4
:1010C3006CD9021201358DD90212013596D902125B
:1010D3000135E7D90212013510DA0212013525DA9A
:1010E3000212013596DA0212013524DB02120135B0
:1010F30061DB0212013591DB0212013515DC0212AC
:10110300013555DC021201358DDC021201359FDCFD
:1011130002120135BEDC02120135C7DC02120135B1
:1011230086DD0212013587AB0312013589A0031254
:101133000135BFA003120135F5A0031201354EA2FC
:1011430003120135FDAF0312013513B0031201354C
:101153001DB00312013573B0031201352FF50212CE
:10116300013548F502120135ECF5021201352CF672
:101173000212013545F60212013579F602120135E4
:10118300C6F602120135FAF6021201353CF70212D5
:1011930001353CF902120135A9F902120135C5B135
:1011A3000312013581AC03120135B1AC03120135D1
:1011B300DAAC03120135F2AC031201350AAD0312A6
:1011C300013546AD0312013573B30312013576B30E
:1011D300031201357DB3031201357FB303120135C9
:1011E300DDCB02120135E2CD02120135B2CE02127D
:1011F3000135A7CF0212013581D10212013509D27F
:10120300021201355293031201357993031201350A
:10121300A593031201357CB203120135C6490012AE
:101223000135204C00120135D24D00120135334EE9
:1012330000120135254F00120135AA4F0012013566
:101243002850001201355550001201354453001245
:101253000135AF53001201359E5400120135D854A5
:1012630000120135185500120135D256001201350E
:101273002557001201356E5700120135E057001251
:1012830001351258001201352A58001201355859F8
:10129300001201356F59001201355A5B00120135F6
:1012A3007C5B00120135B25B00120135685D0012F0
:1012B3000135E85D00120135275E00120135545FE8
:1012C3000012013588A203120135E5A2031201358C
:1012D300A8A303120135C7A3031201351DA40312EA
:1012E3000135A1B003120135B1B003120135C6B205
:1012F3000312013505B3031201353EB10312013563
:1013030069B10312013573B103120135ABB1031295
:101313000135E17F001201357AAD031201358AAD43
:1013230003120135A2AD0312013567AE0312013575
:1013330083AA0312013508AB031201356EAB031206
:1013430001353AAF031201355BAF031201356EAFBE
:101353000312013580AF03120135ADAF031201351E
:10136300BEAF03120135F7AF03120135FAAF031213
:10137300013565E70212013579E702120135F2E71B
:1013830002120135CBE80212013589EB0212013555
:10139300CEEB02120135FBEB02120135F87F00128E
:1013A3000135549E03120135DF9F0312013540A01E
:1013B3000312013586A003120135E8A70312013594
:1013C3003DA803120135ABA8031201351BA9031273
:1013D30001356596031201358F96031201358997FE
:1013E30003120135AE97031201353098031201350C
:1013F30092B4021201354FB5021201358AB50212B9
:101403000135B2B50212013514B60212013560B6C8
:1014130002120135B9B6021201354AB7021201357B
:101423004CB80212013509BA021201358BBA021205
:101433000135F0BA0212013507BB0212013517BCA0
:101443000212013555BC0212013539E7011201358B
:101453001FEB01120135B1EC0112013508ED011248
:10146300013527ED01120135A5ED0112013545EFD7
:101473000112013529F00112013515F4011201356C
:10148300E9F4011201355B990312013597990312AF
:101493000135B49903120135029A03120135379AC3
:1014A30003120135DE9A03120135DF9B0312013566
:1014B3000FB303120135C9FF0112013555B303E020
:1014C30066701008A3E066700A08A3E0667004085B
:1014D300A3E06622C3E7960809E7960809E796089A
:1014E30009E79622C3E09608A3E09608A3E09608CE
:1014F300A3E09622C008C3E096F50808A3E096424D
:101503000808A3E096420808A3E09645087001D3B3
:10151300D00822080808EAC0E0EBC0E086F0E7A4A0
:10152300FA180986F0E7A42AFA180986F0E7A42A2C
:10153300FA180986F0E7A42AFA1986F0E7A4FBE56E
:10154300F02AFA190886F0E7A42BFBE5F03AFA191A
:101553000886F0E7A42BFBE5F03AFA18180986F0A1
:10156300E7A4C5F02BFBE43AFA1908E7C5F0C6A4D3
:1015730026F6E5F03BFBE43AFA1886F0E7A4F6E535
:10158300F00826F6E43B08F6E43A08F6D0E0FBD090
:10159300E0FA22E4CFC0E0E4CEC0E0E4CDC0E0E472
:1015A300CCC0E075F020E626F608E633F608E6330D
:1015B300F608E633F6181818EC33FCED33FDEE337A
:1015C300FEEF33FFC3EC9709ED9709EE9709EF9709
:1015D300191919400FFFEC97FC09ED97FD09EE97D8
:1015E300FE191906D5F0BFECF709EDF709EEF70977
:1015F300EFF7191919D0E0FCD0E0FDD0E0FED0E000
:10160300FF226016080808C6C313C618C613C618F7
:10161300C613C618C613C6D5E0EA2270090808081F
:10162300226016181818C6C333C608C633C608C6C0
:1016330033C608C633C6D5E0EA22E627F60809E62C
:1016430037F60809E637F60809E637F622E026F604
:1016530008A3E036F608A3E036F608A3E036F62240
:10166300E026F008A3E036F008A3E036F008A3E094
:1016730036F022C3E697F60809E697F60809E697D7
:10168300F60809E697F622C3E096F008A3E096F081
:1016930008A3E096F008A3E096F022E056F608A32C
:1016A300E056F608A3E056F608A3E056F622E05605
:1016B300F008A3E056F008A3E056F008A3E056F0C4
:1016C30022E0F608A3E0F608A3E0F608A3E0F6227A
:1016D300E6F008A3E6F008A3E6F008A3E6F022E0AC
:1016E300FAA3E0FBA3E0FCA3E0FD22EAF0A3EBF006
:1016F300A3ECF0A3EDF022E0F8A3E0F9A3E0FAA352
:10170300E0FB22E8F0A3E9F0A3EAF0A3EBF022CA9E
:10171300C0E0E6F0A308DAFAD0E0FA22CAC0E0E0BB
:10172300A3C582CCC582C583CDC583F0A3C582CCB6
:10173300C582C583CDC583DAE6D0E0CA22C3E49867
:10174300F8E499F91217818026C3E49AFAE49BFB23
:10175300E920E7E9121781E498F8E499F922C3E450
:1017630098F8E499F9121781E498F8E499F9C3E435
:101773009AFAE49BFB22EB20E7CFE920E7E0B900EC
:1017830010BB0008E88AF084F8AAF022E4FBC8FA48
:1017930022EB70227B10C833C8C933C9335007C347
:1017A3009AC3DBF280069A50012ADBEAC833F4C8F5
:1017B300C933F4C9FA2275F008E4C833C8C933C978
:1017C30033C99AC99B5004C92AC93BD5F0ECFBC85D
:1017D30033F4C8E4C9FA22600D08C6A2E713C61899
:1017E300C613C6D5E0F322600C08C6C313C618C6D9
:1017F30013C6D5E0F422700422600D18C6C333C6A5
:1018030008C633C6D5E0F41822252110AF08F52108
:10181300400C15228008F52140021522D2AF220088
:10182300C0D0252110AF08F521500C05228008F502
:101833002150020522D2AFD0D0222521F58210AF4C
:1018430008F521400C15228008F52140021522D20B
:10185300AF852283222521F582E43522F5832225D3
:1018630021F8E43522F9222521FAE43522FB222549
:1018730021FCE43522FD22E4732521C582C0E0E585
:101883002234FFC583C0E0E521C3958224F810AF5D
:10189300088583228582218008858322858221D23F
:1018A300AFCEF0A3E520F0A37808E608F0A3DEFAB4
:1018B300EFF0A3E58124FAF8E608F0A3E608F0A325
:1018C300E608F0A30808E608F0A3E608F0A31581EC
:1018D3001581D0E0FED0E0F8158115811581E8C0AF
:1018E300E0EEC0E0222521C582C0E0E52234FFC539
:1018F30083C0E0E521C3958224F910AF08858322D4
:101903008582218008858322858221D2AFCEF0A3F0
:10191300E520F0A37808E608F0A3DEFAEFF0A3E5EC
:101923008124FBF8E608F0A3E608F0A30808E6081C
:10193300F0A3E608F0A315811581D0E0FED0E0F80E
:1019430015811581E8C0E0EEC0E022852283852160
:1019530082E0A3FEE0A3F5207808E0A3F608DFFA0F
:10196300E0A3FFE0A3C0E0E0A3C0E0E0A3C0E0E0A9
:10197300A3C0E0E0A3C0E010AF08858221858322E5
:101983008008858221858322D2AFD083D082020151
:1019930032852283852182E0A3FEE0A3F520780827
:1019A300E0A3F608DFFAE0A3FFE0A3C0E0E0A3C0F2
:1019B300E0E0A3C0E0E0A3C0E010AF08858221858A
:1019C30083228008858221858322D2AFD083D0826F
:1019D30022C0D02521C582C0E0E52234FFC583C0E3
:1019E300E0E521C3958224F310AF08858322858225
:1019F300218008858322858221D2AFC8F0A3E9F034
:101A0300A3EAF0A3EBF0A37908E709F0A3D8FAEC73
:101A1300F0A3EDF0A3EEF0A3EFF0A3D0E0F0A3D09A
:101A2300E0F0A3D0E0F0A3E520F0A3E5F0F0A322DB
:101A3300852283852182E0C0E0A3E0F9A3E0FAA335
:101A4300E0FBA37808E0F608A3DFFAE0FCA3E0FDDF
:101A5300A3E0FEA3E0FFA3E0C0E0A3E0C0E0A3E0B7
:101A6300F5D0A3E0F520A3E0A3F5F010AF0885833C
:101A7300228582218008858322858221D2AFD0826C
:101A8300D083D0E0F8D0E032740480067402800280
:101A93007401C0E0F40412183DD0E012171222744E
:101AA30004800474028000CCC0E0EDC0E0E521C3F3
:101AB3009CCCAD2250011D10AF068C218D228006D7
:101AC3008C218D22D2AF12171FD0E0FDD0E0FC2273
:101AD300D083D082E9C0E0E493A3C386F0C5F09538
:101AE300F0F908E493A386F0C5F095F0700BE49346
:101AF300A3C3994005E9048002A3E475F002A42579
:101B030082F582E5F03583F583D0E0F9E493A3C051
:101B1300E0E493C0E022D083D082ECC0E0EDC0E0EB
:101B2300E493A3FCE493A3FDED4C600D121B65EC61
:101B330024FFFCED34FFFD80EFE493A3FCE493A3C7
:101B4300FDED4C600D121BA4EC24FFFCED34FFFDF6
:101B530080EFD0E0FDD0E0FCE493A3C0E0E493C0C9
:101B6300E022C0E0C3E49396087401939618400FF3
:101B7300E49366700808740193661870007019A3E3
:101B8300A3C3E49396087401939618A3A3400DD0BE
:101B9300E0D0E0D0E0021B55A3A3A3A3A3A3D0E00E
:101BA30022C0E0C0F088F0E49366700808740193E3
:101BB30066187000A8F0A3A3700BD0F0D0E0D0E0BB
:0C1BC300D0E0021B55A3A3D0F0D0E0221C
:101BD00074F61218E8EAFEEBFF8C088D09EE243447
:101BE000F8E43FF9E8FCE9FDEE2435121F0AFAEEAD
:101BF0002437121F0AF88508F0A4C885F00A850961
:101C0000F0A4250AF9EA28F8E439F97A257B0012CC
:101C10001781EA8C828D83F0FA131313541FF8EEA8
:101C200028F8E43FF9E8245DF582E439F583E0C063
:101C3000E074075AF8D0E0B800028004C313D8FC5F
:101C4000A2E0EE50082434F582E43F8018243612D6
:101C50001F0AF5F0EA84A8F0EE28F8E43FF9E8243A
:101C600038F582E439F583E0F97F0302199474F7BB
:101C70001218E8EAFEEBFFEE2434121F0AC0E0EE71
:101C80002435F582E43FF583D0E0F08E828F83A384
:101C9000A3A3A3A3A3A3C082C0838E828F83A3A385
:101CA000A3A3A3121D73D083D082E0C398F508A329
:101CB000E099F509EE247F121F0A6401705DEE249D
:101CC00080121D6D8E828F83A3A3A3A3A3A3A3124F
:101CD00020AD8E828F83A3A3A3A3A3E0FAA3E0FB8E
:101CE000C3EA9CEB9D5010C3EC98ED99402DC3EADC
:101CF00098EB995026800EC3EA98EB994007C3EC05
:101D000098ED9940167CB07D04EEFAEFFB120C586A
:101D1000EE247FF582E43FF583E4F0AC08AD09EEF4
:101D2000FAEFFB121BD0E9F91229527F0202199433
:101D3000C082C083852182852283121D73C3EA9CE1
:101D4000EB9D5010C3EC98ED99401BC3EA98EB99BA
:101D50005014800EC3EA98EB994007C3EC98ED99B4
:101D60004004790180027900D083D08222F582E498
:101D70003FF583E0F8A3E0F922EAC39CFAEB9DFB70
:101D80002274EF1218E8900376E064086005E064BE
:101D900007702A9061C8E060249003A4E0F4601DFD
:101DA000E0F875F00AA4C8AAF02AF974A628FE740F
:101DB0000339FF8E828F83A3A3A3E07003021E8FDB
:101DC000906060E0C0E0EE2468F582E43FF583D0E7
:101DD000E0F0750C20750D05750800750900E5D952
:101DE00014F50AE5D95403F50E60127403650E600C
:101DF00043E50A600AEE2467121F0A70028075909C
:101E0000051BE06401601F121F0760047A04800252
:101E10007A00E50AC39AFA95E0FB120AF68A088B63
:101E200009EA45097005120E988064121F077004B4
:101E30008A0C8B0DE50A6012850C82850D83F50BEB
:101E4000E5D9F0A3150BE50B70F6121F076044747B
:101E5000FC250AF50A780C121A8FAC0AA90EEEFAC4
:101E6000EFFB120D127402121822E97026AA08ABB9
:101E7000091213C0793D8E828F83A3A3A3A3E0FA36
:101E80007B00120958EEFAEFFB120C7C120D24793C
:101E900000806F7403650E6051850A10751100781B
:101EA00010121A8FAC0CAD0DAA08AB09120CD67427
:101EB00002121822EE2468121F0A64807004747FD4
:101EC0008001E0F50C780C121A93E50EF50C780CF5
:101ED000121A93A90AAC08AD099003A4E0FA7B009A
:101EE00012092E74021218228013900376E06408FF
:101EF000600BAC0CAD0DEEFAEFFB120D96120EA4BA
:101F000079017F0A021994EE2482F582E43FF58379
:101F1000E02274F21218E874FC12180CEAFEEBFFCF
:101F20008909A2AFE433F508C2AF021FCEE0601BFF
:101F3000780C121A8FAC0BA90EEEFAEFFB120D0CF7
:101F400074021218227404250BF50B7401250BF58D
:101F5000D9850ED9E50B6018F50A850C82850D83AD
:101F6000E0F5D9A385820C85830D150AE50A70EA90
:101F700075E195EE2463F8E43FF97A007B00A2AFA7
:101F8000E433F50BC2AF1220A9EC4D603288828990
:101F900083E0FAA3E0FB8A828B831220AD888289DA
:101FA00083ECF0A3EDF08A828B83E4F0A3F012209F
:101FB000A9EC4D700A88828983A3A3E4F0A3F0E51D
:101FC0000BA2E092AF1213C09004B7E004F0EE242D
:101FD00063121D6DE8496064EE2463121F0A240237
:101FE000F8A3E03400F988828983E5822402F50CA5
:101FF000E43583F50DE0F50BA3E0F50EEE24621257
:102000001F0A640170369061D0E0F8121F07600467
:102010007C0480027C007480C398FA95E0FBE50B99
:102020002CF8E43400F9E82402F8500109C3EA98D6
:10203000EB99A2D265D0334003021F2D9004B7E084
:10204000604D9004B8E0F89004B7E0C398500C7469
:10205000026509703A9004B9E060348E828F83A3E0
:10206000A3A3A3E085218285228312209F740212FC
:102070001858E812209F9004B6E028F07402121855
:1020800072AA21AB2279011209829004B7E4F0E52B
:1020900008A2E092AF74041218227F07021994F08C
:1020A000A3E4F09004B7E0F82288828983E0FCA3DF
:1020B000E0FD22008524878525C622C0E074EB124E
:1020C00019D4A2AFE433F508C2AF759B00906182CA
:1020D000E0A2E05030E591A2E0502A7591FE740133
:1020E0006524702112224E120DE412223C121AA213
:1020F0001226FC7404121822E96401700579011299
:102100000E2C121D81906182E0A2E5505DE591A246
:10211000E550577591DF900376E064076005E06451
:1021200008702F12224E74016524703E120DE412C5
:10213000223C121AA21226FC7404121822E964012D
:1021400070057901120E2C7901EEFAEFFB121F12C5
:102150008018E0640D7013900398E004F064287018
:1021600002E4F07A00E0F9120EAA906182E0A2E6A1
:102170004003022211E591A2E6400302221175916B
:10218000BF900376E064057008120DCC120DD88064
:1021900003120DD2752400120E38E9900377F079FE
:1021A00000120E2C120BC27A017B00900375E0F92D
:1021B0001210FC907803E06442705690051FE01402
:1021C000F0704EC2AF1221C800782DD0E0F618D0C2
:1021D000E0F6E59F5407F87005750DFF8003750D57
:1021E0007FC4C0E0782CE6F50A08E6550DF50B74BF
:1021F0000B780A1217EAD0E0250AF8906270E0A284
:10220000E740F8E8C333906272F0906270E0D2E089
:10221000F0906181E0A2E35009E5E9A2E350037583
:10222000E9F7A3E0A2E75009E591A2E75003759111
:102230007FE508A2E092AF7F08021A338E828F8377
:10224000E0F8A3E0C82416F582E438F58322900371
:10225000A4E0F875F00AA4C8AAF02AF974A628FE2A
:10226000740339FF22C0E0C0D0C082C08390618374
:10227000E0A2E05009E5BFA2E0500375BFFEE0A276
:10228000E15009E5BFA2E1500375BFFDE0A2E250B5
:1022900009E5BFA2E2500375BFFBE0A2E35009E5E8
:1022A000BFA2E3500375BFF7E0A2E45009E5BFA267
:1022B000E4500375BFEFE0A2E55009E5BFA2E55089
:1022C0000375BFDFE0A2E65009E5BFA2E650037543
:1022D000BFBFD083D082D0D0D0E032C0E074F21241
:1022E00019D4E5A7A2E6500FE5A1A2E6500953A72D
:1022F000BF75A1BF12232FE5A7A2E5500CE5A1A24F
:10230000E5500653A7DF75A1DFE5A7A2E15009E577
:10231000A1A2E1500375A1FDE5A7A2E2500CE5A141
:10232000A2E2500653A7FB75A1FB7F01021A33748A
:10233000F71218E8752401900376E0640670151210
:102340000D488A828B83A3A3A3A3A3A3E0FAA3E0EF
:10235000FB120DBAA2AFE433FED2AF90037CE0646F
:102360000170187A207B00900375E0F91211807AD1
:10237000207B00900375E0F9121102906182E0D297
:10238000E6F090051CE0602185C625801690037B51
:10239000E064017008E5C654F84405F5C653BEFC78
:1023A0001220B47401652460E4EEA2E092AF7F02D3
:1023B000021994008E268F2785822B85832A8521FA
:1023C00082852283E0CEA3E0CF852B82852A83EB12
:1023D000C9EAC8EDCBECCA75F010C3E833C8E933DD
:1023E000C9EA33CAEB33CBC3EA9EF529EB9FF52844
:1023F000B35004AB28AA29EC33CCED33CDD5F0DAB9
:10240000AE26AF272274E91218E874FA12180CEA03
:10241000FEEBFF8C0A8D0B120DF0EAF8EBF9ECFAEB
:10242000EDFB8E828F83121706900376E024F7C3AC
:102430009405500675140102256C120D488A088B0C
:1024400009EA45097003022569EEFCEFFDAA21ABFC
:1024500022120DEA850882850983A3A3780C12163F
:10246000C490838C780C12169E85218285228378F5
:10247000101216C490838C781012169E780C791066
:102480001214D7501F780C791012167690831C788E
:102490000C1214F74047850C14850D15850E168512
:1024A0000F17804590831C85101485111585121611
:1024B0008513177814790C12167678141214F750C5
:1024C0001C751400751500751600751701781479C0
:1024D000101216767814790C12163D800C751401C2
:1024E0007515007516007517007409781412161EFC
:1024F00090836C780C1216C47814790C121596859A
:102500000882850983A3A3A3A3A3A312258A121774
:1025100081880C890DE4F50EF50F7814790C1216EC
:102520003D740412185812258A121781E8FA8A0C91
:10253000E4F50D7814790C1214D750077814790C3F
:10254000121676900376E06408600AE0640660057F
:10255000E06405702090831878141214F7501690D8
:1025600083147814121650800C75140075150075BC
:102570001600751700850A82850B8378141216D30E
:1025800074061218227F10021994E0F8A3E0F97A79
:10259000D07B032274F71218E8120E0290051AE09D
:1025A00064017010906245E4F0A3F053F4F343FE2D
:1025B0000C5390F3120DA8E5C654B84441F5C6E596
:1025C0009E5447644170F8906185740FF09005182F
:1025D000E0F47002A3E0604E900519E0600814601A
:1025E0001B14602E8040750801750900900518E0E5
:1025F00078081217F9E508F45280802A75080175E9
:102600000900900518E078081217F9E508F45290CF
:102610008014750801750900900518E078081217F4
:10262000F9E508F452A079007F0202199474F712B8
:1026300018E8E9FEEAFF120E0274016E700C7A804F
:102640007B00900375E0F91210FC9029A8E493F444
:102650006008E493F9120BB6800953C6B8E59E549E
:102660004770FA120DAE90051AE064017003120B68
:10267000DA900518E0F47002A3E0604B900519E0D1
:10268000600814601A14602C803D750801750900FB
:10269000900518E078081217F9E50842808028753F
:1026A0000801750900900518E078081217F9E50887
:1026B00042908013750801750900900518E07808AC
:1026C0001217F9E50842A0120D488A088B09A808DC
:1026D000A909E8496014E5E170FCE82414F582E4F6
:1026E00039F583E0F46003E0F5E174016F700A7A74
:1026F00001900375E0F912115002262874F11218A6
:10270000E88A088B098C0A8D0B90838C7808121646
:102710009E740F121858780C1216C490838C780C83
:1027200012169E7808790C1214D790831C501078DA
:1027300008790C12167678081214F74014800E7877
:102740000C7908121676780C1214F750047901806F
:102750000279007F0802199474ED1218E88A088B38
:10276000098C0A8D0B90838C780812169E741312B4
:102770001858780C1216C490838C780C12169E7818
:102780000C79081214D740117808790C121676AA21
:1027900008AB09AC0AAD0B802275100075110075ED
:1027A00012007513017810790C12167678107908DA
:1027B00012163DAA10AB11AC12AD137F0C02199486
:1027C00090838C78081216C48A828B83780812163C
:1027D000B17F0402199474F51218E88C828D837805
:1027E000081216C48A828B83780812168A12282E41
:1027F000C3E09CF0A3E09D12282040229083407803
:10280000081216C48A828B8378081216638A828B18
:1028100083A3A3A3A3E02420F0A3E0344EF080A080
:10282000F088828983C3E09420A3E0944E22EA24B6
:1028300004F8E43BF98C828D83A3A3A3A3E0FCA35B
:10284000E0FD888289832274F51218E8E9FE90047D
:10285000D2E0FAA3E0FBEE29F8E433F9745528F549
:1028600082748239F583E02AF508A3E03BF5097804
:1028700008121A8F9083981216E21223B47402126F
:1028800018228A088B098C0A8D0B7410780812168E
:1028900005AA08AB097F0402199474F11218E88A9A
:1028A0000C8B0D8C0E8D0F7411121858121AA67401
:1028B00011121858E02401F508A3E03400F509E4EA
:1028C000F50AF50B780C7908121516908310780824
:1028D0001216C4780C7908121516AA0CAB0DAC0EA2
:1028E000AD0F1223B474021218228B09EA45096055
:1028F000047A0180027A00EC2AFCE43DFD74131294
:102900001858E0F8A3E0F9E8FEE9FFECF8EDF97AF1
:10291000717B0212178188088909E4F50AF50B8E8C
:10292000828F8378081216D3ECF8EDF97A717B0266
:102930001217818A088B09740578081217F98E829C
:102940008F83A3A3A3A3E508F0A3E509F07F080202
:102950001994C082C083E9906000F0D083D08222B5
:10296000C2AF02000022C0E074F21219D4E5A8FE42
:10297000D2AF121360C2EBEEA2E7A2E792AF7F01E3
:10298000021A33C0E0C0D0E8C0E0E9C0E0E5A8D258
:10299000AFC2C7752300A2E7A2E792AFD0E0F9D09B
:0729A000E0F8D0D0D0E032D6
:1029A800FFFFFFFFFFFFFFFFC082C083E990160D06
:1029B800F0D083D08202013274F612187CE99002BA
:1029C800E8F0900348E0F5087509007402780812E9
:1029D80017F9AA08AB091211389002E9123373905B
:1029E80002E9123760606F900348E075F003A4FABB
:1029F800ABF01211389003061233739003061237A6
:102A080060700B9002E912373112113E8048900332
:102A1800061246C57AFF7BFF1212C47A0080198A13
:102A280008750900740278081217F912416D74FFCD
:102A3800122B73E4F0A3F00A900348E0F8EAC39875
:102A480040DD79051208149002E8E0F91207067AC9
:102A58009E7B08120A9602421074F412187C8A08A7
:102A68008B09EB548060479002E8E0F91210E48A81
:102A78000A8B0BAE0AAF0BEE4F602A8E828F83E073
:102A880064B0701A120826E960148E828F83A3A39B
:102A9800A3A3E0F9EE2405FAE43FFB1207F6EEFAE9
:102AA800EFFB1210D2AA08E5096480FB80047A00C3
:102AB8007B00022CC374F212187C74FB12180CEA07
:102AC800FEEBFFEE4F60457403121858EEF0A3EFCB
:102AD800F0852182852283ECF0A3EDF074021218B0
:102AE80058E9F0AA21AB22120700E9F508707574BD
:102AF80013121858E0F50AA3E0F50BE50A450B6038
:102B0800638E828F831230FCEE4F70057508028049
:102B1800537A067B001211388A0C8B0DA80CA90D6C
:102B2800E8497005750813803B88828983E4122B75
:102B380073EEF0A3EF122C8FE50AF0A3E50BF090EB
:102B480002EC122C889002EC6017E0FCA3E08003F2
:102B5800EAFCEBFD8C828D83122C8870F38C828DBD
:102B680083123D88A9087405024945F0A31246A7B7
:102B7800A32274F212187C8908890C750D0074035D
:102B8800780C1217F9850C0A850D0B9002EBF09062
:102B980002E9123B93122C86602E12113E790080B6
:102BA8001D890C750D007402780C1217F99002E952
:102BB80012402C8882F583A3A3E4F0A3F0099003C4
:102BC80048E0F8E9C39840D9900348E0FA850AF04C
:102BD800A4CAA8F0850BF0A428FB1211388A0C8B24
:102BE8000DAE0CAF0DEE4F7003022C7C900348E045
:102BF800FC850AF0A4CCA8F0850BF0A428FD790088
:102C08001210C07C0080318D0C750D007403780C97
:102C18001217F98A828B83122C8188828983E4F0C7
:102C2800122C8EA3A3F0A3F00DEDC3950840D8EEA7
:102C3800250AFEEF350BFF0C900348E0F8ECC3982B
:102C480050288C0C750D007402780C1217F990023C
:102C5800E9122C81E82402500109FAE9FB8A828BE7
:102C680083EEF0A3EFF07D0080BFE5089002EBF063
:102C7800790080027913024948124030F922A3A34F
:102C8800123735EA4B22A31246A7A3A3A32274F452
:102C980012187C7900EAA2E0501F7508F4750982C1
:102CA8007808121A8F79107C047D007A0F7B16122F
:102CB800080E7402121822E9F980007F0402194EE6
:102CC800C082C0839002EC123760601C88828983BE
:102CD800A3A3E06A7003A3E06B8882898370E8A3EA
:102CE800A3A3A312373180047A007B000229B974A8
:102CF800F212187C74FD12180CEAFEEBFF85218293
:102D0800852283E4F0A3F074021218587401F012BB
:102D1800375D70141209D01211389002EF12337314
:102D280012375D7003022E89123473EE2404F50AFB
:102D3800E43FF50B850A82F583E024FE603C24FC21
:102D4800607424FE607E24FE7003022DD924FE7078
:102D580003022DE624FE7003022DF324FE70030205
:102D68002E0024FE7003022E0D24FC7003022E2E6A
:102D780024FE7003022E46022E821209D09002F120
:102D8800EAF0A3EB122E95120442E96003022E82A8
:102D98009002F1121AA68E828F83A3A3A3A3A31273
:102DA80046C58508828509831237311207DE740209
:102DB800121822022E82AC21AD22EEFAEFFB120885
:102DC8002C022E51AC21AD22EEFAEFFB1208328014
:102DD80078AC21AD22EEFAEFFB120838806BAC21FB
:102DE800AD22EEFAEFFB12083E805EAC21AD22EE7A
:102DF800FAEFFB1208448051AC21AD22EEFAEFFB4A
:102E080012084A80447402121862880C890D780CE2
:102E1800121A8F7402121872EEFAEFFB120850742D
:102E2800021218228023AC21AD22EEFAEFFB120821
:102E380056E9F870167402121858E4F0803CAC2178
:102E4800AD22EEFAEFFB12085CE9F8E8602C8E82FE
:102E58008F83A3E064146022850A82850B83E09047
:102E680002F1F08521828522831237319002F21215
:102E78003373E8A3122E9512043CEEFAEFFB120707
:102E8800B47402121858E0F97403024945F07CF151
:102E98007D028508828509831237352274E8121865
:102EA8007C74FA12180C7404121858ECF0A3EDF0A4
:102EB8008A128B13EA2405F50EE43513F50FEA247C
:102EC80002F510E43513F511851082F583123731B8
:102ED80012052C8A0A8B0B7508007C037D0079008B
:102EE8007AF17B021210C0E50E2402F516E4350FC4
:102EF800F5177402121862880C890D780C121A8F53
:102F0800850E82850F83A3A3A3A3E0F50C750D009E
:102F1800780C121A8FE50E2405F50CE4350FF50D23
:102F2800780C121A8F851682851783123A38120781
:102F38001E74061218228A0C8B0DE50C450D7003C1
:102F48000230C58020852182852283E0888289839A
:102F5800F00508852182852283A3E0C0E0123106AE
:102F6800D0E0F00508E50A24FBFAE50B34FFFBC3C3
:102F7800E5089AE49B40030230C57E007F00851275
:102F880082851383A3A3A3A3E0F5097809121A93F2
:102F9800E4F514F5157814121A8F7514EE751502E8
:102FA8007814121A8F9002EF121AA6740912185880
:102FB800121AA6E50A24F9F9AC0CAD0D8510828524
:102FC80011831237311208867409121822E9600336
:102FD800023066850E82850F83A3A3A3A3A3A3A3B0
:102FE800E0F89002EEE0687075E0F5148E1578143C
:102FF800121A8F1246C2850E82850F83A3A3A3A33C
:10300800A3A3A3A31237311210BA7402121822E92B
:10301800604C9002F2123760703BE4F51478141299
:103028001A8F7CFF7DFF79078510828511831237FF
:10303800311207F074021218221237667017850EC3
:1030480082850F8312485F740412185812412012A7
:103058003A690230F9850C82850D831230FCA8216B
:10306800A922881489157814121A8F740412185812
:10307800121AA685168285178312336912072A74D5
:10308800041218228A0C8B0DEE4F7003022F421285
:103098003106EE123111123A1FEF123111F8A3E086
:1030A8003400F9E50C450D6003022F4D88828983B1
:1030B80074FFF0050812310674FFF00508E5086092
:1030C8001A1313543F12337912044EE9600990021F
:1030D800F21237311213C079008016850E82850FDF
:1030E8008312485F7404121858124120123D8879DF
:1030F8000A0239F2A3A3A3A3E0FEA3E0FF22A808D3
:103108009002F2E028123A1F22F00508089002F215
:10311800E0282274E812187C74FA12180C7402124F
:1031280018581233737404121858ECF0A3EDF074A5
:1031380002121858E02405123A08E0F50CA3E0F54D
:103148000D7402121858E02402F510A3E03400F5BB
:1031580011851082F58312373112052C7508007518
:103168000900EA24FCFEEB34FFFF8008050CE50C9F
:103178007002050DA808C3EE98EF940050030233BF
:1031880025A821A922880E890F780E121A8F851476
:1031980082851583A3A3A3A31246C9121A8FE51427
:1031A8002405F50EE43515F50F780E121A8F8514DF
:1031B8008285158312336712071E74061218228A35
:1031C8000E8B0FEA450F7003023325EA2404F51627
:1031D800E4350FF517851682F583E0F50CA3E0F5C5
:1031E8000D8521828522831246C58A828B83A3A3FB
:1031F800A3E0F985108285118312373112070CE993
:10320800F50960030233257402121858123A2FF593
:10321800097809121A93E4F512F5137812121A8F25
:103228007512EE7513027812121A8F9002EF121AA5
:10323800A67407121858121AA6EEF9AC0EAD0F852F
:1032480010828511831237311208867409121822E8
:10325800E9F5096003023325E508703FE4F50EF54A
:103268000F780E121A8F7CFF7DFF790985108285F1
:1032780011831237311207F07402121822123A55CC
:10328800700D740412185812335C79110233599076
:1032980002EEE024029002F2F080149002F2E0FACA
:1032A8009002EEE0790024025001096A497072A880
:1032B800089002EEE0FAE82AFAE43400FBEE9AEF0E
:1032C8009B405A851682851783E0C0E09002F3126E
:1032D800310BD0E0F00508851682851783A3E0C07E
:1032E800E0089002F312310BD0E0F005089002EEEE
:1032F8001246C9121A8F1246C2A8081239FC1210B7
:10330800A874021218229002EEE02508F50874FF4E
:10331800650C700474FF650D6003023174E5086084
:103328001F9002F2E0F5F0E5088412337912045494
:10333800E960099002F31237311213C07900801145
:10334800E509700375090A740412185812335CA948
:10335800090239F2123B97E50CF0A3E50DF022A320
:10336800A3124954AA0CAB0D22A3A3EAF0A3EBF0D5
:10337800229002F1F07CF17D028510828511831282
:1033880037352274EC12187C74FC12180C123E9813
:10339800740212187212372B1207248A0C8B0DEA4A
:1033A800450D7003023463123473A821A9228810D2
:1033B80089117810121A8F7CFF7DFF790B8508829E
:1033C8008509831237311207F07402121822123558
:1033D80069700C850A82850B83123A660234708EF6
:1033E800828F83A3A3A3A3E0F5127812121A93E4A1
:1033F800F512F5137812121A8F7512F175130278F7
:1034080012121A8F7810121A8F7409121858121A79
:10341800A67409121858E0F9AC0CAD0D8508828520
:1034280009831237311208867409121822E9FE70CE
:10343800157CF17D028508828509831237311204D3
:103448005AE97009802074166E70027E009002F2AC
:103458001237311213C0EE7004800B7E01850A8288
:10346800850B83123D85EEF9023D9AEE2402F5089C
:10347800E43FF5092274EC12187C74FC12180CEA6B
:10348800FEEBFF8C0E8D0FEE2405F508E43FF509E1
:10349800740212187285088285098312373112075F
:1034A800248A0C8B0DEA450D7003023559EE24026F
:1034B800F50AE43FF50BA821A92288108911781094
:1034C800121A8F7CFF7DFF790D12372B1207F074CB
:1034D80002121822123569700B8508828509831239
:1034E8003A66807A8E828F83A3A3A3A3E0F512782D
:1034F80012121A93850882850983A3A3121AA67546
:1035080012F17513027812121A8F7810121A8F742A
:1035180009121858121AA67409121858E0F9123725
:10352800271208867409121822E9FE700F7CF17DB3
:103538000212372B120460E97009802074166E702D
:10354800027E009002F21237311213C0EE7004802E
:103558000B7E01850882850983123D85EEF9023DBF
:103568009A123770F510A3E0F511EA45112274E8B4
:1035780012187C74FE12180C8A168B178C148D1571
:10358800EA2405F50CE43517F50DEA2402F50EE4F6
:103598003517F50F850E82F58312373112052C8AFF
:1035A800088B09750B007C037D0079007AF17B029A
:1035B8001210C0750A00E50814F5100424FFF50878
:1035C800E50934FFF50980549002F1E0FA9002EE23
:1035D800E0F8EA28F8E43400F9E50898E509995094
:1035E8000D9002F1E0F8E510C3989002EEF0E0F5D6
:1035F800127513007812121A8F1246C29002F2E066
:103608002AFAA3E03400FB1210A8740212182290C0
:1036180002EEE0F89002F1E028F0050A850C8285B8
:103628000D83A3A312403C400302370C9002F1E043
:10363800C39508E49509400302370CAE0AEE2EFE46
:10364800E433FF12374BAC21AD221246DDE439FBDF
:103658001207248A128B13AC12AD13EC4D701B7534
:103668000B0112373B123D899002F2122C8860033D
:103678001213C0A90B74020239F4851682851783C8
:10368800A3A3A3A3E0F50B780B121A93E4F512F5A4
:10369800137812121A8F7512EE7513027812121A15
:1036A8008F9002EF121AA67407121858121AA6A9B8
:1036B80010850E82850F831237311208867409121D
:1036C8001822E9F50B709B9002F212376060030232
:1036D80035D0E4F512F5137812121A8F7CFF7DFFAE
:1036E800790F850E82850F831237311207F0740225
:1036F80012182212376660030235D012373B123A8D
:103708006A02367D7CF17D02850E82850F83123731
:1037180031120466E96003023670790002367DAC26
:103728000CAD0D850A82850B8312373522E0FAA38A
:10373800E0FB2212374BE0FAA3E0F9EA8514828510
:10374800158322850C82850D83E02EF8A3E03FF9CE
:1037580088828983229002EF124863E8492212374F
:1037680070F8A3E0F9E849229002F2EAF0A3EBF03E
:103778009002F2E02274E812187C74FA12180C74A1
:10378800041218581233738C168D177404121858B3
:10379800E02405F50EA3E03400F50F740412185860
:1037A800E02402123A0812373112052C8A0A8B0BD0
:1037B8007F007E00A821A922880889097808121AA2
:1037C8008F850E82850F83A3A3A3A3E0F5088E0936
:1037D8007808121A8FE50E2405F508E4350FF50967
:1037E8007808121A8F850E82850F83A3A3123A38A0
:1037F80012071E74061218228A0C8B0D8029123AA1
:1038080029F00F123A29F00F9002EE123D74121AA5
:103818008F1246C2EFF81239FC1210A8740212185F
:10382800229002EEE02FFFE50C450D70030238B838
:10383800852182852283123EAAA3A3A3E0F98514D9
:103848008285158312373112070CE9FEE50C240432
:10385800F510E4350DF511EE705074041218581275
:103868003A2FF5087808121A93E4F508F50978084C
:10387800121A8F7508EE7509027808121A8F9002CD
:10388800EF121AA67407121858121AA6E50A24FA93
:10389800F9AC0CAD0D8514828515831237311208E9
:1038A800867409121822E9FE6039123A45123D88D9
:1038B800EF70030239DF9002F2E0F5F0EF84900236
:1038C800F1F07CF17D02851482851583123731125F
:1038D800046CE960099002F31237311213C07900C1
:1038E8000239F28F08EF703BE4F512F513781212E3
:1038F8001A8F7CFF7DFF7911851482851583123715
:10390800311207F07402121822123A557009123A4D
:1039180045123A690239F29002EEE024049002F26C
:10392800F080359002EEE0F89002F2E0FAE8240424
:10393800FCE43400FDEC6A4D60030238BEE50A245D
:10394800FAFAE50B34FFFBE50828F8E43400F9EA55
:1039580098EB9950030238BE851082851183E0C028
:10396800E09002F3E02FF8A3E034008882F583D0DA
:10397800E0F00F851082851183A3E0C0E0123A16AB
:10398800D0E0F00F740212186288088909780812CA
:103998001A8F7402121858121AA6850E82850F8380
:1039A80012336712072A74041218228A0C8B0DEA44
:1039B800450D70030238067402121858E0C0E01270
:1039C8003A16D0E0F00F7402121858A3E0C0E012C3
:1039D8003A16D0E002380EEE70027E0A850E828515
:1039E8000F83123A4B123D88EEF974061218227FA3
:1039F8001002194E9002F3E028FAA3E03400FB22EB
:103A0800F514A3E03400F515851482F58322123AE3
:103A18001A229002F3E02FFAA3E034008A82F58399
:103A280022123A1A74FF22123B97A3A3A3A3E022FF
:103A3800124954850E82850F8312373522851082EC
:103A4800851183124863851682851783229002F3B5
:103A5800EAF0A3EBF09002F3124863E84922123D22
:103A68008EE8F0A3E9F079112274EA12187C74FE4A
:103A780012180C8A088B098C128D13EA2405FEE4AF
:103A88003509FFAC21AD228E828F831237311207A0
:103A9800248A0C8B0DEE2406F50EE43FF50FEA455B
:103AA8000D7003023B69E5082402F50AE43509F5BF
:103AB8000B8A828B83A3A3A3E0A2E55028852182E9
:103AC80085228312373112087A8A108B11EA451140
:103AD8006020791212372785108285118312187A8F
:103AE800E9F50C707F850E82850F83E060097952B5
:103AF8008011750C0E806D850882850983A3A3A3A8
:103B0800A3E0F9E4F508F5097808121A8F8E828F78
:103B180083A3A3E0F5087808121A8F8E828F83A3F7
:103B2800A3A3121AA68E828F831246C512372B12B0
:103B3800088C7406121822E9F50C7011850E82851E
:103B48000F83E0702D12372B1204728025741665CE
:103B58000C7011750C007418121858123B93E480FD
:103B680010750C0112485B851282851383E8F0A357
:103B7800E9F0850E82850F83E0600479008002A950
:103B88000C74021218227F0E02194E123B9722E083
:103B9800F8A3E0F58388822274EC12187C74F7127B
:103BA800180C8A0A8B0B8C108D11EA2405FEE4355B
:103BB8000BFF750C00AC21AD228E828F831237313A
:103BC8001207248A088B09EA45097003023D5FE55C
:103BD8000A2402F50A5002050B8A828B83A3A3A349
:103BE800E0A2E5502F852182852283123731120801
:103BF8007A8A0C8B0DEA450D604F7912AC08AD0935
:103C080012372B850C82850D8312187AE9F50C6022
:103C180003023D62850A82850B83E0F508A3E0F57F
:103C280009AA08FB12086EEA4B70197AFF7BFF128B
:103C3800086EEA4B7003023D558A828B83E508F0D3
:103C4800A3E509F07508008008750C0E023D6205B1
:103C5800089002EBE0F8E508C3984003023D55855B
:103C6800080E750F007403780E1217F98A828B8379
:103C7800A3A3E0250EF8A3E0350F12412970D08EDA
:103C8800828F83123D7D1233738E828F83A3A3129A
:103C98003D7D123371EE2404F508E43FF5098508EB
:103CA80082F583E088828983A3A3A3A3F0A3E4F029
:103CB800EE2405F50EE43FF50F850E82F583123DDF
:103CC8007DA3A3A3A312337175120775130078128D
:103CD800121A8FEEFCEFFD740412186A1210A87401
:103CE80002121822E4F5127812121A8F85088285BA
:103CF8000983E0FC7D00791712372B1207F0740254
:103D080012182274071218581233737407121858AD
:103D1800E0FA4B603D850882850983123D74121ACA
:103D28008F850E82850F831246C51210A874021261
:103D38001822740212187212372B120478E96026BE
:103D480074071218581237311213C08019750C09EC
:103D58008008750C118003750C0112485B85108270
:103D6800851183123D88A90C74098028E0F508752F
:103D780009007808221237358882898322123D8EFD
:103D8800E8F0A3E9F022E0F8A3E0F9850E82850FB8
:103D9800832274041218227F0C02194E74EC121834
:103DA8007C123E98751000EE2402F50CE43FF50DE8
:103DB800850C82F58312373112086E8A088B09EA5E
:103DC80045097003023E7C850A82850B83E0640105
:103DD8006003023E71AC08AD09AA0AAB0B12086277
:103DE800E9606E8508828509831230FEEE2406F5A7
:103DF8000AE43FF50B8E828F83A3A3121AA68E8244
:103E08008F83A3A3A3A3121AA6850A82850B831204
:103E18001AA679188E828F83123EAA123731120899
:103E28008C7406121822E9F8741668700B850A82D9
:103E3800850B83E4F0A38014E860128E828F8312CE
:103E48003731850E82850F83EAF0A3EBF088108066
:103E580018780E121A8FAC08AD09EEFAEFFB1208AB
:103E6800687402121822E9F510AA08AB091208743E
:103E7800E510700E850C82850D8312373112047E91
:103E88008009741665107003751000A910023D9F13
:103E9800EAFEEBFF8C0E8D0FEE2405F50AE43FF5E4
:103EA8000B22124954850C82850D832274EA12185C
:103EB8007C7508007509007E007F00750A00EC24F7
:103EC80002F510E43DF5118035EC65087003ED65E9
:103ED800096003023F6988828983A3A3E06A7003AB
:103EE800A3E06B707C88828983A3A3A3A312485F95
:103EF800EE28FEEF39FFEA28FAEB39FB050A1240F3
:103F080039503A850A0C750D007403780C1217F9AC
:103F180085108285118312402C124129601FE50803
:103F2800450970A58C088D09888289831230FC8820
:103F3800828983A3A3E02EFAA3E03F80BEE50AC3EB
:103F480094025003024027750800750900EE4F607F
:103F580010EEFAEFFB1213BA8A0E8B0FEA450F70B8
:103F6800057900024029750B00023FFC850B0C7592
:103F78000D007403780C1217F9851082851183E0FF
:103F8800250CF50CA3E0350DF50DE50C2406F5140C
:103F9800E4350DF515851482F58312412E6042E54E
:103FA8000C2404F512E4350DF513851282F58312FD
:103FB8001AA6E50E2508FAE50F3509FB1210A874B4
:103FC80002121822851282851383E02508F508A3BA
:103FD800E03509F5098514828515831237311213E6
:103FE800C0E50B600D7C087D007900AA0CAB0D12B2
:103FF80010C0050BE50BC3950A5003023F748510EA
:104008008285118312485F88828983A3A3A3A3A30F
:10401800A3E50EF0A3E50F122C8FEEF0A3EFF079D5
:1040280001023B8E12403022E0250CF8A3E0350D4A
:10403800229002EBE0F8E50AC3982274F012187C8B
:104048008A0E8B0F8C0A8D0B750D00750C00805035
:104058007916EE2406F508E43FF5098E828F83A3CE
:10406800A3121AA68E828F83A3A3A3A3121AA685CE
:104078000882850983121AA6850E82850F83A3A359
:1040880012373112088C7406121822E9F50D7416CD
:10409800650D706C850882850983E4F0A3F0050C32
:1040A8009002EBE0F8E50CC3985066AA0C8A0875F4
:1040B8000900740378081217F9850A82850B83A30F
:1040C800A3124178E8FEE9FF8E828F8312412E60A9
:1040D80040EA2401F508E43400F5099002EBE065B4
:1040E800087002E509601488828983A3A3A3A3A3A7
:1040F800A3A3A31237606003024058791802405AFC
:10410800E9609B12485B7410121858124120123D46
:1041180088A90D7F0802194EE0FAA3E0F5838A8288
:1041280022F988828983124954EC4D2274F61218B8
:104138007C7C0080010C900348E0F8ECC398501E8A
:104148008C08750900740278081217F912416DE09D
:104158006A7003A3E06B70DDE8FAE9FB80047A007B
:104168007B000242109002E91241788882898322FA
:10417800E02508F8A3E03509F92274F212187C8AC0
:10418800088B09750A0080278E828F83A3A3A3A3B7
:10419800122C8660031213C07C087D007900EEFAA9
:1041A800EFFB1210C08E828F83E4F0A3F0050A1291
:1041B80040395027850A0C750D007403780C1217C6
:1041C800F9850882850983A3A3E0250CFEA3E035C1
:1041D8000DFF8E828F8312376070AD850882850946
:1041E8008374FFF0A3F002494874F612187C120891
:1041F800208A828B83E582458370067A007B008063
:1042080007A3A3A3A31237317F0202194E74F41235
:10421800187C89088C828D83E06402703C1247FE0A
:10422800FEA3E0F9EEF87402687003742969702936
:10423800750A02750B00780A121A8F741012185832
:10424800121AA67410121858121AA6A9081212CA1D
:104258007406121822E9F980027901022CC374E865
:1042680012187C74FB12180CE9852182852283F0D0
:104278008A168B17ECFEEDFF7510008E828F83A3D4
:10428800A3A3E0A2E4502D741D121858123731125E
:10429800087A8A828B83E5824583700302469D797A
:1042A8000AEEFCEFFDAA16AB1712187AE9F51060B2
:1042B800030246A0741F121858E0F508A3E0F50998
:1042C8007421121858E0F50AA3E0F50B74231218AC
:1042D80058E0F50EA3E0F50F8E828F83E06402604C
:1042E8000302463EA312485F850882850983A38599
:1042F8008212858313EE2406F50CE43FF50D8882BF
:1043080089831246DDF514E439F5157814121B1962
:10431800010000280128404307000228054403281B
:1043280073430029344501295F45022900450329C3
:1043380034450429D8453E46E50E450F600302463C
:1043480039850C82850D8312485FE8FAE9FB8A8279
:104358008B83E0850A82850B831246E8121A8F8ABE
:10436800828B83A3E0FCA3E00245C2E50E450F6003
:1043780003024639850A82850B837401F01246D2FE
:10438800850882850983F07C007D008E828F83A357
:10439800A3A3A3E02401FAA3E03400FB120724EA54
:1043A8004B60408A828B83E02402F8850A82850B61
:1043B80083E028F0EA2404F8E43BF988828983E062
:1043C8008512828513831246F61246E8121A8F8ADE
:1043D800828B83A31246C5E5082403FAE43509FB5A
:1043E8000245C7850A82850B83E02404F07C047D9E
:1043F800007900AA12AB131210C00246A0E50E45C0
:104408000F60030246391246D2FEA3E0FF850A82F6
:10441800850B837404F0EE850882850983F0EF85A7
:104428001282851383F07403121872EEFAEFFB12EE
:1044380007248A0C8B0DEA450D70030244E38A8237
:104448008B83A3A31230FC7401121862880E890FA3
:10445800780E121A8F7405121858121AA67CFF7D4E
:10446800FF12072A74041218228B0FEA450F7033C3
:10447800850C82850D831246C9121A8F850C828598
:104488000D83A3121AA67C027D007ABE7B831205D7
:104498001A7404121822E9700A740112185874FF69
:1044A800F0A3F08E828F83E064027039750C027578
:1044B8000D00780C121A8F8E828F83A31246C5E5E1
:1044C800082404FAE43509FB1210A8740212182211
:1044D800850A82850B83E02402800974011218582A
:1044E800EEF0A3EFF074011218581246B7740112D7
:1044F80018581246AE024633E50E450F60030246D1
:1045080039850C82850D8312494DAA16AB171212F4
:10451800D0850A82850B837402F085088285098319
:10452800EAF0851282851383EB024636E50E450FC5
:1045380060030246391246D2F8A3E0F9850A82855B
:104548000B837402F0E8850882850983F0E98512F7
:1045580082851383024636850C82850D8312373196
:104568001210A2EAFAF8C3950EE4950F405CE865CC
:104578000E450F70047A008021852182852283E010
:10458800FCE50E2CFCE4350FFDC3EC98ED940050CF
:1045980003E08005E50ECAC39AFAEA850A82850B0C
:1045A80083F08A0A750B00780A121A8F850C8285A7
:1045B8000D83E0250EFCA3E0350FFDAA08AB091218
:1045C80010A874021218220246A07510070246A00D
:1045D800E50E450F705B850C82850D8312485F855B
:1045E8000A82850B837407F0888289831246AF128A
:1045F80046A7E0851282851383F0E82402FAE4399D
:10460800FB8A828B831246B78A828B831246AEA3BB
:10461800A3122C8E1246BCF0E82405F85001098834
:104628008289831246BCA31246F6A3A3A3A3F080F3
:104638006775100B8062741D1218581237311208F2
:10464800208A828B83E5824583604A12485F880C02
:10465800890DE8450D603E7425121858E0F510786C
:1046680010121A93780E121A8F780A121A8F780875
:10467800121A8F7407121858E0F9EEFCEFFDAA160B
:10468800AB17850C82850D8312187A7407121822CD
:10469800E9F510800375100EA91074050239F4F0BD
:1046A80088828983A322A3E0850882850983221250
:1046B80046FDF0221246FDA3A3229002EF124954B0
:1046C80022E0F50E750F00780E22850C82850D8389
:1046D800123B97E022E0FAA3E0F8E4C8F9EA2822BE
:1046E800F08A828B83E0F50A750B00780A2212465D
:1046F800A71246FD22E0850882850983A3A32274B8
:10470800EE12187C74FE12180C8A088B09ECFEED68
:10471800FF890AAC21AD22EEFAEFFB1207248A0CBE
:104728008B0DEA450D70030247EF852182852283B0
:104738001237311208208A828B83E5824583700301
:104748000247EAA3A312485F880E890FE8450F7055
:10475800030247EA7414121858E0F510A3E0F511A3
:10476800E50AF50B780B121A937419121858121AD5
:10477800A67810121A8F741B121858E0F9AC0CADF9
:104788000DAA08AB09850E82850F8312187A740565
:10479800121822E9F50B705274FE650A604C850CFC
:1047A80082850D83E0640270411247FEFAA3E0F9A6
:1047B800EAF87402687003742969702E851082857E
:1047C80011831246DDF50CE439F50D780C121A8FB9
:1047D800EEFCEFFDAA08AB091208A4740212182215
:1047E8008008750B0E8003750B01A90B7402121853
:1047F800227F0A02194EA312486388828983E02225
:1048080074F612187C74FE12180C740C12185812D4
:10481800485FE8852182852283F07401121858E9DF
:10482800F0E4F508F5097808121A8F750802780877
:10483800121A8F7404121862880889097808121AE3
:104848008F79FE12088C740612182274021218222C
:104858000242108E828F8312486322E0F8A3E0F9A7
:104868002274F712187CEAFEEBFF890890030612FF
:1048780046C51212D0EA5402600BA908EEFAEFFB03
:10488800120718800279017F0102194E74F212187A
:104898007C74FE12180CEAFEEBFF890A7401650AA3
:1048A80060147402650A60030249437901120AB46C
:1048B800E96003024943EEFAEFFB12086EEA4B6027
:1048C80003120874A821A922880889097808121AED
:1048D8008F7508027509007808121A8F7508B07567
:1048E80009837808121A8F7CFF7DFF7A017B0012FA
:1048F800071E74061218228038850882850983A34A
:10490800A3A3A3A3A312494DEEFAEFFB1212C4E42A
:10491800F50CF50D780C121A8F7402121858121A29
:10492800A67CFF7DFFAA08AB0912072A7404121897
:10493800228A088B09E508450970BE7402121822FC
:104948007F0602194E123B9712495422E0FCA3E05D
:10495800FD2274F412187C8A088B09ECFEEDFF9096
:10496800160DE0F4604B7A097B001210CCEA4B601C
:10497800408A828B8374B1F0A3E41249BCF08A8226
:104988008B83A3A3E508F0A3E5091249BCA3EEF0C5
:10499800A3EFF0740C12185812485F8A828B83A315
:1049A800A3A3A3A3A3A3123D8890160DE0F91210A8
:1049B800D8022CC3F08A828B83A3A3A3A32274F00A
:1049C80012187C74FA12180C8908ECFEEDFF7509B0
:1049D800008A0A8B0B780A121AD3000410EE4B09CE
:1049E8004A274A414A594A774A8F4AB24ACA4ADE4E
:1049F8004A084B854B964BAD4BC84BEE4BEE4B1EC6
:104A08004B740165086003024BE98E828F83E0F8DE
:104A1800C394034003024BE9E8901740024BC57466
:104A28000265086003024BE98E828F83125B48900F
:104A38001741E8F0A3E9024BC57401650860030259
:104A48004BE9124C164003024BE9E8901369024BFC
:104A5800C5740165086003024BE98E828F83E0F814
:104A6800C394054003024BE9E890136A024BC574EE
:104A78000165086003024BE9124C164003024BE93A
:104A8800E890136B024BC5741065086003024BE98C
:104A9800750A10750B00780A121A8F7A6C7B13123C
:104AA80010A87402121822024C0F740165086003E2
:104AB800024BE9124C164003024BE9E890137C02C2
:104AC8004BC5740165086003024BE98E828F83E051
:104AD800901744024BC5740465086003024BE98EC5
:104AE800828F83780C1216C4908398780C1214F76E
:104AF8005003024BE990137E780C1216D3024C0F28
:104B0800E96003024BE91206B2E9700512128280CD
:104B1800569014118063740765086003024BE975A9
:104B28000A06750B00780A121A8F8E828F83A3AC3F
:104B380082AD83740212186A1210AE74021218221F
:104B48007C007D00AA21AB228E828F83E0F91212AD
:104B58002EE9F50AC3940A4003024C0C1206B2E986
:104B6800700CA90A1212887950121444806E7412BB
:104B7800250AF582E43414F58374018040740165D4
:104B880008705E124C165059E890137D802F7401FE
:104B98006508704D8E828F83E0F8C3940A5042E80E
:104BA80090174380187401650870368E828F83E0F1
:104BB800F874F928C3940A5028E8901745F08047FC
:104BC80074016508701B901410E0F88E828F83E0E2
:104BD800901410F0E87030E06401702B12127680A7
:104BE800267509188021C3EA9427EB9400501574A0
:104BF800026508700F8E828F831256CC120532E937
:104C0800F5098003750902A909740602504D8E82C0
:104C18008F83E0F8C394022274F012187C74B112E6
:104C2800180C8C0E8D0F9082EE7420121872740678
:104C380012171F742012187212122EE9F50B745FE6
:104C4800121858E0F50CE9C3940A4003024D9E750A
:104C5800F006E9A4F50974411218727A0E74202539
:104C680009F912143EE97009744D121858E0FE80D3
:104C7800027E00901740E064027005750801800309
:104C88007508007408650C7004742280027421256C
:104C980009FF7C1B7D007900742612186A1210C067
:104CA800EEA2E0E433F50A74261218727A1BEFF9C3
:104CB80012143EE970257440121858E024F9C39480
:104CC8000A50187808121A937427121872A90AAA97
:104CD8000EAB0F1205D474011218227C147D0079D2
:104CE80000740C12186A1210C0740C1218727A1020
:104CF80074242509F912143EE970307C1079FF7488
:104D08000C12186A121120E97021741C121858AC80
:104D180082AD837A0474252509F912143E740C12A5
:104D28001872A90AAA0EAB0F1205BCAC21AD227AE3
:104D38000C7470250BF912143EE97049AA21AB22B4
:104D480012125E7F00EF75F003A4F8A9F0852182A6
:104D5800852283E58228F8E5831254D11256C6606D
:104D68001D88828983A3A3E0F508750900780812D5
:104D78001A8FAA0EAB0F12089274021218220FEFA4
:104D8800C3940440C0EEA2E1500C901368E0F9AA65
:104D98000EAB0F1208987404650C7027901740E04A
:104DA8006402701F7A0090137CE060010A90136916
:104DB800E06004780480027800E84AF9AA0EAB0F94
:104DC8001206887900744F02504D74F512187C123F
:104DD80006B2E97051901411E06401701512128244
:104DE800901411E4F07C0AFDF97A127B141210C0B9
:104DF800802C750A00850A0874122508FEE434140C
:104E0800FF8E828F83E06401700BA90A1212888ECC
:104E1800828F83E4F0050AE50AC3940A40D77950E3
:104E28001214441212767F0302194E74F112187C80
:104E380074F012180C8A0C8B0D8C088D097E0AE907
:104E4800600C14600914603A146075024F1912124C
:104E580070E9FEC3940A4003024F19E5084509703A
:104E680003024F19750A06750B00780A121A8FACDF
:104E78000CAD0DAA08AB091210A874021218220270
:104E88004F197F00750A06750B00780A121A8FAC45
:104E98000CAD0DEF75F00EA4F8A9F0748A28FA7419
:104EA8001339FB1210BA7402121822E970090FEFB5
:104EB800C3940A505C80CDEFFEC3940A50538042DD
:104EC8007F00AC21AD227A1075F006EFA42423F9F7
:104ED80012143EE9701C7C1079FFAA21AB22121132
:104EE80020E9700EAC0CAD0DAA21AB22120598E991
:104EF80060090FEFC3940A501880C7EFFEC3940AE5
:104F0800500FE50845096009AA08AB09EEF9121225
:104F18006AEEF974101218227F0702194E74F412FF
:104F2800187CE9FF7E1574FF6A700374FF6B7028A4
:104F3800750800EFFC7A027B00A90812124CE960A0
:104F4800027E000508E508C3940A40E7EF604E7A40
:104F58009A7B12120AD88045120AA88A088B09EA95
:104F6800450960387C007D00EA2405FAE43509FB30
:104F7800850882850983A3A3A3A3E0F912122EE969
:104F8800C3940A500BEFFC7A027B0012124C7E008D
:104F9800EF600AAA08AB0912129A80011EEEF90204
:104FA8005D6374F212187C8C088D097E15740E12DC
:104FB8001858E0F50AA3E0F50B74FF6A700374FF54
:104FC8006B701D7F00AC0AAD0BAA08AB09EFF91294
:104FD8001252E960027E000FEFC3940A503B80E54D
:104FE800120AA88A828B83E5824583602B7C007D28
:104FF80000E5822405FAE43583FBA3A3A3A3E0F923
:1050080012122EE9C3940A5010AC0AAD0BAA08ABD1
:10501800091212527E0080011EEEF97F0602194E17
:10502800C082C083901382EAF0A3EBF0901368E08B
:10503800FC7D007A267B00120532901368E0F91295
:1050480007FC025BAB1218227F0802194E74F0129B
:10505800187C74EC12180CEAFEEBFFEE2405F50E32
:10506800E43FF50FEE2409F50AE43FF50BEE2403BF
:10507800F508E43FF5098E828F83A3A3E024FA7034
:105088000302532724FD7003025243147003025194
:105098002014601024FD700302521A147003025287
:1050A8007A02532D125F4B6047E0F5838882E0F562
:1050B8000EA3E0F50FE50E450F60351257D6E0F563
:1050C8000C780C121A93EE240BF582E43FF583E07A
:1050D800F9850A82850B831256CC0A0A0AAB098520
:1050E8000E82850F8312187A740112182202532D2A
:1050F800850A82850B83121AA690137E1216E21275
:1051080005CE7402121822E9700302532D79018525
:105118000A82850B830252F1750A008E828F83A35F
:1051280085820C85830DE060030251E0850E82853F
:105138000F83E0A2E040030251E090141C125F4E7E
:1051480060030251E07C0E7D007900AA21AB221297
:1051580010C01257D6125B76EA4B6010750A0675B6
:105168000B00780A121A8FEA2410801B125B701247
:105178000AA8EA4B700302532D750A06750B0078CE
:105188000A121A8FEA2405FCE43BFD740212186A1D
:105198001210A87402121822850E82850F83E0A2CD
:1051A800E25004D2F08002C2F0A2F0E433F8740CAA
:1051B800121858E048F0EEFCEFFDAA21AB221212BB
:1051C80064E970117A027B00901368E0F91210FC10
:1051D800790002532F750A15125F4B700302532D85
:1051E800125B40E0FEA3E0FFEE4F700302532D85F3
:1051F8000C82850D83E0FC790112533412187AE58C
:105208000A700302532DFC7903125B70125B2402AF
:105218005322125F4B700302532D125B39890BE83E
:10522800450B700302532D8E828F83A3E0FC790215
:10523800125B708882850B830253227C007D00EE0E
:105248002404FAE43FFB850882850983E0F91212F9
:105258002EE9F8C3940A400302532DEE240AFCE415
:105268003FFD7A0475F006E8A42425F912143802E3
:10527800532D125B7090137DE06007901743E0F99F
:10528800806A901740E0700479058060120AA88A45
:105298000C8B0DA80CA90DE849700302532DE824C6
:1052A80004F50CE439F50D8E828F83A3A3A3A3A381
:1052B800A3A3E0A2E0503A850C82850D83E0FE604E
:1052C80030850A82850B83A3E054027024740E1281
:1052D8001872E82405FAE439FBEEF912122EE97087
:1052E800107903850882850983125B761205C880C8
:1052F80034AC0EAD0F850C82850D83E0F9125B701E
:105308001212A6125F4B601D125B39E8FEE9FFEE30
:105318004F60127C00790012533412187A800612FA
:105328005B701212287901741402504D8508828529
:105338000983E0FAA3E0FB8E828F832274F41218AB
:105348007C74F212180CEAFE8C0975F006E9125BFF
:105358001712143EE9704B7C0679FFAA21AB221282
:105368001120E9703D740C121858125B48E8F50BCF
:10537800E5096005EE420B8004EEF4520B850B82C2
:10538800AA82E86A7001E96015740C121858EAF0EC
:10539800A3E4F0AC21AD227A0EA9081214387901E1
:1053A80080027900025D5E74F212187C74E61218AD
:1053B8000C89098A0C8B0DECFEEDFF740C12187227
:1053C8007A0E75F006E9A42420F912143EE9600368
:1053D8000254947C0679FF740C12186A121120E9A1
:1053E800600302549474702509F508AC21AD227A43
:1053F8000CF912143EE96003025490AA21AB221260
:10540800125EE50C450D701D7C0C7900AA21AB22BB
:10541800121120E970727C0C7D007900AA21AB2260
:105428001210C08051AC21AD22AA0CAB0D1212583B
:105438008A0A8B0BA80AA90BE8497022EE4F604C28
:10544800AC21AD227A007B00121258EAF8EBF9EA97
:105458004B603988828983E50CF0A3E50DF012557D
:105468000DFAEE6A7001EF601FEEF04F7008888247
:105478008983E4F0A3F0AA21AB2212125EAC21AD1D
:10548800227A0CA908121438790180027900741A5A
:1054980012182202502374F712187C7F00EF75F05F
:1054A80003A4F8A9F0EC28F8ED1254D1E06A7003CF
:1054B800A3E06B7006E8FAE9FB800B0FEFC39404D6
:1054C80040DB7A007B0002580D39F98882898322F3
:1054D80074F712187C7E00EE75F003A4F8A9F0EAC0
:1054E80028F8EB1254D1E0F4FCA3E0F4FD8882899B
:1054F80083ECF0A3EDF012550DF4F00EEEC3940416
:1055080040D502580DE82402F582E439F583E022FB
:1055180074F412187C74F412180CEAFEEBFF8C0A6F
:105528008D0B90141C125F4E704FEE4F7003025695
:10553800A7EC450B70030256A7121270E9901746A4
:10554800F0C3940A40337508007C0679FFE50875B6
:10555800F00EA4FAABF074842AFA74133BFB121110
:1055680020E960030256000508E508C3940A40D9FB
:1055780075090AE509901746F0901746E0C3940AA2
:1055880040030256A775F006E0A4F890141C125BBD
:1055980076EA4B7069EEFCEFFD7A0E742028F9125A
:1055A80014387C0C7D0079FFAA21AB221210C0AC04
:1055B80021AD227A0C901746E02470F91214387540
:1055C800080E7509007808121A8FEEFCEFFD901787
:1055D80046E075F00EA4F8A9F0748428FA7413391B
:1055E800FB1210A8740212182290141CE50AF0A3EA
:1055F800E50BF079000256A985080902557B125679
:10560800AE24061256C060197A1B742128F91214A8
:10561800381256B72406F582E438F583E4F0A380FF
:10562800D11256AE240A1256C060107A1B74222872
:10563800F91214381256B7240A80DB1256AE240C1D
:105648001256C060107A10742328F91214381256B2
:10565800B7240C80C11256AE24081256C060347AA2
:1056680010742428F91214381256B72408F582E465
:1056780038F583E02410FCA3E03400FD7A0475F0CB
:1056880006901746E0A42425F91214381256B724B8
:10569800088083901410E060031212B21212A079ED
:1056A80001740C025D6090141CE0F9A3E0C922901B
:1056B800141CE0F8A3E0C822F582E439F5831256F9
:1056C800CCEC4D22E0FCA3E0FD2274F412187C74AB
:1056D800F212180CEAFEEBFFE9C3940A5004EE4FED
:1056E800700479028034AC21AD227A0E75F006E997
:1056F800A42420F912143EE9F508701C750A0675F1
:105708000B00780A121A8F7402121872EEFAEFFB65
:105718001210A87402121822A908025D5E74F4120D
:10572800187CEAFEEBFF750800750A06750B007811
:105738000A121A8FEEFCEFFDE50875F00EA4F8A921
:10574800F0748428FA741339FB1210BA7402121810
:1057580022E96004A908800B0508E508C3940A40FB
:10576800C8790A025D6374F712187C750800E508A9
:1057780075F00EA4F8A9F0748428FE741339FFEEAE
:10578800FCEFFD7A0E75F006E508A42420F9121442
:105798003EE960237C067D0079FFEEFAEFFB1210EC
:1057A800C07C067D0079FFEE2CFAE43FFB1210C0A6
:1057B8001257D6E4F0A3F00508E508C3940A40AEF2
:1057C800901410E060031212B21212A08037EE2477
:1057D8000CF582E43FF5832274F712187C7E007F73
:1057E800007C0679FFEF75F00EA4FAABF074842AFA
:1057F800FA74133BFB121120E970010E0FEFC394EA
:105808000A40DEEEF97F0102194E74F712187C7E09
:1058180000EEF91212880EEEC3940A5003E960F103
:1058280080E374F312187C74CB12180CE9FF9017FC
:1058380046E06F701B7A017B00901368E0F9121143
:10584800027A027B00901368E0F91211021212BE6C
:10585800901747E06F70127A047B00901368E0F9A4
:10586800121102901747740AF075F006EFA4FE743F
:10587800202EF50874271218727A0EA90812143E01
:10588800E960030259497C0679FF742712186A12E5
:105898001120E960030259497C0E7D0079FF7427C5
:1058A80012186A1210C07C1B7D0079FF740C121844
:1058B8006A1210C07C0C7D0079FFAA21AB2212105D
:1058C800C074271218727A0EA908121438E9F5085C
:1058D800740C1218727A1B74212EF9121438E9F517
:1058E8000C740C1218727A1B74222EF9121438E9EF
:1058F800F50B740C1218727A1074232EF9121438DE
:10590800E9F509740C1218727A1074242EF912141D
:1059180038E9F50A740C1218727A0474252EF912F3
:105928001438E9FEAC21AD227A0C74702FF91214E8
:1059380038E9F8E50C450B4509450A4E4842088008
:1059480003750800A90874351218227F0502194E3C
:1059580074F712187CE9901368F01212767A487B73
:10596800171206E202580D74F412187C74F2121819
:105978000CEAFEEBFF54807003025A32901368E081
:10598800F91210E48A088B09EA45097003025A2AB9
:105998007801EA2404F50AE43509F50B8A828B8339
:1059A800E02450603F14600624E16067806A850A3D
:1059B80082850B83E070648A828B83A3A3A3A3A34D
:1059C800A3A3121AA68A828B83A3A3A3A3A3125606
:1059D800CC8A828B83A3A3125B7612123A740212CA
:1059E80018228037850A82850B83E0641E700E7941
:1059F800008A828B83A3A3125B76121234850A82F3
:105A0800850B83E0F9E5082405FAE43509FB12075C
:105A1800F68008121246E9F8E86007AA08AB0912EE
:105A280010D2EEFAEF6480025B0DEE54026016EEBF
:105A38006402FE7C007D007A007B00121264E9702B
:105A4800487A028046EEA2E0504E6401FE125B4E98
:105A58001212B8E96033125F4B6029125B3988086B
:105A68008909E84509601D7C007901125B4E8508AB
:105A78008285098312187A7C007903125B4E125BC7
:105A88002412187A1212BE800C7A017B00901368D7
:105A9800E0F91210FCEE806B5404606C901747E03C
:105AA800C3940A505BE0F50975F006125B171214EF
:105AB8003EE970467C0679FFAA21AB22121120E943
:105AC8007038750A06750B00780A121A8FE5097581
:105AD800F00EA4F8A9F0748A28FC741339FD740830
:105AE800121858AA82AB831210A87402121822AC9A
:105AF80021AD227A0EA908121438901747740AF0BB
:105B0800EE6404FAEFFB80047A007B00025D5EA479
:105B18002420F508AC21AD227A0EF92290138212C6
:105B28005B30A3A3125B3022E0F8A3E0F583888200
:105B380022125B40125B4822E0F5838882A3A322ED
