:020000040000FA
:0600000002010702225D6F
:03002B000226AA00
:03003B000226CBCF
:030043000226672B
:030053000222D3B3
:03007B0002268DCD
:100083000220B3E5C754F84401F5C7790122000003
:100093000080FB120086B900030200F1E4792378A3
:1000A30008B800028004F709D8FCE4792B7802B879
:1000B30000028004F709D8FCE490028178A2791544
:1000C3008002F0A3D8FCD9FA7A227B179001377803
:1000D300EC79038015E493A3AD82AE838A828B838C
:1000E300F0A3AA82AB838D828E83D8E9D9E7758288
:1000F3000E7583B1740312011975829175830074AF
:100103000012011975D00075813F75218175220296
:10011300759F00020096C09FF59FE473D09F22D085
:1001230083D082C09FE493C0E0740193C0E0740263
:1001330093F59F22FF0000B4000028002800283018
:1001430075A000A000A000A00000080008E001F0D6
:10015300001000100010001000100010005000509C
:1001630000500010001000D0070000000000000F36
:100173000001000500307507001000010081FF0039
:10018300000000FFFFFF3E065C0644068006FF02F8
:10019300020208025000A0000000E80302B4830139
:1001A3000000A48302B8830100007D1702BE83010F
:1001B3000000BF0202B8830100007E1702C0830162
:1001C3000000D50202B8830100007F1702C2830139
:1001D3000000D70202B883010000801702C483081D
:1001E3000000D80202B883010000811702E28301F4
:1001F30000008217FF0100FF2002B483010000A763
:100203008302B883010000E61702C88300000000E0
:100213000002BC8303000006031700040D040D0451
:100223000D040D040D040D040D040D040D040D0443
:100233000D040D040DA40FB60F9E0FFFFFFF14094D
:1002430053696D706C65424C4550657269706865A1
:1002530072616C051290019001020A00020106030B
:1002630002F0FF02168844474A2063617220696ED8
:10027300206465766963650000000007C011000013
:10028300C611020202020202020202010D00000074
:10029300100102B483010000AD8302B883010000A2
:1002A300701802D483010000711302B883010000A7
:1002B300711802D283010000DD8202B883010000BD
:1002C300721802D083010000C18202B883010000CA
:1002D300731802CE83010000DD8102B883010000A0
:1002E300741802CC83010000EF8102B8830100007F
:1002F300751802CA83010000018202B8830100005D
:100303007618020A83010000CB8102B88301000042
:10031300771802C683010000B38202B8830100008C
:10032300781802D883010000791801E803057710D3
:100333000A0A7A12FF000130750302010600000069
:1003430000000000000000000000000000000000AA
:10035300000000000000000000FFFF0600800CE822
:10036300030A63617220696E2076616C7565000013
:100373000000000A6C6F636B20696E2076616C75F8
:1003830065000000000A7061726B207374616D7008
:100393002076616C75650002B483010000AA8302B4
:1003A300B8830100004F1902DC8303000005170224
:1003B300BA83010000501902B883010000611902D9
:1003C300DE830300000D1702BA83010000621902E5
:1003D300B883010000731902E083030000151702BC
:1003E300BA8301000074190000000000000000003F
:1003F30000000000000000000000000000000000FA
:1004030000000000000000000000000000000000E9
:1004130000000000000000000000000000000012C7
:100423000122708B03120122838B03120122B48BEE
:1004330003120122EE8B03120122478C03120122C5
:100443008E8C03120122D68C03120122058D031216
:100453000122348D031201226B8D03120122B28D0E
:1004630003120122CB8D03120122208E03120122DB
:100473004E8E03120122888E03120122FDA802125E
:10048300012200AA0212012239AA021201225CAA45
:10049300021201226EAA02120122ACAA0212012246
:1004A30028AB02120122F0AB0212012212AC02129B
:1004B3000122A9AC02120122FBAC021201222CADD3
:1004C3000212012239AD02120122A3AD021201224E
:1004D300FAAD02120122FDAD0212012236AE021262
:1004E300012239AE0212012243AE0212012297AE5B
:1004F30002120122D8AE021201220BAF0212012214
:1005030048AF021201224AB002120122EEB00212D7
:10051300012257B10212012295B102120122008079
:1005230003120122288003120122558003120122A3
:100533008D8003120122EB80031201223781031203
:1005430001229E8103120122DE81031201221B82FA
:1005530003120122498203120122F38203120122B0
:10056300FD82031201220A83031201223D83031237
:1005730001224983031201226183031201226B8347
:1005830003120122C0AC03120122CEAC03120122DA
:10059300E6AC03120122FDAC03120122F8B80112EA
:1005A3000122A2B901120122B5BA0112012231BB03
:1005B300011201224FBC011201228BBC0112012244
:1005C30026BD011201220ABE01120122D6BE01126A
:1005D300012264C001120122D5C0011201228FC180
:1005E3000112012281C201120122C1C201120122A0
:1005F30075C301120122A7C3011201229DC5011275
:100603000122DFC501120122FDC50112012263C6C9
:100613000112012232C701120122F6C7011201227F
:1006230015CA0112012218C20212012202C30212C8
:100633000122ADC302120122FEC302120122AEC483
:10064300021201221FC50212012204C60212012254
:1006530038C60212012231C7021201226EC70212EA
:1006630001224AC80212012289C802120122A5C826
:10067300021201220A9F031201228E9F03120122FA
:10068300B99F03120122D3A003120122F98303129B
:1006930001220F84031201222D84031201223E85BD
:1006A30003120122488503120122738603120122D9
:1006B3006A8703120122D787031201225DCF021238
:1006C30001228DD00212012207D10212012237D159
:1006D300021201224AD10212012294D102120122F2
:1006E30057D302120122E583011201227184011200
:1006F3000122D58501120122E185011201221C8606
:10070300011201228B860112012294870112012218
:100713009D8801120122648901120122C18A0112FA
:100723000122DF8A01120122FC8A01120122C78BF6
:1007330001120122EF8B01120122B98E0112012253
:10074300BE8E01120122D7900112012225910112BE
:100753000122959101120122D39101120122AF923C
:10076300011201226F9301120122BB930112012294
:10077300BE93011201220294011201224A94011232
:100783000122899401120122AB9401120122DF9408
:10079300011201224295011201228ADA0212012278
:1007A30098DA02120122EBDA021201220ADB0212A8
:1007B30001224FDB0212012293DC021201222EDD01
:1007C3000212012272DD021201229CDD02120122B9
:1007D3000BDE0212012251DE02120122C8DE0212D6
:1007E300012279DF02120122442700120122542739
:1007F30000120122F52700120122512800120122C2
:100803000E29001201222A2A001201225C2A001258
:1008130001228B2A00120122382C00120122AF2E52
:10082300001201221F310012012211320012012293
:100833000A33001201221135001201220538001279
:100843000122343900120122383B00120122483CB4
:1008530000120122D73D00120122C83E00120122DC
:10086300163F00120122853F00120122A93F001208
:100873000122FA3F001201229B44001201229C45EF
:1008830000120122FD450012012228460012012216
:10089300EE4600120122D5E802120122DFE802121D
:1008A300012224E90212012238E902120122C8E9D5
:1008B3000212012201EA021201223CEA021201227F
:1008C30065EA02120122B9EA02120122CEEA0212F9
:1008D3000122F0EA0212012205EB0212012219EBB6
:1008E300021201222EEB0212012268EB02120122F4
:1008F30094EB02120122CCEB021201222EEC021223
:100903000122A0EC02120122E3EC021201220DEDFE
:100913000212012238ED02120122E4A7031201227E
:10092300848B02120122678C02120122E28C0212D2
:1009330001221D8D021201226E8E02120122FC8EF3
:10094300021201228E91021201224092021201220E
:100953004C9302120122BF94021201221895021233
:100963000122C9F1021201220CF20212012290F2B9
:100973000212012267F502120122999A031201223F
:100983004B9B03120122479C03120122869C0312F4
:100993000122E09C03120122DEA20312012241A3E1
:1009A30003120122DEA30312012213A40312012264
:1009B30043A4031201227EA4031201229EA4031264
:1009C30001228BDF0212012217E002120122D6E07C
:1009D30002120122EEE10212012208E402120122B4
:1009E300008002120122258002120122F2800212EB
:1009F3000122C68102120122338202120122738272
:100A0300021201220F8302120122438402120122E5
:100A13001E85021201227D8502120122098602121D
:100A230001227786021201220387021201224987DB
:100A330002120122BB87021201224D8802120122F7
:100A4300EE88021201220E89021201225689021235
:100A530001229F8902120122BB8902120122E1892C
:100A6300021201225B8A02120122698A0212012206
:100A7300F88A02120122618B021201223FE4021260
:100A83000122C4E40212012206E502120122EAE570
:100A93000212012257E6021201229BE602120122F0
:100AA300DFE6021201220CE70212012234E70212EE
:100AB30001226CE702120122AAE702120122D1E706
:100AC300021201224BE80212012295E802120122CE
:100AD3009AA70112012239A90112012271AB011255
:100AE3000122C5AB01120122F0AB01120122CCACF1
:100AF30001120122FCAC011201222BAD01120122D1
:100B03003EAD011201227FAD01120122ACAD0112F3
:100B13000122FAAD0112012236AE011201227BAE8F
:100B230001120122C8AE0112012242AF01120122B9
:100B330083B1011201226DB301120122A9B3011283
:100B4300012238B5011201227DB501120122F0B54F
:100B53000112012245B6011201224FB601120122F0
:100B63001BB701120122A5B701120122C4B8011259
:100B73000122D5B801120122C195021201223A962F
:100B830002120122F49B02120122FF9C0212012293
:100B9300A89E02120122369F021201220D5D00124D
:100BA30001228E5D00120122BB5D00120122045E50
:100BB30000120122055F00120122495F0012012287
:100BC3007F5F00120122FB60001201227D6100128F
:100BD3000122986100120122096200120122C662F9
:100BE30000120122896300120122176400120122FC
:100BF300CE6400120122E164001201227A65001220
:100C03000122116600120122386600120122A16638
:100C130000120122EB660012012239670012012241
:100C2300E067001201227E68001201220B690012A4
:100C330001227C6900120122C369001201221B6A8E
:100C4300001201224D6A001201220E6B00120122D2
:100C5300116C001201225A6C00120122776C0012EF
:100C63000122966C00120122C96D00120122806ECE
:100C730000120122A56E00120122BA6E0012012297
:100C83002A6F001201226B6F001201228F70001273
:100C93000122107100120122609F02120122AB9FF8
:100CA30002120122B79F021201228BA0021201221B
:100CB300A2A002120122DFA00212012210A102123D
:100CC300012248A1021201229EA102120122B4A113
:100CD30002120122F0A10212012203A20212012236
:100CE3002AA2021201225EA20212012284A302128C
:100CF3000122CEA402120122CAA502120122E0A6F9
:100D03000212012239270012012222CA01120122F2
:100D130051CA01120122A3CD01120122FACE0112FE
:100D23000122B9CF0112012220D3011201220CD4D6
:100D3300011201225ED40112012278D40112012290
:100D4300AAD401120122B5D401120122BED4011288
:100D5300012270D50112012240D60112012287D649
:100D630001120122EDD6011201225FD701120122E5
:100D73001A96011201225A99011201226099011255
:100D830001221FA00112012244A401120122F08EAC
:100D930003120122CD8F03120122119003120122AB
:100DA3004B9003120122E39003120122529103128A
:100DB30001225B91031201226791031201228191A7
:100DC30003120122AB9103120122DB9103120122D0
:100DD30019F60212012226F60212012240F602122D
:100DE300012273F602120122B1F60212012216F752
:100DF300021201222BF70212012236F702120122FC
:100E030043F7021201225AF70212012268F7021273
:100E1300012273F7021201227FF7021201228EF7D9
:100E23000212012299F702120122BCF702120122D7
:100E330060F80212012270F8021201228AF80212EB
:100E43000122A7F802120122C2F802120122E7F8D6
:100E530002120122F2F80212012207F90212012200
:100E63001BF9021201227CF90212012282F90212F9
:100E7300012288F9021201228EF902120122A6F937
:100E830002120122D9F90212012206E701120122FC
:100E93009DE70112012235E80112012225E9011221
:100EA30001225CE9011201226FE901120122DDE94D
:100EB3000112012278EB011201229FEB01120122A0
:100EC30041EC0112012276EC0112012287EC01129E
:100ED300012200ED0112012221ED0112012239ED5F
:100EE3000112012291EE011201229AF00112012254
:100EF300EAF201120122EDF3011201223CF4011284
:100F030001224671001201224372001201222E7344
:100F1300001201223873001201225A7300120122B7
:100F2300667300120122B87400120122E7740012E2
:100F330001221776001201225976001201228577C9
:100F4300001201225B7800120122AD780012012207
:100F53000C79001201224379001201227E790012DA
:100F63000122197D00120122327D00120122B47D7B
:100F730000120122C27D00120122177E00120122FB
:100F8300257E00120122927E00120122047F0012AC
:100F930001224A7F0012012289F401120122ABF4DB
:100FA3000112012295F6011201223AFA01120122DD
:100FB3007DFB0112012257FC01120122ACA4031292
:100FC3000122D1A40312012242A503120122EBB98B
:100FD30002120122F4B902120122FDB90212012206
:100FE3002EBB021201224DBD0212012283BD021249
:100FF3000122BDBD02120122F3BD021201222DBE48
:101003000212012261BE021201228DBE02120122CE
:10101300D6BE0212012210BF0212012258BF0212D1
:101023000122AEBF02120122E3BF021201223EC01F
:101033000212012278C002120122C9C00212012247
:10104300FFC00212012239C10212012267C102123A
:1010530001228AC10212012239AE0312012265AEB6
:1010630003120122C0AE03120122CAAE03120122EF
:10107300DAAE0312012226D50212012230D5021262
:1010830001226ED502120122B7D502120122F1D537
:10109300021201224BD6021201226CD60212012245
:1010A30075D602120122C6D602120122EFD602120F
:1010B300012204D70212012275D70212012203D89A
:1010C3000212012240D80212012270D80212012218
:1010D300F4D80212012234D9021201226CD902126D
:1010E30001227ED9021201229DD902120122A6D920
:1010F3000212012260DA02120122FCA90312012268
:101103000B9D03120122419D03120122779D0312BD
:101113000122D09E0312012298B003120122AEB025
:1011230003120122B8B0031201225BFA0212012258
:1011330074FA0212012218FB0212012258FB021256
:10114300012271FB02120122A5FB02120122F2FB12
:101153000212012226FC0212012268FC0212012261
:101163006CFE0212012299FF01120122F6AA031258
:10117300012226AB031201224FAB0312012267ABFC
:10118300031201227FAB03120122BBAB0312012224
:1011930062A60312012296A603120122AFA603122E
:1011A300012210A703120122B7A70312012206C9C5
:1011B3000212012206CB02120122D6CB0212012215
:1011C300A3CC0212012260CE02120122E8CE021247
:1011D30001220992031201223092031201225C922E
:1011E3000312012261B1031201225A4700120122A4
:1011F300B44900120122664B00120122C74B0012B0
:101203000122B94C001201223E4D00120122BC4DB5
:1012130000120122E94D00120122D85000120122CE
:101223004351001201223252001201226C52001269
:101233000122AC5200120122665400120122B95459
:1012430000120122025500120122745500120122DC
:10125300A65500120122BE5500120122EC560012BF
:101263000122035700120122EE58001201221059E5
:1012730000120122465900120122FC5A00120122D7
:101283007C5B00120122BB5B00120122E85C0012AE
:10129300012202A1031201225FA10312012222A251
:1012A3000312012241A20312012297A20312012277
:1012B300E4AE03120122F4AE03120122ABB1031216
:1012C3000122EAB10312012211B0031201223CB040
:1012D3000312012246B0031201227EB0031201223F
:1012E30058B2031201228DAD031201229DAD0312E8
:1012F3000122B8AD031201222FAE03120122F8A876
:10130300031201227DA903120122E3A90312012280
:10131300EFAB0312012210AC0312012223AC031220
:10132300012235AC0312012262AC0312012287AC05
:101333000312012260ED0212012274ED0212012256
:10134300EDED02120122C6EE0212012284F1021215
:101353000122E18703120122718803120122EF881F
:1013630003120122788903120122268A0312012221
:10137300B08A03120122C18A03120122D08A031206
:101383000122E68A03120122F98A03120122598BF0
:10139300031201226D8B0312012281AF031201227A
:1013A300EBAF03120122F6AF0312012206B00312C0
:1013B300012279FE02120122CEFE021201223CFF1B
:1013C30002120122ACFF021201221C950312012218
:1013D30046950312012240960312012265960312D9
:1013E3000122E79603120122BBB10212012278B255
:1013F30002120122B3B202120122DBB20212012253
:101403003DB30212012289B302120122E2B3021296
:10141300012273B40212012275B50212012232B7FE
:1014230002120122B4B70212012219B802120122D8
:1014330030B80212012240B9021201227EB902120F
:101443000122AED80112012294DC0112012226DE10
:10145300011201227DDE011201229CDE0112012212
:101463001ADF01120122BAE0011201229EE10112E8
:1014730001228AE5011201225EE60112012212987D
:10148300031201224E98031201226B9803120122C8
:10149300B99803120122EE980312012295990312BF
:1014A3000122969A03120122F4B103120122D37F7F
:1014B300001201223AB203E066701008A3E06670DE
:1014C3000A08A3E066700408A3E06622C3E796084F
:1014D30009E7960809E7960809E79622C3E0960804
:1014E300A3E09608A3E09608A3E09622C008C3E011
:1014F30096F50808A3E096420808A3E09642080878
:10150300A3E09645087001D3D00822080808EAC072
:10151300E0EBC0E086F0E7A4FA180986F0E7A42A16
:10152300FA180986F0E7A42AFA180986F0E7A42A2C
:10153300FA1986F0E7A4FBE5F02AFA190886F0E722
:10154300A42BFBE5F03AFA190886F0E7A42BFBE598
:10155300F03AFA18180986F0E7A4C5F02BFBE43A31
:10156300FA1908E7C5F0C6A426F6E5F03BFBE43A12
:10157300FA1886F0E7A4F6E5F00826F6E43B08F649
:10158300E43A08F6D0E0FBD0E0FA22E4CFC0E0E48E
:10159300CEC0E0E4CDC0E0E4CCC0E075F020E626A8
:1015A300F608E633F608E633F608E633F6181818B5
:1015B300EC33FCED33FDEE33FEEF33FFC3EC970961
:1015C300ED9709EE9709EF97191919400FFFEC975B
:1015D300FC09ED97FD09EE97FE191906D5F0BFEC4E
:1015E300F709EDF709EEF709EFF7191919D0E0FC40
:1015F300D0E0FDD0E0FED0E0FF226016080808C668
:10160300C313C618C613C618C613C618C613C6D541
:10161300E0EA227009080808226016181818C6C3E1
:1016230033C608C633C608C633C608C633C6D5E0B4
:10163300EA22E627F60809E637F60809E637F60848
:1016430009E637F622E026F608A3E036F608A3E01B
:1016530036F608A3E036F622E026F008A3E036F0DB
:1016630008A3E036F008A3E036F022C3E697F608B5
:1016730009E697F60809E697F60809E697F622C3FE
:10168300E096F008A3E096F008A3E096F008A3E044
:1016930096F022E056F608A3E056F608A3E056F6C5
:1016A30008A3E056F622E056F008A3E056F008A39C
:1016B300E056F008A3E056F022E0F608A3E0F608AF
:1016C300A3E0F608A3E0F622E6F008A3E6F008A3F9
:1016D300E6F008A3E6F022E0FAA3E0FBA3E0FCA314
:1016E300E0FD22EAF0A3EBF0A3ECF0A3EDF022E09F
:1016F300F8A3E0F9A3E0FAA3E0FB22E8F0A3E9F002
:10170300A3EAF0A3EBF022CAC0E0E6F0A308DAFAFA
:10171300D0E0FA22CAC0E0E0A3C582CCC582C5836B
:10172300CDC583F0A3C582CCC582C583CDC583DA7D
:10173300E6D0E0CA22C3E498F8E499F91217798055
:1017430026C3E49AFAE49BFBE920E7E9121779E45C
:1017530098F8E499F922C3E498F8E499F91217790F
:10176300E498F8E499F9C3E49AFAE49BFB22EB20AA
:10177300E7CFE920E7E0B90010BB0008E88AF0846E
:10178300F8AAF022E4FBC8FA22EB70227B10C833DC
:10179300C8C933C9335007C39AC3DBF280069A50D2
:1017A300012ADBEAC833F4C8C933F4C9FA2275F055
:1017B30008E4C833C8C933C933C99AC99B5004C99B
:1017C3002AC93BD5F0ECFBC833F4C8E4C9FA22605C
:1017D3000D08C6A2E713C618C613C6D5E0F32260E8
:1017E3000C08C6C313C618C613C6D5E0F42270048A
:1017F30022600D18C6C333C608C633C6D5E0F41835
:1018030022252110AF08F521400C15228008F5216F
:1018130040021522D2AF2200C0D0252110AF08F517
:1018230021500C05228008F52150020522D2AFD0A9
:10183300D0222521F58210AF08F521400C15228016
:1018430008F52140021522D2AF852283222521F5F6
:1018530082E43522F583222521F8E43522F9222575
:1018630021FAE43522FB222521FCE43522FD22E482
:10187300732521C582C0E0E52234FFC583C0E0E5BE
:1018830021C3958224F810AF0885832285822180A5
:1018930008858322858221D2AFCEF0A3E520F0A371
:1018A3007808E608F0A3DEFAEFF0A3E58124FAF85E
:1018B300E608F0A3E608F0A3E608F0A30808E608A4
:1018C300F0A3E608F0A315811581D0E0FED0E0F87F
:1018D300158115811581E8C0E0EEC0E0222521C500
:1018E30082C0E0E52234FFC583C0E0E521C39582D1
:1018F30024F910AF088583228582218008858322FD
:10190300858221D2AFCEF0A3E520F0A37808E608C4
:10191300F0A3DEFAEFF0A3E58124FBF8E608F0A3D9
:10192300E608F0A30808E608F0A3E608F0A315818B
:101933001581D0E0FED0E0F815811581E8C0E0EE16
:10194300C0E022852283852182E0A3FEE0A3F52067
:101953007808E0A3F608DFFAE0A3FFE0A3C0E0E025
:10196300A3C0E0E0A3C0E0E0A3C0E0E0A3C0E010B8
:10197300AF08858221858322800885822185832281
:10198300D2AFD083D08202011F852283852182E0DA
:10199300A3FEE0A3F5207808E0A3F608DFFAE0A3AE
:1019A300FFE0A3C0E0E0A3C0E0E0A3C0E0E0A3C089
:1019B300E010AF08858221858322800885822185F6
:1019C3008322D2AFD083D08222C0D02521C582C04A
:1019D300E0E52234FFC583C0E0E521C3958224F30B
:1019E30010AF088583228582218008858322858222
:1019F30021D2AFC8F0A3E9F0A3EAF0A3EBF0A379F7
:101A030008E709F0A3D8FAECF0A3EDF0A3EEF0A3F6
:101A1300EFF0A3D0E0F0A3D0E0F0A3D0E0F0A3E593
:101A230020F0A3E5F0F0A322852283852182E0C084
:101A3300E0A3E0F9A3E0FAA3E0FBA37808E0F6084B
:101A4300A3DFFAE0FCA3E0FDA3E0FEA3E0FFA3E035
:101A5300C0E0A3E0C0E0A3E0F5D0A3E0F520A3E05D
:101A6300A3F5F010AF088583228582218008858342
:101A730022858221D2AFD082D083D0E0F8D0E03269
:101A830074048006740280027401C0E0F404121826
:101A930035D0E012170A227404800474028000CC4B
:101AA300C0E0EDC0E0E521C39CCCAD2250011D1088
:101AB300AF068C218D2280068C218D22D2AF121786
:101AC30017D0E0FDD0E0FC22D083D082E9C0E0E46F
:101AD30093A3C386F0C5F095F0F908E493A386F0C9
:101AE300C5F095F0700BE493A3C3994005E9048016
:101AF30002A3E475F002A42582F582E5F03583F5AF
:101B030083D0E0F9E493A3C0E0E493C0E022D08360
:101B1300D082ECC0E0EDC0E0E493A3FCE493A3FD2A
:101B2300ED4C600D121B5DEC24FFFCED34FFFD80DA
:101B3300EFE493A3FCE493A3FDED4C600D121B9C17
:101B4300EC24FFFCED34FFFD80EFD0E0FDD0E0FCA2
:101B5300E493A3C0E0E493C0E022C0E0C3E493961F
:101B6300087401939618400FE49366700808740193
:101B730093661870007019A3A3C3E49396087401C5
:101B8300939618A3A3400DD0E0D0E0D0E0021B4D04
:101B9300A3A3A3A3A3A3D0E022C0E0C0F088F0E4F2
:101BA300936670080874019366187000A8F0A3A3E5
:101BB300700BD0F0D0E0D0E0D0E0021B4DA3A3D057
:041BC300F0D0E0225C
:101BC80074F61218E0EAFEEBFF8C088D09EE243457
:101BD800F8E43FF9E8FCE9FDEE2435121F02FAEEBD
:101BE8002437121F02F88508F0A4C885F00A850971
:101BF800F0A4250AF9EA28F8E439F97A257B0012D5
:101C08001779EA8C828D83F0FA131313541FF8EEB8
:101C180028F8E43FF9E8245DF582E439F583E0C06B
:101C2800E074075AF8D0E0B800028004C313D8FC67
:101C3800A2E0EE50082434F582E43F8018243612DE
:101C48001F02F5F0EA84A8F0EE28F8E43FF9E8244A
:101C580038F582E439F583E0F97F0302198C74F7CB
:101C68001218E0EAFEEBFFEE2434121F02C0E0EE89
:101C78002435F582E43FF583D0E0F08E828F83A38C
:101C8800A3A3A3A3A3A3C082C0838E828F83A3A38D
:101C9800A3A3A3121D6BD083D082E0C398F508A339
:101CA800E099F509EE247F121F026401705DEE24AD
:101CB80080121D658E828F83A3A3A3A3A3A3A3125F
:101CC80020A58E828F83A3A3A3A3A3E0FAA3E0FB9E
:101CD800C3EA9CEB9D5010C3EC98ED99402DC3EAE4
:101CE80098EB995026800EC3EA98EB994007C3EC0D
:101CF80098ED9940167CB07D04EEFAEFFB120C4487
:101D0800EE247FF582E43FF583E4F0AC08AD09EEFC
:101D1800FAEFFB121BC8E9F91226537F0202198C4D
:101D2800C082C083852182852283121D6BC3EA9CF1
:101D3800EB9D5010C3EC98ED99401BC3EA98EB99C2
:101D48005014800EC3EA98EB994007C3EC98ED99BC
:101D58004004790180027900D083D08222F582E4A0
:101D68003FF583E0F8A3E0F922EAC39CFAEB9DFB78
:101D78002274EF1218E0900376E064086005E064CE
:101D880007702A9061C8E060249003A4E0F4601D05
:101D9800E0F875F00AA4C8AAF02AF974A628FE7417
:101DA8000339FF8E828F83A3A3A3E07003021E87EB
:101DB800906060E0C0E0EE2468F582E43FF583D0EF
:101DC800E0F0750C20750D05750800750900E5D95A
:101DD80014F50AE5D95403F50E60127403650E6014
:101DE80043E50A600AEE2467121F027002807590AC
:101DF800051BE06401601F121EFF60047A04800264
:101E08007A00E50AC39AFA95E0FB120AE28A088B7F
:101E180009EA45097005120E6C8064121EFF7004F1
:101E28008A0C8B0DE50A6012850C82850D83F50BF3
:101E3800E5D9F0A3150BE50B70F6121EFF6044748C
:101E4800FC250AF50A780C121A87AC0AA90EEEFAD4
:101E5800EFFB120CFE740212181AE97026AA08ABDE
:101E6800091213B8793D8E828F83A3A3A3A3E0FA46
:101E78007B00120944EEFAEFFB120C68120D107980
:101E880000806F7403650E6051850A107511007823
:101E980010121A87AC0CAD0DAA08AB09120CC2744B
:101EA8000212181AEE2468121F0264807004747FEC
:101EB8008001E0F50C780C121A8BE50EF50C780C05
:101EC800121A8BA90AAC08AD099003A4E0FA7B00AA
:101ED80012091A740212181A8013900376E0640823
:101EE800600BAC0CAD0DEEFAEFFB120D82120E7802
:101EF80079017F0A02198CEE2482F582E43FF5838A
:101F0800E02274F21218E074FC121804EAFEEBFFE7
:101F18008909A2AFE433F508C2AF021FC6E0601B0F
:101F2800780C121A87AC0BA90EEEFAEFFB120CF81C
:101F3800740212181A7404250BF50B7401250BF59D
:101F4800D9850ED9E50B6018F50A850C82850D83B5
:101F5800E0F5D9A385820C85830D150AE50A70EA98
:101F680075E195EE2463F8E43FF97A007B00A2AFAF
:101F7800E433F50BC2AF1220A1EC4D6032888289A0
:101F880083E0FAA3E0FB8A828B831220A5888289EA
:101F980083ECF0A3EDF08A828B83E4F0A3F01220A7
:101FA800A1EC4D700A88828983A3A3E4F0A3F0E52D
:101FB8000BA2E092AF1213B89004B7E004F0EE243D
:101FC80063121D65E8496064EE2463121F0224024F
:101FD800F8A3E03400F988828983E5822402F50CAD
:101FE800E43583F50DE0F50BA3E0F50EEE2462125F
:101FF8001F02640170369061D0E0F8121EFF600481
:102008007C0480027C007480C398FA95E0FBE50BA1
:102018002CF8E43400F9E82402F8500109C3EA98DE
:10202800EB99A2D265D0334003021F259004B7E094
:10203800604D9004B8E0F89004B7E0C398500C7471
:10204800026509703A9004B9E060348E828F83A3E8
:10205800A3A3A3E08521828522831220977402120C
:102068001850E81220979004B6E028F0740212186D
:102078006AAA21AB22790112096E9004B7E4F0E54F
:1020880008A2E092AF740412181A7F0702198CF0A4
:10209800A3E4F09004B7E0F82288828983E0FCA3E7
:1020A800E0FD22008523878524C622C0E074EB1258
:1020B80019CCA2AFE433F508C2AF759B00906182DA
:1020C800E0A2E05030E591A2E0502A7591FE74013B
:1020D80065237021122246120DC4122234121A9A54
:1020E8001223FD740412181AE964017005790112AB
:1020F8000E00121D79906182E0A2E5505DE591A283
:10210800E550577591DF900376E064076005E06459
:1021180008702F12224674016523703E120DC412F6
:102128002234121A9A1223FD740412181AE964014F
:1021380070057901120E007901EEFAEFFB121F0A01
:102148008018E0640D7013900398E004F064287020
:1021580002E4F07A00E0F9120E7E906182E0A2E6D5
:102168004003022209E591A2E64003022209759183
:10217800BF900376E064057008120DAC120DB880AC
:1021880003120DB2752300120E0CE9900377F07953
:1021980000120E00120BAE7A017B00900375E0F975
:1021A8001210D0907803E06442705690051FE01436
:1021B800F0704EC2AF1221C000782CD0E0F618D0D3
:1021C800E0F6E59F5407F87005750DFF8003750D5F
:1021D8007FC4C0E0782BE6F50A08E6550DF50B74C8
:1021E8000B780A1217E2D0E0250AF8906270E0A294
:1021F800E740F8E8C333906272F0906270E0D2E092
:10220800F0906181E0A2E35009E5E9A2E35003758B
:10221800E9F7A3E0A2E75009E591A2E75003759119
:102228007FE508A2E092AF7F08021A2B8E828F8387
:10223800E0F8A3E0C82416F582E438F58322900379
:10224800A4E0F875F00AA4C8AAF02AF974A628FE32
:10225800740339FF22C0E0C0D0C082C0839061837C
:10226800E0A2E05009E5BFA2E0500375BFFEE0A27E
:10227800E15009E5BFA2E1500375BFFDE0A2E250BD
:1022880009E5BFA2E2500375BFFBE0A2E35009E5F0
:10229800BFA2E3500375BFF7E0A2E45009E5BFA26F
:1022A800E4500375BFEFE0A2E55009E5BFA2E55091
:1022B8000375BFDFE0A2E65009E5BFA2E65003754B
:1022C800BFBFD083D082D0D0D0E032C0E074F21249
:1022D80019CCE5A7A2E6500FE5A1A2E6500953A73D
:1022E800BF75A1BF122327E5A7A2E5500CE5A1A25F
:1022F800E5500653A7DF75A1DFE5A7A2E15009E580
:10230800A1A2E1500375A1FDE5A7A2E2500CE5A149
:10231800A2E2500653A7FB75A1FB7F01021A2B749A
:10232800F71218E0752301900376E0640670151221
:102338000D348A828B83A3A3A3A3A3A3E0FAA3E00B
:10234800FB120D9AA2AFE433FED2AF90037CE06497
:102358000170187A207B00900375E0F912114E7A0B
:10236800207B00900375E0F91210D6906182E0D2CC
:10237800E6F090051CE0602185C624801690037B5A
:10238800E064017008E5C654F84405F5C653BEFC80
:102398001220AC7401652360E4EEA2E092AF7F02E4
:1023A80002198C008E258F2685822A85832985210E
:1023B80082852283E0CEA3E0CF852A82852983EB1C
:1023C800C9EAC8EDCBECCA75F010C3E833C8E933E5
:1023D800C9EA33CAEB33CBC3EA9EF528EB9FF5274E
:1023E800B35004AB27AA28EC33CCED33CDD5F0DAC3
:1023F800AE25AF262274F11218E08A088B098C0AE0
:102408008D0B9083507808121696740F1218507816
:102418000C1216BC908350780C1216967808790C1A
:102428001214CF90838C50107808790C12166E789D
:10243800081214EF4014800E780C790812166E7882
:102448000C1214EF50047901800279007F080219F8
:102458008C74ED1218E08A088B098C0A8D0B908316
:102468005078081216967413121850780C1216BC6D
:10247800908350780C121696780C79081214CF4075
:10248800117808790C12166EAA08AB09AC0AAD0BC4
:1024980080227510007511007512007513017810EF
:1024A800790C12166E78107908121635AA10AB112D
:1024B800AC12AD137F0C02198C9083507808121659
:1024C800BC8A828B8378081216A97F0402198C743F
:1024D800F51218E08C828D8378081216BC8A828BDC
:1024E80083780812168212252FC3E09CF0A3E09D82
:1024F800122521402290835C78081216BC8A828BB0
:1025080083780812165B8A828B83A3A3A3A3E02493
:1025180020F0A3E0344EF080A0F088828983C3E0E5
:102528009420A3E0944E22EA2404F8E43BF98C8238
:102538008D83A3A3A3A3E0FCA3E0FD888289832263
:1025480074F51218E0E9FE9004D2E0FAA3E0FBEE7D
:1025580029F8E433F9748728F582748239F583E021
:102568002AF508A3E03BF5097808121A87908380BA
:102578001216DA1223AC740212181A8A088B098C04
:102588000A8D0B741078081215FDAA08AB097F0490
:1025980002198C74F11218E08A0C8B0D8C0E8D0FB9
:1025A8007411121850121A9E7411121850E0240156
:1025B800F508A3E03400F509E4F50AF50B780C7981
:1025C8000812150E90839878081216BC780C7908B2
:1025D80012150EAA0CAB0DAC0EAD0F1223AC740283
:1025E80012181A8B09EA450960047A0180027A00F8
:1025F800EC2AFCE43DFD7413121850E0F8A3E0F94E
:10260800E8FEE9FFECF8EDF97A717B021217798898
:10261800088909E4F50AF50B8E828F83780812166B
:10262800CBECF8EDF97A717B021217798A088B09DD
:10263800740578081217F18E828F83A3A3A3A3E5EC
:1026480008F0A3E509F07F0802198CC082C083E96D
:10265800906000F0D083D08222C2AF02000022C076
:10266800E074F21219CCA2AFE433FED2AFC2C0E5D7
:10267800D1A2E4500653D1EF121394EEA2E092AF28
:102688007F01021A2BC0E074F21219CCE5A8FED221
:10269800AF12132EC2EBEEA2E7A2E792AF7F0102C0
:1026A8001A2BC0E0C0D0E8C0E0E9C0E0E5A8D2AF8E
:1026B800C2C7A2E7A2E792AFD0E0F9D0E0F8D0D045
:1026C800D0E032C0E074F21219CCA2AFE433FCD2ED
:1026D800AF90164BE0F8A3E0F9A3E0687003A3E01D
:1026E80069700A539AFB90164F74018039C2E990B9
:1026F800164BE0F8A3E0F9E82401FAE439FB901658
:102708004BEAF0A3EBF074BB28F582741439F58317
:10271800E0F5C190164BC3E09490A3E09401400704
:1027280090164BE4F0A3F0ECA2E092AF7F01021AFE
:102738002B02011FFFFFFFFFFFFFFFFFC082C083C7
:10274800E99017E5F0D083D08202011F74F61218C1
:1027580074E99002E8F0900348E0F5087509007400
:102768000278081217F1AA08AB0912110C9002E9B5
:102778001231079002E91234F4606F900348E07553
:10278800F003A4FAABF012110C9003061231079073
:1027980003061234F4700B9002E91234C5121112B8
:1027A80080489003061244597AFF7BFF1212927AEE
:1027B8000080198A08750900740278081217F11246
:1027C8003F0174FF122907E4F0A3F00A900348E0E0
:1027D800F8EAC39840DD79051208009002E8E0F9AC
:1027E8001206F27A8A7B08120A82023FA474F41253
:1027F80018748A088B09EB548060479002E8E0F966
:102808001210B88A0A8B0BAE0AAF0BEE4F602A8EF5
:10281800828F83E064B0701A120812E960148E8205
:102828008F83A3A3A3A3E0F9EE2405FAE43FFB12E8
:1028380007E2EEFAEFFB1210A6AA08E5096480FB8E
:1028480080047A007B00022A5774F212187474FB11
:10285800121804EAFEEBFFEE4F604574031218509D
:10286800EEF0A3EFF0852182852283ECF0A3EDF052
:102878007402121850E9F0AA21AB221206ECE9F50D
:102888000870757413121850E0F50AA3E0F50BE50B
:102898000A450B60638E828F83122E90EE4F70056F
:1028A80075080280537A067B0012110C8A0C8B0D76
:1028B800A80CA90DE8497005750813803B88828922
:1028C80083E4122907EEF0A3EF122A23E50AF0A306
:1028D800E50BF09002EC122A1C9002EC6017E0FC69
:1028E800A3E08003EAFCEBFD8C828D83122A1C7026
:1028F800F38C828D83123B1CA90874050246D9F01B
:10290800A312443BA32274F21218748908890C7527
:102918000D007403780C1217F1850C0A850D0B90C5
:1029280002EBF09002E9123927122A1A602E1211CE
:10293800127900801D890C750D007402780C12172D
:10294800F19002E9123DC08882F583A3A3E4F0A3C5
:10295800F009900348E0F8E9C39840D9900348E0AB
:10296800FA850AF0A4CAA8F0850BF0A428FB121176
:102978000C8A0C8B0DAE0CAF0DEE4F7003022A10B3
:10298800900348E0FC850AF0A4CCA8F0850BF0A4DD
:1029980028FD79001210947C0080318D0C750D0093
:1029A8007403780C1217F18A828B83122A15888295
:1029B8008983E4F0122A22A3A3F0A3F00DEDC395B6
:1029C8000840D8EE250AFEEF350BFF0C900348E0CF
:1029D800F8ECC39850288C0C750D007402780C1212
:1029E80017F19002E9122A15E82402500109FAE9C0
:1029F800FB8A828B83EEF0A3EFF07D0080BFE508B1
:102A08009002EBF07900800279130246DC123DC493
:102A1800F922A3A31234C9EA4B22A312443BA3A36D
:102A2800A32274F41218747900EAA2E0501F750802
:102A3800187509837808121A8779107C047D007A42
:102A4800E77B171207FA740212181AE9F980007F57
:102A580004021946C082C0839002EC1234F4601C50
:102A680088828983A3A3E06A7003A3E06B888289C4
:102A78008370E8A3A3A3A31234C580047A007B0063
:102A880002274D74F212187474FD121804EAFEEB52
:102A9800FF852182852283E4F0A3F0740212185086
:102AA8007401F01234F170141209BC12110C900266
:102AB800EF1231071234F17003022C1D123207EEA7
:102AC8002404F50AE43FF50B850A82F583E024FE29
:102AD800603C24FC607424FE607E24FE7003022B9C
:102AE8006D24FE7003022B7A24FE7003022B8724C8
:102AF800FE7003022B9424FE7003022BA124FC70A9
:102B080003022BC224FE7003022BDA022C161209D0
:102B1800BC9002F1EAF0A3EB122C2912042EE96012
:102B280003022C169002F1121A9E8E828F83A3A3A1
:102B3800A3A3A31244598508828509831234C512B8
:102B480007CA740212181A022C16AC21AD22EEFA2A
:102B5800EFFB120818022BE5AC21AD22EEFAEFFBD1
:102B680012081E8078AC21AD22EEFAEFFB12082481
:102B7800806BAC21AD22EEFAEFFB12082A805EAC26
:102B880021AD22EEFAEFFB1208308051AC21AD22C4
:102B9800EEFAEFFB1208368044740212185A880CB9
:102BA800890D780C121A87740212186AEEFAEFFB74
:102BB80012083C740212181A8023AC21AD22EEFAD6
:102BC800EFFB120842E9F870167402121850E4F08C
:102BD800803CAC21AD22EEFAEFFB120848E9F8E898
:102BE800602C8E828F83A3E064146022850A82851C
:102BF8000B83E09002F1F08521828522831234C58F
:102C08009002F2123107E8A3122C29120428EEFAD6
:102C1800EFFB1207A07402121850E0F97403024681
:102C2800D9F07CF17D028508828509831234C92296
:102C380074E812187474FA1218047404121850EC18
:102C4800F0A3EDF08A128B13EA2405F50EE4351390
:102C5800F50FEA2402F510E43513F511851082F515
:102C6800831234C51205188A0A8B0B7508007C0379
:102C78007D0079007AF17B02121094E50E2402F5AA
:102C880016E4350FF517740212185A880C890D7856
:102C98000C121A87850E82850F83A3A3A3A3E0F5E0
:102CA8000C750D00780C121A87E50E2405F50CE456
:102CB800350FF50D780C121A878516828517831241
:102CC80037CC12070A740612181A8A0C8B0DE50CF9
:102CD800450D7003022E598020852182852283E0CC
:102CE80088828983F00508852182852283A3E0C034
:102CF800E0122E9AD0E0F00508E50A24FBFAE50B6D
:102D080034FFFBC3E5089AE49B4003022E597E007A
:102D18007F00851282851383A3A3A3A3E0F5097816
:102D280009121A8BE4F514F5157814121A8775141C
:102D3800EE7515027814121A879002EF121A9E7413
:102D480009121850121A9EE50A24F9F9AC0CAD0DB7
:102D58008510828511831234C512087274091218FD
:102D68001AE96003022DFA850E82850F83A3A3A3B7
:102D7800A3A3A3A3E0F89002EEE0687075E0F51451
:102D88008E157814121A87124456850E82850F8381
:102D9800A3A3A3A3A3A3A3A31234C512108E7402E2
:102DA80012181AE9604C9002F21234F4703BE4F500
:102DB800147814121A877CFF7DFF790785108285A5
:102DC80011831234C51207DC740212181A1234FA6D
:102DD8007017850E82850F831245F37404121850FC
:102DE800123EB41237FD022E8D850C82850D83129A
:102DF8002E90A821A922881489157814121A87748C
:102E080004121850121A9E8516828517831230FDF7
:102E1800120716740412181A8A0C8B0DEE4F7003E1
:102E2800022CD6122E9AEE122EA51237B3EF122EBE
:102E3800A5F8A3E03400F9E50C450D6003022CE188
:102E48008882898374FFF00508122E9A74FFF005B2
:102E580008E508601A1313543F12310D12043AE9B9
:102E680060099002F21234C51213B87900801685F1
:102E78000E82850F831245F37404121850123EB463
:102E8800123B1C790A023786A3A3A3A3E0FEA3E0A2
:102E9800FF22A8089002F2E0281237B322F00508B2
:102EA800089002F2E0282274E812187474FA1218D2
:102EB8000474021218501231077404121850ECF0FE
:102EC800A3EDF07402121850E0240512379CE0F5C7
:102ED8000CA3E0F50D7402121850E02402F510A3BB
:102EE800E03400F511851082F5831234C5120518F7
:102EF800750800750900EA24FCFEEB34FFFF800822
:102F0800050CE50C7002050DA808C3EE98EF9400B7
:102F180050030230B9A821A922880E890F780E1211
:102F28001A87851482851583A3A3A3A312445D126F
:102F38001A87E5142405F50EE43515F50F780E12F9
:102F48001A878514828515831230FB12070A7406C6
:102F580012181A8A0E8B0FEA450F70030230B9EA6D
:102F68002404F516E4350FF517851682F583E0F588
:102F78000CA3E0F50D8521828522831244598A82AB
:102F88008B83A3A3A3E0F98510828511831234C52E
:102F98001206F8E9F50960030230B97402121850F4
:102FA8001237C3F5097809121A8BE4F512F513786C
:102FB80012121A877512EE7513027812121A879078
:102FC80002EF121A9E7407121850121A9EEEF9ACEC
:102FD8000EAD0F8510828511831234C512087274E4
:102FE8000912181AE9F50960030230B9E508703FBB
:102FF800E4F50EF50F780E121A877CFF7DFF79092C
:103008008510828511831234C51207DC74021218E8
:103018001A1237E9700D74041218501230F0791131
:103028000230ED9002EEE024029002F2F08014905B
:1030380002F2E0FA9002EEE0790024025001096AF7
:10304800497072A8089002EEE0FAE82AFAE434001F
:10305800FBEE9AEF9B405A851682851783E0C0E005
:103068009002F3122E9FD0E0F0050885168285178E
:1030780083A3E0C0E0089002F3122E9FD0E0F00591
:10308800089002EE12445D121A87124456A80812DC
:10309800379012107C740212181A9002EEE025087C
:1030A800F50874FF650C700474FF650D6003022F4A
:1030B80008E508601F9002F2E0F5F0E50884123197
:1030C8000D120440E960099002F31234C51213B8D6
:1030D80079008011E509700375090A740412185003
:1030E8001230F0A90902378612392BE50CF0A3E556
:1030F8000DF022A3A31246E8AA0CAB0D22A3A3EA63
:10310800F0A3EBF0229002F1F07CF17D02851082B1
:103118008511831234C92274EC12187474FC1218C5
:1031280004123C2C740212186A1234BF1207108A57
:103138000C8B0DEA450D70030231F7123207A821F6
:10314800A922881089117810121A877CFF7DFF79CF
:103158000B8508828509831234C51207DC740212B4
:10316800181A1232FD700C850A82850B831237FA01
:103178000232048E828F83A3A3A3A3E0F5127812F0
:10318800121A8BE4F512F5137812121A877512F1D8
:103198007513027812121A877810121A8774091296
:1031A8001850121A9E7409121850E0F9AC0CAD0DA3
:1031B8008508828509831234C512087274091218A9
:1031C8001AE9FE70157CF17D028508828509831253
:1031D80034C5120446E97009802074166E70027EA8
:1031E800009002F21234C51213B8EE7004800B7E00
:1031F80001850A82850B83123B19EEF9023B2EEEFC
:103208002402F508E43FF5092274EC12187474FCE2
:10321800121804EAFEEBFF8C0E8D0FEE2405F5085C
:10322800E43FF509740212186A8508828509831239
:1032380034C51207108A0C8B0DEA450D7003023253
:10324800EDEE2402F50AE43FF50BA821A922881027
:1032580089117810121A877CFF7DFF790D1234BF0F
:103268001207DC740212181A1232FD700B850882DC
:103278008509831237FA807A8E828F83A3A3A3A34A
:10328800E0F5127812121A8B850882850983A3A3A8
:10329800121A9E7512F17513027812121A87781095
:1032A800121A877409121850121A9E7409121850AB
:1032B800E0F91234BB120872740912181AE9FE7088
:1032C8000F7CF17D021234BF12044CE97009802092
:1032D80074166E70027E009002F21234C51213B892
:1032E800EE7004800B7E01850882850983123B19E4
:1032F800EEF9023B2E123504F510A3E0F511EA456C
:10330800112274E812187474FE1218048A168B17A6
:103318008C148D15EA2405F50CE43517F50DEA240F
:1033280002F50EE43517F50F850E82F5831234C5C4
:103338001205188A088B09750B007C037D0079003B
:103348007AF17B02121094750A00E50814F510044E
:1033580024FFF508E50934FFF50980549002F1E0EF
:10336800FA9002EEE0F8EA28F8E43400F9E5089863
:10337800E50999500D9002F1E0F8E510C398900224
:10338800EEF0E0F5127513007812121A87124456FF
:103398009002F2E02AFAA3E03400FB12107C7402D7
:1033A80012181A9002EEE0F89002F1E028F0050AEF
:1033B800850C82850D83A3A3123DD040030234A05F
:1033C8009002F1E0C39508E4950940030234A0AEE9
:1033D8000AEE2EFEE433FF1234DFAC21AD22124494
:1033E80071E439FB1207108A128B13AC12AD13EC7F
:1033F8004D701B750B011234CF123B1D9002F21257
:103408002A1C60031213B8A90B74020237888516A8
:1034180082851783A3A3A3A3E0F50B780B121A8B5D
:10342800E4F512F5137812121A877512EE75130265
:103438007812121A879002EF121A9E740712185007
:10344800121A9EA910850E82850F831234C51208A0
:1034580072740912181AE9F50B709B9002F2123473
:10346800F46003023364E4F512F5137812121A8734
:103478007CFF7DFF790F850E82850F831234C5127C
:1034880007DC740212181A1234FA60030233641249
:1034980034CF1237FE0234117CF17D02850E82850D
:1034A8000F831234C5120452E96003023404790010
:1034B800023411AC0CAD0D850A82850B831234C918
:1034C80022E0FAA3E0FB221234DFE0FAA3E0F9EAF3
:1034D80085148285158322850C82850D83E02EF85C
:1034E800A3E03FF988828983229002EF1245F7E82A
:1034F8004922123504F8A3E0F9E849229002F2EAD9
:10350800F0A3EBF09002F2E02274E812187474FA57
:1035180012180474041218501231078C168D17747F
:1035280004121850E02405F50EA3E03400F50F74DA
:1035380004121850E0240212379C1234C5120518E0
:103548008A0A8B0B7F007E00A821A9228808890996
:103558007808121A87850E82850F83A3A3A3A3E098
:10356800F5088E097808121A87E50E2405F508E48F
:10357800350FF5097808121A87850E82850F83A3FF
:10358800A31237CC12070A740612181A8A0C8B0D6C
:1035980080291237BDF00F1237BDF00F9002EE12DE
:1035A8003B08121A87124456EFF812379012107C13
:1035B800740212181A9002EEE02FFFE50C450D7008
:1035C8000302364C852182852283123C3EA3A3A3A5
:1035D800E0F98514828515831234C51206F8E9FED0
:1035E800E50C2404F510E4350DF511EE7050740463
:1035F8001218501237C3F5087808121A8BE4F50828
:10360800F5097808121A877508EE75090278081204
:103618001A879002EF121A9E7407121850121A9EF7
:10362800E50A24FAF9AC0CAD0D85148285158312D0
:1036380034C5120872740912181AE9FE6039123773
:10364800D9123B1CEF70030237739002F2E0F5F0D9
:10365800EF849002F1F07CF17D0285148285158358
:103668001234C5120458E960099002F31234C512E5
:1036780013B879000237868F08EF703BE4F512F52E
:10368800137812121A877CFF7DFF791185148285C1
:1036980015831234C51207DC740212181A1237E99E
:1036A80070091237D91237FD0237869002EEE024EE
:1036B800049002F2F080359002EEE0F89002F2E019
:1036C800FAE82404FCE43400FDEC6A4D6003023699
:1036D80052E50A24FAFAE50B34FFFBE50828F8E47A
:1036E8003400F9EA98EB9950030236528510828526
:1036F8001183E0C0E09002F3E02FF8A3E0340088E3
:1037080082F583D0E0F00F851082851183A3E0C095
:10371800E01237AAD0E0F00F740212185A8808890C
:10372800097808121A877402121850121A9E850E08
:1037380082850F831230FB120716740412181A8A36
:103748000C8B0DEA450D700302359A74021218505D
:10375800E0C0E01237AAD0E0F00F7402121850A3AC
:10376800E0C0E01237AAD0E00235A2EE70027E0A6D
:10377800850E82850F831237DF123B1CEEF9740623
:1037880012181A7F100219469002F3E028FAA3E0F3
:103798003400FB22F514A3E03400F515851482F5F6
:1037A80083221237AE229002F3E02FFAA3E034000E
:1037B8008A82F583221237AE74FF2212392BA3A313
:1037C800A3A3E0221246E8850E82850F831234C92E
:1037D800228510828511831245F785168285178305
:1037E800229002F3EAF0A3EBF09002F31245F7E817
:1037F8004922123B22E8F0A3E9F079112274EA1277
:10380800187474FE1218048A088B098C128D13EA36
:103818002405FEE43509FFAC21AD228E828F831288
:1038280034C51207108A0C8B0DEE2406F50EE43F02
:10383800F50FEA450D70030238FDE5082402F50A84
:10384800E43509F50B8A828B83A3A3A3E0A2E55094
:10385800288521828522831234C51208668A108B36
:1038680011EA4511602079121234BB851082851146
:1038780083121872E9F50C707F850E82850F83E03C
:10388800600979528011750C0E806D850882850952
:1038980083A3A3A3A3E0F9E4F508F5097808121AAD
:1038A800878E828F83A3A3E0F5087808121A878E83
:1038B800828F83A3A3A3121A9E8E828F83124459E8
:1038C8001234BF120878740612181AE9F50C701130
:1038D800850E82850F83E0702D1234BF12045E803E
:1038E800257416650C7011750C0074181218501296
:1038F8003927E48010750C011245EF851282851373
:1039080083E8F0A3E9F0850E82850F83E0600479EF
:10391800008002A90C740212181A7F0E02194612AE
:10392800392B22E0F8A3E0F58388822274EC121880
:103938007474F71218048A0A8B0B8C108D11EA2400
:1039480005FEE4350BFF750C00AC21AD228E828F8D
:10395800831234C51207108A088B09EA45097003D7
:10396800023AF3E50A2402F50A5002050B8A828B13
:1039780083A3A3A3E0A2E5502F8521828522831289
:1039880034C51208668A0C8B0DEA450D604F791212
:10399800AC08AD091234BF850C82850D83121872EC
:1039A800E9F50C6003023AF6850A82850B83E0F597
:1039B80008A3E0F509AA08FB12085AEA4B70197A1D
:1039C800FF7BFF12085AEA4B7003023AE98A828B9E
:1039D80083E508F0A3E509F07508008008750C0E6A
:1039E800023AF605089002EBE0F8E508C3984003B0
:1039F800023AE985080E750F007403780E1217F164
:103A08008A828B83A3A3E0250EF8A3E0350F123E2C
:103A1800BD70D08E828F83123B111231078E828F38
:103A280083A3A3123B11123105EE2404F508E43FE9
:103A3800F509850882F583E088828983A3A3A3A377
:103A4800F0A3E4F0EE2405F50EE43FF50F850E82B1
:103A5800F583123B11A3A3A3A312310575120775B1
:103A680013007812121A87EEFCEFFD740412186224
:103A780012107C740212181AE4F5127812121A87BE
:103A8800850882850983E0FC7D0079171234BF120E
:103A980007DC740212181A740712185012310774CE
:103AA80007121850E0FA4B603D8508828509831299
:103AB8003B08121A87850E82850F8312445912100B
:103AC8007C740212181A740212186A1234BF120493
:103AD80064E9602674071218501234C51213B880AE
:103AE80019750C098008750C118003750C011245B5
:103AF800EF851082851183123B1CA90C740980285C
:103B0800E0F5087509007808221234C9888289838B
:103B180022123B22E8F0A3E9F022E0F8A3E0F985BD
:103B28000E82850F8322740412181A7F0C0219461C
:103B380074EC121874123C2C751000EE2402F50C6B
:103B4800E43FF50D850C82F5831234C512085A8AB4
:103B5800088B09EA45097003023C10850A82850B27
:103B680083E064016003023C05AC08AD09AA0AAB16
:103B78000B12084EE9606E850882850983122E9221
:103B8800EE2406F50AE43FF50B8E828F83A3A31279
:103B98001A9E8E828F83A3A3A3A3121A9E850A82DC
:103BA800850B83121A9E79188E828F83123C3E12DF
:103BB80034C5120878740612181AE9F87416687071
:103BC8000B850A82850B83E4F0A38014E860128ECB
:103BD800828F831234C5850E82850F83EAF0A3EBAA
:103BE800F088108018780E121A87AC08AD09EEFA22
:103BF800EFFB120854740212181AE9F510AA08AB60
:103C080009120860E510700E850C82850D83123448
:103C1800C512046A8009741665107003751000A92E
:103C280010023B33EAFEEBFF8C0E8D0FEE2405F5F8
:103C38000AE43FF50B221246E8850C82850D8322A3
:103C480074EA1218747508007509007E007F007503
:103C58000A00EC2402F510E43DF5118035EC650806
:103C68007003ED65096003023CFD88828983A3A384
:103C7800E06A7003A3E06B707C88828983A3A3A3A6
:103C8800A31245F3EE28FEEF39FFEA28FAEB39FBD9
:103C9800050A123DCD503A850A0C750D007403785B
:103CA8000C1217F1851082851183123DC0123EBD9A
:103CB800601FE508450970A58C088D0988828983ED
:103CC800122E9088828983A3A3E02EFAA3E03F8076
:103CD800BEE50AC394025003023DBB75080075098E
:103CE80000EE4F6010EEFAEFFB1213B28A0E8B0F44
:103CF800EA450F70057900023DBD750B00023D9045
:103D0800850B0C750D007403780C1217F185108261
:103D1800851183E0250CF50CA3E0350DF50DE50CB8
:103D28002406F514E4350DF515851482F583123E45
:103D3800C26042E50C2404F512E4350DF513851232
:103D480082F583121A9EE50E2508FAE50F3509FB60
:103D580012107C740212181A851282851383E025CA
:103D680008F508A3E03509F509851482851583123D
:103D780034C51213B8E50B600D7C087D007900AAE4
:103D88000CAB0D121094050BE50BC3950A500302FA
:103D98003D088510828511831245F388828983A3A3
:103DA800A3A3A3A3A3E50EF0A3E50F122A23EEF025
:103DB800A3EFF07901023922123DC422E0250CF864
:103DC800A3E0350D229002EBE0F8E50AC3982274CF
:103DD800F01218748A0E8B0F8C0A8D0B750D0075F6
:103DE8000C0080507916EE2406F508E43FF5098E9C
:103DF800828F83A3A3121A9E8E828F83A3A3A3A369
:103E0800121A9E850882850983121A9E850E82855C
:103E18000F83A3A31234C5120878740612181AE97E
:103E2800F50D7416650D706C850882850983E4F0BC
:103E3800A3F0050C9002EBE0F8E50CC3985066AAD5
:103E48000C8A08750900740378081217F1850A822C
:103E5800850B83A3A3123F0CE8FEE9FF8E828F83B4
:103E6800123EC26040EA2401F508E43400F50990E6
:103E780002EBE065087002E509601488828983A373
:103E8800A3A3A3A3A3A3A31234F46003023DEC7974
:103E980018023DEEE9609B1245EF7410121850129B
:103EA8003EB4123B1CA90D7F08021946E0FAA3E0B4
:103EB800F5838A8222F9888289831246E8EC4D22AA
:103EC80074F61218747C0080010C900348E0F8EC3A
:103ED800C398501E8C08750900740278081217F1EF
:103EE800123F01E06A7003A3E06B70DDE8FAE9FBBA
:103EF80080047A007B00023FA49002E9123F0C88FC
:103F080082898322E02508F8A3E03509F92274F2B2
:103F18001218748A088B09750A0080278E828F838D
:103F2800A3A3A3A3122A1A60031213B87C087D0066
:103F38007900EEFAEFFB1210948E828F83E4F0A3DF
:103F4800F0050A123DCD5027850A0C750D00740343
:103F5800780C1217F1850882850983A3A3E0250C44
:103F6800FEA3E0350DFF8E828F831234F470AD8589
:103F7800088285098374FFF0A3F00246DC74F61208
:103F8800187412080C8A828B83E582458370067A3E
:103F9800007B008007A3A3A3A31234C57F020219E4
:103FA8004674F412187489088C828D83E064027058
:103FB8003C124592FEA3E0F9EEF8740268700374AF
:103FC80029697029750A02750B00780A121A877414
:103FD80010121850121A9E7410121850121A9EA914
:103FE80008121298740612181AE9F9800279010267
:103FF8002A5774E812187474FB121804E985218290
:10400800852283F08A168B17ECFEEDFF7510008E63
:10401800828F83A3A3A3E0A2E4502D741D1218502D
:104028001234C51208668A828B83E5824583700341
:10403800024431790AEEFCEFFDAA16AB171218728A
:10404800E9F5106003024434741F121850E0F508B3
:10405800A3E0F5097421121850E0F50AA3E0F50B66
:104068007423121850E0F50EA3E0F50F8E828F83AB
:10407800E0640260030243D2A31245F385088285F7
:104088000983A3858212858313EE2406F50CE43F89
:10409800F50D88828983124471F514E439F5157891
:1040A80014121B11010000280128D440070002281F
:1040B8009941032807410029C8420129F3420229EE
:1040C80094420329C84204296C43D243E50E450FA4
:1040D80060030243CD850C82850D831245F3E8FA0F
:1040E800E9FB8A828B83E0850A82850B8312447CF4
:1040F800121A878A828B83A3E0FCA3E0024356E569
:104108000E450F60030243CD850A82850B83740137
:10411800F0124466850882850983F07C007D008E54
:10412800828F83A3A3A3A3E02401FAA3E03400FBB6
:10413800120710EA4B60408A828B83E02402F885DC
:104148000A82850B83E028F0EA2404F8E43BF98826
:10415800828983E085128285138312448A12447C03
:10416800121A878A828B83A3124459E5082403FA1A
:10417800E43509FB02435B850A82850B83E024044E
:10418800F07C047D007900AA12AB1312109402444B
:1041980034E50E450F60030243CD124466FEA3E0EA
:1041A800FF850A82850B837404F0EE8508828509F1
:1041B80083F0EF851282851383F0740312186AEE78
:1041C800FAEFFB1207108A0C8B0DEA450D700302FB
:1041D80042778A828B83A3A3122E90740112185AF5
:1041E800880E890F780E121A877405121850121A41
:1041F8009E7CFF7DFF120716740412181A8B0FEAB3
:10420800450F7033850C82850D8312445D121A8721
:10421800850C82850D83A3121A9E7C027D007AB6D6
:104228007B83120506740412181AE9700A740112C5
:10423800185074FFF0A3F08E828F83E06402703907
:10424800750C02750D00780C121A878E828F83A365
:10425800124459E5082404FAE43509FB12107C7469
:104268000212181A850A82850B83E02402800974D9
:1042780001121850EEF0A3EFF07401121850124416
:104288004B74011218501244420243C7E50E450F01
:1042980060030243CD850C82850D831246E1AA1680
:1042A800AB1712129E850A82850B837402F085086B
:1042B80082850983EAF0851282851383EB0243CA5B
:1042C800E50E450F60030243CD124466F8A3E0F9FA
:1042D800850A82850B837402F0E885088285098344
:1042E800F0E98512828513830243CA850C82850D05
:1042F800831234C5121076EAFAF8C3950EE4950FC6
:10430800405CE8650E450F70047A008021852182A3
:10431800852283E0FCE50E2CFCE4350FFDC3EC9808
:10432800ED94005003E08005E50ECAC39AFAEA85C9
:104338000A82850B83F08A0A750B00780A121A879D
:10434800850C82850D83E0250EFCA3E0350FFDAAC0
:1043580008AB0912107C740212181A024434751042
:1043680007024434E50E450F705B850C82850D838A
:104378001245F3850A82850B837407F08882898346
:1043880012444312443BE0851282851383F0E824EB
:1043980002FAE439FB8A828B8312444B8A828B832C
:1043A800124442A3A3122A22124450F0E82405F82A
:1043B80050010988828983124450A312448AA3A316
:1043C800A3A3F0806775100B8062741D1218501239
:1043D80034C512080C8A828B83E5824583604A12B1
:1043E80045F3880C890DE8450D603E742512185078
:1043F800E0F5107810121A8B780E121A87780A12C4
:104408001A877808121A877407121850E0F9EEFC18
:10441800EFFDAA16AB17850C82850D8312187274EE
:104428000712181AE9F510800375100EA910740503
:10443800023788F088828983A322A3E085088285D1
:10444800098322124491F022124491A3A3229002DC
:10445800EF1246E822E0F50E750F00780E22850C63
:1044680082850D8312392BE022E0FAA3E0F8E4C834
:10447800F9EA2822F08A828B83E0F50A750B007826
:104488000A2212443B12449122E08508828509835E
:10449800A3A32274EE12187474FE1218048A088BEF
:1044A80009ECFEEDFF890AAC21AD22EEFAEFFB1212
:1044B80007108A0C8B0DEA450D7003024583852190
:1044C800828522831234C512080C8A828B83E58286
:1044D8004583700302457EA3A31245F3880E890F16
:1044E800E8450F700302457E7414121850E0F51069
:1044F800A3E0F511E50AF50B780B121A8B74191263
:104508001850121A9E7810121A87741B121850E04D
:10451800F9AC0CAD0DAA08AB09850E82850F831284
:104528001872740512181AE9F50B705274FE650AB0
:10453800604C850C82850D83E064027041124592BF
:10454800FAA3E0F9EAF87402687003742969702E16
:10455800851082851183124471F50CE439F50D78C4
:104568000C121A87EEFCEFFDAA08AB09120890742A
:104578000212181A8008750B0E8003750B01A90B1F
:10458800740212181A7F0A021946A31245F7888284
:104598008983E02274F612187474FE121804740CDD
:1045A8001218501245F3E8852182852283F07401A0
:1045B800121850E9F0E4F508F5097808121A877519
:1045C80008027808121A87740412185A8808890988
:1045D8007808121A8779FE120878740612181A7465
:1045E8000212181A023FA48E828F831245F722E026
:1045F800F8A3E0F92274F7121874EAFEEBFF8908B1
:1046080090030612445912129EEA5402600BA9083C
:10461800EEFAEFFB120704800279017F01021946C6
:1046280074F212187474FE121804EAFEEBFF890A79
:104638007401650A60147402650A60030246D7793A
:1046480001120AA0E960030246D7EEFAEFFB12084E
:104658005AEA4B6003120860A821A9228808890930
:104668007808121A877508027509007808121A87DF
:104678007508BC7509837808121A877CFF7DFF7A54
:10468800017B0012070A740612181A8038850882FE
:10469800850983A3A3A3A3A3A31246E1EEFAEFFB24
:1046A800121292E4F50CF50D780C121A87740212A6
:1046B8001850121A9E7CFF7DFFAA08AB0912071634
:1046C800740412181A8A088B09E508450970BE7423
:1046D8000212181A7F0602194612392B1246E822CE
:1046E800E0FCA3E0FD2274F41218748A088B09EC2C
:1046F800FEEDFF9017E5E0F4604B7A097B0012109D
:10470800A0EA4B60408A828B8374B1F0A3E412471D
:1047180050F08A828B83A3A3E508F0A3E50912472A
:1047280050A3EEF0A3EFF0740C1218501245F38A60
:10473800828B83A3A3A3A3A3A3A3123B1C9017E577
:10474800E0F91210AC022A57F08A828B83A3A3A344
:10475800A32274F012187474FA1218048908ECFE73
:10476800EDFF7509008A0A8B0B780A121ACB000430
:104778001082499D47BB47D547ED470B482348461C
:10478800485E4872489C4819492A4941495C49820F
:10479800498249B24874016508600302497D8E82E6
:1047A8008F83E0F8C39403400302497DE890191809
:1047B80002495974026508600302497D8E828F831D
:1047C8001258DC901919E8F0A3E9024959740165F7
:1047D80008600302497D1249AA400302497DE89016
:1047E800137A02495974016508600302497D8E8273
:1047F8008F83E0F8C39405400302497DE890137B5A
:1048080002495974016508600302497D1249AA40AA
:104818000302497DE890137C0249597410650860C9
:104828000302497D750A10750B00780A121A877AF7
:104838007D7B1312107C740212181A0249A37401AA
:104848006508600302497D1249AA400302497DE8D0
:1048580090138D02495974016508600302497D8EE1
:10486800828F83E090191C0249597404650860031B
:1048780002497D8E828F83780C1216BC90838078D3
:104888000C1214EF500302497D90138F780C121606
:10489800CB0249A3E9600302497D12069EE970052F
:1048A80012125080569014228063740765086003C2
:1048B80002497D750A06750B00780A121A878E82DE
:1048C8008F83A3AC82AD83740212186212108274B3
:1048D8000212181A7C007D00AA21AB228E828F83D7
:1048E800E0F91211FCE9F50AC3940A40030249A051
:1048F80012069EE9700CA90A121256795012143C3D
:10490800806E7423250AF582E43414F583740180DB
:104918004074016508705E1249AA5059E890138ED8
:10492800802F74016508704D8E828F83E0F8C394E0
:104938000A5042E890191B80187401650870368E79
:10494800828F83E0F874F928C3940A5028E89019F4
:104958001DF0804774016508701B901421E0F88EE3
:10496800828F83E0901421F0E87030E06401702BAE
:1049780012124480267509188021C3EA9427EB9403
:1049880000501574026508700F8E828F8312546070
:1049980012051EE9F5098003750902A909740602C2
:1049A8004DE18E828F83E0F8C394022274F01218CE
:1049B8007474B11218048C0E8D0F90831E7420121B
:1049C800186A7406121717742012186A1211FCE973
:1049D800F50B745F121850E0F50CE9C3940A400314
:1049E800024B3275F006E9A4F509744112186A7A87
:1049F8000E74202509F9121436E97009744D12183D
:104A080050E0FE80027E00901918E064027005757F
:104A1800080180037508007408650C70047422800E
:104A28000274212509FF7C1B7D0079007426121869
:104A380062121094EEA2E0E433F50A742612186AA2
:104A48007A1BEFF9121436E970257440121850E0F9
:104A580024F9C3940A50187808121A8B742712186C
:104A68006AA90AAA0EAB0F1205C0740112181A7CA3
:104A7800147D007900740C121862121094740C12D0
:104A8800186A7A1074242509F9121436E970307CF2
:104A98001079FF740C1218621210F4E97021741C5A
:104AA800121850AC82AD837A0474252509F91214C2
:104AB80036740C12186AA90AAA0EAB0F1205A8AC14
:104AC80021AD227A0C7470250BF9121436E970495D
:104AD800AA21AB2212122C7F00EF75F003A4F8A9CB
:104AE800F0852182852283E58228F8E583125265C4
:104AF80012545A601D88828983A3A3E0F5087509BA
:104B0800007808121A87AA0EAB0F12087E740212D8
:104B1800181A0FEFC3940440C0EEA2E1500C901392
:104B280079E0F9AA0EAB0F1208847404650C70279B
:104B3800901918E06402701F7A0090138DE06001EC
:104B48000A90137AE06004780480027800E84AF951
:104B5800AA0EAB0F1206747900744F024DE174F57A
:104B680012187412069EE97051901422E0640170C4
:104B780015121250901422E4F07C0AFDF97A237B76
:104B880014121094802C750A00850A0874232508CD
:104B9800FEE43414FF8E828F83E06401700BA90A4F
:104BA8001212568E828F83E4F0050AE50AC3940A2E
:104BB80040D7795012143C1212447F0302194674EC
:104BC800F112187474F01218048A0C8B0D8C088D6D
:104BD800097E0AE9600C14600914603A14607502D1
:104BE8004CAD12123EE9FEC3940A4003024CADE5F7
:104BF8000845097003024CAD750A06750B00780A62
:104C0800121A87AC0CAD0DAA08AB0912107C7402FD
:104C180012181A024CAD7F00750A06750B00780A47
:104C2800121A87AC0CAD0DEF75F00EA4F8A9F0744C
:104C38009B28FA741339FB12108E740212181AE9A1
:104C480070090FEFC3940A505C80CDEFFEC3940A3D
:104C5800505380427F00AC21AD227A1075F006EFE8
:104C6800A42423F9121436E9701C7C1079FFAA21B8
:104C7800AB221210F4E9700EAC0CAD0DAA21AB22D8
:104C8800120584E960090FEFC3940A501880C7EF32
:104C9800FEC3940A500FE50845096009AA08AB0944
:104CA800EEF9121238EEF9741012181A7F07021969
:104CB8004674F4121874E9FF7E1574FF6A70037461
:104CC800FF6B7028750800EFFC7A027B00A90812B8
:104CD800121AE960027E000508E508C3940A40E755
:104CE800EF604E7A687B12120AC48045120A948AD1
:104CF800088B09EA450960387C007D00EA2405FA3A
:104D0800E43509FB850882850983A3A3A3A3E0F9F9
:104D18001211FCE9C3940A500BEFFC7A027B0012D3
:104D2800121A7E00EF600AAA08AB09121268800105
:104D38001EEEF9025AF774F21218748C088D097E67
:104D480015740E121850E0F50AA3E0F50B74FF6A0B
:104D5800700374FF6B701D7F00AC0AAD0BAA08AB23
:104D680009EFF9121220E960027E000FEFC3940ADE
:104D7800503B80E5120A948A828B83E582458360E2
:104D88002B7C007D00E5822405FAE43583FBA3A390
:104D9800A3A3E0F91211FCE9C3940A5010AC0AADC0
:104DA8000BAA08AB091212207E0080011EEEF97FC3
:104DB80006021946C082C083901393EAF0A3EBF071
:104DC800901379E0FC7D007A267B0012051E901373
:104DD80079E0F91207E802593F12181A7F080219F8
:104DE8004674F012187474EC121804EAFEEBFFEE25
:104DF8002405F50EE43FF50FEE2409F50AE43FF526
:104E08000BEE2403F508E43FF5098E828F83A3A3F4
:104E1800E024FA70030250BB24FD7003024FD7143C
:104E28007003024EB414601024FD7003024FAE14D8
:104E3800700302500E0250C1125CDF6047E0F58338
:104E48008882E0F50EA3E0F50FE50E450F603512F8
:104E5800556AE0F50C780C121A8BEE240BF582E4F7
:104E68003FF583E0F9850A82850B831254600A0AAC
:104E78000AAB09850E82850F831218727401121805
:104E88001A0250C1850A82850B83121A9E90138FCD
:104E98001216DA1205BA740212181AE970030250CF
:104EA800C17901850A82850B83025085750A008EB7
:104EB800828F83A385820C85830DE06003024F7483
:104EC800850E82850F83E0A2E04003024F749014A0
:104ED8002D125CE26003024F747C0E7D007900AAFB
:104EE80021AB2212109412556A12590AEA4B60102B
:104EF800750A06750B00780A121A87EA2410801BB7
:104F0800125904120A94EA4B70030250C1750A063A
:104F1800750B00780A121A87EA2405FCE43BFD7435
:104F28000212186212107C740212181A850E8285F9
:104F38000F83E0A2E25004D2F08002C2F0A2F0E4B3
:104F480033F8740C121850E048F0EEFCEFFDAA217B
:104F5800AB22121232E970117A027B00901379E0C9
:104F6800F91210D079000250C3750A15125CDF706F
:104F7800030250C11258D4E0FEA3E0FFEE4F7003C5
:104F88000250C1850C82850D83E0FC79011250C85E
:104F9800121872E50A70030250C1FC790312590411
:104FA8001258B80250B6125CDF70030250C1125892
:104FB800CD890BE8450B70030250C18E828F83A305
:104FC800E0FC79021259048882850B830250B67C72
:104FD800007D00EE2404FAE43FFB850882850983FE
:104FE800E0F91211FCE9F8C3940A40030250C1EE3B
:104FF800240AFCE43FFD7A0475F006E8A42425F9A8
:105008001214300250C112590490138EE0600790B8
:10501800191BE0F9806A901918E07004790580601E
:10502800120A948A0C8B0DA80CA90DE8497003028A
:1050380050C1E82404F50CE439F50D8E828F83A362
:10504800A3A3A3A3A3A3E0A2E0503A850C82850DF5
:1050580083E0FE6030850A82850B83A3E0540270EA
:1050680024740E12186AE82405FAE439FBEEF912E2
:1050780011FCE97010790385088285098312590AA1
:105088001205B48034AC0EAD0F850C82850D83E01B
:10509800F9125904121274125CDF601D1258CDE81F
:1050A800FEE9FFEE4F60127C0079001250C812181A
:1050B8007280061259041211F679017414024DE136
:1050C800850882850983E0FAA3E0FB8E828F83221C
:1050D80074F412187474F2121804EAFE8C0975F04C
:1050E80006E91258AB121436E9704B7C0679FFAA10
:1050F80021AB221210F4E9703D740C1218501258AA
:10510800DCE8F50BE5096005EE420B8004EEF4528D
:105118000B850B82AA82E86A7001E96015740C128B
:105128001850EAF0A3E4F0AC21AD227A0EA90812D7
:105138001430790180027900025AF274F21218745C
:1051480074E612180489098A0C8B0DECFEEDFF74C5
:105158000C12186A7A0E75F006E9A42420F91214C4
:1051680036E960030252287C0679FF740C12186233
:105178001210F4E9600302522874702509F508AC8E
:1051880021AD227A0CF9121436E96003025224AADE
:1051980021AB2212122CE50C450D701D7C0C7900F8
:1051A800AA21AB221210F4E970727C0C7D00790000
:1051B800AA21AB221210948051AC21AD22AA0CABCB
:1051C8000D1212268A0A8B0BA80AA90BE84970222D
:1051D800EE4F604CAC21AD227A007B00121226EA19
:1051E800F8EBF9EA4B603988828983E50CF0A3E58E
:1051F8000DF01252A1FAEE6A7001EF601FEEF04F47
:10520800700888828983E4F0A3F0AA21AB221212E5
:105218002CAC21AD227A0CA9081214307901800235
:105228007900741A12181A024DB774F71218747F9D
:1052380000EF75F003A4F8A9F0EC28F8ED12526518
:10524800E06A7003A3E06B7006E8FAE9FB800B0FD5
:10525800EFC3940440DB7A007B000255A139F9883A
:105268008289832274F71218747E00EE75F003A405
:10527800F8A9F0EA28F8EB125265E0F4FCA3E0F490
:10528800FD88828983ECF0A3EDF01252A1F4F00EB0
:10529800EEC3940440D50255A1E82402F582E4390E
:1052A800F583E02274F412187474F4121804EAFEF8
:1052B800EBFF8C0A8D0B90142D125CE2704FEE4FB1
:1052C800700302543BEC450B700302543B12123E30
:1052D800E990191EF0C3940A40337508007C0679DA
:1052E800FFE50875F00EA4FAABF074952AFA74136A
:1052F8003BFB1210F4E960030253940508E508C368
:10530800940A40D975090AE50990191EF090191EEA
:10531800E0C3940A400302543B75F006E0A4F890F9
:10532800142D12590AEA4B7069EEFCEFFD7A0E74DF
:105338002028F91214307C0C7D0079FFAA21AB22B9
:10534800121094AC21AD227A0C90191EE02470F949
:1053580012143075080E7509007808121A87EEFCC9
:10536800EFFD90191EE075F00EA4F8A9F0749528C9
:10537800FA741339FB12107C740212181A90142D47
:10538800E50AF0A3E50BF0790002543D850809020F
:10539800530F125442240612545460197A1B742174
:1053A80028F912143012544B2406F582E438F58398
:1053B800E4F0A380D1125442240A12545460107AA3
:1053C8001B742228F912143012544B240A80DB1261
:1053D8005442240C12545460107A10742328F91281
:1053E800143012544B240C80C11254422408125415
:1053F8005460347A10742428F912143012544B244F
:1054080008F582E438F583E02410FCA3E03400FDBD
:105418007A0475F00690191EE0A42425F9121430B8
:1054280012544B24088083901421E06003121280E8
:1054380012126E7901740C025AF490142DE0F9A33B
:10544800E0C92290142DE0F8A3E0C822F582E439DF
:10545800F583125460EC4D22E0FCA3E0FD2274F4C5
:1054680012187474F2121804EAFEEBFFE9C3940AE6
:105478005004EE4F700479028034AC21AD227A0ECC
:1054880075F006E9A42420F9121436E9F508701C11
:10549800750A06750B00780A121A87740212186AC0
:1054A800EEFAEFFB12107C740212181AA908025ABD
:1054B800F274F4121874EAFEEBFF750800750A0618
:1054C800750B00780A121A87EEFCEFFDE50875F0F7
:1054D8000EA4F8A9F0749528FA741339FB12108EEB
:1054E800740212181AE96004A908800B0508E50877
:1054F800C3940A40C8790A025AF774F712187475E7
:105508000800E50875F00EA4F8A9F0749528FE7453
:105518001339FFEEFCEFFD7A0E75F006E508A424BA
:1055280020F9121436E960237C067D0079FFEEFA33
:10553800EFFB1210947C067D0079FFEE2CFAE43F15
:10554800FB12109412556AE4F0A3F00508E508C3AD
:10555800940A40AE901421E0600312128012126E79
:105568008037EE240CF582E43FF5832274F7121895
:10557800747E007F007C0679FFEF75F00EA4FAAB0D
:10558800F074952AFA74133BFB1210F4E970010EBB
:105598000FEFC3940A40DEEEF97F0102194674F753
:1055A8001218747E00EEF91212560EEEC3940A50C9
:1055B80003E960F180E374F312187474CB121804D1
:1055C800E9FF90191EE06F701B7A017B0090137938
:1055D800E0F91210D67A027B00901379E0F91210E4
:1055E800D612128C90191FE06F70127A047B00900B
:1055F8001379E0F91210D690191F740AF075F006A5
:10560800EFA4FE74202EF508742712186A7A0EA9E2
:1056180008121436E960030256DD7C0679FF742708
:105628001218621210F4E960030256DD7C0E7D0048
:1056380079FF74271218621210947C1B7D0079FF81
:10564800740C1218621210947C0C7D0079FFAA2148
:10565800AB22121094742712186A7A0EA908121431
:1056680030E9F508740C12186A7A1B74212EF912A5
:105678001430E9F50C740C12186A7A1B74222EF98E
:10568800121430E9F50B740C12186A7A1074232E70
:10569800F9121430E9F509740C12186A7A10742496
:1056A8002EF9121430E9F50A740C12186A7A047487
:1056B800252EF9121430E9FEAC21AD227A0C747053
:1056C8002FF9121430E9F8E50C450B4509450A4E47
:1056D8004842088003750800A908743512181A7F13
:1056E8000502194674F7121874E9901379F012122A
:1056F800447A207B191206CE0255A174F41218744C
:1057080074F2121804EAFEEBFF548070030257C6C5
:10571800901379E0F91210B88A088B09EA450970E4
:10572800030257BE7801EA2404F50AE43509F50BAB
:105738008A828B83E02450603F14600624E160670E
:10574800806A850A82850B83E070648A828B83A3D2
:10575800A3A3A3A3A3A3121A9E8A828B83A3A3A3A2
:10576800A3A31254608A828B83A3A312590A12122C
:1057780008740212181A8037850A82850B83E06440
:105788001E700E79008A828B83A3A312590A121203
:1057980002850A82850B83E0F9E5082405FAE435D9
:1057A80009FB1207E28008121214E9F8E86007AA58
:1057B80008AB091210A6EEFAEF64800258A1EE5465
:1057C800026016EE6402FE7C007D007A007B001207
:1057D8001232E970487A028046EEA2E0504E640127
:1057E800FE1258E2121286E96033125CDF60291259
:1057F80058CD88088909E84509601D7C007901129F
:1058080058E28508828509831218727C0079031290
:1058180058E21258B812187212128C800C7A017B56
:1058280000901379E0F91210D0EE806B5404606C8C
:1058380090191FE0C3940A505BE0F50975F0061251
:1058480058AB121436E970467C0679FFAA21AB22C0
:105858001210F4E97038750A06750B00780A121AE6
:1058680087E50975F00EA4F8A9F0749B28FC741359
:1058780039FD7408121850AA82AB8312107C740286
:1058880012181AAC21AD227A0EA9081214309019F8
:105898001F740AF0EE6404FAEFFB80047A007B00C0
:1058A800025AF2A42420F508AC21AD227A0EF9227E
:1058B8009013931258C4A3A31258C422E0F8A3E08B
:1058C800F5838882221258D41258DC22E0F58388A6
:1058D80082A3A322E0F8A3E0F92290142D125CCF52
:1058E800E0FAA3E0FB22C082C083901379E0F98A32
:1058F800828B83A312590A120884803B850882850B
:105908000983E0FAA3E0FB22C082C08374FF121867
:105918000412124AE9C39402852182852283400435
:1059280074028002740AF0AC21AD227A0179051262
:1059380006BC740112181AD083D08202011F74F4B5
:1059480012187474E81218048A088B09E9FE8C0A84
:105958008D0B7C187D007900AA21AB22121094854A
:105968002182852283E508F0A3E509F090137BE006
:10597800C0E07402121850D0E0F090137CE0C0E050
:105988007403121850D0E0F090191DE0C0E07417AD
:10599800121850D0E0F07415121850E054FEF8A315
:1059A800E0F990191CE0A2E0E433FAE84AF874152B
:1059B800121850125AE8A2E15004D2F08002C2F044
:1059C800E854FDFAA2F0E43325E0F8EA48F8741543
:1059D800121850125AE8A2E45004D2F08002C2F021
:1059E800E8FAE954FEFBA2F0E433F9EB49F974153F
:1059F800121850125AE8A2E55004D2F08002C2F000
:105A0800E954FDFBA2F0E433F50875090074097840
:105A1800081217F1EAF8EB4509F974151218501233
:105A28005AE8A2E65004D2F08002C2F0E954FBFB27
:105A3800A2F0E433F508750900740A78081217F122
:105A4800EAF8EB4509F97415121850125AE8A2E25F
:105A58005004D2F08002C2F0E854FBFAA2F0E4331A
:105A6800F508750900740278081217F1EA4508F874
:105A78007415121850E8F0A3E9F090137CE0601D4B
:105A88007508107808121A877C7D7D137406121821
:105A980050AA82AB8312107C740212181A90138DCC
:105AA800E06010EE60097415121850E04402F078B6
:105AB80001800278007414121850E048F090137AAC
:105AC800E060047804800278007414121850E048EA
:105AD800F0AC0AAD0BAA21AB221205AE7418800CEB
:105AE800E8F0A3E9F090191CE022740E12181A7F4E
:105AF8000402194674F612187474FA121804E9FEAE
:105B080074036E7065120A948A088B09A808A9099B
:105B1800E8496056E82405FAE439FB12123EE9FF29
:105B2800C3940A5045AA21AB2279031206C2E97030
