:020000040000FA
:060000000201070222715B
:03002B000226BEEC
:03003B000226DFBB
:0300430002267B17
:030053000222E79F
:03007B000226A1B9
:100083000220C7E5C754F84401F5C77901220000EF
:100093000080FB120086B900030200F1E4792378A3
:1000A30008B800028004F709D8FCE4792B7802B879
:1000B30000028004F709D8FCE490028178AC79153A
:1000C3008002F0A3D8FCD9FA7A2C7B1790013778F9
:1000D300EC79038015E493A3AD82AE838A828B838C
:1000E300F0A3AA82AB838D828E83D8E9D9E7758288
:1000F300C87583B2740312011975829175830074F4
:100103000012011975D00075813F75218175220296
:10011300759F00020096C09FF59FE473D09F22D085
:1001230083D082C09FE493C0E0740193C0E0740263
:1001330093F59F22FF0000B4000028002800283018
:1001430075A000A000A000A00000080008E001F0D6
:10015300001000100010001000100010005000509C
:1001630000500010001000D0070000000000000F36
:100173000001000500307507001000010081FF0039
:10018300000000FFFFFF3E065C0644068006FF02F8
:10019300020208025000A0000000E80302DA830113
:1001A3000000C88302DE83010000871702E4830195
:1001B3000000BF0202DE83010000881702FE8301F4
:1001C3000000D50202DE83010000891702E88301E3
:1001D3000000D70202DE830100008A1702EA8308C7
:1001E3000000D80202DE830100008B1702EC8301BA
:1001F30000008C17FF0100FF2002DA83010000CB0F
:100203008302DE83010000F01702EE83000000008A
:100213000002E28303000006031700040D040D042B
:100223000D040D040D040D040D040D040D040D0443
:100233000D040D040DA40FB60F9E0FFFFFFF14094D
:1002430053696D706C65424C4550657269706865A1
:1002530072616C051290019001020A00020106030B
:1002630002F0FF02168844474A2063617220696ED8
:10027300206465766963650000000007D211000001
:10028300D811020202020202020202010D00000062
:10029300100102DA83010000CE8302DE8301000035
:1002A3007A1802FA830100007B1302DE8301000047
:1002B3007B1802F883010000EA8202DE830100005A
:1002C3007C1802F683010000B38202DE8301000082
:1002D3007D1802F483010000DD8102DE830100004A
:1002E3007E1802F283010000EF8102DE8301000029
:1002F3007F1802F083010000018202DE8301000007
:10030300801802D483010000CB8102DE8301000048
:100313008118020884010000A58202DE8301000027
:10032300821802E683010000831801E803057710B1
:100333000A0A8C12FF000130750302010600000057
:1003430000000000000000000000000000000000AA
:10035300000000000000000000FFFF0600800CE822
:10036300030A63617220696E2076616C7565000013
:100373000000000A6C6F636B20696E2076616C75F8
:1003830065000000000A7061726B207374616D7008
:100393002076616C75650002DA83010000D1830267
:1003A300DE8301000059190202840300000F1702C3
:1003B300E0830100005A1902DE830100006B190279
:1003C3000484030000171702E0830100006C190284
:1003D300DE830100007D190206840300001F17025B
:1003E300E0830100007E190000000000000000000F
:1003F30000000000000000000000000000000000FA
:1004030000000000000000000000000000000000E9
:1004130000000000000000000000000000000012C7
:100423000122708B03120122838B03120122B48BEE
:1004330003120122EE8B03120122478C03120122C5
:100443008E8C03120122D68C03120122058D031216
:100453000122348D031201226B8D03120122B28D0E
:1004630003120122CB8D03120122208E03120122DB
:100473004E8E03120122888E03120122FDA802125E
:10048300012200AA0212012239AA021201225CAA45
:10049300021201226EAA02120122ACAA0212012246
:1004A30028AB02120122F0AB0212012212AC02129B
:1004B3000122A9AC02120122FBAC021201222CADD3
:1004C3000212012239AD02120122A3AD021201224E
:1004D300FAAD02120122FDAD0212012236AE021262
:1004E300012239AE0212012243AE0212012297AE5B
:1004F30002120122D8AE021201220BAF0212012214
:1005030048AF021201224AB002120122EEB00212D7
:10051300012257B10212012295B102120122008079
:1005230003120122288003120122558003120122A3
:100533008D8003120122EB80031201223781031203
:1005430001229E8103120122DE81031201221B82FA
:1005530003120122498203120122F38203120122B0
:10056300FD82031201220A83031201223D83031237
:1005730001224983031201226183031201226B8347
:10058300031201221CAE031201222AAE031201221E
:1005930042AE0312012259AE031201221DB9011208
:1005A3000122C7B901120122DABA0112012256BB94
:1005B3000112012274BC01120122B0BC01120122FA
:1005C3004BBD011201222FBE01120122FBBE0112FB
:1005D300012289C001120122FAC001120122B4C111
:1005E30001120122A6C201120122E6C20112012256
:1005F3009AC301120122CCC301120122C2C5011206
:10060300012204C60112012222C60112012288C658
:100613000112012257C7011201221BC80112012234
:100623003ACA0112012218C20212012202C30212A3
:100633000122ADC302120122FEC302120122AEC483
:10064300021201221FC50212012204C60212012254
:1006530038C60212012231C7021201226EC70212EA
:1006630001224AC80212012289C802120122A5C826
:1006730002120122F39F0312012277A00312012227
:10068300A2A003120122BCA103120122F9830312C7
:1006930001220F84031201222D84031201223E85BD
:1006A30003120122488503120122738603120122D9
:1006B3006A8703120122D78703120122A6CF0212EF
:1006C3000122D6D00212012250D10212012280D17E
:1006D3000212012293D102120122DDD10212012260
:1006E300A0D3021201220A8401120122968401126C
:1006F3000122FA8501120122068601120122418696
:1007030001120122B08601120122B98701120122CE
:10071300C28801120122898901120122E68A01128B
:100723000122048B01120122218B01120122EC8B85
:1007330001120122148C01120122DE8E0112012208
:10074300E38E01120122FC90011201224A9101124F
:100753000122BA9101120122F89101120122D492CD
:1007630001120122949301120122E093011201224A
:10077300E393011201222794011201226F940112C3
:100783000122AE9401120122D09401120122049598
:1007930001120122679501120122D3DA021201220A
:1007A300E1DA0212012234DB0212012253DB0212CC
:1007B300012298DB02120122DCDC0212012277DD26
:1007C30002120122BBDD02120122E5DD0212012227
:1007D30054DE021201229ADE0212012211DF0212FA
:1007E3000122C2DF021201225827001201226827C8
:1007F3000012012209280012012265280012012299
:100803002229001201223E2A00120122702A00121C
:1008130001229F2A001201224C2C00120122C32E16
:10082300001201223331001201222532001201226B
:100833001E3300120122253500120122193800123D
:1008430001224839001201224C3B001201225C3C78
:1008530000120122EB3D00120122DC3E00120122B4
:100863002A3F00120122993F00120122BD3F0012CC
:1008730001220E4000120122AF4400120122B045B2
:10088300001201221146001201223C4600120122ED
:100893000247001201221EE90212012228E9021274
:1008A30001226DE90212012281E90212012211EAF9
:1008B300021201224AEA0212012285EA02120122ED
:1008C300AEEA0212012202EB0212012217EB02121C
:1008D300012239EB021201224EEB0212012262EBDA
:1008E3000212012277EB02120122B1EB0212012262
:1008F300DDEB0212012215EC0212012277EC021247
:100903000122E9EC021201222CED0212012256ED22
:100913000212012281ED02120122C2FE0212012201
:10092300848B02120122678C02120122E28C0212D2
:1009330001221D8D021201226E8E02120122FC8EF3
:10094300021201228E91021201224092021201220E
:100953004C9302120122BF94021201221895021233
:10096300012212F20212012255F202120122D9F2DD
:1009730002120122B0F502120122819D031201220B
:10098300339E031201222F9F031201226E9F031233
:100993000122C89F03120122C7A3031201222AA422
:1009A30003120122C7A403120122FCA40312012291
:1009B3002CA50312012267A50312012287A50312A6
:1009C3000122D4DF0212012260E0021201221FE1A0
:1009D3000212012237E20212012251E40212012221
:1009E300008002120122258002120122F2800212EB
:1009F3000122C68102120122338202120122738272
:100A0300021201220F8302120122438402120122E5
:100A13001E85021201227D8502120122098602121D
:100A230001227786021201220387021201224987DB
:100A330002120122BB87021201224D8802120122F7
:100A4300EE88021201220E89021201225689021235
:100A530001229F8902120122BB8902120122E1892C
:100A6300021201225B8A02120122698A0212012206
:100A7300F88A02120122618B0212012288E4021217
:100A830001220DE5021201224FE50212012233E693
:100A930002120122A0E602120122E4E6021201225E
:100AA30028E70212012255E7021201227DE7021212
:100AB3000122B5E702120122F3E7021201221AE82A
:100AC3000212012294E802120122DEE8021201223C
:100AD300BFA7011201225EA90112012296AB0112E6
:100AE3000122EAAB0112012215AC01120122F1AC81
:100AF3000112012221AD0112012250AD0112012286
:100B030063AD01120122A4AD01120122D1AD011284
:100B130001221FAE011201225BAE01120122A0AE1F
:100B230001120122EDAE0112012267AF011201226F
:100B3300A8B10112012292B301120122CEB3011214
:100B430001225DB501120122A2B50112012215B6DF
:100B5300011201226AB60112012274B601120122A6
:100B630040B701120122CAB701120122E9B80112EA
:100B73000122FAB801120122C195021201223A960A
:100B830002120122F49B02120122FF9C0212012293
:100B9300A89E02120122369F02120122215D001239
:100BA3000122A25D00120122CF5D00120122185E14
:100BB30000120122195F001201225D5F001201225F
:100BC300935F001201220F61001201229161001252
:100BD3000122AC61001201221D6200120122DA62BD
:100BE300001201229D63001201222B6400120122D4
:100BF300E26400120122F564001201228E650012E4
:100C030001222566001201224C6600120122B566FC
:100C130000120122FF66001201224D670012012219
:100C2300F467001201229268001201221F69001268
:100C33000122906900120122D769001201222F6A52
:100C430000120122616A00120122226B00120122AA
:100C5300256C001201226E6C001201228B6C0012B3
:100C63000122AA6C00120122DD6D00120122946E92
:100C730000120122B96E00120122CE6E001201226F
:100C83003E6F001201227F6F00120122A370001237
:100C93000122247100120122609F02120122AB9FE4
:100CA30002120122B79F021201228BA0021201221B
:100CB300A2A002120122DFA00212012210A102123D
:100CC300012248A1021201229EA102120122B4A113
:100CD30002120122F0A10212012203A20212012236
:100CE3002AA2021201225EA20212012284A302128C
:100CF3000122CEA402120122CAA502120122E0A6F9
:100D0300021201224D270012012247CA01120122B9
:100D130076CA01120122C8CD011201221FCF01128E
:100D23000122DECF0112012245D30112012231D467
:100D33000112012283D4011201229DD40112012246
:100D4300CFD401120122DAD401120122E3D4011219
:100D5300012295D50112012265D601120122ACD6DA
:100D63000112012212D70112012284D7011201229A
:100D73003F96011201227F990112012285990112E6
:100D8300012244A00112012269A401120122F08E62
:100D930003120122CD8F03120122119003120122AB
:100DA3004B9003120122E39003120122529103128A
:100DB30001225B91031201226791031201228191A7
:100DC30003120122AB9103120122DB9103120122D0
:100DD30062F6021201226FF60212012289F6021252
:100DE3000122BCF602120122FAF6021201225FF777
:100DF3000212012274F7021201227FF7021201226A
:100E03008CF702120122A3F702120122B1F7021298
:100E13000122BCF702120122C8F702120122D7F7FE
:100E230002120122E2F70212012205F80212012244
:100E3300A9F802120122B9F802120122D3F8021210
:100E43000122F0F8021201220BF90212012230F9F9
:100E5300021201223BF90212012250F9021201226D
:100E630064F902120122C5F902120122CBF902121E
:100E73000122D1F902120122D7F902120122EFF95C
:100E83000212012222FA021201222BE7011201228D
:100E9300C2E7011201225AE8011201224AE90112B2
:100EA300012281E90112012294E90112012202EADD
:100EB300011201229DEB01120122C4EB0112012256
:100EC30066EC011201229BEC01120122ACEC01122F
:100ED300012225ED0112012246ED011201225EEDF0
:100EE30001120122B6EE01120122BFF0011201220A
:100EF3000FF30112012212F40112012261F4011213
:100F030001225A7100120122577200120122427308
:100F1300001201224C73001201226E73001201228F
:100F23007A7300120122CC7400120122FB740012A6
:100F330001222B76001201226D760012012299778D
:100F4300001201226F7800120122C17800120122DF
:100F5300207900120122577900120122927900129E
:100F630001222D7D00120122467D00120122C87D3F
:100F730000120122D67D001201222B7E00120122D3
:100F8300397E00120122A67E00120122187F001270
:100F930001225E7F00120122AEF401120122D0F47D
:100FA30001120122BAF6011201225FFA0112012293
:100FB300A2FB011201227CFC0112012295A503125E
:100FC3000122BAA5031201222BA603120122EBB9B7
:100FD30002120122F4B902120122FDB90212012206
:100FE3002EBB021201224DBD0212012283BD021249
:100FF3000122BDBD02120122F3BD021201222DBE48
:101003000212012261BE021201228DBE02120122CE
:10101300D6BE0212012210BF0212012258BF0212D1
:101023000122AEBF02120122E3BF021201223EC01F
:101033000212012278C002120122C9C00212012247
:10104300FFC00212012239C10212012267C102123A
:1010530001228AC10212012295AF03120122C1AFFC
:10106300031201221CB00312012226B00312012233
:1010730036B0031201226FD50212012279D5021272
:101083000122B7D50212012200D6021201223AD65A
:101093000212012294D602120122B5D602120122B3
:1010A300BED6021201220FD70212012238D7021232
:1010B30001224DD702120122BED7021201224CD8BF
:1010C3000212012289D802120122B9D80212012286
:1010D3003DD9021201227DD902120122B5D9021291
:1010E3000122C7D902120122E6D902120122EFD945
:1010F30002120122A9DA0212012258AB03120122C1
:101103001298031201225698031201228C9803129B
:101113000122749A03120122CE9A03120122D79A52
:1011230003120122E09A03120122F3B103120122F6
:1011330009B20312012213B203120122A4FA02120A
:101143000122BDFA0212012261FB02120122A1FB5C
:1011530002120122BAFB02120122EEFB0212012249
:101163003BFC021201226FFC02120122B1FC0212AB
:101173000122B5FE0212012269B20312012252AC0E
:101183000312012282AC03120122ABAC031201222F
:10119300C3AC03120122DBAC0312012217AD03120D
:1011A3000122D2A80312012206A9031201221FA9B8
:1011B3000312012280A90312012227AA031201228A
:1011C30006C90212012206CB02120122D6CB021259
:1011D3000122F1CC02120122A9CE0212012231CF47
:1011E30002120122099203120122309203120122F8
:1011F3005C92031201221BB3031201226E470012F9
:101203000122C849001201227A4B00120122DB4B52
:1012130000120122CD4C00120122524D0012012274
:10122300D04D00120122FD4D00120122EC5000129C
:10123300012257510012012246520012012280520C
:1012430000120122C052001201227A54001201221C
:10125300CD540012012216550012012288550012A6
:101263000122BA5500120122D25500120122005761
:101273000012012217570012012202590012012203
:101283002459001201225A5900120122105B001244
:101293000122905B00120122CF5B00120122FC5C51
:1012A30000120122EBA10312012248A20312012220
:1012B3000BA3031201222AA30312012280A3031208
:1012C300012240B00312012250B00312012265B380
:1012D30003120122A4B3031201226CB103120122EF
:1012E30097B103120122A1B103120122D9B1031252
:1012F3000122E77F00120122E9AE03120122F9AEB7
:101303000312012214AF031201228BAF0312012235
:1013130054AA03120122D9AA031201223FAB0312DA
:1013230001224BAD031201226CAD031201227FADEA
:101333000312012291AD03120122BEAD0312012259
:10134300E3AD03120122A9ED02120122BDED021247
:10135300012236EE021201220FEF02120122CDF119
:1013630002120122E1870312012271880312012272
:10137300EF8803120122788903120122268A0312BD
:101383000122B08A03120122C18A03120122D08AE8
:1013930003120122E68A03120122F98A03120122AF
:1013A300598B031201226D8B03120122DDB003124C
:1013B300012246B10312012251B10312012261B18C
:1013C300031201224BA703120122A0A70312012239
:1013D3000EA8031201227EA8031201221C950312F8
:1013E30001224695031201224096031201226596BB
:1013F30003120122E79603120122BBB1021201225A
:1014030078B202120122B3B202120122DBB202123B
:1014130001223DB30212012289B302120122E2B377
:101423000212012273B40212012275B502120122C3
:1014330032B702120122B4B70212012219B8021202
:10144300012230B80212012240B9021201227EB9F0
:1014530002120122D3D801120122B9DC01120122A6
:101463004BDE01120122A2DE01120122C1DE0112B2
:1014730001223FDF01120122DFE001120122C3E159
:1014830001120122AFE50112012283E601120122BA
:10149300FA9A03120122369B03120122539B031271
:1014A3000122A19B03120122D69B031201227D9CE0
:1014B300031201227E9D03120122AEB30312012205
:1014C300BEFF01120122D6FF02E066701008A3E0FE
:1014D30066700A08A3E066700408A3E06622C3E707
:1014E300960809E7960809E7960809E79622C3E0F4
:1014F3009608A3E09608A3E09608A3E09622C00806
:10150300C3E096F50808A3E096420808A3E09642D4
:101513000808A3E09645087001D3D00822080808FC
:10152300EAC0E0EBC0E086F0E7A4FA180986F0E72A
:10153300A42AFA180986F0E7A42AFA180986F0E71C
:10154300A42AFA1986F0E7A4FBE5F02AFA1908861B
:10155300F0E7A42BFBE5F03AFA190886F0E7A42B91
:10156300FBE5F03AFA18180986F0E7A4C5F02BFB5F
:10157300E43AFA1908E7C5F0C6A426F6E5F03BFB02
:10158300E43AFA1886F0E7A4F6E5F00826F6E43B19
:1015930008F6E43A08F6D0E0FBD0E0FA22E4CFC044
:1015A300E0E4CEC0E0E4CDC0E0E4CCC0E075F020E0
:1015B300E626F608E633F608E633F608E633F618C9
:1015C3001818EC33FCED33FDEE33FEEF33FFC3ECC1
:1015D3009709ED9709EE9709EF97191919400FFF2E
:1015E300EC97FC09ED97FD09EE97FE191906D5F066
:1015F300BFECF709EDF709EEF709EFF7191919D061
:10160300E0FCD0E0FDD0E0FED0E0FF226016080849
:1016130008C6C313C618C613C618C613C618C613FE
:10162300C6D5E0EA227009080808226016181818BF
:10163300C6C333C608C633C608C633C608C633C6D0
:10164300D5E0EA22E627F60809E637F60809E63781
:10165300F60809E637F622E026F608A3E036F60890
:10166300A3E036F608A3E036F622E026F008A3E06E
:1016730036F008A3E036F008A3E036F022C3E6977D
:10168300F60809E697F60809E697F60809E697F6D5
:1016930022C3E096F008A3E096F008A3E096F008D2
:1016A300A3E096F022E056F608A3E056F608A3E07E
:1016B30056F608A3E056F622E056F008A3E056F0EB
:1016C30008A3E056F008A3E056F022E0F608A3E0F2
:1016D300F608A3E0F608A3E0F622E6F008A3E6F096
:1016E30008A3E6F008A3E6F022E0FAA3E0FBA3E0F8
:1016F300FCA3E0FD22EAF0A3EBF0A3ECF0A3EDF0F2
:1017030022E0F8A3E0F9A3E0FAA3E0FB22E8F0A3C8
:10171300E9F0A3EAF0A3EBF022CAC0E0E6F0A308E5
:10172300DAFAD0E0FA22CAC0E0E0A3C582CCC582CF
:10173300C583CDC583F0A3C582CCC582C583CDC582
:1017430083DAE6D0E0CA22C3E498F8E499F91217E1
:101753008B8026C3E49AFAE49BFBE920E7E912179E
:101763008BE498F8E499F922C3E498F8E499F91220
:10177300178BE498F8E499F9C3E49AFAE49BFB2203
:10178300EB20E7CFE920E7E0B90010BB0008E88AC7
:10179300F084F8AAF022E4FBC8FA22EB70227B1053
:1017A300C833C8C933C9335007C39AC3DBF28006B1
:1017B3009A50012ADBEAC833F4C8C933F4C9FA22C0
:1017C30075F008E4C833C8C933C933C99AC99B50F3
:1017D30004C92AC93BD5F0ECFBC833F4C8E4C9FA01
:1017E30022600D08C6A2E713C618C613C6D5E0F3D8
:1017F30022600C08C6C313C618C613C6D5E0F4226C
:10180300700422600D18C6C333C608C633C6D5E0BC
:10181300F41822252110AF08F521400C1522800869
:10182300F52140021522D2AF2200C0D0252110AFEE
:1018330008F521500C05228008F52150020522D21B
:10184300AFD0D0222521F58210AF08F521400C1529
:10185300228008F52140021522D2AF85228322255A
:1018630021F582E43522F583222521F8E43522F996
:10187300222521FAE43522FB222521FCE43522FD31
:1018830022E4732521C582C0E0E52234FFC583C06D
:10189300E0E521C3958224F810AF08858322858271
:1018A300218008858322858221D2AFCEF0A3E52053
:1018B300F0A37808E608F0A3DEFAEFF0A3E58124AD
:1018C300FAF8E608F0A3E608F0A3E608F0A3080890
:1018D300E608F0A3E608F0A315811581D0E0FED059
:1018E300E0F8158115811581E8C0E0EEC0E02225FE
:1018F30021C582C0E0E52234FFC583C0E0E521C3F2
:10190300958224F910AF088583228582218008857A
:101913008322858221D2AFCEF0A3E520F0A37808FD
:10192300E608F0A3DEFAEFF0A3E58124FBF8E6086E
:10193300F0A3E608F0A30808E608F0A3E608F0A37E
:1019430015811581D0E0FED0E0F815811581E8C03E
:10195300E0EEC0E022852283852182E0A3FEE0A39E
:10196300F5207808E0A3F608DFFAE0A3FFE0A3C0C0
:10197300E0E0A3C0E0E0A3C0E0E0A3C0E0E0A3C0D8
:10198300E010AF0885822185832280088582218526
:101993008322D2AFD083D08202011F852283852187
:1019A30082E0A3FEE0A3F5207808E0A3F608DFFABF
:1019B300E0A3FFE0A3C0E0E0A3C0E0E0A3C0E0E059
:1019C300A3C0E010AF088582218583228008858229
:1019D30021858322D2AFD083D08222C0D02521C5D6
:1019E30082C0E0E52234FFC583C0E0E521C39582D0
:1019F30024F310AF08858322858221800885832202
:101A0300858221D2AFC8F0A3E9F0A3EAF0A3EBF0FB
:101A1300A37908E709F0A3D8FAECF0A3EDF0A3EE5D
:101A2300F0A3EFF0A3D0E0F0A3D0E0F0A3D0E0F078
:101A3300A3E520F0A3E5F0F0A3228522838521828C
:101A4300E0C0E0A3E0F9A3E0FAA3E0FBA37808E099
:101A5300F608A3DFFAE0FCA3E0FDA3E0FEA3E0FFAA
:101A6300A3E0C0E0A3E0C0E0A3E0F5D0A3E0F5204D
:101A7300A3E0A3F5F010AF088583228582218008B7
:101A8300858322858221D2AFD082D083D0E0F8D063
:101A9300E03274048006740280027401C0E0F4042E
:101AA300121847D0E012171C2274048004740280B9
:101AB30000CCC0E0EDC0E0E521C39CCCAD225001D9
:101AC3001D10AF068C218D2280068C218D22D2AF72
:101AD300121729D0E0FDD0E0FC22D083D082E9C0E8
:101AE300E0E493A3C386F0C5F095F0F908E493A36B
:101AF30086F0C5F095F0700BE493A3C3994005E914
:101B0300048002A3E475F002A42582F582E5F03592
:101B130083F583D0E0F9E493A3C0E0E493C0E0222B
:101B2300D083D082ECC0E0EDC0E0E493A3FCE49367
:101B3300A3FDED4C600D121B6FEC24FFFCED34FF95
:101B4300FD80EFE493A3FCE493A3FDED4C600D1241
:101B53001BAEEC24FFFCED34FFFD80EFD0E0FDD0A5
:101B6300E0FCE493A3C0E0E493C0E022C0E0C3E45C
:101B73009396087401939618400FE49366700808CF
:101B8300740193661870007019A3A3C3E4939608B5
:101B93007401939618A3A3400DD0E0D0E0D0E002E7
:101BA3001B5FA3A3A3A3A3A3D0E022C0E0C0F0883C
:101BB300F0E4936670080874019366187000A8F047
:101BC300A3A3700BD0F0D0E0D0E0D0E0021B5FA362
:061BD300A3D0F0D0E022D7
:101BDC0074F61218F2EAFEEBFF8C088D09EE243431
:101BEC00F8E43FF9E8FCE9FDEE2435121F16FAEE95
:101BFC002437121F16F88508F0A4C885F00A850949
:101C0C00F0A4250AF9EA28F8E439F97A257B0012C0
:101C1C00178BEA8C828D83F0FA131313541FF8EE92
:101C2C0028F8E43FF9E8245DF582E439F583E0C057
:101C3C00E074075AF8D0E0B800028004C313D8FC53
:101C4C00A2E0EE50082434F582E43F8018243612CA
:101C5C001F16F5F0EA84A8F0EE28F8E43FF9E82422
:101C6C0038F582E439F583E0F97F0302199E74F7A5
:101C7C001218F2EAFEEBFFEE2434121F16C0E0EE4F
:101C8C002435F582E43FF583D0E0F08E828F83A378
:101C9C00A3A3A3A3A3A3C082C0838E828F83A3A379
:101CAC00A3A3A3121D7FD083D082E0C398F508A311
:101CBC00E099F509EE247F121F166401705DEE2485
:101CCC0080121D798E828F83A3A3A3A3A3A3A31237
:101CDC0020B98E828F83A3A3A3A3A3E0FAA3E0FB76
:101CEC00C3EA9CEB9D5010C3EC98ED99402DC3EAD0
:101CFC0098EB995026800EC3EA98EB994007C3ECF9
:101D0C0098ED9940167CB07D04EEFAEFFB120C4472
:101D1C00EE247FF582E43FF583E4F0AC08AD09EEE8
:101D2C00FAEFFB121BDCE9F91226677F0202199EFF
:101D3C00C082C083852182852283121D7FC3EA9CC9
:101D4C00EB9D5010C3EC98ED99401BC3EA98EB99AE
:101D5C005014800EC3EA98EB994007C3EC98ED99A8
:101D6C004004790180027900D083D08222F582E48C
:101D7C003FF583E0F8A3E0F922EAC39CFAEB9DFB64
:101D8C002274EF1218F2900376E064086005E064A8
:101D9C0007702A9061C8E060249003A4E0F4601DF1
:101DAC00E0F875F00AA4C8AAF02AF974A628FE7403
:101DBC000339FF8E828F83A3A3A3E07003021E9BC3
:101DCC00906060E0C0E0EE2468F582E43FF583D0DB
:101DDC00E0F0750C20750D05750800750900E5D946
:101DEC0014F50AE5D95403F50E60127403650E6000
:101DFC0043E50A600AEE2467121F16700280759084
:101E0C00051BE06401601F121F1360047A0480023A
:101E1C007A00E50AC39AFA95E0FB120AE28A088B6B
:101E2C0009EA45097005120E6C8064121F137004C8
:101E3C008A0C8B0DE50A6012850C82850D83F50BDF
:101E4C00E5D9F0A3150BE50B70F6121F1360447463
:101E5C00FC250AF50A780C121A99AC0AA90EEEFAAE
:101E6C00EFFB120CFE740212182CE97026AA08ABB8
:101E7C00091213CA793D8E828F83A3A3A3A3E0FA20
:101E8C007B00120944EEFAEFFB120C68120D10796C
:101E9C0000806F7403650E6051850A10751100780F
:101EAC0010121A99AC0CAD0DAA08AB09120CC27425
:101EBC000212182CEE2468121F1664807004747FB2
:101ECC008001E0F50C780C121A9DE50EF50C780CDF
:101EDC00121A9DA90AAC08AD099003A4E0FA7B0084
:101EEC0012091A740212182C8013900376E06408FD
:101EFC00600BAC0CAD0DEEFAEFFB120D82120E78EE
:101F0C0079017F0A02199EEE2482F582E43FF58363
:101F1C00E02274F21218F274FC121816EAFEEBFFAF
:101F2C008909A2AFE433F508C2AF021FDAE0601BE7
:101F3C00780C121A99AC0BA90EEEFAEFFB120CF8F6
:101F4C00740212182C7404250BF50B7401250BF577
:101F5C00D9850ED9E50B6018F50A850C82850D83A1
:101F6C00E0F5D9A385820C85830D150AE50A70EA84
:101F7C0075E195EE2463F8E43FF97A007B00A2AF9B
:101F8C00E433F50BC2AF1220B5EC4D603288828978
:101F9C0083E0FAA3E0FB8A828B831220B9888289C2
:101FAC0083ECF0A3EDF08A828B83E4F0A3F0122093
:101FBC00B5EC4D700A88828983A3A3E4F0A3F0E505
:101FCC000BA2E092AF1213CA9004B7E004F0EE2417
:101FDC0063121D79E8496064EE2463121F16240213
:101FEC00F8A3E03400F988828983E5822402F50C99
:101FFC00E43583F50DE0F50BA3E0F50EEE2462124B
:10200C001F16640170369061D0E0F8121F13600443
:10201C007C0480027C007480C398FA95E0FBE50B8D
:10202C002CF8E43400F9E82402F8500109C3EA98CA
:10203C00EB99A2D265D0334003021F399004B7E06C
:10204C00604D9004B8E0F89004B7E0C398500C745D
:10205C00026509703A9004B9E060348E828F83A3D4
:10206C00A3A3A3E08521828522831220AB740212E4
:10207C001862E81220AB9004B6E028F07402121833
:10208C007CAA21AB22790112096E9004B7E4F0E529
:10209C0008A2E092AF740412182C7F0702199EF06C
:1020AC00A3E4F09004B7E0F82288828983E0FCA3D3
:1020BC00E0FD22008523878524C622C0E074EB1244
:1020CC0019DEA2AFE433F508C2AF759B00906182B4
:1020DC00E0A2E05030E591A2E0502A7591FE740127
:1020EC006523702112225A120DC4122248121AAC06
:1020FC00122411740412182CE96401700579011270
:10210C000E00121D8D906182E0A2E5505DE591A25A
:10211C00E550577591DF900376E064076005E06445
:10212C0008702F12225A74016523703E120DC412CE
:10213C002248121AAC122411740412182CE96401EE
:10214C0070057901120E007901EEFAEFFB121F1ED9
:10215C008018E0640D7013900398E004F06428700C
:10216C0002E4F07A00E0F9120E7E906182E0A2E6C1
:10217C00400302221DE591A2E6400302221D759147
:10218C00BF900376E064057008120DAC120DB88098
:10219C0003120DB2752300120E0CE9900377F0793F
:1021AC0000120E00120BAE7A017B00900375E0F961
:1021BC001210D0907803E06442705690051FE01422
:1021CC00F0704EC2AF1221D400782CD0E0F618D0AB
:1021DC00E0F6E59F5407F87005750DFF8003750D4B
:1021EC007FC4C0E0782BE6F50A08E6550DF50B74B4
:1021FC000B780A1217F4D0E0250AF8906270E0A26E
:10220C00E740F8E8C333906272F0906270E0D2E07D
:10221C00F0906181E0A2E35009E5E9A2E350037577
:10222C00E9F7A3E0A2E75009E591A2E75003759105
:10223C007FE508A2E092AF7F08021A3D8E828F8361
:10224C00E0F8A3E0C82416F582E438F58322900365
:10225C00A4E0F875F00AA4C8AAF02AF974A628FE1E
:10226C00740339FF22C0E0C0D0C082C08390618368
:10227C00E0A2E05009E5BFA2E0500375BFFEE0A26A
:10228C00E15009E5BFA2E1500375BFFDE0A2E250A9
:10229C0009E5BFA2E2500375BFFBE0A2E35009E5DC
:1022AC00BFA2E3500375BFF7E0A2E45009E5BFA25B
:1022BC00E4500375BFEFE0A2E55009E5BFA2E5507D
:1022CC000375BFDFE0A2E65009E5BFA2E650037537
:1022DC00BFBFD083D082D0D0D0E032C0E074F21235
:1022EC0019DEE5A7A2E6500FE5A1A2E6500953A717
:1022FC00BF75A1BF12233BE5A7A2E5500CE5A1A237
:10230C00E5500653A7DF75A1DFE5A7A2E15009E56B
:10231C00A1A2E1500375A1FDE5A7A2E2500CE5A135
:10232C00A2E2500653A7FB75A1FB7F01021A3D7474
:10233C00F71218F2752301900376E06406701512FB
:10234C000D348A828B83A3A3A3A3A3A3E0FAA3E0F7
:10235C00FB120D9AA2AFE433FED2AF90037CE06483
:10236C000170187A207B00900375E0F91211607AE5
:10237C00207B00900375E0F91210D6906182E0D2B8
:10238C00E6F090051CE0602185C624801690037B46
:10239C00E064017008E5C654F84405F5C653BEFC6C
:1023AC001220C07401652360E4EEA2E092AF7F02BC
:1023BC0002199E008E258F2685822A8583298521E8
:1023CC0082852283E0CEA3E0CF852A82852983EB08
:1023DC00C9EAC8EDCBECCA75F010C3E833C8E933D1
:1023EC00C9EA33CAEB33CBC3EA9EF528EB9FF5273A
:1023FC00B35004AB27AA28EC33CCED33CDD5F0DAAF
:10240C00AE25AF262274F11218F28A088B098C0AB9
:10241C008D0B90837478081216A8740F12186278BA
:10242C000C1216CE908374780C1216A87808790CBE
:10243C001214E19083A850107808790C1216807849
:10244C00081215014014800E780C79081216807849
:10245C000C12150150047901800279007F080219D1
:10246C009E74ED1218F28A088B098C0A8D0B9083DE
:10247C007478081216A87413121862780C1216CEFF
:10248C00908374780C1216A8780C79081214E14019
:10249C00117808790C121680AA08AB09AC0AAD0B9E
:1024AC0080227510007511007512007513017810DB
:1024BC00790C12168078107908121647AA10AB11F5
:1024CC00AC12AD137F0C02199E908374780812160F
:1024DC00CE8A828B8378081216BB7F0402199E74F5
:1024EC00F51218F28C828D8378081216CE8A828BA4
:1024FC00837808121694122543C3E09CF0A3E09D48
:10250C00122535402290838078081216CE8A828B51
:10251C0083780812166D8A828B83A3A3A3A3E0246D
:10252C0020F0A3E0344EF080A0F088828983C3E0D1
:10253C009420A3E0944E22EA2404F8E43BF98C8224
:10254C008D83A3A3A3A3E0FCA3E0FD88828983224F
:10255C0074F51218F2E9FE9004D2E0FAA3E0FBEE57
:10256C0029F8E433F9748728F582748239F583E00D
:10257C002AF508A3E03BF5097808121A999083A470
:10258C001216EC1223C0740212182C8A088B098CB8
:10259C000A8D0B7410780812160FAA08AB097F0469
:1025AC0002199E74F11218F28A0C8B0D8C0E8D0F81
:1025BC007411121862121AB07411121862E024010C
:1025CC00F508A3E03400F509E4F50AF50B780C796D
:1025DC00081215209083BC78081216CE780C790856
:1025EC00121520AA0CAB0DAC0EAD0F1223C0740249
:1025FC0012182C8B09EA450960047A0180027A00D2
:10260C00EC2AFCE43DFD7413121862E0F8A3E0F927
:10261C00E8FEE9FFECF8EDF97A717B0212178B8872
:10262C00088909E4F50AF50B8E828F837808121657
:10263C00DDECF8EDF97A717B0212178B8A088B09A5
:10264C00740578081218038E828F83A3A3A3A3E5C5
:10265C0008F0A3E509F07F0802199EC082C083E947
:10266C00906000F0D083D08222C2AF02000022C062
:10267C00E074F21219DEA2AFE433FED2AFC2C0E5B1
:10268C00D1A2E4500653D1EF1213A6EEA2E092AF02
:10269C007F01021A3DC0E074F21219DEE5A8FED2E9
:1026AC00AF121340C2EBEEA2E7A2E792AF7F01029A
:1026BC001A3DC0E0C0D0E8C0E0E9C0E0E5A8D2AF68
:1026CC00C2C7A2E7A2E792AFD0E0F9D0E0F8D0D031
:1026DC00D0E032C0E074F21219DEA2AFE433FCD2C7
:1026EC00AF901655E0F8A3E0F9A3E0687003A3E0FF
:1026FC0069700A539AFB90165974018039C2E9909B
:10270C001655E0F8A3E0F9E82401FAE439FB901639
:10271C0055EAF0A3EBF074C528F582741439F583EF
:10272C00E0F5C1901655C3E09490A3E094014007E6
:10273C00901655E4F0A3F0ECA2E092AF7F01021AE0
:10274C003D02011FFFFFFFFFFFFFFFFFC082C083A1
:10275C00E99017EFF0D083D08202011F74F61218A3
:10276C0086E99002E8F0900348E0F50875090074DA
:10277C00027808121803AA08AB0912110C9002E98E
:10278C0012311B9002E9123508606F900348E07516
:10279C00F003A4FAABF012110C90030612311B904B
:1027AC000306123508700B9002E91234D91211127B
:1027BC00804890030612446D7AFF7BFF1212A47AB4
:1027CC000080198A0875090074027808121803121F
:1027DC003F1574FF12291BE4F0A3F00A900348E0A4
:1027EC00F8EAC39840DD79051208009002E8E0F998
:1027FC001206F27A8A7B08120A82023FB874F4122B
:10280C0018868A088B09EB548060479002E8E0F93F
:10281C001210B88A0A8B0BAE0AAF0BEE4F602A8EE1
:10282C00828F83E064B0701A120812E960148E82F1
:10283C008F83A3A3A3A3E0F9EE2405FAE43FFB12D4
:10284C0007E2EEFAEFFB1210A6AA08E5096480FB7A
:10285C0080047A007B00022A6B74F212188674FBD7
:10286C00121816EAFEEBFFEE4F6045740312186265
:10287C00EEF0A3EFF0852182852283ECF0A3EDF03E
:10288C007402121862E9F0AA21AB221206ECE9F5E7
:10289C000870757413121862E0F50AA3E0F50BE5E5
:1028AC000A450B60638E828F83122EA4EE4F700547
:1028BC0075080280537A067B0012110C8A0C8B0D62
:1028CC00A80CA90DE8497005750813803B8882890E
:1028DC0083E412291BEEF0A3EF122A37E50AF0A3CA
:1028EC00E50BF09002EC122A309002EC6017E0FC41
:1028FC00A3E08003EAFCEBFD8C828D83122A3070FE
:10290C00F38C828D83123B30A90874050246EDF0DE
:10291C00A312444FA32274F21218868908890C75ED
:10292C000D007403780C121803850C0A850D0B909E
:10293C0002EBF09002E912393B122A2E602E121192
:10294C00127900801D890C750D007402780C121818
:10295C00039002E9123DD48882F583A3A3E4F0A38B
:10296C00F009900348E0F8E9C39840D9900348E097
:10297C00FA850AF0A4CAA8F0850BF0A428FB121162
:10298C000C8A0C8B0DAE0CAF0DEE4F7003022A248B
:10299C00900348E0FC850AF0A4CCA8F0850BF0A4C9
:1029AC0028FD79001210947C0080318D0C750D007F
:1029BC007403780C1218038A828B83122A2988825A
:1029CC008983E4F0122A36A3A3F0A3F00DEDC3958E
:1029DC000840D8EE250AFEEF350BFF0C900348E0BB
:1029EC00F8ECC39850288C0C750D007402780C12FE
:1029FC0018039002E9122A29E82402500109FAE985
:102A0C00FB8A828B83EEF0A3EFF07D0080BFE5089C
:102A1C009002EBF07900800279130246F0123DD857
:102A2C00F922A3A31234DDEA4B22A312444FA3A331
:102A3C00A32274F41218867900EAA2E0501F7508DC
:102A4C00427509837808121A9979107C047D007AF2
:102A5C00F17B171207FA740212182CE9F980007F27
:102A6C0004021958C082C0839002EC123508601C15
:102A7C0088828983A3A3E06A7003A3E06B888289B0
:102A8C008370E8A3A3A3A31234D980047A007B003B
:102A9C0002276174F212188674FD121816EAFEEB06
:102AAC00FF852182852283E4F0A3F0740212186260
:102ABC007401F012350570141209BC12110C90023D
:102ACC00EF12311B1235057003022C3112321BEE42
:102ADC002404F50AE43FF50B850A82F583E024FE15
:102AEC00603C24FC607424FE607E24FE7003022B88
:102AFC008124FE7003022B8E24FE7003022B9B2478
:102B0C00FE7003022BA824FE7003022BB524FC706C
:102B1C0003022BD624FE7003022BEE022C2A120980
:102B2C00BC9002F1EAF0A3EB122C3D12042EE960EA
:102B3C0003022C2A9002F1121AB08E828F83A3A367
:102B4C00A3A3A312446D8508828509831234D9127C
:102B5C0007CA740212182C022C2AAC21AD22EEFAF0
:102B6C00EFFB120818022BF9AC21AD22EEFAEFFBA9
:102B7C0012081E8078AC21AD22EEFAEFFB1208246D
:102B8C00806BAC21AD22EEFAEFFB12082A805EAC12
:102B9C0021AD22EEFAEFFB1208308051AC21AD22B0
:102BAC00EEFAEFFB1208368044740212186C880C93
:102BBC00890D780C121A99740212187CEEFAEFFB3C
:102BCC0012083C740212182C8023AC21AD22EEFAB0
:102BDC00EFFB120842E9F870167402121862E4F066
:102BEC00803CAC21AD22EEFAEFFB120848E9F8E884
:102BFC00602C8E828F83A3E064146022850A828508
:102C0C000B83E09002F1F08521828522831234D966
:102C1C009002F212311BE8A3122C3D120428EEFA9A
:102C2C00EFFB1207A07402121862E0F9740302465B
:102C3C00EDF07CF17D028508828509831234DD225A
:102C4C0074E812188674FA1218167404121862ECCE
:102C5C00F0A3EDF08A128B13EA2405F50EE435137C
:102C6C00F50FEA2402F510E43513F511851082F501
:102C7C00831234D91205188A0A8B0B7508007C0351
:102C8C007D0079007AF17B02121094E50E2402F596
:102C9C0016E4350FF517740212186C880C890D7830
:102CAC000C121A99850E82850F83A3A3A3A3E0F5BA
:102CBC000C750D00780C121A99E50E2405F50CE430
:102CCC00350FF50D780C121A99851682851783121B
:102CDC0037E012070A740612182C8A0C8B0DE50CBF
:102CEC00450D7003022E6D8020852182852283E0A4
:102CFC0088828983F00508852182852283A3E0C020
:102D0C00E0122EAED0E0F00508E50A24FBFAE50B44
:102D1C0034FFFBC3E5089AE49B4003022E6D7E0052
:102D2C007F00851282851383A3A3A3A3E0F5097802
:102D3C0009121A9DE4F514F5157814121A997514E4
:102D4C00EE7515027814121A999002EF121AB074DB
:102D5C0009121862121AB0E50A24F9F9AC0CAD0D7F
:102D6C008510828511831234D912087274091218D5
:102D7C002CE96003022E0E850E82850F83A3A3A37C
:102D8C00A3A3A3A3E0F89002EEE0687075E0F5143D
:102D9C008E157814121A9912446A850E82850F8347
:102DAC00A3A3A3A3A3A3A3A31234D912108E7402BA
:102DBC0012182CE9604C9002F2123508703BE4F5C5
:102DCC00147814121A997CFF7DFF7907851082857F
:102DDC0011831234D91207DC740212182C12350E1E
:102DEC007017850E82850F831246077404121862C1
:102DFC00123EC8123811022EA1850C82850D831249
:102E0C002EA4A821A922881489157814121A997451
:102E1C0004121862121AB0851682851783123111AA
:102E2C00120716740412182C8A0C8B0DEE4F7003BB
:102E3C00022CEA122EAEEE122EB91237C7EF122E5A
:102E4C00B9F8A3E03400F9E50C450D6003022CF54C
:102E5C008882898374FFF00508122EAE74FFF0058A
:102E6C0008E508601A1313543F12312112043AE991
:102E7C0060099002F21234D91213CA7900801685B7
:102E8C000E82850F831246077404121862123EC814
:102E9C00123B30790A02379AA3A3A3A3E0FEA3E066
:102EAC00FF22A8089002F2E0281237C722F005088A
:102EBC00089002F2E0282274E812188674FA1218AC
:102ECC0016740212186212311B7404121862ECF0A0
:102EDC00A3EDF07402121862E024051237B0E0F58D
:102EEC000CA3E0F50D7402121862E02402F510A395
:102EFC00E03400F511851082F5831234D9120518CF
:102F0C00750800750900EA24FCFEEB34FFFF80080D
:102F1C00050CE50C7002050DA808C3EE98EF9400A3
:102F2C0050030230CDA821A922880E890F780E12E9
:102F3C001A99851482851583A3A3A3A31244711235
:102F4C001A99E5142405F50EE43515F50F780E12D3
:102F5C001A9985148285158312310F12070A74068B
:102F6C0012182C8A0E8B0FEA450F70030230CDEA33
:102F7C002404F516E4350FF517851682F583E0F574
:102F8C000CA3E0F50D85218285228312446D8A8283
:102F9C008B83A3A3A3E0F98510828511831234D906
:102FAC001206F8E9F50960030230CD7402121862BA
:102FBC001237D7F5097809121A9DE4F512F5137832
:102FCC0012121A997512EE7513027812121A999040
:102FDC0002EF121AB07407121862121AB0EEF9ACA2
:102FEC000EAD0F8510828511831234D912087274BC
:102FFC000912182CE9F50960030230CDE508703F81
:10300C00E4F50EF50F780E121A997CFF7DFF790905
:10301C008510828511831234D91207DC74021218C0
:10302C002C1237FD700D74041218621231047911D0
:10303C000231019002EEE024029002F2F080149032
:10304C0002F2E0FA9002EEE0790024025001096AE3
:10305C00497072A8089002EEE0FAE82AFAE434000B
:10306C00FBEE9AEF9B405A851682851783E0C0E0F1
:10307C009002F3122EB3D0E0F00508851682851766
:10308C0083A3E0C0E0089002F3122EB3D0E0F00569
:10309C00089002EE124471121A9912446AA808128E
:1030AC0037A412107C740212182C9002EEE0250842
:1030BC00F50874FF650C700474FF650D6003022F36
:1030CC001CE508601F9002F2E0F5F0E5088412316F
:1030DC0021120440E960099002F31234D91213CA88
:1030EC0079008011E509700375090A7404121862DD
:1030FC00123104A90902379A12393FE50CF0A3E505
:10310C000DF022A3A31246FCAA0CAB0D22A3A3EA3A
:10311C00F0A3EBF0229002F1F07CF17D028510829D
:10312C008511831234DD2274EC12188674FC12188B
:10313C0016123C40740212187C1234D31207108AF7
:10314C000C8B0DEA450D700302320B12321BA821B9
:10315C00A922881089117810121A997CFF7DFF79A9
:10316C000B8508828509831234D91207DC7402128C
:10317C00182C123311700C850A82850B8312380EB1
:10318C000232188E828F83A3A3A3A3E0F5127812C8
:10319C00121A9DE4F512F5137812121A997512F1A0
:1031AC007513027812121A997810121A997409125E
:1031BC001862121AB07409121862E0F9AC0CAD0D59
:1031CC008508828509831234D91208727409121881
:1031DC002CE9FE70157CF17D02850882850983122D
:1031EC0034D9120446E97009802074166E70027E80
:1031FC00009002F21234D91213CAEE7004800B7EC6
:10320C0001850A82850B83123B2DEEF9023B42EEBF
:10321C002402F508E43FF5092274EC12188674FCBC
:10322C00121816EAFEEBFF8C0E8D0FEE2405F50836
:10323C00E43FF509740212187C8508828509831213
:10324C0034D91207108A0C8B0DEA450D700302332A
:10325C0001EE2402F50AE43FF50BA821A9228810FF
:10326C0089117810121A997CFF7DFF790D1234D3D5
:10327C001207DC740212182C123311700B850882A1
:10328C0085098312380E807A8E828F83A3A3A3A321
:10329C00E0F5127812121A9D850882850983A3A382
:1032AC00121AB07512F17513027812121A9978105D
:1032BC00121A997409121862121AB074091218624F
:1032CC00E0F91234CF120872740912182CE9FE704E
:1032DC000F7CF17D021234D312044CE9700980206A
:1032EC0074166E70027E009002F21234D91213CA58
:1032FC00EE7004800B7E01850882850983123B2DBC
:10330C00EEF9023B42123518F510A3E0F511EA452F
:10331C00112274E812188674FE1218168A168B176E
:10332C008C148D15EA2405F50CE43517F50DEA24FB
:10333C0002F50EE43517F50F850E82F5831234D99C
:10334C001205188A088B09750B007C037D00790027
:10335C007AF17B02121094750A00E50814F510043A
:10336C0024FFF508E50934FFF50980549002F1E0DB
:10337C00FA9002EEE0F8EA28F8E43400F9E508984F
:10338C00E50999500D9002F1E0F8E510C398900210
:10339C00EEF0E0F5127513007812121A9912446AC5
:1033AC009002F2E02AFAA3E03400FB12107C7402C3
:1033BC0012182C9002EEE0F89002F1E028F0050AC9
:1033CC00850C82850D83A3A3123DE440030234B423
:1033DC009002F1E0C39508E4950940030234B4AEC1
:1033EC000AEE2EFEE433FF1234F3AC21AD2212446C
:1033FC0085E439FB1207108A128B13AC12AD13EC57
:10340C004D701B750B011234E3123B319002F2121A
:10341C002A3060031213CAA90B740202379C85165A
:10342C0082851783A3A3A3A3E0F50B780B121A9D37
:10343C00E4F512F5137812121A997512EE7513023F
:10344C007812121A999002EF121AB07407121862BD
:10345C00121AB0A910850E82850F831234D9120866
:10346C0072740912182CE9F50B709B9002F212354C
:10347C00086003023378E4F512F5137812121A99E6
:10348C007CFF7DFF790F850E82850F831234D91254
:10349C0007DC740212182C12350E600302337812FA
:1034AC0034E31238120234257CF17D02850E8285BC
:1034BC000F831234D9120452E960030234187900D4
:1034CC00023425AC0CAD0D850A82850B831234DDDC
:1034DC0022E0FAA3E0FB221234F3E0FAA3E0F9EACB
:1034EC0085148285158322850C82850D83E02EF848
:1034FC00A3E03FF988828983229002EF12460BE801
:10350C004922123518F8A3E0F9E849229002F2EAB0
:10351C00F0A3EBF09002F2E02274E812188674FA31
:10352C00121816740412186212311B8C168D177433
:10353C0004121862E02405F50EA3E03400F50F74B4
:10354C0004121862E024021237B01234D912051892
:10355C008A0A8B0B7F007E00A821A9228808890982
:10356C007808121A99850E82850F83A3A3A3A3E072
:10357C00F5088E097808121A99E50E2405F508E469
:10358C00350FF5097808121A99850E82850F83A3D9
:10359C00A31237E012070A740612182C8A0C8B0D32
:1035AC0080291237D1F00F1237D1F00F9002EE12A2
:1035BC003B1C121A9912446AEFF81237A412107CB1
:1035CC00740212182C9002EEE02FFFE50C450D70E2
:1035DC0003023660852182852283123C52A3A3A369
:1035EC00E0F98514828515831234D91206F8E9FEA8
:1035FC00E50C2404F510E4350DF511EE705074044F
:10360C001218621237D7F5087808121A9DE4F508DB
:10361C00F5097808121A997508EE750902780812DE
:10362C001A999002EF121AB07407121862121AB09B
:10363C00E50A24FAF9AC0CAD0D85148285158312BC
:10364C0034D9120872740912182CE9FE6039123739
:10365C00ED123B30EF70030237879002F2E0F5F089
:10366C00EF849002F1F07CF17D0285148285158344
:10367C001234D9120458E960099002F31234D912A9
:10368C0013CA790002379A8F08EF703BE4F512F5F4
:10369C00137812121A997CFF7DFF7911851482859B
:1036AC0015831234D91207DC740212182C1237FD50
:1036BC0070091237ED12381102379A9002EEE0249D
:1036CC00049002F2F080359002EEE0F89002F2E005
:1036DC00FAE82404FCE43400FDEC6A4D6003023685
:1036EC0066E50A24FAFAE50B34FFFBE50828F8E452
:1036FC003400F9EA98EB99500302366685108285FE
:10370C001183E0C0E09002F3E02FF8A3E0340088CE
:10371C0082F583D0E0F00F851082851183A3E0C081
:10372C00E01237BED0E0F00F740212186C880889D2
:10373C00097808121A997402121862121AB0850EBE
:10374C0082850F8312310F120716740412182C8AFB
:10375C000C8B0DEA450D70030235AE740212186223
:10376C00E0C0E01237BED0E0F00F7402121862A372
:10377C00E0C0E01237BED0E00235B6EE70027E0A31
:10378C00850E82850F831237F3123B30EEF97406E7
:10379C0012182C7F100219589002F3E028FAA3E0BB
:1037AC003400FB22F514A3E03400F515851482F5E2
:1037BC0083221237C2229002F3E02FFAA3E03400E6
:1037CC008A82F583221237C274FF2212393FA3A3D7
:1037DC00A3A3E0221246FC850E82850F831234DDF2
:1037EC002285108285118312460B851682851783DC
:1037FC00229002F3EAF0A3EBF09002F312460BE8EE
:10380C004922123B36E8F0A3E9F079112274EA124E
:10381C00188674FE1218168A088B098C128D13EAFE
:10382C002405FEE43509FFAC21AD228E828F831274
:10383C0034D91207108A0C8B0DEE2406F50EE43FDA
:10384C00F50FEA450D7003023911E5082402F50A5B
:10385C00E43509F50B8A828B83A3A3A3E0A2E55080
:10386C00288521828522831234D91208668A108B0E
:10387C0011EA4511602079121234CF85108285111E
:10388C0083121884E9F50C707F850E82850F83E016
:10389C00600979528011750C0E806D85088285093E
:1038AC0083A3A3A3A3E0F9E4F508F5097808121A99
:1038BC00998E828F83A3A3E0F5087808121A998E4B
:1038CC00828F83A3A3A3121AB08E828F8312446DAE
:1038DC001234D3120878740612182CE9F50C7011F6
:1038EC00850E82850F83E0702D1234D312045E8016
:1038FC00257416650C7011750C0074181218621270
:10390C00393BE48010750C01124603851282851335
:10391C0083E8F0A3E9F0850E82850F83E0600479DB
:10392C00008002A90C740212182C7F0E0219581276
:10393C00393F22E0F8A3E0F58388822274EC121858
:10394C008674F71218168A0A8B0B8C108D11EA24C8
:10395C0005FEE4350BFF750C00AC21AD228E828F79
:10396C00831234D91207108A088B09EA45097003AF
:10397C00023B07E50A2402F50A5002050B8A828BEA
:10398C0083A3A3A3E0A2E5502F8521828522831275
:10399C0034D91208668A0C8B0DEA450D604F7912EA
:1039AC00AC08AD091234D3850C82850D83121884B2
:1039BC00E9F50C6003023B0A850A82850B83E0F56E
:1039CC0008A3E0F509AA08FB12085AEA4B70197A09
:1039DC00FF7BFF12085AEA4B7003023AFD8A828B76
:1039EC0083E508F0A3E509F07508008008750C0E56
:1039FC00023B0A05089002EBE0F8E508C398400387
:103A0C00023AFD85080E750F007403780E12180328
:103A1C008A828B83A3A3E0250EF8A3E0350F123E18
:103A2C00D170D08E828F83123B2512311B8E828FE8
:103A3C0083A3A3123B25123119EE2404F508E43FAD
:103A4C00F509850882F583E088828983A3A3A3A363
:103A5C00F0A3E4F0EE2405F50EE43FF50F850E829D
:103A6C00F583123B25A3A3A3A31231197512077575
:103A7C0013007812121A99EEFCEFFD7404121874EC
:103A8C0012107C740212182CE4F5127812121A9986
:103A9C00850882850983E0FC7D0079171234D312E6
:103AAC0007DC740212182C740712186212311B7482
:103ABC0007121862E0FA4B603D8508828509831273
:103ACC003B1C121A99850E82850F8312446D1210BD
:103ADC007C740212182C740212187C1234D3120447
:103AEC0064E9602674071218621234D91213CA8062
:103AFC0019750C098008750C118003750C011246A0
:103B0C0003851082851183123B30A90C740980281F
:103B1C00E0F5087509007808221234DD8882898363
:103B2C0022123B36E8F0A3E9F022E0F8A3E0F98595
:103B3C000E82850F8322740412182C7F0C021958E4
:103B4C0074EC121886123C40751000EE2402F50C31
:103B5C00E43FF50D850C82F5831234D912085A8A8C
:103B6C00088B09EA45097003023C24850A82850BFF
:103B7C0083E064016003023C19AC08AD09AA0AABEE
:103B8C000B12084EE9606E850882850983122EA6F9
:103B9C00EE2406F50AE43FF50B8E828F83A3A31265
:103BAC001AB08E828F83A3A3A3A3121AB0850A82A4
:103BBC00850B83121AB079188E828F83123C5212A5
:103BCC0034D9120878740612182CE9F87416687037
:103BDC000B850A82850B83E4F0A38014E860128EB7
:103BEC00828F831234D9850E82850F83EAF0A3EB82
:103BFC00F088108018780E121A99AC08AD09EEFAFC
:103C0C00EFFB120854740212182CE9F510AA08AB39
:103C1C0009120860E510700E850C82850D83123434
:103C2C00D912046A8009741665107003751000A906
:103C3C0010023B47EAFEEBFF8C0E8D0FEE2405F5D0
:103C4C000AE43FF50B221246FC850C82850D83227B
:103C5C0074EA1218867508007509007E007F0075DD
:103C6C000A00EC2402F510E43DF5118035EC6508F2
:103C7C007003ED65096003023D1188828983A3A35B
:103C8C00E06A7003A3E06B707C88828983A3A3A392
:103C9C00A3124607EE28FEEF39FFEA28FAEB39FBB0
:103CAC00050A123DE1503A850A0C750D0074037833
:103CBC000C121803851082851183123DD4123ED14B
:103CCC00601FE508450970A58C088D0988828983D9
:103CDC00122EA488828983A3A3E02EFAA3E03F804E
:103CEC00BEE50AC394025003023DCF750800750966
:103CFC0000EE4F6010EEFAEFFB1213C48A0E8B0F1E
:103D0C00EA450F70057900023DD1750B00023DA408
:103D1C00850B0C750D007403780C1218038510823A
:103D2C00851183E0250CF50CA3E0350DF50DE50CA4
:103D3C002406F514E4350DF515851482F583123E31
:103D4C00D66042E50C2404F512E4350DF51385120A
:103D5C0082F583121AB0E50E2508FAE50F3509FB3A
:103D6C0012107C740212182C851282851383E025A4
:103D7C0008F508A3E03509F5098514828515831229
:103D8C0034D91213CAE50B600D7C087D007900AAAA
:103D9C000CAB0D121094050BE50BC3950A500302E6
:103DAC003D1C85108285118312460788828983A366
:103DBC00A3A3A3A3A3E50EF0A3E50F122A37EEF0FD
:103DCC00A3EFF07901023936123DD822E0250CF828
:103DDC00A3E0350D229002EBE0F8E50AC3982274BB
:103DEC00F01218868A0E8B0F8C0A8D0B750D0075D0
:103DFC000C0080507916EE2406F508E43FF5098E88
:103E0C00828F83A3A3121AB08E828F83A3A3A3A342
:103E1C00121AB0850882850983121AB0850E828524
:103E2C000F83A3A31234D9120878740612182CE944
:103E3C00F50D7416650D706C850882850983E4F0A8
:103E4C00A3F0050C9002EBE0F8E50CC3985066AAC1
:103E5C000C8A0875090074037808121803850A8205
:103E6C00850B83A3A3123F20E8FEE9FF8E828F838C
:103E7C00123ED66040EA2401F508E43400F50990BE
:103E8C0002EBE065087002E509601488828983A35F
:103E9C00A3A3A3A3A3A3A31235086003023E007936
:103EAC0018023E02E9609B1246037410121862124B
:103EBC003EC8123B30A90D7F08021958E0FAA3E066
:103ECC00F5838A8222F9888289831246FCEC4D2282
:103EDC0074F61218867C0080010C900348E0F8EC14
:103EEC00C398501E8C0875090074027808121803C8
:103EFC00123F15E06A7003A3E06B70DDE8FAE9FB92
:103F0C0080047A007B00023FB89002E9123F2088BF
:103F1C0082898322E02508F8A3E03509F92274F29E
:103F2C001218868A088B09750A0080278E828F8367
:103F3C00A3A3A3A3122A2E60031213CA7C087D002C
:103F4C007900EEFAEFFB1210948E828F83E4F0A3CB
:103F5C00F0050A123DE15027850A0C750D0074031B
:103F6C00780C121803850882850983A3A3E0250C1D
:103F7C00FEA3E0350DFF8E828F8312350870AD8560
:103F8C00088285098374FFF0A3F00246F074F612E0
:103F9C00188612080C8A828B83E582458370067A18
:103FAC00007B008007A3A3A3A31234D97F020219BC
:103FBC005874F412188689088C828D83E064027020
:103FCC003C1245A6FEA3E0F9EEF874026870037487
:103FDC0029697029750A02750B00780A121A9974EE
:103FEC0010121862121AB07410121862121AB0A9B8
:103FFC00081212AA740612182CE9F980027901022F
:10400C002A6B74E812188674FB121816E985218243
:10401C00852283F08A168B17ECFEEDFF7510008E4F
:10402C00828F83A3A3A3E0A2E4502D741D12186207
:10403C001234D91208668A828B83E5824583700319
:10404C00024445790AEEFCEFFDAA16AB1712188450
:10405C00E9F5106003024448741F121862E0F50879
:10406C00A3E0F5097421121862E0F50AA3E0F50B40
:10407C007423121862E0F50EA3E0F50F8E828F8385
:10408C00E0640260030243E6A312460785088285BA
:10409C000983A3858212858313EE2406F50CE43F75
:1040AC00F50D88828983124485F514E439F5157869
:1040BC0014121B23010000280128E84007000228E5
:1040CC00AD4103281B410029DC4201290743022989
:1040DC00A8420329DC4204298043E643E50E450F40
:1040EC0060030243E1850C82850D83124607E8FAD2
:1040FC00E9FB8A828B83E0850A82850B83124490CC
:10410C00121A998A828B83A3E0FCA3E002436AE52E
:10411C000E450F60030243E1850A82850B8374010F
:10412C00F012447A850882850983F07C007D008E2C
:10413C00828F83A3A3A3A3E02401FAA3E03400FBA2
:10414C00120710EA4B60408A828B83E02402F885C8
:10415C000A82850B83E028F0EA2404F8E43BF98812
:10416C00828983E085128285138312449E124490C7
:10417C00121A998A828B83A312446DE5082403FAE0
:10418C00E43509FB02436F850A82850B83E0240426
:10419C00F07C047D007900AA12AB13121094024437
:1041AC0048E50E450F60030243E112447AFEA3E09A
:1041BC00FF850A82850B837404F0EE8508828509DD
:1041CC0083F0EF851282851383F0740312187CEE52
:1041DC00FAEFFB1207108A0C8B0DEA450D700302E7
:1041EC00428B8A828B83A3A3122EA4740112186CA7
:1041FC00880E890F780E121A997405121862121A09
:10420C00B07CFF7DFF120716740412182C8B0FEA7A
:10421C00450F7033850C82850D83124471121A99E7
:10422C00850C82850D83A3121AB07C027D007ADC8A
:10423C007B83120506740412182CE9700A7401129F
:10424C00186274FFF0A3F08E828F83E064027039E1
:10425C00750C02750D00780C121A998E828F83A33F
:10426C0012446DE5082404FAE43509FB12107C7441
:10427C000212182C850A82850B83E02402800974B3
:10428C0001121862EEF0A3EFF074011218621244DE
:10429C005F74011218621244560243DBE50E450F9F
:1042AC0060030243E1850C82850D831246F5AA1644
:1042BC00AB171212B0850A82850B837402F0850845
:1042CC0082850983EAF0851282851383EB0243DE33
:1042DC00E50E450F60030243E112447AF8A3E0F9BE
:1042EC00850A82850B837402F0E885088285098330
:1042FC00F0E98512828513830243DE850C82850DDD
:10430C00831234D9121076EAFAF8C3950EE4950F9D
:10431C00405CE8650E450F70047A0080218521828F
:10432C00852283E0FCE50E2CFCE4350FFDC3EC98F4
:10433C00ED94005003E08005E50ECAC39AFAEA85B5
:10434C000A82850B83F08A0A750B00780A121A9977
:10435C00850C82850D83E0250EFCA3E0350FFDAAAC
:10436C0008AB0912107C740212182C024448751008
:10437C0007024448E50E450F705B850C82850D8362
:10438C00124607850A82850B837407F0888289831D
:10439C0012445712444FE0851282851383F0E824AF
:1043AC0002FAE439FB8A828B8312445F8A828B8304
:1043BC00124456A3A3122A36124464F0E82405F8DA
:1043CC0050010988828983124464A312449EA3A3DA
:1043DC00A3A3F0806775100B8062741D1218621213
:1043EC0034D912080C8A828B83E5824583604A1289
:1043FC004607880C890DE8450D603E74251218623D
:10440C00E0F5107810121A9D780E121A99780A128B
:10441C001A997808121A997407121862E0F9EEFCCE
:10442C00EFFDAA16AB17850C82850D8312188474C8
:10443C000712182CE9F510800375100EA9107405DD
:10444C0002379CF088828983A322A3E085088285A9
:10445C000983221244A5F0221244A5A3A3229002A0
:10446C00EF1246FC22E0F50E750F00780E22850C3B
:10447C0082850D8312393FE022E0FAA3E0F8E4C80C
:10448C00F9EA2822F08A828B83E0F50A750B007812
:10449C000A2212444F1244A522E085088285098322
:1044AC00A3A32274EE12188674FE1218168A088BB7
:1044BC0009ECFEEDFF890AAC21AD22EEFAEFFB12FE
:1044CC0007108A0C8B0DEA450D7003024597852168
:1044DC00828522831234D912080C8A828B83E5825E
:1044EC0045837003024592A3A3124607880E890FD9
:1044FC00E8450F70030245927414121862E0F5102F
:10450C00A3E0F511E50AF50B780B121A9D7419123C
:10451C001862121AB07810121A99741B121862E0F1
:10452C00F9AC0CAD0DAA08AB09850E82850F831270
:10453C001884740512182CE9F50B705274FE650A78
:10454C00604C850C82850D83E0640270411245A697
:10455C00FAA3E0F9EAF87402687003742969702E02
:10456C00851082851183124485F50CE439F50D789C
:10457C000C121A99EEFCEFFDAA08AB091208907404
:10458C000212182C8008750B0E8003750B01A90BF9
:10459C00740212182C7F0A021958A312460B888237
:1045AC008983E02274F612188674FE121816740CA5
:1045BC00121862124607E8852182852283F0740165
:1045CC00121862E9F0E4F508F5097808121A9975E1
:1045DC0008027808121A99740412186C8808890950
:1045EC007808121A9979FE120878740612182C742D
:1045FC000212182C023FB88E828F8312460B22E0D7
:10460C00F8A3E0F92274F7121886EAFEEBFF89088A
:10461C0090030612446D1212B0EA5402600BA90802
:10462C00EEFAEFFB120704800279017F01021958A0
:10463C0074F212188674FE121816EAFEEBFF890A41
:10464C007401650A60147402650A60030246EB7912
:10465C0001120AA0E960030246EBEEFAEFFB120826
:10466C005AEA4B6003120860A821A922880889091C
:10467C007808121A997508027509007808121A99A7
:10468C007508E27509837808121A997CFF7DFF7A08
:10469C00017B0012070A740612182C8038850882D8
:1046AC00850983A3A3A3A3A3A31246F5EEFAEFFBFC
:1046BC001212A4E4F50CF50D780C121A997402126E
:1046CC001862121AB07CFF7DFFAA08AB09120716FC
:1046DC00740412182C8A088B09E508450970BE74FD
:1046EC000212182C7F0602195812393F1246FC226E
:1046FC00E0FCA3E0FD2274F41218868A088B09EC06
:10470C00FEEDFF9017EFE0F4604B7A097B0012107E
:10471C00A0EA4B60408A828B8374B1F0A3E4124709
:10472C0064F08A828B83A3A3E508F0A3E509124702
:10473C0064A3EEF0A3EFF0740C1218621246078A11
:10474C00828B83A3A3A3A3A3A3A3123B309017EF45
:10475C00E0F91210AC022A6BF08A828B83A3A3A31C
:10476C00A32274F012188674FA1218168908ECFE3B
:10477C00EDFF7509008A0A8B0B780A121ADD00040A
:10478C00109649B147CF47E94701481F4837485A67
:10479C004872488648B0482D493E4955497049965B
:1047AC00499649C6487401650860030249918E8296
:1047BC008F83E0F8C394034003024991E8901922D7
:1047CC0002496D7402650860030249918E828F83E1
:1047DC001258F0901923E8F0A3E902496D740165B1
:1047EC000860030249911249BE4003024991E890C6
:1047FC00138402496D7401650860030249918E822D
:10480C008F83E0F8C394054003024991E890138527
:10481C0002496D7401650860030249911249BE405A
:10482C0003024991E890138602496D741065086083
:10483C0003024991750A10750B00780A121A997ABD
:10484C00877B1312107C740212182C0249B7740166
:10485C00650860030249911249BE4003024991E880
:10486C0090139702496D7401650860030249918E9B
:10487C00828F83E090192602496D740465086003E9
:10488C000249918E828F83780C1216CE9083A47875
:10489C000C1215015003024991901399780C1216C1
:1048AC00DD0249B7E9600302499112069EE97005E1
:1048BC00121262805690142C806374076508600392
:1048CC00024991750A06750B00780A121A998E82A4
:1048DC008F83A3AC82AD837402121874121082748D
:1048EC000212182C7C007D00AA21AB228E828F83B1
:1048FC00E0F912120EE9F50AC3940A40030249B416
:10490C0012069EE9700CA90A121268795012144E04
:10491C00806E742D250AF582E43414F583740180BD
:10492C004074016508705E1249BE5059E8901398A6
:10493C00802F74016508704D8E828F83E0F8C394CC
:10494C000A5042E890192580187401650870368E5B
:10495C00828F83E0F874F928C3940A5028E89019E0
:10496C0027F0804774016508701B90142BE0F88EBB
:10497C00828F83E090142BF0E87030E06401702B90
:10498C0012125680267509188021C3EA9427EB94DD
:10499C0000501574026508700F8E828F8312547448
:1049AC0012051EE9F5098003750902A909740602AE
:1049BC004DF58E828F83E0F8C394022274F01218A6
:1049CC008674B11218168C0E8D0F90833C742012C5
:1049DC00187C7406121729742012187C12120EE916
:1049EC00F50B745F121862E0F50CE9C3940A4003EE
:1049FC00024B4675F006E9A4F509744112187C7A4D
:104A0C000E74202509F9121448E97009744D121816
:104A1C0062E0FE80027E00901922E064027005754F
:104A2C00080180037508007408650C7004742280FA
:104A3C000274212509FF7C1B7D0079007426121855
:104A4C0074121094EEA2E0E433F50A742612187C6A
:104A5C007A1BEFF9121448E970257440121862E0C1
:104A6C0024F9C3940A50187808121A9D7427121846
:104A7C007CA90AAA0EAB0F1205C0740112182C7C6B
:104A8C00147D007900740C121874121094740C12AA
:104A9C00187C7A1074242509F9121448E970307CBA
:104AAC001079FF740C1218741210F4E97021741C34
:104ABC00121862AC82AD837A0474252509F912149C
:104ACC0048740C12187CA90AAA0EAB0F1205A8ACDC
:104ADC0021AD227A0C7470250BF9121448E9704937
:104AEC00AA21AB2212123E7F00EF75F003A4F8A9A5
:104AFC00F0852182852283E58228F8E5831252799C
:104B0C0012546E601D88828983A3A3E0F508750991
:104B1C00007808121A99AA0EAB0F12087E740212B2
:104B2C00182C0FEFC3940440C0EEA2E1500C90136C
:104B3C0083E0F9AA0EAB0F1208847404650C70277D
:104B4C00901922E06402701F7A00901397E06001C4
:104B5C000A901384E06004780480027800E84AF933
:104B6C00AA0EAB0F1206747900744F024DF574F552
:104B7C0012188612069EE9705190142CE064017094
:104B8C001512126290142CE4F07C0AFDF97A2D7B3C
:104B9C0014121094802C750A00850A08742D2508AF
:104BAC00FEE43414FF8E828F83E06401700BA90A3B
:104BBC001212688E828F83E4F0050AE50AC3940A08
:104BCC0040D7795012144E1212567F0302195874A2
:104BDC00F112188674F01218168A0C8B0D8C088D35
:104BEC00097E0AE9600C14600914603A14607502BD
:104BFC004CC1121250E9FEC3940A4003024CC1E5A9
:104C0C000845097003024CC1750A06750B00780A39
:104C1C00121A99AC0CAD0DAA08AB0912107C7402D7
:104C2C0012182C024CC17F00750A06750B00780A0D
:104C3C00121A99AC0CAD0DEF75F00EA4F8A9F07426
:104C4C00A528FA741339FB12108E740212182CE971
:104C5C0070090FEFC3940A505C80CDEFFEC3940A29
:104C6C00505380427F00AC21AD227A1075F006EFD4
:104C7C00A42423F9121448E9701C7C1079FFAA2192
:104C8C00AB221210F4E9700EAC0CAD0DAA21AB22C4
:104C9C00120584E960090FEFC3940A501880C7EF1E
:104CAC00FEC3940A500FE50845096009AA08AB0930
:104CBC00EEF912124AEEF9741012182C7F07021931
:104CCC005874F4121886E9FF7E1574FF6A70037429
:104CDC00FF6B7028750800EFFC7A027B00A90812A4
:104CEC00122CE960027E000508E508C3940A40E72F
:104CFC00EF604E7A7A7B12120AC48045120A948AAB
:104D0C00088B09EA450960387C007D00EA2405FA25
:104D1C00E43509FB850882850983A3A3A3A3E0F9E5
:104D2C0012120EE9C3940A500BEFFC7A027B0012AC
:104D3C00122C7E00EF600AAA08AB0912127A8001CD
:104D4C001EEEF9025B0B74F21218868C088D097E2C
:104D5C0015740E121862E0F50AA3E0F50B74FF6AE5
:104D6C00700374FF6B701D7F00AC0AAD0BAA08AB0F
:104D7C0009EFF9121232E960027E000FEFC3940AB8
:104D8C00503B80E5120A948A828B83E582458360CE
:104D9C002B7C007D00E5822405FAE43583FBA3A37C
:104DAC00A3A3E0F912120EE9C3940A5010AC0AAD99
:104DBC000BAA08AB091212327E0080011EEEF97F9D
:104DCC0006021958C082C08390139DEAF0A3EBF041
:104DDC00901383E0FC7D007A267B0012051E901355
:104DEC0083E0F91207E802595312182C7F080219B4
:104DFC005874F012188674EC121816EAFEEBFFEEDB
:104E0C002405F50EE43FF50FEE2409F50AE43FF511
:104E1C000BEE2403F508E43FF5098E828F83A3A3E0
:104E2C00E024FA70030250CF24FD7003024FEB1400
:104E3C007003024EC814601024FD7003024FC2149C
:104E4C0070030250220250D5125CF36047E0F583E8
:104E5C008882E0F50EA3E0F50FE50E450F603512E4
:104E6C00557EE0F50C780C121A9DEE240BF582E4BD
:104E7C003FF583E0F9850A82850B831254740A0A84
:104E8C000AAB09850E82850F8312188474011218DF
:104E9C002C0250D5850A82850B83121AB090139977
:104EAC001216EC1205BA740212182CE97003025097
:104EBC00D57901850A82850B83025099750A008E7B
:104ECC00828F83A385820C85830DE06003024F885B
:104EDC00850E82850F83E0A2E04003024F88901478
:104EEC0037125CF66003024F887C0E7D007900AAB5
:104EFC0021AB2212109412557E12591EEA4B6010EF
:104F0C00750A06750B00780A121A99EA2410801B90
:104F1C00125918120A94EA4B70030250D5750A06FE
:104F2C00750B00780A121A99EA2405FCE43BFD740F
:104F3C000212187412107C740212182C850E8285C1
:104F4C000F83E0A2E25004D2F08002C2F0A2F0E49F
:104F5C0033F8740C121862E048F0EEFCEFFDAA2155
:104F6C00AB22121244E970117A027B00901383E099
:104F7C00F91210D079000250D7750A15125CF37033
:104F8C00030250D51258E8E0FEA3E0FFEE4F700389
:104F9C000250D5850C82850D83E0FC79011250DC22
:104FAC00121884E50A70030250D5FC7903125918C3
:104FBC001258CC0250CA125CF370030250D512582E
:104FCC00E1890BE8450B70030250D58E828F83A3C9
:104FDC00E0FC79021259188882850B830250CA7C36
:104FEC00007D00EE2404FAE43FFB850882850983EA
:104FFC00E0F912120EE9F8C3940A40030250D5EE00
:10500C00240AFCE43FFD7A0475F006E8A42425F993
:10501C001214420250D5125918901398E060079060
:10502C001925E0F9806A901922E0700479058060F6
:10503C00120A948A0C8B0DA80CA90DE84970030276
:10504C0050D5E82404F50CE439F50D8E828F83A33A
:10505C00A3A3A3A3A3A3E0A2E0503A850C82850DE1
:10506C0083E0FE6030850A82850B83A3E0540270D6
:10507C0024740E12187CE82405FAE439FBEEF912BC
:10508C00120EE97010790385088285098312591E66
:10509C001205B48034AC0EAD0F850C82850D83E007
:1050AC00F9125918121286125CF3601D1258E1E8BD
:1050BC00FEE9FFEE4F60127C0079001250DC1218F2
:1050CC0084800612591812120879017414024DF5D5
:1050DC00850882850983E0FAA3E0FB8E828F832208
:1050EC0074F412188674F2121816EAFE8C0975F014
:1050FC0006E91258BF121448E9704B7C0679FFAAD6
:10510C0021AB221210F4E9703D740C121862125883
:10511C00F0E8F50BE5096005EE420B8004EEF45265
:10512C000B850B82AA82E86A7001E96015740C1277
:10513C001862EAF0A3E4F0AC21AD227A0EA90812B1
:10514C001442790180027900025B0674F21218860F
:10515C0074E612181689098A0C8B0DECFEEDFF749F
:10516C000C12187C7A0E75F006E9A42420F912149E
:10517C0048E9600302523C7C0679FF740C121874E7
:10518C001210F4E9600302523C74702509F508AC66
:10519C0021AD227A0CF9121448E96003025238AAA4
:1051AC0021AB2212123EE50C450D701D7C0C7900D2
:1051BC00AA21AB221210F4E970727C0C7D007900EC
:1051CC00AA21AB221210948051AC21AD22AA0CABB7
:1051DC000D1212388A0A8B0BA80AA90BE849702207
:1051EC00EE4F604CAC21AD227A007B00121238EAF3
:1051FC00F8EBF9EA4B603988828983E50CF0A3E57A
:10520C000DF01252B5FAEE6A7001EF601FEEF04F1E
:10521C00700888828983E4F0A3F0AA21AB221212D1
:10522C003EAC21AD227A0CA90812144279018002FD
:10523C007900741A12182C024DCB74F71218867F51
:10524C0000EF75F003A4F8A9F0EC28F8ED125279F0
:10525C00E06A7003A3E06B7006E8FAE9FB800B0FC1
:10526C00EFC3940440DB7A007B000255B539F98812
:10527C008289832274F71218867E00EE75F003A4DF
:10528C00F8A9F0EA28F8EB125279E0F4FCA3E0F468
:10529C00FD88828983ECF0A3EDF01252B5F4F00E88
:1052AC00EEC3940440D50255B5E82402F582E439E6
:1052BC00F583E02274F412188674F4121816EAFEC0
:1052CC00EBFF8C0A8D0B901437125CF6704FEE4F7F
:1052DC00700302544FEC450B700302544F121250E2
:1052EC00E9901928F0C3940A40337508007C0679BC
:1052FC00FFE50875F00EA4FAABF0749F2AFA74134C
:10530C003BFB1210F4E960030253A80508E508C33F
:10531C00940A40D975090AE509901928F0901928C2
:10532C00E0C3940A400302544F75F006E0A4F890D1
:10533C00143712591EEA4B7069EEFCEFFD7A0E74AD
:10534C002028F91214427C0C7D0079FFAA21AB2293
:10535C00121094AC21AD227A0C901928E02470F92B
:10536C0012144275080E7509007808121A99EEFC91
:10537C00EFFD901928E075F00EA4F8A9F0749F28A1
:10538C00FA741339FB12107C740212182C90143717
:10539C00E50AF0A3E50BF0790002545185080902E7
:1053AC005323125456240612546860197A1B742124
:1053BC0028F912144212545F2406F582E438F5835E
:1053CC00E4F0A380D1125456240A12546860107A67
:1053DC001B742228F912144212545F240A80DB1227
:1053EC005456240C12546860107A10742328F91245
:1053FC00144212545F240C80C112545624081254C7
:10540C006860347A10742428F912144212545F2400
:10541C0008F582E438F583E02410FCA3E03400FDA9
:10542C007A0475F006901928E0A42425F912144288
:10543C0012545F2408808390142BE06003121292A4
:10544C001212807901740C025B08901437E0F9A3F6
:10545C00E0C922901437E0F8A3E0C822F582E439C1
:10546C00F583125474EC4D22E0FCA3E0FD2274F49D
:10547C0012188674F2121816EAFEEBFFE9C3940AAE
:10548C005004EE4F700479028034AC21AD227A0EB8
:10549C0075F006E9A42420F9121448E9F508701CEB
:1054AC00750A06750B00780A121A99740212187C88
:1054BC00EEFAEFFB12107C740212182CA908025B96
:1054CC000674F4121886EAFEEBFF750800750A06DE
:1054DC00750B00780A121A99EEFCEFFDE50875F0D1
:1054EC000EA4F8A9F0749F28FA741339FB12108ECD
:1054FC00740212182CE96004A908800B0508E50851
:10550C00C3940A40C8790A025B0B74F712188675AB
:10551C000800E50875F00EA4F8A9F0749F28FE7435
:10552C001339FFEEFCEFFD7A0E75F006E508A424A6
:10553C0020F9121448E960237C067D0079FFEEFA0D
:10554C00EFFB1210947C067D0079FFEE2CFAE43F01
:10555C00FB12109412557EE4F0A3F00508E508C385
:10556C00940A40AE90142BE0600312129212128037
:10557C008037EE240CF582E43FF5832274F7121881
:10558C00867E007F007C0679FFEF75F00EA4FAABE7
:10559C00F0749F2AFA74133BFB1210F4E970010E9D
:1055AC000FEFC3940A40DEEEF97F0102195874F72D
:1055BC001218867E00EEF91212680EEEC3940A5091
:1055CC0003E960F180E374F312188674CB12181699
:1055DC00E9FF901928E06F701B7A017B0090138310
:1055EC00E0F91210D67A027B00901383E0F91210C6
:1055FC00D612129E901929E06F70127A047B0090DB
:10560C001383E0F91210D6901929740AF075F0067C
:10561C00EFA4FE74202EF508742712187C7A0EA9BC
:10562C0008121448E960030256F17C0679FF7427CE
:10563C001218741210F4E960030256F17C0E7D000E
:10564C0079FF74271218741210947C1B7D0079FF5B
:10565C00740C1218741210947C0C7D0079FFAA2122
:10566C00AB22121094742712187C7A0EA90812140B
:10567C0042E9F508740C12187C7A1B74212EF9126D
:10568C001442E9F50C740C12187C7A1B74222EF956
:10569C00121442E9F50B740C12187C7A1074232E38
:1056AC00F9121442E9F509740C12187C7A1074245E
:1056BC002EF9121442E9F50A740C12187C7A04744F
:1056CC00252EF9121442E9FEAC21AD227A0C74702D
:1056DC002FF9121442E9F8E50C450B4509450A4E21
:1056EC004842088003750800A908743512182C7FED
:1056FC000502195874F7121886E9901383F01212E8
:10570C00567A2A7B191206CE0255B574F4121886F5
:10571C0074F2121816EAFEEBFF548070030257DA8B
:10572C00901383E0F91210B88A088B09EA450970C6
:10573C00030257D27801EA2404F50AE43509F50B83
:10574C008A828B83E02450603F14600624E16067FA
:10575C00806A850A82850B83E070648A828B83A3BE
:10576C00A3A3A3A3A3A3121AB08A828B83A3A3A37C
:10577C00A3A31254748A828B83A3A312591E1212F0
:10578C001A740212182C8037850A82850B83E06408
:10579C001E700E79008A828B83A3A312591E1212DB
:1057AC0014850A82850B83E0F9E5082405FAE435B3
:1057BC0009FB1207E28008121226E9F8E86007AA32
:1057CC0008AB091210A6EEFAEF64800258B5EE543D
:1057DC00026016EE6402FE7C007D007A007B0012F3
:1057EC001244E970487A028046EEA2E0504E640101
:1057FC00FE1258F6121298E96033125CF36029120B
:10580C0058E188088909E84509601D7C0079011276
:10581C0058F68508828509831218847C0079031256
:10582C0058F61258CC12188412129E800C7A017BF6
:10583C0000901383E0F91210D0EE806B5404606C6E
:10584C00901929E0C3940A505BE0F50975F0061233
:10585C0058BF121448E970467C0679FFAA21AB2286
:10586C001210F4E97038750A06750B00780A121AD2
:10587C0099E50975F00EA4F8A9F074A528FC741329
:10588C0039FD7408121862AA82AB8312107C740260
:10589C0012182CAC21AD227A0EA9081214429019C0
:1058AC0029740AF0EE6404FAEFFB80047A007B00A2
:1058BC00025B06A42420F508AC21AD227A0EF92255
:1058CC0090139D1258D8A3A31258D822E0F8A3E045
:1058DC00F5838882221258E81258F022E0F583886A
:1058EC0082A3A322E0F8A3E0F922901437125CE320
:1058FC00E0FAA3E0FB22C082C083901383E0F98A14
:10590C00828B83A312591E120884803B85088285E2
:10591C000983E0FAA3E0FB22C082C08374FF121853
:10592C001612125CE9C394028521828522834004FD
:10593C0074028002740AF0AC21AD227A017905124E
:10594C0006BC740112182CD083D08202011F74F48F
:10595C0012188674E81218168A088B09E9FE8C0A4C
:10596C008D0B7C187D007900AA21AB221210948536
:10597C002182852283E508F0A3E509F0901385E0E8
:10598C00C0E07402121862D0E0F0901386E0C0E020
:10599C007403121862D0E0F0901927E0C0E074177D
:1059AC00121862D0E0F07415121862E054FEF8A3DD
:1059BC00E0F9901926E0A2E0E433FAE84AF874150D
:1059CC00121862125AFCA2E15004D2F08002C2F00A
:1059DC00E854FDFAA2F0E43325E0F8EA48F874152F
:1059EC00121862125AFCA2E45004D2F08002C2F0E7
:1059FC00E8FAE954FEFBA2F0E433F9EB49F974152B
:105A0C00121862125AFCA2E55004D2F08002C2F0C5
:105A1C00E954FDFBA2F0E433F5087509007409782C
:105A2C0008121803EAF8EB4509F9741512186212FA
:105A3C005AFCA2E65004D2F08002C2F0E954FBFBFF
:105A4C00A2F0E433F508750900740A7808121803FB
:105A5C00EAF8EB4509F97415121862125AFCA2E225
:105A6C005004D2F08002C2F0E854FBFAA2F0E43306
:105A7C00F50875090074027808121803EA4508F84D
:105A8C007415121862E8F0A3E9F0901386E0601D1B
:105A9C007508107808121A997C877D1374061218F1
:105AAC0062AA82AB8312107C740212182C9013978A
:105ABC00E06010EE60097415121862E04402F07890
:105ACC0001800278007414121862E048F09013847C
:105ADC00E060047804800278007414121862E048C4
:105AEC00F0AC0AAD0BAA21AB221205AE7418800CD7
:105AFC00E8F0A3E9F0901926E022740E12182C7F1E
:105B0C000402195874F612188674FA121816E9FE63
:105B1C0074036E7065120A948A088B09A808A90987
:105B2C00E8496056E82405FAE439FB121250E9FF03
