:020000040000FA
:0600000002011A0229A50D
:03002B000230C3DD
:03005300022A1B63
:03007B000230A6AA
:100083000227FBE5C754F84401F5C77901220000B4
:100093000080FB120086B90003020104E47924788E
:1000A30008B800028004F709D8FCE4792C7802B878
:1000B30000028004F709D8FCE490028178CD79131B
:1000C3008002F0A3D8FCD9FA782390014A7A01BAC6
:1000D30000028007E493A3F608DAF97A4D7B1590C2
:1000E300014B78F379038015E493A3AD82AE838A41
:1000F300828B83F0A3AA82AB838D828E83D8E9D9C6
:10010300E77582777583C0740312012C758291752C
:100113008300740012012C75D00075813F75218115
:10012300752202759F00020096C09FF59FE473D06D
:100133009F22D083D082C09FE493C0E0740193C018
:10014300E0740293F59F2201FF0000B40000280031
:100153002800283075A000A000A000A0000008001F
:1001630008E001F000100010001000100010001053
:100173000050005000500010001000D00700000095
:100183000000000F0001000500307507001000019A
:100193000081FF00000000FFFFFF590677065F069E
:1001A3009B06FF02020208025000A0000000E803C1
:1001B30002D484010000B48402D084010000A81595
:1001C30002CA84010000BF0202D084010000A91505
:1001D30002C884010000D50202D084010000AA15E0
:1001E30002C684010000D70202D084010000AB15CF
:1001F30002C484080000D80202D084010000AC15B8
:1002030002C284010000AD15FF0100FF2002D48467
:10021300010000B78402D084010000111602C084DB
:10022300000000000002CC84030000060317001F37
:100233000D1F0D1F0D1F0D1F0D1F0D1F0D1F0D1F5B
:100243000D1F0D1F0D1F0D1F0DD70FE90FD10FFF31
:10025300FFFF110944474A5F7061726B696E675F04
:100263006C6F636B051220032003020A0002010670
:100273000302F0FF020A0044474A206361722069C7
:100283006E2064657669636500000000071712003D
:100293000011120B121D12051202020202020202C7
:1002A3000202010D000000100102D484010000BA13
:1002B3008402D0840100009E1602E88401000062DB
:1002C3001302D0840100009F1602E684010000514E
:1002D3008302D084010000A01602E48401000035EB
:1002E3008302D084010000A11602E284010000F21F
:1002F3008102D084010000A21602E08401000028DC
:100303008202D084010000A31602DE8401000016DD
:100313008202D084010000A41602DC8401000004E0
:100323008202D084010000A51602DA84010000FDD8
:100333008202D084010000A61602D884010000A71F
:100343001601E8030577100A0AD7129A995940FF54
:1003530000013075030201060000000000000000E8
:10036300000000000000000000000000000000008A
:1003730000000000FFFF0600800CE8030A636172BF
:1003830020696E2076616C756500000000000A6CC0
:100393006F636B20696E2076616C756500000000E9
:1003A3000A7061726B207374616D702076616C7575
:1003B300650002D484010000BD8402D084010000E2
:1003C300811702F084030000301502CE840100007F
:1003D300821702D084010000931702F28403000005
:1003E300381502CE84010000941702D08401000066
:1003F300A51702F484030000401502CE8401000017
:10040300A61700000000000000000000000000002C
:1004130000000000000000000000000000000000D9
:1004230000000000000000000000000000000000C9
:1004330000000000000000000000120135349D039D
:10044300120135479D03120135789D03120135B220
:100453009D031201350B9E03120135529E031201B7
:10046300359A9E03120135C99E03120135F89E0386
:100473001201352F9F03120135769F031201358F29
:100483009F03120135E49F0312013512A0031201E9
:10049300354CA003120135B1F601120135B4F70151
:1004A300120135EDF70112013510F8011201352261
:1004B300F80112013560F801120135DCF80112016F
:1004C30035A4F901120135C6F9011201355DFA01AE
:1004D300120135AFFA01120135E0FA01120135EDCF
:1004E300FA0112013557FB01120135AEFB0112016E
:1004F30035B1FB01120135EAFB01120135EDFB01B8
:10050300120135F7FB011201354BFC011201358C49
:10051300FC01120135BFFC01120135FCFC01120183
:1005230035FEFD01120135A2FE011201350BFF015B
:1005330012013549FF01120135A49103120135CC93
:100543009103120135F9910312013531920312011E
:10055300358F9203120135DB920312013542930367
:10056300120135829303120135BF9303120135ED56
:100573009303120135979403120135A194031201D9
:1005830035AE9403120135E19403120135ED940362
:100593001201350595031201350F95031201355FDD
:1005A300BD031201356DBD0312013585BD03120173
:1005B300359CBD031201350BBA01120135B5BA01E1
:1005C300120135C8BB0112013544BC011201356269
:1005D300BD011201359EBD0112013539BE01120163
:1005E300351DBF01120135E9BF0112013577C10184
:1005F300120135E8C101120135A2C201120135947D
:10060300C301120135D4C30112013588C40112019B
:1006130035BAC401120135B0C601120135F2C60163
:1006230012013510C70112013576C7011201354594
:10063300C80112013509C90112013528CB01120184
:1006430035B6E202120135A0E3021201354BE40292
:100653001201359CE4021201354CE502120135BD4D
:10066300E502120135A2E602120135D6E6021201B5
:1006730035CFE7021201350CE802120135E8E80232
:1006830012013527E90212013543E902120135B59A
:10069300AD0312013539AE0312013564AE03120105
:1006A300357EAF031201359D9503120135B39503D2
:1006B300120135D19503120135E29603120135EC8F
:1006C30096031201351798031201350E990312018F
:1006D300357B9903120135A4E902120135D4EA02EC
:1006E3001201354EEB021201357EEB0212013591F8
:1006F300EB02120135DBEB021201359EED02120112
:1007030035F88401120135848501120135E886012B
:10071300120135F486011201352F87011201359E2E
:100723008701120135A78801120135B08901120131
:1007330035778A01120135D48B01120135F28B0111
:100743001201350F8C01120135DA8C0112013502C9
:100753008D01120135CC8F01120135D18F011201A8
:1007630035EA9101120135389201120135A892013F
:10077300120135E69201120135C29301120135824D
:100783009401120135CE9401120135D19401120165
:10079300351595011201355D95011201359C9501C1
:1007A300120135BE9501120135F29501120135553D
:1007B30096011201356DEF021201357BEF02120132
:1007C30035CEEF02120135EDEF0212013532F002A0
:1007D30012013576F10212013511F202120135557B
:1007E300F2021201357FF202120135EEF20212011A
:1007F3003534F302120135ABF3021201355CF40216
:10080300120135F03000120135003100120135A11B
:100813003100120135FD3100120135BA32001201E7
:1008230035D6330012013508340012013537340050
:10083300120135E435001201355B3800120135CB66
:100843003A00120135BD3B00120135B63C001201DE
:1008530035BD3E00120135B14100120135E04200C1
:10086300120135E44400120135F4450012013583C9
:100873004700120135744800120135C248001201C5
:1008830035314900120135554900120135A6490099
:10089300120135474E00120135484F00120135A9A8
:1008A3004F00120135D44F001201359A5000120146
:1008B300350080031201350A80031201354F80038E
:1008C300120135638003120135F380031201352CC5
:1008D30081031201356781031201359081031201EF
:1008E30035E48103120135F981031201351B8203BB
:1008F3001201353082031201354482031201355946
:100903008203120135938203120135BF8203120160
:1009130035F78203120135598303120135CB830363
:100923001201350E84031201353884031201356335
:1009330084031201357DB9031201351CA40212018F
:1009430035FFA4021201357AA502120135B5A502BD
:1009530012013506A70212013594A70212013526AA
:10096300AA02120135D8AA02120135E4AB02120120
:100973003557AD02120135B0AD02120135128903AC
:10098300120135558903120135D98903120135B096
:100993008C0312013544A903120135F6A903120190
:1009A30035F2AA0312013531AB031201358BAB03C8
:1009B30012013589B103120135ECB10312013589F6
:1009C300B203120135BEB203120135EEB2031201B6
:1009D3003529B30312013549B3031201356EF4020D
:1009E300120135FAF402120135B9F502120135D1BB
:1009F300F602120135EBF802120135888D0212015D
:100A030035AD8D021201357A8E021201354E8F02F9
:100A1300120135BB8F02120135FB8F02120135978C
:100A23009002120135CB9102120135A692021201F6
:100A330035059302120135919302120135FF93029A
:100A43001201358B9402120135D194021201354300
:100A53009502120135D595021201357696021201DF
:100A630035969602120135DE96021201352797025A
:100A7300120135439702120135699702120135E3DA
:100A83009702120135F19702120135809802120183
:100A930035E99802120135527B00120135D77B00EC
:100AA300120135197C00120135FD7C001201356AF3
:100AB3007D00120135AE7D00120135F27D00120179
:100AC300351F7E00120135477E001201357F7E00FF
:100AD300120135BD7E00120135E47E001201355E40
:100AE3007F00120135A87F00120135ADA801120164
:100AF300354CAA0112013584AC01120135D8AC0181
:100B030012013503AD01120135DFAD011201350FBD
:100B1300AE011201353EAE0112013551AE01120193
:100B23003592AE01120135BFAE011201350DAF0191
:100B330012013549AF011201358EAF01120135DBC8
:100B4300AF0112013555B00112013596B201120100
:100B53003580B401120135BCB4011201354BB60125
:100B630012013590B60112013503B7011201355850
:100B7300B70112013562B7011201352EB801120116
:100B830035B8B801120135D7B901120135E8B901F9
:100B930012013559AE02120135D2AE021201358C63
:100BA300B40212013597B50212013540B7021201A2
:100BB30035CEB7021201351967001201359A670065
:100BC300120135C767001201351068001201351193
:100BD30069001201355569001201358B6900120154
:100BE30035076B00120135896B00120135A46B00C8
:100BF300120135156C00120135D26C0012013595C6
:100C03006D00120135236E00120135DA6E001201F8
:100C130035ED6E00120135866F001201351D70002F
:100C2300120135447000120135AD7000120135F721
:100C33007000120135457100120135EC710012018B
:100C4300358A72001201351773001201358873005B
:100C5300120135CF73001201352774001201355983
:100C630074001201351A75001201351D7600120148
:100C730035667600120135837600120135A27600BF
:100C8300120135D577001201358C7800120135B188
:100C93007800120135C67800120135367900120149
:100CA300357779001201359B7A001201351C7B00E0
:100CB300120135F8B70212013543B8021201354F5C
:100CC300B80212013523B9021201353AB9021201F1
:100CD3003577B902120135A8B902120135E0B9021C
:100CE30012013536BA021201354CBA0212013588A7
:100CF300BA021201359BBA02120135C2BA021201BD
:100D030035F6BA021201351CBC0212013566BD026A
:100D130012013562BE0212013578BF02120135FAA3
:100D2300FF02120135C2D901120135F1D9011201B5
:100D33003543DD011201359ADE0112013559DF0118
:100D4300120135C0E201120135ACE301120135FE97
:100D5300E30112013518E4011201354AE4011201DD
:100D63003555E4011201355EE40112013510E50148
:100D7300120135E0E50112013527E6011201358D37
:100D8300E601120135FFE6011201352D970112012B
:100D9300356D9A01120135739A0112013532A101A1
:100DA30012013557A5011201358599031201351B2F
:100DB3009A03120135319A031201358A9A031201FB
:100DC30035CE9A03120135089B03120135A09B030C
:100DD3001201350F9C03120135189C0312013524AF
:100DE3009C031201353E9C03120135689C031201DA
:100DF300357D9C03120135DF9C03120135069D03EB
:100E0300120135628D031201356F8D03120135898D
:100E13008D03120135BC8D03120135FA8D031201C6
:100E2300355F8E03120135748E031201357F8E03F5
:100E33001201358C8E03120135A38E03120135B1D5
:100E43008E03120135BC8E03120135C88E031201C5
:100E530035D78E03120135E28E03120135058F0358
:100E6300120135A98F03120135B98F03120135D34E
:100E73008F03120135F08F031201350B900312011A
:100E8300353090031201353B900312013550900326
:100E9300120135649003120135C59003120135CB5D
:100EA3009003120135D19003120135D7900312013B
:100EB30035EF9003120135229103120135058002AB
:100EC3001201359C8002120135348102120135244E
:100ED30082021201355B82021201356E8202120117
:100EE30035DC82021201357784021201359E8402B9
:100EF30012013540850212013575850212013586CE
:100F03008502120135FF8502120135208602120186
:100F1300353886021201359087021201359989020C
:100F2300120135E98B02120135EC8C021201353BBB
:100F33008D0212013535CB0112013532CC0112017C
:100F4300351DCD0112013527CD0112013549CD01E2
:100F530012013555CD01120135A7CE01120135D647
:100F6300CE0112013506D00112013548D00112011C
:100F73003574D1011201354AD2011201359CD201D7
:100F8300120135FBD20112013532D3011201356D45
:100F9300D30112013508D70112013521D7011201FE
:100FA30035A3D701120135B1D70112013506D80196
:100FB30012013514D80112013581D801120135F31C
:100FC300D80112013539D9011201350C99021201E8
:100FD300352E9902120135189B02120135BD9E026E
:100FE30012013500A002120135DAA00212013557B1
:100FF300B3031201357CB303120135EDB3031201C0
:10100300356DD20212013576D2021201357FD2023A
:10101300120135B0D302120135CFD50212013505C5
:10102300D6021201353FD60212013575D6021201DE
:1010330035AFD602120135E3D6021201350FD702BE
:1010430012013558D70212013592D702120135DA4F
:10105300D70212013530D80212013565D8021201C8
:1010630035C0D802120135FAD8021201354BD90224
:1010730012013581D902120135BBD902120135E9BA
:10108300D9021201350CDA021201352CBE0312010A
:101093003558BE03120135B3BE03120135BDBE037D
:1010A300120135CDBE031201359ADA02120135A4BD
:1010B300DA02120135E2DA021201352BDB021201E8
:1010C3003565DB02120135BFDB02120135E0DB02BD
:1010D30012013582DE021201358BDE02120135DC8C
:1010E300DE0212013505DF021201351ADF02120199
:1010F300358BDF021201351FE00212013562E00277
:1011030012013592E00212013516E1021201355641
:10111300E1021201358EE102120135A0E102120152
:1011230035BFE102120135C8E1021201358CE2023A
:1011330012013595BB03120135B6AB03120135EC31
:10114300AB0312013522AC031201357BAD0312014F
:1011530035D7BE03120135EDBE03120135F7BE03C9
:101163001201354DBF031201358B8403120135A4DF
:101173008403120135488503120135888503120162
:1011830035A18503120135D5850312013522860366
:1011930012013556860312013598860312013598DC
:1011A300880312013505890312013518C0031201A2
:1011B300350DB5031201353DB50312013566B5038F
:1011C30012013501B60312013519B6031201353187
:1011D300B6031201356DB603120135E87F00120123
:1011E30035EB7F00120135F27F00120135F47F00E9
:1011F30012013595C102120135B2C302120135E95C
:10120300C402120135BFC60212013525C7021201FD
:10121300355DC702120135B8C7021201353CC90258
:10122300120135C9C902120135B4A003120135DB1D
:10123300A00312013507A103120135CFC003120128
:101243003506510012013560530012013512550065
:10125300120135735500120135655600120135EA46
:1012630056001201356857001201358D57001201DF
:1012730035F55700120135E45A001201354F5B0072
:101283001201353E5C00120135785C00120135B85D
:101293005C00120135725E00120135C55E00120159
:1012A300350E5F00120135805F00120135B25F0019
:1012B300120135CA5F00120135F860001201350FC3
:1012C3006100120135FA62001201351C630012013C
:1012D3003552630012013508650012013588650037
:1012E300120135C76500120135F46600120135ADF0
:1012F300AF031201350AB003120135CDB003120159
:1013030035ECB00312013542B1031201357BBF0343
:101313001201358BBF0312013519C1031201355870
:10132300C10312013528B8031201355BB80312015A
:101333003565B80312013562B90312013565C2037D
:101343001201358FBC031201359FBC03120135B462
:10135300BC0312013559BD0312013591BA031201C1
:101363003516BB031201357CBB031201356FFF0138
:1013730012013589FF011201359AFF01120135224D
:10138300F90212013536F902120135AFF9021201E1
:101393003588FA0212013546FD021201358BFD0232
:1013A300120135B8FD02120135F87F00120135CB69
:1013B300FD0212013550FF02120135B1FF02120185
:1013C30035F7FF02120135A8C103120135D1C1035C
:1013D300120135A1B603120135F6B60312013564C5
:1013E300B703120135D4B703120135C7A3031201A2
:1013F30035F1A303120135EBA40312013510A50344
:1014030012013592A5031201353DCA02120135FAC4
:10141300CA0212013535CB021201355DCB0212012E
:1014230035BFCB021201350BCC0212013564CC025D
:10143300120135F5CC02120135F7CD02120135B494
:10144300CF0212013536D0021201359BD0021201B0
:1014530035B2D002120135C2D10212013500D202D7
:101463001201354EE80112013534EC01120135C683
:10147300ED0112013516EE011201352DEE011201B7
:10148300354CEE01120135CAEE011201356AF00145
:101493001201354EF1011201353AF5011201350EF3
:1014A300F601120135BDA603120135F9A603120197
:1014B3003516A70312013564A70312013599A70353
:1014C30012013540A80312013541A9031201356207
:1014D300C103120135D3FF01120135E9C103120122
:1014E300351FC20312013547C203E066701008A31B
:1014F300E066700A08A3E066700408A3E06622C3EE
:10150300E7960809E7960809E7960809E79622C3CC
:10151300E09608A3E09608A3E09608A3E09622C00D
:1015230008C3E096F50808A3E096420808A3E096EE
:10153300420808A3E09645087001D3D00822E97950
:101543009EC608CAC608CBC608CCC6C37020799607
:10155300CACBCC7019798ECBCC70137986CC700E34
:10156300F9802ACA33CACB33CBCC33CC331930E717
:10157300F2CCCBCA3350147004EA30E00DE4CA3A1B
:10158300CACB3BCBCC3CCC500209C3E913C6CC1825
:101593002313C6CB18C6CA18C6F9221215DE20F0CB
:1015A3001430E72B74FFFCFBFA747F8022E4FCFB0E
:1015B300FA7480801AB48008BC00F2BB00EF800F7D
:1015C30050EBF9E4C39AFAE49BFBE49CFCE499C670
:1015D300CC18C6CB18C6CA18C6F922E4C9C608CAAD
:1015E300C608CBC6D3330308CCC63392F0C3947F6B
:1015F300402E94184019C9B90704CACBCC225025F0
:10160300C309CA33CACB33CBCC33CC33D9F422F49A
:10161300600DC9CCC313CB13CBCA13CAD9F6CC22E2
:10162300E4FCFBFA2214FCFBFA22E62618461846D1
:10163300184622E72719471947194722181818E6A9
:101643000846087009E626087005E633F4220822E6
:10165300191919E70947097009E727097005E733DD
:10166300F4220922E6084608C3134608336002E65B
:1016730033F422E7094709C3134709336002E73309
:10168300F422121667601C121676601712162D705C
:10169300071216367001D322C0D01216367006D048
:1016A300D0B322C32233D0D0501430E0F6C3E79630
:1016B3000809E7960809E7960809E796B32220E0A8
:1016C300D5E6970809E6970809E6970809E697B368
:1016D3002200121667604F1216766012E754806676
:1016E300F612163F7011121636703B090909F4F60B
:1016F30018F618F618F622121653701512162D083E
:10170300080860EAE6447FF618768018E4F618F6CF
:101713002212162D60161216367012E4F608F60819
:10172300F608E65480F609090918181822EAC0E0F9
:10173300EBC0E0ECC0E0EDC0E0E687F0A4FBACF06A
:1017430008E687F0A42CFCE435F0FA1809E687F0E4
:10175300A42C4B60027401CA35F0FCE433FB09E6A8
:1017630087F0D2F7A42CCB35F0FC1908E687F0A458
:101773002BCC35F0FBE433FD0819E687F0D2E7A460
:101783002C4ACB35F0CD3400FC09E687F0D2E7A430
:101793002DCC35F0FDE433FA0918E687F0D2F7A42F
:1017A3002CCD35F0CA3400FC08E687F0D2E7D2F737
:1017B300A42ACC35F07A7E20E70B0ACB33CBCD338A
:1017C300CDCC33CC33CB3350147004ED30E00ED298
:1017D300F1E4CD3DCDCC3CCC3B5005DA05C2F1EB79
:1017E300547FC63308E63392F0FBE73309E733C38C
:1017F3009A502D2B70190C0D4C4D70151806E608D8
:10180300C333700D20F10AA2F013F6E418800B40E5
:1018130024E4F630F002768018F618F618F68024E1
:10182300D33B14501074FFA2F013F6187680E4181B
:10183300F618F6800FA2F013F618E63303F618EC49
:10184300F618EDF6D0E0FDD0E0FCD0E0FBD0E0FAF6
:1018530022121667601D1216767005191919801A5F
:1018630012163F701F121653C37003E6673319191C
:101873001940071818182208080874FFF618F618F4
:10188300F618F6221216536017121636702192F0CC
:1018930012162D7019501720F014080808090909A9
:1018A300E7F61819E7F61819E7F61819E7F62212FA
:1018B300162D60E6E869701F0808E62480F608E440
:1018C30036F618547FB47F0CE654806007F6E418AC
:1018D300F618F622181822E9C6CC08C6CD08C6CEDB
:1018E30008C6CFC0E0E8C0E0EAC0E0EBC0E009E929
:1018F300F809E7FA09E7FBE6F918E6F8C3EC98ED0F
:1019030099EE9AEBC2E7F5F0EFC2E795F0500E605F
:101913000CEBCFFBEACEFAE9CDF9E8CCF8EAA2E783
:10192300D2E7FAEB33FB13F5F0EEA2E7D2E7FEEFD3
:1019330033FFC5F013A2E730E601B313C5F0C3C00C
:10194300E0C0F07F00C39BFB605E9418600F401DF6
:1019530014601AD0E023F9D0E0F8021A358AF0E9CE
:10196300486003D2F0E4AFF0FAF9F8803BEB30E4DF
:101973000D89F0EA6003D2F0E4AFF0F9CAF8EB3076
:10198300E30D88F0EF6002D2F0AFF0E4CAC9F8EBE0
:1019930054076014FBC3EA13FAE913F9E813F8EFE9
:1019A300135002D2E0FFDBEDD0E0C0E030E739C3F3
:1019B300E49FFFF5F0EC98FC42F0ED99FD42F0EE68
:1019C3009AFE42F0D0E0F9D0E0F8E5F0607AE9233E
:1019D300F9EE20E742D8028067C3EF33FFEC33FC14
:1019E300ED33FDEE33FE80EAEC28FCED39FDEE3AF3
:1019F300FED0E023F9D0E0F84002801BC3EE13FED3
:101A0300ED13FDEC13FCEF135002D2E0FF08B80016
:101A1300067F7F74FF802EEF3350178CF020F00287
:101A230060100CBC000C0DBD00080EBE000408E8DD
:101A330060DFE933E813FFEE2313FE4F4D4C8008BC
:101A4300E95480FFE4FEFDFCEE33EF33F47004FC55
:101A5300FD7E80D0E0FBD0E0FAD0E0F8D0E0CFC646
:101A630018CEC618CDC618CCC6F922121667700454
:101A730018181822121676700D74FFF61819F61836
:101A830019F61819F622E7548066F612162D700F10
:101A930012163670F014F608F608F608F680D1121E
:101AA3001636700CF608F608768008E6447F80EC5C
:101AB300121656700C12164260BFE65480F6E4808C
:101AC300BB121642700519191980A5E869700C76C6
:101AD3003F18768018F618F6E8F922E6CDC0E0182C
:101AE300ECC0E0E633CD33CDD313F6E719FCE719A9
:101AF3001933CC33C3947F400ECD9D502408E65454
:101B030080F6E418F6800FF4043D14501408E644FC
:101B13007FF6187680E418F618F6D0E0FCD0E0FDE6
:101B230022CCD313CCFD18E4C6CBC0E018E4C6CA5C
:101B3300C0E00808ED08C633E613F618E433C675AB
:101B4300F003C3CA97CA09CB97CB199C40047D08FD
:101B5300802EBD0003021C1716B6FF0506060816E5
:101B630018C3CA33CACB33CB33CA27CA09CB37CB43
:101B7300193CC37D08803E187D0820E75CC633C648
:101B8300CA33CACB33CB33DDF1D5F0EB30E77BCAB5
:101B930097CA09CB974ACB199C406F4B7025E62017
:101BA300E0218066187D08C3CA97CA09CB97CB1971
:101BB3009CD3C633C6CA33CACB33CB3350C9DDE754
:101BC300D5F0E1D3E4C636C608C636C608C636C65F
:101BD30008C636C61818188031C3CA97CA09CB97E6
:101BE300CB199CB34097C633C6CA33CACB33CB3366
:101BF300DD34D5F02EC6A2E0C640C8CA27CA09CB39
:101C030037194A70BECB3CB480B90808E63308E6FE
:101C130033601F181818D0E0FAD0E0FBD0E0FCD0F6
:101C2300E0FD22187D08CA27CA09CB37CB193CD35C
:101C3300808013F618E4B67F11F618B6FF0EF61877
:101C4300C60470D20808768080CAF618F618F680A3
:101C5300C5080808EAC0E0EBC0E086F0E7A4FA187C
:101C63000986F0E7A42AFA180986F0E7A42AFA18E5
:101C73000986F0E7A42AFA1986F0E7A4FBE5F02A1F
:101C8300FA190886F0E7A42BFBE5F03AFA1908865F
:101C9300F0E7A42BFBE5F03AFA18180986F0E7A45D
:101CA300C5F02BFBE43AFA1908E7C5F0C6A426F6FB
:101CB300E5F03BFBE43AFA1886F0E7A4F6E5F00812
:101CC30026F6E43B08F6E43A08F6D0E0FBD0E0FA67
:101CD30022E4CFC0E0E4CEC0E0E4CDC0E0E4CCC079
:101CE300E075F020E626F608E633F608E633F60854
:101CF300E633F6181818EC33FCED33FDEE33FEEF44
:101D030033FFC3EC9709ED9709EE9709EF9719197C
:101D130019400FFFEC97FC09ED97FD09EE97FE19AB
:101D23001906D5F0BFECF709EDF709EEF709EFF760
:101D3300191919D0E0FCD0E0FDD0E0FED0E0FF227D
:101D43006016080808C6C313C618C613C618C613F8
:101D5300C618C613C6D5E0EA22700908080822602F
:101D630016181818C6C333C608C633C608C633C602
:101D730008C633C6D5E0EA22E627F60809E637F6B1
:101D83000809E637F60809E637F622E026F608A33F
:101D9300E036F608A3E036F608A3E036F622E0269E
:101DA300F008A3E036F008A3E036F008A3E036F02D
:101DB30022C3E697F60809E697F60809E697F608B8
:101DC30009E697F622C3E096F008A3E096F008A38D
:101DD300E096F008A3E096F022E056F608A3E0565A
:101DE300F608A3E056F608A3E056F622E056F008FC
:101DF300A3E056F008A3E056F008A3E056F022E073
:101E0300F608A3E0F608A3E0F608A3E0F622E6F05E
:101E130008A3E6F008A3E6F008A3E6F022E0FAA39D
:101E2300E0FBA3E0FCA3E0FD22EAF0A3EBF0A3ECCC
:101E3300F0A3EDF022E0F8A3E0F9A3E0FAA3E0FBBE
:101E430022E8F0A3E9F0A3EAF0A3EBF022CAC0E092
:101E5300E6F0A308DAFAD0E0FA22CAC0E0E0A3C5AC
:101E630082CCC582C583CDC583F0A3C582CCC58290
:101E7300C583CDC583DAE6D0E0CA22C3E498F8E48B
:101E830099F9121EBF8026C3E49AFAE49BFBE9206A
:101E9300E7E9121EBFE498F8E499F922C3E498F83D
:101EA300E499F9121EBFE498F8E499F9C3E49AFAA5
:101EB300E49BFB22EB20E7CFE920E7E0B90010BB6E
:101EC3000008E88AF084F8AAF022E4FBC8FA22EBBF
:101ED30070227B10C833C8C933C9335007C39AC3B0
:101EE300DBF280069A50012ADBEAC833F4C8C9330F
:101EF300F4C9FA2275F008E4C833C8C933C933C931
:101F03009AC99B5004C92AC93BD5F0ECFBC833F4EA
:101F1300C8E4C9FA22600D08C6A2E713C618C6139F
:101F2300C6D5E0F322600C08C6C313C618C613C691
:101F3300D5E0F422700422600D18C6C333C608C668
:101F430033C6D5E0F41822252110AF08F521400C43
:101F530015228008F52140021522D2AF2200C0D0FD
:101F6300252110AF08F521500C05228008F52150DA
:101F7300020522D2AFD0D0222521F58210AF08F579
:101F830021400C15228008F52140021522D2AF858D
:101F93002283222521F582E43522F583222521F8A7
:101FA300E43522F9222521FAE43522FB222521FCFE
:101FB300E43522FD22E4732521C582C0E0E5223405
:101FC300FFC583C0E0E521C3958224F810AF0885DF
:101FD30083228582218008858322858221D2AFCE08
:101FE300F0A3E520F0A37808E608F0A3DEFAEFF00B
:101FF300A3E58124FAF8E608F0A3E608F0A3E608CF
:10200300F0A30808E608F0A3E608F0A315811581FC
:10201300D0E0FED0E0F8158115811581E8C0E0EE2F
:10202300C0E0222521C582C0E0E52234FFC583C07C
:10203300E0E521C3958224F910AF088583228582C8
:10204300218008858322858221D2AFCEF0A3E520AB
:10205300F0A37808E608F0A3DEFAEFF0A3E5812405
:10206300FBF8E608F0A3E608F0A30808E608F0A3E7
:10207300E608F0A315811581D0E0FED0E0F81581C4
:102083001581E8C0E0EEC0E022852283852182E04D
:10209300A3FEE0A3F5207808E0A3F608DFFAE0A3A7
:1020A300FFE0A3C0E0E0A3C0E0E0A3C0E0E0A3C082
:1020B300E0E0A3C0E010AF08858221858322800879
:1020C300858221858322D2AFD083D08202013285DB
:1020D3002283852182E0A3FEE0A3F5207808E0A314
:1020E300F608DFFAE0A3FFE0A3C0E0E0A3C0E0E06E
:1020F300A3C0E0E0A3C0E010AF088582218583225E
:102103008008858221858322D2AFD083D08222C0EA
:10211300D02521C582C0E0E52234FFC583C0E0E5B8
:1021230021C3958224F310AF088583228582218001
:1021330008858322858221D2AFC8F0A3E9F0A3EA00
:10214300F0A3EBF0A37908E709F0A3D8FAECF0A326
:10215300EDF0A3EEF0A3EFF0A3D0E0F0A3D0E0F016
:10216300A3D0E0F0A3E520F0A3E5F0F0A3228522BD
:1021730083852182E0C0E0A3E0F9A3E0FAA3E0FBBA
:10218300A37808E0F608A3DFFAE0FCA3E0FDA3E0F0
:10219300FEA3E0FFA3E0C0E0A3E0C0E0A3E0F5D02E
:1021A300A3E0F520A3E0A3F5F010AF088583228513
:1021B30082218008858322858221D2AFD082D08379
:1021C300D0E0F8D0E0327404800674028002740117
:1021D300C0E0F404121F7BD0E0121E50227404806E
:1021E3000474028000CCC0E0EDC0E0E521C39CCCC8
:1021F300AD2250011D10AF068C218D2280068C214B
:102203008D22D2AF121E5DD0E0FDD0E0FC22D08340
:10221300D082E9C0E0E493A3C386F0C5F095F0F95A
:1022230008E493A386F0C5F095F0700BE493A3C381
:10223300994005E9048002A3E475F002A42582F520
:1022430082E5F03583F583D0E0F9E493A3C0E0E4BD
:1022530093C0E022D083D082ECC0E0EDC0E0E493F1
:10226300A3FCE493A3FDED4C600D1222A3EC24FF29
:10227300FCED34FFFD80EFE493A3FCE493A3FDEDB9
:102283004C600D1222E2EC24FFFCED34FFFD80EFE5
:10229300D0E0FDD0E0FCE493A3C0E0E493C0E022EF
:1022A300C0E0C3E49396087401939618400FE49337
:1022B30066700808740193661870007019A3A3C3AD
:1022C300E49396087401939618A3A3400DD0E0D02D
:1022D300E0D0E0022293A3A3A3A3A3A3D0E022C050
:1022E300E0C0F088F0E49366700808740193661800
:1022F3007000A8F0A3A3700BD0F0D0E0D0E0D0E042
:0A230300022293A3A3D0F0D0E02241
:1023100074F6122026EAFEEBFF8C088D09EE2434B9
:10232000F8E43FF9E8FCE9FDEE243512264AFAEE1E
:10233000243712264AF88508F0A4C885F00A8509D2
:10234000F0A4250AF9EA28F8E439F97A257B001285
:102350001EBFEA8C828D83F0FA131313541FF8EE1C
:1023600028F8E43FF9E8245DF582E439F583E0C01C
:10237000E074075AF8D0E0B800028004C313D8FC18
:10238000A2E0EE50082434F582E43F80182436128F
:10239000264AF5F0EA84A8F0EE28F8E43FF9E824AC
:1023A00038F582E439F583E0F97F030220D274F72F
:1023B000122026EAFEEBFFEE243412264AC0E0EE9D
:1023C0002435F582E43FF583D0E0F08E828F83A33D
:1023D000A3A3A3A3A3A3C082C0838E828F83A3A33E
:1023E000A3A3A31224B3D083D082E0C398F508A39B
:1023F000E099F509EE247F12264A6401705DEE240F
:10240000801224AD8E828F83A3A3A3A3A3A3A312C0
:1024100027ED8E828F83A3A3A3A3A3E0FAA3E0FBFF
:10242000C3EA9CEB9D5010C3EC98ED99402DC3EA94
:1024300098EB995026800EC3EA98EB994007C3ECBD
:1024400098ED9940167CB07D04EEFAEFFB120C5F1C
:10245000EE247FF582E43FF583E4F0AC08AD09EEAD
:10246000FAEFFB122310E9F91230927F020220D218
:10247000C082C0838521828522831224B3C3EA9C53
:10248000EB9D5010C3EC98ED99401BC3EA98EB9973
:102490005014800EC3EA98EB994007C3EC98ED996D
:1024A0004004790180027900D083D08222F582E451
:1024B0003FF583E0F8A3E0F922EAC39CFAEB9DFB29
:1024C0002274EF122026900376E064086005E06431
:1024D00007702A9061C8E060249003A4E0F4601DB6
:1024E000E0F875F00AA4C8AAF02AF974A628FE74C8
:1024F0000339FF8E828F83A3A3A3E070030225CF4D
:10250000906060E0C0E0EE2468F582E43FF583D09F
:10251000E0F0750C20750D05750800750900E5D90A
:1025200014F50AE5D95403F50E60127403650E60C4
:1025300043E50A600AEE246712264A70028075900D
:10254000051BE06401601F12264760047A048002C4
:102550007A00E50AC39AFA95E0FB120AFD8A088B15
:1025600009EA45097005120E9F806412264770041F
:102570008A0C8B0DE50A6012850C82850D83F50BA4
:10258000E5D9F0A3150BE50B70F6122647604474ED
:10259000FC250AF50A780C1221CDAC0AA90EEEFA38
:1025A000EFFB120D197402121F60E97026AA08AB26
:1025B000091213D9793D8E828F83A3A3A3A3E0FAD6
:1025C0007B0012095FEEFAEFFB120C83120D2B79E0
:1025D00000806F7403650E6051850A1075110078D4
:1025E000101221CDAC0CAD0DAA08AB09120CDD7494
:1025F00002121F60EE246812264A64807004747F01
:102600008001E0F50C780C1221D1E50EF50C780C68
:102610001221D1A90AAC08AD099003A4E0FA7B000D
:102620001209357402121F608013900376E064086B
:10263000600BAC0CAD0DEEFAEFFB120D9D120EAB64
:1026400079017F0A0220D2EE2482F582E43FF583ED
:10265000E02274F212202674FC121F4AEAFEEBFFFD
:102660008909A2AFE433F508C2AF02270EE0601B70
:10267000780C1221CDAC0BA90EEEFAEFFB120D1364
:102680007402121F607404250BF50B7401250BF501
:10269000D9850ED9E50B6018F50A850C82850D8366
:1026A000E0F5D9A385820C85830D150AE50A70EA49
:1026B00075E195EE2463F8E43FF97A007B00A2AF60
:1026C000E433F50BC2AF1227E9EC4D603288828902
:1026D00083E0FAA3E0FB8A828B831227ED8882894C
:1026E00083ECF0A3EDF08A828B83E4F0A3F0122751
:1026F000E9EC4D700A88828983A3A3E4F0A3F0E596
:102700000BA2E092AF1213D99004B7E004F0EE24CC
:10271000631224ADE8496064EE246312264A240261
:10272000F8A3E03400F988828983E5822402F50C5D
:10273000E43583F50DE0F50BA3E0F50EEE2462120F
:10274000264A640170369061D0E0F8122647600492
:102750007C0480027C007480C398FA95E0FBE50B52
:102760002CF8E43400F9E82402F8500109C3EA988F
:10277000EB99A2D265D033400302266D9004B7E0F6
:10278000604D9004B8E0F89004B7E0C398500C7422
:10279000026509703A9004B9E060348E828F83A399
:1027A000A3A3A3E08521828522831227DF7402126E
:1027B0001F96E81227DF9004B6E028F07402121F7B
:1027C000B0AA21AB2279011209899004B7E4F0E59F
:1027D00008A2E092AF7404121F607F070220D2F0BB
:1027E000A3E4F09004B7E0F82288828983E0FCA398
:1027F000E0FD22008524878525C622C0E074EB1207
:102800002112A2AFE433F508C2AF759B009061823C
:10281000E0A2E05030E591A2E0502A7591FE7401EB
:102820006524702112298E120DEB12297C1221E0F1
:10283000122E3C7404121F60E964017005790112C4
:102840000E331224C1906182E0A2E5505DE591A2B1
:10285000E550577591DF900376E064076005E0640A
:1028600008702F12298E74016524703E120DEB1230
:10287000297C1221E0122E3C7404121F60E96401CD
:1028800070057901120E337901EEFAEFFB12265230
:102890008018E0640D7013900398E004F0642870D1
:1028A00002E4F07A00E0F9120EB1906182E0A2E653
:1028B0004003022951E591A2E64003022951759196
:1028C000BF900376E064057008120DD3120DDF800F
:1028D00003120DD9752400120E3FE9900377F079A9
:1028E00000120E33120BC97A017B00900375E0F9D8
:1028F000121109907803E06442705690051FE014AD
:10290000F0704EC2AF12290800782DD0E0F618D032
:10291000E0F6E59F5407F87005750DFF8003750D0F
:102920007FC4C0E0782CE6F50A08E6550DF50B7477
:102930000B780A121F28D0E0250AF8906270E0A2F6
:10294000E740F8E8C333906272F0906270E0D2E042
:10295000F0906181E0A2E35009E5E9A2E35003753C
:10296000E9F7A3E0A2E75009E591A2E750037591CA
:102970007FE508A2E092AF7F080221718E828F83EB
:10298000E0F8A3E0C82416F582E438F5832290032A
:10299000A4E0F875F00AA4C8AAF02AF974A628FEE3
:1029A000740339FF22C0E0C0D0C082C0839061832D
:1029B000E0A2E05009E5BFA2E0500375BFFEE0A22F
:1029C000E15009E5BFA2E1500375BFFDE0A2E2506E
:1029D00009E5BFA2E2500375BFFBE0A2E35009E5A1
:1029E000BFA2E3500375BFF7E0A2E45009E5BFA220
:1029F000E4500375BFEFE0A2E55009E5BFA2E55042
:102A00000375BFDFE0A2E65009E5BFA2E6500375FB
:102A1000BFBFD083D082D0D0D0E032C0E074F212F9
:102A20002112E5A7A2E6500FE5A1A2E6500953A79F
:102A3000BF75A1BF122A6FE5A7A2E5500CE5A1A2C0
:102A4000E5500653A7DF75A1DFE5A7A2E15009E530
:102A5000A1A2E1500375A1FDE5A7A2E2500CE5A1FA
:102A6000A2E2500653A7FB75A1FB7F0102217174FE
:102A7000F7122026752401900376E0640670151283
:102A80000D4F8A828B83A3A3A3A3A3A3E0FAA3E0A1
:102A9000FB120DC1A2AFE433FED2AF90037CE06421
:102AA0000170187A207B00900375E0F912118D7A7D
:102AB000207B00900375E0F912110F906182E0D243
:102AC000E6F090051CE0602185C625801690037B0A
:102AD000E064017008E5C654F84405F5C653BEFC31
:102AE0001227F47401652460E4EEA2E092AF7F0245
:102AF0000220D2008E268F2785822B85832A85216E
:102B000082852283E0CEA3E0CF852B82852A83EBCA
:102B1000C9EAC8EDCBECCA75F010C3E833C8E93395
:102B2000C9EA33CAEB33CBC3EA9EF529EB9FF528FC
:102B3000B35004AB28AA29EC33CCED33CDD5F0DA71
:102B4000AE26AF272274E912202674FA121F4AEA31
:102B5000FEEBFF8C0A8D0B120DF7EAF8EBF9ECFA9D
:102B6000EDFB8E828F83121E44900376E024F7C320
:102B700094055006751401022CAC120D4F8A088B77
:102B800009EA45097003022CA9EEFCEFFDAA21AB6E
:102B900022120DF1850882850983A3A3780C121EE9
:102BA00002908488780C121DDC852182852283782E
:102BB00010121E029084887810121DDC780C791097
:102BC000121502501F780C7910121DB490840878E9
:102BD0000C1215224047850C14850D15850E16859F
:102BE0000F178045908408851014851115851216DD
:102BF0008513177814790C121DB47814121522500D
:102C00001C75140075150075160075170178147978
:102C100010121DB47814790C121D7B800C751401F0
:102C200075150075160075170074097814121D5C6F
:102C3000908460780C121E027814790C121CD485D2
:102C40000882850983A3A3A3A3A3A3122CCA121EDF
:102C5000BF880C890DE4F50EF50F7814790C121D60
:102C60007B7404121F96122CCA121EBFE8FA8A0C3B
:102C7000E4F50D7814790C12150250077814790CCC
:102C8000121DB4900376E06408600AE064066005F3
:102C9000E064057020908404781412152250169078
:102CA00084007814121D8E800C7514007515007543
:102CB0001600751700850A82850B837814121E1181
:102CC0007406121F607F100220D2E0F8A3E0F97AA8
:102CD000D07B032274F7122026120E0990051AE009
:102CE00064017010906245E4F0A3F053F4F343FEE6
:102CF0000C5390F3120DAFE5C654B84441F5C6E548
:102D00009E5447644170F8906185740FF0900518E7
:102D1000E0F47002A3E0604E900519E060081460D2
:102D20001B14602E8040750801750900900518E09D
:102D30007808121F37E508F45280802A750801755B
:102D40000900900518E07808121F37E508F4529042
:102D50008014750801750900900518E07808121FA5
:102D600037E508F452A079007F020220D274F712EE
:102D70002026E9FEEAFF120E0974016E700C7A80BB
:102D80007B00900375E0F91211099030E8E493F4A8
:102D90006008E493F9120BBD800953C6B8E59E5450
:102DA0004770FA120DB590051AE064017003120B1A
:102DB000E1900518E0F47002A3E0604B900519E083
:102DC000600814601A14602C803D750801750900B4
:102DD000900518E07808121F37E5084280802875B2
:102DE0000801750900900518E07808121F37E508FA
:102DF00042908013750801750900900518E0780865
:102E0000121F37E50842A0120D4F8A088B09A80847
:102E1000A909E8496014E5E170FCE82414F582E4AE
:102E200039F583E0F46003E0F5E174016F700A7A2C
:102E300001900375E0F912115D022D6874F1122002
:102E4000268A088B098C0A8D0B9084887808121DBD
:102E5000DC740F121F96780C121E02908488780C76
:102E6000121DDC7808790C12150290840850107835
:102E700008790C121DB478081215224014800E78BF
:102E80000C7908121DB4780C1215225004790180B7
:102E90000279007F080220D274ED1220268A088B66
:102EA000098C0A8D0B9084887808121DDC7413122B
:102EB0001F96780C121E02908488780C121DDC7804
:102EC0000C790812150240117808790C121DB4AA69
:102ED00008AB09AC0AAD0B802275100075110075A6
:102EE00012007513017810790C121DB4781079084E
:102EF000121D7BAA10AB11AC12AD137F0C0220D2B5
:102F00009084887808121E028A828B837808121DAA
:102F1000EF7F040220D274F51220268C828D8378F4
:102F200008121E028A828B837808121DC8122F6E27
:102F3000C3E09CF0A3E09D122F6040229083EC78C8
:102F400008121E028A828B837808121DA18A828B46
:102F500083A3A3A3A3E02420F0A3E0344EF080A039
:102F6000F088828983C3E09420A3E0944E22EA246F
:102F700004F8E43BF98C828D83A3A3A3A3E0FCA314
:102F8000E0FD888289832274F5122026E9FE9004F0
:102F9000D2E0FAA3E0FBEE29F8E433F974BE28F599
:102FA00082748239F583E02AF508A3E03BF50978BD
:102FB000081221CD90848C121E20122AF474021261
:102FC0001F608A088B098C0A8D0B74107808121DFB
:102FD00043AA08AB097F040220D274F11220268A8A
:102FE0000C8B0D8C0E8D0F7411121F961221E47430
:102FF00011121F96E02401F508A3E03400F509E45E
:10300000F50AF50B780C7908121C549083FC7808AB
:10301000121E02780C7908121C54AA0CAB0DAC0ECF
:10302000AD0F122AF47402121F608B09EA45096081
:10303000047A0180027A00EC2AFCE43DFD7413124C
:103040001F96E0F8A3E0F9E8FEE9FFECF8EDF97A65
:10305000717B02121EBF88088909E4F50AF50B8E00
:10306000828F837808121E11ECF8EDF97A717B02D9
:10307000121EBF8A088B0974057808121F378E82CA
:103080008F83A3A3A3A3E508F0A3E509F07F0802BB
:1030900020D2C082C083E9906000F0D083D0822229
:1030A000C2AF02000022C0E074F2122112E5A8FEB5
:1030B000D2AF121379C2EBEEA2E7A2E792AF7F0183
:1030C000022171C0E0C0D0E8C0E0E9C0E0E5A8D2CC
:1030D000AFC2C7752300A2E7A2E792AFD0E0F9D054
:0730E000E0F8D0D0D0E0328F
:1030E800FFFFFFFFFFFFFFFFC082C083E9901610BC
:1030F800F0D083D08202013274F6121FBAE990022E
:10310800E8F0900348E0F5087509007402780812A1
:103118001F37AA08AB091211459002E9123AB39079
:1031280002E9123EA0606F900348E075F003A4FA2C
:10313800ABF0121145900306123AB3900306123E03
:10314800A0700B9002E9123E7112114B8048900357
:1031580006124E057AFF7BFF1212EF7A0080198A59
:103168000875090074027808121F371248AD74FFF9
:103178001232B3E4F0A3F00A900348E0F8EAC398E7
:1031880040DD790512081B9002E8E0F912070D7A74
:10319800A57B08120A9D02495074F4121FBA8A08C6
:1031A8008B09EB548060479002E8E0F91210F18A2D
:1031B8000A8B0BAE0AAF0BEE4F602A8E828F83E02C
:1031C80064B0701A12082DE960148E828F83A3A34D
:1031D800A3A3E0F9EE2405FAE43FFB1207FDEEFA9B
:1031E800EFFB1210DFAA08E5096480FB80047A006F
:1031F8007B0002340374F2121FBA74FB121F4AEAEE
:10320800FEEBFFEE4F60457403121F96EEF0A3EF3E
:10321800F0852182852283ECF0A3EDF07402121F61
:1032280096E9F0AA21AB22120707E9F50870757430
:1032380013121F96E0F50AA3E0F50BE50A450B60AB
:10324800638E828F8312383CEE4F700575080280BA
:10325800537A067B001211458A0C8B0DA80CA90D18
:10326800E8497005750813803B88828983E4123227
:10327800B3EEF0A3EF1233CFE50AF0A3E50BF0901D
:1032880002EC1233C89002EC6017E0FCA3E0800364
:10329800EAFCEBFD8C828D831233C870F38C828D2F
:1032A800831244C8A9087405025085F0A3124DE79B
:1032B800A32274F2121FBA8908890C750D007403D1
:1032C800780C121F37850C0A850D0B9002EBF090D5
:1032D80002E91242D31233C6602E12114B790080D4
:1032E8001D890C750D007402780C121F379002E9C5
:1032F80012476C8882F583A3A3E4F0A3F009900336
:1033080048E0F8E9C39840D9900348E0FA850AF004
:10331800A4CAA8F0850BF0A428FB1211458A0C8BCF
:103328000DAE0CAF0DEE4F70030233BC900348E0B6
:10333800FC850AF0A4CCA8F0850BF0A428FD790040
:103348001210C77C0080318D0C750D007403780C49
:10335800121F378A828B831233C188828983E4F0F3
:103368001233CEA3A3F0A3F00DEDC3950840D8EE19
:10337800250AFEEF350BFF0C900348E0F8ECC398E4
:1033880050288C0C750D007402780C121F379002AF
:10339800E91233C1E82402500109FAE9FB8A828B59
:1033A80083EEF0A3EFF07D0080BFE5089002EBF01C
:1033B800790080027913025088124770F922A3A37A
:1033C800123E75EA4B22A3124DE7A3A3A32274F47D
:1033D800121FBA7900EAA2E0501F7508CE7509835A
:1033E80078081221CD79107C047D007A127B1612A0
:1033F80008157402121F60E9F980007F0402208C0E
:10340800C082C0839002EC123EA0601C888289832F
:10341800A3A3E06A7003A3E06B8882898370E8A3A2
:10342800A3A3A3123E7180047A007B000230F974D2
:10343800F2121FBA74FD121F4AEAFEEBFF852182C1
:10344800852283E4F0A3F07402121F967401F0122F
:103458003E9D70141209D71211459002EF123AB32B
:10346800123E9D70030235C9123BB3EE2404F50ADF
:10347800E43FF50B850A82F583E024FE603C24FCDA
:10348800607424FE607E24FE700302351924FE70E9
:103498000302352624FE700302353324FE7003022E
:1034A800354024FE700302354D24FC700302356E4E
:1034B80024FE70030235860235C21209D79002F144
:1034C800EAF0A3EB1235D5120449E960030235C2CC
:1034D8009002F11221E48E828F83A3A3A3A3A312E7
:1034E8004E05850882850983123E711207E574022C
:1034F800121F600235C2AC21AD22EEFAEFFB1208B2
:1035080033023591AC21AD22EEFAEFFB1208398077
:1035180078AC21AD22EEFAEFFB12083F806BAC21AC
:10352800AD22EEFAEFFB120845805EAC21AD22EE2B
:10353800FAEFFB12084B8051AC21AD22EEFAEFFBFB
:1035480012085180447402121FA0880C890D780C4F
:103558001221CD7402121FB0EEFAEFFB1208577455
:1035680002121F608023AC21AD22EEFAEFFB120895
:103578005DE9F870167402121F96E4F0803CAC21E5
:10358800AD22EEFAEFFB120863E9F8E8602C8E82B0
:103598008F83A3E064146022850A82850B83E09000
:1035A80002F1F0852182852283123E719002F21287
:1035B8003AB3E8A31235D5120443EEFAEFFB12072B
:1035C800BB7402121F96E0F97403025085F07CF177
:1035D8007D02850882850983123E752274E8121FD0
:1035E800BA74FA121F4A7404121F96ECF0A3EDF095
:1035F8008A128B13EA2405F50EE43513F50FEA2435
:1036080002F510E43513F511851082F583123E7129
:103618001205338A0A8B0B7508007C037D0079003C
:103628007AF17B021210C7E50E2402F516E4350F75
:10363800F5177402121FA0880C890D780C1221CD81
:10364800850E82850F83A3A3A3A3E0F50C750D0057
:10365800780C1221CDE50E2405F50CE4350FF50D97
:10366800780C1221CD8516828517831241781207AE
:10367800257406121F608A0C8B0DE50C450D70032E
:103688000238058020852182852283E0888289830B
:10369800F00508852182852283A3E0C0E012384620
:1036A800D0E0F00508E50A24FBFAE50B34FFFBC37C
:1036B800E5089AE49B40030238057E007F008512E6
:1036C80082851383A3A3A3A3E0F50978091221D166
:1036D800E4F514F51578141221CD7514EE7515025C
:1036E80078141221CD9002EF1221E47409121F966A
:1036F8001221E4E50A24F9F9AC0CAD0D8510828598
:103708001183123E7112088D7409121F60E960035B
:103718000237A6850E82850F83A3A3A3A3A3A3A321
:10372800E0F89002EEE0687075E0F5148E157814F4
:103738001221CD124E02850E82850F83A3A3A3A367
:10374800A3A3A3A3123E711210C17402121F60E951
:10375800604C9002F2123EA0703BE4F5147814120B
:1037680021CD7CFF7DFF7907851082851183123E6C
:10377800711207F77402121F60123EA67017850EA9
:1037880082850F83124F9F7404121F96124860128D
:1037980041A9023839850C82850D8312383CA8214D
:1037A800A9228814891578141221CD7404121F9641
:1037B8001221E4851682851783123AA912073174FB
:1037C80004121F608A0C8B0DEE4F700302368212B2
:1037D8003846EE12385112415FEF123851F8A3E023
:1037E8003400F9E50C450D600302368D8882898323
:1037F80074FFF0050812384674FFF00508E5086004
:103808001A1313543F123AB9120455E96009900289
:10381800F2123E711213D979008016850E82850F37
:1038280083124F9F7404121F961248601244C8797D
:103838000A024132A3A3A3A3E0FEA3E0FF22A80843
:103848009002F2E02812415F22F00508089002F287
:10385800E0282274E8121FBA74FA121F4A7402127E
:103868001F96123AB37404121F96ECF0A3EDF0748D
:1038780002121F96E02405124148E0F50CA3E0F57A
:103888000D7402121F96E02402F510A3E03400F52F
:1038980011851082F583123E711205337508007583
:1038A8000900EA24FCFEEB34FFFF8008050CE50C58
:1038B8007002050DA808C3EE98EF94005003023A71
:1038C80065A821A922880E890F780E1221CD8514AA
:1038D80082851583A3A3A3A3124E091221CDE51453
:1038E8002405F50EE43515F50F780E1221CD851453
:1038F80082851583123AA71207257406121F608A5B
:103908000E8B0FEA450F7003023A65EA2404F51698
:10391800E4350FF517851682F583E0F50CA3E0F57D
:103928000D852182852283124E058A828B83A3A36B
:10393800A3E0F9851082851183123E71120713E9FD
:10394800F5096003023A657402121F9612416FF579
:103958000978091221D1E4F512F51378121221CD54
:103968007512EE75130278121221CD9002EF122112
:10397800E47407121F961221E4EEF9AC0EAD0F8520
:103988001082851183123E7112088D7409121F600E
:10399800E9F5096003023A65E508703FE4F50EF5BC
:1039A8000F780E1221CD7CFF7DFF79098510828565
:1039B8001183123E711207F77402121F60124195AB
:1039C800700D7404121F96123A9C7911023A99905C
:1039D80002EEE024029002F2F080149002F2E0FA83
:1039E8009002EEE0790024025001096A497072A839
:1039F800089002EEE0FAE82AFAE43400FBEE9AEFC7
:103A08009B405A851682851783E0C0E09002F31226
:103A1800384BD0E0F00508851682851783A3E0C0EF
:103A2800E0089002F312384BD0E0F005089002EE5F
:103A3800124E091221CD124E02A80812413C121052
:103A4800AF7402121F609002EEE02508F50874FFBB
:103A5800650C700474FF650D60030238B4E50860F6
:103A68001F9002F2E0F5F0E50884123AB912045BFF
:103A7800E960099002F3123E711213D9790080119E
:103A8800E509700375090A7404121F96123A9CA975
:103A9800090241321242D7E50CF0A3E50DF022A34A
:103AA800A3125094AA0CAB0D22A3A3EAF0A3EBF047
:103AB800229002F1F07CF17D02851082851183123B
:103AC8003E752274EC121FBA74FC121F4A1245D8B4
:103AD8007402121FB0123E6B12072B8A0C8B0DEA70
:103AE800450D7003023BA3123BB3A821A9228810FD
:103AF800891178101221CD7CFF7DFF790B85088212
:103B0800850983123E711207F77402121F60123C76
:103B1800A9700C850A82850B831241A6023BB08EE0
:103B2800828F83A3A3A3A3E0F51278121221D1E414
:103B3800F512F51378121221CD7512F1751302786A
:103B4800121221CD78101221CD7409121F9612215C
:103B5800E47409121F96E0F9AC0CAD0D8508828556
:103B68000983123E7112088D7409121F60E9FE70F4
:103B7800157CF17D02850882850983123E71120445
:103B880061E97009802074166E70027E009002F25E
:103B9800123E711213D9EE7004800B7E01850A82E1
:103BA800850B831244C5EEF90244DAEE2402F508C7
:103BB800E43FF5092274EC121FBA74FC121F4AEA9A
:103BC800FEEBFF8C0E8D0FEE2405F508E43FF5099A
:103BD8007402121FB0850882850983123E7112078C
:103BE8002B8A0C8B0DEA450D7003023C99EE2402DA
:103BF800F50AE43FF50BA821A9228810891178104D
:103C08001221CD7CFF7DFF790D123E6B1207F774F0
:103C180002121F60123CA9700B8508828509831265
:103C280041A6807A8E828F83A3A3A3A3E0F512789E
:103C3800121221D1850882850983A3A31221E47574
:103C480012F175130278121221CD78101221CD7459
:103C580009121F961221E47409121F96E0F9123E08
:103C68006712088D7409121F60E9FE700F7CF17DE0
:103C780002123E6B120467E97009802074166E7098
:103C8800027E009002F2123E711213D9EE70048087
:103C98000B7E018508828509831244C5EEF902442A
:103CA800DA123EB0F510A3E0F511EA45112274E8E6
:103CB800121FBA74FE121F4A8A168B178C148D15A0
:103CC800EA2405F50CE43517F50DEA2402F50EE4AF
:103CD8003517F50F850E82F583123E711205338A6A
:103CE800088B09750B007C037D0079007AF17B0253
:103CF8001210C7750A00E50814F5100424FFF5082A
:103D0800E50934FFF50980549002F1E0FA9002EEDB
:103D1800E0F8EA28F8E43400F9E50898E50999504C
:103D28000D9002F1E0F8E510C3989002EEF0E0F58E
:103D38001275130078121221CD124E029002F2E091
:103D48002AFAA3E03400FB1210AF7402121F60902D
:103D580002EEE0F89002F1E028F0050A850C828571
:103D68000D83A3A312477C4003023E4C9002F1E06E
:103D7800C39508E495094003023E4CAE0AEE2EFEB8
:103D8800E433FF123E8BAC21AD22124E1DE439FB09
:103D980012072B8A128B13AC12AD13EC4D701B75E6
:103DA8000B01123E7B1244C99002F21233C8600321
:103DB8001213D9A90B740202413485168285178320
:103DC800A3A3A3A3E0F50B780B1221D1E4F512F518
:103DD8001378121221CD7512EE7513027812122182
:103DE800CD9002EF1221E47407121F961221E4A964
:103DF80010850E82850F83123E7112088D74091288
:103E08001F60E9F50B709B9002F2123EA06003025E
:103E18003D10E4F512F51378121221CD7CFF7DFFD9
:103E2800790F850E82850F83123E711207F774028F
:103E3800121F60123EA66003023D10123E7B124123
:103E4800AA023DBD7CF17D02850E82850F83123E5C
:103E58007112046DE96003023DB07900023DBDAC0A
:103E68000CAD0D850A82850B83123E7522E0FAA3FC
:103E7800E0FB22123E8BE0FAA3E0F9EA8514828582
:103E8800158322850C82850D83E02EF8A3E03FF987
:103E980088828983229002EF124FA3E84922123EBA
:103EA800B0F8A3E0F9E849229002F2EAF0A3EBF0B7
:103EB8009002F2E02274E8121FBA74FA121F4A74D0
:103EC80004121F96123AB38C168D177404121F969B
:103ED800E02405F50EA3E03400F50F7404121F96D4
:103EE800E02402124148123E711205338A0A8B0BF4
:103EF8007F007E00A821A922880889097808122154
:103F0800CD850E82850F83A3A3A3A3E0F5088E09B0
:103F180078081221CDE50E2405F508E4350FF509DA
:103F280078081221CD850E82850F83A3A3124178CC
:103F38001207257406121F608A0C8B0D8029124106
:103F480069F00F124169F00F9002EE1244B4122189
:103F5800CD124E02EFF812413C1210AF7402121F3C
:103F6800609002EEE02FFFE50C450D7003023FF86C
:103F78008521828522831245EAA3A3A3E0F985144B
:103F880082851583123E71120713E9FEE50C24049D
:103F9800F510E4350DF511EE70507404121F9612E9
:103FA800416FF50878081221D1E4F508F509780879
:103FB8001221CD7508EE75090278081221CD9002FC
:103FC800EF1221E47407121F961221E4E50A24FA7D
:103FD800F9AC0CAD0D851482851583123E7112085B
:103FE8008D7409121F60E9FE60391241851244C8B8
:103FF800EF700302411F9002F2E0F5F0EF849002A7
:10400800F1F07CF17D02851482851583123E7112D0
:104018000473E960099002F3123E711213D9790012
:104028000241328F08EF703BE4F512F51378121253
:1040380021CD7CFF7DFF7911851482851583123E81
:10404800711207F77402121F60124195700912412C
:10405800851241A90241329002EEE024049002F256
:10406800F080359002EEE0F89002F2E0FAE82404DD
:10407800FCE43400FDEC6A4D6003023FFEE50A24CF
:10408800FAFAE50B34FFFBE50828F8E43400F9EA0E
:1040980098EB995003023FFE851082851183E0C09A
:1040A800E09002F3E02FF8A3E034008882F583D093
:1040B800E0F00F851082851183A3E0C0E01241561D
:1040C800D0E0F00F7402121FA0880889097808123E
:1040D80021CD7402121F961221E4850E82850F836A
:1040E800123AA71207317404121F608A0C8B0DEA6A
:1040F800450D7003023F467402121F96E0C0E0129D
:104108004156D0E0F00F7402121F96A3E0C0E012EF
:104118004156D0E0023F4EEE70027E0A850E82853F
:104128000F8312418B1244C8EEF97406121F607F88
:104138001002208C9002F3E028FAA3E03400FB225E
:10414800F514A3E03400F515851482F58322124195
:104158005A229002F3E02FFAA3E034008A82F58312
:104168002212415A74FF221242D7A3A3A3A3E0222A
:10417800125094850E82850F83123E752285108217
:10418800851183124FA3851682851783229002F327
:10419800EAF0A3EBF09002F3124FA3E8492212448D
:1041A800CEE8F0A3E9F079112274EA121FBA74FE7E
:1041B800121F4A8A088B098C128D13EA2405FEE423
:1041C8003509FFAC21AD228E828F83123E71120712
:1041D8002B8A0C8B0DEE2406F50EE43FF50FEA450D
:1041E8000D70030242A9E5082402F50AE43509F531
:1041F8000B8A828B83A3A3A3E0A2E55028852182A2
:10420800852283123E711208818A108B11EA4511AA
:1042180060207912123E67851082851183121FB8BB
:10422800E9F50C707F850E82850F83E0600979526D
:104238008011750C0E806D850882850983A3A3A360
:10424800A3E0F9E4F508F50978081221CD8E828FEC
:1042580083A3A3E0F50878081221CD8E828F83A36B
:10426800A3A31221E48E828F83124E05123E6B1295
:1042780008937406121F60E9F50C7011850E82858B
:104288000F83E0702D123E6B120479802574166539
:104298000C7011750C007418121F961242D3E4802A
:1042A80010750C01124F9B851282851383E8F0A3C9
:1042B800E9F0850E82850F83E0600479008002A909
:1042C8000C7402121F607F0E02208C1242D722E06B
:1042D800F8A3E0F58388822274EC121FBA74F712EF
:1042E8001F4A8A0A8B0B8C108D11EA2405FEE435CF
:1042F8000BFF750C00AC21AD228E828F83123E71AC
:1043080012072B8A088B09EA4509700302449FE5C6
:104318000A2402F50A5002050B8A828B83A3A3A301
:10432800E0A2E5502F852182852283123E71120872
:10433800818A0C8B0DEA450D604F7912AC08AD09E6
:10434800123E6B850C82850D83121FB8E9F50C604F
:10435800030244A2850A82850B83E0F508A3E0F5F1
:1043680009AA08FB120875EA4B70197AFF7BFF123D
:104378000875EA4B70030244958A828B83E508F03E
:10438800A3E509F07508008008750C0E0244A20523
:10439800089002EBE0F8E508C398400302449585CD
:1043A800080E750F007403780E121F378A828B83EC
:1043B800A3A3E0250EF8A3E0350F12486970D08E4C
:1043C800828F831244BD123AB38E828F83A3A312C5
:1043D80044BD123AB1EE2404F508E43FF509850816
:1043E80082F583E088828983A3A3A3A3F0A3E4F0E2
:1043F800EE2405F50EE43FF50F850E82F583124491
:10440800BDA3A3A3A3123AB17512077513007812BE
:104418001221CDEEFCEFFD7404121FA81210AF7428
:1044280002121F60E4F51278121221CD85088285E8
:104438000983E0FC7D007917123E6B1207F77402BE
:10444800121F607407121F96123AB37407121F9650
:10445800E0FA4B603D8508828509831244B4122135
:10446800CD850E82850F83124E051210AF7402128D
:104478001F607402121FB0123E6B12047FE960269F
:104488007407121F96123E711213D98019750C0900
:104498008008750C118003750C01124F9B851082E2
:1044A8008511831244C8A90C74098028E0F50875A1
:1044B8000900780822123E7588828983221244CE28
:1044C800E8F0A3E9F022E0F8A3E0F9850E82850F71
:1044D80083227404121F607F0C02208C74EC121F5C
:1044E800BA1245D8751000EE2402F50CE43FF50D1C
:1044F800850C82F583123E711208758A088B09EAC9
:10450800450970030245BC850A82850B83E0640176
:1045180060030245B1AC08AD09AA0AAB0B120869E1
:10452800E9606E85088285098312383EEE2406F517
:104538000AE43FF50B8E828F83A3A31221E48E82B7
:104548008F83A3A3A3A31221E4850A82850B831278
:1045580021E479188E828F831245EA123E7112087F
:10456800937406121F60E9F8741668700B850A8246
:10457800850B83E4F0A38014E860128E828F831287
:104588003E71850E82850F83EAF0A3EBF0881080D8
:1045980018780E1221CDAC08AD09EEFAEFFB12081F
:1045A8006F7402121F60E9F510AA08AB0912087BA4
:1045B800E510700E850C82850D83123E71120485FC
:1045C8008009741665107003751000A9100244DF85
:1045D800EAFEEBFF8C0E8D0FEE2405F50AE43FF59D
:1045E8000B22125094850C82850D832274EA121FC7
:1045F800BA7508007509007E007F00750A00EC2472
:1046080002F510E43DF5118035EC65087003ED65A1
:104618000960030246A988828983A3A3E06A70031C
:10462800A3E06B707C88828983A3A3A3A3124F9F06
:10463800EE28FEEF39FFEA28FAEB39FB050A1247A4
:1046480079503A850A0C750D007403780C121F37DF
:1046580085108285118312476C124869601FE5082E
:10466800450970A58C088D098882898312383C8891
:10467800828983A3A3E02EFAA3E03F80BEE50AC3A4
:1046880094025003024767750800750900EE4F60F1
:1046980010EEFAEFFB1213D38A0E8B0FEA450F7058
:1046A800057900024769750B0002473C850B0C75BC
:1046B8000D007403780C121F37851082851183E072
:1046C800250CF50CA3E0350DF50DE50C2406F514C5
:1046D800E4350DF515851482F58312486E6042E5C0
:1046E8000C2404F512E4350DF513851282F58312B6
:1046F80021E4E50E2508FAE50F3509FB1210AF7421
:1047080002121F60851282851383E02508F508A32D
:10471800E03509F509851482851583123E71121357
:10472800D9E50B600D7C087D007900AA0CAB0D1251
:1047380010C7050BE50BC3950A50030246B4851054
:1047480082851183124F9F88828983A3A3A3A3A381
:10475800A3E50EF0A3E50F1233CFEEF0A3EFF07947
:10476800010242CE12477022E0250CF8A3E0350D75
:10477800229002EBE0F8E50AC3982274F0121FBAFF
:104788008A0E8B0F8C0A8D0B750D00750C008050EE
:104798007916EE2406F508E43FF5098E828F83A387
:1047A800A31221E48E828F83A3A3A3A31221E485FD
:1047B80008828509831221E4850E82850F83A3A3CD
:1047C800123E711208937406121F60E9F50D7416F3
:1047D800650D706C850882850983E4F0A3F0050CEB
:1047E8009002EBE0F8E50CC3985066AA0C8A0875AD
:1047F800090074037808121F37850A82850B83A382
:10480800A31248B8E8FEE9FF8E828F8312486E60D3
:1048180040EA2401F508E43400F5099002EBE0656C
:10482800087002E509601488828983A3A3A3A3A35F
:10483800A3A3A3123EA06003024798791802479ADF
:10484800E9609B124F9B7410121F96124860124425
:10485800C8A90D7F0802208CE0FAA3E0F5838A82BC
:1048680022F988828983125094EC4D2274F6121F23
:10487800BA7C0080010C900348E0F8ECC398501E05
:104888008C0875090074027808121F371248ADE0C9
:104898006A7003A3E06B70DDE8FAE9FB80047A0034
:1048A8007B000249509002E91248B8888289832225
:1048B800E02508F8A3E03509F92274F2121FBA8A34
:1048C800088B09750A0080278E828F83A3A3A3A370
:1048D8001233C660031213D97C087D007900EEFA02
:1048E800EFFB1210C78E828F83E4F0A3F0050A1243
:1048F80047795027850A0C750D007403780C121F30
:1049080037850882850983A3A3E0250CFEA3E0353B
:104918000DFF8E828F83123EA070AD8508828509B7
:104928008374FFF0A3F002508874F6121FBA1208BD
:10493800278A828B83E582458370067A007B008014
:1049480007A3A3A3A3123E717F0202208C74F41262
:104958001FBA89088C828D83E06402703C124F3E36
:10496800FEA3E0F9EEF874026870037429697029EF
:10497800750A02750B00780A1221CD7410121F9661
:104988001221E47410121F961221E4A9081212F5DC
:104998007406121F60E9F98002790102340374E891
:1049A800121FBA74FB121F4AE9852182852283F0FF
:1049B8008A168B17ECFEEDFF7510008E828F83A38D
:1049C800A3A3E0A2E4502D741D121F96123E71128B
:1049D80008818A828B83E58245837003024DDD79E5
:1049E8000AEEFCEFFDAA16AB17121FB8E9F5106026
:1049F80003024DE0741F121F96E0F508A3E0F509C5
:104A08007421121F96E0F50AA3E0F50B7423121F18
:104A180096E0F50EA3E0F50F8E828F83E0640260C6
:104A280003024D7EA3124F9F850882850983A385C3
:104A38008212858313EE2406F50CE43FF50D888277
:104A48008983124E1DF514E439F51578141222578E
:104A5800010000280128804A07000228454B032846
:104A6800B34A0029744C01299F4C0229404C032960
:104A7800744C0429184D7E4DE50E450F6003024D18
:104A880079850C82850D83124F9FE8FAE9FB8A82AB
:104A98008B83E0850A82850B83124E281221CD8AEA
:104AA800828B83A3E0FCA3E0024D02E50E450F6074
:104AB80003024D79850A82850B837401F0124E1228
:104AC800850882850983F07C007D008E828F83A310
:104AD800A3A3A3E02401FAA3E03400FB12072BEA06
:104AE8004B60408A828B83E02402F8850A82850B1A
:104AF80083E028F0EA2404F8E43BF988828983E01B
:104B0800851282851383124E36124E281221CD8AC1
:104B1800828B83A3124E05E5082403FAE43509FBCA
:104B2800024D07850A82850B83E02404F07C047D0E
:104B3800007900AA12AB131210C7024DE0E50E452A
:104B48000F6003024D79124E12FEA3E0FF850A8220
:104B5800850B837404F0EE850882850983F0EF8560
:104B68001282851383F07403121FB0EEFAEFFB1262
:104B7800072B8A0C8B0DEA450D7003024C238A82A1
:104B88008B83A3A312383C7401121FA0880E890FCF
:104B9800780E1221CD7405121F961221E47CFF7D38
:104BA800FF1207317404121F608B0FEA450F703330
:104BB800850C82850D83124E091221CD850C8285C4
:104BC8000D83A31221E47C027D007AD27B84120536
:104BD800217404121F60E9700A7401121F9674FF91
:104BE800F0A3F08E828F83E064027039750C027531
:104BF8000D00780C1221CD8E828F83A3124E05E50D
:104C0800082404FAE43509FB1210AF7402121F607D
:104C1800850A82850B83E0240280097401121F969D
:104C2800EEF0A3EFF07401121F96124DF774011203
:104C38001F96124DEE024D73E50E450F6003024DAF
:104C480079850C82850D8312508DAA16AB17121226
:104C5800FB850A82850B837402F0850882850983A7
:104C6800EAF0851282851383EB024D76E50E450F37
:104C78006003024D79124E12F8A3E0F9850A828585
:104C88000B837402F0E8850882850983F0E98512B0
:104C980082851383024D76850C82850D83123E71C1
:104CA8001210A9EAFAF8C3950EE4950F405CE8657E
:104CB8000E450F70047A008021852182852283E0C9
:104CC800FCE50E2CFCE4350FFDC3EC98ED94005088
:104CD80003E08005E50ECAC39AFAEA850A82850BC5
:104CE80083F08A0A750B00780A1221CD850C82851B
:104CF8000D83E0250EFCA3E0350FFDAA08AB0912D1
:104D080010AF7402121F60024DE0751007024DE0EB
:104D1800E50E450F705B850C82850D83124F9F85CC
:104D28000A82850B837407F088828983124DEF12FB
:104D38004DE7E0851282851383F0E82402FAE4390E
:104D4800FB8A828B83124DF78A828B83124DEEA3E6
:104D5800A31233CE124DFCF0E82405F8500109885F
:104D6800828983124DFCA3124E36A3A3A3A3F0801D
:104D78006775100B8062741D121F96123E7112081F
:104D8800278A828B83E5824583604A124F9F880C6D
:104D9800890DE8450D603E7425121F96E0F51078E0
:104DA800101221D1780E1221CD780A1221CD78085F
:104DB8001221CD7407121F96E0F9EEFCEFFDAA163A
:104DC800AB17850C82850D83121FB87407121F60FC
:104DD800E9F510800375100EA9107405024134F02E
:104DE80088828983A322A3E0850882850983221209
:104DF8004E3DF022124E3DA3A3229002EF12509492
:104E080022E0F50E750F00780E22850C82850D8341
:104E18001242D7E022E0FAA3E0F8E4C8F9EA28222F
:104E2800F08A828B83E0F50A750B00780A22124D0E
:104E3800E7124E3D22E0850882850983A3A32274E8
:104E4800EE121FBA74FE121F4A8A088B09ECFEED97
:104E5800FF890AAC21AD22EEFAEFFB12072B8A0C70
:104E68008B0DEA450D7003024F2F85218285228321
:104E7800123E711208278A828B83E582458370036C
:104E8800024F2AA3A3124F9F880E890FE8450F707F
:104E980003024F2A7414121F96E0F510A3E0F511CF
:104EA800E50AF50B780B1221D17419121F961221FD
:104EB800E478101221CD741B121F96E0F9AC0CADEA
:104EC8000DAA08AB09850E82850F83121FB87405D9
:104ED800121F60E9F50B705274FE650A604C850C70
:104EE80082850D83E064027041124F3EFAA3E0F917
:104EF800EAF87402687003742969702E8510828537
:104F08001183124E1DF50CE439F50D780C1221CDE4
:104F1800EEFCEFFDAA08AB091208AB7402121F6081
:104F28008008750B0E8003750B01A90B7402121F04
:104F3800607F0A02208CA3124FA388828983E02213
:104F480074F6121FBA74FE121F4A740C121F9612BE
:104F58004F9FE8852182852283F07401121F96E90C
:104F6800F0E4F508F50978081221CD7508027808EB
:104F78001221CD7404121FA088088909780812210B
:104F8800CD79FE1208937406121F607402121F6016
:104F98000249508E828F83124FA322E0F8A3E0F9D2
:104FA8002274F7121FBAEAFEEBFF89089003061273
:104FB8004E051212FBEA5402600BA908EEFAEFFB49
:104FC80012071F800279017F0102208C74F2121FE0
:104FD800BA74FE121F4AEAFEEBFF890A7401650AD9
:104FE80060147402650A60030250837901120ABBD7
:104FF800E96003025083EEFAEFFB120875EA4B6092
:105008000312087BA821A922880889097808122197
:10501800CD75080275090078081221CD7508CC7580
:10502800098478081221CD7CFF7DFF7A017B00126C
:1050380007257406121F608038850882850983A3B6
:10504800A3A3A3A3A312508DEEFAEFFB1212EFE471
:10505800F50CF50D780C1221CD7402121F96122151
:10506800E47CFF7DFFAA08AB091207317404121F04
:10507800608A088B09E508450970BE7402121F6032
:105088007F0602208C1242D712509422E0FCA3E043
:10509800FD2274F4121FBA8A088B09ECFEEDFF900A
:1050A8001610E0F4604B7A097B001210D9EA4B60C5
:1050B800408A828B8374B1F0A3E41250FCF08A8298
:1050C8008B83A3A3E508F0A3E5091250FCA3EEF037
:1050D800A3EFF0740C121F96124F9F8A828B83A342
:1050E800A3A3A3A3A3A31244C8901610E0F9121017
:1050F800E5023403F08A828B83A3A3A3A32274F06E
:10510800121FBA74FA121F4A8908ECFEEDFF7509DE
:10511800008A0A8B0B780A1222110004102E5349B8
:1051280051675181519951B751CF51F2510A521ECD
:10513800524852C552D652ED5208532E532E535E42
:10514800527401650860030253298E828F83E0F848
:10515800C394034003025329E89017460253057489
:1051680002650860030253298E828F831262E890D9
:105178001747E8F0A3E902530574016508600302C4
:1051880053291253564003025329E890136B0253D4
:10519800057401650860030253298E828F83E0F845
:1051A800C394054003025329E890136C0253057415
:1051B800016508600302532912535640030253291C
:1051C800E890136D025305741065086003025329B3
:1051D800750A10750B00780A1221CD7A6E7B1312AE
:1051E80010AF7402121F6002534F74016508600308
:1051F8000253291253564003025329E890137E02A2
:1052080053057401650860030253298E828F83E079
:1052180090174A0253057404650860030253298EE7
:10522800828F83780C121E0290848C780C121522BF
:105238005003025329901380780C121E1102534F09
:10524800E960030253291206B9E970051212AD800C
:105258005690141380637407650860030253297518
:105268000A06750B00780A1221CD8E828F83A3ACB3
:1052780082AD837402121FA81210B57402121F6047
:105288007C007D00AA21AB228E828F83E0F9121266
:1052980053E9F50AC3940A400302534C1206B9E9CC
:1052A800700CA90A1212B3795012145D806E74142E
:1052B800250AF582E43414F583740180407401658D
:1052C80008705E1253565059E890137F802F74016E
:1052D8006508704D8E828F83E0F8C3940A5042E8C7
:1052E80090174980187401650870368E828F83E0A4
:1052F800F874F928C3940A5028E890174BF08047AF
:1053080074016508701B901412E0F88E828F83E098
:10531800901412F0E87030E06401702B1212A18032
:10532800267509188021C3EA9427EB940050157458
:10533800026508700F8E828F83125E6C120539E940
:10534800F5098003750902A90974060257ED8E82D2
:105358008F83E0F8C394022274F0121FBA74B1125A
:105368001F4A8C0E8D0F9083D47420121FB07406C0
:10537800121E5D7420121FB0121253E9F50B745FF0
:10538800121F96E0F50CE9C3940A40030254DE7537
:10539800F006E9A4F5097441121FB07A0E742025AD
:1053A80009F9121457E97009744D121F96E0FE802E
:1053B800027E00901746E0640270057508018003BC
:1053C8007508007408650C70047422800274212525
:1053D80009FF7C1B7D0079007426121FA81210C7D4
:1053E800EEA2E0E433F50A7426121FB07A1BEFF937
:1053F800121457E970257440121F96E024F9C394DB
:105408000A501878081221D17427121FB0A90AAAC5
:105418000EAB0F1205DB7401121F607C147D00793E
:1054280000740C121FA81210C7740C121FB07A1047
:1054380074242509F9121457E970307C1079FF7427
:105448000C121FA812112DE97021741C121F96ACA2
:1054580082AD837A0474252509F9121457740C1245
:105468001FB0A90AAA0EAB0F1205C3AC21AD227A50
:105478000C7470250BF9121457E97049AA21AB2254
:105488001212897F00EF75F003A4F8A9F085218234
:10549800852283E58228F8E583125C71125E6660D6
:1054A8001D88828983A3A3E0F5087509007808128E
:1054B80021CDAA0EAB0F1208997402121F600FEFCC
:1054C800C3940440C0EEA2E1500C90136AE0F9AA1C
:1054D8000EAB0F12089F7404650C7027901746E0F6
:1054E8006402701F7A0090137EE060010A90136BCB
:1054F800E06004780480027800E84AF9AA0EAB0F4D
:1055080012068F7900744F0257ED74F5121FBA1204
:1055180006B9E97051901413E0640170151212ADC8
:10552800901413E4F07C0AFDF97A147B141210C766
:10553800802C750A00850A0874142508FEE43414C2
:10554800FF8E828F83E06401700BA90A1212B38E5A
:10555800828F83E4F0050AE50AC3940A40D779509C
:1055680012145D1212A17F0302208C74F1121FBA6B
:1055780074F0121F4A8A0C8B0D8C088D097E0AE97B
:10558800600C14600914603A1460750256591212BE
:105598009BE9FEC3940A4003025659E50845097081
:1055A80003025659750A06750B00780A1221CDAC0C
:1055B8000CAD0DAA08AB091210AF7402121F6002DD
:1055C80056597F00750A06750B00780A1221CDAC72
:1055D8000CAD0DEF75F00EA4F8A9F0748C28FA74D0
:1055E8001339FB1210C17402121F60E970090FEF22
:1055F800C3940A505C80CDEFFEC3940A5053804296
:105608007F00AC21AD227A1075F006EFA42423F9AF
:10561800121457E9701C7C1079FFAA21AB221211D1
:105628002DE9700EAC0CAD0DAA21AB2212059FE935
:1056380060090FEFC3940A501880C7EFFEC3940A9D
:10564800500FE50845096009AA08AB09EEF91212DE
:1056580095EEF97410121F607F0702208C74F41203
:105668001FBAE9FF7E1574FF6A700374FF6B702818
:10567800750800EFFC7A027B00A908121277E9602E
:10568800027E000508E508C3940A40E7EF604E7AF9
:10569800C57B12120ADF8045120AAF8A088B09EA15
:1056A800450960387C007D00EA2405FAE43509FBE9
:1056B800850882850983A3A3A3A3E0F9121253E9FD
:1056C800C3940A500BEFFC7A027B001212777E001B
:1056D800EF600AAA08AB091212C580011EEEF90292
:1056E800650374F2121FBA8C088D097E15740E12A8
:1056F8001F96E0F50AA3E0F50B74FF6A700374FFC8
:105708006B701D7F00AC0AAD0BAA08AB09EFF9124C
:10571800127DE960027E000FEFC3940A503B80E5DA
:10572800120AAF8A828B83E5824583602B7C007DD9
:1057380000E5822405FAE43583FBA3A3A3A3E0F9DB
:10574800121253E9C3940A5010AC0AAD0BAA08AB65
:105758000912127D7E0080011EEEF97F0602208C60
:10576800C082C083901384EAF0A3EBF090136AE040
:10577800FC7D007A267B0012053990136AE0F91245
:10578800080302634B74F0121FBA74FF121F4AE930
:10579800852182852283F0EAFEEBFF750800E07020
:1057A8003D8E088F0978081221CD7413121F967840
:1057B8000C121E0290848C7808121E02780C79084C
:1057C800121CD4AA08AB09AC0AAD0B1205D5740299
:1057D800121F60E9F50860097901EEFAEFFB12057E
:1057E800CFA9087401121F607F0802208C74F01280
:1057F8001FBA74EC121F4AEAFEEBFFEE2405F50E01
:10580800E43FF50FEE2409F50AE43FF50BEE240317
:10581800F508E43FF5098E828F83A3A3E024FA708C
:1058280003025AC724FD70030259E3147003025897
:10583800C014601024FD70030259BA147003025A90
:105848001A025ACD1266EB6047E0F5838882E0F5CC
:105858000EA3E0F50FE50E450F6035125F76E0F513
:105868000C780C1221D1EE240BF582E43FF583E08D
:10587800F9850A82850B83125E6C0A0A0AAB0985D0
:105888000E82850F83121FB87401121F60025ACD51
:10589800850A82850B831221E4901380121E201240
:1058A80005D57402121F60E97003025ACD7901858B
:1058B8000A82850B83025A91750A008E828F83A310
:1058C80085820C85830DE06003025980850E8285F0
:1058D8000F83E0A2E0400302598090141E1266EE86
:1058E80060030259807C0E7D007900AA21AB221248
:1058F80010C7125F76126316EA4B6010750A0675B8
:105908000B00780A1221CDEA2410801B12631012B2
:105918000AAFEA4B7003025ACD750A06750B007878
:105928000A1221CDEA2405FCE43BFD7402121FA8EB
:105938001210AF7402121F60850E82850F83E0A2D9
:10594800E25004D2F08002C2F0A2F0E433F8740C02
:10595800121F96E048F0EEFCEFFDAA21AB221212CE
:105968008FE970117A027B0090136AE0F91211092D
:105978007900025ACF750A151266EB7003025ACDE8
:105988001262E0E0FEA3E0FFEE4F7003025ACD85FD
:105998000C82850D83E0FC7901125AD4121FB8E5F8
:1059A8000A7003025ACDFC79031263101262C40212
:1059B8005AC21266EB7003025ACD1262D9890BE8FB
:1059C800450B7003025ACD8E828F83A3E0FC7902C7
:1059D8001263108882850B83025AC27C007D00EE18
:1059E8002404FAE43FFB850882850983E0F9121252
:1059F80053E9F8C3940A4003025ACDEE240AFCE4A2
:105A08003FFD7A0475F006E8A42425F91214510222
:105A18005ACD12631090137FE06007901749E0F9A0
:105A2800806A901746E0700479058060120AAF8A90
:105A38000C8B0DA80CA90DE8497003025ACDE82477
:105A480004F50CE439F50D8E828F83A3A3A3A3A3D9
:105A5800A3A3E0A2E0503A850C82850D83E0FE60A6
:105A680030850A82850B83A3E054027024740E12D9
:105A78001FB0E82405FAE439FBEEF9121253E97075
:105A88001079038508828509831263161205CF8071
:105A980034AC0EAD0F850C82850D83E0F9126310CE
:105AA8001212D11266EB601D1262D9E8FEE9FFEE10
:105AB8004F60127C007900125AD4121FB880061267
:105AC800631012124D790174140257ED850882850E
:105AD8000983E0FAA3E0FB8E828F832274F4121FFD
:105AE800BA74F2121F4AEAFE8C0975F006E91262CE
:105AF800B7121457E9704B7C0679FFAA21AB221222
:105B0800112DE9703D740C121F961262E8E8F50B2E
:105B1800E5096005EE420B8004EEF4520B850B821A
:105B2800AA82E86A7001E96015740C121F96EAF0FF
:105B3800A3E4F0AC21AD227A0EA908121451790120
