:020000040000FA
:0600000002011A02227940
:03002B0002299710
:030053000222EF97
:03007B0002297ADD
:100083000220CFE5C754F84401F5C77901220000E7
:100093000080FB120086B90003020104E47924788E
:1000A30008B800028004F709D8FCE4792C7802B878
:1000B30000028004F709D8FCE490028178D4791314
:1000C3008002F0A3D8FCD9FA782390014A7A01BAC6
:1000D30000028007E493A3F608DAF97A547B1590BB
:1000E300014B78EC79038015E493A3AD82AE838A48
:1000F300828B83F0A3AA82AB838D828E83D8E9D9C6
:10010300E775827E7583B3740312012C7582917532
:100113008300740012012C75D00075813F75218115
:10012300752202759F00020096C09FF59FE473D06D
:100133009F22D083D082C09FE493C0E0740193C018
:10014300E0740293F59F2201FF0000B40000280031
:100153002800283075A000A000A000A0000008001F
:1001630008E001F000100010001000100010001053
:100173000050005000500010001000D00700000095
:100183000000000F0001000500307507001000019A
:100193000081FF00000000FFFFFF520670065806B3
:1001A3009406FF02020208025000A0000000E803C8
:1001B30002E583010000058302D183010000AF152E
:1001C30002D783010000BF0202D183010000B015F2
:1001D30002D983010000D50202D183010000B115C9
:1001E30002DB83010000D70202D183010000B215B4
:1001F30002DD83080000D80202D183010000B31599
:1002030002DF83010000B415FF0100FF2002E58334
:10021300010000CB8302D183010000181602E183A1
:10022300000000000002D583030000060317001836
:100233000D180D180D180D180D180D180D180D1893
:100243000D180D180D180D180DD00FE20FCA0FFF62
:10025300FFFF140953696D706C65424C455065721C
:100263006970686572616C051220032003020A003D
:100273000201060302F0FF02168844474A20636125
:100283007220696E2064657669636500000000076B
:10029300041200000A120202020202020202020116
:1002A3000D000000100102E583010000C88302D1A4
:1002B30083010000A21602F7830100006A1302D132
:1002C30083010000A31602F583010000BB8202D163
:1002D30083010000A41602F3830100009F8202D170
:1002E30083010000A51602F183010000EF8102D112
:1002F30083010000A61602EF83010000018202D1F0
:1003030083010000A71602ED83010000DD8102D105
:1003130083010000A81602EB83010000CB8102D108
:1003230083010000A91602E983010000918202D132
:1003330083010000AA16020584010000AB1601E840
:10034300030577100A0ABE12FF000130750302018C
:100353000600000000000000000000000000000094
:1003630000000000000000000000000000FFFF0686
:1003730000800CE8030A63617220696E2076616C69
:10038300756500000000000A6C6F636B20696E20C6
:1003930076616C7565000000000A7061726B2073F2
:1003A30074616D702076616C75650002E5830100F0
:1003B30000CE8302D183010000811702FF83030073
:1003C30000371502D383010000821702D183010095
:1003D3000093170201840300003F1502D383010039
:1003E30000941702D183010000A5170203840300C0
:1003F30000471502D383010000A617000000000088
:1004030000000000000000000000000000000000E9
:1004130000000000000000000000000000000000D9
:1004230000000000000000000000000000000000C9
:10043300000000120135D28F03120135E58F03123C
:100443000135169003120135509003120135A9901E
:1004530003120135F090031201353891031201356F
:10046300679103120135969103120135CD91031261
:1004730001351492031201352D9203120135829234
:1004830003120135B09203120135EA9203120135CA
:10049300D4AB02120135D7AC0212013510AD0212F2
:1004A300013533AD0212013545AD0212013583AD7D
:1004B30002120135FFAD02120135C7AE021201353A
:1004C300E9AE0212013580AF02120135D2AF02123A
:1004D300013503B00212013510B0021201357AB0B2
:1004E30002120135D1B002120135D4B00212013526
:1004F3000DB10212013510B1021201351AB1021207
:1005030001356EB102120135AFB102120135E2B10C
:10051300021201351FB20212013521B30212013555
:10052300C5B3021201352EB4021201356CB40212A6
:1005330001354284031201356A840312013597841D
:1005430003120135CF84031201352D8503120135C2
:10055300798503120135E0850312013520860312E4
:1005630001355D86031201358B860312013535870C
:10057300031201353F87031201354C8703120135FE
:100583007F87031201358B8703120135A38703127B
:100593000135AD8703120135C7AF03120135D5AF5E
:1005A30003120135EDAF0312013504B00312013517
:1005B3001BB901120135C5B901120135D8BA0112AF
:1005C300013554BB0112013572BC01120135AEBCB9
:1005D3000112013549BD011201352DBE011201354C
:1005E300F9BE0112013587C001120135F8C00112AD
:1005F3000135B2C101120135A4C201120135E4C2B1
:100603000112013598C301120135CAC30112013524
:10061300C0C50112013502C60112013520C60112FF
:10062300013586C60112013555C70112013519C8B6
:100633000112013538CA01120135EFC40212013526
:10064300D9C50212013584C602120135D5C602127C
:10065300013585C702120135F6C702120135DBC821
:10066300021201350FC90212013508CA02120135FF
:1006730045CA0212013521CB0212013560CB0212A9
:1006830001357CCB0212013571A303120135F5A3A9
:100693000312013520A4031201353AA503120135D3
:1006A3003B88031201355188031201356F88031209
:1006B30001358089031201358A8903120135B58A10
:1006C30003120135AC8B03120135198C031201356A
:1006D300C7D202120135F7D30212013571D40212C7
:1006E3000135A1D402120135B4D402120135FED46E
:1006F30002120135C1D602120135088401120135F7
:10070300948401120135F885011201350486011222
:1007130001353F8601120135AE8601120135B787D7
:1007230001120135C0880112013587890112013593
:10073300E48A01120135028B011201351F8B01126C
:100743000135EA8B01120135128C01120135DC8E61
:1007530001120135E18E01120135FA9001120135C2
:10076300489101120135B89101120135F691011238
:100773000135D29201120135929301120135DE93B4
:1007830001120135E193011201352594011201355E
:100793006D9401120135AC9401120135CE9401120E
:1007A3000135029501120135659501120135F9DD17
:1007B3000212013507DE021201355ADE021201353B
:1007C30079DE02120135BEDE0212013502E00212A9
:1007D30001359DE002120135E1E0021201350BE122
:1007E300021201357AE102120135C0E1021201352C
:1007F30037E202120135E8E202120135C429001280
:100803000135D42900120135752A00120135D12A88
:10081300001201358E2B00120135AA2C001201356E
:10082300DC2C001201350B2D00120135B82E0012FD
:1008330001352F31001201359F33001201359134F8
:10084300001201358A350012013591370012013546
:10085300853A00120135B43B00120135B83D001250
:100863000135C83E00120135574000120135484199
:10087300001201359641001201350542001201357F
:100883002942001201357A42001201351B4700123A
:1008930001351C48001201357D4800120135A84876
:1008A300001201356E4900120135EDF002120135D7
:1008B300F7F0021201353CF10212013550F1021238
:1008C3000135E0F10212013519F20212013554F239
:1008D300021201357DF202120135D1F20212013505
:1008E300E6F20212013508F3021201351DF302127A
:1008F300013531F30212013546F30212013580F35B
:1009030002120135ACF302120135E4F30212013590
:1009130046F402120135B8F402120135FBF4021257
:10092300013525F50212013550F502120135C9AA28
:1009330003120135B1F50112013594F601120135A7
:100943000FF7011201354AF7011201359BF8011225
:10095300013529F901120135BBFB011201356DFC8B
:100963000112013579FD01120135ECFE0112013549
:1009730045FF01120135FFF90212013542FA021255
:100983000135C6FA021201359DFD02120135CA9ED8
:10099300031201357C9F0312013578A00312013540
:1009A300B7A00312013511A10312013545A70312A4
:1009B3000135A8A70312013545A8031201357AA80A
:1009C30003120135AAA803120135E5A80312013564
:1009D30005A903120135FAE20212013586E3021278
:1009E300013545E4021201355DE50212013577E771
:1009F30002120135C67300120135EB730012013583
:100A0300B874001201358C7500120135F9750012A6
:100A13000135397600120135D57600120135097892
:100A230000120135E47800120135437900120135D3
:100A3300CF79001201353D7A00120135C97A0012CF
:100A430001350F7B00120135817B00120135137CC8
:100A530000120135B47C00120135D47C001201353B
:100A63001C7D00120135657D00120135817D001268
:100A73000135A77D00120135217E001201352F7E3D
:100A830000120135BE7E00120135277F00120135A9
:100A930057EC02120135DCEC021201351EED021295
:100AA300013502EE021201356FEE02120135B3EE8B
:100AB30002120135F7EE0212013524EF021201355D
:100AC3004CEF0212013584EF02120135C2EF02121C
:100AD3000135E9EF0212013563F002120135ADF081
:100AE30002120135BDA7011201355CA901120135BE
:100AF30094AB01120135E8AB0112013513AC0112BD
:100B03000135EFAC011201351FAD011201354EADB8
:100B13000112013561AD01120135A2AD011201359A
:100B2300CFAD011201351DAE0112013559AE0112CF
:100B330001359EAE01120135EBAE0112013565AFF1
:100B430001120135A6B10112013590B3011201352D
:100B5300CCB3011201355BB501120135A0B5011209
:100B6300013513B60112013568B60112013572B6AB
:100B7300011201353EB701120135C8B70112013523
:100B8300E7B801120135F8B801120135989802123D
:100B93000135119902120135CB9E02120135D69F00
:100BA300021201357FA1021201350DA20212013595
:100BB3008D5F001201350E60001201353B6000129B
:100BC3000135846000120135856100120135C96168
:100BD30000120135FF61001201357B6300120135FC
:100BE300FD63001201351864001201358964001297
:100BF3000135466500120135096600120135976615
:100C0300001201354E67001201356167001201358C
:100C1300FA6700120135916800120135B8680012B5
:100C230001352169001201356B6900120135B9697B
:100C330000120135606A00120135FE6A00120135A7
:100C43008B6B00120135FC6B00120135436C0012F3
:100C530001359B6C00120135CD6C001201358E6D90
:100C630000120135916E00120135DA6E0012013562
:100C7300F76E00120135166F00120135497000122C
:100C830001350071001201352571001201353A71E9
:100C930000120135AA7100120135EB710012013502
:100CA3000F730012013590730012013537A202123F
:100CB300013582A2021201358EA20212013562A30E
:100CC3000212013579A302120135B6A302120135CE
:100CD300E7A3021201351FA40212013575A4021203
:100CE30001358BA402120135C7A402120135DAA41F
:100CF3000212013501A50212013535A50212013593
:100D03005BA602120135A5A702120135A1A80212A2
:100D13000135B7A902120135F57F00120135D2D88A
:100D23000112013501D90112013553DC01120135DC
:100D3300AADD0112013569DE01120135D0E101128C
:100D43000135BCE2011201350EE30112013528E33E
:100D5300011201355AE30112013565E30112013530
:100D63006EE30112013520E401120135F0E40112B2
:100D7300013537E5011201359DE5011201350FE615
:100D8300011201353D96011201357D99011201359C
:100D930083990112013542A00112013567A40112A2
:100DA3000135238C03120135B98C03120135CF8C25
:100DB30003120135288D031201356C8D03120135A1
:100DC300A68D031201353E8E03120135AD8E03123B
:100DD3000135B68E03120135C28E03120135DC8E46
:100DE30003120135068F031201351B8F03120135E0
:100DF3007D8F03120135A48F031201350080031286
:100E030001350D80031201352780031201355A8005
:100E130003120135988003120135FD800312013559
:100E23001281031201351D81031201352A81031238
:100E330001354181031201354F81031201355A8176
:100E430003120135668103120135758103120135E1
:100E5300808103120135A3810312013547820312F6
:100E630001355782031201357182031201358E82D7
:100E730003120135A98203120135CE820312013513
:100E8300D98203120135EE82031201350283031264
:100E930001356383031201356983031201356F83BF
:100EA300031201357583031201358D830312013556
:100EB300C083031201350580021201359C800212A2
:100EC30001353481021201352482021201355B821D
:100ED300021201356E8202120135DC8202120135E3
:100EE3007784021201359E84021201354085021275
:100EF3000135758502120135868502120135FF859C
:100F0300021201352086021201353886021201359C
:100F1300908702120135998902120135E98B021279
:100F23000135EC8C021201353B8D0212013545CAA5
:100F33000112013542CB011201352DCC01120135CD
:100F430037CC0112013559CC0112013565CC0112A0
:100F53000135B7CD01120135E6CD0112013516CFAA
:100F63000112013558CF0112013584D00112013528
:100F73005AD101120135ACD1011201350BD2011244
:100F8300013542D2011201357DD20112013518D645
:100F93000112013531D601120135B3D601120135E3
:100FA300C1D60112013516D70112013524D701121A
:100FB300013591D70112013503D80112013549D802
:100FC30001120135888D02120135AA8D02120135F5
:100FD300948F021201353993021201357C94021267
:100FE300013556950212013513A90312013538A9AB
:100FF30003120135A9A903120135C2BC021201353E
:10100300CBBC02120135D4BC0212013505BE02125B
:10101300013524C0021201355AC00212013594C0B1
:1010230002120135CAC00212013504C10212013590
:1010330038C10212013564C102120135ADC1021279
:101043000135E7C1021201352FC20212013585C2F3
:1010530002120135BAC20212013515C3021201355B
:101063004FC302120135A0C302120135D6C30212C7
:10107300013510C4021201353EC40212013561C4A8
:10108300021201354A7F00120135767F00120135C5
:10109300D17F00120135DB7F00120135EB7F001297
:1010A300013590D8021201359AD802120135D8D8E9
:1010B3000212013521D9021201355BD90212013521
:1010C300B5D902120135D6D902120135DFD9021280
:1010D300013530DA0212013559DA021201356EDABE
:1010E30002120135DFDA021201356DDB021201351E
:1010F300AADB02120135DADB021201355EDC0212D1
:1011030001359EDC02120135D6DC02120135E8DC22
:101113000212013507DD0212013510DD021201351D
:10112300CFDD02120135E1AC031201355B990312E5
:1011330001359F9903120135D59903120135BD9BE2
:1011430003120135179C03120135209C031201354C
:10115300299C0312013557B1031201356DB10312F6
:10116300013577B103120135CDB10312013578F59D
:101173000212013591F50212013535F602120135DD
:1011830075F6021201358EF602120135C2F602120D
:1011930001350FF70212013543F70212013585F7C6
:1011A3000212013585F902120135F2F902120135F5
:1011B3001FB303120135DBAD031201350BAE03126E
:1011C300013534AE031201354CAE0312013564AE62
:1011D30003120135A0AE03120135DBB4031201354E
:1011E300DEB403120135E5B403120135E7B403128B
:1011F3000135DDCB02120135E2CD02120135B2CE4B
:1012030002120135F5CF02120135CAD1021201359E
:1012130052D202120135529303120135799303120C
:101223000135A59303120135D6B303120135DA490B
:1012330000120135344C00120135E64D0012013520
:10124300474E00120135394F00120135BE4F0012CF
:1012530001353C50001201356950001201355853D5
:1012630000120135C35300120135B2540012013587
:10127300EC54001201352C5500120135E6560012CC
:101283000135395700120135825700120135F457E1
:10129300001201352658001201353E58001201355F
:1012A3006C59001201358359001201356E5B00122F
:1012B3000135905B00120135C65B001201357C5D80
:1012C30000120135FC5D001201353B5E0012013551
:1012D300685F0012013569A503120135C6A5031223
:1012E300013589A603120135A8A603120135FEA60E
:1012F30003120135FBB1031201350BB203120135A1
:1013030020B4031201355FB40312013598B20312FE
:101313000135C3B203120135CDB20312013505B352
:1013230003120135EEFF01120135D4AE031201356C
:10133300E4AE03120135FCAE03120135C1AF031253
:101343000135DDAB0312013562AC03120135C8ACC4
:101353000312013594B003120135B5B00312013500
:10136300C8B003120135DAB00312013507B1031215
:10137300013518B10312013551B10312013554B1CE
:1013830003120135AEE702120135C2E7021201353D
:101393003BE80212013514E902120135D2EB0212C5
:1013A300013517EC0212013544EC02120135F87FC6
:1013B300001201353CA103120135C7A20312013506
:1013C30028A3031201356EA3031201354FFE021247
:1013D3000135A4FE0212013512FF0212013582FF0C
:1013E300021201356596031201358F9603120135FA
:1013F300899703120135AE97031201353098031212
:10140300013592B4021201354FB5021201358AB586
:1014130002120135B2B50212013514B602120135BA
:1014230060B602120135B9B6021201354AB702128B
:1014330001354CB80212013509BA021201358BBAD3
:1014430002120135F0BA0212013507BB021201354F
:1014530017BC0212013555BC021201355EE70112B9
:10146300013544EB01120135D6EC011201352DEDA6
:10147300011201354CED01120135CAED011201359E
:101483006AEF011201354EF0011201353AF40112EF
:1014930001350EF501120135439C031201357F9C82
:1014A300031201359C9C03120135EA9C031201359A
:1014B3001F9D03120135C69D03120135C79E0312FA
:1014C300013569B403120135AFB403120135D6FFF8
:1014D30002E066701008A3E066700A08A3E0667075
:1014E3000408A3E06622C3E7960809E7960809E71C
:1014F300960809E79622C3E09608A3E09608A3E0BE
:101503009608A3E09622C008C3E096F50808A3E076
:1015130096420808A3E096420808A3E0964508709F
:1015230001D3D00822080808EAC0E0EBC0E086F047
:10153300E7A4FA180986F0E7A42AFA180986F0E75F
:10154300A42AFA180986F0E7A42AFA1986F0E7A470
:10155300FBE5F02AFA190886F0E7A42BFBE5F03A3D
:10156300FA190886F0E7A42BFBE5F03AFA181809F4
:1015730086F0E7A4C5F02BFBE43AFA1908E7C5F0B7
:10158300C6A426F6E5F03BFBE43AFA1886F0E7A496
:10159300F6E5F00826F6E43B08F6E43A08F6D0E070
:1015A300FBD0E0FA22E4CFC0E0E4CEC0E0E4CDC05B
:1015B300E0E4CCC0E075F020E626F608E633F60852
:1015C300E633F608E633F6181818EC33FCED33FD72
:1015D300EE33FEEF33FFC3EC9709ED9709EE97095E
:1015E300EF97191919400FFFEC97FC09ED97FD09C7
:1015F300EE97FE191906D5F0BFECF709EDF709EEE2
:10160300F709EFF7191919D0E0FCD0E0FDD0E0FE9F
:10161300D0E0FF226016080808C6C313C618C61315
:10162300C618C613C618C613C6D5E0EA2270090841
:101633000808226016181818C6C333C608C633C66E
:1016430008C633C608C633C6D5E0EA22E627F6083D
:1016530009E637F60809E637F60809E637F622E021
:1016630026F608A3E036F608A3E036F608A3E0362C
:10167300F622E026F008A3E036F008A3E036F008EF
:10168300A3E036F022C3E697F60809E697F60809C1
:10169300E697F60809E697F622C3E096F008A3E07A
:1016A30096F008A3E096F008A3E096F022E056F641
:1016B30008A3E056F608A3E056F608A3E056F62280
:1016C300E056F008A3E056F008A3E056F008A3E0C4
:1016D30056F022E0F608A3E0F608A3E0F608A3E03C
:1016E300F622E6F008A3E6F008A3E6F008A3E6F086
:1016F30022E0FAA3E0FBA3E0FCA3E0FD22EAF0A3CF
:10170300EBF0A3ECF0A3EDF022E0F8A3E0F9A3E003
:10171300FAA3E0FB22E8F0A3E9F0A3EAF0A3EBF0DD
:1017230022CAC0E0E6F0A308DAFAD0E0FA22CAC07F
:10173300E0E0A3C582CCC582C583CDC583F0A3C534
:1017430082CCC582C583CDC583DAE6D0E0CA22C385
:10175300E498F8E499F91217938026C3E49AFAE41B
:101763009BFBE920E7E9121793E498F8E499F9223F
:10177300C3E498F8E499F9121793E498F8E499F913
:10178300C3E49AFAE49BFB22EB20E7CFE920E7E0EE
:10179300B90010BB0008E88AF084F8AAF022E4FB41
:1017A300C8FA22EB70227B10C833C8C933C933503F
:1017B30007C39AC3DBF280069A50012ADBEAC833D7
:1017C300F4C8C933F4C9FA2275F008E4C833C8C9A8
:1017D30033C933C99AC99B5004C92AC93BD5F0EC14
:1017E300FBC833F4C8E4C9FA22600D08C6A2E713A4
:1017F300C618C613C6D5E0F322600C08C6C313C6C9
:1018030018C613C6D5E0F422700422600D18C6C3AF
:1018130033C608C633C6D5E0F41822252110AF0815
:10182300F521400C15228008F52140021522D2AF84
:101833002200C0D0252110AF08F521500C052280CD
:1018430008F52150020522D2AFD0D0222521F582FE
:1018530010AF08F521400C15228008F52140021530
:1018630022D2AF852283222521F582E43522F58316
:10187300222521F8E43522F9222521FAE43522FB39
:10188300222521FCE43522FD22E4732521C582C0F3
:10189300E0E52234FFC583C0E0E521C3958224F847
:1018A30010AF088583228582218008858322858263
:1018B30021D2AFCEF0A3E520F0A37808E608F0A389
:1018C300DEFAEFF0A3E58124FAF8E608F0A3E608D0
:1018D300F0A3E608F0A30808E608F0A3E608F0A3DF
:1018E30015811581D0E0FED0E0F8158115811581B1
:1018F300E8C0E0EEC0E0222521C582C0E0E5223445
:10190300FFC583C0E0E521C3958224F910AF0885A4
:1019130083228582218008858322858221D2AFCECE
:10192300F0A3E520F0A37808E608F0A3DEFAEFF0D1
:10193300A3E58124FBF8E608F0A3E608F0A3080872
:10194300E608F0A3E608F0A315811581D0E0FED0E8
:10195300E0F815811581E8C0E0EEC0E0228522831E
:10196300852182E0A3FEE0A3F5207808E0A3F60832
:10197300DFFAE0A3FFE0A3C0E0E0A3C0E0E0A3C080
:10198300E0E0A3C0E0E0A3C0E010AF0885822185BA
:1019930083228008858221858322D2AFD083D0829F
:1019A300020132852283852182E0A3FEE0A3F52094
:1019B3007808E0A3F608DFFAE0A3FFE0A3C0E0E0C5
:1019C300A3C0E0E0A3C0E0E0A3C0E010AF088582BD
:1019D300218583228008858221858322D2AFD0830B
:1019E300D08222C0D02521C582C0E0E52234FFC5C4
:1019F30083C0E0E521C3958224F310AF08858322D9
:101A03008582218008858322858221D2AFC8F0A3F5
:101A1300E9F0A3EAF0A3EBF0A37908E709F0A3D870
:101A2300FAECF0A3EDF0A3EEF0A3EFF0A3D0E0F017
:101A3300A3D0E0F0A3D0E0F0A3E520F0A3E5F0F01D
:101A4300A322852283852182E0C0E0A3E0F9A3E0FD
:101A5300FAA3E0FBA37808E0F608A3DFFAE0FCA30F
:101A6300E0FDA3E0FEA3E0FFA3E0C0E0A3E0C0E04D
:101A7300A3E0F5D0A3E0F520A3E0A3F5F010AF08B1
:101A83008583228582218008858322858221D2AFA6
:101A9300D082D083D0E0F8D0E032740480067402A0
:101AA30080027401C0E0F40412184FD0E01217242E
:101AB300227404800474028000CCC0E0EDC0E0E531
:101AC30021C39CCCAD2250011D10AF068C218D2269
:101AD30080068C218D22D2AF121731D0E0FDD0E0E9
:101AE300FC22D083D082E9C0E0E493A3C386F0C58F
:101AF300F095F0F908E493A386F0C5F095F0700B28
:101B0300E493A3C3994005E9048002A3E475F002BA
:101B1300A42582F582E5F03583F583D0E0F9E493DB
:101B2300A3C0E0E493C0E022D083D082ECC0E0ED18
:101B3300C0E0E493A3FCE493A3FDED4C600D121B02
:101B430077EC24FFFCED34FFFD80EFE493A3FCE48A
:101B530093A3FDED4C600D121BB6EC24FFFCED349A
:101B6300FFFD80EFD0E0FDD0E0FCE493A3C0E0E410
:101B730093C0E022C0E0C3E49396087401939618DF
:101B8300400FE49366700808740193661870007040
:101B930019A3A3C3E49396087401939618A3A340CF
:101BA3000DD0E0D0E0D0E0021B67A3A3A3A3A3A3BF
:101BB300D0E022C0E0C0F088F0E4936670080874B7
:101BC300019366187000A8F0A3A3700BD0F0D0E0C7
:0E1BD300D0E0D0E0021B67A3A3D0F0D0E02248
:101BE40074F61218FAEAFEEBFF8C088D09EE243421
:101BF400F8E43FF9E8FCE9FDEE2435121F1EFAEE85
:101C04002437121F1EF88508F0A4C885F00A850938
:101C1400F0A4250AF9EA28F8E439F97A257B0012B8
:101C24001793EA8C828D83F0FA131313541FF8EE82
:101C340028F8E43FF9E8245DF582E439F583E0C04F
:101C4400E074075AF8D0E0B800028004C313D8FC4B
:101C5400A2E0EE50082434F582E43F8018243612C2
:101C64001F1EF5F0EA84A8F0EE28F8E43FF9E82412
:101C740038F582E439F583E0F97F030219A674F795
:101C84001218FAEAFEEBFFEE2434121F1EC0E0EE37
:101C94002435F582E43FF583D0E0F08E828F83A370
:101CA400A3A3A3A3A3A3C082C0838E828F83A3A371
:101CB400A3A3A3121D87D083D082E0C398F508A301
:101CC400E099F509EE247F121F1E6401705DEE2475
:101CD40080121D818E828F83A3A3A3A3A3A3A31227
:101CE40020C18E828F83A3A3A3A3A3E0FAA3E0FB66
:101CF400C3EA9CEB9D5010C3EC98ED99402DC3EAC8
:101D040098EB995026800EC3EA98EB994007C3ECF0
:101D140098ED9940167CB07D04EEFAEFFB120C5856
:101D2400EE247FF582E43FF583E4F0AC08AD09EEE0
:101D3400FAEFFB121BE4E9F91229667F020219A6E5
:101D4400C082C083852182852283121D87C3EA9CB9
:101D5400EB9D5010C3EC98ED99401BC3EA98EB99A6
:101D64005014800EC3EA98EB994007C3EC98ED99A0
:101D74004004790180027900D083D08222F582E484
:101D84003FF583E0F8A3E0F922EAC39CFAEB9DFB5C
:101D94002274EF1218FA900376E064086005E06498
:101DA40007702A9061C8E060249003A4E0F4601DE9
:101DB400E0F875F00AA4C8AAF02AF974A628FE74FB
:101DC4000339FF8E828F83A3A3A3E07003021EA3B3
:101DD400906060E0C0E0EE2468F582E43FF583D0D3
:101DE400E0F0750C20750D05750800750900E5D93E
:101DF40014F50AE5D95403F50E60127403650E60F8
:101E040043E50A600AEE2467121F1E700280759073
:101E1400051BE06401601F121F1B60047A0480022A
:101E24007A00E50AC39AFA95E0FB120AF68A088B4F
:101E340009EA45097005120E988064121F1B70048C
:101E44008A0C8B0DE50A6012850C82850D83F50BD7
:101E5400E5D9F0A3150BE50B70F6121F1B60447453
:101E6400FC250AF50A780C121AA1AC0AA90EEEFA9E
:101E7400EFFB120D127402121834E97026AA08AB93
:101E8400091213D2793D8E828F83A3A3A3A3E0FA10
:101E94007B00120958EEFAEFFB120C7C120D247928
:101EA40000806F7403650E6051850A107511007807
:101EB40010121AA1AC0CAD0DAA08AB09120CD67401
:101EC40002121834EE2468121F1E64807004747F9A
:101ED4008001E0F50C780C121AA5E50EF50C780CCF
:101EE400121AA5A90AAC08AD099003A4E0FA7B0074
:101EF40012092E74021218348013900376E06408D9
:101F0400600BAC0CAD0DEEFAEFFB120D96120EA4A5
:101F140079017F0A0219A6EE2482F582E43FF58353
:101F2400E02274F21218FA74FC12181EEAFEEBFF97
:101F34008909A2AFE433F508C2AF021FE2E0601BD7
:101F4400780C121AA1AC0BA90EEEFAEFFB120D0CD1
:101F540074021218347404250BF50B7401250BF567
:101F6400D9850ED9E50B6018F50A850C82850D8399
:101F7400E0F5D9A385820C85830D150AE50A70EA7C
:101F840075E195EE2463F8E43FF97A007B00A2AF93
:101F9400E433F50BC2AF1220BDEC4D603288828968
:101FA40083E0FAA3E0FB8A828B831220C1888289B2
:101FB40083ECF0A3EDF08A828B83E4F0A3F012208B
:101FC400BDEC4D700A88828983A3A3E4F0A3F0E5F5
:101FD4000BA2E092AF1213D29004B7E004F0EE2407
:101FE40063121D81E8496064EE2463121F1E2402FB
:101FF400F8A3E03400F988828983E5822402F50C91
:10200400E43583F50DE0F50BA3E0F50EEE24621242
:102014001F1E640170369061D0E0F8121F1B60042B
:102024007C0480027C007480C398FA95E0FBE50B85
:102034002CF8E43400F9E82402F8500109C3EA98C2
:10204400EB99A2D265D0334003021F419004B7E05C
:10205400604D9004B8E0F89004B7E0C398500C7455
:10206400026509703A9004B9E060348E828F83A3CC
:10207400A3A3A3E08521828522831220B3740212D4
:10208400186AE81220B39004B6E028F0740212181B
:1020940084AA21AB2279011209829004B7E4F0E505
:1020A40008A2E092AF74041218347F070219A6F054
:1020B400A3E4F09004B7E0F82288828983E0FCA3CB
:1020C400E0FD22008524878525C622C0E074EB123A
:1020D40019E6A2AFE433F508C2AF759B00906182A4
:1020E400E0A2E05030E591A2E0502A7591FE74011F
:1020F40065247021122262120DE4122250121AB4C5
:102104001227107404121834E9640170057901125D
:102114000E2C121D95906182E0A2E5505DE591A21E
:10212400E550577591DF900376E064076005E0643D
:1021340008702F12226274016524703E120DE4129D
:102144002250121AB41227107404121834E96401CC
:1021540070057901120E2C7901EEFAEFFB121F269D
:102164008018E0640D7013900398E004F064287004
:1021740002E4F07A00E0F9120EAA906182E0A2E68D
:102184004003022225E591A2E6400302222575912F
:10219400BF900376E064057008120DCC120DD88050
:1021A40003120DD2752400120E38E9900377F079EA
:1021B40000120E2C120BC27A017B00900375E0F919
:1021C4001210FC907803E06442705690051FE014EE
:1021D400F0704EC2AF1221DC00782DD0E0F618D09A
:1021E400E0F6E59F5407F87005750DFF8003750D43
:1021F4007FC4C0E0782CE6F50A08E6550DF50B74AB
:102204000B780A1217FCD0E0250AF8906270E0A25D
:10221400E740F8E8C333906272F0906270E0D2E075
:10222400F0906181E0A2E35009E5E9A2E35003756F
:10223400E9F7A3E0A2E75009E591A2E750037591FD
:102244007FE508A2E092AF7F08021A458E828F8351
:10225400E0F8A3E0C82416F582E438F5832290035D
:10226400A4E0F875F00AA4C8AAF02AF974A628FE16
:10227400740339FF22C0E0C0D0C082C08390618360
:10228400E0A2E05009E5BFA2E0500375BFFEE0A262
:10229400E15009E5BFA2E1500375BFFDE0A2E250A1
:1022A40009E5BFA2E2500375BFFBE0A2E35009E5D4
:1022B400BFA2E3500375BFF7E0A2E45009E5BFA253
:1022C400E4500375BFEFE0A2E55009E5BFA2E55075
:1022D4000375BFDFE0A2E65009E5BFA2E65003752F
:1022E400BFBFD083D082D0D0D0E032C0E074F2122D
:1022F40019E6E5A7A2E6500FE5A1A2E6500953A707
:10230400BF75A1BF122343E5A7A2E5500CE5A1A226
:10231400E5500653A7DF75A1DFE5A7A2E15009E563
:10232400A1A2E1500375A1FDE5A7A2E2500CE5A12D
:10233400A2E2500653A7FB75A1FB7F01021A457464
:10234400F71218FA752401900376E06406701512EA
:102354000D488A828B83A3A3A3A3A3A3E0FAA3E0DB
:10236400FB120DBAA2AFE433FED2AF90037CE0645B
:102374000170187A207B00900375E0F91211927AAB
:10238400207B00900375E0F9121102906182E0D283
:10239400E6F090051CE0602185C625801690037B3D
:1023A400E064017008E5C654F84405F5C653BEFC64
:1023B4001220C87401652460E4EEA2E092AF7F02AB
:1023C4000219A6008E268F2785822B85832A8521D4
:1023D40082852283E0CEA3E0CF852B82852A83EBFE
:1023E400C9EAC8EDCBECCA75F010C3E833C8E933C9
:1023F400C9EA33CAEB33CBC3EA9EF529EB9FF52830
:10240400B35004AB28AA29EC33CCED33CDD5F0DAA4
:10241400AE26AF272274E91218FA74FA12181EEACB
:10242400FEEBFF8C0A8D0B120DF0EAF8EBF9ECFAD7
:10243400EDFB8E828F83121718900376E024F7C386
:1024440094055006751401022580120D488A088BE4
:1024540009EA4509700302257DEEFCEFFDAA21ABD4
:1024640022120DEA850882850983A3A3780C12162B
:10247400D690835C780C1216B085218285228378ED
:10248400101216D690835C78101216B0780C79105E
:102494001214E9501F780C79101216889083BC78B6
:1024A4000C1215094047850C14850D15850E1685EB
:1024B4000F1780459083BC8510148511158512165D
:1024C4008513177814790C1216887814121509508C
:1024D4001C751400751500751600751701781479AC
:1024E400101216887814790C12164F800C7514018A
:1024F40075150075160075170074097814121630D6
:1025040090838C780C1216D67814790C1215A88541
:102514000882850983A3A3A3A3A3A312259E12174C
:1025240093880C890DE4F50EF50F7814790C1216C6
:102534004F740412186A12259E121793E8FA8A0C33
:10254400E4F50D7814790C1214E950077814790C19
:10255400121688900376E06408600AE06406600559
:10256400E0640570209083B8781412150950169011
:1025740083AC7814121662800C75140075150075FE
:102584001600751700850A82850B8378141216E5E8
:1025940074061218347F100219A6E0F8A3E0F97A41
:1025A400D07B032274F71218FA120E0290051AE077
:1025B40064017010906245E4F0A3F053F4F343FE19
:1025C4000C5390F3120DA8E5C654B84441F5C6E582
:1025D4009E5447644170F8906185740FF09005181B
:1025E400E0F47002A3E0604E900519E06008146006
:1025F4001B14602E8040750801750900900518E0D1
:10260400780812180BE508F45280802A75080175C1
:102614000900900518E0780812180BE508F45290A8
:102624008014750801750900900518E078081218DF
:102634000BE508F452A079007F020219A674F71280
:1026440018FAE9FEEAFF120E0274016E700C7A8029
:102654007B00900375E0F91210FC9029BCE493F41C
:102664006008E493F9120BB6800953C6B8E59E548A
:102674004770FA120DAE90051AE064017003120B54
:10268400DA900518E0F47002A3E0604B900519E0BD
:10269400600814601A14602C803D750801750900E7
:1026A400900518E0780812180BE508428080287518
:1026B4000801750900900518E0780812180BE50860
:1026C40042908013750801750900900518E0780898
:1026D40012180BE50842A0120D488A088B09A808B5
:1026E400A909E8496014E5E170FCE82414F582E4E2
:1026F40039F583E0F46003E0F5E174016F700A7A60
:1027040001900375E0F912116202263C74F112186B
:10271400FA8A088B098C0A8D0B90835C7808121650
:10272400B0740F12186A780C1216D690835C780C69
:102734001216B07808790C1214E99083BC50107802
:1027440008790C12168878081215094014800E783E
:102754000C7908121688780C121509500479018036
:102764000279007F080219A674ED1218FA8A088B00
:10277400098C0A8D0B90835C78081216B0741312BE
:10278400186A780C1216D690835C780C1216B078FE
:102794000C79081214E940117808790C121688AAE9
:1027A40008AB09AC0AAD0B802275100075110075D9
:1027B40012007513017810790C12168878107908B4
:1027C40012164FAA10AB11AC12AD137F0C0219A64E
:1027D40090835C78081216D68A828B837808121646
:1027E400C37F040219A674F51218FA8C828D8378BB
:1027F400081216D68A828B83780812169C122842F5
:10280400C3E09CF0A3E09D122834402290836878B2
:10281400081216D68A828B8378081216758A828BE0
:1028240083A3A3A3A3E02420F0A3E0344EF080A06C
:10283400F088828983C3E09420A3E0944E22EA24A2
:1028440004F8E43BF98C828D83A3A3A3A3E0FCA347
:10285400E0FD888289832274F51218FAE9FE900457
:10286400D2E0FAA3E0FBEE29F8E433F9746528F525
:1028740082748239F583E02AF508A3E03BF50978F0
:1028840008121AA19083C41216F41223C8740212F7
:1028940018348A088B098C0A8D0B74107808121668
:1028A40017AA08AB097F040219A674F11218FA8A50
:1028B4000C8B0D8C0E8D0F741112186A121AB874C9
:1028C4001112186AE02401F508A3E03400F509E4C4
:1028D400F50AF50B780C79081215289083A478086A
:1028E4001216D6780C7908121528AA0CAB0DAC0E6A
:1028F400AD0F1223C874021218348B09EA4509601B
:10290400047A0180027A00EC2AFCE43DFD7413127F
:10291400186AE0F8A3E0F9E8FEE9FFECF8EDF97ACB
:10292400717B0212179388088909E4F50AF50B8E66
:10293400828F8378081216E5ECF8EDF97A717B0240
:102944001217938A088B097405780812180B8E8263
:102954008F83A3A3A3A3E508F0A3E509F07F0802EE
:1029640019A6C082C083E9906000F0D083D082228F
:10297400C2AF02000022C0E074F21219E6E5A8FE1C
:10298400D2AF121372C2EBEEA2E7A2E792AF7F01BD
:10299400021A45C0E0C0D0E8C0E0E9C0E0E5A8D232
:1029A400AFC2C7752300A2E7A2E792AFD0E0F9D087
:0729B400E0F8D0D0D0E032C2
:1029BC00FFFFFFFFFFFFFFFFC082C083E9901617E8
:1029CC00F0D083D08202013274F612188EE9900294
:1029DC00E8F0900348E0F5087509007402780812D5
:1029EC00180BAA08AB091211389002E91233879020
:1029FC0002E9123774606F900348E075F003A4FA93
:102A0C00ABF012113890030612338790030612377D
:102A1C0074700B9002E912374512113E80489003F6
:102A2C00061246D97AFF7BFF1212D67A0080198AD9
:102A3C00087509007402780812180B12418174FF92
:102A4C00122B87E4F0A3F00A900348E0F8EAC3984D
:102A5C0040DD79051208149002E8E0F91207067AB5
:102A6C009E7B08120A9602422474F412188E8A086D
:102A7C008B09EB548060479002E8E0F91210E48A6D
:102A8C000A8B0BAE0AAF0BEE4F602A8E828F83E05F
:102A9C0064B0701A120826E960148E828F83A3A387
:102AAC00A3A3E0F9EE2405FAE43FFB1207F6EEFAD5
:102ABC00EFFB1210D2AA08E5096480FB80047A00AF
:102ACC007B00022CD774F212188E74FB12181EEABB
:102ADC00FEEBFFEE4F6045740312186AEEF0A3EFA5
:102AEC00F0852182852283ECF0A3EDF0740212189C
:102AFC006AE9F0AA21AB22120700E9F50870757497
:102B0C001312186AE0F50AA3E0F50BE50A450B6011
:102B1C00638E828F83123110EE4F70057508028020
:102B2C00537A067B001211388A0C8B0DA80CA90D58
:102B3C00E8497005750813803B88828983E4122B61
:102B4C0087EEF0A3EF122CA3E50AF0A3E50BF090AF
:102B5C0002EC122C9C9002EC6017E0FCA3E08003CA
:102B6C00EAFCEBFD8C828D83122C9C70F38C828D95
:102B7C0083123D9CA9087405024959F0A31246BB67
:102B8C00A32274F212188E8908890C750D00740337
:102B9C00780C12180B850C0A850D0B9002EBF0903B
:102BAC0002E9123BA7122C9A602E12113E7900807A
:102BBC001D890C750D007402780C12180B9002E92B
:102BCC001240408882F583A3A3E4F0A3F00990039C
:102BDC0048E0F8E9C39840D9900348E0FA850AF038
:102BEC00A4CAA8F0850BF0A428FB1211388A0C8B10
:102BFC000DAE0CAF0DEE4F7003022C90900348E01D
:102C0C00FC850AF0A4CCA8F0850BF0A428FD790073
:102C1C001210C07C0080318D0C750D007403780C83
:102C2C0012180B8A828B83122C9588828983E4F08C
:102C3C00122CA2A3A3F0A3F00DEDC3950840D8EE7F
:102C4C00250AFEEF350BFF0C900348E0F8ECC39817
:102C5C0050288C0C750D007402780C12180B900215
:102C6C00E9122C95E82402500109FAE9FB8A828BBF
:102C7C0083EEF0A3EFF07D0080BFE5089002EBF04F
:102C8C0079008002791302495C124044F922A3A313
:102C9C00123749EA4B22A31246BBA3A3A32274F416
:102CAC0012188E7900EAA2E0501F7508227509836C
:102CBC007808121AA179107C047D007A197B1612FF
:102CCC00080E7402121834E9F980007F04021960AE
:102CDC00C082C0839002EC123774601C8882898396
:102CEC00A3A3E06A7003A3E06B8882898370E8A3D6
:102CFC00A3A3A312374580047A007B000229CD746C
:102D0C00F212188E74FD12181EEAFEEBFF8521825A
:102D1C00852283E4F0A3F0740212186A7401F01295
:102D2C00377170141209D01211389002EF123387D8
:102D3C001237717003022E9D123487EE2404F50AAB
:102D4C00E43FF50B850A82F583E024FE603C24FC0D
:102D5C00607424FE607E24FE7003022DED24FE7050
:102D6C0003022DFA24FE7003022E0724FE700302C8
:102D7C002E1424FE7003022E2124FC7003022E421A
:102D8C0024FE7003022E5A022E961209D09002F1E4
:102D9C00EAF0A3EB122EA9120442E96003022E966C
:102DAC009002F1121AB88E828F83A3A3A3A3A3124D
:102DBC0046D98508828509831237451207DE7402CD
:102DCC00121834022E96AC21AD22EEFAEFFB12084B
:102DDC002C022E65AC21AD22EEFAEFFB12083280EC
:102DEC0078AC21AD22EEFAEFFB120838806BAC21E7
:102DFC00AD22EEFAEFFB12083E805EAC21AD22EE66
:102E0C00FAEFFB1208448051AC21AD22EEFAEFFB35
:102E1C0012084A80447402121874880C890D780CBC
:102E2C00121AA17402121884EEFAEFFB12085074F5
:102E3C00021218348023AC21AD22EEFAEFFB1208FB
:102E4C0056E9F87016740212186AE4F0803CAC2152
:102E5C00AD22EEFAEFFB12085CE9F8E8602C8E82EA
:102E6C008F83A3E064146022850A82850B83E09033
:102E7C0002F1F08521828522831237459002F212ED
:102E8C003387E8A3122EA912043CEEFAEFFB1207CB
:102E9C00B4740212186AE0F97403024959F07CF117
:102EAC007D028508828509831237492274E812183D
:102EBC008E74FA12181E740412186AECF0A3EDF05A
:102ECC008A128B13EA2405F50EE43513F50FEA2468
:102EDC0002F510E43513F511851082F58312374590
:102EEC0012052C8A0A8B0B7508007C037D00790077
:102EFC007AF17B021210C0E50E2402F516E4350FB0
:102F0C00F5177402121874880C890D780C121AA11A
:102F1C00850E82850F83A3A3A3A3E0F50C750D008A
:102F2C00780C121AA1E50E2405F50CE4350FF50DFD
:102F3C00780C121AA1851682851783123A4C120747
:102F4C001E74061218348A0C8B0DE50C450D70039B
:102F5C000230D98020852182852283E08882898372
:102F6C00F00508852182852283A3E0C0E012311A86
:102F7C00D0E0F00508E50A24FBFAE50B34FFFBC3AF
:102F8C00E5089AE49B40030230D97E007F0085124D
:102F9C0082851383A3A3A3A3E0F5097809121AA5CC
:102FAC00E4F514F5157814121AA17514EE751502C2
:102FBC007814121AA19002EF121AB8740912186A36
:102FCC00121AB8E50A24F9F9AC0CAD0D85108285FE
:102FDC0011831237451208867409121834E96003FC
:102FEC0002307A850E82850F83A3A3A3A3A3A3A388
:102FFC00E0F89002EEE0687075E0F5148E15781428
:10300C00121AA11246D6850E82850F83A3A3A3A301
:10301C00A3A3A3A31237451210BA7402121834E9F1
:10302C00604C9002F2123774703BE4F51478141271
:10303C001AA17CFF7DFF79078510828511831237D9
:10304C00451207F0740212183412377A7017850E75
:10305C0082850F83124873740412186A1241341259
:10306C003A7D02310D850C82850D83123110A82119
:10307C00A922881489157814121AA1740412186ADA
:10308C00121AB885168285178312337D12072A749B
:10309C00041218348A0C8B0DEE4F7003022F56124B
:1030AC00311AEE123125123A33EF123125F8A3E022
:1030BC003400F9E50C450D6003022F618882898389
:1030CC0074FFF0050812311A74FFF00508E508606A
:1030DC001A1313543F12338D12044EE960099002F7
:1030EC00F21237451213D279008016850E82850FA5
:1030FC0083124873740412186A124134123D9C797D
:10310C000A023A06A3A3A3A3E0FEA3E0FF22A808A9
:10311C009002F2E028123A3322F00508089002F2ED
:10312C00E0282274E812188E74FA12181E74021217
:10313C00186A123387740412186AECF0A3EDF07459
:10314C000212186AE02405123A1CE0F50CA3E0F513
:10315C000D740212186AE02402F510A3E03400F595
:10316C0011851082F58312374512052C75080075F0
:10317C000900EA24FCFEEB34FFFF8008050CE50C8B
:10318C007002050DA808C3EE98EF940050030233AB
:10319C0039A821A922880E890F780E121AA185143C
:1031AC0082851583A3A3A3A31246DD121AA1E514ED
:1031BC002405F50EE43515F50F780E121AA18514B9
:1031CC008285158312337B12071E74061218348AFB
:1031DC000E8B0FEA450F7003023339EA2404F516FF
:1031EC00E4350FF517851682F583E0F50CA3E0F5B1
:1031FC000D8521828522831246D98A828B83A3A3D3
:10320C00A3E0F985108285118312374512070CE96A
:10321C00F5096003023339740212186A123A43F545
:10322C00097809121AA5E4F512F5137812121AA1ED
:10323C007512EE7513027812121AA19002EF121A7F
:10324C00B8740712186A121AB8EEF9AC0EAD0F85E5
:10325C0010828511831237451208867409121834AE
:10326C00E9F5096003023339E508703FE4F50EF522
:10327C000F780E121AA17CFF7DFF790985108285CB
:10328C0011831237451207F07402121834123A697E
:10329C00700D740412186A123370791102336D9028
:1032AC0002EEE024029002F2F080149002F2E0FAB6
:1032BC009002EEE0790024025001096A497072A86C
:1032CC00089002EEE0FAE82AFAE43400FBEE9AEFFA
:1032DC009B405A851682851783E0C0E09002F3125A
:1032EC00311FD0E0F00508851682851783A3E0C056
:1032FC00E0089002F312311FD0E0F005089002EEC6
:10330C001246DD121AA11246D6A808123A10121053
:10331C00A874021218349002EEE02508F50874FF28
:10332C00650C700474FF650D6003023188E508605C
:10333C001F9002F2E0F5F0E5088412338D1204546C
:10334C00E960099002F31237451213D2790080110B
:10335C00E509700375090A740412186A123370A90E
:10336C0009023A06123BABE50CF0A3E50DF022A3E3
:10337C00A3124968AA0CAB0D22A3A3EAF0A3EBF0AD
:10338C00229002F1F07CF17D02851082851183126E
:10339C0037492274EC12188E74FC12181E123EACB3
:1033AC00740212188412373F1207248A0C8B0DEA10
:1033BC00450D7003023477123487A821A922881096
:1033CC0089117810121AA17CFF7DFF790B85088278
:1033DC008509831237451207F0740212183412351E
:1033EC007D700C850A82850B83123A7A0234848EA6
:1033FC00828F83A3A3A3A3E0F5127812121AA5E47B
:10340C00F512F5137812121AA17512F175130278D0
:10341C0012121AA17810121AA1740912186A121A2F
:10342C00B8740912186AE0F9AC0CAD0D85088285E8
:10343C0009831237451208867409121834E9FE7094
:10344C00157CF17D028508828509831237451204AB
:10345C005AE97009802074166E70027E009002F298
:10346C001237451213D2EE7004800B7E01850A824E
:10347C00850B83123D99EEF9023DAEEE2402F50860
:10348C00E43FF5092274EC12188E74FC12181EEA33
:10349C00FEEBFF8C0E8D0FEE2405F508E43FF509CD
:1034AC007402121884850882850983123745120725
:1034BC00248A0C8B0DEA450D700302356DEE240247
:1034CC00F50AE43FF50BA821A92288108911781080
:1034DC00121AA17CFF7DFF790D12373F1207F07491
:1034EC000212183412357D700B85088285098312FF
:1034FC003A7A807A8E828F83A3A3A3A3E0F5127805
:10350C0012121AA5850882850983A3A3121AB8750D
:10351C0012F17513027812121AA17810121AA174F2
:10352C000912186A121AB8740912186AE0F91237DB
:10353C003B1208867409121834E9FE700F7CF17D79
:10354C000212373F120460E97009802074166E7005
:10355C00027E009002F21237451213D2EE700480F4
:10356C000B7E01850882850983123D99EEF9023D97
:10357C00AE123784F510A3E0F511EA45112274E878
:10358C0012188E74FE12181E8A168B178C148D1539
:10359C00EA2405F50CE43517F50DEA2402F50EE4E2
:1035AC003517F50F850E82F58312374512052C8AD7
:1035BC00088B09750B007C037D0079007AF17B0286
:1035CC001210C0750A00E50814F5100424FFF50864
:1035DC00E50934FFF50980549002F1E0FA9002EE0F
:1035EC00E0F8EA28F8E43400F9E50898E509995080
:1035FC000D9002F1E0F8E510C3989002EEF0E0F5C2
:10360C00127513007812121AA11246D69002F2E02B
:10361C002AFAA3E03400FB1210A87402121834909A
:10362C0002EEE0F89002F1E028F0050A850C8285A4
:10363C000D83A3A312405040030237209002F1E007
:10364C00C39508E495094003023720AE0AEE2EFE1E
:10365C00E433FF12375FAC21AD221246F1E439FBA3
:10366C001207248A128B13AC12AD13EC4D701B7520
:10367C000B0112374F123D9D9002F2122C9C6003ED
:10368C001213D2A90B7402023A088516828517838D
:10369C00A3A3A3A3E0F50B780B121AA5E4F512F57E
:1036AC00137812121AA17512EE7513027812121AEF
:1036BC00A19002EF121AB8740712186A121AB8A95C
:1036CC0010850E82850F83123745120886740912F5
:1036DC001834E9F50B709B9002F2123774600302F8
:1036EC0035E4E4F512F5137812121AA17CFF7DFF74
:1036FC00790F850E82850F831237451207F07402FD
:10370C0012183412377A60030235E412374F123A2A
:10371C007E0236917CF17D02850E82850F831237F5
:10372C0045120466E960030236847900023691ACD6
:10373C000CAD0D850A82850B8312374922E0FAA362
:10374C00E0FB2212375FE0FAA3E0F9EA85148285E8
:10375C00158322850C82850D83E02EF8A3E03FF9BA
:10376C0088828983229002EF124877E84922123727
:10377C0084F8A3E0F9E849229002F2EAF0A3EBF016
:10378C009002F2E02274E812188E74FA12181E7469
:10379C000412186A1233878C168D17740412186A67
:1037AC00E02405F50EA3E03400F50F740412186A3A
:1037BC00E02402123A1C12374512052C8A0A8B0B94
:1037CC007F007E00A821A922880889097808121A8E
:1037DC00A1850E82850F83A3A3A3A3E0F5088E0910
:1037EC007808121AA1E50E2405F508E4350FF50941
:1037FC007808121AA1850E82850F83A3A3123A4C66
:10380C0012071E74061218348A0C8B0D8029123A7A
:10381C003DF00F123A3DF00F9002EE123D88121A55
:10382C00A11246D6EFF8123A101210A87402121810
:10383C00349002EEE02FFFE50C450D70030238CCFE
:10384C00852182852283123EBEA3A3A3E0F98514B1
:10385C008285158312374512070CE9FEE50C24040A
:10386C00F510E4350DF511EE7050740412186A124F
:10387C003A43F5087808121AA5E4F508F509780812
:10388C00121AA17508EE7509027808121AA1900295
:10389C00EF121AB8740712186A121AB8E50A24FA49
:1038AC00F9AC0CAD0D8514828515831237451208C1
:1038BC00867409121834E9FE6039123A59123D9C8B
:1038CC00EF70030239F39002F2E0F5F0EF8490020E
:1038DC00F1F07CF17D028514828515831237451237
:1038EC00046CE960099002F31237451213D2790087
:1038FC00023A068F08EF703BE4F512F513781212BA
:10390C001AA17CFF7DFF79118514828515831237EE
:10391C00451207F07402121834123A697009123AFF
:10392C0059123A7D023A069002EEE024049002F21B
:10393C00F080359002EEE0F89002F2E0FAE8240410
:10394C00FCE43400FDEC6A4D60030238D2E50A2435
:10395C00FAFAE50B34FFFBE50828F8E43400F9EA41
:10396C0098EB9950030238D2851082851183E0C000
:10397C00E09002F3E02FF8A3E034008882F583D0C6
:10398C00E0F00F851082851183A3E0C0E0123A2A83
:10399C00D0E0F00F740212187488088909780812A4
:1039AC001AA1740212186A121AB8850E82850F8336
:1039BC0012337B12072A74041218348A0C8B0DEA0A
:1039CC00450D700302381A740212186AE0C0E01236
:1039DC003A2AD0E0F00F740212186AA3E0C0E01289
:1039EC003A2AD0E0023822EE70027E0A850E8285D9
:1039FC000F83123A5F123D9CEEF974061218347F55
:103A0C00100219609002F3E028FAA3E03400FB22C4
:103A1C00F514A3E03400F515851482F58322123ACF
:103A2C002E229002F3E02FFAA3E034008A82F58371
:103A3C0022123A2E74FF22123BABA3A3A3A3E022C3
:103A4C00124968850E82850F8312374922851082B0
:103A5C00851183124877851682851783229002F38D
:103A6C00EAF0A3EBF09002F3124877E84922123DFA
:103A7C00A2E8F0A3E9F079112274EA12188E74FE10
:103A8C0012181E8A088B098C128D13EA2405FEE489
:103A9C003509FFAC21AD228E828F83123745120778
:103AAC00248A0C8B0DEE2406F50EE43FF50FEA4547
:103ABC000D7003023B7DE5082402F50AE43509F597
:103ACC000B8A828B83A3A3A3E0A2E55028852182D5
:103ADC0085228312374512087A8A108B11EA451118
:103AEC006020791212373B85108285118312188C55
:103AFC00E9F50C707F850E82850F83E060097952A1
:103B0C008011750C0E806D850882850983A3A3A393
:103B1C00A3E0F9E4F508F5097808121AA18E828F52
:103B2C0083A3A3E0F5087808121AA18E828F83A3D1
:103B3C00A3A3121AB88E828F831246D912373F1262
:103B4C00088C7406121834E9F50C7011850E8285F8
:103B5C000F83E0702D12373F1204728025741665A6
:103B6C000C7011750C00741812186A123BA7E480C3
:103B7C0010750C0112486F851282851383E8F0A32F
:103B8C00E9F0850E82850F83E0600479008002A93C
:103B9C000C74021218347F0E021960123BAB22E037
:103BAC00F8A3E0F58388822274EC12188E74F71255
:103BBC00181E8A0A8B0B8C108D11EA2405FEE43535
:103BCC000BFF750C00AC21AD228E828F8312374512
:103BDC001207248A088B09EA45097003023D73E534
:103BEC000A2402F50A5002050B8A828B83A3A3A335
:103BFC00E0A2E5502F8521828522831237451208D9
:103C0C007A8A0C8B0DEA450D604F7912AC08AD0920
:103C1C0012373F850C82850D8312188CE9F50C60E8
:103C2C0003023D76850A82850B83E0F508A3E0F557
:103C3C0009AA08FB12086EEA4B70197AFF7BFF1277
:103C4C00086EEA4B7003023D698A828B83E508F0AB
:103C5C00A3E509F07508008008750C0E023D760589
:103C6C00089002EBE0F8E508C3984003023D698533
:103C7C00080E750F007403780E12180B8A828B8352
:103C8C00A3A3E0250EF8A3E0350F12413D70D08EB2
:103C9C00828F83123D911233878E828F83A3A3125E
:103CAC003D91123385EE2404F508E43FF5098508AF
:103CBC0082F583E088828983A3A3A3A3F0A3E4F015
:103CCC00EE2405F50EE43FF50F850E82F583123DCB
:103CDC0091A3A3A3A3123385751207751300781251
:103CEC00121AA1EEFCEFFD740412187C1210A874C9
:103CFC0002121834E4F5127812121AA18508828582
:103D0C000983E0FC7D00791712373F1207F074022B
:103D1C00121834740712186A123387740712186A4F
:103D2C00E0FA4B603D850882850983123D88121AA2
:103D3C00A1850E82850F831246D91210A874021227
:103D4C001834740212188412373F120478E9602672
:103D5C00740712186A1237451213D28019750C09A0
:103D6C008008750C118003750C0112486F85108248
:103D7C00851183123D9CA90C74098028E0F5087507
:103D8C0009007808221237498882898322123DA2C1
:103D9C00E8F0A3E9F022E0F8A3E0F9850E82850FA4
:103DAC00832274041218347F0C02196074EC1218FC
:103DBC008E123EAC751000EE2402F50CE43FF50DAE
:103DCC00850C82F58312374512086E8A088B09EA36
:103DDC0045097003023E90850A82850B83E06401DD
:103DEC006003023E85AC08AD09AA0AAB0B1208624F
:103DFC00E9606E850882850983123112EE2406F57E
:103E0C000AE43FF50B8E828F83A3A3121AB88E821D
:103E1C008F83A3A3A3A3121AB8850A82850B8312DE
:103E2C001AB879188E828F83123EBE12374512084B
:103E3C008C7406121834E9F8741668700B850A82B3
:103E4C00850B83E4F0A38014E860128E828F8312BA
:103E5C003745850E82850F83EAF0A3EBF08810803E
:103E6C0018780E121AA1AC08AD09EEFAEFFB120885
:103E7C00687402121834E9F510AA08AB0912087418
:103E8C00E510700E850C82850D8312374512047E69
:103E9C008009741665107003751000A910023DB3EB
:103EAC00EAFEEBFF8C0E8D0FEE2405F50AE43FF5D0
:103EBC000B22124968850C82850D832274EA121834
:103ECC008E7508007509007E007F00750A00EC24D1
:103EDC0002F510E43DF5118035EC65087003ED65D5
:103EEC00096003023F7D88828983A3A3E06A700383
:103EFC00A3E06B707C88828983A3A3A3A31248736D
:103F0C00EE28FEEF39FFEA28FAEB39FB050A1240DE
:103F1C004D503A850A0C750D007403780C12180B71
:103F2C0085108285118312404012413D601FE508C7
:103F3C00450970A58C088D098882898312311088F7
:103F4C00828983A3A3E02EFAA3E03F80BEE50AC3D7
:103F5C009402500302403B750800750900EE4F6057
:103F6C0010EEFAEFFB1213CC8A0E8B0FEA450F7092
:103F7C0005790002403D750B00024010850B0C7555
:103F8C000D007403780C12180B851082851183E0D8
:103F9C00250CF50CA3E0350DF50DE50C2406F514F8
:103FAC00E4350DF515851482F5831241426042E526
:103FBC000C2404F512E4350DF513851282F58312E9
:103FCC001AB8E50E2508FAE50F3509FB1210A8748E
:103FDC0002121834851282851383E02508F508A394
:103FEC00E03509F5098514828515831237451213BE
:103FFC00D2E50B600D7C087D007900AA0CAB0D128C
:10400C0010C0050BE50BC3950A5003023F888510C1
:10401C008285118312487388828983A3A3A3A3A3E7
:10402C00A3E50EF0A3E50F122CA3EEF0A3EFF079AD
:10403C0001023BA212404422E0250CF8A3E0350D0E
:10404C00229002EBE0F8E50AC3982274F012188E65
:10405C008A0E8B0F8C0A8D0B750D00750C00805021
:10406C007916EE2406F508E43FF5098E828F83A3BA
:10407C00A3121AB88E828F83A3A3A3A3121AB88596
:10408C000882850983121AB8850E82850F83A3A333
:10409C0012374512088C7406121834E9F50D741693
:1040AC00650D706C850882850983E4F0A3F0050C1E
:1040BC009002EBE0F8E50CC3985066AA0C8A0875E0
:1040CC0009007403780812180B850A82850B83A3E8
:1040DC00A312418CE8FEE9FF8E828F83124142606D
:1040EC0040EA2401F508E43400F5099002EBE065A0
:1040FC00087002E509601488828983A3A3A3A3A393
:10410C00A3A3A3123774600302406C791802406EAB
:10411C00E9609B12486F741012186A124134123DF8
:10412C009CA90D7F08021960E0FAA3E0F5838A824E
:10413C0022F988828983124968EC4D2274F6121890
:10414C008E7C0080010C900348E0F8ECC398501E64
:10415C008C087509007402780812180B124181E062
:10416C006A7003A3E06B70DDE8FAE9FB80047A0067
:10417C007B000242249002E912418C8882898322BE
:10418C00E02508F8A3E03509F92274F212188E8A9A
:10419C00088B09750A0080278E828F83A3A3A3A3A3
:1041AC00122C9A60031213D27C087D007900EEFA6F
:1041BC00EFFB1210C08E828F83E4F0A3F0050A127D
:1041CC00404D5027850A0C750D007403780C12189D
:1041DC000B850882850983A3A3E0250CFEA3E0359B
:1041EC000DFF8E828F8312377470AD85088285091E
:1041FC008374FFF0A3F002495C74F612188E120857
:10420C00208A828B83E582458370067A007B00804E
:10421C0007A3A3A3A31237457F0202196074F412FB
:10422C00188E89088C828D83E06402703C124812CF
:10423C00FEA3E0F9EEF87402687003742969702922
:10424C00750A02750B00780A121AA1741012186AFA
:10425C00121AB8741012186A121AB8A9081212DCC1
:10426C007406121834E9F980027901022CD774E82B
:10427C0012188E74FB12181EE9852182852283F098
:10428C008A168B17ECFEEDFF7510008E828F83A3C0
:10429C00A3A3E0A2E4502D741D12186A1237451224
:1042AC00087A8A828B83E582458370030246B17952
:1042BC000AEEFCEFFDAA16AB1712188CE9F510608C
:1042CC00030246B4741F12186AE0F508A3E0F5095E
:1042DC00742112186AE0F50AA3E0F50B7423121886
:1042EC006AE0F50EA3E0F50F8E828F83E064026026
:1042FC0003024652A3124873850882850983A3855D
:10430C008212858313EE2406F50CE43FF50D8882AA
:10431C0089831246F1F514E439F5157814121B2B28
:10432C0001000028012854430700022819440328DF
:10433C00874300294845012973450229144503295F
:10434C0048450429EC455246E50E450F60030246EC
:10435C004D850C82850D83124873E8FAE9FB8A823D
:10436C008B83E0850A82850B831246FC121AA18A84
:10437C00828B83A3E0FCA3E00245D6E50E450F60DB
:10438C000302464D850A82850B837401F01246E6C2
:10439C00850882850983F07C007D008E828F83A343
:1043AC00A3A3A3E02401FAA3E03400FB120724EA40
:1043BC004B60408A828B83E02402F8850A82850B4D
:1043CC0083E028F0EA2404F8E43BF988828983E04E
:1043DC0085128285138312470A1246FC121AA18A8F
:1043EC00828B83A31246D9E5082403FAE43509FB32
:1043FC000245DB850A82850B83E02404F07C047D76
:10440C00007900AA12AB131210C00246B4E50E4597
:10441C000F600302464D1246E6FEA3E0FF850A82BA
:10442C00850B837404F0EE850882850983F0EF8593
:10443C001282851383F07403121884EEFAEFFB12C8
:10444C0007248A0C8B0DEA450D70030244F78A820F
:10445C008B83A3A31231107401121874880E890F68
:10446C00780E121AA1740512186A121AB87CFF7D04
:10447C00FF12072A74041218348B0FEA450F70339D
:10448C00850C82850D831246DD121AA1850C82855E
:10449C000D83A3121AB87C027D007AE37B8312058C
:1044AC001A7404121834E9700A740112186A74FF31
:1044BC00F0A3F08E828F83E064027039750C027564
:1044CC000D00780C121AA18E828F83A31246D9E5A7
:1044DC00082404FAE43509FB1210A87402121834EB
:1044EC00850A82850B83E024028009740112186A04
:1044FC00EEF0A3EFF0740112186A1246CB7401129D
:10450C00186A1246C2024647E50E450F6003024682
:10451C004D850C82850D83124961AA16AB171212B8
:10452C00E2850A82850B837402F0850882850983F3
:10453C00EAF0851282851383EB02464AE50E450F9D
:10454C00600302464D1246E6F8A3E0F9850A82851F
:10455C000B837402F0E8850882850983F0E98512E3
:10456C008285138302464A850C82850D831237455A
:10457C001210A2EAFAF8C3950EE4950F405CE865B8
:10458C000E450F70047A008021852182852283E0FC
:10459C00FCE50E2CFCE4350FFDC3EC98ED940050BB
:1045AC0003E08005E50ECAC39AFAEA850A82850BF8
:1045BC0083F08A0A750B00780A121AA1850C828581
:1045CC000D83E0250EFCA3E0350FFDAA08AB091204
:1045DC0010A874021218340246B47510070246B4BF
:1045EC00E50E450F705B850C82850D831248738533
:1045FC000A82850B837407F0888289831246C31262
:10460C0046BBE0851282851383F0E82402FAE43974
:10461C00FB8A828B831246CB8A828B831246C2A37F
:10462C00A3122CA21246D0F0E82405F850010988F8
:10463C008289831246D0A312470AA3A3A3A3F080B6
:10464C006775100B8062741D12186A1237451208B8
:10465C00208A828B83E5824583604A124873880CDA
:10466C00890DE8450D603E742512186AE0F5107846
:10467C0010121AA5780E121AA1780A121AA178082B
:10468C00121AA1740712186AE0F9EEFCEFFDAA16D3
:10469C00AB17850C82850D8312188C740712183495
:1046AC00E9F510800375100EA9107405023A08F094
:1046BC0088828983A322A3E085088285098322123C
:1046CC004711F022124711A3A3229002EF1249685E
:1046DC0022E0F50E750F00780E22850C82850D8375
:1046EC00123BABE022E0FAA3E0F8E4C8F9EA282296
:1046FC00F08A828B83E0F50A750B00780A22124649
:10470C00BB12471122E0850882850983A3A322747A
:10471C00EE12188E74FE12181E8A088B09ECFEED30
:10472C00FF890AAC21AD22EEFAEFFB1207248A0CAA
:10473C008B0DEA450D700302480385218285228387
:10474C001237451208208A828B83E58245837003D9
:10475C000247FEA3A3124873880E890FE8450F7019
:10476C00030247FE741412186AE0F510A3E0F51169
:10477C00E50AF50B780B121AA5741912186A121A9D
:10478C00B87810121AA1741B12186AE0F9AC0CADAF
:10479C000DAA08AB09850E82850F8312188C74053F
:1047AC00121834E9F50B705274FE650A604C850CD6
:1047BC0082850D83E064027041124812FAA3E0F97D
:1047CC00EAF87402687003742969702E851082856A
:1047DC0011831246F1F50CE439F50D780C121AA17F
:1047EC00EEFCEFFDAA08AB091208A47402121834EF
:1047FC008008750B0E8003750B01A90B740212183F
:10480C00347F0A021960A312487788828983E022D8
:10481C0074F612188E74FE12181E740C12186A128A
:10482C004873E8852182852283F0740112186AE9A5
:10483C00F0E4F508F5097808121AA1750802780851
:10484C00121AA17404121874880889097808121AAB
:10485C00A179FE12088C74061218347402121834E2
:10486C000242248E828F8312487722E0F8A3E0F96B
:10487C002274F712188EEAFEEBFF890890030612D9
:10488C0046D91212E2EA5402600BA908EEFAEFFBC9
:10489C00120718800279017F0102196074F2121854
:1048AC008E74FE12181EEAFEEBFF890A7401650A6B
:1048BC0060147402650A60030249577901120AB444
:1048CC00E96003024957EEFAEFFB12086EEA4B60FF
:1048DC0003120874A821A922880889097808121AD9
:1048EC00A17508027509007808121AA17508D5750A
:1048FC0009837808121AA17CFF7DFF7A017B0012D4
:10490C00071E74061218348038850882850983A323
:10491C00A3A3A3A3A3124961EEFAEFFB1212D6E4F0
:10492C00F50CF50D780C121AA1740212186A121AF1
:10493C00B87CFF7DFFAA08AB0912072A7404121871
:10494C00348A088B09E508450970BE7402121834C4
:10495C007F06021960123BAB12496822E0FCA3E00F
:10496C00FD2274F412188E8A088B09ECFEEDFF9070
:10497C001617E0F4604B7A097B001210CCEA4B60FE
:10498C00408A828B8374B1F0A3E41249D0F08A82FE
:10499C008B83A3A3E508F0A3E5091249D0A3EEF09D
:1049AC00A3EFF0740C12186A1248738A828B83A3DB
:1049BC00A3A3A3A3A3A3123D9C901617E0F9121076
:1049CC00D8022CD7F08A828B83A3A3A3A32274F0E2
:1049DC0012188E74FA12181E8908ECFEEDFF750978
:1049EC00008A0A8B0B780A121AE5000410024C1D7F
:1049FC004A3B4A554A6D4A8B4AA34AC64ADE4AF29A
:104A0C004A1C4B994BAA4BC14BDC4B024C024C320F
:104A1C004B740165086003024BFD8E828F83E0F8B6
:104A2C00C394034003024BFDE890174A024BD97420
:104A3C000265086003024BFD8E828F83125B5C90D3
:104A4C00174BE8F0A3E9024BD97401650860030227
:104A5C004BFD124C2A4003024BFDE8901373024BA2
:104A6C00D9740165086003024BFD8E828F83E0F8D8
:104A7C00C394054003024BFDE8901374024BD974A8
:104A8C000165086003024BFD124C2A4003024BFDEA
:104A9C00E8901375024BD9741065086003024BFD46
:104AAC00750A10750B00780A121AA17A767B13120C
:104ABC0010A87402121834024C23740165086003A8
:104ACC00024BFD124C2A4003024BFDE89013860268
:104ADC004BD9740165086003024BFD8E828F83E015
:104AEC0090174E024BD9740465086003024BFD8E7F
:104AFC00828F83780C1216D69083C4780C12150909
:104B0C005003024BFD901388780C1216E5024C23CF
:104B1C00E96003024BFD1206B2E970051212948093
:104B2C005690141B8063740765086003024BFD7577
:104B3C000A06750B00780A121AA18E828F83A3AC19
:104B4C0082AD83740212187C1210AE7402121834E7
:104B5C007C007D00AA21AB228E828F83E0F9121299
:104B6C0040E9F50AC3940A4003024C201206B2E94C
:104B7C00700CA90A12129A7950121456806E741C79
:104B8C00250AF582E43414F58374018040740165C0
:104B9C0008705E124C2A5059E8901387802F7401CC
:104BAC006508704D8E828F83E0F8C3940A5042E8FA
:104BBC0090174D80187401650870368E828F83E0D3
:104BCC00F874F928C3940A5028E890174FF08047DE
:104BDC0074016508701B90141AE0F88E828F83E0C4
:104BEC0090141AF0E87030E06401702B1212888077
:104BFC00267509188021C3EA9427EB94005015748C
:104C0C00026508700F8E828F831256E0120532E90E
:104C1C00F5098003750902A90974060250618E8298
:104C2C008F83E0F8C394022274F012188E74B112C0
:104C3C00181E8C0E8D0F9083287420121884740605
:104C4C001217317420121884121240E9F50B745F9C
:104C5C0012186AE0F50CE9C3940A4003024DB275D0
:104C6C00F006E9A4F50974411218847A0E74202513
:104C7C0009F9121450E97009744D12186AE0FE809B
:104C8C00027E0090174AE0640270057508018003EB
:104C9C007508007408650C70047422800274212558
:104CAC0009FF7C1B7D007900742612187C1210C041
:104CBC00EEA2E0E433F50A74261218847A1BEFF99D
:104CCC00121450E97025744012186AE024F9C39448
:104CDC000A50187808121AA57427121884A90AAA5F
:104CEC000EAB0F1205D474011218347C147D0079AC
:104CFC0000740C12187C1210C0740C1218847A10E8
:104D0C0074242509F9121450E970307C1079FF7461
:104D1C000C12187C121120E97021741C12186AAC48
:104D2C0082AD837A0474252509F9121450740C127F
:104D3C001884A90AAA0EAB0F1205BCAC21AD227ABD
:104D4C000C7470250BF9121450E97049AA21AB228E
:104D5C001212707F00EF75F003A4F8A9F085218280
:104D6C00852283E58228F8E5831254E51256DA6031
:104D7C001D88828983A3A3E0F508750900780812C1
:104D8C001AA1AA0EAB0F12089274021218340FEF6C
:104D9C00C3940440C0EEA2E1500C901372E0F9AA47
:104DAC000EAB0F1208987404650C702790174AE02C
:104DBC006402701F7A00901386E060010A901373EE
:104DCC00E06004780480027800E84AF9AA0EAB0F80
:104DDC001206887900744F02506174F512188E1205
:104DEC0006B2E9705190141BE06401701512129414
:104DFC0090141BE4F07C0AFDF97A1C7B141210C091
:104E0C00802C750A00850A08741C2508FEE43414ED
:104E1C00FF8E828F83E06401700BA90A12129A8EA6
:104E2C00828F83E4F0050AE50AC3940A40D77950CF
:104E3C001214561212887F0302196074F112188E24
:104E4C0074F012181E8A0C8B0D8C088D097E0AE9E1
:104E5C00600C14600914603A146075024F2D121224
:104E6C0082E9FEC3940A4003024F2DE50845097000
:104E7C0003024F2D750A06750B00780A121AA1ACA5
:104E8C000CAD0DAA08AB091210A87402121834024A
:104E9C004F2D7F00750A06750B00780A121AA1AC0B
:104EAC000CAD0DEF75F00EA4F8A9F0749428FA74FB
:104EBC001339FB1210BA7402121834E970090FEF8F
:104ECC00C3940A505C80CDEFFEC3940A50538042C9
:104EDC007F00AC21AD227A1075F006EFA42423F9E3
:104EEC00121450E9701C7C1079FFAA21AB2212110C
:104EFC0020E9700EAC0CAD0DAA21AB22120598E97D
:104F0C0060090FEFC3940A501880C7EFFEC3940AD0
:104F1C00500FE50845096009AA08AB09EEF9121211
:104F2C007CEEF974101218347F0702196074F412B5
:104F3C00188EE9FF7E1574FF6A700374FF6B70287E
:104F4C00750800EFFC7A027B00A90812125EE9607A
:104F5C00027E000508E508C3940A40E7EF604E7A2C
:104F6C00AC7B12120AD88045120AA88A088B09EA6F
:104F7C00450960387C007D00EA2405FAE43509FB1C
:104F8C00850882850983A3A3A3A3E0F9121240E943
:104F9C00C3940A500BEFFC7A027B0012125E7E0067
:104FAC00EF600AAA08AB091212AC80011EEEF902DE
:104FBC005D7774F212188E8C088D097E15740E12A2
:104FCC00186AE0F50AA3E0F50B74FF6A700374FF2E
:104FDC006B701D7F00AC0AAD0BAA08AB09EFF91280
:104FEC001264E960027E000FEFC3940A503B80E527
:104FFC00120AA88A828B83E5824583602B7C007D14
:10500C0000E5822405FAE43583FBA3A3A3A3E0F90E
:10501C00121240E9C3940A5010AC0AAD0BAA08ABAB
:10502C00091212647E0080011EEEF97F06021960DF
:10503C00C082C08390138CEAF0A3EBF0901372E063
:10504C00FC7D007A267B00120532901372E0F91277
:10505C0007FC025BBF1218347F0802196074F0124F
:10506C00188E74EC12181EEAFEEBFFEE2405F50EFA
:10507C00E43FF50FEE2409F50AE43FF50BEE2403AB
:10508C00F508E43FF5098E828F83A3A3E024FA7020
:10509C000302533B24FD7003025257147003025158
:1050AC003414601024FD700302522E14700302524B
:1050BC008E025341125F5F6047E0F5838882E0F512
:1050CC000EA3E0F50FE50E450F60351257EAE0F53B
:1050DC000C780C121AA5EE240BF582E43FF583E054
:1050EC00F9850A82850B831256E00A0A0AAB0985F8
:1050FC000E82850F8312188C7401121834025341DE
:10510C00850A82850B83121AB89013881216F41232
:10511C0005CE7402121834E97003025341790185EB
:10512C000A82850B83025305750A008E828F83A336
:10513C0085820C85830DE060030251F4850E828517
:10514C000F83E0A2E040030251F4901426125F6238
:10515C0060030251F47C0E7D007900AA21AB22126F
:10516C0010C01257EA125B8AEA4B6010750A06757A
:10517C000B00780A121AA1EA2410801B125B84120D
:10518C000AA8EA4B7003025341750A06750B0078A6
:10519C000A121AA1EA2405FCE43BFD740212187CE5
:1051AC001210A87402121834850E82850F83E0A2A7
:1051BC00E25004D2F08002C2F0A2F0E433F8740C96
:1051CC0012186AE048F0EEFCEFFDAA21AB22121295
:1051DC0076E970117A027B00901372E0F91210FCE0
:1051EC007900025343750A15125F5F700302534135
:1051FC00125B54E0FEA3E0FFEE4F700302534185B7
:10520C000C82850D83E0FC790112534812188CE551
:10521C000A7003025341FC7903125B84125B38025F
:10522C005336125F5F7003025341125B4D890BE8DA
:10523C00450B70030253418E828F83A3E0FC7902ED
:10524C00125B848882850B830253367C007D00EED2
:10525C002404FAE43FFB850882850983E0F91212E5
:10526C0040E9F8C3940A4003025341EE240AFCE4DB
:10527C003FFD7A0475F006E8A42425F912144A02BD
:10528C005341125B84901387E0600790174DE0F94F
:10529C00806A90174AE0700479058060120AA88A27
:1052AC000C8B0DA80CA90DE8497003025341E8249E
:1052BC0004F50CE439F50D8E828F83A3A3A3A3A36D
:1052CC00A3A3E0A2E0503A850C82850D83E0FE603A
:1052DC0030850A82850B83A3E054027024740E126D
:1052EC001884E82405FAE439FBEEF9121240E9704F
:1052FC00107903850882850983125B8A1205C880A0
:10530C0034AC0EAD0F850C82850D83E0F9125B84F5
:10531C001212B8125F5F601D125B4DE8FEE9FFEEE2
:10532C004F60127C00790012534812188C800612C0
:10533C005B8412123A7901741402506185088285DB
:10534C000983E0FAA3E0FB8E828F832274F4121897
:10535C008E74F212181EEAFE8C0975F006E9125BC7
:10536C002B121450E9704B7C0679FFAA21AB221248
:10537C001120E9703D740C12186A125B5CE8F50B95
:10538C00E5096005EE420B8004EEF4520B850B82AE
:10539C00AA82E86A7001E96015740C12186AEAF0C6
:1053AC00A3E4F0AC21AD227A0EA90812144A7901BB
:1053BC0080027900025D7274F212188E74E6121873
:1053CC001E89098A0C8B0DECFEEDFF740C121884EF
:1053DC007A0E75F006E9A42420F9121450E9600342
:1053EC000254A87C0679FF740C12187C121120E967
:1053FC0060030254A874702509F508AC21AD227A1B
:10540C000CF9121450E960030254A4AA21AB221225
:10541C001270E50C450D701D7C0C7900AA21AB2295
:10542C00121120E970727C0C7D007900AA21AB224C
:10543C001210C08051AC21AD22AA0CAB0D12126A15
:10544C008A0A8B0BA80AA90BE8497022EE4F604C14
:10545C00AC21AD227A007B0012126AEAF8EBF9EA71
:10546C004B603988828983E50CF0A3E50DF0125569
:10547C0021FAEE6A7001EF601FEEF04F700888821F
:10548C008983E4F0A3F0AA21AB22121270AC21ADF7
:10549C00227A0CA90812144A790180027900741A34
:1054AC0012183402503774F712188E7F00EF75F013
:1054BC0003A4F8A9F0EC28F8ED1254E5E06A7003A7
:1054CC00A3E06B7006E8FAE9FB800B0FEFC39404C2
:1054DC0040DB7A007B0002582139F98882898322CB
:1054EC0074F712188E7E00EE75F003A4F8A9F0EA9A
:1054FC0028F8EB1254E5E0F4FCA3E0F4FD88828973
:10550C0083ECF0A3EDF0125521F4F00EEEC39404ED
:10551C0040D5025821E82402F582E439F583E022D3
:10552C0074F412188E74F412181EEAFEEBFF8C0A37
:10553C008D0B901426125F62704FEE4F7003025663
:10554C00BBEC450B70030256BB121282E99017504C
:10555C00F0C3940A40337508007C0679FFE50875A2
:10556C00F00EA4FAABF0748E2AFA74133BFB1211F2
:10557C0020E960030256140508E508C3940A40D9D3
:10558C0075090AE509901750F0901750E0C3940A7A
:10559C0040030256BB75F006E0A4F8901426125B8B
:1055AC008AEA4B7069EEFCEFFD7A0E742028F91232
:1055BC00144A7C0C7D0079FFAA21AB221210C0ACDE
:1055CC0021AD227A0C901750E02470F912144A7510
:1055DC00080E7509007808121AA1EEFCEFFD901761
:1055EC0050E075F00EA4F8A9F0748E28FA741339F3
:1055FC00FB1210A87402121834901426E50AF0A3BA
:10560C00E50BF079000256BD85080902558F12563C
:10561C00C224061256D460197A1B742128F912146C
:10562C004A1256CB2406F582E438F583E4F0A380C5
:10563C00D11256C2240A1256D460107A1B74222836
:10564C00F912144A1256CB240A80DB1256C2240CCF
:10565C001256D460107A10742328F912144A125678
:10566C00CB240C80C11256C224081256D460347A52
:10567C0010742428F912144A1256CB2408F582E42B
:10568C0038F583E02410FCA3E03400FD7A0475F0B7
:10569C0006901750E0A42425F912144A1256CB2474
:1056AC0008808390141AE060031212C41212B279AB
:1056BC0001740C025D74901426E0F9A3E0C92290E9
:1056CC001426E0F8A3E0C822F582E439F5831256DB
:1056DC00E0EC4D22E0FCA3E0FD2274F412188E7471
:1056EC00F212181EEAFEEBFFE9C3940A5004EE4FC7
:1056FC00700479028034AC21AD227A0E75F006E983
:10570C00A42420F9121450E9F508701C750A0675CA
:10571C000B00780A121AA17402121884EEFAEFFB2D
:10572C001210A87402121834A908025D7274F412D3
:10573C00188EEAFEEBFF750800750A06750B0078EB
:10574C000A121AA1EEFCEFFDE50875F00EA4F8A9FB
:10575C00F0748E28FA741339FB1210BA74021218F2
:10576C0034E96004A908800B0508E508C3940A40D5
:10577C00C8790A025D7774F712188E750800E5086F
:10578C0075F00EA4F8A9F0748E28FE741339FFEE90
:10579C00FCEFFD7A0E75F006E508A42420F912142E
:1057AC0050E960237C067D0079FFEEFAEFFB1210C6
:1057BC00C07C067D0079FFEE2CFAE43FFB1210C092
:1057CC001257EAE4F0A3F00508E508C3940A40AECA
:1057DC0090141AE060031212C41212B28037EE2435
:1057EC000CF582E43FF5832274F712188E7E007F4D
:1057FC00007C0679FFEF75F00EA4FAABF0748E2ADC
:10580C00FA74133BFB121120E970010E0FEFC394D5
:10581C000A40DEEEF97F0102196074F712188E7ED1
:10582C0000EEF912129A0EEEC3940A5003E960F1DD
:10583C0080E374F312188E74CB12181EE9FF9017C4
:10584C0050E06F701B7A017B00901372E0F912111B
:10585C00027A027B00901372E0F91211021212D03C
:10586C00901751E06F70127A047B00901372E0F97C
:10587C00121102901751740AF075F006EFA4FE7421
:10588C00202EF50874271218847A0EA908121450C9
:10589C00E9600302595D7C0679FF742712187C12AB
:1058AC001120E9600302595D7C0E7D0079FF74279D
:1058BC0012187C1210C07C1B7D0079FF740C12181E
:1058CC007C1210C07C0C7D0079FFAA21AB22121037
:1058DC00C074271218847A0EA90812144AE9F50824
:1058EC00740C1218847A1B74212EF912144AE9F5DF
:1058FC000C740C1218847A1B74222EF912144AE9B7
:10590C00F50B740C1218847A1074232EF912144AA5
:10591C00E9F509740C1218847A1074242EF91214F7
:10592C004AE9F50A740C1218847A0474252EF912BB
:10593C00144AE9FEAC21AD227A0C74702FF91214C2
:10594C004AE9F8E50C450B4509450A4E48420880E2
:10595C0003750800A90874351218347F0502196004
:10596C0074F712188EE9901372F01212887A527B27
:10597C00171206E202582174F412188E74F21218DF
:10598C001EEAFEEBFF54807003025A46901372E03D
:10599C00F91210E48A088B09EA45097003025A3E91
:1059AC007801EA2404F50AE43509F50B8A828B8325
:1059BC00E02450603F14600624E16067806A850A29
:1059CC0082850B83E070648A828B83A3A3A3A3A339
:1059DC00A3A3121AB88A828B83A3A3A3A3A31256E0
:1059EC00E08A828B83A3A3125B8A12124C7402127C
:1059FC0018348037850A82850B83E0641E700E791B
:105A0C00008A828B83A3A3125B8A121246850A82B8
:105A1C00850B83E0F9E5082405FAE43509FB120748
:105A2C00F68008121258E9F8E86007AA08AB0912C8
:105A3C0010D2EEFAEF6480025B21EE54026016EE97
:105A4C006402FE7C007D007A007B00121276E97005
:105A5C00487A028046EEA2E0504E6401FE125B6270
:105A6C001212CAE96033125F5F6029125B4D88081D
:105A7C008909E84509601D7C007901125B62850883
:105A8C008285098312188C7C007903125B62125B8D
:105A9C003812188C1212D0800C7A017B0090137281
:105AAC00E0F91210FCEE806B5404606C901751E01E
:105ABC00C3940A505BE0F50975F006125B2B1214C7
:105ACC0050E970467C0679FFAA21AB22121120E91D
:105ADC007038750A06750B00780A121AA1E509755B
:105AEC00F00EA4F8A9F0749428FC741339FD740812
:105AFC0012186AAA82AB831210A87402121834AC62
:105B0C0021AD227A0EA90812144A901751740AF08A
:105B1C00EE6404FAEFFB80047A007B00025D72A451
:105B2C002420F508AC21AD227A0EF92290138C12A8
