:020000040000FA
:0600000002011A02294D65
:03002B00022EB0F2
:03003B00022F0F82
:03004300022E6A20
:030053000229C3BC
:03006B00022ED48E
:03007B00022E93BF
:100083000227A3E5C754F84401F5C779012200000C
:100093000080FB120086B90003020104E47924788E
:1000A30002B800028004F709D8FCE479267802B884
:1000B30000028004F709D8FCE490028178D6791A0B
:1000C3008002F0A3D8FCD9FA782390014A7A01BAC6
:1000D30000028007E493A3F608DAF97A567B1C90B2
:1000E300014B78E979018015E493A3AD82AE838A4D
:1000F300828B83F0A3AA82AB838D828E83D8E9D9C6
:10010300E77582C07583F3740312012C75829175B0
:100113008300740012012C75D00075813F75218115
:10012300752202759F00020096C09FF59FE473D06D
:100133009F22D083D082C09FE493C0E0740193C018
:10014300E0740293F59F2201C503D1030704010460
:10015300FF0000B4000028002800283075A000A08C
:1001630000A000A00000080008E001F0001000104B
:10017300001000100010001000500050005000103C
:10018300001000D0070000000000000F0001000570
:1001930000307507001000010081FF00000000FF20
:1001A300FFFF020202B38D010000A38D02AD8D019A
:1001B3000000B01C02A98D010000B80202AD8D0140
:1001C3000000B11C02AF8D010000CE02FFFF010051
:1001D300FF2002B38D010000A68D02AD8D0100004A
:1001E300DF1C02B98D000000000002AB8D0300008C
:1001F300FA021700F90BF90BF90BF90BF90BF90BD1
:10020300F90BF90BF90BF90BF90BF90BF90BF10DD1
:100213000F0EEB0DFFFFFFFFFF01E8030577100251
:100223000A6666C6400301010101FEFF0104FF00E7
:100233001201352DDE0312013540DE031201356153
:10024300DE03120135CCDE031201350DDF0312018B
:10025300352EDF031201356FDF0312013507E0038B
:100263001201354FE00312013527D5031201353A48
:10027300D5031201356BD503120135A5D503120140
:1002830035FED50312013545D6031201358DD6034C
:10029300120135BCD603120135EBD6031201352208
:1002A300D70312013569D70312013582D70312012F
:1002B30035D7D70312013505D8031201353FD803CB
:1002C30012013538B5021201353BB6021201356809
:1002D300B602120135B9B602120135DCB6021201BB
:1002E30035EEB602120135F1B6021201352FB7020F
:1002F300120135A3B7021201350FB802120135D727
:10030300B802120135F3B8021201352AB9021201FB
:100313003564B902120135FBB9021201354DBA0237
:100323001201357EBA02120135AFBA02120135BC91
:10033300BA0212013526BB0212013529BB02120192
:100343003536BB0212013539BB0212013590BB02AF
:1003530012013593BB02120135CCBB02120135CF1A
:10036300BB0212013503BC0212013506BC021201A5
:10037300355ABC02120135A3BC02120135B3BC02CB
:10038300120135E6BC02120135F3BC02120135F647
:10039300BC021201355EBD0212013560BE021201BC
:1003A3003504BF021201356DBF02120135ABBF0226
:1003B3001201357ADD0212013572DE02120135A611
:1003C300DE021201353CDF0212013587DF02120122
:1003D30035EBDF0212013575E0021201352EE10221
:1003E30012013550E402120135CDE502120135F058
:1003F300E50212013533B603120135D8B7031201F2
:1004030035F8B70312013519B9031201356CB90375
:1004130012013579BA03120135A1BA03120135CE9F
:10042300BA0312013506BB0312013564BB03120183
:1004330035B0BB0312013517BC0312013557BC039A
:1004430012013594BC03120135C2BC031201356C91
:10045300BD0312013576BD0312013583BD031201BD
:1004630035B6BD03120135C2BD03120135DABD0332
:10047300120135E4BD0312013511FF011201351FCD
:10048300FF0112013537FF011201354FFF01120140
:100493003566FF01120135008002120135AA800280
:1004A3001201352681021201354482021201358080
:1004B30082021201351B8302120135FF83021201EE
:1004C30035C284021201353A8502120135C886020B
:1004D300120135398702120135F38702120135E51E
:1004E3008802120135258902120135D989021201C8
:1004F300350B8A02120135018C02120135438C023D
:10050300120135618C02120135E68C02120135AA03
:100513008D02120135C98F0212013550C603120133
:100523003566C60312013584C60312013595C70328
:100533001201359FC703120135CAC803120135C121
:10054300C9031201352ECA031201357BA803120118
:10055300351FA90312013556A903120135A0A903BA
:100563001201355FAB03120135CFA30112013580B0
:10057300A4011201359CA40112013565A5011201E4
:10058300357FA5011201358AA50112013560A60147
:100593001201353DA701120135CDA70112013584A2
:1005A300A80112013592AB0112013581AD0112018F
:1005B3003533AE01120135FCAE0112013541B201F2
:1005C300120135EBB20112013514B401120135D019
:1005D300B50112013570B601120135BEB601120123
:1005E30035FDB601120135D0B70112013504B8014A
:1005F30012013591B80112013510CF011201359C5A
:10060300CF0112013500D1011201350CD1011201C4
:100613003547D101120135B6D101120135BFD201DF
:10062300120135C8D3011201358FD401120135EC03
:10063300D5011201350AD60112013527D60112015F
:1006430035F2D6011201351AD701120135E4D90169
:10065300120135E9D90112013502DC0112013550CD
:10066300DC01120135C0DC01120135FEDC0112018F
:1006730035DADD011201359ADE01120135E6DE01BC
:10068300120135E9DE011201352DDF011201357545
:10069300DF01120135B4DF01120135D6DF0112018A
:1006A300350AE0011201356DE0011201356295034F
:1006B3001201356B9503120135799503120135CC7F
:1006C3009503120135EB95031201353096031201A0
:1006D300357497031201350F9803120135539803AC
:1006E3001201357D9803120135EC9803120135325E
:1006F3009903120135A999031201355A9A0312017C
:1007030035842F00120135942F0012013535300046
:100713001201359130001201354E31001201356A54
:1007230032001201359C3200120135CB3200120126
:1007330035783400120135EF36001201355F390088
:10074300120135513A001201354A3B00120135516D
:100753003D0012013545400012013574410012017C
:1007630035784300120135884400120135174600DD
:10077300120135084700120135564700120135C5ED
:100783004700120135E947001201353A48001201CA
:1007930035DB4C00120135DC4D001201353D4E00B6
:1007A300120135684E001201352E4F0012013563D8
:1007B300C2031201356DC203120135B2C203120125
:1007C30035C6C20312013556C3031201357EC30376
:1007D300120135B9C303120135E2C3031201351601
:1007E300C4031201352BC40312013596C40312014D
:1007F30035B7C403120135CBC403120135E0C4037A
:100803001201351AC5031201357FC503120135C222
:10081300C503120135ECC50312013528C6031201C5
:1008230035F2EA0312013548AA021201352BAB0255
:10083300120135A6AB02120135E1AB0212013532CA
:10084300AD02120135BBAD02120135D3AF02120165
:100853003565B20212013517B30212013536B402FF
:100863001201358FB4021201353F90031201358214
:100873009003120135069103120135D99103120138
:1008830035B094031201358FDB031201353CDC03D1
:1008930012013549DD0312013588DD03120135E20A
:1008A300DD03120135237E00120135867E0012011D
:1008B30035237F00120135517F00120135727F000D
:1008C300120135AD7F00120135CD7F001201356C69
:1008D3009A03120135F89A03120135B79B031201EB
:1008E30035CF9C03120135E99E0312013529CA0253
:1008F3001201354ECA0212013522CB021201358F85
:10090300CB02120135E5CB0212013581CC02120173
:1009130035B5CD0212013590CE02120135EFCE026C
:10092300120135C0CF021201354CD0021201354FEE
:10093300D00212013599D0021201350BD1021201F6
:1009430035B6D102120135D6D1021201351ED202BB
:100953001201353AD202120135B4D202120135C264
:10096300D20212013551D302120135BAD302120158
:100973003516AD031201359BAD03120135DDAD0311
:10098300120135C1AE031201352EAF0312013572C8
:10099300AF03120135B6AF03120135E3AF03120102
:1009A300350BB00312013543B00312013581B00397
:1009B300120135A8B00312013522B1031201356CBF
:1009C300B103120135E16700120135AE690012016E
:1009D300359C6B00120135F06B001201351B6C0066
:1009E300120135C96C00120135F96C00120135286A
:1009F3006D001201353B6D001201357C6D00120153
:100A030035A86D00120135F66D001201352D6E000B
:100A1300120135796E00120135D86E001201356B63
:100A23006F00120135557000120135447100120137
:100A330035EF72001201350E780012013567780028
:100A4300120135507A001201351F7C00120135A1C5
:100A53007C00120135EF7D00120135007E0012018A
:100A63003568FD0212013553FE0212013596FE026E
:100A7300120135E5FE0212013536FF0212013587F8
:100A8300FF021201359A4F001201351B500012016B
:100A93003548500012013591500012013592510032
:100AA300120135E151001201355D5300120135DFAA
:100AB30053001201353C54001201358F54001201CA
:100AC300357E5500120135135700120135DD5700ED
:100AD300120135ED57001201351758001201351A6E
:100AE3005800120135FD5800120135E85900120172
:100AF30035955A00120135F25A001201354B5B004D
:100B0300120135AF5B00120135575C00120135F35A
:100B13005C00120135805D00120135F55D001201A4
:100B230035515E00120135B05E00120135D75E000B
:100B33001201359C5F00120135886100120135D125
:100B43006100120135016200120135746200120165
:100B530035FA6300120135AA6400120135CF64002F
:100B63001201350E65001201352365001201356649
:100B73006500120135D665001201352066001201A9
:100B8300352A6700120135AB6700120135DDD30248
:100B930012013528D40212013534D402120135086A
:100BA300D5021201351FD5021201355CD50212019F
:100BB300358DD502120135C5D5021201351BD6027A
:100BC30012013531D6021201356DD602120135807C
:100BD300D602120135A7D602120135DBD602120165
:100BE3003501D8021201354BD90212013547DA0219
:100BF3001201355DDB02120135EE7F001201351261
:100C03008B03120135C08E03120135F48F031201D9
:100C130035639E021201351CA10212013522A10285
:100C2300120135D3A3021201352DA602120135207C
:100C33009F03120135B79F0312013575A0031201FB
:100C4300359FA003120135D5A203120135C08D01D2
:100C5300120135FB8D011201354F9801120135BB8D
:100C63009901120135B89A011201353D9E01120115
:100C730035329F011201357E9F01120135989F0184
:100C8300120135D99F01120135E29F0112013594FA
:100C9300A00112013564A101120135ABA1011201BA
:100CA3003511A20112013583A201120135EBCD03E7
:100CB30012013581CE0312013597CE03120135F0AF
:100CC300CE0312013534CF031201356ECF03120167
:100CD3003506D00312013575D0031201357ED003DA
:100CE3001201358AD003120135A4D003120135CE87
:100CF300D003120135E3D00312013545D1031201AC
:100D0300356CD10312013542F7021201354FF70258
:100D130012013569F7021201359CF702120135DA27
:100D2300F7021201353FF80212013554F80212019D
:100D3300356BF80212013579F80212013588F80291
:100D43001201359DF802120135B2F802120135BDC8
:100D5300F802120135C9F802120135D6F802120160
:100D630035E5F802120135F0F80212013515F902E2
:100D7300120135B9F902120135CEF902120135E338
:100D8300F902120135FDF9021201351AFA021201B4
:100D93003537FA0212013542FA02120135EEFA0230
:100DA300120135CFFB02120135F4FB02120135FFAC
:100DB300FB0212013514FC0212013528FC02120158
:100DC3003589FC021201358FFC0212013595FC02B4
:100DD3001201359BFC02120135B3FC02120135E608
:100DE300FC02120135D1BF02120135F3BF02120119
:100DF30035BBC00212013575C3021201358BC40223
:100E0300120135ACC50212013586C6021201353511
:100E1300C7021201358EF10112013525F2011201CB
:100E230035BDF201120135ADF301120135E4F301D1
:100E3300120135F7F30112013565F4011201350092
:100E4300F60112013527F601120135C9F601120127
:100E530035FEF6011201350FF70112013588F7014E
:100E6300120135A9F701120135C1F7011201351934
:100E7300F90112013522FB0112013572FD01120144
:100E83003575FE01120135C4FE01120135D68F02FC
:100E9300120135D39002120135BE9102120135C8F9
:100EA3009102120135EA9102120135F69102120103
:100EB30035489302120135779302120135A7940244
:100EC300120135E99402120135159602120135EB30
:100ED30096021201353D97021201359C97021201C9
:100EE30035D397021201350E9802120135A99B02E0
:100EF300120135C29B02120135449C021201355284
:100F03009C02120135A79C02120135B59C02120105
:100F130035229D02120135949D02120135DA9D029C
:100F23001201356BE60312013590E6031201350118
:100F3300E70312013543EF021201354CEF021201B0
:100F43003555EF0212013586F002120135A5F20282
:100F5300120135DBF20212013515F3021201354B92
:100F6300F30212013585F302120135B9F3021201BE
:100F730035E5F3021201352EF40212013568F4024D
:100F8300120135B0F40212013506F5021201353BA8
:100F9300F50212013596F502120135D0F502120160
:100FA3003521F60212013557F60212013591F60288
:100FB300120135B4F60212013523F0031201354F45
:100FC300F003120135AAF003120135B4F003120144
:100FD30035C4F003120135A98503120135B3850326
:100FE300120135F185031201353A86031201357476
:100FF3008603120135CE8603120135EF86031201F3
:1010030035F88603120135498703120135728703C8
:10101300120135878703120135F8870312013586DC
:101023008803120135C38803120135F388031201C3
:1010330035778903120135B78903120135EF890327
:10104300120135018A03120135208A031201352961
:101053008A03120135E88A0312013529EF031201CD
:1010630035A7D803120135EBD80312013521D90373
:1010730012013509DB0312013563DB031201356C01
:10108300DB0312013575DB03120135CEF0031201C8
:1010930035E4F003120135EEF00312013544F10398
:1010A300120135ACB103120135C5B1031201356923
:1010B300B203120135A9B203120135C2B203120100
:1010C30035F6B20312013543B30312013577B30387
:1010D300120135B9B303120135B9B503120135262F
:1010E300B60312013504F303120135A8E903120113
:1010F30035DFE90312013504EA031201351BEA0364
:1011030012013537EA031201354EEA031201358A1B
:10111300EA03120135BEEA03120135A9E203120103
:1011230035C5E20312013542E3031201355EE303E1
:10113300120135C1E30312013562E40312013500E4
:1011430080031201353F8003120135C88003120169
:1011530035DD8003120135288103120135678103D0
:101163001201357681031201352B82031201358476
:101173008203120135D38203120135268303120140
:10118300353B840312013534850312013571850320
:1011930012013563F30312013587B901120135FDDD
:1011A300BB0112013575BD01120135D6BD01120116
:1011B3003575BE0112013567BF01120135ECBF0160
:1011C30012013568C0011201358DC0011201355677
:1011D300C301120135CAC301120135B6C40112019C
:1011E30035F0C40112013530C501120135EAC601DB
:1011F3001201351BC7011201356EC701120135B744
:10120300C70112013525C80112013557C801120162
:10121300356FC80112013584C90112013594C90122
:10122300120135F9CA0112013519CB011201354FEB
:10123300CB01120135FCCC011201357CCD01120129
:1012430035BBCD01120135E2CE011201358FE40326
:10125300120135ECE403120135AFE503120135CE7B
:10126300E50312013524E60312013572F10312017D
:101273003582F10312013518F40312013557F403D3
:1012830012013506EC0312013539EC031201354323
:10129300EC03120135FEEC03120135DB7F00120172
:1012A3003519ED0312013529ED0312013544ED0320
:1012B30012013518EE0312013525EE03120135AA8A
:1012C300EE0312013510EF03120135A0F2031201F0
:1012D30035BAF203120135CBF203120135D2A3035F
:1012E300120135E6A3031201355FA4031201353859
:1012F300A503120135F6A7031201353BA80312011A
:101303003568A80312013538CA0312013551CA03DF
:101313001201356CCA031201357DCA031201358EE1
:10132300CA0312013506CB03120135ECCB031201BC
:101333003539CC0312013563CC0312013589CC0353
:10134300120135AFCC03120135F7CC03120135433B
:10135300CD0312013568CD0312013582CD0312018D
:1013630035AECD03120135C5CD03120135F87F002B
:101373001201357AE003120135FFE10312013560F2
:10138300E203120135A6E20312013572BE03120114
:10139300350DBF03120135C1BF0312013581C003EF
:1013A300120135F3C00312013522C1031201353294
:1013B300C1031201359FC1031201352EC20312016D
:1013C3003542C2031201354CC20312013560C20318
:1013D30012013561F4031201358AF4031201354514
:1013E300E101120135EAE20112013555E40112016E
:1013F300356AE50112013519E601120135F5E601F9
:10140300120135E4E701120135E7E8011201356203
:10141300E9011201358FE901120135AAE90112012F
:10142300353BEA0112013577EA0112013591EA01F0
:101433001201358CED01120135C4ED01120135C7DE
:10144300ED0112013514F1011201350FF2031201FE
:10145300357AF20312013585F20312013595F20351
:1014630012013521E80312013576E803120135E450
:10147300E80312013554E9031201359AD10312012D
:1014830035C4D103120135BED203120135E3D203B1
:101493001201357AD303120135FCD303120135133C
:1014A300E702120135D0E7021201350BE8021201FF
:1014B3003533E80212013595E802120135E1E802FD
:1014C3001201353AE902120135CBE902120135CD99
:1014D300EA021201358AEC021201350CED02120107
:1014E3003571ED0212013588ED0212013598EE02D5
:1014F300120135D6EE02120135A2F403120135D9D9
:10150300FF02E066701008A3E066700A08A3E066B5
:10151300700408A3E06622C3E7960809E796080962
:10152300E7960809E79622C3E09608A3E09608A386
:10153300E09608A3E09622C008C3E096F50808A346
:10154300E096420808A3E096420808A3E0964508FF
:101553007001D3D00822E9799EC608CAC608CBC653
:1015630008CCC6C370207996CACBCC7019798ECBC0
:10157300CC70137986CC700EF9802ACA33CACB3368
:10158300CBCC33CC331930E7F2CCCBCA3350147005
:1015930004EA30E00DE4CA3ACACB3BCBCC3CCC5096
:1015A3000209C3E913C6CC182313C6CB18C6CA183D
:1015B300C6F9221215F620F01430E72B74FFFCFB5A
:1015C300FA747F8022E4FCFBFA7480801AB48008EA
:1015D300BC00F2BB00EF800F50EBF9E4C39AFAE4CE
:1015E3009BFBE49CFCE499C6CC18C6CB18C6CA186E
:1015F300C6F922E4C9C608CAC608CBC6D333030852
:10160300CCC63392F0C3947F402E94184019C9B9C5
:101613000704CACBCC225025C309CA33CACB33CB68
:10162300CC33CC33D9F422F4600DC9CCC313CB1320
:10163300CBCA13CAD9F6CC22E4FCFBFA2214FCFB76
:10164300FA22E62618461846184622E727194719AC
:1016530047194722181818E60846087009E62608AD
:101663007005E633F4220822191919E709470970AE
:1016730009E727097005E733F4220922E60846083B
:10168300C3134608336002E633F422E7094709C36C
:10169300134709336002E733F4220012167F604FC9
:1016A30012168E6012E7548066F6121657701112E6
:1016B300164E703B090909F4F618F618F618F622C7
:1016C30012166B701512164508080860EAE6447F87
:1016D300F618768018E4F618F622121645601612EC
:1016E300164E7012E4F608F608F608E65480F6097A
:1016F300090918181822EAC0E0EBC0E0ECC0E0EDDD
:10170300C0E0E687F0A4FBACF008E687F0A42CFC6D
:10171300E435F0FA1809E687F0A42C4B6002740153
:10172300CA35F0FCE433FB09E687F0D2F7A42CCBEF
:1017330035F0FC1908E687F0A42BCC35F0FBE43335
:10174300FD0819E687F0D2E7A42C4ACB35F0CD3457
:1017530000FC09E687F0D2E7A42DCC35F0FDE43395
:10176300FA0918E687F0D2F7A42CCD35F0CA340075
:10177300FC08E687F0D2E7D2F7A42ACC35F07A7ECC
:1017830020E70B0ACB33CBCD33CDCC33CC33CB33A8
:1017930050147004ED30E00ED2F1E4CD3DCDCC3CDD
:1017A300CC3B5005DA05C2F1EB547FC63308E63370
:1017B30092F0FBE73309E733C39A502D2B70190CD2
:1017C3000D4C4D70151806E608C333700D20F10A51
:1017D300A2F013F6E418800B4024E4F630F002760E
:1017E3008018F618F618F68024D33B14501074FFB3
:1017F300A2F013F6187680E418F618F6800FA2F01C
:1018030013F618E63303F618ECF618EDF6D0E0FD00
:10181300D0E0FCD0E0FBD0E0FA2212167F601D126C
:10182300168E7005191919801A121657701F121681
:101833006BC37003E6673319191940071818182288
:1018430008080874FFF618F618F618F62212166B35
:10185300601712164E702192F01216457019501728
:1018630020F014080808090909E7F61819E7F6181B
:1018730019E7F61819E7F62212164560E6E86970CB
:101883001F0808E62480F608E436F618547FB47F70
:101893000CE654806007F6E418F618F622181822AE
:1018A300E9C6CC08C6CD08C6CE08C6CFC0E0E8C09E
:1018B300E0EAC0E0EBC0E009E9F809E7FA09E7FB71
:1018C300E6F918E6F8C3EC98ED99EE9AEBC2E7F562
:1018D300F0EFC2E795F0500E600CEBCFFBEACEFAC7
:1018E300E9CDF9E8CCF8EAA2E7D2E7FAEB33FB1348
:1018F300F5F0EEA2E7D2E7FEEF33FFC5F013A2E760
:1019030030E601B313C5F0C3C0E0C0F07F00C39B52
:10191300FB605E9418600F401D14601AD0E023F939
:10192300D0E0F80219FE8AF0E9486003D2F0E4AF90
:10193300F0FAF9F8803BEB30E40D89F0EA6003D26A
:10194300F0E4AFF0F9CAF8EB30E30D88F0EF600292
:10195300D2F0AFF0E4CAC9F8EB54076014FBC3EA52
:1019630013FAE913F9E813F8EF135002D2E0FFDB9F
:10197300EDD0E0C0E030E739C3E49FFFF5F0EC9829
:10198300FC42F0ED99FD42F0EE9AFE42F0D0E0F910
:10199300D0E0F8E5F0607AE923F9EE20E742D802D7
:1019A3008067C3EF33FFEC33FCED33FDEE33FE8092
:1019B300EAEC28FCED39FDEE3AFED0E023F9D0E065
:1019C300F84002801BC3EE13FEED13FDEC13FCEF96
:1019D300135002D2E0FF08B800067F7F74FF802E09
:1019E300EF3350178CF020F00260100CBC000C0D8C
:1019F300BD00080EBE000408E860DFE933E813FF0A
:101A0300EE2313FE4F4D4C8008E95480FFE4FEFDA6
:101A1300FCEE33EF33F47004FCFD7E80D0E0FBD0AA
:101A2300E0FAD0E0F8D0E0CFC618CEC618CDC6187D
:101A3300CCC6F92212167F70041818182212168EBB
:101A4300700D74FFF61819F61819F61819F622E72F
:101A5300548066F6121645700F12164E70F014F687
:101A630008F608F608F680D112164E700CF608F642
:101A730008768008E6447F80EC12166E700C12160E
:101A83005A60BFE65480F6E480BB12165A700519FB
:101A9300191980A5E869700C763F18768018F61836
:101AA300F6E8F922E6CDC0E018ECC0E0E633CD332A
:101AB300CDD313F6E719FCE7191933CC33C3947F5D
:101AC300400ECD9D502408E65480F6E418F6800FAE
:101AD300F4043D14501408E6447FF6187680E418A5
:101AE300F618F6D0E0FCD0E0FD22CCD313CCFD18E1
:101AF300E4C6CBC0E018E4C6CAC0E00808ED08C6D7
:101B030033E613F618E433C675F003C3CA97CA095C
:101B1300CB97CB199C40047D08802EBD0003021B8C
:101B2300E016B6FF050606081618C3CA33CACB3338
:101B3300CB33CA27CA09CB37CB193CC37D08803EB8
:101B4300187D0820E75CC633C6CA33CACB33CB3310
:101B5300DDF1D5F0EB30E77BCA97CA09CB974ACBC7
:101B6300199C406F4B7025E620E0218066187D08A4
:101B7300C3CA97CA09CB97CB199CD3C633C6CA33FA
:101B8300CACB33CB3350C9DDE7D5F0E1D3E4C63656
:101B9300C608C636C608C636C608C636C6181818D6
:101BA3008031C3CA97CA09CB97CB199CB34097C658
:101BB30033C6CA33CACB33CB33DD34D5F02EC6A2FA
:101BC300E0C640C8CA27CA09CB37194A70BECB3C06
:101BD300B480B90808E63308E633601F181818D034
:101BE300E0FAD0E0FBD0E0FCD0E0FD22187D08CA8B
:101BF30027CA09CB37CB193CD3808013F618E4B638
:101C03007F11F618B6FF0EF618C60470D2080876D0
:101C13008080CAF618F618F680C5080808EAC0E0FE
:101C2300EBC0E086F0E7A4FA180986F0E7A42AFAE5
:101C3300180986F0E7A42AFA180986F0E7A42AFA15
:101C43001986F0E7A4FBE5F02AFA190886F0E7A461
:101C53002BFBE5F03AFA190886F0E7A42BFBE5F035
:101C63003AFA18180986F0E7A4C5F02BFBE43AFA10
:101C73001908E7C5F0C6A426F6E5F03BFBE43AFAFB
:101C83001886F0E7A4F6E5F00826F6E43B08F6E448
:101C93003A08F6D0E0FBD0E0FA22E4CFC0E0E4CE8D
:101CA300C0E0E4CDC0E0E4CCC0E075F020E626F669
:101CB30008E633F608E633F608E633F6181818ECA8
:101CC30033FCED33FDEE33FEEF33FFC3EC9709ED49
:101CD3009709EE9709EF97191919400FFFEC97FC35
:101CE30009ED97FD09EE97FE191906D5F0BFECF73C
:101CF30009EDF709EEF709EFF7191919D0E0FCD050
:101D0300E0FDD0E0FED0E0FF226016080808C6C35D
:101D130013C618C613C618C613C618C613C6D5E00D
:101D2300EA227009080808226016181818C6C33377
:101D3300C608C633C608C633C608C633C6D5E0EAE6
:101D430022E627F60809E637F60809E637F6080912
:101D5300E637F622E026F608A3E036F608A3E036D7
:101D6300F608A3E036F622E026F008A3E036F008F2
:101D7300A3E036F008A3E036F022C3E697F608099D
:101D8300E697F60809E697F60809E697F622C3E010
:101D930096F008A3E096F008A3E096F008A3E09677
:101DA300F022E657F60809E657F60809E657F6085B
:101DB30009E657F622E056F608A3E056F608A3E034
:101DC30056F608A3E056F622E056F008A3E056F0D4
:101DD30008A3E056F008A3E056F022E066F608A355
:101DE300E066F608A3E066F608A3E066F622E0F6EE
:101DF30008A3E0F608A3E0F608A3E0F622E6F0085D
:101E0300A3E6F008A3E6F008A3E6F022E0FAA3E0D5
:101E1300FBA3E0FCA3E0FD22EAF0A3EBF0A3ECF0CC
:101E2300A3EDF022E0F8A3E0F9A3E0FAA3E0FB229C
:101E3300E8F0A3E9F0A3EAF0A3EBF022CAC0E0E6DE
:101E4300F0A308DAFAD0E0FA22CAC0E0E0A3C58220
:101E5300CCC582C583CDC583F0A3C582CCC582C55D
:101E630083CDC583DAE6D0E0CA22C3E498F8E499C7
:101E7300F9121EAE8026C3E49AFAE49BFBE920E73D
:101E8300E9121EAEE498F8E499F922C3E498F8E461
:101E930099F9121EAEE498F8E499F9C3E49AFAE4C6
:101EA3009BFB22EB20E7CFE920E7E0B90010BB0062
:101EB30008E88AF084F8AAF022E4FBC8FA22EB705F
:101EC300227B10C833C8C933C9335007C39AC3DB55
:101ED300F280069A50012ADBEAC833F4C8C933F406
:101EE300C9FA2275F008E4C833C8C933C933C99A9B
:101EF300C99B5004C92AC93BD5F0ECFBC833F4C8CD
:101F0300E4C9FA22600D08C6A2E713C618C613C6B1
:101F1300D5E0F322600C08C6C313C618C613C6D592
:101F2300E0F422700422600D18C6C333C608C6331A
:101F3300C6D5E0F41822252110AF08F521400C1571
:101F4300228008F52140021522D2AF2200C0D025FD
:101F53002110AF08F521500C05228008F52150020D
:101F63000522D2AFD0D0222521F58210AF08F5216A
:101F7300400C15228008F52140021522D2AF85229C
:101F830083222521F582E43522F583222521F8E4F5
:101F93003522F9222521FAE43522FB222521FCE40E
:101FA3003522FD22E4732521C582C0E0E52234FFFA
:101FB300C583C0E0E521C3958224F810AF0885836B
:101FC300228582218008858322858221D2AFCEF0AB
:101FD300A3E520F0A37808E608F0A3DEFAEFF0A368
:101FE300E58124FAF8E608F0A3E608F0A3E608F092
:101FF300A30808E608F0A3E608F0A315811581D02D
:10200300E0FED0E0F8158115811581E8C0E0EEC04F
:10201300E0222521C582C0E0E52234FFC583C0E06C
:10202300E521C3958224F910AF0885832285822197
:102033008008858322858221D2AFCEF0A3E520F0EC
:10204300A37808E608F0A3DEFAEFF0A3E58124FB0A
:10205300F8E608F0A3E608F0A30808E608F0A3E60C
:1020630008F0A315811581D0E0FED0E0F8158115A5
:1020730081E8C0E0EEC0E022852283852182E0A3CF
:10208300FEE0A3F5207808E0A3F608DFFAE0A3FF5B
:10209300E0A3C0E0E0A3C0E0E0A3C0E0E0A3C0E0B1
:1020A300E0A3C0E010AF08858221858322800885E4
:1020B3008221858322D2AFD083D08202013285224E
:1020C30083852182E0A3FEE0A3F5207808E0A3F650
:1020D30008DFFAE0A3FFE0A3C0E0E0A3C0E0E0A3D1
:1020E300C0E0E0A3C0E010AF088582218583228091
:1020F30008858221858322D2AFD083D08222C0D0AB
:102103002521C582C0E0E52234FFC583C0E0E52177
:10211300C3958224F310AF0885832285822180082A
:10212300858322858221D2AFC8F0A3E9F0A3EAF028
:10213300A3EBF0A37908E709F0A3D8FAECF0A3ED39
:10214300F0A3EEF0A3EFF0A3D0E0F0A3D0E0F0A370
:10215300D0E0F0A3E520F0A3E5F0F0A322852283ED
:10216300852182E0C0E0A3E0F9A3E0FAA3E0FBA3AA
:102173007808E0F608A3DFFAE0FCA3E0FDA3E0FEA5
:10218300A3E0FFA3E0C0E0A3E0C0E0A3E0F5D0A399
:10219300E0F520A3E0A3F5F010AF08858322858244
:1021A300218008858322858221D2AFD082D083D03B
:1021B300E0F8D0E03274048006740280027401C037
:1021C300E0F404121F6AD0E0121E3F22740480045C
:1021D30074028000CCC0E0EDC0E0E521C39CCCAD2F
:1021E3002250011D10AF068C218D2280068C218D7B
:1021F30022D2AF121E4CD0E0FDD0E0FC22D083D01F
:1022030082E9C0E0E493A3C386F0C5F095F0F90832
:10221300E493A386F0C5F095F0700BE493A3C39900
:102223004005E9048002A3E475F002A42582F58247
:10223300E5F03583F583D0E0F9E493A3C0E0E493BC
:10224300C0E022D083D082ECC0E0EDC0E0E493A3F1
:10225300FCE493A3FDED4C600D122292EC24FFFCF1
:10226300ED34FFFD80EFE493A3FCE493A3FDED4C79
:10227300600D1222D1EC24FFFCED34FFFD80EFD082
:10228300E0FDD0E0FCE493A3C0E0E493C0E022C00F
:10229300E0C3E49396087401939618400FE49366A1
:1022A300700808740193661870007019A3A3C3E43F
:1022B3009396087401939618A3A3400DD0E0D0E041
:1022C300D0E0022282A3A3A3A3A3A3D0E022C0E071
:1022D300C0F088F0E4936670080874019366187080
:1022E30000A8F0A3A3700BD0F0D0E0D0E0D0E002C0
:1022F3002282A3A3D0F0D0E02274F6122015EAFEC6
:10230300EBFF8C088D09EE2434F8E43FF9E8FCE98F
:10231300FDEE24351225F1FAEE24371225F1F88566
:1023230008F0A4C885F00A8509F0A4250AF9EA286B
:10233300F8E439F97A257B00121EAEEA8C828D838C
:10234300F0FA131313541FF8EE28F8E43FF9E824C6
:102353005DF582E439F583E0C0E074075AF8D0E014
:10236300B800028004C313D8FCA2E0EE5008243462
:10237300F582E43F801824361225F1F5F0EA84A8AB
:10238300F0EE28F8E43FF9E82438F582E439F583E0
:10239300E0F97F030220C174F7122015EAFEEBFF78
:1023A300EE24341225F1C0E0EE2435F582E43FF546
:1023B30083D0E0F08E828F83A3A3A3A3A3A3A3C0A0
:1023C30082C0838E828F83A3A3A3A3A3122462D08C
:1023D30083D082E0C398F508A3E099F509EE247F42
:1023E3001225F16401705DEE248012245C8E828FCD
:1023F30083A3A3A3A3A3A3A31227948E828F83A350
:10240300A3A3A3A3E0FAA3E0FBC3EA9CEB9D5010B4
:10241300C3EC98ED99402DC3EA98EB995026800EB2
:10242300C3EA98EB994007C3EC98ED9940167CBD3D
:102433007D06EEFAEFFB120B2DEE247FF582E43FCF
:10244300F583E4F0AC08AD09EEFAEFFB1222FCE9E8
:10245300F9122E567F020220C1F582E43FF583E094
:10246300F8A3E0F92274EF122015900369E06408E1
:102473006005E06407702A9061C8E06024900397C8
:10248300E0F4601DE0F875F00CA4C8AAF02AF97412
:102493009928FE740339FF8E828F83A3A3A3E07070
:1024A30003022576906060E0C0E0EE2468F582E4E4
:1024B3003FF583D0E0F0750CF9750D0675080075CE
:1024C3000900E5D914F50AE5D95403F50E60127431
:1024D30003650E6043E50A600AEE24671225F17076
:1024E3000280759006F4E06401601F1225EE60041B
:1024F3007A0480027A00E50AC39AFA95E0FB12098E
:10250300D78A088B09EA45097005120DC780641242
:1025130025EE70048A0C8B0DE50A6012850C82850A
:102523000D83F50BE5D9F0A3150BE50B70F612251A
:10253300EE604474FC250AF50A780C1221BCAC0A3F
:10254300A90EEEFAEFFB120BF37402121F4FE970A0
:1025530026AA08AB09121469793D8E828F83A3A33F
:10256300A3A3E0FA7B00120851EEFAEFFB120B5122
:10257300120C537900806F7403650E6051850A1045
:1025830075110078101221BCAC0CAD0DAA08AB0973
:10259300120BB77402121F4FEE24681225F16480E8
:1025A3007004747F8001E0F50C780C1221C0E50EF5
:1025B300F50C780C1221C0A90AAC08AD0990039759
:1025C300E0FA7B001208217402121F4F801390035C
:1025D30069E06408700BAC0CAD0DEEFAEFFB120C66
:1025E30023120DD379017F0A0220C1EE2482F582E2
:1025F300E43FF583E02274F212201574FC121F39B4
:10260300EAFEEBFF8909A2AFE433F508C2AF022665
:10261300B5E0601B780C1221BCAC0BA90EEEFAEFEF
:10262300FB120BED7402121F4F7404250BF50B7490
:1026330001250BF5D9850ED9E50B6018F50A850C34
:1026430082850D83E0F5D9A385820C85830D150A58
:10265300E50A70EA75E195EE2463F8E43FF97A0040
:102663007B00A2AFE433F50BC2AF122790EC4D60B1
:102673003288828983E0FAA3E0FB8A828B83122764
:102683009488828983ECF0A3EDF08A828B83E4F053
:10269300A3F0122790EC4D700A88828983A3A3E4E8
:1026A300F0A3F0E50BA2E092AF1214699006C4E028
:1026B30004F0EE246312245CE8496064EE246312A0
:1026C30025F12402F8A3E03400F988828983E582A6
:1026D3002402F50CE43583F50DE0F50BA3E0F50ECC
:1026E300EE24621225F1640170369061D0E0F81295
:1026F30025EE60047C0480027C007480C398FA9504
:10270300E0FBE50B2CF8E43400F9E82402F850016F
:1027130009C3EA98EB99A2D265D033400302261489
:102723009006C4E0604D9006C5E0F89006C4E0C38F
:1027330098500C74026509703A9006C6E060348EB6
:10274300828F83A3A3A3A3E08521828522831227FB
:10275300867402121F85E81227869006C3E028F0CC
:102763007402121F9FAA21AB22790112087B9006E3
:10277300C4E4F0E508A2E092AF7404121F4F7F0790
:102783000220C1F0A3E4F09006C4E0F82288828915
:1027930083E0FCA3E0FD2200008524878525C62273
:1027A300C0E074EB122101A2AFE433F508C2AF75A8
:1027B3009B00906182E0A2E05030E591A2E0502AB4
:1027C3007591FE740165247021122936120CEF12E3
:1027D30029241221CF122D927404121F4FE9640190
:1027E30070057901120D2B122468906182E0A2E535
:1027F300505DE591A2E550577591DF900369E06460
:10280300076005E06408702F12293674016524708F
:102813003E120CEF1229241221CF122D92740412AE
:102823001F4FE9640170057901120D2B7901EEFA4E
:10283300EFFB1225F98018E0640D701390038BE011
:1028430004F064287002E4F07A00E0F9120DD990E4
:102853006182E0A2E640030228F9E591A2E6400383
:102863000228F97591BF900369E064057008120CA2
:10287300D7120CE38003120CDD752400120D49E915
:1028830090036AF07900120D2B120A977A017B00EC
:10289300900368E0F9121031907803E064427056B7
:1028A3009006F8E014F0704EC2AF1228B0007827FB
:1028B300D0E0F618D0E0F6E59F5407F87005750DE3
:1028C300FF8003750D7FC4C0E07826E6F50A08E6AD
:1028D300550DF50B740B780A121F17D0E0250AF873
:1028E300906270E0A2E740F8E8C333906272F09020
:1028F3006270E0D2E0F0906181E0A2E35009E5E983
:10290300A2E3500375E9F7A3E0A2E75009E591A21A
:10291300E7500375917FE508A2E092AF7F0802219B
:10292300608E828F83E0F8A3E0C82416F582E43832
:10293300F58322900397E0F875F00CA4C8AAF02A57
:10294300F9749928FE740339FF22C0E0C0D0C08215
:10295300C083906183E0A2E05009E5BFA2E0500389
:1029630075BFFEE0A2E15009E5BFA2E1500375BFC8
:10297300FDE0A2E25009E5BFA2E2500375BFFBE010
:10298300A2E35009E5BFA2E3500375BFF7E0A2E459
:102993005009E5BFA2E4500375BFEFE0A2E550097B
:1029A300E5BFA2E5500375BFDFE0A2E65009E5BF2E
:1029B300A2E6500375BFBFD083D082D0D0D0E0321F
:1029C300C0E074F2122101E5A7A2E6500FE5A1A22F
:1029D300E6500953A7BF75A1BF122A17E5A7A2E5C1
:1029E300500CE5A1A2E5500653A7DF75A1DFE5A7CB
:1029F300A2E15009E5A1A2E1500375A1FDE5A7A25B
:102A0300E2500CE5A1A2E2500653A7FB75A1FB7FA0
:102A13000102216074F7122015752401900369E007
:102A230064067015120C778A828B83A3A3A3A3A3D6
:102A3300A3E0FAA3E0FB120CC5A2AFE433FED2AFCE
:102A430090036FE0640170187A207B00900368E0C4
:102A5300F91210C77A207B00900368E0F91210374F
:102A6300906182E0D2E6F09006F5E0602185C6250C
:102A7300801690036EE064017008E5C654F84405BF
:102A8300F5C653BEFC12279C7401652460E4EEA2D4
:102A9300E092AF7F020220C174E912201574FA128A
:102AA3001F39EAFEEBFF8C0A8D0B120CFBEAF8EBE5
:102AB300F9ECFAEDFB8E828F83121E33900369E0EB
:102AC30024F7C394055006751401022C02120C77E7
:102AD3008A088B09EA45097003022BFFEEFCEFFD20
:102AE300AA21AB22120CF5850882850983A3A3785A
:102AF3000C121DF1908D70780C121DB88521828502
:102B030022837810121DF1908D707810121DB87801
:102B13000C791012151A501F780C7910121D7D9024
:102B23008D28780C12153A4047850C14850D1585B0
:102B33000E16850F178045908D2885101485111565
:102B43008512168513177814790C121D7D781412CB
:102B5300153A501C7514007515007516007517018C
:102B630078147910121D7D7814790C121D44800C91
:102B7300751401751500751600751700740978141E
:102B8300121D25908CF4780C121DF17814790C1217
:102B93001C9D850882850983A3A3A3A3A3A3122C49
:102BA30020121EAE880C890DE4F50EF50F7814790A
:102BB3000C121D447404121F85122C20121EAEE841
:102BC300FA8A0CE4F50D7814790C12151A5007786B
:102BD30014790C121D7D900369E06408600AE064B7
:102BE300066005E064057020908D24781412153A70
:102BF3005016908D207814121D57800C7514007593
:102C03001500751600751700850A82850B837814E5
:102C1300121E007406121F4F7F100220C1E0F8A39A
:102C2300E0F97AD07B032274F7122015120D0D9070
:102C330006F3E064017010906245E4F0A3F053F4EE
:102C4300F343FE0C5390F3120CB3E5C654B844415E
:102C5300F5C6E59E5447644170F8906185740FF0A2
:102C63009006F1E0F47002A3E0604E9006F2E0609B
:102C73000814601B14602E804075080175090090CC
:102C830006F1E07808121F26E508F45280802A75C1
:102C930008017509009006F1E07808121F26E5087F
:102CA300F4529080147508017509009006F1E078DC
:102CB30008121F26E508F452A079007F020220C102
:102CC30074F7122015E9FEEAFF120D0D74016E7000
:102CD3000C7A807B00900368E0F9121031902F7C0E
:102CE300E493F46008E493F9120A8B800953C6B89D
:102CF300E59E544770FA120CB99006F3E064017034
:102D030003120AA99006F1E0F47002A3E0604B906D
:102D130006F2E0600814601A14602C803D75080107
:102D23007509009006F1E07808121F26E508428035
:102D330080287508017509009006F1E07808121FD4
:102D430026E508429080137508017509009006F185
:102D5300E07808121F26E50842A0120C778A088B38
:102D630009A808A909E8496014E5E170FCE82414FE
:102D7300F582E439F583E0F46003E0F5E174016F73
:102D8300700A7A01900368E0F9121097022CBE745E
:102D9300F11220158A088B098C0A8D0B908D70789F
:102DA30008121DB8740F121F85780C121DF1908D37
:102DB30070780C121DB87808790C12151A908D28AA
:102DC30050107808790C121D7D780812153A4014BA
:102DD300800E780C7908121D7D780C12153A500478
:102DE3007901800279007F080220C174ED12201559
:102DF3008A088B098C0A8D0B908D707808121DB888
:102E03007413121F85780C121DF1908D70780C12BB
:102E13001DB8780C790812151A40117808790C122C
:102E23001D7DAA08AB09AC0AAD0B80227510007595
:102E330011007512007513017810790C121D7D783D
:102E4300107908121D44AA10AB11AC12AD137F0CFC
:102E53000220C1C082C083E9906000F0D083D08299
:102E630022C2AF02000022C0E074F2122101A2AF1D
:102E7300E433FED2AFC2C0E5D1A2E4500653D1EF92
:102E83001213CD752300EEA2E092AF7F0102216001
:102E9300C0E074F2122101E5A8FED2AF1212D7C22C
:102EA300EBEEA2E7A2E792AF7F01022160C0E0C090
:102EB300D0E8C0E0E9C0E0E5A8D2AFC2C7752300FF
:102EC300A2E7A2E792AFD0E0F9D0E0F8D0D0D0E00B
:102ED30032C0E074F2122101A2AFE433FED2AF7527
:102EE3008900C2C59019FD7401F0752300FA901989
:102EF300CDE0F9121097122F6E7003A3E0697002F0
:102F0300D285EEA2E092AF7F01022160C0E074F2AD
:102F1300122101A2AFE433FCD2AF122F6E7003A3D0
:102F2300E069700A539AFB901BC574018039C2E9AA
:102F3300901BC1E0F8A3E0F9E82401FAE439FB901F
:102F43001BC1EAF0A3EBF0743128F582741A39F54A
:102F530083E0F5C1901BC1C3E09490A3E0940140CA
:102F630007901BC1E4F0A3F0EC8098901BC1E0F83C
:072F7300A3E0F9A3E06822CE
:102F7C00FFFFFFFFFFFFFFFFC082C083E9901CDE55
:102F8C00F0D083D08202013274F6121FA9E99002AC
:102F9C00DCF090033BE0F508750900740278081228
:102FAC001F26AA08AB0912106D9002DD123947904A
:102FBC0002DD123D34606F90033BE075F003A4FA20
:102FCC00ABF012106D9002FA1239479002FA123DD2
:102FDC0034700B9002DD123D051210738048900284
:102FEC00FA124C997AFF7BFF12124D7A0080198AE3
:102FFC000875090074027808121F2612474174FFE5
:10300C00123147E4F0A3F00A90033BE0F8EAC398CE
:10301C0040DD79051207199002DCE0F91206057AF9
:10302C00A37B071209770247E474F4121FA98A08DC
:10303C008B09EB548060479002DCE0F91210198A7E
:10304C000A8B0BAE0AAF0BEE4F602A8E828F83E099
:10305C0064B0701A12072BE960148E828F83A3A3BD
:10306C00A3A3E0F9EE2405FAE43FFB1206FBEEFA0B
:10307C00EFFB121007AA08E5096480FB80047A00B4
:10308C007B0002329774F2121FA974FB121F39EAEB
:10309C00FEEBFFEE4F60457403121F85EEF0A3EFBD
:1030AC00F0852182852283ECF0A3EDF07402121FCF
:1030BC0085E9F0AA21AB221205FFE9F508707574B9
:1030CC0013121F85E0F50AA3E0F50BE50A450B602A
:1030DC00638E828F831236D0EE4F70057508028096
:1030EC00537A067B0012106D8A0C8B0DA80CA90D5F
:1030FC00E8497005750813803B88828983E4123196
:10310C0047EEF0A3EF123263E50AF0A3E50BF09063
:10311C0002E012325C9002E06017E0FCA3E0800356
:10312C00EAFCEBFD8C828D8312325C70F38C828D09
:10313C008312435CA9087405024F19F0A3124C7B4F
:10314C00A32274F2121FA98908890C750D0074034F
:10315C00780C121F26850C0A850D0B9002DFF0905F
:10316C0002DD12416712325A602E12107379008000
:10317C001D890C750D007402780C121F269002DD4F
:10318C001246008882F583A3A3E4F0A3F009900310
:10319C003BE0F8E9C39840D990033BE0FA850AF08C
:1031AC00A4CAA8F0850BF0A428FB12106D8A0C8B16
:1031BC000DAE0CAF0DEE4F700302325090033BE09E
:1031CC00FC850AF0A4CCA8F0850BF0A428FD7900AE
:1031DC00120FF57C0080318D0C750D007403780C8A
:1031EC00121F268A828B8312325588828983E4F0DF
:1031FC00123262A3A3F0A3F00DEDC3950840D8EEF4
:10320C00250AFEEF350BFF0C90033BE0F8ECC3985E
:10321C0050288C0C750D007402780C121F2690022D
:10322C00DD123255E82402500109FAE9FB8A828B3F
:10323C0083EEF0A3EFF07D0080BFE5089002DFF095
:10324C00790080027913024F1C124604F922A3A3C1
:10325C00123D09EA4B22A3124C7BA3A3A32274F4C4
:10326C00121FA97900EAA2E0501F7508DA75098CC3
:10327C0078081221BC79107C047D007AE07B1C124A
:10328C0007137402121F4FE9F980007F0402207BA0
:10329C00C082C0839002E0123D34601C8882898316
:1032AC00A3A3E06A7003A3E06B8882898370E8A310
:1032BC00A3A3A3123D0580047A007B00022F8D741A
:1032CC00F2121FA974FD121F39EAFEEBFF85218251
:1032DC00852283E4F0A3F07402121F857401F012AE
:1032EC003D3170141208C912106D9002E312394767
:1032FC00123D31700302345D123A47EE2404F50A94
:10330C00E43FF50B850A82F583E024FE603C24FC47
:10331C00607424FE607E24FE70030233AD24FE70C4
:10332C00030233BA24FE70030233C724FE70030277
:10333C0033D424FE70030233E124FC700302340204
:10334C0024FE700302341A0234561208C99002E5A6
:10335C00EAF0A3EB123469120275E96003023456E9
:10336C009002E51221D38E828F83A3A3A3A3A31271
:10337C004C99850882850983123D051206E3740277
:10338C00121F4F023456AC21AD22EEFAEFFB12079E
:10339C0031023425AC21AD22EEFAEFFB1207378057
:1033AC0078AC21AD22EEFAEFFB12073D806BAC211D
:1033BC00AD22EEFAEFFB120743805EAC21AD22EE9C
:1033CC00FAEFFB1207498051AC21AD22EEFAEFFB6C
:1033DC0012074F80447402121F8F880C890D780CD1
:1033EC001221BC7402121F9FEEFAEFFB12075574E8
:1033FC0002121F4F8023AC21AD22EEFAEFFB120715
:10340C005BE9F870167402121F85E4F0803CAC2165
:10341C00AD22EEFAEFFB120761E9F8E8602C8E8220
:10342C008F83A3E064146022850A82850B83E0906D
:10343C0002E5F0852182852283123D059002E61279
:10344C003947E8A312346912026FEEFAEFFB120649
:10345C00B97402121F85E0F97403024F19F07CE570
:10346C007D02850882850983123D092274E8121FAA
:10347C00A974FA121F397404121F85ECF0A3EDF035
:10348C008A128B13EA2405F50EE43513F50FEA24A2
:10349C0002F510E43513F511851082F583123D0504
:1034AC001203AD8A0A8B0B7508007C037D00790032
:1034BC007AE57B02120FF5E50E2402F516E4350FC2
:1034CC00F5177402121F8F880C890D780C1221BC11
:1034DC00850E82850F83A3A3A3A3E0F50C750D00C5
:1034EC00780C1221BCE50E2405F50CE4350FF50D16
:1034FC00780C1221BC85168285178312400C12069B
:10350C001D7406121F4F8A0C8B0DE50C450D7003B4
:10351C000236998020852182852283E088828983E6
:10352C00F00508852182852283A3E0C0E01236DAFB
:10353C00D0E0F00508E50A24FBFAE50B34FFFBC3E9
:10354C00E5089AE49B40030236997E007F008512C1
:10355C0082851383A3A3A3A3E0F50978091221C0E4
:10356C00E4F514F51578141221BC7514E2751502E6
:10357C0078141221BC9002E31221D37409121F8516
:10358C001221D3E50A24F9F9AC0CAD0D8510828516
:10359C001183123D0512078B7409121F4FE960034A
:1035AC0002363A850E82850F83A3A3A3A3A3A3A3FC
:1035BC00E0F89002E2E0687075E0F5148E1578146E
:1035CC001221BC124C96850E82850F83A3A3A3A354
:1035DC00A3A3A3A3123D05120FEF7402121F4FE910
:1035EC00604C9002E6123D34703BE4F514781412F2
:1035FC0021BC7CFF7DFF7907851082851183123DEC
:10360C00051206F57402121F4F123D3A7017850E03
:10361C0082850F83124E337404121F851246F412E6
:10362C00403D0236CD850C82850D831236D0A82103
:10363C00A9228814891578141221BC7404121F85D0
:10364C001221D385168285178312393D12062974EF
:10365C0004121F4F8A0C8B0DEE4F7003023516129D
:10366C0036DAEE1236E5123FF3EF1236E5F8A3E048
:10367C003400F9E50C450D600302352188828983FD
:10368C0074FFF005081236DA74FFF00508E50860DF
:10369C001A1313543F12394D120281E9600990023A
:1036AC00E6123D0512146979008016850E82850F8D
:1036BC0083124E337404121F851246F412435C7944
:1036CC000A023FC6A3A3A3A3E0FEA3E0FF22A8081F
:1036DC009002E6E028123FF322F00508089002E67B
:1036EC00E0282274E8121FA974FA121F397402120E
:1036FC001F851239477404121F85ECF0A3EDF0748A
:10370C0002121F85E02405123FDCE0F50CA3E0F566
:10371C000D7402121F85E02402F510A3E03400F5AD
:10372C0011851082F583123D051203AD75080075E5
:10373C000900EA24FCFEEB34FFFF8008050CE50CC5
:10374C007002050DA808C3EE98EF940050030238E0
:10375C00F9A821A922880E890F780E1221BC851494
:10376C0082851583A3A3A3A3124C9D1221BCE5143F
:10377C002405F50EE43515F50F780E1221BC8514D1
:10378C008285158312393B12061D7406121F4F8A4F
:10379C000E8B0FEA450F70030238F9EA2404F51674
:1037AC00E4350FF517851682F583E0F50CA3E0F5EB
:1037BC000D852182852283124C998A828B83A3A347
:1037CC00A3E0F9851082851183123D0512060BE9E1
:1037DC00F50960030238F97402121F85124003F5D3
:1037EC000978091221C0E4F512F51378121221BCE4
:1037FC007512E275130278121221BC9002E31221A9
:10380C00D37407121F851221D3EEF9AC0EAD0F85C0
:10381C001082851183123D0512078B7409121F4FFC
:10382C00E9F50960030238F9E508703FE4F50EF597
:10383C000F780E1221BC7CFF7DFF790985108285E3
:10384C001183123D051206F57402121F4F12402906
:10385C00700D7404121F85123930791102392D90B4
:10386C0002E2E024029002E6F080149002E6E0FA14
:10387C009002E2E0790024025001096A497072A8B2
:10388C00089002E2E0FAE82AFAE43400FBEE9AEF40
:10389C009B405A851682851783E0C0E09002E712A0
:1038AC0036DFD0E0F00508851682851783A3E0C0CB
:1038BC00E0089002E71236DFD0E0F005089002E253
:1038CC00124C9D1221BC124C96A808123FD0120F1C
:1038DC00DD7402121F4F9002E2E02508F50874FF18
:1038EC00650C700474FF650D6003023748E50860D1
:1038FC001F9002E6E0F5F0E5088412394D120287BC
:10390C00E960099002E7123D0512146979008011F3
:10391C00E509700375090A7404121F85123930A960
:10392C0009023FC612416BE50CF0A3E50DF022A392
:10393C00A3124F28AA0CAB0D22A3A3EAF0A3EBF021
:10394C00229002E5F07CE57D0285108285118312C0
:10395C003D092274EC121FA974FC121F3912446C1D
:10396C007402121F9F123CFF1206238A0C8B0DEA65
:10397C00450D7003023A37123A47A821A922881044
:10398C00891178101221BC7CFF7DFF790B85088290
:10399C00850983123D051206F57402121F4F123B66
:1039AC003D700C850A82850B8312403A023A448E94
:1039BC00828F83A3A3A3A3E0F51278121221C0E493
:1039CC00F512F51378121221BC7512E575130278F5
:1039DC00121221BC78101221BC7409121F851221FD
:1039EC00D37409121F85E0F9AC0CAD0D85088285E6
:1039FC000983123D0512078B7409121F4FE9FE70E3
:103A0C00157CE57D02850882850983123D0512022D
:103A1C008DE97009802074166E70027E009002E6AB
:103A2C00123D05121469EE7004800B7E01850A822A
:103A3C00850B83124359EEF902436EEE2402F5080E
:103A4C00E43FF5092274EC121FA974FC121F39EA29
:103A5C00FEEBFF8C0E8D0FEE2405F508E43FF50907
:103A6C007402121F9F850882850983123D05120678
:103A7C00238A0C8B0DEA450D7003023B2DEE2402BC
:103A8C00F50AE43FF50BA821A922881089117810BA
:103A9C001221BC7CFF7DFF790D123CFF1206F574E0
:103AAC0002121F4F123B3D700B8508828509831251
:103ABC00403A807A8E828F83A3A3A3A3E0F5127879
:103ACC00121221C0850882850983A3A31221D37504
:103ADC0012E575130278121221BC78101221BC74F5
:103AEC0009121F851221D37409121F85E0F9123CAB
:103AFC00FB12078B7409121F4FE9FE700F7CE57DDA
:103B0C0002123CFF120293E97009802074166E7049
:103B1C00027E009002E6123D05121469EE700480DC
:103B2C000B7E01850882850983124359EEF9024305
:103B3C006E123D44F510A3E0F511EA45112274E82C
:103B4C00121FA974FE121F398A168B178C148D152F
:103B5C00EA2405F50CE43517F50DEA2402F50EE41C
:103B6C003517F50F850E82F583123D051203AD8ACC
:103B7C00088B09750B007C037D0079007AE57B02CC
:103B8C00120FF5750A00E50814F5100424FFF5086A
:103B9C00E50934FFF50980549002E5E0FA9002E261
:103BAC00E0F8EA28F8E43400F9E50898E5099950BA
:103BBC000D9002E5E0F8E510C3989002E2F0E0F514
:103BCC001275130078121221BC124C969002E6E08A
:103BDC002AFAA3E03400FB120FDD7402121F4F907F
:103BEC0002E2E0F89002E5E028F0050A850C8285F7
:103BFC000D83A3A31246104003023CE09002E5E0C3
:103C0C00C39508E495094003023CE0AE0AEE2EFE93
:103C1C00E433FF123D1FAC21AD22124CB1E439FB51
:103C2C001206238A128B13AC12AD13EC4D701B755C
:103C3C000B01123D0F12435D9002E612325C6003E1
:103C4C00121469A90B7402023FC88516828517836A
:103C5C00A3A3A3A3E0F50B780B1221C0E4F512F596
:103C6C001378121221BC7512E2751302781212210C
:103C7C00BC9002E31221D37407121F851221D3A921
:103C8C0010850E82850F83123D0512078B74091265
:103C9C001F4FE9F50B709B9002E6123D3460030256
:103CAC003BA4E4F512F51378121221BC7CFF7DFFC6
:103CBC00790F850E82850F83123D051206F574026D
:103CCC00121F4F123D3A6003023BA4123D0F1240EB
:103CDC003E023C517CE57D02850E82850F83123DB0
:103CEC0005120299E96003023C447900023C51AC94
:103CFC000CAD0D850A82850B83123D0922E0FAA3D7
:103D0C00E0FB22123D1FE0FAA3E0F9EA851482855C
:103D1C00158322850C82850D83E02EF8A3E03FF9F4
:103D2C0088828983229002E3124E37E84922123DA1
:103D3C0044F8A3E0F9E849229002E6EAF0A3EBF09C
:103D4C009002E6E02274E8121FA974FA121F39746B
:103D5C0004121F851239478C168D177404121F8597
:103D6C00E02405F50EA3E03400F50F7404121F8552
:103D7C00E02402123FDC123D051203AD8A0A8B0BC4
:103D8C007F007E00A821A9228808890978081221C1
:103D9C00BC850E82850F83A3A3A3A3E0F5088E092F
:103DAC0078081221BCE50E2405F508E4350FF50959
:103DBC0078081221BC850E82850F83A3A312400CB8
:103DCC0012061D7406121F4F8A0C8B0D8029123F90
:103DDC00FDF00F123FFDF00F9002E212434812214A
:103DEC00BC124C96EFF8123FD0120FDD7402121F6A
:103DFC004F9002E2E02FFFE50C450D7003023E8C64
:103E0C0085218285228312447EA3A3A3E0F9851425
:103E1C0082851583123D0512060BE9FEE50C240480
:103E2C00F510E4350DF511EE70507404121F851267
:103E3C004003F50878081221C0E4F508F509780864
:103E4C001221BC7508E275090278081221BC900297
:103E5C00E31221D37407121F851221D3E50A24FA29
:103E6C00F9AC0CAD0D851482851583123D05120736
:103E7C008B7409121F4FE9FE603912401912435C12
:103E8C00EF7003023FB39002E6E0F5F0EF8490028E
:103E9C00E5F07CE57D02851482851583123D0512C3
:103EAC00029FE960099002E7123D0512146979003E
:103EBC00023FC68F08EF703BE4F512F5137812122F
:103ECC0021BC7CFF7DFF7911851482851583123D01
:103EDC00051206F57402121F4F1240297009124088
:103EEC001912403D023FC69002E2E024049002E623
:103EFC00F080359002E2E0F89002E6E0FAE8240463
:103F0C00FCE43400FDEC6A4D6003023E92E50A24A9
:103F1C00FAFAE50B34FFFBE50828F8E43400F9EA7B
:103F2C0098EB995003023E92851082851183E0C074
:103F3C00E09002E7E02FF8A3E034008882F583D00C
:103F4C00E0F00F851082851183A3E0C0E0123FEAF8
:103F5C00D0E0F00F7402121F8F88088909780812BC
:103F6C0021BC7402121F851221D3850E82850F830A
:103F7C0012393B1206297404121F4F8A0C8B0DEA5E
:103F8C00450D7003023DDA7402121F85E0C0E01289
:103F9C003FEAD0E0F00F7402121F85A3E0C0E012DC
:103FAC003FEAD0E0023DE2EE70027E0A850E828589
:103FBC000F8312401F12435CEEF97406121F4F7FE1
:103FCC001002207B9002E7E028FAA3E03400FB22E9
:103FDC00F514A3E03400F515851482F58322123F05
:103FEC00EE229002E7E02FFAA3E034008A82F583F8
:103FFC0022123FEE74FF2212416BA3A3A3A3E02273
:10400C00124F28850E82850F83123D09228510825E
:10401C00851183124E37851682851783229002E70D
:10402C00EAF0A3EBF09002E7124E37E84922124374
:10403C0062E8F0A3E9F079112274EA121FA974FE68
:10404C00121F398A088B098C128D13EA2405FEE4A1
:10405C003509FFAC21AD228E828F83123D051206ED
:10406C00238A0C8B0DEE2406F50EE43FF50FEA4582
:10407C000D700302413DE5082402F50AE43509F50B
:10408C000B8A828B83A3A3A3E0A2E550288521820F
:10409C00852283123D0512077F8A108B11EA451188
:1040AC0060207912123CFB851082851183121FA7A8
:1040BC00E9F50C707F850E82850F83E060097952DB
:1040CC008011750C0E806D850882850983A3A3A3CE
:1040DC00A3E0F9E4F508F50978081221BC8E828F6B
:1040EC0083A3A3E0F50878081221BC8E828F83A3EA
:1040FC00A3A31221D38E828F83124C99123CFF12F0
:10410C0007917406121F4FE9F50C7011850E82850C
:10411C000F83E0702D123CFF1202A58025741665EA
:10412C000C7011750C007418121F85124167E48015
:10413C0010750C01124E2F851282851383E8F0A3A3
:10414C00E9F0850E82850F83E0600479008002A976
:10415C000C7402121F4F7F0E02207B12416B22E067
:10416C00F8A3E0F58388822274EC121FA974F7126D
:10417C001F398A0A8B0B8C108D11EA2405FEE4354D
:10418C000BFF750C00AC21AD228E828F83123D0586
:10419C001206238A088B09EA45097003024333E5AA
:1041AC000A2402F50A5002050B8A828B83A3A3A36F
:1041BC00E0A2E5502F852182852283123D0512074E
:1041CC007F8A0C8B0DEA450D604F7912AC08AD0956
:1041DC00123CFF850C82850D83121FA7E9F50C603C
:1041EC0003024336850A82850B83E0F508A3E0F5CC
:1041FC0009AA08FB120773EA4B70197AFF7BFF12AE
:10420C000773EA4B70030243298A828B83E508F01B
:10421C00A3E509F07508008008750C0E02433605FD
:10422C00089002DFE0F8E508C398400302432985B3
:10423C00080E750F007403780E121F268A828B836A
:10424C00A3A3E0250EF8A3E0350F1246FD70D08E27
:10425C00828F831243511239478E828F83A3A3120C
:10426C004351123945EE2404F508E43FF50985085D
:10427C0082F583E088828983A3A3A3A3F0A3E4F04F
:10428C00EE2405F50EE43FF50F850E82F5831243FF
:10429C0051A3A3A3A3123945751207751300781205
:1042AC001221BCEEFCEFFD7404121F97120FDD748B
:1042BC0002121F4FE4F51278121221BC8508828578
:1042CC000983E0FC7D007917123CFF1206F574029D
:1042DC00121F4F7407121F851239477407121F855E
:1042EC00E0FA4B603D850882850983124348122110
:1042FC00BC850E82850F83124C99120FDD7402124D
:10430C001F4F7402121F9F123CFF1202ABE9602672
:10431C007407121F85123D051214698019750C095A
:10432C008008750C118003750C01124E2F851082BC
:10433C0085118312435CA90C74098028E0F508757B
:10434C000900780822123D0988828983221243626F
:10435C00E8F0A3E9F022E0F8A3E0F9850E82850FDE
:10436C0083227404121F4F7F0C02207B74EC121FEB
:10437C00A912446C751000EE2402F50CE43FF50D07
:10438C00850C82F583123D051207738A088B09EAA6
:10439C0045097003024450850A82850B83E0640151
:1043AC006003024445AC08AD09AA0AAB0B120767BF
:1043BC00E9606E8508828509831236D2EE2406F5F3
:1043CC000AE43FF50B8E828F83A3A31221D38E8236
:1043DC008F83A3A3A3A31221D3850A82850B8312F7
:1043EC0021D379188E828F8312447E123D051207D9
:1043FC00917406121F4FE9F8741668700B850A82C7
:10440C00850B83E4F0A38014E860128E828F8312F4
:10441C003D05850E82850F83EAF0A3EBF0881080B2
:10442C0018780E1221BCAC08AD09EEFAEFFB12079E
:10443C006D7402121F4FE9F510AA08AB0912077927
:10444C00E510700E850C82850D83123D051202B1AC
:10445C008009741665107003751000A9100243735F
:10446C00EAFEEBFF8C0E8D0FEE2405F50AE43FF50A
:10447C000B22124F28850C82850D832274EA121FA1
:10448C00A97508007509007E007F00750A00EC24F0
:10449C0002F510E43DF5118035EC65087003ED650F
:1044AC0009600302453D88828983A3A3E06A7003F7
:1044BC00A3E06B707C88828983A3A3A3A3124E33E1
:1044CC00EE28FEEF39FFEA28FAEB39FB050A124613
:1044DC000D503A850A0C750D007403780C121F26CA
:1044EC008510828511831246001246FD601FE50877
:1044FC00450970A58C088D09888289831236D0886D
:10450C00828983A3A3E02EFAA3E03F80BEE50AC311
:10451C00940250030245FB750800750900EE4F60CC
:10452C0010EEFAEFFB1214638A0E8B0FEA450F7034
:10453C000579000245FD750B000245D0850B0C7505
:10454C000D007403780C121F26851082851183E0F0
:10455C00250CF50CA3E0350DF50DE50C2406F51432
:10456C00E4350DF515851482F5831247026042E59A
:10457C000C2404F512E4350DF513851282F5831223
:10458C0021D3E50E2508FAE50F3509FB120FDD7472
:10459C0002121F4F851282851383E02508F508A3AC
:1045AC00E03509F509851482851583123D05121431
:1045BC0069E50B600D7C087D007900AA0CAB0D122F
:1045CC000FF5050BE50BC3950A5003024548851002
:1045DC0082851183124E3388828983A3A3A3A3A35C
:1045EC00A3E50EF0A3E50F123263EEF0A3EFF07922
:1045FC000102416212460422E0250CF8A3E0350DBD
:10460C00229002DFE0F8E50AC3982274F0121FA989
:10461C008A0E8B0F8C0A8D0B750D00750C0080505B
:10462C007916EE2406F508E43FF5098E828F83A3F4
:10463C00A31221D38E828F83A3A3A3A31221D3858C
:10464C0008828509831221D3850E82850F83A3A34B
:10465C00123D051207917406121F4FE9F50D7416E1
:10466C00650D706C850882850983E4F0A3F0050C58
:10467C009002DFE0F8E50CC3985066AA0C8A087526
:10468C00090074037808121F26850A82850B83A300
:10469C00A312474CE8FEE9FF8E828F83124702601B
:1046AC0040EA2401F508E43400F5099002DFE065E6
:1046BC00087002E509601488828983A3A3A3A3A3CD
:1046CC00A3A3A3123D34600302462C791802462E94
:1046DC00E9609B124E2F7410121F851246F4124380
:1046EC005CA90D7F0802207BE0FAA3E0F5838A82A7
:1046FC0022F988828983124F28EC4D2274F6121FFE
:10470C00A97C0080010C90033BE0F8ECC398501E90
:10471C008C0875090074027808121F26124741E0B4
:10472C006A7003A3E06B70DDE8FAE9FB80047A00A1
:10473C007B000247E49002DD12474C888289832279
:10474C00E02508F8A3E03509F92274F2121FA98AB2
:10475C00088B09750A0080278E828F83A3A3A3A3DD
:10476C0012325A60031214697C087D007900EEFA4B
:10477C00EFFB120FF58E828F83E4F0A3F0050A1283
:10478C00460D5027850A0C750D007403780C121F0A
:10479C0026850882850983A3A3E0250CFEA3E035BA
:1047AC000DFF8E828F83123D3470AD850882850992
:1047BC008374FFF0A3F0024F1C74F6121FA91207AA
:1047CC00258A828B83E582458370067A007B008084
:1047DC0007A3A3A3A3123D057F0202207B74F4124E
:1047EC001FA989088C828D83E06402703C124DD223
:1047FC00FEA3E0F9EEF8740268700374296970295D
:10480C00750A02750B00780A1221BC7410121F85F0
:10481C001221D37410121F851221D3A9081212531E
:10482C007406121F4FE9F98002790102329774E87D
:10483C00121FA974FB121F39E9852182852283F08E
:10484C008A168B17ECFEEDFF7510008E828F83A3FA
:10485C00A3A3E0A2E4502D741D121F85123D051276
:10486C00077F8A828B83E58245837003024C7179C2
:10487C000AEEFCEFFDAA16AB17121FA7E9F51060A4
:10488C0003024C74741F121F85E0F508A3E0F509B0
:10489C007421121F85E0F50AA3E0F50B7423121F97
:1048AC0085E0F50EA3E0F50F8E828F83E064026045
:1048BC0003024C12A3124E33850882850983A3850B
:1048CC008212858313EE2406F50CE43FF50D8882E5
:1048DC008983124CB1F514E439F51578141222467B
:1048EC00010000280128144907000228D94903288F
:1048FC0047490029084B0129334B0229D44A032983
:10490C00084B0429AC4B124CE50E450F6003024CCE
:10491C000D850C82850D83124E33E8FAE9FB8A82F1
:10492C008B83E0850A82850B83124CBC1221BC8AD6
:10493C00828B83A3E0FCA3E0024B96E50E450F604F
:10494C0003024C0D850A82850B837401F0124CA670
:10495C00850882850983F07C007D008E828F83A37D
:10496C00A3A3A3E02401FAA3E03400FB120623EA7C
:10497C004B60408A828B83E02402F8850A82850B87
:10498C0083E028F0EA2404F8E43BF988828983E088
:10499C00851282851383124CCA124CBC1221BC8A1C
:1049AC00828B83A3124C99E5082403FAE43509FBA6
:1049BC00024B9B850A82850B83E02404F07C047DEA
:1049CC00007900AA12AB13120FF5024C74E50E45D8
:1049DC000F6003024C0D124CA6FEA3E0FF850A8269
:1049EC00850B837404F0EE850882850983F0EF85CE
:1049FC001282851383F07403121F9FEEFAEFFB12E1
:104A0C0006238A0C8B0DEA450D7003024AB78A8285
:104A1C008B83A3A31236D07401121F8F880E890FBB
:104A2C00780E1221BC7405121F851221D37CFF7DD8
:104A3C00FF1206297404121F4F8B0FEA450F7033B7
:104A4C00850C82850D83124C9D1221BC850C8285B0
:104A5C000D83A31221D37C027D007AB17B8D1203CE
:104A6C009B7404121F4FE9700A7401121F8574FFA6
:104A7C00F0A3F08E828F83E064027039750C02759E
:104A8C000D00780C1221BC8E828F83A3124C99E5F9
:104A9C00082404FAE43509FB120FDD7402121F4FCF
:104AAC00850A82850B83E0240280097401121F851C
:104ABC00EEF0A3EFF07401121F85124C8B740112EF
:104ACC001F85124C82024C07E50E450F6003024C09
:104ADC000D850C82850D83124F21AA16AB1712126D
:104AEC0059850A82850B837402F0850882850983B7
:104AFC00EAF0851282851383EB024C0AE50E450F12
:104B0C006003024C0D124CA6F8A3E0F9850A8285CD
:104B1C000B837402F0E8850882850983F0E985121D
:104B2C0082851383024C0A850C82850D83123D0508
:104B3C00120FD7EAFAF8C3950EE4950F405CE865BE
:104B4C000E450F70047A008021852182852283E036
:104B5C00FCE50E2CFCE4350FFDC3EC98ED940050F5
:104B6C0003E08005E50ECAC39AFAEA850A82850B32
:104B7C0083F08A0A750B00780A1221BC850C828599
:104B8C000D83E0250EFCA3E0350FFDAA08AB09123E
:104B9C000FDD7402121F4F024C74751007024C7417
:104BAC00E50E450F705B850C82850D83124E3385A7
:104BBC000A82850B837407F088828983124C8312D6
:104BCC004C7BE0851282851383F0E82402FAE439E9
:104BDC00FB8A828B83124C8B8A828B83124C82A32E
:104BEC00A3123262124C90F0E82405F850010988A7
:104BFC00828983124C90A3124CCAA3A3A3A3F08066
:104C0C006775100B8062741D121F85123D0512070B
:104C1C00258A828B83E5824583604A124E33880C49
:104C2C00890DE8450D603E7425121F85E0F510785E
:104C3C00101221C0780E1221BC780A1221BC7808FF
:104C4C001221BC7407121F85E0F9EEFCEFFDAA16C9
:104C5C00AB17850C82850D83121FA77407121F4F8B
:104C6C00E9F510800375100EA9107405023FC8F009
:104C7C0088828983A322A3E0850882850983221276
:104C8C004CD1F022124CD1A3A3229002E3124F2854
:104C9C0022E0F50E750F00780E22850C82850D83AF
:104CAC0012416BE022E0FAA3E0F8E4C8F9EA28220A
:104CBC00F08A828B83E0F50A750B00780A22124C7D
:104CCC007B124CD122E0850882850983A3A3227430
:104CDC00EE121FA974FE121F398A088B09ECFEED27
:104CEC00FF890AAC21AD22EEFAEFFB1206238A0CE7
:104CFC008B0DEA450D7003024DC3852182852283FD
:104D0C00123D051207258A828B83E5824583700349
:104D1C00024DBEA3A3124E33880E890FE8450F70C7
:104D2C0003024DBE7414121F85E0F510A3E0F511BB
:104D3C00E50AF50B780B1221C07419121F8512218C
:104D4C00D378101221BC741B121F85E0F9AC0CAD8A
:104D5C000DAA08AB09850E82850F83121FA7740557
:104D6C00121F4FE9F50B705274FE650A604C850CEE
:104D7C0082850D83E064027041124DD2FAA3E0F9F2
:104D8C00EAF87402687003742969702E85108285A4
:104D9C001183124CB1F50CE439F50D780C1221BCD1
:104DAC00EEFCEFFDAA08AB091207A97402121F4F03
:104DBC008008750B0E8003750B01A90B7402121F72
:104DCC004F7F0A02207BA3124E3788828983E02210
:104DDC0074F6121FA974FE121F39740C121F85125F
:104DEC004E33E8852182852283F07401121F85E9F8
:104DFC00F0E4F508F50978081221BC75080278086A
:104E0C001221BC7404121F8F88088909780812219A
:104E1C00BC79FE1207917406121F4F7402121F4FB9
:104E2C000247E48E828F83124E3722E0F8A3E0F91A
:104E3C002274F7121FA9EAFEEBFF89089002FA12FE
:104E4C004C99121259EA5402600BA908EEFAEFFBC6
:104E5C00120617800279017F0102207B74F2121F67
:104E6C00A974FE121F39EAFEEBFF890A7401650A68
:104E7C0060147402650A6003024F177901120995D8
:104E8C00E96003024F17EEFAEFFB120773EA4B606F
:104E9C0003120779A821A922880889097808122108
:104EAC00BC75080275090078081221BC7508AB7531
:104EBC00098D78081221BC7CFF7DFF7A017B0012E2
:104ECC00061D7406121F4F8038850882850983A33E
:104EDC00A3A3A3A3A3124F21EEFAEFFB12124DE4EE
:104EEC00F50CF50D780C1221BC7402121F851221E1
:104EFC00D37CFF7DFFAA08AB091206297404121F8C
:104F0C004F8A088B09E508450970BE7402121F4FC1
:104F1C007F0602207B12416B124F2822E0FCA3E09B
:104F2C00FD2274F4121FA98A088B09ECFEEDFF9088
:104F3C001CDEE0F4604B7A097B00121001EA4B6036
:104F4C00408A828B8374B1F0A3E4124F90F08A8272
:104F5C008B83A3A3E508F0A3E509124F90A3EEF011
:104F6C00A3EFF0740C121F85124E338A828B83A32D
:104F7C00A3A3A3A3A3A312435C901CDEE0F912101D
:104F8C000D023297F08A828B83A3A3A3A322C08243
:104F9C00C0839061907404F0A37448F0A37402F081
:104FAC009061807440F09061BC7403F090618774E0
:104FBC0019F0906265741BF0906249E0C3941390F1
:104FCC00619C40107409F09060667401F090619FD0
:104FDC007428800D740BF0906066E4F090619F74FF
:104FEC002CF01251857009C29190036D7467800585
:104FFC0090036D7461F01251D7902F7CE493F460A0
:10500C0006E493F9120A8B7905120DBB025419C0F0
:10501C0082C083E9540FF9906185E0696012E5C69E
:10502C0054B84441F5C6E59E5447644170F8E9F024
:10503C0053C6B8E59E544770FA025419C082C08317
:10504C00A8A853A87E906181E4F0A3F0A3F0C2BAA3
:10505C00539AFEC289759B00C2C275E90075910016
:10506C0075BF0075A91175B905906181F0A374C065
:10507C00F0A3E4F0D2BA439A0174805842A80254C7
:10508C0019F0025419C082C08374F8121F399003AE
:10509C006B126799700302517D90036BE054406072
:1050AC00177908AA21AB22120B99AA21AB2212085C
:1050BC000990036BE054BFF0E054806010790C7AD7
:1050CC00197B07120B9990036BE0547FF0E0A2E080
:1050DC00501E1251857009C29190036D7467800542
:1050EC0090036D7461F012080F90036BE054FEF0A6
:1050FC00E05402601E1251CA7009D29190036D7473
:10510C0071800590036D746AF012080F90036BE0C8
:10511C0054FDF0E054046010902F801251DA120804
:10512C001590036BE054FBF0E054086010902F8155
:10513C001251DA12081590036BE054F7F0E054109A
:10514C00600D1251D712081590036BE054EFF0E08C
:10515C005420600A12081590036BE054DFF0A3E0B2
:10516C005401600D120AA912081B90036CE054FE46
:10517C00F07408121F4F02541990619A1253CC907C
:10518C0006F3E0640122C082C083E9600514601755
:10519C0080291251857009C29190036D7467801A31
:1051AC0090036D746180131251CA7009D2919003EF
:1051BC006D7471800590036D746AF00254199061DE
:1051CC009A1253BE9006F3E0640122902F82E4936E
:1051DC00906186F02274EA121FA974F4121F3990A0
:1051EC008D64AC21AD227404121E4C902F8093F46C
:1051FC006003025353907808E0C3940250030253A7
:10520C0037908CB47404121F9F7408121E4CA82182
:10521C00A922881489157404121F8F88088909AE75
:10522C0008AF097510FF7511FF750EFF7C00750C2A
:10523C0048750D78801274086C70030252CD740995
:10524C006C607E740A6C6079850C82850D8378089D
:10525C00121DF18E828F83A909E50AC9F888127490
:10526C00187808121D0CE5124508F8C3E098A3E065
:10527C0099850C82850D837808121DF140188E8259
:10528C008F8374187808121D0CE5124508F8E0C3DA
:10529C0098F8A3E0801A74187808121D0CE51245D2
:1052AC0008FAE9FB8E828F83125AEEEAC398F8EB68
:1052BC0099F9C3E89510E995115006881089118C5D
:1052CC000E0CE50C2404F50C5002050DECC39413E4
:1052DC00500302524274FF6510700474FF65116034
:1052EC0024850E0874027808121F2674482508F5C8
:1052FC008274783509F5837808121DF1851482853E
:10530C001583E508F0EE2402FE50010F851482850A
:10531C001583A3858214858315740C121F85E58271
:10532C006E7003E5836F600302522F7508017509D7
:10533C000078081221BC7402121F9F7AE07B0B12BA
:10534C0012BF7402121F4F740C121F4F7F0E0220DB
:10535C007BC082C0839061AE7468F0A3746AF090D5
:10536C00624574FBF0A304F053F4FD43FE02900677
:10537C00F37401F09061A0E0643A90619A70191294
:10538C0053CC740164017009C29190036D746780F1
:10539C001E90036D746180171253BE74016401700A
:1053AC0009D29190036D7471800590036D746A023B
:1053BC00508D743FF0A3745AF09061A0747FF0226A
:1053CC007433F0A37455F09061A0743AF0227F040A
:1053DC0002207BC082C0839006D1E06401701190E2
:1053EC0006D7E064016019E07006A3E06401601068
:1053FC009006E8E06401700C9006EEE06401700425
:10540C00790C800279008005E0F9122E56D083D0F9
:10541C0082020132E0C4333354C022888289831261
:10542C0059AFA882A983222414F582E438F583228B
:10543C00C082C0839006DB7425F09006D97401F00D
:10544C00A3E4F07A01FB120D37125488241AF5826A
:10545C00E438F58374CDF0A3740AF09006D8E064B8
:10546C000170169006D7E070107901120D97120D8D
:10547C0067120D917900120DA30254199006C712F0
:10548C0058112274F6121FA974FA121F399006D003
:10549C00E064017008120AB59006D0E4F075E1F1F1
:1054AC001254882415F582E438F5837401F09006C3
:1054BC00D2E06401704B908CC8AC21AD2274061202
:1054CC001E4C75D90D9006C91254204403F5D9759C
:1054DC0082CA7583061259ABE58264D07004E583E9
:1054EC00640670F1A821A9221254277406121F8594
:1054FC00E582687003E5836970EE75E1957901804A
:10550C00027900120D3D901D021255757435F0A3F1
:10551C00740CF0A31255751255751256E3743BF0CA
:10552C00A3740C1256F89006C9E0F97ACA7B0612DD
:10553C000D199006DBE0F9122E567901120D4390ED
:10554C008D68121E0F120D5B908D78121E0F120DAE
:10555C00257900120DAF1254881254337416F09042
:10556C0003697405F004025C10742FF0A3740CF042
:10557C00A32274F7121FA98908A808E875F00CA4D7
:10558C00C8AAF02AF9749928FE740339FF9006E032
:10559C00E0F97AE17B06120D199006EEE0702579A0
:1055AC0000120D79EE240BF582EF3401F583E070D7
:1055BC0004790080027901EE2405FAEF3401FB1224
:1055CC000D1F80057901120D7975E1F175D92390C4
:1055DC0006E01254204405F5D97582E17583061254
:1055EC0059ABE58264E77004E583640670F175D904
:1055FC000075D90075D90075D90075D90075D90019
:10560C00EE2422125A64125A837003E9658370F6F1
:10561C00EE2426125A6F2403F8E43583F9125A83C8
:10562C007003E9658370F6EE242B125A78242C1241
:10563C005A78242D125A78242E125A78242F125A62
:10564C00782430125A782431125A782432125A782B
:10565C002433125A78245D125A6F2405F8E43583EA
:10566C00F9125A837003E9658370F6EE24371266DB
:10567C0018541FF8EE242A126618C43354E048F567
:10568C00D975E195901D0274FFF0A3740BF0A3740F
:10569C0005F0A3740C1256DA740BF0A3740C1256AA
:1056AC00F89006EDE0F9122E56908D68121E0F122E
:1056BC000D5B908D78121E0F120D2590600DE4F08D
:1056CC007901120DAF9003697406F0025E4CF0A3E1
:1056DC001256E31256E3221256E72274F9F0A37421
:1056EC000BF0A374F9F0A3740BF0A3221256FC2256
:1056FC00F0901D10125708A3125708221256E77487
:10570C00F9F0A3740BF02274EC121FA99006DE12B0
:10571C00626E7810121DF19006EFE0FAF875F00C3D
:10572C00A4C8ACF02C1263EAFFEE2EFEEF33FF8E12
:10573C000CF50D750E00750F008510088511098587
:10574C00120A85130B908D587808121D5778081281
:10575C0021B885100885110985120A85130B780864
:10576C00790C121D447810790C121C9DE4F50EF581
:10577C000F7808790C121D7D8A0C750D0074037856
:10578C000C121F267808790C121D44908D70780825
:10579C00121DB8AA08AB09AC0AAD0B122DEE74049D
:1057AC00121F4F8A088B09A808A909C3EE98EF9914
:1057BC005006E82EF8E93FF9E890600EF0E9A3F006
:1057CC00EEA3F0EFA3F090600D74C1F07F0C0220FB
:1057DC007BC082C0839006C71257FD9006DB025433
:1057EC0014C082C0839006DE1257FD9006ED025461
:1057FC0014125811125807F0A3F0222406F582E473
:10580C0038F583E422E0F8A3E0C82202013274F6F2
:10581C00121FA91259B46004780480027800E8249D
:10582C000EF8ECC39850030258E87C0C9006F9E48F
:10583C00F0EA2476F582E43BF583E09006FAF0EA90
:10584C0024771258ED9006FB1258F79006FCF0EAFC
:10585C0024791258ED9006FD1258F79006FEF0EAE6
:10586C00247B1258ED9006FF1258F7900700F0EACF
:10587C00247D1258ED9007011258F7900702F0EAB8
:10588C002474F8E43BF98A828B83A3A3A3A3A3E03B
:10589C00FEA3E0FF88828983E02EF0A3E03F125F35
:1058AC00919007031258F79007041259D860177596
:1058BC0008F975090678081221BC7903120BED74EE
:1058CC0002121F4F7C10125C1EECFE1259ABDEFB59
:1058DC0075E1957904120D61790180027900025C01
:1058EC0013F8E43BF988828983E022125F96A3E0E7
:1058FC002274F6121FA91259B4600478048002783D
:10590C0000E8240AF8ECC39850030259A67E0890CC
:10591C0006F97401F07CBD7D0678FA79067F0512D4
:10592C0059C2A882A983DFF7EA2480FCE43BFD8AF4
:10593C00828B83A3A3A3A3A3E0F508A3E0F5098CB2
:10594C00828D83E02508F0A3E03509F01259C208D6
:10595C00A9838C828D83E0888289831259D860193F
:10596C007508F975090678081221BC7C08790312B0
:10597C000BED7402121F4F7E0C74012EF5D975D9E4
:10598C00037582F9758306EEFF1259ABDFFB75E1E7
:10599C00957904120D61790180027900025C131271
:1059AC0059AF22E0F5D9A3229061D0E0F87480C3FE
:1059BC0098FC1259DD221259C6228C828D83E08804
:1059CC008289831267D688828983A322F01259DDDB
:1059DC0022EA2482F582E43BF583E02274F7121F5D
:1059EC00A9EAFEEBFF9061D0E0706875D91875D903
:1059FC000375D903EE249B125A8A125A837003E959
:105A0C00658370F6EE24A3125A7824A4125A7824D3
:105A1C0093125A8A125A837003E9658370F6EE2446
:105A2C0087125A64125A837003E9658370F675E124
:105A3C00957908EE2493FAE43FFB120B8D7904EE72
:105A4C002487FAE43FFB120B8D7904120D61125B73
:105A5C009880027900025E4C125A6F2404F8E435E7
:105A6C0083F922F582E43FF583E58222F582E43F57
:105A7C00F583E0F5D9EE221259AFE8658222125A6D
:105A8C006F2408F8E43583F92274F6121FA9EAFE94
:105A9C00EBFF9006F97406125B411221BC7C017974
:105AAC0003120BED7402121F4F75D90675D90375CD
:105ABC0082F9758306125B397004E583640670F510
:105ACC0075E195900369E064087010EE246FF5821F
:105ADC00E43F125AECEE24711265A77901025C13B3
:105AEC00F5831267A52274F6121FA9EAFEEBFF904C
:105AFC0061D0E070339006F9740A125B411221BC3C
:105B0C007C017903120BED7402121F4F75D90675C7
:105B1C00D9037582F9758306125B397004E58364C9
