:020000040000FA
:060000000201070225B118
:03002B0002281A8E
:03003B0002283B5D
:030043000227D7BA
:030053000226275B
:03007B000227FD5C
:10008300022407E5C754F84401F5C77901220000AB
:100093000080FB120086B900030200F1E4792378A3
:1000A30002B800028004F709D8FCE479257802B885
:1000B30000028004F709D8FCE490028178D2791A0F
:1000C3008002F0A3D8FCD9FA7A527B1C90013778CE
:1000D300E479018015E493A3AD82AE838A828B8396
:1000E300F0A3AA82AB838D828E83D8E9D9E7758288
:1000F300E67583E97403120119758291758300749F
:100103000012011975D00075813F75218175220296
:10011300759F00020096C09FF59FE473D09F22D085
:1001230083D082C09FE493C0E0740193C0E0740263
:1001330093F59F22AC03B803EE03E803FF0000B47A
:10014300000028002800283075A000A000A000A00F
:100153000000080008E001F000100010001000107B
:10016300001000100050005000500010001000D08C
:10017300070000000000000F0001000500307507B4
:10018300001000010081FF00000000FFFFFF0202DA
:10019300020C8E010000078E02168E010000AC1CBB
:1001A300021A8E010000B80202168E010000AD1C77
:1001B300021C8E010000CE02FFFF0100FF20020C93
:1001C3008E010000048E02168E010000DB1C021E4D
:1001D3008E000000000002188E030000FA021700D0
:1001E300E00BE00BE00BE00BE00BE00BE00BE00BB4
:1001F300E00BE00BE00BE00BE00BC00DDE0DBA0DE6
:10020300FFFFFFFFFFFF01E803057710020A01016B
:100213000101FEFF04FF001201222ED50312012269
:1002230041D50312012262D503120122CDD5031257
:1002330001220ED6031201222FD60312012270D6F9
:100243000312012208D70312012250D703120122FD
:100253000CC7031201221FC70312012250C7031246
:1002630001228AC703120122E3C7031201222AC80B
:100273000312012272C803120122A1C80312012230
:10028300D0C80312012207C9031201224EC9031267
:10029300012267C903120122BCC903120122EAC960
:1002A3000312012224CA03120122DBB60212012225
:1002B300DEB7021201220BB8021201225CB802124D
:1002C30001227FB80212012291B80212012294B8CE
:1002D30002120122D2B80212012246B902120122ED
:1002E300B2B9021201227ABA0212012296BA02129A
:1002F3000122CDBA0212012207BB021201229EBBC8
:1003030002120122F0BB0212012221BC02120122BD
:1003130052BC021201225FBC02120122C9BC0212AA
:100323000122CCBC02120122D9BC02120122DCBC84
:100333000212012233BD0212012236BD0212012232
:100343006FBD0212012272BD02120122A6BD02126A
:100353000122A9BD02120122FDBD0212012246BEE5
:100363000212012256BE0212012289BE021201228A
:1003730096BE0212012299BE0212012201BF02128D
:10038300012203C002120122A7C00212012210C1DE
:10039300021201224EC1021201221DDF02120122AA
:1003A30015E00212012249E002120122DFE00212EB
:1003B30001222AE1021201228EE10212012218E235
:1003C30002120122D1E202120122F3E502120122FA
:1003D30070E70212012293E702120122BEAB03125D
:1003E300012263AD0312012283AD03120122A4AEE5
:1003F30003120122F7AE0312012222B403120122D7
:100403004AB40312012277B403120122AFB40312D8
:1004130001220DB50312012259B503120122C0B501
:100423000312012200B6031201223DB60312012278
:100433006BB60312012215B7031201221FB7031271
:1004430001222CB7031201225FB7031201226BB7FB
:100453000312012283B7031201228DB70312012273
:10046300BBE403120122C9E403120122E1E40312F3
:100473000122F9E40312012210E503120122008094
:1004830002120122AA8002120122268102120122F3
:100493004482021201228082021201221B83021271
:1004A3000122FF8302120122C284021201223A8531
:1004B30002120122C8860212012239870212012286
:1004C300F38702120122E588021201222589021212
:1004D3000122D989021201220B8A02120122018C04
:1004E30002120122438C02120122618C02120122A8
:1004F300E68C02120122AA8D02120122C98F021276
:10050300012208BC031201221EBC031201223CBCBF
:10051300031201224DBD0312012257BD0312012212
:1005230082BE0312012279BF03120122E6BF031226
:100533000122249E03120122C89E03120122FF9E60
:1005430003120122499F0312012208A1031201226F
:1005530030A401120122E1A401120122FDA401121F
:100563000122C6A501120122E0A501120122EBA579
:1005730001120122C1A6011201229EA7011201222A
:100583002EA801120122E5A801120122F3AB0112E8
:100593000122E2AD0112012294AE011201225DAFEC
:1005A30001120122A2B2011201224CB30112012253
:1005B30075B40112012231B601120122D1B6011222
:1005C30001221FB7011201225EB70112012231B8C5
:1005D3000112012265B801120122F2B801120122AF
:1005E30071CF01120122FDCF0112012261D101124B
:1005F30001226DD101120122A8D10112012217D2C9
:100603000112012220D30112012229D40112012255
:10061300F0D4011201224DD6011201226BD6011230
:10062300012288D60112012253D7011201227BD75E
:100633000112012245DA011201224ADA01120122D2
:1006430063DC01120122B1DC0112012221DD01125E
:1006530001225FDD011201223BDE01120122FBDEDA
:100663000112012247DF011201224ADF0112012296
:100673008EDF01120122D6DF0112012215E00112E1
:10068300012237E0011201226BE001120122CEE0C8
:1006930001120122B48F03120122BD8F0312012222
:1006A300CB8F031201221E90031201223D900312ED
:1006B3000122829003120122C69103120122619248
:1006C30003120122A59203120122CF9203120122E7
:1006D3003E9303120122849303120122FB9303121C
:1006E3000122AC9403120122B42800120122C4286F
:1006F30000120122652900120122C12900120122E0
:100703007E2A001201229A2B00120122CC2B001206
:100713000122FB2B00120122A82D001201221F30FF
:10072300001201228F3200120122813300120122B2
:100733007A34001201228136001201227539001227
:100743000122A43A00120122A83C00120122B83D62
:1007530000120122473F00120122384000120122F9
:10076300864000120122F5400012012219410012B5
:1007730001226A41001201220B46001201220C479A
:10078300001201226D470012012298470012012234
:100793005E48001201221BB80312012225B803127E
:1007A30001226AB8031201227EB8031201220EB994
:1007B3000312012236B90312012271B90312012275
:1007C3009AB903120122CEB903120122E3B903122B
:1007D30001224EBA031201226FBA0312012283BA15
:1007E3000312012298BA03120122D2BA0312012280
:1007F30037BB031201227ABB03120122A4BB0312EB
:100803000122E0BB0312012289FE01120122EBAB9C
:1008130002120122CEAC0212012249AD02120122C0
:1008230084AD02120122D5AE021201225EAF021282
:10083300012276B10212012208B402120122BAB4D3
:1008430002120122D9B50212012232B6021201228A
:10085300918A03120122D48A03120122588B0312B4
:1008630001222B8C03120122028F031201221FD0BB
:1008730003120122CCD003120122D9D10312012287
:1008830018D20312012272D2031201223DDB03129A
:100893000122A0DB031201223DDC031201226BDCE7
:1008A300031201228CDC03120122C7DC0312012292
:1008B300E7DC03120122BE94031201224A950312BC
:1008C30001220996031201222197031201223B9967
:1008D30003120122CCCB02120122F1CB021201221C
:1008E300C5CC0212012232CD0212012288CD02129E
:1008F300012224CE0212012258CF0212012233D048
:100903000212012292D00212012263D102120122A9
:10091300EFD102120122F2D1021201223CD20212C1
:100923000122AED20212012259D30212012279D33B
:1009330002120122C1D302120122DDD302120122CB
:1009430057D40212012265D402120122F4D40212F6
:1009530001225DD502120122BFA20312012244A388
:100963000312012286A3031201226AA403120122A5
:10097300D7A4031201221BA5031201225FA50312B0
:1009830001228CA503120122B4A503120122ECA5B6
:10099300031201222AA60312012251A603120122E5
:1009A300CBA60312012215A7031201221161001223
:1009B3000122DE6200120122CC64001201222065B2
:1009C300001201224B6500120122F9650012012277
:1009D3002966001201225866001201226B6600127A
:1009E3000122AC6600120122D8660012012226679A
:1009F300001201225D6700120122A9670012012281
:100A03000868001201229B68001201228569001206
:100A13000122746A001201221F6C001201223E712E
:100A23000012012297710012012280730012012229
:100A33004F7500120122D175001201221F77001297
:100A43000122307700120122BDD203120122A8D362
:100A530003120122EBD3031201223AD4031201221F
:100A63008BD403120122DCD403120122CA480012E0
:100A730001224B4900120122784900120122C14987
:100A830000120122C24A00120122114B001201225C
:100A93008D4C001201220F4D001201226C4D0012E9
:100AA3000122BF4D00120122AE4E0012012243501B
:100AB300001201220D51001201221D5100120122C8
:100AC3004751001201224A51001201222D520012F5
:100AD3000122185300120122C5530012012222548D
:100AE300001201227B5400120122DF540012012262
:100AF300875500120122235600120122B05600121C
:100B03000122255700120122815700120122E057CA
:100B130000120122075800120122CC5800120122B0
:100B2300B85A00120122015B00120122315B00124C
:100B33000122A45B001201222A5D00120122DA5D68
:100B430000120122FF5D001201223E5E001201220B
:100B5300535E00120122965E00120122065F00120C
:100B63000122505F001201225A6000120122DB6051
:100B73000012012280D502120122CBD502120122DA
:100B8300D7D502120122ABD602120122C2D602121B
:100B93000122FFD60212012230D70212012268D7A6
:100BA30002120122BED702120122D4D7021201225D
:100BB30010D80212012223D8021201224AD80212AB
:100BC30001227ED802120122A4D902120122EEDAF6
:100BD30002120122EADB0212012200DD02120122CB
:100BE300A92800120122648503120122128903122B
:100BF3000122468A03120122A4F2011201225DF5A9
:100C03000112012263F50112012214F801120122DB
:100C13006EFA01120122729903120122099A031238
:100C23000122C79A03120122F19A03120122279D7E
:100C330003120122218E011201225C8E0112012274
:100C4300B098011201221C9A01120122199B011270
:100C530001229E9E01120122939F01120122DF9F16
:100C630001120122F99F011201223AA0011201226D
:100C730043A001120122F5A001120122C5A1011214
:100C830001220CA20112012272A201120122E4A28A
:100C930001120122B8FC0212012295FD0212012267
:100CA300D9FD0212012213FE02120122ABFE02122F
:100CB30001221AFF0212012223FF021201222FFF37
:100CC3000212012249FF0212012273FF02120122C2
:100CD300A3FF02120122B5F002120122C2F0021296
:100CE3000122DCF0021201220FF1021201224DF166
:100CF30002120122B2F102120122C7F102120122F1
:100D0300DEF102120122ECF102120122FBF10212C6
:100D1300012210F20212012225F20212012230F204
:100D2300021201223CF20212012249F202120122B2
:100D330058F20212012263F20212012288F2021215
:100D430001222CF30212012241F30212012256F373
:100D53000212012270F3021201228DF30212012208
:100D6300AAF302120122B5F30212012261F4021264
:100D7300012242F50212012267F50212012272F5E5
:100D83000212012287F5021201229BF502120122AF
:100D9300FCF50212012202F60212012208F60212E7
:100DA30001220EF60212012226F60212012259F640
:100DB3000212012274C10212012296C102120122FF
:100DC3005EC20212012218C5021201222EC60212AD
:100DD30001224FC70212012229C802120122D8C8D8
:100DE30002120122689E02120122FF9E02120122B8
:100DF300979F0212012287A002120122BEA00212B3
:100E03000122D1A0021201223FA102120122DAA281
:100E13000212012201A302120122A3A30212012240
:100E2300D8A302120122E9A30212012262A4021230
:100E3300012283A4021201229BA402120122F3A520
:100E430002120122FCA7021201224CAA0212012261
:100E53004FAB021201229EAB02120122D68F021265
:100E63000122D39002120122BE9102120122C891E3
:100E730002120122EA9102120122F69102120122C8
:100E8300489302120122779302120122A7940212BD
:100E93000122E99402120122159602120122EB9615
:100EA300021201223D97021201229C970212012293
:100EB300D397021201220E9802120122A99B021259
:100EC3000122C29B02120122449C02120122529C63
:100ED30002120122A79C02120122B59C02120122D6
:100EE300229D02120122949D02120122DA9D021216
:100EF3000122F5DC031201221ADD031201228BDD2C
:100F030003120122B6E802120122BFE802120122F3
:100F1300C8E802120122F9E90212012218EC0212B6
:100F230001224EEC0212012288EC02120122BEECD5
:100F330002120122F8EC021201222CED021201220C
:100F430058ED02120122A1ED02120122DBED021281
:100F5300012223EE0212012279EE02120122AEEEE9
:100F63000212012209EF0212012243EF02120122AF
:100F730094EF02120122CAEF0212012204F00212BC
:100F8300012227F0021201222BE70312012257E765
:100F930003120122B2E703120122BCE7031201226A
:100FA300CCE7031201220080031201220A800312FC
:100FB3000122488003120122918003120122CB8077
:100FC3000312012225810312012246810312012209
:100FD3004F8103120122A08103120122C98103124E
:100FE3000122DE81031201224F8203120122DD82DC
:100FF300031201221A83031201224A8303120122DC
:10100300CE83031201220E840312012246840312AB
:10101300012258840312012277840312012280845F
:10102300031201223A8503120122D2E203120122A2
:101033008CCA03120122D0CA0312012206CB031267
:101043000122EECC0312012248CD0312012251CD1D
:10105300031201225ACD03120122837F00120122BF
:10106300997F00120122A37F0012012204B0031210
:1010730001221DB003120122C1B00312012201B1EA
:10108300031201221AB1031201224EB103120122EB
:101093009BB103120122CFB10312012211B2031239
:1010A300012215B4031201229DFF01120122ABDEBE
:1010B30003120122E9DE031201220EDF03120122D1
:1010C30025DF0312012241DF0312012258DF03123D
:1010D30001226FDF03120122A8DF03120122DCDFEA
:1010E3000312012213E0031201227BD70312012210
:1010F30097D70312012214D80312012230D8031206
:10110300012293D80312012234D903120122DBF600
:10111300021201221AF702120122A3F7021201227C
:10112300B8F70212012203F80212012237F8021261
:10113300012276F80212012285F8021201223AF9FD
:101143000212012293F902120122E2F90212012290
:1011530035FA021201224AFB0212012243FC021257
:10116300012280FC0212012289E903120122E8B95B
:10117300011201225EBC01120122D6BD011201221D
:1011830037BE01120122D6BE01120122C8BF0112CD
:1011930001224DC001120122C9C001120122EEC079
:1011A30001120122B7C3011201222BC40112012231
:1011B30017C50112012251C50112012291C5011265
:1011C30001224BC7011201227CC701120122CFC7A2
:1011D3000112012218C80112012286C8011201223C
:1011E300B8C801120122D0C801120122E5C90112B7
:1011F3000122F5C9011201225ACB011201227ACB35
:1012030001120122B0CB011201225DCD0112012294
:10121300DDCD011201221CCE0112012243CF0112A6
:10122300012261D903120122BED90312012281DAFC
:1012330003120122A0DA03120122F6DA03120122B9
:10124300D6E703120122E6E70312012239EA031269
:10125300012278EA0312012202E9031201222DE995
:101263000312012237E9031201226FE9031201225B
:10127300A0EA03120122CCE303120122DCE30312EE
:101283000122FDE303120122B1E403120122CEE1A4
:101293000312012253E203120122B9E203120122D3
:1012A300A0E503120122C1E503120122D4E50312D2
:1012B3000122E6E50312012213E60312012238E6B6
:1012C3000312012255A70312012269A70312012267
:1012D300E2A703120122BBA80312012279AB031276
:1012E300012274CD031201228DCD03120122A8CD58
:1012F30003120122B9CD03120122CCCD0312012224
:10130300DDCD031201221FCE031201222DCE0312C3
:10131300012265CE0312012291CE03120122C6CE11
:1013230003120122EACE0312012213CF0312012278
:101333006CCF031201228ACF03120122A4CF03121E
:101343000122C2CF03120122CFCF03120122FBCF0E
:101353000312012271E6031201228BE6031201221A
:10136300A5E60312012204E703120122F0BF0312D0
:10137300012280C003120122FEC00312012287C191
:101383000312012235C203120122BFC2031201223A
:10139300D0C203120122DFC203120122F5C20312DB
:1013A300012208C30312012268C3031201227CC372
:1013B30003120122A6E10112012235E301120122E7
:1013C30092E4011201222BE601120122C4E601126A
:1013D3000122A0E7011201228FE801120122F2E9A2
:1013E300011201226DEA011201229AEA011201227D
:1013F300B5EA0112012246EB0112012282EB01122E
:1014030001229CEB01120122A7EE01120122DFEE61
:1014130001120122E2EE011201222FF20112012236
:1014230073E803120122DCE803120122E7E8031246
:101433000122F7E80312012247E0031201229CE094
:10144300031201220AE1031201227AE103120122AB
:101453007FC303120122A9C303120122A3C40312EF
:101463000122C8C4031201225FC503120122E1C590
:101473000312012253770012012210780012012275
:101483004B7800120122737800120122D5780012E2
:1014930001222179001201227A79001201220B7AAA
:1014A300001201220D7B00120122CA7C00120122CC
:1014B3004C7D00120122B17D00120122C87D001271
:1014C3000122D87E00120122167F00120122D1FFD1
:1014D3000212012282EA03E066701008A3E066703C
:1014E3000A08A3E066700408A3E06622C3E796082F
:1014F30009E7960809E7960809E79622C3E09608E4
:10150300A3E09608A3E09608A3E09622C008C3E0F0
:1015130096F50808A3E096420808A3E09642080857
:10152300A3E09645087001D3D00822080808E630E6
:10153300E71112195C121546080808C64480C6183C
:10154300181822181818E9799EC608CAC608CBC607
:1015530008CCC6C370207996CACBCC7019798ECBD0
:10156300CC70137986CC700EF9802ACA33CACB3378
:10157300CBCC33CC331930E7F2CCCBCA3350147015
:1015830004EA30E00DE4CA3ACACB3BCBCC3CCC50A6
:101593000209C3E913C6CC182313C6CB18C6CA184D
:1015A300C6F9221215E620F01430E72B74FFFCFB7A
:1015B300FA747F8022E4FCFBFA7480801AB48008FA
:1015C300BC00F2BB00EF800F50EBF9E4C39AFAE4DE
:1015D3009BFBE49CFCE499C6CC18C6CB18C6CA187E
:1015E300C6F922E4C9C608CAC608CBC6D333030862
:1015F300CCC63392F0C3947F402E94184019C9B9D6
:101603000704CACBCC225025C309CA33CACB33CB78
:10161300CC33CC33D9F422F4600DC9CCC313CB1330
:10162300CBCA13CAD9F6CC22E4FCFBFA2214FCFB86
:10163300FA22E62618461846184622E727194719BC
:1016430047194722E60846087009E626087005E6AA
:1016530033F4220822E70947097009E727097005CF
:10166300E733F4220922E6084608C3134608336029
:1016730002E633F422E7094709C31347093360023B
:10168300E733F42212166970041818182212167818
:10169300700D74FFF61819F61819F61819F622E7E3
:1016A300548066F6121635700F12163E70F014F65B
:1016B30008F608F608F680D112163E700CF608F606
:1016C30008768008E6447F80EC121658700C1216D8
:1016D3004760BFE65480F6E480BB121647700519D5
:1016E300191980A5E869700C763F18768018F618EA
:1016F300F6E8F922E6CDC0E018ECC0E0E633CD33DE
:10170300CDD313F6E719FCE7191933CC33C3947F10
:10171300400ECD9D502408E65480F6E418F6800F61
:10172300F4043D14501408E6447FF6187680E41858
:10173300F618F6D0E0FCD0E0FD22CCD313CCFD1894
:10174300E4C6CBC0E018E4C6CAC0E00808ED08C68A
:1017530033E613F618E433C675F003C3CA97CA0910
:10176300CB97CB199C40047D08802EBD0003021843
:101773003016B6FF050606081618C3CA33CACB339C
:10178300CB33CA27CA09CB37CB193CC37D08803E6C
:10179300187D0820E75CC633C6CA33CACB33CB33C4
:1017A300DDF1D5F0EB30E77BCA97CA09CB974ACB7B
:1017B300199C406F4B7025E620E0218066187D0858
:1017C300C3CA97CA09CB97CB199CD3C633C6CA33AE
:1017D300CACB33CB3350C9DDE7D5F0E1D3E4C6360A
:1017E300C608C636C608C636C608C636C61818188A
:1017F3008031C3CA97CA09CB97CB199CB34097C60C
:1018030033C6CA33CACB33CB33DD34D5F02EC6A2AD
:10181300E0C640C8CA27CA09CB37194A70BECB3CB9
:10182300B480B90808E63308E633601F181818D0E7
:10183300E0FAD0E0FBD0E0FCD0E0FD22187D08CA3E
:1018430027CA09CB37CB193CD3808013F618E4B6EB
:101853007F11F618B6FF0EF618C60470D208087684
:101863008080CAF618F618F680C5080808EAC0E0B2
:10187300EBC0E086F0E7A4FA180986F0E7A42AFA99
:10188300180986F0E7A42AFA180986F0E7A42AFAC9
:101893001986F0E7A4FBE5F02AFA190886F0E7A415
:1018A3002BFBE5F03AFA190886F0E7A42BFBE5F0E9
:1018B3003AFA18180986F0E7A4C5F02BFBE43AFAC4
:1018C3001908E7C5F0C6A426F6E5F03BFBE43AFAAF
:1018D3001886F0E7A4F6E5F00826F6E43B08F6E4FC
:1018E3003A08F6D0E0FBD0E0FA22E4CFC0E0E4CE41
:1018F300C0E0E4CDC0E0E4CCC0E075F020E626F61D
:1019030008E633F608E633F608E633F6181818EC5B
:1019130033FCED33FDEE33FEEF33FFC3EC9709EDFC
:101923009709EE9709EF97191919400FFFEC97FCE8
:1019330009ED97FD09EE97FE191906D5F0BFECF7EF
:1019430009EDF709EEF709EFF7191919D0E0FCD003
:10195300E0FDD0E0FED0E0FF22181818E4C396F6AD
:1019630008E496F608E496F608E496F6226016086C
:101973000808C6C313C618C613C618C613C618C6A6
:1019830013C6D5E0EA227009080808226016181861
:1019930018C6C333C608C633C608C633C608C6331B
:1019A300C6D5E0EA22E627F60809E637F60809E68F
:1019B30037F60809E637F622E026F608A3E036F6FE
:1019C30008A3E036F608A3E036F622E026F008A3E3
:1019D300E036F008A3E036F008A3E036F022C3E6D1
:1019E30097F60809E697F60809E697F60809E697D1
:1019F300F622C3E096F008A3E096F008A3E096F081
:101A030008A3E096F022E657F60809E657F6080918
:101A1300E657F60809E657F622E056F608A3E0561D
:101A2300F608A3E056F608A3E056F622E056F008BF
:101A3300A3E056F008A3E056F008A3E056F022E036
:101A430066F608A3E066F608A3E066F608A3E06678
:101A5300F622E0F608A3E0F608A3E0F608A3E0F612
:101A630022E6F008A3E6F008A3E6F008A3E6F022D6
:101A7300E0FAA3E0FBA3E0FCA3E0FD22EAF0A3EB82
:101A8300F0A3ECF0A3EDF022E0F8A3E0F9A3E0FA71
:101A9300A3E0FB22E8F0A3E9F0A3EAF0A3EBF02232
:101AA300CAC0E0E6F0A308DAFAD0E0FA22CAC0E03E
:101AB300E0A3C582CCC582C583CDC583F0A3C5820F
:101AC300CCC582C583CDC583DAE6D0E0CA22C3E4A0
:101AD30098F8E499F9121B128026C3E49AFAE49B5E
:101AE300FBE920E7E9121B12E498F8E499F922C311
:101AF300E498F8E499F9121B12E498F8E499F9C30D
:101B0300E49AFAE49BFB22EB20E7CFE920E7E0B974
:101B13000010BB0008E88AF084F8AAF022E4FBC8AE
:101B2300FA22EB70227B10C833C8C933C93350077C
:101B3300C39AC3DBF280069A50012ADBEAC833F466
:101B4300C8C933F4C9FA2275F008E4C833C8C933E5
:101B5300C933C99AC99B5004C92AC93BD5F0ECFBC8
:101B6300C833F4C8E4C9FA22600D08C6A2E713C655
:101B730018C613C6D5E0F322600C08C6C313C618F3
:101B8300C613C6D5E0F422700422600D18C6C33311
:101B9300C608C633C6D5E0F41822252110AF08F5D0
:101BA30021400C15228008F52140021522D2AF22D4
:101BB30000C0D0252110AF08F521500C0522800864
:101BC300F52150020522D2AFD0D0222521F5821073
:101BD300AF08F521400C15228008F521400215229B
:101BE300D2AF852283222521F582E43522F5832293
:101BF3002521F8E43522F9222521FAE43522FB22B6
:101C03002521FCE43522FD22E4732521C582C0E0B1
:101C1300E52234FFC583C0E0E521C3958224F81093
:101C2300AF088583228582218008858322858221CE
:101C3300D2AFCEF0A3E520F0A37808E608F0A3DE48
:101C4300FAEFF0A3E58124FAF8E608F0A3E608F03A
:101C5300A3E608F0A30808E608F0A3E608F0A31536
:101C6300811581D0E0FED0E0F8158115811581E85A
:101C7300C0E0EEC0E0222521C582C0E0E52234FFAA
:101C8300C583C0E0E521C3958224F910AF0885839D
:101C9300228582218008858322858221D2AFCEF0DE
:101CA300A3E520F0A37808E608F0A3DEFAEFF0A39B
:101CB300E58124FBF8E608F0A3E608F0A30808E6AC
:101CC30008F0A3E608F0A315811581D0E0FED0E06B
:101CD300F815811581E8C0E0EEC0E02285228385F6
:101CE3002182E0A3FEE0A3F5207808E0A3F608DF55
:101CF300FAE0A3FFE0A3C0E0E0A3C0E0E0A3C0E0FC
:101D0300E0A3C0E0E0A3C0E010AF08858221858393
:101D1300228008858221858322D2AFD083D082029C
:101D2300011F852283852182E0A3FEE0A3F52078AD
:101D330008E0A3F608DFFAE0A3FFE0A3C0E0E0A316
:101D4300C0E0E0A3C0E0E0A3C0E010AF08858221BB
:101D53008583228008858221858322D2AFD083D0D8
:101D63008222C0D02521C582C0E0E52234FFC5838D
:101D7300C0E0E521C3958224F310AF088583228553
:101D830082218008858322858221D2AFC8F0A3E90E
:101D9300F0A3EAF0A3EBF0A37908E709F0A3D8FADC
:101DA300ECF0A3EDF0A3EEF0A3EFF0A3D0E0F0A3EB
:101DB300D0E0F0A3D0E0F0A3E520F0A3E5F0F0A39A
:101DC30022852283852182E0C0E0A3E0F9A3E0FA23
:101DD300A3E0FBA37808E0F608A3DFFAE0FCA3E0A6
:101DE300FDA3E0FEA3E0FFA3E0C0E0A3E0C0E0A307
:101DF300E0F5D0A3E0F520A3E0A3F5F010AF08854C
:101E030083228582218008858322858221D2AFD0D7
:101E130082D083D0E0F8D0E032740480067402806C
:101E2300027401C0E0F404121BCED0E0121AA32204
:101E33007404800474028000CCC0E0EDC0E0E521AE
:101E4300C39CCCAD2250011D10AF068C218D228086
:101E5300068C218D22D2AF121AB0D0E0FDD0E0FC67
:101E630022D083D082E9C0E0E493A3C386F0C5F017
:101E730095F0F908E493A386F0C5F095F0700BE4B0
:101E830093A3C3994005E9048002A3E475F002A477
:101E93002582F582E5F03583F583D0E0F9E493A359
:101EA300C0E0E493C0E022D083D082ECC0E0EDC078
:101EB300E0E493A3FCE493A3FDED4C600D121EF646
:101EC300EC24FFFCED34FFFD80EFE493A3FCE493EB
:101ED300A3FDED4C600D121F35EC24FFFCED34FF28
:101EE300FD80EFD0E0FDD0E0FCE493A3C0E0E493F9
:101EF300C0E022C0E0C3E4939608740193961840AF
:101F03000FE49366700808740193661870007019E3
:101F1300A3A3C3E49396087401939618A3A3400D57
:101F2300D0E0D0E0D0E0021EE6A3A3A3A3A3A3D0F6
:101F3300E022C0E0C0F088F0E49366700808740102
:101F43009366187000A8F0A3A3700BD0F0D0E0D074
:101F5300E0D0E0021EE6A3A3D0F0D0E02274F61294
:101F63001C79EAFEEBFF8C088D09EE2434F8E43F7C
:101F7300F9E8FCE9FDEE2435122255FAEE24371276
:101F83002255F88508F0A4C885F00A8509F0A42530
:101F93000AF9EA28F8E439F97A257B00121B12EAD8
:101FA3008C828D83F0FA131313541FF8EE28F8E490
:101FB3003FF9E8245DF582E439F583E0C0E0740776
:101FC3005AF8D0E0B800028004C313D8FCA2E0EEB4
:101FD30050082434F582E43F80182436122255F544
:101FE300F0EA84A8F0EE28F8E43FF9E82438F58213
:101FF300E439F583E0F97F03021D2574F7121C7998
:10200300EAFEEBFFEE2434122255C0E0EE2435F550
:1020130082E43FF583D0E0F08E828F83A3A3A3A352
:10202300A3A3A3C082C0838E828F83A3A3A3A3A3EE
:102033001220C6D083D082E0C398F508A3E099F5B7
:1020430009EE247F1222556401705DEE2480122074
:10205300C08E828F83A3A3A3A3A3A3A31223F88E6B
:10206300828F83A3A3A3A3A3E0FAA3E0FBC3EA9C09
:10207300EB9D5010C3EC98ED99402DC3EA98EB9972
:102083005026800EC3EA98EB994007C3EC98ED996C
:1020930040167CBD7D06EEFAEFFB120B14EE247F97
:1020A300F582E43FF583E4F0AC08AD09EEFAEFFB0B
:1020B300121F60E9F91227C37F02021D25F582E48E
:1020C3003FF583E0F8A3E0F92274EF121C79900343
:1020D30069E064086005E06407702A9061C8E06005
:1020E30024900397E0F4601DE0F875F00CA4C8AAEF
:1020F300F02AF9749928FE740339FF8E828F83A323
:10210300A3A3E070030221DA906060E0C0E0EE2454
:1021130068F582E43FF583D0E0F0750CF9750D06A0
:10212300750800750900E5D914F50AE5D95403F5D6
:102133000E60127403650E6043E50A600AEE2467BD
:10214300122255700280759006F4E06401601F123C
:10215300225260047A0480027A00E50AC39AFA954F
:10216300E0FB1209BE8A088B09EA45097005120DC6
:1021730096806412225270048A0C8B0DE50A601259
:10218300850C82850D83F50BE5D9F0A3150BE50BC3
:1021930070F6122252604474FC250AF50A780C1278
:1021A3001E20AC0AA90EEEFAEFFB120BDA74021230
:1021B3001BB3E97026AA08AB0912143E793D8E823F
:1021C3008F83A3A3A3A3E0FA7B00120838EEFAEFF0
:1021D300FB120B38120C3A7900806F7403650E60A2
:1021E30051850A107511007810121E20AC0CAD0D2C
:1021F300AA08AB09120B9E7402121BB3EE246812D9
:10220300225564807004747F8001E0F50C780C1211
:102213001E24E50EF50C780C121E24A90AAC08AD99
:1022230009900397E0FA7B001208087402121BB3AB
:102233008013900369E06408700BAC0CAD0DEEFAEB
:10224300EFFB120C0A120DA279017F0A021D25EE83
:102253002482F582E43FF583E02274F2121C797440
:10226300FC121B9DEAFEEBFF8909A2AFE433F508DC
:10227300C2AF022319E0601B780C121E20AC0BA91D
:102283000EEEFAEFFB120BD47402121BB374042587
:102293000BF50B7401250BF5D9850ED9E50B6018E9
:1022A300F50A850C82850D83E0F5D9A385820C851B
:1022B300830D150AE50A70EA75E195EE2463F8E4E7
:1022C3003FF97A007B00A2AFE433F50BC2AF1223D0
:1022D300F4EC4D603288828983E0FAA3E0FB8A82C2
:1022E3008B831223F888828983ECF0A3EDF08A8232
:1022F3008B83E4F0A3F01223F4EC4D700A888289F7
:1023030083A3A3E4F0A3F0E50BA2E092AF12143E83
:102313009006C4E004F0EE24631220C0E849606430
:10232300EE24631222552402F8A3E03400F98882D4
:102333008983E5822402F50CE43583F50DE0F50B82
:10234300A3E0F50EEE24621222556401703690610B
:10235300D0E0F812225260047C0480027C00748076
:10236300C398FA95E0FBE50B2CF8E43400F9E82474
:1023730002F8500109C3EA98EB99A2D265D0334021
:10238300030222789006C4E0604D9006C5E0F89001
:1023930006C4E0C398500C74026509703A9006C6EF
:1023A300E060348E828F83A3A3A3A3E0852182857B
:1023B30022831223EA7402121BE9E81223EA90062D
:1023C300C3E028F07402121C03AA21AB2279011284
:1023D30008629006C4E4F0E508A2E092AF74041228
:1023E3001BB37F07021D25F0A3E4F09006C4E0F8B9
:1023F3002288828983E0FCA3E0FD220000852387F5
:102403008524C622C0E074EB121D65A2AFE433F548
:1024130008C2AF759B00906182E0A2E05030E59165
:10242300A2E0502A7591FE74016523702112259A4A
:10243300120CCA122588121E331226FF7404121BB3
:10244300B3E9640170057901120CFA1220CC906192
:1024530082E0A2E5505DE591A2E550577591DF90CA
:102463000369E064076005E06408702F12259A741D
:10247300016523703E120CCA122588121E331226E0
:10248300FF7404121BB3E9640170057901120CFA9D
:102493007901EEFAEFFB12225D8018E0640D7013F0
:1024A30090038BE004F064287002E4F07A00E0F912
:1024B300120DA8906182E0A2E6400302255DE5913A
:1024C300A2E6400302255D7591BF900369E06405B0
:1024D3007008120CB2120CBE8003120CB8752300E4
:1024E300120D18E990036AF07900120CFA120A7EB1
:1024F3007A017B00900368E0F9121000907803E002
:10250300644270569006F8E014F0704EC2AF122584
:1025130014007826D0E0F618D0E0F6E59F5407F8CB
:102523007005750DFF8003750D7FC4C0E07825E647
:10253300F50A08E6550DF50B740B780A121B7BD0D0
:10254300E0250AF8906270E0A2E740F8E8C3339010
:102553006272F0906270E0D2E0F0906181E0A2E3F9
:102563005009E5E9A2E3500375E9F7A3E0A2E750B8
:1025730009E591A2E7500375917FE508A2E092AFC8
:102583007F08021DC48E828F83E0F8A3E0C824165F
:10259300F582E438F58322900397E0F875F00CA4F4
:1025A300C8AAF02AF9749928FE740339FF22C0E0FF
:1025B300C0D0C082C083906183E0A2E05009E5BF30
:1025C300A2E0500375BFFEE0A2E15009E5BFA2E11E
:1025D300500375BFFDE0A2E25009E5BFA2E250033C
:1025E30075BFFBE0A2E35009E5BFA2E3500375BF4B
:1025F300F7E0A2E45009E5BFA2E4500375BFEFE0A2
:10260300A2E55009E5BFA2E5500375BFDFE0A2E6EE
:102613005009E5BFA2E6500375BFBFD083D082D077
:10262300D0D0E032C0E074F2121D65E5A7A2E650F7
:102633000FE5A1A2E6500953A7BF75A1BF12267BE0
:10264300E5A7A2E5500CE5A1A2E5500653A7DF7567
:10265300A1DFE5A7A2E15009E5A1A2E1500375A11D
:10266300FDE5A7A2E2500CE5A1A2E2500653A7FBA9
:1026730075A1FB7F01021DC474F7121C7975230138
:10268300900369E064067015120C5E8A828B83A343
:10269300A3A3A3A3A3E0FAA3E0FB120CA0A2AFE4BD
:1026A30033FED2AF90036FE0640170187A207B0091
:1026B300900368E0F91210907A207B00900368E0A1
:1026C300F9121006906182E0D2E6F09006F5E06020
:1026D3002185C624801690036EE064017008E5C668
:1026E30054F84405F5C653BEFC1224007401652357
:1026F30060E4EEA2E092AF7F02021D2574F1121C8A
:10270300798A088B098C0A8D0B908DFC7808121A34
:102713001C740F121BE9780C121A55908DFC780C5F
:10272300121A1C7808790C1214EF908DBC50107893
:1027330008790C1219E1780812150F4014800E78ED
:102743000C79081219E1780C12150F5004790180E5
:102753000279007F08021D2574ED121C798A088B0B
:10276300098C0A8D0B908DFC7808121A1C741312B5
:102773001BE9780C121A55908DFC780C121A1C78F0
:102783000C79081214EF40117808790C1219E1AA98
:1027930008AB09AC0AAD0B802275100075110075EA
:1027A30012007513017810790C1219E17810790869
:1027B3001219A8AA10AB11AC12AD137F0C021D2580
:1027C300C082C083E9906000F0D083D08222C2AF80
:1027D30002000022C0E074F2121D65A2AFE433FED2
:1027E300D2AFC2C0E5D1A2E4500653D1EF1213AE6B
:1027F300EEA2E092AF7F01021DC4C0E074F2121D8D
:1028030065E5A8FED2AF1212BEC2EBEEA2E7A2E7C5
:1028130092AF7F01021DC4C0E0C0D0E8C0E0E9C0B0
:10282300E0E5A8D2AFC2C7A2E7A2E792AFD0E0F932
:10283300D0E0F8D0D0D0E032C0E074F2121D65A22F
:10284300AFE433FCD2AF901BBEE0F8A3E0F9A3E002
:10285300687003A3E069700A539AFB901BC274016A
:102863008039C2E9901BBEE0F8A3E0F9E82401FA3D
:10287300E439FB901BBEEAF0A3EBF0742E28F5823B
:10288300741A39F583E0F5C1901BBEC3E09490A39D
:10289300E094014007901BBEE4F0A3F0ECA2E092A9
:1028A300AF7F01021DC402011FFFFFFFFFFFFFFFF8
:1028B300FFC082C083E9901CDAF0D083D08202018A
:1028C3001F74F6121C0DE99002DCF090033BE0F557
:1028D3000875090074027808121B8AAA08AB09124A
:1028E300103C9002DD1232779002DD123664606F85
:1028F30090033BE075F003A4FAABF012103C900296
:10290300FA1232779002FA123664700B9002DD12DB
:10291300363512104280489002FA1245C97AFF7B7D
:10292300FF1212227A0080198A087509007402784E
:1029330008121B8A12407174FF122A77E4F0A3F085
:102943000A90033BE0F8EAC39840DD7905120700DB
:102953009002DCE0F91205EC7A8A7B0712095E0229
:10296300411474F4121C0D8A088B09EB54806047E0
:102973009002DCE0F9120FE88A0A8B0BAE0AAF0B68
:10298300EE4F602A8E828F83E064B0701A120712B2
:10299300E960148E828F83A3A3A3A3E0F9EE240539
:1029A300FAE43FFB1206E2EEFAEFFB120FD6AA0897
:1029B300E5096480FB80047A007B00022BC774F274
:1029C300121C0D74FB121B9DEAFEEBFFEE4F6045DC
:1029D3007403121BE9EEF0A3EFF0852182852283B5
:1029E300ECF0A3EDF07402121BE9E9F0AA21AB228B
:1029F3001205E6E9F50870757413121BE9E0F50A90
:102A0300A3E0F50BE50A450B60638E828F831230DA
:102A130000EE4F700575080280537A067B00121092
:102A23003C8A0C8B0DA80CA90DE849700575081399
:102A3300803B88828983E4122A77EEF0A3EF122B7E
:102A430093E50AF0A3E50BF09002E0122B8C9002C1
:102A5300E06017E0FCA3E08003EAFCEBFD8C828DD1
:102A630083122B8C70F38C828D83123C8CA9087497
:102A730005024849F0A31245ABA32274F2121C0DC0
:102A83008908890C750D007403780C121B8A850C58
:102A93000A850D0B9002DFF09002DD123A97122B9C
:102AA3008A602E1210427900801D890C750D007406
:102AB30002780C121B8A9002DD123F308882F58364
:102AC300A3A3E4F0A3F00990033BE0F8E9C3984023
:102AD300D990033BE0FA850AF0A4CAA8F0850BF06D
:102AE300A428FB12103C8A0C8B0DAE0CAF0DEE4FDD
:102AF3007003022B8090033BE0FC850AF0A4CCA872
:102B0300F0850BF0A428FD7900120FC47C008031FE
:102B13008D0C750D007403780C121B8A8A828B83CB
:102B2300122B8588828983E4F0122B92A3A3F0A34E
:102B3300F00DEDC3950840D8EE250AFEEF350BFFE7
:102B43000C90033BE0F8ECC39850288C0C750D00F7
:102B53007402780C121B8A9002DD122B85E8240282
:102B6300500109FAE9FB8A828B83EEF0A3EFF07D33
:102B73000080BFE5089002DFF0790080027913023C
:102B8300484C123F34F922A3A3123639EA4B22A34D
:102B93001245ABA3A3A32274F4121C0D7900EAA27D
:102BA300E0501F75085675098D7808121E2079109C
:102BB3007C047D007ADC7B1C1206FA7402121BB3C0
:102BC300E9F980007F04021CDFC082C0839002E029
:102BD300123664601C88828983A3A3E06A7003A30E
:102BE300E06B8882898370E8A3A3A3A312363580A0
:102BF300047A007B000228BD74F2121C0D74FD12CE
:102C03001B9DEAFEEBFF852182852283E4F0A3F07E
:102C13007402121BE97401F012366170141208B0C9
:102C230012103C9002E31232771236617003022DC8
:102C33008D123377EE2404F50AE43FF50B850A82FF
:102C4300F583E024FE603C24FC607424FE607E2453
:102C5300FE7003022CDD24FE7003022CEA24FE70B6
:102C630003022CF724FE7003022D0424FE700302DA
:102C73002D1124FC7003022D3224FE7003022D4A11
:102C8300022D861208B09002E5EAF0A3EB122D990B
:102C930012025CE96003022D869002E5121E378E54
:102CA300828F83A3A3A3A3A31245C98508828509A1
:102CB300831236351206CA7402121BB3022D86AC78
:102CC30021AD22EEFAEFFB120718022D55AC21AD10
:102CD30022EEFAEFFB12071E8078AC21AD22EEFA4A
:102CE300EFFB120724806BAC21AD22EEFAEFFB124F
:102CF300072A805EAC21AD22EEFAEFFB120730808B
:102D030051AC21AD22EEFAEFFB1207368044740278
:102D1300121BF3880C890D780C121E207402121CEE
:102D230003EEFAEFFB12073C7402121BB38023ACD1
:102D330021AD22EEFAEFFB120742E9F87016740296
:102D4300121BE9E4F0803CAC21AD22EEFAEFFB125A
:102D53000748E9F8E8602C8E828F83A3E06414604F
:102D630022850A82850B83E09002E5F08521828526
:102D730022831236359002E6123277E8A3122D9998
:102D8300120256EEFAEFFB1206A07402121BE9E0E0
:102D9300F97403024849F07CE57D028508828509C0
:102DA300831236392274E8121C0D74FA121B9D74B7
:102DB30004121BE9ECF0A3EDF08A128B13EA24054D
:102DC300F50EE43513F50FEA2402F510E43513F597
:102DD30011851082F5831236351203948A0A8B0B00
:102DE3007508007C037D0079007AE57B02120FC42D
:102DF300E50E2402F516E4350FF5177402121BF3E2
:102E0300880C890D780C121E20850E82850F83A3F2
:102E1300A3A3A3E0F50C750D00780C121E20E50E9C
:102E23002405F50CE4350FF50D780C121E208516DC
:102E33008285178312393C1206047406121BB38A67
:102E43000C8B0DE50C450D7003022FC980208521E5
:102E530082852283E088828983F005088521828523
:102E63002283A3E0C0E012300AD0E0F00508E50AAF
:102E730024FBFAE50B34FFFBC3E5089AE49B40030C
:102E8300022FC97E007F00851282851383A3A3A32B
:102E9300A3E0F5097809121E24E4F514F515781456
:102EA300121E207514E27515027814121E2090026A
:102EB300E3121E377409121BE9121E37E50A24F9BF
:102EC300F9AC0CAD0D8510828511831236351207CE
:102ED300727409121BB3E96003022F6A850E82859F
:102EE3000F83A3A3A3A3A3A3A3E0F89002E2E06844
:102EF3007075E0F5148E157814121E201245C685E0
:102F03000E82850F83A3A3A3A3A3A3A3A312363582
:102F1300120FBE7402121BB3E9604C9002E6123624
:102F230064703BE4F5147814121E207CFF7DFF7956
:102F3300078510828511831236351206DC7402125E
:102F43001BB312366A7017850E82850F831247638F
:102F53007404121BE912402412396D022FFD850CF3
:102F630082850D83123000A821A92288148915783F
:102F730014121E207404121BE9121E378516828553
:102F8300178312326D1206107404121BB38A0C8B52
:102F93000DEE4F7003022E4612300AEE1230151258
:102FA3003923EF123015F8A3E03400F9E50C450D91
:102FB3006003022E518882898374FFF00508123062
:102FC3000A74FFF00508E508601A1313543F123220
:102FD3007D120268E960099002E612363512143E4A
:102FE30079008016850E82850F831247637404125D
:102FF3001BE9124024123C8C790A0238F6A3A3A3DE
:10300300A3E0FEA3E0FF22A8089002E6E02812391D
:103013002322F00508089002E6E0282274E8121C37
:103023000D74FA121B9D7402121BE9123277740499
:10303300121BE9ECF0A3EDF07402121BE9E0240586
:1030430012390CE0F50CA3E0F50D7402121BE9E054
:103053002402F510A3E03400F511851082F58312E4
:103063003635120394750800750900EA24FCFEEB5B
:1030730034FFFF8008050CE50C7002050DA808C39A
:10308300EE98EF94005003023229A821A922880E5A
:10309300890F780E121E20851482851583A3A3A39E
:1030A300A31245CD121E20E5142405F50EE43515B3
:1030B300F50F780E121E2085148285158312326B4C
:1030C3001206047406121BB38A0E8B0FEA450F70A7
:1030D30003023229EA2404F516E4350FF5178516A1
:1030E30082F583E0F50CA3E0F50D8521828522832B
:1030F3001245C98A828B83A3A3A3E0F98510828535
:1031030011831236351205F2E9F5096003023229FB
:103113007402121BE9123933F5097809121E24E4EB
:10312300F512F5137812121E207512E27513027848
:1031330012121E209002E3121E377407121BE912AB
:103143001E37EEF9AC0EAD0F851082851183123652
:10315300351207727409121BB3E9F50960030232D1
:1031630029E508703FE4F50EF50F780E121E207C5A
:10317300FF7DFF790985108285118312363512068A
:10318300DC7402121BB3123959700D7404121BE95B
:10319300123260791102325D9002E2E02402900261
:1031A300E6F080149002E6E0FA9002E2E07900246F
:1031B300025001096A497072A8089002E2E0FAE835
:1031C3002AFAE43400FBEE9AEF9B405A8516828577
:1031D3001783E0C0E09002E712300FD0E0F005085B
:1031E300851682851783A3E0C0E0089002E71230BA
:1031F3000FD0E0F005089002E21245CD121E201216
:1032030045C6A808123900120FAC7402121BB39002
:1032130002E2E02508F50874FF650C700474FF658D
:103223000D6003023078E508601F9002E6E0F5F0D8
:10323300E5088412327D12026EE960099002E712FA
:10324300363512143E79008011E509700375090AB9
:103253007404121BE9123260A9090238F6123A9B70
:10326300E50CF0A3E50DF022A3A3124858AA0CAB7A
:103273000D22A3A3EAF0A3EBF0229002E5F07CE594
:103283007D028510828511831236392274EC121C5B
:103293000D74FC121B9D123D9C7402121C0312360A
:1032A3002F12060A8A0C8B0DEA450D700302336751
:1032B300123377A821A922881089117810121E20B1
:1032C3007CFF7DFF790B85088285098312363512D1
:1032D30006DC7402121BB312346D700C850A8285EE
:1032E3000B8312396A0233748E828F83A3A3A3A341
:1032F300E0F5127812121E24E4F512F51378121277
:103303001E207512E57513027812121E2078101212
:103313001E207409121BE9121E377409121BE9E0FF
:10332300F9AC0CAD0D850882850983123635120779
:10333300727409121BB3E9FE70157CE57D028508E2
:1033430082850983123635120274E970098020746C
:10335300166E70027E009002E612363512143EEEAF
:103363007004800B7E01850A82850B83123C89EEF3
:10337300F9023C9EEE2402F508E43FF5092274ECC1
:10338300121C0D74FC121B9DEAFEEBFF8C0E8D0FBD
:10339300EE2405F508E43FF5097402121C038508C1
:1033A3008285098312363512060A8A0C8B0DEA458B
:1033B3000D700302345DEE2402F50AE43FF50BA819
:1033C30021A922881089117810121E207CFF7DFF0D
:1033D300790D12362F1206DC7402121BB312346DF0
:1033E300700B85088285098312396A807A8E828FF1
:1033F30083A3A3A3A3E0F5127812121E24850882E7
:10340300850983A3A3121E377512E575130278127B
:10341300121E207810121E207409121BE9121E3787
:103423007409121BE9E0F912362B120772740912A0
:103433001BB3E9FE700F7CE57D0212362F12027A70
:10344300E97009802074166E70027E009002E61205
:10345300363512143EEE7004800B7E01850882859A
:103463000983123C89EEF9023C9E123674F510A3CF
:10347300E0F511EA45112274E8121C0D74FE121BCB
:103483009D8A168B178C148D15EA2405F50CE435EB
:1034930017F50DEA2402F50EE43517F50F850E82B4
:1034A300F5831236351203948A088B09750B007C59
:1034B300037D0079007AE57B02120FC4750A00E5EB
:1034C3000814F5100424FFF508E50934FFF5098015
:1034D300549002E5E0FA9002E2E0F8EA28F8E434D6
:1034E30000F9E50898E50999500D9002E5E0F8E543
:1034F30010C3989002E2F0E0F512751300781212EF
:103503001E201245C69002E6E02AFAA3E03400FB2F
:10351300120FAC7402121BB39002E2E0F89002E5C2
:10352300E028F0050A850C82850D83A3A3123F4092
:1035330040030236109002E5E0C39508E495094084
:1035430003023610AE0AEE2EFEE433FF12364FAC02
:1035530021AD221245E1E439FB12060A8A128B13CC
:10356300AC12AD13EC4D701B750B0112363F123CC0
:103573008D9002E6122B8C600312143EA90B740289
:103583000238F8851682851783A3A3A3A3E0F50B5E
:10359300780B121E24E4F512F5137812121E20750F
:1035A30012E27513027812121E209002E3121E37E4
:1035B3007407121BE9121E37A910850E82850F832B
:1035C3001236351207727409121BB3E9F50B709B9F
:1035D3009002E612366460030234D4E4F512F51364
:1035E3007812121E207CFF7DFF790F850E82850FD6
:1035F300831236351206DC7402121BB312366A606C
:10360300030234D412363F12396E0235817CE57DD4
:1036130002850E82850F83123635120280E960031C
:103623000235747900023581AC0CAD0D850A8285B3
:103633000B8312363922E0FAA3E0FB2212364FE065
:10364300FAA3E0F9EA85148285158322850C828525
:103653000D83E02EF8A3E03FF9888289832290024C
:10366300E3124767E84922123674F8A3E0F9E84900
:10367300229002E6EAF0A3EBF09002E6E02274E87F
:10368300121C0D74FA121B9D7404121BE91232777B
:103693008C168D177404121BE9E02405F50EA3E0C4
:1036A3003400F50F7404121BE9E0240212390C12E2
:1036B30036351203948A0A8B0B7F007E00A821A95A
:1036C30022880889097808121E20850E82850F83B7
:1036D300A3A3A3A3E0F5088E097808121E20E50E24
:1036E3002405F508E4350FF5097808121E20850E28
:1036F30082850F83A3A312393C1206047406121B9E
:10370300B38A0C8B0D802912392DF00F12392DF04D
:103713000F9002E2123C78121E201245C6EFF812F7
:103723003900120FAC7402121BB39002E2E02FFFB8
:10373300E50C450D70030237BC8521828522831277
:103743003DAEA3A3A3E0F985148285158312363514
:103753001205F2E9FEE50C2404F510E4350DF5112C
:10376300EE70507404121BE9123933F5087808120D
:103773001E24E4F508F5097808121E207508E27581
:1037830009027808121E209002E3121E37740712F2
:103793001BE9121E37E50A24FAF9AC0CAD0D8514AA
:1037A300828515831236351207727409121BB3E929
:1037B300FE6039123949123C8CEF70030238E390F2
:1037C30002E6E0F5F0EF849002E5F07CE57D02850A
:1037D3001482851583123635120286E96009900238
:1037E300E712363512143E79000238F68F08EF706F
:1037F3003BE4F512F5137812121E207CFF7DFF794E
:10380300118514828515831236351206DC74021273
:103813001BB3123959700912394912396D0238F63E
:103823009002E2E024049002E6F080359002E2E0A8
:10383300F89002E6E0FAE82404FCE43400FDEC6AC4
:103843004D60030237C2E50A24FAFAE50B34FFFBA5
:10385300E50828F8E43400F9EA98EB9950030237B5
:10386300C2851082851183E0C0E09002E7E02FF863
:10387300A3E034008882F583D0E0F00F85108285C1
:103883001183A3E0C0E012391AD0E0F00F740212E2
:103893001BF3880889097808121E207402121BE999
:1038A300121E37850E82850F8312326B1206107437
:1038B30004121BB38A0C8B0DEA450D700302370A01
:1038C3007402121BE9E0C0E012391AD0E0F00F7461
:1038D30002121BE9A3E0C0E012391AD0E00237124A
:1038E300EE70027E0A850E82850F8312394F123CD9
:1038F3008CEEF97406121BB37F10021CDF9002E7F3
:10390300E028FAA3E03400FB22F514A3E03400F529
:1039130015851482F5832212391E229002E7E02FC7
:10392300FAA3E034008A82F5832212391E74FF223F
:10393300123A9BA3A3A3A3E022124858850E8285C3
:103943000F831236392285108285118312476785CA
:103953001682851783229002E7EAF0A3EBF0900228
:10396300E7124767E84922123C92E8F0A3E9F079AD
:10397300112274EA121C0D74FE121B9D8A088B0916
:103983008C128D13EA2405FEE43509FFAC21AD2228
:103993008E828F8312363512060A8A0C8B0DEE2423
:1039A30006F50EE43FF50FEA450D7003023A6DE5A7
:1039B300082402F50AE43509F50B8A828B83A3A355
:1039C300A3E0A2E550288521828522831236351291
:1039D30007668A108B11EA45116020791212362B83
:1039E300851082851183121C0BE9F50C707F850EFF
:1039F30082850F83E0600979528011750C0E806D0A
:103A0300850882850983A3A3A3A3E0F9E4F508F558
:103A1300097808121E208E828F83A3A3E0F508780D
:103A230008121E208E828F83A3A3A3121E378E82B9
:103A33008F831245C912362F1207787406121BB3EF
:103A4300E9F50C7011850E82850F83E0702D123617
:103A53002F12028C80257416650C7011750C00747E
:103A630018121BE9123A97E48010750C0112475F94
:103A7300851282851383E8F0A3E9F0850E82850F12
:103A830083E0600479008002A90C7402121BB37FE7
:103A93000E021CDF123A9B22E0F8A3E0F583888232
:103AA3002274EC121C0D74F7121B9D8A0A8B0B8C6B
:103AB300108D11EA2405FEE4350BFF750C00AC21D3
:103AC300AD228E828F8312363512060A8A088B093D
:103AD300EA45097003023C63E50A2402F50A500231
:103AE300050B8A828B83A3A3A3E0A2E5502F852134
:103AF300828522831236351207668A0C8B0DEA45BE
:103B03000D604F7912AC08AD0912362F850C8285F2
:103B13000D83121C0BE9F50C6003023C66850A82D7
:103B2300850B83E0F508A3E0F509AA08FB12075A01
:103B3300EA4B70197AFF7BFF12075AEA4B700302B4
:103B43003C598A828B83E508F0A3E509F0750800E8
:103B53008008750C0E023C6605089002DFE0F8E56C
:103B630008C3984003023C5985080E750F0074037F
:103B7300780E121B8A8A828B83A3A3E0250EF8A3F7
:103B8300E0350F12402D70D08E828F83123C81124C
:103B930032778E828F83A3A3123C81123275EE2477
:103BA30004F508E43FF509850882F583E0888289F6
:103BB30083A3A3A3A3F0A3E4F0EE2405F50EE43F4F
:103BC300F50F850E82F583123C81A3A3A3A31232C2
:103BD300757512077513007812121E20EEFCEFFDA7
:103BE3007404121BFB120FAC7402121BB3E4F51224
:103BF3007812121E20850882850983E0FC7D0079F6
:103C03001712362F1206DC7402121BB37407121B31
:103C1300E91232777407121BE9E0FA4B603D85081D
:103C230082850983123C78121E20850E82850F83BC
:103C33001245C9120FAC7402121BB37402121C0397
:103C430012362F120292E960267407121BE912360C
:103C53003512143E8019750C098008750C11800308
:103C6300750C0112475F851082851183123C8CA964
:103C73000C74098028E0F5087509007808221236CB
:103C8300398882898322123C92E8F0A3E9F022E08A
:103C9300F8A3E0F9850E82850F83227404121BB307
:103CA3007F0C021CDF74EC121C0D123D9C7510007E
:103CB300EE2402F50CE43FF50D850C82F5831236F4
:103CC3003512075A8A088B09EA45097003023D80B9
:103CD300850A82850B83E064016003023D75AC08AD
:103CE300AD09AA0AAB0B12074EE9606E85088285FF
:103CF3000983123002EE2406F50AE43FF50B8E82A7
:103D03008F83A3A3121E378E828F83A3A3A3A31231
:103D13001E37850A82850B83121E3779188E828F90
:103D230083123DAE1236351207787406121BB3E9BF
:103D3300F8741668700B850A82850B83E4F0A38000
:103D430014E860128E828F83123635850E82850FBA
:103D530083EAF0A3EBF088108018780E121E20ACD3
:103D630008AD09EEFAEFFB1207547402121BB3E914
:103D7300F510AA08AB09120760E510700E850C82D6
:103D8300850D8312363512029880097416651070FA
:103D930003751000A910023CA3EAFEEBFF8C0E8D05
:103DA3000FEE2405F50AE43FF50B22124858850C63
:103DB30082850D832274EA121C0D750800750900B3
:103DC3007E007F00750A00EC2402F510E43DF51136
:103DD3008035EC65087003ED65096003023E6D886C
:103DE300828983A3A3E06A7003A3E06B707C88825B
:103DF3008983A3A3A3A3124763EE28FEEF39FFEA47
:103E030028FAEB39FB050A123F3D503A850A0C7537
:103E13000D007403780C121B8A851082851183129E
:103E23003F3012402D601FE508450970A58C088DB1
:103E3300098882898312300088828983A3A3E02EB4
:103E4300FAA3E03F80BEE50AC394025003023F2B6E
:103E5300750800750900EE4F6010EEFAEFFB1214BF
:103E6300388A0E8B0FEA450F70057900023F2D75D6
:103E73000B00023F00850B0C750D007403780C12C8
:103E83001B8A851082851183E0250CF50CA3E03590
:103E93000DF50DE50C2406F514E4350DF515851423
:103EA30082F5831240326042E50C2404F512E435B6
:103EB3000DF513851282F583121E37E50E2508FAD8
:103EC300E50F3509FB120FAC7402121BB385128286
:103ED300851383E02508F508A3E03509F509851462
:103EE3008285158312363512143EE50B600D7C086E
:103EF3007D007900AA0CAB0D120FC4050BE50BC3B3
:103F0300950A5003023E7885108285118312476318
:103F130088828983A3A3A3A3A3A3E50EF0A3E50F3C
:103F2300122B93EEF0A3EFF07901023A92123F3491
:103F330022E0250CF8A3E0350D229002DFE0F8E53E
:103F43000AC3982274F0121C0D8A0E8B0F8C0A8DF3
:103F53000B750D00750C0080507916EE2406F508DC
:103F6300E43FF5098E828F83A3A3121E378E828FBF
:103F730083A3A3A3A3121E37850882850983121E78
:103F830037850E82850F83A3A31236351207787403
:103F930006121BB3E9F50D7416650D706C85088266
:103FA300850983E4F0A3F0050C9002DFE0F8E50C4B
:103FB300C3985066AA0C8A0875090074037808121E
:103FC3001B8A850A82850B83A3A312407CE8FEE942
:103FD300FF8E828F831240326040EA2401F508E4A9
:103FE3003400F5099002DFE065087002E50960140A
:103FF30088828983A3A3A3A3A3A3A3A31236646084
:1040030003023F5C7918023F5EE9609B12475F74CD
:1040130010121BE9124024123C8CA90D7F08021CCC
:10402300DFE0FAA3E0F5838A8222F988828983128A
:104033004858EC4D2274F6121C0D7C0080010C9044
:10404300033BE0F8ECC398501E8C0875090074021A
:104053007808121B8A124071E06A7003A3E06B7048
:10406300DDE8FAE9FB80047A007B00024114900248
:10407300DD12407C8882898322E02508F8A3E0359D
:1040830009F92274F2121C0D8A088B09750A008043
:10409300278E828F83A3A3A3A3122B8A60031214F8
:1040A3003E7C087D007900EEFAEFFB120FC48E828E
:1040B3008F83E4F0A3F0050A123F3D5027850A0CD5
:1040C300750D007403780C121B8A85088285098399
:1040D300A3A3E0250CFEA3E0350DFF8E828F831290
:1040E300366470AD85088285098374FFF0A3F002FE
:1040F300484C74F6121C0D12070C8A828B83E582DE
:10410300458370067A007B008007A3A3A3A312361E
:10411300357F02021CDF74F4121C0D89088C828D1A
:1041230083E06402703C124702FEA3E0F9EEF874E8
:10413300026870037429697029750A02750B007887
:104143000A121E207410121BE9121E377410121B60
:10415300E9121E37A9081212287406121BB3E9F9D3
:1041630080027901022BC774E8121C0D74FB121B29
:104173009DE9852182852283F08A168B17ECFEED5B
:10418300FF7510008E828F83A3A3A3E0A2E4502DBA
:10419300741D121BE91236351207668A828B83E57A
:1041A30082458370030245A1790AEEFCEFFDAA164E
:1041B300AB17121C0BE9F51060030245A4741F1220
:1041C3001BE9E0F508A3E0F5097421121BE9E0F50A
:1041D3000AA3E0F50B7423121BE9E0F50EA3E0F547
:1041E3000F8E828F83E064026003024542A312476D
:1041F30063850882850983A3858212858313EE2450
:1042030006F50CE43FF50D888289831245E1F51428
:10421300E439F5157814121EAA0100002801284478
:104223004207000228094303287742002938440142
:1042330029634402290444032938440429DC444201
:1042430045E50E450F600302453D850C82850D83D0
:10425300124763E8FAE9FB8A828B83E0850A828549
:104263000B831245EC121E208A828B83A3E0FCA3EE
:10427300E00244C6E50E450F600302453D850A8210
:10428300850B837401F01245D6850882850983F076
:104293007C007D008E828F83A3A3A3A3E02401FA75
:1042A300A3E03400FB12060AEA4B60408A828B8348
:1042B300E02402F8850A82850B83E028F0EA2404CF
:1042C300F8E43BF988828983E0851282851383129F
:1042D30045FA1245EC121E208A828B83A31245C92C
:1042E300E5082403FAE43509FB0244CB850A8285F9
:1042F3000B83E02404F07C047D007900AA12AB1345
:10430300120FC40245A4E50E450F600302453D129A
:1043130045D6FEA3E0FF850A82850B837404F0EE85
:10432300850882850983F0EF851282851383F074F3
:1043330003121C03EEFAEFFB12060A8A0C8B0DEA3A
:10434300450D70030243E78A828B83A3A3123000D7
:104353007401121BF3880E890F780E121E20740548
:10436300121BE9121E377CFF7DFF12061074041224
:104373001BB38B0FEA450F7033850C82850D8312B7
:1043830045CD121E20850C82850D83A3121E377C1A
:10439300027D007A127B8E1203827404121BB3E92E
:1043A300700A7401121BE974FFF0A3F08E828F83ED
:1043B300E064027039750C02750D00780C121E2032
:1043C3008E828F83A31245C9E5082404FAE43509D4
:1043D300FB120FAC7402121BB3850A82850B83E0B8
:1043E300240280097401121BE9EEF0A3EFF07401BB
:1043F300121BE91245BB7401121BE91245B20245B7
:1044030037E50E450F600302453D850C82850D831C
:10441300124851AA16AB1712122E850A82850B83F6
:104423007402F0850882850983EAF0851282851378
:1044330083EB02453AE50E450F600302453D124505
:10444300D6F8A3E0F9850A82850B837402F0E88528
:104453000882850983F0E985128285138302453A30
:10446300850C82850D83123635120FA6EAFAF8C33E
:10447300950EE4950F405CE8650E450F70047A00D5
:104483008021852182852283E0FCE50E2CFCE43526
:104493000FFDC3EC98ED94005003E08005E50ECAD0
:1044A300C39AFAEA850A82850B83F08A0A750B00A0
:1044B300780A121E20850C82850D83E0250EFCA34D
:1044C300E0350FFDAA08AB09120FAC7402121BB33F
:1044D3000245A47510070245A4E50E450F705B85E0
:1044E3000C82850D83124763850A82850B837407CB
:1044F300F0888289831245B31245ABE08512828529
:104503001383F0E82402FAE439FB8A828B83124591
:10451300BB8A828B831245B2A3A3122B921245C08E
:10452300F0E82405F8500109888289831245C0A365
:104533001245FAA3A3A3A3F0806775100B806274DE
:104543001D121BE912363512070C8A828B83E58212
:104553004583604A124763880C890DE8450D603E28
:104563007425121BE9E0F5107810121E24780E1240
:104573001E20780A121E207808121E207407121BB0
:10458300E9E0F9EEFCEFFDAA16AB17850C82850D69
:1045930083121C0B7407121BB3E9F510800375100B
:1045A3000EA91074050238F8F088828983A322A328
:1045B300E085088285098322124601F02212460112
:1045C300A3A3229002E312485822E0F50E750F00D0
:1045D300780E22850C82850D83123A9BE022E0FA45
:1045E300A3E0F8E4C8F9EA2822F08A828B83E0F595
:1045F3000A750B00780A221245AB12460122E085A8
:104603000882850983A3A32274EE121C0D74FE1283
:104613001B9D8A088B09ECFEEDFF890AAC21AD22B4
:10462300EEFAEFFB12060A8A0C8B0DEA450D7003B6
:104633000246F385218285228312363512070C8ABE
:10464300828B83E582458370030246EEA3A3124760
:1046530063880E890FE8450F70030246EE74141247
:104663001BE9E0F510A3E0F511E50AF50B780B1251
:104673001E247419121BE9121E377810121E20749F
:104683001B121BE9E0F9AC0CAD0DAA08AB09850EB2
:1046930082850F83121C0B7405121BB3E9F50B7093
:1046A3005274FE650A604C850C82850D83E06402BA
:1046B3007041124702FAA3E0F9EAF8740268700342
:1046C300742969702E8510828511831245E1F50CDA
:1046D300E439F50D780C121E20EEFCEFFDAA08ABB1
:1046E300091207907402121BB38008750B0E800326
:1046F300750B01A90B7402121BB37F0A021CDFA303
:1047030012476788828983E02274F6121C0D74FEB7
:10471300121B9D740C121BE9124763E885218285E5
:104723002283F07401121BE9E9F0E4F508F5097836
:1047330008121E207508027808121E207404121B2A
:10474300F3880889097808121E2079FE1207787405
:1047530006121BB37402121BB30241148E828F83A1
:1047630012476722E0F8A3E0F92274F7121C0DEA5E
:10477300FEEBFF89089002FA1245C912122EEA5481
:1047830002600BA908EEFAEFFB1205FE8002790125
:104793007F01021CDF74F2121C0D74FE121B9DEAD2
:1047A300FEEBFF890A7401650A60147402650A60EE
:1047B30003024847790112097CE96003024847EE86
:1047C300FAEFFB12075AEA4B6003120760A821A90C
:1047D30022880889097808121E20750802750900C5
:1047E3007808121E2075081875098E7808121E2085
:1047F3007CFF7DFF7A017B001206047406121BB353
:104803008038850882850983A3A3A3A3A3A31248A1
:1048130051EEFAEFFB121222E4F50CF50D780C12AF
:104823001E207402121BE9121E377CFF7DFFAA08AB
:10483300AB091206107404121BB38A088B09E5082E
:10484300450970BE7402121BB37F06021CDF123AC5
:104853009B12485822E0FCA3E0FD2274F4121C0DC5
:104863008A088B09ECFEEDFF901CDAE0F4604B7ACA
:10487300097B00120FD0EA4B60408A828B8374B1AC
:10488300F0A3E41248C0F08A828B83A3A3E508F067
:10489300A3E5091248C0A3EEF0A3EFF0740C121BBA
:1048A300E91247638A828B83A3A3A3A3A3A3A312BF
:1048B3003C8C901CDAE0F9120FDC022BC7F08A82E1
:1048C3008B83A3A3A3A322C082C0839061907404AB
:1048D300F0A37448F0A37402F09061807440F090E8
:1048E30061BC7403F09061877419F0906265741B66
:1048F300F0906249E0C3941390619C40107409F0F6
:104903009060667401F090619F7428800D740BF0C1
:10491300906066E4F090619F742CF0124AB57009C0
:10492300C29190036D7467800590036D7461F012FA
:104933004B079028ACE493F46006E493F9120A72EF
:104943007905120D8A024D49C082C083E9540FF9DB
:10495300906185E0696012E5C654B84441F5C6E547
:104963009E5447644170F8E9F053C6B8E59E544736
:1049730070FA024D49C082C083A8A853A87E9061F3
:1049830081E4F0A3F0A3F0C2BA539AFEC289759BE7
:1049930000C2C275E90075910075BF0075A9117554
:1049A300B905906181F0A374C0F0A3E4F0D2BA43D7
:1049B3009A0174805842A8024D49F0024D49C082C1
:1049C300C08374F8121B9D90036B1260C9700302BD
:1049D3004AAD90036BE0544060177908AA21AB22DB
:1049E300120B80AA21AB221207F090036BE054BF95
:1049F300F0E054806010790C7A197B07120B8090D9
:104A0300036BE0547FF0E0A2E0501E124AB5700938
:104A1300C29190036D7467800590036D7461F01209
:104A230007F690036BE054FEF0E05402601E124A56
:104A3300FA7009D29190036D7471800590036D74BF
:104A43006AF01207F690036BE054FDF0E054046043
:104A5300109028B0124B0A1207FC90036BE054FB32
:104A6300F0E0540860109028B1124B0A1207FC9032
:104A7300036BE054F7F0E05410600D124B0712077C
:104A8300FC90036BE054EFF0E05420600A1207FC43
:104A930090036BE054DFF0A3E05401600D120A9021
:104AA30012080290036CE054FEF07408121BB30268
:104AB3004D4990619A124CFC9006F3E0640122C0C8
:104AC30082C083E960051460178029124AB5700912
:104AD300C29190036D7467801A90036D74618013A3
:104AE300124AFA7009D29190036D74718005900394
:104AF3006D746AF0024D4990619A124CEE9006F380
:104B0300E06401229028B2E493906186F02274EA73
:104B1300121C0D74F4121B9D908DF0AC21AD227408
:104B230004121AB09028B093F46003024C83907877
:104B330008E0C394025003024C67908D4E74041234
:104B43001C037408121AB0A821A9228814891574A9
:104B530004121BF388088909AE08AF097510FF75A5
:104B630011FF750EFF7C00750C48750D788012746B
:104B7300086C7003024BFD74096C607E740A6C60F0
:104B830079850C82850D837808121A558E828F835E
:104B9300A909E50AC9F8881274187808121970E58A
:104BA300124508F8C3E098A3E099850C82850D832C
:104BB3007808121A5540188E828F83741878081259
:104BC3001970E5124508F8E0C398F8A3E0801A7459
:104BD300187808121970E5124508FAE9FB8E828FDE
:104BE3008312541EEAC398F8EB99F9C3E89510E9C8
:104BF30095115006881089118C0E0CE50C2404F5D0
:104C03000C5002050DECC394135003024B7274FF56
:104C13006510700474FF65116024850E08740278B2
:104C230008121B8A74482508F58274783509F583C0
:104C33007808121A55851482851583E508F0EE2449
:104C430002FE50010F851482851583A38582148586
:104C53008315740C121BE9E5826E7003E5836F60A4
:104C630003024B5F7508017509007808121E207452
:104C730002121C037A2C7B0A1212947402121BB3C5
:104C8300740C121BB37F0E021CDFC082C0839061C1
:104C9300AE7468F0A3746AF090624574FBF0A304E9
:104CA300F053F4FD43FE029006F37401F09061A00B
:104CB300E0643A90619A7019124CFC7401640170BB
:104CC30009C29190036D7467801E90036D746180B7
:104CD30017124CEE740164017009D29190036D7444
:104CE30071800590036D746A0249BD743FF0A3742B
:104CF3005AF09061A0747FF0227433F0A37455F0DE
:104D03009061A0743AF0227F04021CDFC082C0834A
:104D13009006D1E0640170119006D7E06401601938
:104D2300E07006A3E0640160109006E8E06401709F
:104D33000C9006EEE064017004790C800279008027
:104D430005E0F91227C3D083D08202011FE0C433E8
:104D53003354C022888289831252DFA882A9832216
:104D63002414F582E438F58322C082C0839006DBE5
:104D73007425F09006D97401F0A3E4F07A01FB12D4
:104D83000D06124DB8241AF582E438F58374B4F095
:104D9300A3740AF09006D8E0640170169006D7E079
:104DA30070107901120D66120D36120D6079001222
:104DB3000D72024D499006C71251412274F6121C1E
:104DC3000D74FA121B9D9006D0E064017008120A5C
:104DD3009C9006D0E4F075E1F1124DB82415F582EC
:104DE300E438F5837401F09006D2E06401704B90CF
:104DF3008D6EAC21AD227406121AB075D90D9006D2
:104E0300C9124D504403F5D97582CA7583061252EF
:104E1300DBE58264D07004E583640670F1A821A900
:104E230022124D577406121BE9E582687003E5836D
:104E33006970EE75E195790180027900120D0C908D
:104E43001CFE124EA5741CF0A3740CF0A3124EA505
:104E5300124EA51250137422F0A3740C1250289012
:104E630006C9E0F97ACA7B06120CE89006DBE0F982
:104E73001227C37901120D12908DF4121A73120DB9
:104E83002A908DB0121A73120CF47900120D7E124F
:104E93004DB8124D637416F09003697405F0040263
:104EA30055407416F0A3740CF0A32274F7121C0D72
:104EB3008908A808E875F00CA4C8AAF02AF974991F
:104EC30028FE740339FF9006E0E0F97AE17B0612CD
:104ED3000CE89006EEE070257900120D48EE240BE5
:104EE300F582EF3401F583E07004790080027901E3
:104EF300EE2405FAEF3401FB120CEE800579011262
:104F03000D4875E1F175D9239006E0124D50440523
:104F1300F5D97582E17583061252DBE58264E77089
:104F230004E583640670F175D90075D90075D9005D
:104F330075D90075D90075D900EE24221253941245
:104F430053B37003E9658370F6EE242612539F244E
:104F530003F8E43583F91253B37003E9658370F6FC
:104F6300EE242B1253A8242C1253A8242D1253A839
:104F7300242E1253A8242F1253A824301253A824EA
:104F8300311253A824321253A824331253A8245D98
:104F930012539F2405F8E43583F91253B37003E9E0
:104FA300658370F6EE2437125F48541FF8EE242A07
:104FB300125F48C43354E048F5D975E195901CFE5F
:104FC30074E6F0A3740BF0A374ECF0A3740B12500B
:104FD3000A74F2F0A3740B1250289006EDE0F91254
:104FE30027C3908DF4121A73120D2A908DB0121AE2
:104FF30073120CF490600DE4F07901120D7E9003AE
:10500300697406F002577CF0A31250131250132256
:105013001250172274E0F0A3740BF0A374E0F0A312
:10502300740BF0A32212502C22F0901D0C12503856
:10503300A31250382212501774E0F0A3740BF0221D
:1050430074EC121C0D9006DE125B9E7810121A553A
:105053009006EFE0FAF875F00CA4C8ACF02C125DE2
:105063001AFFEE2EFEEF33FF8E0CF50D750E007555
:105073000F0085100885110985120A85130B908D81
:10508300E478081219BB7808121E1C8510088511D4
:105093000985120A85130B7808790C1219A8781060
:1050A300790C1218EDE4F50EF50F7808790C121946
:1050B300E18A0C750D007403780C121B8A78087949
:1050C3000C1219A8908DFC7808121A1CAA08AB09B7
:1050D300AC0AAD0B12275B7404121BB38A088B094D
:1050E300A808A909C3EE98EF995006E82EF8E93FFE
:1050F300F9E890600EF0E9A3F0EEA3F0EFA3F090CF
:10510300600D74C1F07F0C021CDFC082C083900667
:10511300C712512D9006DB024D44C082C083900616
:10512300DE12512D9006ED024D44125141125137BA
:10513300F0A3F0222406F582E438F583E422E0F8B4
:10514300A3E0C82202011F74F6121C0D1252E46080
:1051530004780480027800E8240EF8ECC398500326
:105163000252187C0C9006F9E4F0EA2476F582E406
:105173003BF583E09006FAF0EA247712521D90067D
:10518300FB1252279006FCF0EA247912521D900676
:10519300FD1252279006FEF0EA247B12521D900660
:1051A300FF125227900700F0EA247D12521D900748
:1051B30001125227900702F0EA2474F8E43BF98ABB
:1051C300828B83A3A3A3A3A3E0FEA3E0FF8882892A
:1051D30083E02EF0A3E03F1258C190070312522739
:1051E30090070412530860177508F97509067808C3
:1051F300121E207903120BD47402121BB37C1012FB
:10520300554EECFE1252DBDEFB75E1957904120D6F
:1052130030790180027900025543F8E43BF9888232
:105223008983E0221258C6A3E02274F6121C0D12E1
:1052330052E46004780480027800E8240AF8ECC39E
:105243009850030252D67E089006F97401F07CBD93
:105253007D0678FA79067F051252F2A882A983DFC8
:10526300F7EA2480FCE43BFD8A828B83A3A3A3A3F8
:10527300A3E0F508A3E0F5098C828D83E02508F00F
:10528300A3E03509F01252F208A9838C828D83E0E2
:105293008882898312530860197508F9750906789D
:1052A30008121E207C087903120BD47402121BB35C
:1052B3007E0C74012EF5D975D9037582F9758306B1
:1052C300EEFF1252DBDFFB75E1957904120D3079A5
:1052D30001800279000255431252DF22E0F5D9A37F
:1052E300229061D0E0F87480C398FC12530D22120F
:1052F30052F6228C828D83E088828983126106882C
:10530300828983A322F012530D22EA2482F582E4D8
:105313003BF583E02274F7121C0DEAFEEBFF90616C
:10532300D0E0706875D91875D90375D903EE249B3D
:105333001253BA1253B37003E9658370F6EE24A3D4
:105343001253A824A41253A824931253BA1253B38A
:105353007003E9658370F6EE24871253941253B3F6
:105363007003E9658370F675E1957908EE2493FA85
:10537300E43FFB120B747904EE2487FAE43FFB123B
:105383000B747904120D301254C88002790002574D
:105393007C12539F2404F8E43583F922F582E43F19
:1053A300F583E58222F582E43FF583E0F5D9EE2229
:1053B3001252DFE865822212539F2408F8E43583F2
:1053C300F92274F6121C0DEAFEEBFF9006F974063F
:1053D300125471121E207C017903120BD474021231
:1053E3001BB375D90675D9037582F97583061254F3
:1053F300697004E583640670F575E195900369E0CF
:1054030064087010EE246FF582E43F12541CEE24FE
:1054130071125ED77901025543F5831260D5227468
:10542300F6121C0DEAFEEBFF9061D0E0703390069C
:10543300F9740A125471121E207C017903120BD4E1
:105443007402121BB375D90675D9037582F9758376
:10545300061254697004E583640670F51254C5801E
:105463000279000255431252DFE58264FE22F07591
:1054730008F975090678082274F6121C0DEAFEEB8A
:10548300FF9061D0E0703678019006F9740BF090CC
:105493000369E0640770197508F97509067808123D
:1054A3001E207C017903120BD47402121BB37805FE
:1054B3001257101252DBDAFB1254C5800279000234
:1054C300554375E195EE246F1260CFEE2471F5829A
:1054D300E43FF583E8F0A3E9F079012274F6121CA6
:1054E3000D1256116004780480027800E8240BF84A
:1054F300EAC39840447C099006F9740812555D127A
:10550300556CDDFB125F45601B7508F9750906785C
:1055130008121E207903EEFAEFFB120BD474021269
:105523001BB37C0D12554812560970FB75E1957932
:1055330004120D301254C8800279008003121BB389
:105543007F02021CDF12554E8C082274012CF5D900
:1055530075D9037582F975830622F0EE24E4F8E425
:105563003FF97AFA7B067D082288828983E08A8262
:105573008B831258C6A3A882A9838A828B83A3AA8A
:1055830082AB832274F6121C0D1256116004780448
:1055930080027800E82408F8EAC39840647806900B
:1055A30006F9740CF0900386E09006FAF0900387F6
:1055B300E09006FBF0900388E09006FCF0900389EE
:1055C300E09006FDF090038AE09006FE1256A0607C
:1055D3001B7508F97509067808121E207C067903E5
:1055E300EEFA120BD47402121BB3780A12569A12F3
:1055F300560970FB75E1957904120D301254C88079
:105603000279000255431252DF1508E50822EAFE2B
:10561300EBFF9061D0E0F87480C398FA1256A5228C
:1056230074F6121C0D12561160047804800278007F
:10563300E82404F8EAC398405978029006F9E8F0A0
:10564300EE24F6125F489006FA1256A0601B750806
:10565300F97509067808121E207C027903EEFA1206
:105663000BD47402121BB3780612569A12560970A1
:10567300FB75E195EE24731258B2EE247F1258B2F3
:105683001258AFA3F07904120D30EE240D1254CB4F
:1056930080027900025543125716880822F01256E9
:1056A300A522EE2482F582E43FF583E02274F6120C
:1056B3001C0D1252E46004780480027800E824048C
:1056C300F8ECC398404278029006F97407F0EA2494
:1056D300F7F582E43BF583E09006FA12530860196C
:1056E3007508F97509067808121E207C02790312E1
:1056F3000BD47402121BB378061257101252DBDA62
:10570300FB75E19579018002790002554312571622
:10571300E8FA22740128F5D975D9037582F97583DE
:10572300062274F7121C0DE9FFA2AFE433FEC2AFE9
:105733007C0080010C1257CD5010ECF8EA28F8E4F5
:105743003BF9125E336F70EC8016EA246EF8E43B8B
:10575300F9E0FCEA2CFAE43BFB12576AEF1258BB60
:10576300EEA2E092AF8012EA246AF582E43BF5836D
:1057730022F0EEA2E092AF79007F01021CDFC0822B
:10578300C083A2AFE433FDC2AF1257D514F07C003F
:10579300801DECF8EA28F8E43BF9E8246B125E3646
:1057A300C0E0E8246AF582E439F583D0E0F00C1216
:1057B30057CD40DEEA246DF582E43BF58374FF1296
:1057C30057FAEDA2E092AF024D491257D5F8ECC358
:1057D3009822EA246EF582E43BF583E022C082C07E
:1057E30083A8A8C2AF12576AE91257FAE8A2E7E4FE
:1057F30033FAE8A2E780CEF0EA2469F582E43BF5C8
:1058030083E4F02274F3121C0DEAFEEBFFECFAEDD5
:10581300FB8A828B83A3A3A3A3E0541FF0EE243659
:105823001258B2750A00EE245DFCE43FFD8A828BB8
:1058330083E08C828D83F0750B00E50A3333335498
:10584300F8F50C8A828B83E0F508750900E50B787F
:1058530008121B6BE508A2E05027EE2436F8E43F5C
:10586300F988828983E0F508EE2508F508E43FF519
:1058730009E5082438F582E43509F583E50C125867
:10588300BB050B050CE50BC3940840B7050A8A82D8
:105893008B83A3AA82AB838C828D83A3AC82AD83DB
:1058A300E50AC3940540867F05021CDFEE241DF53F
:1058B30082E43FF583E4F0221258C104F022125827
:1058C300C6E022F0888289832274F7121C0D9003AC
:1058D30095E064037003025A647C0075829B7583B0
:1058E30003E06003025A4EECF875F00CA4C8AAF06A
:1058F3002AF9749928FA740339FB8A828B83A3A348
:105903007401125A86E4F0EC8A828B83A3A3A3A3C7
:10591300F01260507401F0EA2467F582E43BF583EA
:105923007401125A80E4F0A3125A80A3A3125A9668
:10593300240FF582E43BF5837401F0EA2435125A0F
:105943006B2418125A9B241C125A6B241D125A8F53
:10595300247F125A6B2473125A6B2468F582E43B3A
:10596300F58374801257FAEA246E125A6B24EC12F0
:105973005A6B24ED125A6B24EE125A6B24EF125A0F
:105983006B24F0125A8F24F2125A8F24F5125A6B99
:105993002482125A6B24D2125A6B24D3125A6B24C8
:1059A300D4125A9B24D8125A9B24DE125A6B24E039
:1059B300125A6B24DC125A6B24E1125A6B24E21242
:1059C3005A6B24F8125A8F24FA125A8F24FC125A53
:1059D3008F24FE125A8F240B125A752405125A75FE
:1059E3002406125A752407125A752408125A75246C
:1059F30009125A75240A125A7512576B74FF7804E8
:105A0300F0A3D8FCEA245DF8E43BF97CBD7D0612E3
:105A13005AAF64C27003ED640670F4EA24E4F8E458
:105A23003BF97C7D7D03125AAF64857003ED6403FB
:105A330070F4900395E004F0640170298A828B83EB
:105A4300A3A3A3A3E0900397F0801A0CE582240C90
:105A5300F582E5833401F583ECC3940350030258C4
:105A6300E47A007B0002577CF582E43BF583E4F0A3
:105A7300EA22F582EB3401F583E4F0EA22125A8636
:105A8300A3A322F08A828B83A3A3A322F582E43B00
:105A9300F583E4F0A3F0EA22F582E43BF583125A9E
:105AA300A6EA22E4F0A3F0A3F0A3F0221252F6A890
:105AB30082A983EC22C082C0838A828B83A3A3A39F
:105AC300E0600F8A828B83A3A3A3E4F0900396E0A4
:105AD30014F0900395E014F0700690039774FFF0B0
:105AE3008A828B83A3A3E4F09006C2E0700D900337
:105AF30096E0640170057900120CFA024D49C082E8
:105B0300C083789B790388828983A3E41258C6F003
:105B1300125D04E864BF7003E9640670E9900395BD
:105B2300E4F0A3F0A374FFF075E1F1024D4974F5BD
