:020000040000FA
:060000000201070226F9CF
:03002B0002296245
:03003B0002298314
:0300430002291F70
:0300530002276F12
:03007B0002294512
:1000830002254FE5C754F84401F5C7790122000062
:100093000080FB120086B900030200F1E4792378A3
:1000A30002B800028004F709D8FCE479257802B885
:1000B30000028004F709D8FCE490028178C9791A18
:1000C3008002F0A3D8FCD9FA7A497B1C90013778D7
:1000D300E579018015E493A3AD82AE838A828B8395
:1000E300F0A3AA82AB838D828E83D8E9D9E7758288
:1000F300EA7583EA7403120119758291758300749A
:100103000012011975D00075813F75218175220296
:10011300759F00020096C09FF59FE473D09F22D085
:1001230083D082C09FE493C0E0740193C0E0740263
:1001330093F59F22AD03B903EF03E903FF0000B476
:10014300000028002800283075A000A000A000A00F
:100153000000080008E001F000100010001000107B
:10016300001000100050005000500010001000D08C
:10017300070000000000000F0001000500307507B4
:10018300001000010081FF00000000FFFFFF0202DA
:10019300024D8E010000418E02538E010000A31C0C
:1001A30002578E010000B80202538E010000A41C06
:1001B30002598E010000CE02FFFF0100FF20024D15
:1001C3008E010000448E02538E010000D21C025B9C
:1001D3008E000000000002558E030000FA02170093
:1001E300E10BE10BE10BE10BE10BE10BE10BE10BAC
:1001F300E10BE10BE10BE10BE10BC10DDF0DBB0DDE
:10020300FFFFFFFFFFFF01E803057710020A02016A
:100213000101FEFF0104FF00120122E4D5031201D4
:1002230022F7D50312012218D60312012283D60323
:10023300120122C4D603120122E5D603120122269B
:10024300D703120122BED70312012206D8031201DB
:10025300220CC7031201221FC70312012250C70336
:100263001201228AC703120122E3C7031201222AC1
:10027300C80312012272C803120122A1C80312018A
:1002830022D0C80312012207C9031201224EC90357
:1002930012012267C903120122BCC903120122EA17
:1002A300C90312012224CA03120122DBB60212017E
:1002B30022DEB7021201220BB8021201225CB8023D
:1002C3001201227FB80212012291B8021201229474
:1002D300B802120122D2B80212012246B902120157
:1002E30022B2B9021201227ABA0212012296BA028A
:1002F300120122CDBA0212012207BB021201229E71
:10030300BB02120122F0BB0212012221BC02120124
:100313002252BC021201225FBC02120122C9BC029A
:10032300120122CCBC02120122D9BC02120122DC2E
:10033300BC0212012233BD0212012236BD02120198
:10034300226FBD0212012272BD02120122A6BD025A
:10035300120122A9BD02120122FDBD021201224691
:10036300BE0212012256BE0212012289BE021201EE
:100373002296BE0212012299BE0212012201BF027D
:1003830012012203C002120122A7C002120122108D
:10039300C1021201224EC1021201221DDF0212010B
:1003A3002215E00212012249E002120122DFE002DB
:1003B3001201222AE1021201228EE1021201221805
:1003C300E202120122D1E202120122F3E50212013A
:1003D3002270E70212012293E702120122BEAB034D
:1003E30012012263AD0312012283AD03120122A481
:1003F300AE03120122F7AE0312012222B40312014B
:10040300224AB40312012277B403120122AFB403C8
:100413001201220DB50312012259B503120122C0A4
:10042300B50312012200B6031201223DB6031201E5
:10043300226BB60312012215B7031201221FB70361
:100443001201222CB7031201225FB7031201226BA0
:10045300B70312012283B7031201228DB7031201DE
:100463002272E50312012280E50312012298E503BB
:10047300120122B0E503120122C7E5031201220093
:100483008002120122AA8002120122268102120195
:10049300224482021201228082021201221B830261
:1004A300120122FF8302120122C284021201223AA4
:1004B3008502120122C88602120122398702120123
:1004C30022F38702120122E5880212012225890202
:1004D300120122D989021201220B8A02120122017E
:1004E3008C02120122438C02120122618C0212013E
:1004F30022E68C02120122AA8D02120122C98F0266
:1005030012012208BC031201221EBC031201223C69
:10051300BC031201224DBD0312012257BD03120178
:100523002282BE0312012279BF03120122E6BF0316
:10053300120122249E03120122C89E03120122FFEC
:100543009E03120122499F0312012208A1031201F3
:10055300226DA4011201221EA5011201223AA50156
:1005630012012203A6011201221DA6011201222853
:10057300A601120122FEA601120122DBA70112012C
:10058300226BA80112012222A90112012230AC011F
:100593001201221FAE01120122D1AE011201229AD1
:1005A300AF01120122DFB20112012289B30112014C
:1005B30022B2B4011201226EB6011201220EB7015A
:1005C3001201225CB7011201229BB7011201226EB4
:1005D300B801120122A2B8011201222FB90112019E
:1005E30022AECF011201223AD0011201229ED10183
:1005F300120122AAD101120122E5D10112012254D2
:10060300D2011201225DD30112012266D40112012B
:10061300222DD5011201228AD601120122A8D60168
:10062300120122C5D60112012290D701120122B86C
:10063300D70112012282DA0112012287DA011201A3
:1006430022A0DC01120122EEDC011201225EDD0197
:100653001201229CDD0112012278DE0112012238EF
:10066300DF0112012284DF0112012287DF0112015F
:1006730022CBDF0112012213E00112012252E00119
:1006830012012274E001120122A8E0011201220BDF
:10069300E101120122B48F03120122BD8F03120163
:1006A30022CB8F031201221E90031201223D9003DD
:1006B300120122829003120122C6910312012261C8
:1006C3009203120122A59203120122CF9203120177
:1006D300223E9303120122849303120122FB93030C
:1006E300120122AC9403120122FC29001201220CF4
:1006F3002A00120122AD2A00120122092B00120145
:1007030022C62B00120122E22C00120122142D001A
:10071300120122432D00120122F02E001201226742
:100723003100120122D73300120122C93400120111
:1007330022C23500120122C93700120122BD3A003C
:10074300120122EC3B00120122F03D0012012200B3
:100753003F001201228F400012012280410012014A
:1007630022CE41001201223D4200120122614200C9
:10077300120122B2420012012253470012012254F5
:100783004800120122B54800120122E0480012017C
:1007930022A649001201221BB80312012225B80325
:1007A3001201226AB8031201227EB8031201220E3B
:1007B300B90312012236B90312012271B9031201DE
:1007C300229AB903120122CEB903120122E3B9031B
:1007D3001201224EBA031201226FBA0312012283BD
:1007E300BA0312012298BA03120122D2BA031201E8
:1007F3002237BB031201227ABB03120122A4BB03DB
:10080300120122E0BB03120122C17E00120122EB7E
:10081300AB02120122CEAC0212012249AD02120137
:100823002284AD02120122D5AE021201225EAF0272
:1008330012012276B10212012208B402120122BA75
:10084300B402120122D9B50212012232B6021201F8
:1008530022918A03120122D48A03120122588B03A4
:100863001201222B8C03120122028F03120122D5C3
:10087300D00312012282D1031201228FD20312016B
:1008830022CED20312012228D303120122F2DD0366
:1008930012012255DE03120122F2DE03120122208D
:1008A300DF0312012241DF031201227CDF03120165
:1008B300229CDF03120122BE94031201224A9503F4
:1008C3001201220996031201222197031201223BEE
:1008D3009903120122CCCB02120122F1CB021201A5
:1008E30022C5CC0212012232CD0212012288CD028E
:1008F30012012224CE0212012258CF021201223306
:10090300D00212012292D00212012263D1021201FB
:1009130022EFD102120122F2D1021201223CD202B1
:10092300120122AED20212012259D30212012279FC
:10093300D302120122C1D302120122DDD30212011A
:100943002257D40212012265D402120122F4D402E6
:100953001201225DD502120122BFA2031201224419
:10096300A30312012286A3031201226AA403120124
:1009730022D7A4031201221BA5031201225FA503A0
:100983001201228CA503120122B4A503120122EC49
:10099300A5031201222AA60312012251A603120162
:1009A30022CBA60312012215A703120122596200CA
:1009B3001201222664001201221466001201226829
:1009C30066001201229366001201224167001201A0
:1009D30022716700120122A06700120122B367008F
:1009E300120122F467001201222068001201226E14
:1009F3006800120122A56800120122F168001201A9
:100A030022506900120122E36900120122CD6A001B
:100A1300120122BC6B00120122676D0012012286B3
:100A23007200120122DF7200120122C87400120147
:100A330022977600120122197700120122677800AB
:100A430012012278780012012273D3031201225E6D
:100A5300D403120122A1D403120122F0D403120100
:100A63002241D50312012292D503120122124A0018
:100A7300120122934A00120122C04A0012012209E4
:100A83004B001201220A4C00120122594C001201A0
:100A930022D54D00120122574E00120122B44E00FE
:100AA300120122074F00120122F64F001201228B7E
:100AB3005100120122555200120122655200120107
:100AC300228F52001201229252001201227553000A
:100AD3001201226054001201220D55001201226AF4
:100AE3005500120122C3550012012227560012019C
:100AF30022CF56001201226B5700120122F8570031
:100B03001201226D5800120122C958001201222835
:100B130059001201224F5900120122145A001201E6
:100B230022005C00120122495C00120122795C0060
:100B3300120122EC5C00120122725E0012012222D9
:100B43005F00120122475F00120122865F0012013B
:100B5300229B5F00120122DE5F001201224E600021
:100B6300120122986000120122A2610012012223C5
:100B7300620012012280D502120122CBD50212019A
:100B830022D7D502120122ABD602120122C2D6020B
:100B9300120122FFD60212012230D702120122686B
:100BA300D702120122BED702120122D4D7021201A8
:100BB3002210D80212012223D8021201224AD8029B
:100BC3001201227ED802120122A4D902120122EEBE
:100BD300DA02120122EADB0212012200DD02120113
:100BE30022F12900120122648503120122128903D2
:100BF300120122468A03120122D6F2011201228F28
:100C0300F50112012295F50112012246F8011201A4
:100C130022A0FA01120122729903120122099A03F6
:100C2300120122C79A03120122F19A031201222709
:100C33009D031201225E8E01120122998E0112017F
:100C430022ED9801120122599A01120122569B01A9
:100C5300120122DB9E01120122D09F011201221CEC
:100C6300A00112012236A00112012277A001120174
:100C73002280A00112012232A10112012202A2014B
:100C830012012249A201120122AFA2011201222163
:100C9300A301120122BCCD0312012299CE0312013A
:100CA30022DDCE0312012217CF03120122AFCF039D
:100CB3001201221ED00312012227D0031201223374
:100CC300D0031201224DD00312012277D003120167
:100CD30022A7D0031201229B7800120122A87800D8
:100CE300120122C27800120122F578001201223388
:100CF3007900120122987900120122AD79001201C4
:100D030022C47900120122D27900120122E1790072
:100D1300120122F679001201220B7A001201221627
:100D23007A00120122227A001201222F7A00120184
:100D3300223E7A00120122497A001201226E7A00C1
:100D4300120122127B00120122277B001201223C96
:100D53007B00120122567B00120122737B001201D9
:100D630022907B001201229B7B00120122477C0010
:100D7300120122287D001201224D7D00120122580A
:100D83007D001201226D7D00120122817D0012017E
:100D930022E27D00120122E87D00120122EE7D0095
:100DA300120122F47D001201220C7E001201223F67
:100DB3007E0012012274C10212012296C1021201A5
:100DC300225EC20212012218C5021201222EC6029D
:100DD3001201224FC70212012229C802120122D88E
:100DE300C802120122689E02120122FF9E02120112
:100DF30022979F0212012287A002120122BEA002A3
:100E0300120122D1A0021201223FA102120122DA11
:100E1300A20212012201A302120122A3A3021201C0
:100E230022D8A302120122E9A30212012262A40220
:100E330012012283A4021201229BA402120122F3B3
:100E4300A502120122FCA7021201224CAA021201DE
:100E5300224FAB021201229EAB02120122D68F0255
:100E6300120122D39002120122BE9102120122C862
:100E73009102120122EA9102120122F69102120159
:100E830022489302120122779302120122A79402AD
:100E9300120122E99402120122159602120122EB99
:100EA30096021201223D97021201229C970212011F
:100EB30022D397021201220E9802120122A99B0249
:100EC300120122C29B02120122449C0212012252ED
:100ED3009C02120122A79C02120122B59C0212015C
:100EE30022229D02120122949D02120122DA9D0206
:100EF300120122AADF03120122CFDF0312012240D3
:100F0300E003120122E6F002120122EFF0021201C5
:100F130022F8F00212012229F20212012248F402FD
:100F23001201227EF402120122B8F402120122EE0F
:100F3300F40212012228F5021201225CF5021201C9
:100F43002288F502120122D1F5021201220BF602C8
:100F530012012253F602120122A9F602120122DE25
:100F6300F60212012239F70212012273F70212016B
:100F730022C4F702120122FAF70212012234F80204
:100F830012012257F802120122CEE703120122FABC
:100F9300E70312012255E8031201225FE80312015D
:100FA300226FE8031201220080031201220A800348
:100FB300120122488003120122918003120122CBE5
:100FC30080031201222581031201224681031201AB
:100FD300224F8103120122A08103120122C981033E
:100FE300120122DE81031201224F8203120122DD4C
:100FF30082031201221A83031201224A830312017C
:1010030022CE83031201220E84031201224684039B
:1010130012012258840312012277840312012280D1
:1010230084031201223A85031201228EFE02120169
:101033002231D80312012267D8031201229DD8035B
:10104300120122F6D90312012288FF021201229E05
:10105300FF02120122A8FF0212012204B0031201AF
:10106300221DB003120122C1B00312012201B103F8
:101073001201221AB1031201224EB1031201229B63
:10108300B103120122CFB10312012211B2031201E3
:101093002215B4031201222EEA0312012260E10396
:1010A3001201229EE103120122C3E103120122DA9B
:1010B300E103120122F6E1031201220DE203120100
:1010C3002224E2031201225DE20312012291E203D0
:1010D300120122C8E20312012230DA031201224C68
:1010E300DA03120122C9DA03120122E5DA0312013B
:1010F3002248DB03120122E9DB03120122E5F80295
:1011030012012224F902120122ADF902120122C2B4
:10111300F9021201220DFA021201224CFA02120103
:10112300225BFA0212012210FB0212012269FB0266
:10113300120122B8FB021201220BFC02120122202F
:10114300FD0212012219FE0212012256FE021201B1
:10115300228DEA0312012225BA011201229BBC014E
:1011630012012213BE0112012274BE0112012213C5
:10117300BF0112012205C0011201228AC00112011E
:101183002206C1011201222BC101120122F4C30163
:1011930012012268C40112012254C5011201228ED8
:1011A300C501120122CEC50112012288C701120115
:1011B30022B9C7011201220CC80112012255C8012C
:1011C300120122C3C801120122F5C8011201220D26
:1011D300C90112012222CA0112012232CA011201DB
:1011E3002297CB01120122B7CB01120122EDCB01D1
:1011F3001201229ACD011201221ACE0112012259A3
:10120300CE0112012280CF0112012216DC0312014A
:101213002273DC0312012236DD0312012255DD03A2
:10122300120122ABDD0312012279E80312012289A4
:10123300E8031201223DEB031201227CEB031201AE
:1012430022A7E903120122D2E903120122DCE903F6
:1012530012012214EA03120122B2EB0312012283C8
:10126300E40312012293E403120122B4E403120102
:101273002268E503120122BBFE0112012240FF0195
:10128300120122A6FF0112012257E603120122785E
:10129300E6031201228BE6031201229DE6031201EB
:1012A30022CAE603120122DBE60312012255A70339
:1012B30012012269A703120122E2A703120122BB32
:1012C300A80312012279AB031201228CCA03120173
:1012D30022A5CA03120122C0CA03120122D1CA03E2
:1012E300120122E2CA031201223ACB03120122A9FC
:1012F300CB03120122FCCB031201222BCC031201DC
:101303002252CC0312012271CC03120122F8CC0326
:1013130012012215CD031201222FCD0312012248FF
:10132300CD0312012257CD0312012282CD031201F4
:101333002298CD0312012214E7031201222EE703A0
:1013430012012248E703120122A7E703120122F048
:10135300BF0312012280C003120122FEC003120147
:101363002287C10312012235C203120122BFC20325
:10137300120122D0C203120122DFC203120122F59D
:10138300C20312012208C30312012268C30312011C
:10139300227CC303120122BFFF01120122E8FF01D5
:1013A300120122E3E10112012290E301120122D78B
:1013B300E401120122A4E6011201224AE70112010B
:1013C3002226E80112012215E9011201221CEA0179
:1013D30012012297EA01120122C4EA01120122DF5B
:1013E300EA0112012270EB01120122ACEB0112019E
:1013F30022C6EB01120122D9EE0112012211EF01E3
:1014030012012214EF0112012261F20112012216CC
:10141300E90312012281E9031201228CE90312017B
:10142300229CE903120122FCE20312012251E3038D
:10143300120122BFE3031201222FE4031201227FD0
:10144300C303120122A9C303120122A3C40312017D
:1014530022C8C4031201225FC503120122E1C5039E
:10146300120122B6E80212012273E902120122AE2E
:10147300E902120122D6E90212012238EA0212011C
:101483002284EA02120122DDEA021201226EEB0239
:1014930012012270EC021201222DEE02120122AF80
:1014A300EE0212012214EF021201222BEF021201AB
:1014B300223BF00212012279F00212012286EB0391
:1014C300120122D57F00E066701008A3E066700A5F
:1014D30008A3E066700408A3E06622C3E796080940
:1014E300E7960809E7960809E79622C3E09608A35A
:1014F300E09608A3E09608A3E09622C008C3E0960E
:10150300F50808A3E096420808A3E096420808A35A
:10151300E09645087001D3D00822E9799EC608CA2F
:10152300C608CBC608CCC6C370207996CACBCC708C
:1015330019798ECBCC70137986CC700EF9802ACAB8
:1015430033CACB33CBCC33CC331930E7F2CCCBCA51
:101553003350147004EA30E00DE4CA3ACACB3BCBF3
:10156300CC3CCC500209C3E913C6CC182313C6CB19
:1015730018C6CA18C6F9221215BA20F01430E72B80
:1015830074FFFCFBFA747F8022E4FCFBFA74808016
:101593001AB48008BC00F2BB00EF800F50EBF9E4F3
:1015A300C39AFAE49BFBE49CFCE499C6CC18C6CB33
:1015B30018C6CA18C6F922E4C9C608CAC608CBC6E3
:1015C300D3330308CCC63392F0C3947F402E9418D0
:1015D3004019C9B90704CACBCC225025C309CA3361
:1015E300CACB33CBCC33CC33D9F422F4600DC9CC82
:1015F300C313CB13CBCA13CAD9F6CC22E4FCFBFA30
:101603002214FCFBFA22E62618461846184622E75F
:101613002719471947194722181818E6084608706A
:1016230009E626087005E633F4220822191919E79A
:101633000947097009E727097005E733F4220922EE
:10164300E6084608C3134608336002E633F422E78C
:10165300094709C3134709336002E733F422001231
:101663001643604F1216526012E7548066F6121644
:101673001B7011121612703B090909F4F618F618BB
:10168300F618F62212162F701512160908080860AC
:10169300EAE6447FF618768018E4F618F622121666
:1016A3000960161216127012E4F608F608F608E638
:1016B3005480F609090918181822EAC0E0EBC0E0C3
:1016C300ECC0E0EDC0E0E687F0A4FBACF008E687F1
:1016D300F0A42CFCE435F0FA1809E687F0A42C4BAF
:1016E30060027401CA35F0FCE433FB09E687F0D2EB
:1016F300F7A42CCB35F0FC1908E687F0A42BCC35E6
:10170300F0FBE433FD0819E687F0D2E7A42C4ACBBB
:1017130035F0CD3400FC09E687F0D2E7A42DCC35B3
:10172300F0FDE433FA0918E687F0D2F7A42CCD359F
:10173300F0CA3400FC08E687F0D2E7D2F7A42ACC3B
:1017430035F07A7E20E70B0ACB33CBCD33CDCC33C8
:10175300CC33CB3350147004ED30E00ED2F1E4CD32
:101763003DCDCC3CCC3B5005DA05C2F1EB547FC6F2
:101773003308E63392F0FBE73309E733C39A502D7E
:101783002B70190C0D4C4D70151806E608C33370F9
:101793000D20F10AA2F013F6E418800B4024E4F6BE
:1017A30030F002768018F618F618F68024D33B142E
:1017B300501074FFA2F013F6187680E418F618F6AA
:1017C300800FA2F013F618E63303F618ECF618EDC3
:1017D300F6D0E0FDD0E0FCD0E0FBD0E0FA22121618
:1017E30043700418181822121652700D74FFF6185D
:1017F30019F61819F61819F622E7548066F6121628
:1018030009700F12161270F014F608F608F608F6AF
:1018130080D1121612700CF608F608768008E6449A
:101823007F80EC121632700C12161E60BFE65480D5
:10183300F6E480BB12161E700519191980A5E86914
:10184300700C763F18768018F618F6E8F922E6CD84
:10185300C0E018ECC0E0E633CD33CDD313F6E7197F
:10186300FCE7191933CC33C3947F400ECD9D50242C
:1018730008E65480F6E418F6800FF4043D1450147F
:1018830008E6447FF6187680E418F618F6D0E0FCF4
:10189300D0E0FD22CCD313CCFD18E4C6CBC0E018B6
:1018A300E4C6CAC0E00808ED08C633E613F618E438
:1018B30033C675F003C3CA97CA09CB97CB199C40AB
:1018C300047D08802EBD000302198A16B6FF0506A3
:1018D30006081618C3CA33CACB33CB33CA27CA097F
:1018E300CB37CB193CC37D08803E187D0820E75CCD
:1018F300C633C6CA33CACB33CB33DDF1D5F0EB30B5
:10190300E77BCA97CA09CB974ACB199C406F4B70A8
:1019130025E620E0218066187D08C3CA97CA09CB53
:1019230097CB199CD3C633C6CA33CACB33CB3350F8
:10193300C9DDE7D5F0E1D3E4C636C608C636C60826
:10194300C636C608C636C61818188031C3CA97CA21
:1019530009CB97CB199CB34097C633C6CA33CACBBE
:1019630033CB33DD34D5F02EC6A2E0C640C8CA2738
:10197300CA09CB37194A70BECB3CB480B90808E614
:101983003308E633601F181818D0E0FAD0E0FBD014
:10199300E0FCD0E0FD22187D08CA27CA09CB37CB6B
:1019A300193CD3808013F618E4B67F11F618B6FFFE
:1019B3000EF618C60470D20808768080CAF618F6A8
:1019C30018F680C5080808EAC0E0EBC0E086F0E737
:1019D300A4FA180986F0E7A42AFA180986F0E7A4FE
:1019E3002AFA180986F0E7A42AFA1986F0E7A4FB75
:1019F300E5F02AFA190886F0E7A42BFBE5F03AFA9A
:101A0300190886F0E7A42BFBE5F03AFA18180986C3
:101A1300F0E7A4C5F02BFBE43AFA1908E7C5F0C6D2
:101A2300A426F6E5F03BFBE43AFA1886F0E7A4F6C1
:101A3300E5F00826F6E43B08F6E43A08F6D0E0FBC6
:101A4300D0E0FA22E4CFC0E0E4CEC0E0E4CDC0E0D1
:101A5300E4CCC0E075F020E626F608E633F608E6A7
:101A630033F608E633F6181818EC33FCED33FDEEC5
:101A730033FEEF33FFC3EC9709ED9709EE9709EFB8
:101A830097191919400FFFEC97FC09ED97FD09EE23
:101A930097FE191906D5F0BFECF709EDF709EEF734
:101AA30009EFF7191919D0E0FCD0E0FDD0E0FED022
:101AB300E0FF226016080808C6C313C618C613C67B
:101AC30018C613C618C613C6D5E0EA22700908085B
:101AD30008226016181818C6C333C608C633C608CA
:101AE300C633C608C633C6D5E0EA22E627F6080998
:101AF300E637F60809E637F60809E637F622E02660
:101B0300F608A3E036F608A3E036F608A3E036F6B7
:101B130022E026F008A3E036F008A3E036F008A39D
:101B2300E036F022C3E697F60809E697F60809E6D9
:101B330097F60809E697F622C3E096F008A3E09625
:101B4300F008A3E096F008A3E096F022E657F60823
:101B530009E657F60809E657F60809E657F622E0BC
:101B630056F608A3E056F608A3E056F608A3E05697
:101B7300F622E056F008A3E056F008A3E056F0087A
:101B8300A3E056F022E066F608A3E066F608A3E0B9
:101B930066F608A3E066F622E0F608A3E0F608A3DB
:101BA300E0F608A3E0F622E6F008A3E6F008A3E6D1
:101BB300F008A3E6F022E0FAA3E0FBA3E0FCA3E035
:101BC300FD22EAF0A3EBF0A3ECF0A3EDF022E0F8A2
:101BD300A3E0F9A3E0FAA3E0FB22E8F0A3E9F0A372
:101BE300EAF0A3EBF022CAC0E0E6F0A308DAFAD0E9
:101BF300E0FA22CAC0E0E0A3C582CCC582C583CD8A
:101C0300C583F0A3C582CCC582C583CDC583DAE67F
:101C1300D0E0CA22C3E498F8E499F9121C5880264C
:101C2300C3E49AFAE49BFBE920E7E9121C58E49821
:101C3300F8E499F922C3E498F8E499F9121C58E4FA
:101C430098F8E499F9C3E49AFAE49BFB22EB20E7C2
:101C5300CFE920E7E0B90010BB0008E88AF084F878
:101C6300AAF022E4FBC8FA22EB70227B10C833C827
:101C7300C933C9335007C39AC3DBF280069A5001B4
:101C83002ADBEAC833F4C8C933F4C9FA2275F00869
:101C9300E4C833C8C933C933C99AC99B5004C92A94
:101CA300C93BD5F0ECFBC833F4C8E4C9FA22600D94
:101CB30008C6A2E713C618C613C6D5E0F322600C04
:101CC30008C6C313C618C613C6D5E0F4227004228F
:101CD300600D18C6C333C608C633C6D5E0F4182250
:101CE300252110AF08F521400C15228008F521406D
:101CF300021522D2AF2200C0D0252110AF08F52152
:101D0300500C05228008F52150020522D2AFD0D015
:101D1300222521F58210AF08F521400C15228008F9
:101D2300F52140021522D2AF852283222521F58297
:101D3300E43522F583222521F8E43522F9222521F1
:101D4300FAE43522FB222521FCE43522FD22E4734B
:101D53002521C582C0E0E52234FFC583C0E0E5212B
:101D6300C3958224F810AF088583228582218008D9
:101D7300858322858221D2AFCEF0A3E520F0A3781C
:101D830008E608F0A3DEFAEFF0A3E58124FAF8E60B
:101D930008F0A3E608F0A3E608F0A30808E608F0B5
:101DA300A3E608F0A315811581D0E0FED0E0F81575
:101DB3008115811581E8C0E0EEC0E0222521C582AE
:101DC300C0E0E52234FFC583C0E0E521C39582244A
:101DD300F910AF08858322858221800885832285B7
:101DE3008221D2AFCEF0A3E520F0A37808E608F075
:101DF300A3DEFAEFF0A3E58124FBF8E608F0A3E6FF
:101E030008F0A30808E608F0A3E608F0A315811577
:101E130081D0E0FED0E0F815811581E8C0E0EEC086
:101E2300E022852283852182E0A3FEE0A3F52078CA
:101E330008E0A3F608DFFAE0A3FFE0A3C0E0E0A315
:101E4300C0E0E0A3C0E0E0A3C0E0E0A3C0E010AFC7
:101E5300088582218583228008858221858322D279
:101E6300AFD083D08202011F852283852182E0A324
:101E7300FEE0A3F5207808E0A3F608DFFAE0A3FF6D
:101E8300E0A3C0E0E0A3C0E0E0A3C0E0E0A3C0E0C3
:101E930010AF08858221858322800885822185836E
:101EA30022D2AFD083D08222C0D02521C582C0E008
:101EB300E52234FFC583C0E0E521C3958224F310F6
:101EC300AF0885832285822180088583228582212C
:101ED300D2AFC8F0A3E9F0A3EAF0A3EBF0A379082B
:101EE300E709F0A3D8FAECF0A3EDF0A3EEF0A3EF2B
:101EF300F0A3D0E0F0A3D0E0F0A3D0E0F0A3E5207E
:101F0300F0A3E5F0F0A322852283852182E0C0E0DF
:101F1300A3E0F9A3E0FAA3E0FBA37808E0F608A3A3
:101F2300DFFAE0FCA3E0FDA3E0FEA3E0FFA3E0C033
:101F3300E0A3E0C0E0A3E0F5D0A3E0F520A3E0A395
:101F4300F5F010AF088583228582218008858322DE
:101F5300858221D2AFD082D083D0E0F8D0E0327432
:101F6300048006740280027401C0E0F404121D149C
:101F7300D0E0121BE9227404800474028000CCC0F8
:101F8300E0EDC0E0E521C39CCCAD2250011D10AFB4
:101F9300068C218D2280068C218D22D2AF121BF656
:101FA300D0E0FDD0E0FC22D083D082E9C0E0E4930E
:101FB300A3C386F0C5F095F0F908E493A386F0C5B2
:101FC300F095F0700BE493A3C3994005E9048002F4
:101FD300A3E475F002A42582F582E5F03583F58349
:101FE300D0E0F9E493A3C0E0E493C0E022D083D02F
:101FF30082ECC0E0EDC0E0E493A3FCE493A3FDED29
:102003004C600D12203CEC24FFFCED34FFFD80EF0F
:10201300E493A3FCE493A3FDED4C600D12207BEC51
:1020230024FFFCED34FFFD80EFD0E0FDD0E0FCE4C5
:1020330093A3C0E0E493C0E022C0E0C3E493960816
:102043007401939618400FE4936670080874019323
:10205300661870007019A3A3C3E4939608740193E0
:102063009618A3A3400DD0E0D0E0D0E002202CA32B
:10207300A3A3A3A3A3D0E022C0E0C0F088F0E4931D
:102083006670080874019366187000A8F0A3A37023
:102093000BD0F0D0E0D0E0D0E002202CA3A3D0F00E
:0320A300D0E02268
:1020A80074F6121DBFEAFEEBFF8C088D09EE24348E
:1020B800F8E43FF9E8FCE9FDEE243512239DFAEE39
:1020C800243712239DF88508F0A4C885F00A8509ED
:1020D800F0A4250AF9EA28F8E439F97A257B0012F0
:1020E8001C58EA8C828D83F0FA131313541FF8EEF0
:1020F80028F8E43FF9E8245DF582E439F583E0C087
:10210800E074075AF8D0E0B800028004C313D8FC82
:10211800A2E0EE50082434F582E43F8018243612F9
:10212800239DF5F0EA84A8F0EE28F8E43FF9E824C6
:1021380038F582E439F583E0F97F03021E6B74F702
:10214800121DBFEAFEEBFFEE243412239DC0E0EE21
:102158002435F582E43FF583D0E0F08E828F83A3A7
:10216800A3A3A3A3A3A3C082C0838E828F83A3A3A8
:10217800A3A3A312220ED083D082E0C398F508A3AC
:10218800E099F509EE247F12239D6401705DEE2429
:10219800801222088E828F83A3A3A3A3A3A3A312D2
:1021A80025408E828F83A3A3A3A3A3E0FAA3E0FB19
:1021B800C3EA9CEB9D5010C3EC98ED99402DC3EAFF
:1021C80098EB995026800EC3EA98EB994007C3EC28
:1021D80098ED9940167CBD7D06EEFAEFFB120B15C3
:1021E800EE247FF582E43FF583E4F0AC08AD09EE18
:1021F800FAEFFB1220A8E9F912290B7F02021E6BE5
:10220800F582E43FF583E0F8A3E0F92274EF121DAC
:10221800BF900369E064086005E06407702A906174
:10222800C8E06024900397E0F4601DE0F875F00CB6
:10223800A4C8AAF02AF9749928FE740339FF8E827B
:102248008F83A3A3A3E07003022322906060E0C001
:10225800E0EE2468F582E43FF583D0E0F0750CF9F0
:10226800750D06750800750900E5D914F50AE5D954
:102278005403F50E60127403650E6043E50A600AA4
:10228800EE246712239D700280759006F4E06401C5
:10229800601F12239A60047A0480027A00E50AC358
:1022A8009AFA95E0FB1209BF8A088B09EA4509707A
:1022B80005120D97806412239A70048A0C8B0DE521
:1022C8000A6012850C82850D83F50BE5D9F0A315FC
:1022D8000BE50B70F612239A604474FC250AF50A84
:1022E800780C121F66AC0AA90EEEFAEFFB120BDB94
:1022F8007402121CF9E97026AA08AB0912142D7988
:102308003D8E828F83A3A3A3A3E0FA7B0012083932
:10231800EEFAEFFB120B39120C3B7900806F740355
:10232800650E6051850A107511007810121F66AC91
:102338000CAD0DAA08AB09120B9F7402121CF9EE22
:10234800246812239D64807004747F8001E0F50C7A
:10235800780C121F6AE50EF50C780C121F6AA90A90
:10236800AC08AD09900397E0FA7B001208097402E3
:10237800121CF98013900369E06408700BAC0CAD73
:102388000DEEFAEFFB120C0B120DA379017F0A0276
:102398001E6BEE2482F582E43FF583E02274F2128C
:1023A8001DBF74FC121CE3EAFEEBFF8909A2AFE42F
:1023B80033F508C2AF022461E0601B780C121F6677
:1023C800AC0BA90EEEFAEFFB120BD57402121CF936
:1023D8007404250BF50B7401250BF5D9850ED9E589
:1023E8000B6018F50A850C82850D83E0F5D9A38565
:1023F800820C85830D150AE50A70EA75E195EE24CD
:1024080063F8E43FF97A007B00A2AFE433F50BC22E
:10241800AF12253CEC4D603288828983E0FAA3E054
:10242800FB8A828B8312254088828983ECF0A3ED96
:10243800F08A828B83E4F0A3F012253CEC4D700AFD
:1024480088828983A3A3E4F0A3F0E50BA2E092AF0E
:1024580012142D9006C4E004F0EE2463122208E85A
:10246800496064EE246312239D2402F8A3E034003B
:10247800F988828983E5822402F50CE43583F50D19
:10248800E0F50BA3E0F50EEE246212239D640170C3
:10249800369061D0E0F812239A60047C0480027CB4
:1024A800007480C398FA95E0FBE50B2CF8E434003F
:1024B800F9E82402F8500109C3EA98EB99A2D26519
:1024C800D03340030223C09006C4E0604D9006C597
:1024D800E0F89006C4E0C398500C74026509703A9D
:1024E8009006C6E060348E828F83A3A3A3A3E08501
:1024F80021828522831225327402121D2FE81225AB
:10250800329006C3E028F07402121D49AA21AB22BA
:1025180079011208639006C4E4F0E508A2E092AFDE
:102528007404121CF97F07021E6BF0A3E4F09006F6
:10253800C4E0F82288828983E0FCA3E0FD22000041
:102548008523878524C622C0E074EB121EABA2AF98
:10255800E433F508C2AF759B00906182E0A2E050B9
:1025680030E591A2E0502A7591FE7401652370212F
:102578001226E2120CCB1226D0121F7912284774A9
:1025880004121CF9E9640170057901120CFB12228E
:1025980014906182E0A2E5505DE591A2E55057757F
:1025A80091DF900369E064076005E06408702F120A
:1025B80026E274016523703E120CCB1226D0121F3E
:1025C800791228477404121CF9E96401700579012D
:1025D800120CFB7901EEFAEFFB1223A58018E064D8
:1025E8000D701390038BE004F064287002E4F07A15
:1025F80000E0F9120DA9906182E0A2E640030226EC
:10260800A5E591A2E640030226A57591BF9003694E
:10261800E064057008120CB3120CBF8003120CB9E9
:10262800752300120D19E990036AF07900120CFB6A
:10263800120A7F7A017B00900368E0F9121001907A
:102648007803E0644270569006F8E014F0704EC2C9
:10265800AF12265C007826D0E0F618D0E0F6E59FA9
:102668005407F87005750DFF8003750D7FC4C0E031
:102678007825E6F50A08E6550DF50B740B780A126D
:102688001CC1D0E0250AF8906270E0A2E740F8E8A3
:10269800C333906272F0906270E0D2E0F090618192
:1026A800E0A2E35009E5E9A2E3500375E9F7A3E0E6
:1026B800A2E75009E591A2E7500375917FE508A2CA
:1026C800E092AF7F08021F0A8E828F83E0F8A3E0B2
:1026D800C82416F582E438F58322900397E0F8754C
:1026E800F00CA4C8AAF02AF9749928FE740339FFDB
:1026F80022C0E0C0D0C082C083906183E0A2E050D5
:1027080009E5BFA2E0500375BFFEE0A2E15009E56C
:10271800BFA2E1500375BFFDE0A2E25009E5BFA2E8
:10272800E2500375BFFBE0A2E35009E5BFA2E35006
:102738000375BFF7E0A2E45009E5BFA2E4500375B2
:10274800BFEFE0A2E55009E5BFA2E5500375BFDF82
:10275800E0A2E65009E5BFA2E6500375BFBFD083EB
:10276800D082D0D0D0E032C0E074F2121EABE5A720
:10277800A2E6500FE5A1A2E6500953A7BF75A1BF75
:102788001227C3E5A7A2E5500CE5A1A2E550065320
:10279800A7DF75A1DFE5A7A2E15009E5A1A2E150F5
:1027A8000375A1FDE5A7A2E2500CE5A1A2E250063F
:1027B80053A7FB75A1FB7F01021F0A74F7121DBF07
:1027C800752301900369E064067015120C5F8A8214
:1027D8008B83A3A3A3A3A3A3E0FAA3E0FB120CA1FA
:1027E800A2AFE433FED2AF90036FE0640170187AB1
:1027F800207B00900368E0F912107F7A207B00901C
:102808000368E0F9121007906182E0D2E6F09006C2
:10281800F5E0602185C624801690036EE06401709F
:1028280008E5C654F84405F5C653BEFC122548749D
:1028380001652360E4EEA2E092AF7F02021E6B7492
:10284800F1121DBF8A088B098C0A8D0B908E317886
:1028580008121B62740F121D2F780C121B9B908E8E
:1028680031780C121B627808790C1214DE908DF501
:1028780050107808790C121B2778081214FE40149F
:10288800800E780C7908121B27780C1214FE50045D
:102898007901800279007F08021E6B74ED121DBF5A
:1028A8008A088B098C0A8D0B908E317808121B626E
:1028B8007413121D2F780C121B9B908E31780C12FA
:1028C8001B62780C79081214DE40117808790C1212
:1028D8001B27AA08AB09AC0AAD0B8022751000753E
:1028E80011007512007513017810790C121B2778E6
:1028F800107908121AEEAA10AB11AC12AD137F0CA6
:10290800021E6BC082C083E9906000F0D083D08241
:1029180022C2AF02000022C0E074F2121EABA2AFC6
:10292800E433FED2AFC2C0E5D1A2E4500653D1EFE2
:10293800121391EEA2E092AF7F01021F0AC0E07469
:10294800F2121EABE5A8FED2AF1212A7C2EBEEA29E
:10295800E7A2E792AF7F01021F0AC0E0C0D0E8C03B
:10296800E0E9C0E0E5A8D2AFC2C7A2E7A2E792AF0C
:10297800D0E0F9D0E0F8D0D0D0E032C0E074F21264
:102988001EABA2AFE433FCD2AF901BB4E0F8A3E0D7
:10299800F9A3E0687003A3E069700A539AFB901BDF
:1029A800B874018039C2E9901BB4E0F8A3E0F9E8F3
:1029B8002401FAE439FB901BB4EAF0A3EBF0742489
:1029C80028F582741A39F583E0F5C1901BB4C3E089
:1029D8009490A3E094014007901BB4E4F0A3F0ECBA
:1029E800A2E092AF7F01021F0A02011FFFFFFFFF53
:1029F800FFFFFFFFC082C083E9901CD1F0D083D0D5
:102A08008202011F74F6121D53E99002DCF0900354
:102A18003BE0F50875090074027808121CD0AA0872
:102A2800AB0912103D9002DD1233BF9002DD123760
:102A3800AC606F90033BE075F003A4FAABF01210A2
:102A48003D9002FA1233BF9002FA1237AC700B9025
:102A580002DD12377D12104380489002FA124711A6
:102A68007AFF7BFF12120B7A0080198A0875090019
:102A780074027808121CD01241B974FF122BBFE4FB
:102A8800F0A3F00A90033BE0F8EAC39840DD79052B
:102A98001207019002DCE0F91205ED7A8B7B071230
:102AA800095F02425C74F4121D538A088B09EB54C7
:102AB8008060479002DCE0F9120FE98A0A8B0BAEBE
:102AC8000AAF0BEE4F602A8E828F83E064B0701AD3
:102AD800120713E960148E828F83A3A3A3A3E0F9DE
:102AE800EE2405FAE43FFB1206E3EEFAEFFB120FC1
:102AF800D7AA08E5096480FB80047A007B00022DD0
:102B08000F74F2121D5374FB121CE3EAFEEBFFEE86
:102B18004F60457403121D2FEEF0A3EFF08521825C
:102B2800852283ECF0A3EDF07402121D2FE9F0AAC0
:102B380021AB221205E7E9F50870757413121D2FF1
:102B4800E0F50AA3E0F50BE50A450B60638E828F7A
:102B580083123148EE4F700575080280537A067B60
:102B68000012103D8A0C8B0DA80CA90DE8497005C0
:102B7800750813803B88828983E4122BBFEEF0A38B
:102B8800EF122CDBE50AF0A3E50BF09002E0122C23
:102B9800D49002E06017E0FCA3E08003EAFCEBFDC0
:102BA8008C828D83122CD470F38C828D83123DD449
:102BB800A9087405024991F0A31246F3A32274F2FE
:102BC800121D538908890C750D007403780C121CAA
:102BD800D0850C0A850D0B9002DFF09002DD123BC8
:102BE800DF122CD2602E1210437900801D890C75DB
:102BF8000D007402780C121CD09002DD1240788807
:102C080082F583A3A3E4F0A3F00990033BE0F8E97D
:102C1800C39840D990033BE0FA850AF0A4CAA8F00B
:102C2800850BF0A428FB12103D8A0C8B0DAE0CAF5F
:102C38000DEE4F7003022CC890033BE0FC850AF0B0
:102C4800A4CCA8F0850BF0A428FD7900120FC57C50
:102C58000080318D0C750D007403780C121CD08A1D
:102C6800828B83122CCD88828983E4F0122CDAA31C
:102C7800A3F0A3F00DEDC3950840D8EE250AFEEFAA
:102C8800350BFF0C90033BE0F8ECC39850288C0CF4
:102C9800750D007402780C121CD09002DD122CCD38
:102CA800E82402500109FAE9FB8A828B83EEF0A33B
:102CB800EFF07D0080BFE5089002DFF07900800228
:102CC800791302499412407CF922A3A3123781EAAE
:102CD8004B22A31246F3A3A3A32274F4121D537923
:102CE80000EAA2E0501F75089D75098D7808121F2B
:102CF8006679107C047D007AD37B1C1206FB740273
:102D0800121CF9E9F980007F04021E25C082C083E5
:102D18009002E01237AC601C88828983A3A3E06A22
:102D28007003A3E06B8882898370E8A3A3A3A3122E
:102D3800377D80047A007B00022A0574F2121D5345
:102D480074FD121CE3EAFEEBFF852182852283E4F1
:102D5800F0A3F07402121D2F7401F01237A9701439
:102D68001208B112103D9002E31233BF1237A97056
:102D780003022ED51234BFEE2404F50AE43FF50B06
:102D8800850A82F583E024FE603C24FC607424FEFE
:102D9800607E24FE7003022E2524FE7003022E326C
:102DA80024FE7003022E3F24FE7003022E4C24FEE4
:102DB8007003022E5924FC7003022E7A24FE70033D
:102DC800022E92022ECE1208B19002E5EAF0A3EB91
:102DD800122EE112025DE96003022ECE9002E51286
:102DE8001F7D8E828F83A3A3A3A3A31247118508F7
:102DF8008285098312377D1206CB7402121CF902F0
:102E08002ECEAC21AD22EEFAEFFB120719022E9D51
:102E1800AC21AD22EEFAEFFB12071F8078AC21AD92
:102E280022EEFAEFFB120725806BAC21AD22EEFAF9
:102E3800EFFB12072B805EAC21AD22EEFAEFFB12FE
:102E480007318051AC21AD22EEFAEFFB1207378033
:102E5800447402121D39880C890D780C121F66748F
:102E680002121D49EEFAEFFB12073D7402121CF91B
:102E78008023AC21AD22EEFAEFFB120743E9F8708C
:102E8800167402121D2FE4F0803CAC21AD22EEFA3C
:102E9800EFFB120749E9F8E8602C8E828F83A3E0E4
:102EA80064146022850A82850B83E09002E5F08530
:102EB800218285228312377D9002E61233BFE8A370
:102EC800122EE1120257EEFAEFFB1206A17402125B
:102ED8001D2FE0F97403024991F07CE57D02850815
:102EE800828509831237812274E8121D5374FA12FD
:102EF8001CE37404121D2FECF0A3EDF08A128B135F
:102F0800EA2405F50EE43513F50FEA2402F510E47A
:102F18003513F511851082F58312377D1203958AD2
:102F28000A8B0B7508007C037D0079007AE57B022B
:102F3800120FC5E50E2402F516E4350FF5177402D5
:102F4800121D39880C890D780C121F66850E828532
:102F58000F83A3A3A3A3E0F50C750D00780C121F33
:102F680066E50E2405F50CE4350FF50D780C121FF7
:102F780066851682851783123A841206057406122E
:102F88001CF98A0C8B0DE50C450D7003023111807C
:102F980020852182852283E088828983F00508853F
:102FA8002182852283A3E0C0E0123152D0E0F005EF
:102FB80008E50A24FBFAE50B34FFFBC3E5089AE4AD
:102FC8009B40030231117E007F00851282851383A6
:102FD800A3A3A3A3E0F5097809121F6AE4F514F581
:102FE800157814121F667514E27515027814121FED
:102FF800669002E3121F7D7409121D2F121F7DE5D2
:103008000A24F9F9AC0CAD0D8510828511831237AD
:103018007D1207737409121CF9E960030230B28546
:103028000E82850F83A3A3A3A3A3A3A3E0F8900212
:10303800E2E0687075E0F5148E157814121F6612B8
:10304800470E850E82850F83A3A3A3A3A3A3A3A3DF
:1030580012377D120FBF7402121CF9E9604C9002FE
:10306800E61237AC703BE4F5147814121F667CFF47
:103078007DFF790785108285118312377D1206DD61
:103088007402121CF91237B27017850E82850F83ED
:103098001248AB7404121D2F12416C123AB502315A
:1030A80045850C82850D83123148A821A9228814F0
:1030B80089157814121F667404121D2F121F7D853E
:1030C80016828517831233B51206117404121CF97F
:1030D8008A0C8B0DEE4F7003022F8E123152EE12B6
:1030E800315D123A6BEF12315DF8A3E03400F9E577
:1030F8000C450D6003022F998882898374FFF005BF
:103108000812315274FFF00508E508601A131354C9
:103118003F1233C5120269E960099002E612377D51
:1031280012142D79008016850E82850F831248AB04
:103138007404121D2F12416C123DD4790A023A3ED2
:10314800A3A3A3A3E0FEA3E0FF22A8089002E6E061
:1031580028123A6B22F00508089002E6E02822744B
:10316800E8121D5374FA121CE37402121D2F123355
:10317800BF7404121D2FECF0A3EDF07402121D2F82
:10318800E02405123A54E0F50CA3E0F50D740212A0
:103198001D2FE02402F510A3E03400F511851082FC
:1031A800F58312377D120395750800750900EA2426
:1031B800FCFEEB34FFFF8008050CE50C7002050DE2
:1031C800A808C3EE98EF94005003023371A821A910
:1031D80022880E890F780E121F6685148285158342
:1031E800A3A3A3A3124715121F66E5142405F50E21
:1031F800E43515F50F780E121F6685148285158340
:103208001233B31206057406121CF98A0E8B0FEAE4
:10321800450F7003023371EA2404F516E4350FF5FF
:1032280017851682F583E0F50CA3E0F50D8521825C
:103238008522831247118A828B83A3A3A3E0F98591
:10324800108285118312377D1205F3E9F5096003B1
:103258000233717402121D2F123A7BF50978091294
:103268001F6AE4F512F5137812121F667512E275DB
:1032780013027812121F669002E3121F7D74071260
:103288001D2F121F7DEEF9AC0EAD0F851082851132
:103298008312377D1207737409121CF9E9F5096066
:1032A80003023371E508703FE4F50EF50F780E124E
:1032B8001F667CFF7DFF790985108285118312378F
:1032C8007D1206DD7402121CF9123AA1700D740405
:1032D800121D2F1233A879110233A59002E2E024BF
:1032E800029002E6F080149002E6E0FA9002E2E032
:1032F800790024025001096A497072A8089002E214
:10330800E0FAE82AFAE43400FBEE9AEF9B405A858B
:103318001682851783E0C0E09002E7123157D0E0AB
:10332800F00508851682851783A3E0C0E00890029F
:10333800E7123157D0E0F005089002E21247151263
:103348001F6612470EA808123A48120FAD740212EF
:103358001CF99002E2E02508F50874FF650C70047A
:1033680074FF650D60030231C0E508601F9002E636
:10337800E0F5F0E508841233C512026FE9600990A0
:1033880002E712377D12142D79008011E5097003C8
:1033980075090A7404121D2F1233A8A909023A3EAE
:1033A800123BE3E50CF0A3E50DF022A3A31249A01C
:1033B800AA0CAB0D22A3A3EAF0A3EBF0229002E53E
:1033C800F07CE57D02851082851183123781227495
:1033D800EC121D5374FC121CE3123EE47402121D1D
:1033E8004912377712060B8A0C8B0DEA450D7003CC
:1033F8000234AF1234BFA821A9228810891178108D
:10340800121F667CFF7DFF790B8508828509831270
:10341800377D1206DD7402121CF91235B5700C8561
:103428000A82850B83123AB20234BC8E828F83A340
:10343800A3A3A3E0F5127812121F6AE4F512F5139C
:103448007812121F667512E57513027812121F663C
:103458007810121F667409121D2F121F7D7409122D
:103468001D2FE0F9AC0CAD0D850882850983123754
:103478007D1207737409121CF9E9FE70157CE57D4D
:103488000285088285098312377D120275E9700961
:10349800802074166E70027E009002E612377D124C
:1034A800142DEE7004800B7E01850A82850B831231
:1034B8003DD1EEF9023DE6EE2402F508E43FF509B8
:1034C8002274EC121D5374FC121CE3EAFEEBFF8C11
:1034D8000E8D0FEE2405F508E43FF5097402121D60
:1034E8004985088285098312377D12060B8A0C8B61
:1034F8000DEA450D70030235A5EE2402F50AE43FF6
:10350800F50BA821A922881089117810121F667C52
:10351800FF7DFF790D1237771206DD7402121CF950
:103528001235B5700B850882850983123AB2807A04
:103538008E828F83A3A3A3A3E0F5127812121F6AC9
:10354800850882850983A3A3121F7D7512E575136B
:10355800027812121F667810121F667409121D2F46
:10356800121F7D7409121D2FE0F9123773120773A9
:103578007409121CF9E9FE700F7CE57D0212377799
:1035880012027BE97009802074166E70027E00902A
:1035980002E612377D12142DEE7004800B7E018531
:1035A8000882850983123DD1EEF9023DE61237BC47
:1035B800F510A3E0F511EA45112274E8121D5374C1
:1035C800FE121CE38A168B178C148D15EA2405F558
:1035D8000CE43517F50DEA2402F50EE43517F50F5E
:1035E800850E82F58312377D1203958A088B09753B
:1035F8000B007C037D0079007AE57B02120FC5750C
:103608000A00E50814F5100424FFF508E50934FF5D
:10361800F50980549002E5E0FA9002E2E0F8EA2821
:10362800F8E43400F9E50898E50999500D9002E5A9
:10363800E0F8E510C3989002E2F0E0F51275130087
:103648007812121F6612470E9002E6E02AFAA3E0EB
:103658003400FB120FAD7402121CF99002E2E0F87C
:103668009002E5E028F0050A850C82850D83A3A366
:1036780012408840030237589002E5E0C39508E4F9
:1036880095094003023758AE0AEE2EFEE433FF12C6
:103698003797AC21AD22124729E439FB12060B8A71
:1036A800128B13AC12AD13EC4D701B750B01123756
:1036B80087123DD59002E6122CD4600312142DA96E
:1036C8000B7402023A40851682851783A3A3A3A32D
:1036D800E0F50B780B121F6AE4F512F51378121255
:1036E8001F667512E27513027812121F669002E3C4
:1036F800121F7D7407121D2F121F7DA910850E82BF
:10370800850F8312377D1207737409121CF9E9F5C6
:103718000B709B9002E61237AC600302361CE4F58E
:1037280012F5137812121F667CFF7DFF790F850E44
:1037380082850F8312377D1206DD7402121CF9127E
:1037480037B2600302361C123787123AB60236C9FE
:103758007CE57D02850E82850F8312377D120281FA
:10376800E960030236BC79000236C9AC0CAD0D85A0
:103778000A82850B8312378122E0FAA3E0FB22122A
:103788003797E0FAA3E0F9EA851482851583228544
:103798000C82850D83E02EF8A3E03FF988828983A7
:1037A800229002E31248AFE849221237BCF8A3E09E
:1037B800F9E849229002E6EAF0A3EBF09002E6E08D
:1037C8002274E8121D5374FA121CE37404121D2F9C
:1037D8001233BF8C168D177404121D2FE02405F5C3
:1037E8000EA3E03400F50F7404121D2FE02402121A
:1037F8003A5412377D1203958A0A8B0B7F007E009C
:10380800A821A922880889097808121F66850E82CE
:10381800850F83A3A3A3A3E0F5088E097808121FD8
:1038280066E50E2405F508E4350FF5097808121F3A
:1038380066850E82850F83A3A3123A841206057447
:1038480006121CF98A0C8B0D8029123A75F00F129A
:103858003A75F00F9002E2123DC0121F6612470E31
:10386800EFF8123A48120FAD7402121CF99002E2F6
:10387800E02FFFE50C450D70030239048521828590
:103888002283123EF6A3A3A3E0F98514828515834B
:1038980012377D1205F3E9FEE50C2404F510E43532
:1038A8000DF511EE70507404121D2F123A7BF508B5
:1038B8007808121F6AE4F508F5097808121F66757A
:1038C80008E27509027808121F669002E3121F7D4C
:1038D8007407121D2F121F7DE50A24FAF9AC0CADEE
:1038E8000D85148285158312377D120773740912AA
:1038F8001CF9E9FE6039123A91123DD4EF700302C7
:103908003A2B9002E6E0F5F0EF849002E5F07CE5D2
:103918007D0285148285158312377D120287E9603E
:10392800099002E712377D12142D7900023A3E8F72
:1039380008EF703BE4F512F5137812121F667CFF4E
:103948007DFF791185148285158312377D1206DD76
:103958007402121CF9123AA17009123A91123AB57E
:10396800023A3E9002E2E024049002E6F0803590AC
:1039780002E2E0F89002E6E0FAE82404FCE434000D
:10398800FDEC6A4D600302390AE50A24FAFAE50BF0
:1039980034FFFBE50828F8E43400F9EA98EB99507D
:1039A8000302390A851082851183E0C0E09002E79E
:1039B800E02FF8A3E034008882F583D0E0F00F858B
:1039C8001082851183A3E0C0E0123A62D0E0F00FC4
:1039D8007402121D39880889097808121F66740252
:1039E800121D2F121F7D850E82850F831233B3128D
:1039F80006117404121CF98A0C8B0DEA450D70032C
:103A08000238527402121D2FE0C0E0123A62D0E070
:103A1800F00F7402121D2FA3E0C0E0123A62D0E04A
:103A280002385AEE70027E0A850E82850F83123A9A
:103A380097123DD4EEF97406121CF97F10021E2568
:103A48009002E7E028FAA3E03400FB22F514A3E093
:103A58003400F515851482F58322123A6622900205
:103A6800E7E02FFAA3E034008A82F58322123A664F
:103A780074FF22123BE3A3A3A3A3E0221249A0856B
:103A88000E82850F83123781228510828511831259
:103A980048AF851682851783229002E7EAF0A3EBE8
:103AA800F09002E71248AFE84922123DDAE8F0A3A5
:103AB800E9F079112274EA121D5374FE121CE38A8C
:103AC800088B098C128D13EA2405FEE43509FFAC36
:103AD80021AD228E828F8312377D12060B8A0C8BC2
:103AE8000DEE2406F50EE43FF50FEA450D700302CE
:103AF8003BB5E5082402F50AE43509F50B8A828B03
:103B080083A3A3A3E0A2E5502885218285228312FE
:103B1800377D1207678A108B11EA451160207912E8
:103B2800123773851082851183121D51E9F50C70C7
:103B38007F850E82850F83E0600979528011750CAC
:103B48000E806D850882850983A3A3A3A3E0F9E409
:103B5800F508F5097808121F668E828F83A3A3E003
:103B6800F5087808121F668E828F83A3A3A3121FFD
:103B78007D8E828F83124711123777120779740668
:103B8800121CF9E9F50C7011850E82850F83E0701F
:103B98002D12377712028D80257416650C701175F9
:103BA8000C007418121D2F123BDFE48010750C01F5
:103BB8001248A7851282851383E8F0A3E9F0850EE1
:103BC80082850F83E0600479008002A90C740212D8
:103BD8001CF97F0E021E25123BE322E0F8A3E0F554
:103BE8008388822274EC121D5374F7121CE38A0A2C
:103BF8008B0B8C108D11EA2405FEE4350BFF750C38
:103C080000AC21AD228E828F8312377D12060B8A7B
:103C1800088B09EA45097003023DABE50A2402F561
:103C28000A5002050B8A828B83A3A3A3E0A2E55066
:103C38002F85218285228312377D1207678A0C8B94
:103C48000DEA450D604F7912AC08AD09123777853A
:103C58000C82850D83121D51E9F50C6003023DAEFF
:103C6800850A82850B83E0F508A3E0F509AA08FB1D
:103C780012075BEA4B70197AFF7BFF12075BEA4B6E
:103C88007003023DA18A828B83E508F0A3E509F061
:103C98007508008008750C0E023DAE05089002DF1D
:103CA800E0F8E508C3984003023DA185080E750FAA
:103CB800007403780E121CD08A828B83A3A3E0259C
:103CC8000EF8A3E0350F12417570D08E828F8312E3
:103CD8003DC91233BF8E828F83A3A3123DC912330D
:103CE800BDEE2404F508E43FF509850882F583E074
:103CF80088828983A3A3A3A3F0A3E4F0EE2405F5A7
:103D08000EE43FF50F850E82F583123DC9A3A3A3E8
:103D1800A31233BD7512077513007812121F66EED1
:103D2800FCEFFD7404121D41120FAD7402121CF950
:103D3800E4F5127812121F66850882850983E0FC73
:103D48007D0079171237771206DD7402121CF97498
:103D580007121D2F1233BF7407121D2FE0FA4B6094
:103D68003D850882850983123DC0121F66850E8233
:103D7800850F83124711120FAD7402121CF97402D9
:103D8800121D49123777120293E960267407121D33
:103D98002F12377D12142D8019750C098008750CA7
:103DA800118003750C011248A785108285118312B2
:103DB8003DD4A90C74098028E0F508750900780835
:103DC800221237818882898322123DDAE8F0A3E93A
:103DD800F022E0F8A3E0F9850E82850F83227404AF
:103DE800121CF97F0C021E2574EC121D53123EE4BE
:103DF800751000EE2402F50CE43FF50D850C82F5F4
:103E08008312377D12075B8A088B09EA450970031C
:103E1800023EC8850A82850B83E064016003023E86
:103E2800BDAC08AD09AA0AAB0B12074FE9606E8555
:103E3800088285098312314AEE2406F50AE43FF523
:103E48000B8E828F83A3A3121F7D8E828F83A3A3E1
:103E5800A3A3121F7D850A82850B83121F7D791803
:103E68008E828F83123EF612377D120779740612FE
:103E78001CF9E9F8741668700B850A82850B83E4CF
:103E8800F0A38014E860128E828F8312377D850E2E
:103E980082850F83EAF0A3EBF088108018780E1261
:103EA8001F66AC08AD09EEFAEFFB12075574021253
:103EB8001CF9E9F510AA08AB09120761E510700EA4
:103EC800850C82850D8312377D120299800974163C
:103ED80065107003751000A910023DEBEAFEEBFFB8
:103EE8008C0E8D0FEE2405F50AE43FF50B221249DE
:103EF800A0850C82850D832274EA121D5375080073
:103F08007509007E007F00750A00EC2402F510E4B4
:103F18003DF5118035EC65087003ED650960030215
:103F28003FB588828983A3A3E06A7003A3E06B701E
:103F38007C88828983A3A3A3A31248ABEE28FEEF53
:103F480039FFEA28FAEB39FB050A124085503A8511
:103F58000A0C750D007403780C121CD0851082852C
:103F68001183124078124175601FE508450970A554
:103F78008C088D098882898312314888828983A3B5
:103F8800A3E02EFAA3E03F80BEE50AC394025003E3
:103F9800024073750800750900EE4F6010EEFAEFE5
:103FA800FB1214278A0E8B0FEA450F700579000261
:103FB8004075750B00024048850B0C750D007403A5
:103FC800780C121CD0851082851183E0250CF50C25
:103FD800A3E0350DF50DE50C2406F514E4350DF5D3
:103FE80015851482F58312417A6042E50C2404F5A4
:103FF80012E4350DF513851282F583121F7DE50E47
:104008002508FAE50F3509FB120FAD7402121CF9E9
:10401800851282851383E02508F508A3E03509F5A4
:104028000985148285158312377D12142DE50B60DE
:104038000D7C087D007900AA0CAB0D120FC5050B8D
:10404800E50BC3950A5003023FC085108285118392
:104058001248AB88828983A3A3A3A3A3A3E50EF088
:10406800A3E50F122CDBEEF0A3EFF07901023BDAA7
:1040780012407C22E0250CF8A3E0350D229002DFE7
:10408800E0F8E50AC3982274F0121D538A0E8B0FCC
:104098008C0A8D0B750D00750C0080507916EE2476
:1040A80006F508E43FF5098E828F83A3A3121F7DCE
:1040B8008E828F83A3A3A3A3121F7D8508828509FF
:1040C80083121F7D850E82850F83A3A312377D126D
:1040D80007797406121CF9E9F50D7416650D706CF4
:1040E800850882850983E4F0A3F0050C9002DFE0DF
:1040F800F8E50CC3985066AA0C8A08750900740381
:104108007808121CD0850A82850B83A3A31241C4A8
:10411800E8FEE9FF8E828F8312417A6040EA24012B
:10412800F508E43400F5099002DFE065087002E55F
:1041380009601488828983A3A3A3A3A3A3A3A312BA
:1041480037AC60030240A479180240A6E9609B12CC
:1041580048A77410121D2F12416C123DD4A90D7F6F
:1041680008021E25E0FAA3E0F5838A8222F98882F4
:1041780089831249A0EC4D2274F6121D537C0080ED
:10418800010C90033BE0F8ECC398501E8C087509AD
:104198000074027808121CD01241B9E06A7003A3B7
:1041A800E06B70DDE8FAE9FB80047A007B000242EC
:1041B8005C9002DD1241C48882898322E02508F8D8
:1041C800A3E03509F92274F2121D538A088B097588
:1041D8000A0080278E828F83A3A3A3A3122CD26008
:1041E8000312142D7C087D007900EEFAEFFB120F04
:1041F800C58E828F83E4F0A3F0050A12408550270C
:10420800850A0C750D007403780C121CD085088281
:10421800850983A3A3E0250CFEA3E0350DFF8E825C
:104228008F831237AC70AD85088285098374FFF0DF
:10423800A3F002499474F6121D5312070D8A828B5B
:1042480083E582458370067A007B008007A3A3A3D9
:10425800A312377D7F02021E2574F4121D538908AC
:104268008C828D83E06402703C12484AFEA3E0F918
:10427800EEF874026870037429697029750A02756A
:104288000B00780A121F667410121D2F121F7D74FE
:1042980010121D2F121F7DA9081212117406121C6C
:1042A800F9E9F980027901022D0F74E8121D53749F
:1042B800FB121CE3E9852182852283F08A168B177D
:1042C800ECFEEDFF7510008E828F83A3A3A3E0A2FE
:1042D800E4502D741D121D2F12377D1207678A8234
:1042E8008B83E582458370030246E9790AEEFCEF89
:1042F800FDAA16AB17121D51E9F51060030246EC32
:10430800741F121D2FE0F508A3E0F5097421121D92
:104318002FE0F50AA3E0F50B7423121D2FE0F50E2C
:10432800A3E0F50F8E828F83E06402600302468A61
:10433800A31248AB850882850983A38582128583E9
:1043480013EE2406F50CE43FF50D888289831247A5
:1043580029F514E439F5157814121FF00100002826
:1043680001288C430700022851440328BF43002931
:1043780080450129AB4502294C450329804504297C
:1043880024468A46E50E450F6003024685850C8261
:10439800850D831248ABE8FAE9FB8A828B83E085B6
:1043A8000A82850B83124734121F668A828B83A385
:1043B800E0FCA3E002460EE50E450F6003024685C9
:1043C800850A82850B837401F012471E8508828551
:1043D8000983F07C007D008E828F83A3A3A3A3E0D2
:1043E8002401FAA3E03400FB12060BEA4B60408A72
:1043F800828B83E02402F8850A82850B83E028F00B
:10440800EA2404F8E43BF988828983E085128285EE
:104418001383124742124734121F668A828B83A382
:10442800124711E5082403FAE43509FB024613850F
:104438000A82850B83E02404F07C047D007900AABD
:1044480012AB13120FC50246ECE50E450F600302CE
:10445800468512471EFEA3E0FF850A82850B8374FA
:1044680004F0EE850882850983F0EF8512828513B2
:1044780083F07403121D49EEFAEFFB12060B8A0C47
:104488008B0DEA450D700302452F8A828B83A3A307
:104498001231487401121D39880E890F780E121FC7
:1044A800667405121D2F121F7D7CFF7DFF120611F9
:1044B8007404121CF98B0FEA450F7033850C828542
:1044C8000D83124715121F66850C82850D83A31272
:1044D8001F7D7C027D007A4F7B8E12038374041249
:1044E8001CF9E9700A7401121D2F74FFF0A3F08EF5
:1044F800828F83E064027039750C02750D00780CA8
:10450800121F668E828F83A3124711E5082404FACE
:10451800E43509FB120FAD7402121CF9850A828575
:104528000B83E0240280097401121D2FEEF0A3EF23
:10453800F07401121D2F1247037401121D2F124629
:10454800FA02467FE50E450F6003024685850C8218
:10455800850D83124999AA16AB17121217850A827C
:10456800850B837402F0850882850983EAF0851239
:1045780082851383EB024682E50E450F60030246EF
:104588008512471EF8A3E0F9850A82850B83740219
:10459800F0E8850882850983F0E98512828513830E
:1045A800024682850C82850D8312377D120FA7EA99
:1045B800FAF8C3950EE4950F405CE8650E450F7058
:1045C800047A008021852182852283E0FCE50E2C77
:1045D800FCE4350FFDC3EC98ED94005003E0800532
:1045E800E50ECAC39AFAEA850A82850B83F08A0A1D
:1045F800750B00780A121F66850C82850D83E025ED
:104608000EFCA3E0350FFDAA08AB09120FAD74022A
:10461800121CF90246EC7510070246ECE50E450F30
:10462800705B850C82850D831248AB850A82850BE9
:10463800837407F0888289831246FB1246F3E0856B
:104648001282851383F0E82402FAE439FB8A828B0C
:10465800831247038A828B831246FAA3A3122CDAA9
:10466800124708F0E82405F8500109888289831266
:104678004708A3124742A3A3A3A3F0806775100BB2
:104688008062741D121D2F12377D12070D8A828BCE
:1046980083E5824583604A1248AB880C890DE8455A
:1046A8000D603E7425121D2FE0F5107810121F6A58
:1046B800780E121F66780A121F667808121F667431
:1046C80007121D2FE0F9EEFCEFFDAA16AB17850CBB
:1046D80082850D83121D517407121CF9E9F51080AB
:1046E8000375100EA9107405023A40F08882898378
:1046F800A322A3E085088285098322124749F02274
:10470800124749A3A3229002E31249A022E0F50E22
:10471800750F00780E22850C82850D83123BE3E02D
:1047280022E0FAA3E0F8E4C8F9EA2822F08A828BAA
:1047380083E0F50A750B00780A221246F3124749FE
:1047480022E0850882850983A3A32274EE121D53F3
:1047580074FE121CE38A088B09ECFEEDFF890AAC93
:1047680021AD22EEFAEFFB12060B8A0C8B0DEA45FF
:104778000D700302483B85218285228312377D1202
:10478800070D8A828B83E58245837003024836A32E
:10479800A31248AB880E890FE8450F70030248360C
:1047A8007414121D2FE0F510A3E0F511E50AF50BBE
:1047B800780B121F6A7419121D2F121F7D781012A0
:1047C8001F66741B121D2FE0F9AC0CAD0DAA08ABC7
:1047D80009850E82850F83121D517405121CF9E993
:1047E800F50B705274FE650A604C850C82850D834A
:1047F800E06402704112484AFAA3E0F9EAF8740248
:10480800687003742969702E851082851183124798
:1048180029F50CE439F50D780C121F66EEFCEFFD56
:10482800AA08AB091207917402121CF98008750BCB
:104838000E8003750B01A90B7402121CF97F0A0282
:104848001E25A31248AF88828983E02274F6121DC0
:104858005374FE121CE3740C121D2F1248ABE8852A
:104868002182852283F07401121D2FE9F0E4F508F6
:10487800F5097808121F667508027808121F667411
:1048880004121D39880889097808121F6679FE12F2
:1048980007797406121CF97402121CF902425C8E24
:1048A800828F831248AF22E0F8A3E0F92274F7124E
:1048B8001D53EAFEEBFF89089002FA124711121203
:1048C80017EA5402600BA908EEFAEFFB1205FF8005
:1048D8000279017F01021E2574F2121D5374FE1223
:1048E8001CE3EAFEEBFF890A7401650A601474028E
:1048F800650A600302498F790112097DE9600302A4
:10490800498FEEFAEFFB12075BEA4B60031207616F
:10491800A821A922880889097808121F6675080243
:104928007509007808121F6675085575098E78088C
:10493800121F667CFF7DFF7A017B00120605740654
:10494800121CF98038850882850983A3A3A3A3A331
:10495800A3124999EEFAEFFB12120BE4F50CF50DD0
:10496800780C121F667402121D2F121F7D7CFF7DAA
:10497800FFAA08AB091206117404121CF98A088BE5
:1049880009E508450970BE7402121CF97F06021E6B
:1049980025123BE31249A022E0FCA3E0FD2274F4B7
:1049A800121D538A088B09ECFEEDFF901CD1E0F430
:1049B800604B7A097B00120FD1EA4B60408A828BE8
:1049C8008374B1F0A3E4124A08F08A828B83A3A30C
:1049D800E508F0A3E509124A08A3EEF0A3EFF07486
:1049E8000C121D2F1248AB8A828B83A3A3A3A3A307
:1049F800A3A3123DD4901CD1E0F9120FDD022D0FB4
:104A0800F08A828B83A3A3A3A322C082C083906170
:104A1800907404F0A37448F0A37402F09061807459
:104A280040F09061BC7403F09061877419F0906253
:104A380065741BF0906249E0C3941390619C401028
:104A48007409F09060667401F090619F7428800D7D
:104A5800740BF0906066E4F090619F742CF0124B38
:104A6800FD7009C29190036D7467800590036D74A1
:104A780061F0124C4F9029F4E493F46006E493F942
:104A8800120A737905120D8B024E91C082C083E918
:104A9800540FF9906185E0696012E5C654B8444145
:104AA800F5C6E59E5447644170F8E9F053C6B8E589
:104AB8009E544770FA024E91C082C083A8A853A89A
:104AC8007E906181E4F0A3F0A3F0C2BA539AFEC2CB
:104AD80089759B00C2C275E90075910075BF0075A4
:104AE800A91175B905906181F0A374C0F0A3E4F031
:104AF800D2BA439A0174805842A8024E91F0024EED
:104B080091C082C08374F8121CE390036B12621187
:104B18007003024BF590036BE0544060177908AAC4
:104B280021AB22120B81AA21AB221207F190036B51
:104B3800E054BFF0E054806010790C7A197B0712BA
:104B48000B8190036BE0547FF0E0A2E0501E124B03
:104B5800FD7009C29190036D7467800590036D74B0
:104B680061F01207F790036BE054FEF0E054026026
:104B78001E124C427009D29190036D747180059099
:104B8800036D746AF01207F790036BE054FDF0E0D0
:104B9800540460109029F8124C521207FD90036BD0
:104BA800E054FBF0E0540860109029F9124C5212BE
:104BB80007FD90036BE054F7F0E05410600D124CC1
:104BC8004F1207FD90036BE054EFF0E05420600AA9
:104BD8001207FD90036BE054DFF0A3E05401600D71
:104BE800120A9112080390036CE054FEF074081244
:104BF8001CF9024E9190619A124E449006F3E064BB
:104C08000122C082C083E960051460178029124B15
:104C1800FD7009C29190036D7467801A90036D74DA
:104C2800618013124C427009D29190036D747180A7
:104C38000590036D746AF0024E9190619A124E3697
:104C48009006F3E06401229029FAE493906186F0DB
:104C58002274EA121D5374F4121CE3908E25AC21C1
:104C6800AD227404121BF69029F893F46003024DE8
:104C7800CB907808E0C394025003024DAF908D6545
:104C88007404121D497408121BF6A821A92288145D
:104C980089157404121D3988088909AE08AF097589
:104CA80010FF7511FF750EFF7C00750C48750D78A7
:104CB800801274086C7003024D4574096C607E7430
:104CC8000A6C6079850C82850D837808121B9B8E8F
:104CD800828F83A909E50AC9F8881274187808121E
:104CE8001AB6E5124508F8C3E098A3E099850C8246
:104CF800850D837808121B9B40188E828F83741849
:104D08007808121AB6E5124508F8E0C398F8A3E047
:104D1800801A74187808121AB6E5124508FAE9FBE1
:104D28008E828F83125566EAC398F8EB99F9C3E827
:104D38009510E995115006881089118C0E0CE50C18
:104D48002404F50C5002050DECC394135003024CD7
:104D5800BA74FF6510700474FF65116024850E082D
:104D680074027808121CD074482508F582747835C6
:104D780009F5837808121B9B851482851583E5083D
:104D8800F0EE2402FE50010F851482851583A38559
:104D98008214858315740C121D2FE5826E7003E54D
:104DA800836F6003024CA775080175090078081223
:104DB8001F667402121D497A7E7B0A12127D7402E4
:104DC800121CF9740C121CF97F0E021E25C082C039
:104DD800839061AE7468F0A3746AF090624574FBC6
:104DE800F0A304F053F4FD43FE029006F37401F0BF
:104DF8009061A0E0643A90619A7019124E4474016F
:104E080064017009C29190036D7467801E90036DF0
:104E180074618017124E36740164017009D2919042
:104E2800036D7471800590036D746A024B05743FBD
:104E3800F0A3745AF09061A0747FF0227433F0A349
:104E48007455F09061A0743AF0227F04021E25C0C8
:104E580082C0839006D1E0640170119006D7E064A7
:104E6800016019E07006A3E0640160109006E8E0B4
:104E78006401700C9006EEE064017004790C800205
:104E880079008005E0F912290BD083D08202011F36
:104E9800E0C4333354C02288828983125427A882FD
:104EA800A983222414F582E438F58322C082C083C2
:104EB8009006DB7425F09006D97401F0A3E4F07A2B
:104EC80001FB120D07124F00241AF582E438F5830E
:104ED80074B5F0A3740AF09006D8E06401701690D7
:104EE80006D7E070107901120D67120D37120D61A7
:104EF8007900120D73024E919006C71252892274DE
:104F0800F6121D5374FA121CE39006D0E064017087
:104F180008120A9D9006D0E4F075E1F1124F0024C2
:104F280015F582E438F5837401F09006D2E0640147
:104F3800704B908D85AC21AD227406121BF675D985
:104F48000D9006C9124E984403F5D97582CA758327
:104F580006125423E58264D07004E583640670F178
:104F6800A821A922124E9F7406121D2FE58268708F
:104F780003E5836970EE75E1957901800279001285
:104F88000D0D901CF5124FED741DF0A3740CF0A3D9
:104F9800124FED124FED12515B7423F0A3740C12F3
:104FA80051709006C9E0F97ACA7B06120CE990069E
:104FB800DBE0F912290B7901120D13908E29121BCF
:104FC800B9120D2B908E39121BB9120CF5790012FB
:104FD8000D7F124F00124EAB7416F09003697405E2
:104FE800F0040256887417F0A3740CF0A32274F727
:104FF800121D538908A808E875F00CA4C8AAF02A5D
:10500800F9749928FE740339FF9006E0E0F97AE113
:105018007B06120CE99006EEE070257900120D4926
:10502800EE240BF582EF3401F583E07004790080FB
:10503800027901EE2405FAEF3401FB120CEF80052A
:105048007901120D4975E1F175D9239006E0124EE8
:10505800984405F5D97582E1758306125423E582D3
:1050680064E77004E583640670F175D90075D900AA
:1050780075D90075D90075D90075D900EE242212AA
:1050880054DC1254FB7003E9658370F6EE24261293
:1050980054E72403F8E43583F91254FB7003E965F7
:1050A8008370F6EE242B1254F0242C1254F0242D85
:1050B8001254F0242E1254F0242F1254F0243012DB
:1050C80054F024311254F024321254F02433125480
:1050D800F0245D1254E72405F8E43583F91254FBF3
:1050E8007003E9658370F6EE2437126090541FF858
:1050F800EE242A126090C43354E048F5D975E1953E
:10510800901CF574E7F0A3740BF0A374EDF0A3748E
:105118000B12515274F3F0A3740B1251709006EDF8
:10512800E0F912290B908E29121BB9120D2B908EC3
:1051380039121BB9120CF590600DE4F07901120DCB
:105148007F9003697406F00258C4F0A312515B12F1
:10515800515B2212515F2274E1F0A3740BF0A37427
:10516800E1F0A3740BF0A32212517422F0901D03F6
:10517800125180A31251802212515F74E1F0A3747E
:105188000BF02274EC121D539006DE125CE67810C8
:10519800121B9B9006EFE0FAF875F00CA4C8ACF06F
:1051A8002C125E62FFEE2EFEEF33FF8E0CF50D75AE
:1051B8000E00750F0085100885110985120A8513E0
:1051C8000B908E1D7808121B017808121F6285103B
:1051D8000885110985120A85130B7808790C121AAB
:1051E800EE7810790C121A47E4F50EF50F78087965
:1051F8000C121B278A0C750D007403780C121CD036
:105208007808790C121AEE908E317808121B62AA6F
:1052180008AB09AC0AAD0B1228A37404121CF98A56
:10522800088B09A808A909C3EE98EF995006E82E3B
:10523800F8E93FF9E890600EF0E9A3F0EEA3F0EF8B
:10524800A3F090600D74C1F07F0C021E25C082C0CF
:10525800839006C71252759006DB024E8CC082C03E
:10526800839006DE1252759006ED024E8C1252891A
:1052780012527FF0A3F0222406F582E438F583E485
:1052880022E0F8A3E0C82202011F74F6121D53128F
:10529800542C6004780480027800E8240EF8ECC3EB
:1052A8009850030253607C0C9006F9E4F0EA2476E7
:1052B800F582E43BF583E09006FAF0EA247712538E
:1052C800659006FB12536F9006FCF0EA247912539E
:1052D800659006FD12536F9006FEF0EA247B125388
:1052E800659006FF12536F900700F0EA247D125371
:1052F8006590070112536F900702F0EA2474F8E4EE
:105308003BF98A828B83A3A3A3A3A3E0FEA3E0FFB8
:1053180088828983E02EF0A3E03F125A09900703A0
:1053280012536F90070412545060177508F97509E5
:10533800067808121F667903120BD57402121CF93D
:105348007C10125696ECFE125423DEFB75E195791B
:1053580004120D3179018002790002568BF8E43B82
:10536800F988828983E022125A0EA3E02274F61289
:105378001D5312542C6004780480027800E8240A33
:10538800F8ECC398500302541E7E089006F9740185
:10539800F07CBD7D0678FA79067F0512543AA8821A
:1053A800A983DFF7EA2480FCE43BFD8A828B83A390
:1053B800A3A3A3A3E0F508A3E0F5098C828D83E0FD
:1053C8002508F0A3E03509F012543A08A9838C8225
:1053D8008D83E08882898312545060197508F975A5
:1053E80009067808121F667C087903120BD5740227
:1053F800121CF97E0C74012EF5D975D9037582F942
:10540800758306EEFF125423DFFB75E195790412CC
:105418000D3179018002790002568B12542722E05F
:10542800F5D9A3229061D0E0F87480C398FC125497
:10543800552212543E228C828D83E0888289831201
:10544800624E88828983A322F012545522EA24826C
:10545800F582E43BF583E02274F7121D53EAFEEB74
:10546800FF9061D0E0706875D91875D90375D903B4
:10547800EE249B1255021254FB7003E9658370F603
:10548800EE24A31254F024A41254F02493125502CB
:105498001254FB7003E9658370F6EE24871254DC1E
:1054A8001254FB7003E9658370F675E1957908EE8F
:1054B8002493FAE43FFB120B757904EE2487FAE48F
:1054C8003FFB120B757904120D31125610800279C8
:1054D800000258C41254E72404F8E43583F922F58D
:1054E80082E43FF583E58222F582E43FF583E0F527
:1054F800D9EE22125427E86582221254E72408F8CC
:10550800E43583F92274F6121D53EAFEEBFF900688
:10551800F974061255B9121F667C017903120BD56E
:105528007402121CF975D90675D9037582F9758349
:10553800061255B17004E583640670F575E195901F
:105548000369E064087010EE246FF582E43F125599
:1055580064EE247112601F790102568BF583126282
:105568001D2274F6121D53EAFEEBFF9061D0E07025
:10557800339006F9740A1255B9121F667C01790333
:10558800120BD57402121CF975D90675D9037582E8
:10559800F97583061255B17004E583640670F51237
:1055A800560D8002790002568B125427E58264FE5C
:1055B80022F07508F975090678082274F6121D5349
:1055C800EAFEEBFF9061D0E0703678019006F9743E
:1055D8000BF0900369E0640770197508F9750906FE
:1055E8007808121F667C017903120BD57402121C0D
:1055F800F97805125858125423DAFB12560D800216
:10560800790002568B75E195EE246F126217EE242D
:1056180071F582E43FF583E8F0A3E9F0790122749B
:10562800F6121D531257596004780480027800E876
:10563800240BF8EAC39840447C099006F9740812D0
:1056480056A51256B4DDFB12608D601B7508F975FE
:1056580009067808121F667903EEFAEFFB120BD5DC
:105668007402121CF97C0D12569012575170FB757A
:10567800E1957904120D31125610800279008003E9
:10568800121CF97F02021E251256968C08227401FC
:105698002CF5D975D9037582F975830622F0EE24A5
:1056A800E4F8E43FF97AFA7B067D08228882898348
:1056B800E08A828B83125A0EA3A882A9838A828BDE
:1056C80083A3AA82AB832274F6121D531257596022
:1056D80004780480027800E82408F8EAC398406453
:1056E80078069006F9740CF0900386E09006FAF0BC
:1056F800900387E09006FBF0900388E09006FCF0AA
:10570800900389E09006FDF090038AE09006FE126F
:1057180057E8601B7508F97509067808121F667C3A
:10572800067903EEFA120BD57402121CF9780A12E4
:1057380057E212575170FB75E1957904120D311239
:1057480056108002790002568B1254271508E50876
:1057580022EAFEEBFF9061D0E0F87480C398FA1259
:1057680057ED2274F6121D531257596004780480BD
:10577800027800E82404F8EAC398405978029006B1
:10578800F9E8F0EE24F61260909006FA1257E860F5
:105798001B7508F97509067808121F667C027903DB
:1057A800EEFA120BD57402121CF978061257E2129F
:1057B800575170FB75E195EE24731259FAEE247F68
:1057C8001259FA1259F7A3F07904120D31EE240D8B
:1057D8001256138002790002568B12585E880822EE
:1057E800F01257ED22EE2482F582E43FF583E022A1
:1057F80074F6121D5312542C600478048002780049
:10580800E82404F8ECC398404278029006F974073B
:10581800F0EA24F7F582E43BF583E09006FA1254A7
:105828005060197508F97509067808121F667C0218
:105838007903120BD57402121CF978061258581203
:105848005423DAFB75E19579018002790002568BC1
:1058580012585EE8FA22740128F5D975D9037582C1
:10586800F97583062274F7121D53E9FFA2AFE433DA
:10587800FEC2AF7C0080010C1259155010ECF8EAFA
:1058880028F8E43BF9125F7B6F70EC8016EA246E0F
:10589800F8E43BF9E0FCEA2CFAE43BFB1258B2EFDF
:1058A800125A03EEA2E092AF8012EA246AF582E46B
:1058B8003BF58322F0EEA2E092AF79007F01021E51
:1058C80025C082C083A2AFE433FDC2AF12591D14B4
:1058D800F07C00801DECF8EA28F8E43BF9E8246B3A
:1058E800125F7EC0E0E8246AF582E439F583D0E0EF
:1058F800F00C12591540DEEA246DF582E43BF5837D
:1059080074FF125942EDA2E092AF024E9112591D56
:10591800F8ECC39822EA246EF582E43BF583E02292
:10592800C082C083A8A8C2AF1258B2E9125942E88F
:10593800A2E7E433FAE8A2E780CEF0EA2469F58228
:10594800E43BF583E4F02274F3121D53EAFEEBFF07
:10595800ECFAEDFB8A828B83A3A3A3A3E0541FF088
:10596800EE24361259FA750A00EE245DFCE43FFD78
:105978008A828B83E08C828D83F0750B00E50A3375
:10598800333354F8F50C8A828B83E0F508750900E7
:10599800E50B7808121CB1E508A2E05027EE243682
:1059A800F8E43FF988828983E0F508EE2508F508D0
:1059B800E43FF509E5082438F582E43509F583E57F
:1059C8000C125A03050B050CE50BC3940840B705E8
:1059D8000A8A828B83A3AA82AB838C828D83A3AC31
:1059E80082AD83E50AC3940540867F05021E25EE35
:1059F800241DF582E43FF583E4F022125A0904F0ED
:105A080022125A0EE022F0888289832274F7121D2E
:105A180053900395E064037003025BAC7C007582CD
:105A28009B758303E06003025B96ECF875F00CA4A9
:105A3800C8AAF02AF9749928FA740339FB8A828B68
:105A480083A3A37401125BCEE4F0EC8A828B83A358
:105A5800A3A3A3F01261987401F0EA2467F582E425
:105A68003BF5837401125BC8E4F0A3125BC8A3A3DF
:105A7800125BDE240FF582E43BF5837401F0EA241F
:105A880035125BB32418125BE3241C125BB3241D8C
:105A9800125BD7247F125BB32473125BB32468F5BF
:105AA80082E43BF5837480125942EA246E125BB398
:105AB80024EC125BB324ED125BB324EE125BB32427
:105AC800EF125BB324F0125BD724F2125BD724F5F4
:105AD800125BB32482125BB324D2125BB324D312B9
:105AE8005BB324D4125BE324D8125BE324DE125B9D
:105AF800B324E0125BB324DC125BB324E1125BB382
:105B080024E2125BB324F8125BD724FA125BD72481
:105B1800FC125BD724FE125BD7240B125BBD240555
:105B2800125BBD2406125BBD2407125BBD2408125C
