:020000040000FA
:060000000201070226FDCB
:03002B0002296641
:03003B0002298710
:030043000229236C
:030053000227730E
:03007B000229490E
:10008300022553E5C754F84401F5C779012200005E
:100093000080FB120086B900030200F1E4792378A3
:1000A30002B800028004F709D8FCE479257802B885
:1000B30000028004F709D8FCE490028178D3791A0E
:1000C3008002F0A3D8FCD9FA7A537B1C90013778CD
:1000D300E579018015E493A3AD82AE838A828B8395
:1000E300F0A3AA82AB838D828E83D8E9D9E7758288
:1000F300D17583EB740312011975829175830074B2
:100103000012011975D00075813F75218175220296
:10011300759F00020096C09FF59FE473D09F22D085
:1001230083D082C09FE493C0E0740193C0E0740263
:1001330093F59F22AD03B903EF03E903FF0000B476
:10014300000028002800283075A000A000A000A00F
:100153000000080008E001F000100010001000107B
:10016300001000100050005000500010001000D08C
:10017300070000000000000F0001000500307507B4
:10018300001000010081FF00000000FFFFFF0202DA
:1001930002508E010000478E02568E010000AD1CF6
:1001A300025A8E010000B80202568E010000AE1CF6
:1001B300025C8E010000CE02FFFF0100FF2002500F
:1001C3008E010000448E02568E010000DC1C025E8C
:1001D3008E000000000002588E030000FA02170090
:1001E300E10BE10BE10BE10BE10BE10BE10BE10BAC
:1001F300E10BE10BE10BE10BE10BC10DDF0DBB0DDE
:10020300FFFFFFFFFFFF01E803057710020A02016A
:100213000101FEFF0104FF00120122CAD8031201EB
:1002230022DDD803120122FED80312012269D90369
:10023300120122AAD903120122CBD9031201220CE3
:10024300DA03120122A4DA03120122ECDA03120107
:10025300220CC7031201221FC70312012250C70336
:100263001201228AC703120122E3C7031201222AC1
:10027300C80312012272C803120122A1C80312018A
:1002830022D0C80312012207C9031201224EC90357
:1002930012012267C903120122BCC903120122EA17
:1002A300C90312012224CA03120122DBB60212017E
:1002B30022DEB7021201220BB8021201225CB8023D
:1002C3001201227FB80212012291B8021201229474
:1002D300B802120122D2B80212012246B902120157
:1002E30022B2B9021201227ABA0212012296BA028A
:1002F300120122CDBA0212012207BB021201229E71
:10030300BB02120122F0BB0212012221BC02120124
:100313002252BC021201225FBC02120122C9BC029A
:10032300120122CCBC02120122D9BC02120122DC2E
:10033300BC0212012233BD0212012236BD02120198
:10034300226FBD0212012272BD02120122A6BD025A
:10035300120122A9BD02120122FDBD021201224691
:10036300BE0212012256BE0212012289BE021201EE
:100373002296BE0212012299BE0212012201BF027D
:1003830012012203C002120122A7C002120122108D
:10039300C1021201224EC1021201221DDF0212010B
:1003A3002215E00212012249E002120122DFE002DB
:1003B3001201222AE1021201228EE1021201221805
:1003C300E202120122D1E202120122F3E50212013A
:1003D3002270E70212012293E702120122BEAB034D
:1003E30012012263AD0312012283AD03120122A481
:1003F300AE03120122F7AE0312012222B40312014B
:10040300224AB40312012277B403120122AFB403C8
:100413001201220DB50312012259B503120122C0A4
:10042300B50312012200B6031201223DB6031201E5
:10043300226BB60312012215B7031201221FB70361
:100443001201222CB7031201225FB7031201226BA0
:10045300B70312012283B7031201228DB7031201DE
:100463002259E60312012267E6031201227FE60303
:1004730012012297E603120122AEE60312012200C3
:100483008002120122AA8002120122268102120195
:10049300224482021201228082021201221B830261
:1004A300120122FF8302120122C284021201223AA4
:1004B3008502120122C88602120122398702120123
:1004C30022F38702120122E5880212012225890202
:1004D300120122D989021201220B8A02120122017E
:1004E3008C02120122438C02120122618C0212013E
:1004F30022E68C02120122AA8D02120122C98F0266
:1005030012012208BC031201221EBC031201223C69
:10051300BC031201224DBD0312012257BD03120178
:100523002282BE0312012279BF03120122E6BF0316
:10053300120122249E03120122C89E03120122FFEC
:100543009E03120122499F0312012208A1031201F3
:100553002270A40112012221A5011201223DA5014D
:1005630012012206A60112012220A6011201222B4A
:10057300A60112012201A701120122DEA701120125
:10058300226EA80112012225A90112012233AC0116
:1005930012012222AE01120122D4AE011201229DC8
:1005A300AF01120122E2B2011201228CB301120146
:1005B30022B5B40112012271B60112012211B70151
:1005C3001201225FB7011201229EB70112012271AB
:1005D300B801120122A5B80112012232B901120198
:1005E30022B1CF011201223DD001120122A1D1017A
:1005F300120122ADD101120122E8D10112012257C9
:10060300D20112012260D30112012269D401120125
:100613002230D5011201228DD601120122ABD6015F
:10062300120122C8D60112012293D701120122BB63
:10063300D70112012285DA011201228ADA0112019D
:1006430022A3DC01120122F1DC0112012261DD018E
:100653001201229FDD011201227BDE011201223BE6
:10066300DF0112012287DF011201228ADF01120159
:1006730022CEDF0112012216E00112012255E00110
:1006830012012277E001120122ABE0011201220ED6
:10069300E101120122B48F03120122BD8F03120163
:1006A30022CB8F031201221E90031201223D9003DD
:1006B300120122829003120122C6910312012261C8
:1006C3009203120122A59203120122CF9203120177
:1006D300223E9303120122849303120122FB93030C
:1006E300120122AC9403120122002A0012012210EB
:1006F3002A00120122B12A001201220D2B0012013D
:1007030022CA2B00120122E62C00120122182D000E
:10071300120122472D00120122F42E001201226B36
:100723003100120122DB3300120122CD3400120109
:1007330022C63500120122CD3700120122C13A0030
:10074300120122F03B00120122F43D0012012204A7
:100753003F00120122934000120122844100120142
:1007630022D24100120122414200120122654200BD
:10077300120122B6420012012257470012012258E9
:100783004800120122B94800120122E44800120174
:1007930022AA49001201221BB80312012225B80321
:1007A3001201226AB8031201227EB8031201220E3B
:1007B300B90312012236B90312012271B9031201DE
:1007C300229AB903120122CEB903120122E3B9031B
:1007D3001201224EBA031201226FBA0312012283BD
:1007E300BA0312012298BA03120122D2BA031201E8
:1007F3002237BB031201227ABB03120122A4BB03DB
:10080300120122E0BB03120122C57E00120122EB7A
:10081300AB02120122CEAC0212012249AD02120137
:100823002284AD02120122D5AE021201225EAF0272
:1008330012012276B10212012208B402120122BA75
:10084300B402120122D9B50212012232B6021201F8
:1008530022918A03120122D48A03120122588B03A4
:100863001201222B8C03120122028F03120122BBDD
:10087300D30312012268D40312012275D503120196
:1008830022B4D5031201220ED603120122D9DE03AC
:100893001201223CDF03120122D9DF0312012207D6
:1008A300E00312012228E00312012263E003120194
:1008B3002283E003120122BE94031201224A95030C
:1008C3001201220996031201222197031201223BEE
:1008D3009903120122CCCB02120122F1CB021201A5
:1008E30022C5CC0212012232CD0212012288CD028E
:1008F30012012224CE0212012258CF021201223306
:10090300D00212012292D00212012263D1021201FB
:1009130022EFD102120122F2D1021201223CD202B1
:10092300120122AED20212012259D30212012279FC
:10093300D302120122C1D302120122DDD30212011A
:100943002257D40212012265D402120122F4D402E6
:100953001201225DD502120122BFA2031201224419
:10096300A30312012286A3031201226AA403120124
:1009730022D7A4031201221BA5031201225FA503A0
:100983001201228CA503120122B4A503120122EC49
:10099300A5031201222AA60312012251A603120162
:1009A30022CBA60312012215A7031201225D6200C6
:1009B3001201222A64001201221866001201226C1D
:1009C3006600120122976600120122456700120198
:1009D30022756700120122A46700120122B7670083
:1009E300120122F867001201222468001201227208
:1009F3006800120122A96800120122F568001201A1
:100A030022546900120122E76900120122D16A000F
:100A1300120122C06B001201226B6D001201228AA7
:100A23007200120122E37200120122CC740012013F
:100A3300229B76001201221D77001201226B78009F
:100A43001201227C780012012259D603120122449A
:100A5300D70312012287D703120122D6D70312012B
:100A63002227D80312012278D803120122164A0042
:100A7300120122974A00120122C44A001201220DD8
:100A83004B001201220E4C001201225D4C00120198
:100A930022D94D001201225B4E00120122B84E00F2
:100AA3001201220B4F00120122FA4F001201228F72
:100AB30051001201225952001201226952001201FF
:100AC30022935200120122965200120122795300FE
:100AD3001201226454001201221155001201226EE8
:100AE3005500120122C755001201222B5600120194
:100AF30022D356001201226F5700120122FC570025
:100B0300120122715800120122CD58001201222C29
:100B13005900120122535900120122185A001201DE
:100B230022045C001201224D5C001201227D5C0054
:100B3300120122F05C00120122765E0012012226CD
:100B43005F001201224B5F001201228A5F00120133
:100B5300229F5F00120122E25F0012012252600015
:100B63001201229C6000120122A6610012012227B9
:100B7300620012012280D502120122CBD50212019A
:100B830022D7D502120122ABD602120122C2D6020B
:100B9300120122FFD60212012230D702120122686B
:100BA300D702120122BED702120122D4D7021201A8
:100BB3002210D80212012223D8021201224AD8029B
:100BC3001201227ED802120122A4D902120122EEBE
:100BD300DA02120122EADB0212012200DD02120113
:100BE30022F52900120122648503120122128903CE
:100BF300120122468A03120122D6F2011201228F28
:100C0300F50112012295F50112012246F8011201A4
:100C130022A0FA01120122729903120122099A03F6
:100C2300120122C79A03120122F19A031201222709
:100C33009D03120122618E011201229C8E01120179
:100C430022F098011201225C9A01120122599B01A0
:100C5300120122DE9E01120122D39F011201221FE3
:100C6300A00112012239A0011201227AA00112016E
:100C73002283A00112012235A10112012205A20142
:100C83001201224CA201120122B2A201120122245A
:100C9300A301120122BACD0312012297CE0312013E
:100CA30022DBCE0312012215CF03120122ADCF03A3
:100CB3001201221CD00312012225D003120122317A
:100CC300D0031201224BD00312012275D00312016B
:100CD30022A5D0031201229F7800120122AC7800D2
:100CE300120122C67800120122F97800120122377C
:100CF30079001201229C7900120122B179001201BC
:100D030022C87900120122D67900120122E5790066
:100D1300120122FA79001201220F7A001201221A1B
:100D23007A00120122267A00120122337A0012017C
:100D330022427A001201224D7A00120122727A00B5
:100D4300120122167B001201222B7B00120122408A
:100D53007B001201225A7B00120122777B001201D1
:100D630022947B001201229F7B001201224B7C0004
:100D73001201222C7D00120122517D001201225CFE
:100D83007D00120122717D00120122857D00120176
:100D930022E67D00120122EC7D00120122F27D0089
:100DA300120122F87D00120122107E00120122435B
:100DB3007E0012012274C10212012296C1021201A5
:100DC300225EC20212012218C5021201222EC6029D
:100DD3001201224FC70212012229C802120122D88E
:100DE300C802120122689E02120122FF9E02120112
:100DF30022979F0212012287A002120122BEA002A3
:100E0300120122D1A0021201223FA102120122DA11
:100E1300A20212012201A302120122A3A3021201C0
:100E230022D8A302120122E9A30212012262A40220
:100E330012012283A4021201229BA402120122F3B3
:100E4300A502120122FCA7021201224CAA021201DE
:100E5300224FAB021201229EAB02120122D68F0255
:100E6300120122D39002120122BE9102120122C862
:100E73009102120122EA9102120122F69102120159
:100E830022489302120122779302120122A79402AD
:100E9300120122E99402120122159602120122EB99
:100EA30096021201223D97021201229C970212011F
:100EB30022D397021201220E9802120122A99B0249
:100EC300120122C29B02120122449C0212012252ED
:100ED3009C02120122A79C02120122B59C0212015C
:100EE30022229D02120122949D02120122DA9D0206
:100EF30012012291E003120122B6E003120122271C
:100F0300E103120122E6F002120122EFF0021201C4
:100F130022F8F00212012229F20212012248F402FD
:100F23001201227EF402120122B8F402120122EE0F
:100F3300F40212012228F5021201225CF5021201C9
:100F43002288F502120122D1F5021201220BF602C8
:100F530012012253F602120122A9F602120122DE25
:100F6300F60212012239F70212012273F70212016B
:100F730022C4F702120122FAF70212012234F80204
:100F830012012257F802120122B5E803120122E1ED
:100F9300E8031201223CE90312012246E90312018C
:100FA3002256E9031201220080031201220A800360
:100FB300120122488003120122918003120122CBE5
:100FC30080031201222581031201224681031201AB
:100FD300224F8103120122A08103120122C981033E
:100FE300120122DE81031201224F8203120122DD4C
:100FF30082031201221A83031201224A830312017C
:1010030022CE83031201220E84031201224684039B
:1010130012012258840312012277840312012280D1
:1010230084031201223A85031201228EFE02120169
:1010330022D3D00312012217D1031201224DD1036F
:1010430012012235D3031201228FD30312012298F6
:10105300D303120122A1D30312012288FF0212013A
:10106300229EFF02120122A8FF0212012204B003F2
:101073001201221DB003120122C1B0031201220189
:10108300B1031201221AB1031201224EB10312015C
:10109300229BB103120122CFB10312012211B20329
:1010A30012012215B40312012215EB031201224788
:1010B300E20312012285E203120122AAE2031201D2
:1010C30022C1E203120122DDE203120122F4E20350
:1010D3001201220BE30312012244E30312012278DB
:1010E300E303120122AFE30312012217DB03120110
:1010F3002233DB03120122B0DB03120122CCDB0318
:101103001201222FDC03120122D0DC03120122E59B
:10111300F80212012224F902120122ADF90212018E
:1011230022C2F9021201220DFA021201224CFA0222
:101133001201225BFA0212012210FB021201226940
:10114300FB02120122B8FB021201220BFC02120164
:101153002220FD0212012219FE0212012256FE0272
:1011630012012274EB0312012228BA011201229EFA
:10117300BC0112012216BE0112012277BE01120127
:101183002216BF0112012208C0011201228DC001E3
:1011930012012209C1011201222EC101120122F7FB
:1011A300C3011201226BC40112012257C5011201AE
:1011B3002291C501120122D1C5011201228BC7015F
:1011C300120122BCC7011201220FC80112012258C9
:1011D300C801120122C6C801120122F8C801120176
:1011E3002210C90112012225CA0112012235CA01A6
:1011F3001201229ACB01120122BACB01120122F071
:10120300CB011201229DCD011201221DCE0112013B
:10121300225CCE0112012283CF01120122FDDC03E5
:101223001201225ADD031201221DDE031201223CA8
:10123300DE0312012292DE0312012260E90312018E
:101243002270E90312012224EC0312012263EC034E
:101253001201228EEA03120122B9EA03120122C308
:10126300EA03120122FBEA03120122EBFF0112013E
:10127300226AE5031201227AE5031201229BE503A8
:101283001201224FE603120122BBFE01120122408A
:10129300FF01120122A6FF011201223EE703120100
:1012A300225FE70312012272E70312012284E7039C
:1012B300120122B1E703120122C2E70312012255F0
:1012C300A70312012269A703120122E2A703120155
:1012D30022BBA80312012279AB031201228CCA0399
:1012E300120122A5CA03120122C0CA03120122D18C
:1012F300CA03120122E2CA031201223ACB031201EA
:1013030022A7CB03120122FACB0312012229CC0319
:1013130012012250CC031201226FCC03120122F6D8
:10132300CC0312012213CD031201222DCD0312018E
:101333002246CD0312012255CD0312012280CD0393
:1013430012012296CD03120122FBE703120122159B
:10135300E8031201222FE8031201228EE80312018F
:1013630022F0BF0312012280C003120122FEC00338
:1013730012012287C10312012235C203120122BFC7
:10138300C203120122D0C203120122DFC2031201DF
:1013930022F5C20312012208C30312012268C30308
:1013A3001201227CC303120122E6E101120122751C
:1013B300E301120122E0E401120122A8E601120175
:1013C300224EE7011201222AE80112012219E90142
:1013D30012012221EA011201229AEA01120122C713
:1013E300EA01120122E2EA0112012273EB01120166
:1013F30022AFEB01120122C9EB01120122D9EE0146
:1014030012012211EF0112012214EF0112012261D4
:10141300F201120122FDE90312012268EA0312011B
:101423002273EA0312012283EA03120122E3E30394
:1014330012012238E403120122A6E4031201221648
:10144300E5031201227FC303120122A9C303120180
:1014530022A3C403120122C8C4031201225FC503DD
:10146300120122E1C503120122B6E802120122731E
:10147300E902120122AEE902120122D6E9021201A7
:101483002238EA0212012284EA02120122DDEA0270
:101493001201226EEB0212012270EC021201222DC4
:1014A300EE02120122AFEE0212012214EF02120128
:1014B300222BEF021201223BF00212012279F002E9
:1014C300120122BFFF01120122D97F00E0667010D2
:1014D30008A3E066700A08A3E066700408A3E06648
:1014E30022C3E7960809E7960809E7960809E796ED
:1014F30022C3E09608A3E09608A3E09608A3E0962B
:1015030022C008C3E096F50808A3E096420808A3A2
:10151300E096420808A3E09645087001D3D008225C
:10152300E9799EC608CAC608CBC608CCC6C37020D4
:101533007996CACBCC7019798ECBCC70137986CCC3
:10154300700EF9802ACA33CACB33CBCC33CC3319D0
:1015530030E7F2CCCBCA3350147004EA30E00DE428
:10156300CA3ACACB3BCBCC3CCC500209C3E913C625
:10157300CC182313C6CB18C6CA18C6F9221215C035
:1015830020F01430E72B74FFFCFBFA747F8022E415
:10159300FCFBFA7480801AB48008BC00F2BB00EF35
:1015A300800F50EBF9E4C39AFAE49BFBE49CFCE460
:1015B30099C6CC18C6CB18C6CA18C6F922E4C9C640
:1015C30008CAC608CBC6D3330308CCC63392F0C3CC
:1015D300947F402E94184019C9B90704CACBCC2272
:1015E3005025C309CA33CACB33CBCC33CC33D9F45C
:1015F30022F4600DC9CCC313CB13CBCA13CAD9F6DB
:10160300CC22E4FCFBFA2214FCFBFA22E626184661
:101613001846184622E72719471947194722181869
:1016230018E60846087009E626087005E633F42232
:101633000822191919E70947097009E727097005ED
:10164300E733F4220922E6084608C3134608336049
:1016530002E633F422E7094709C31347093360025B
:10166300E733F42200121649604F1216586012E74E
:10167300548066F61216217011121618703B090970
:1016830009F4F618F618F618F62212163570151224
:10169300160F08080860EAE6447FF618768018E417
:1016A300F618F62212160F60161216187012E4F6C8
:1016B30008F608F608E65480F609090918181822EE
:1016C300EAC0E0EBC0E0ECC0E0EDC0E0E687F0A4E8
:1016D300FBACF008E687F0A42CFCE435F0FA18091B
:1016E300E687F0A42C4B60027401CA35F0FCE433A6
:1016F300FB09E687F0D2F7A42CCB35F0FC1908E6FA
:1017030087F0A42BCC35F0FBE433FD0819E687F012
:10171300D2E7A42C4ACB35F0CD3400FC09E687F0A0
:10172300D2E7A42DCC35F0FDE433FA0918E687F0AF
:10173300D2F7A42CCD35F0CA3400FC08E687F0D2EA
:10174300E7D2F7A42ACC35F07A7E20E70B0ACB3315
:10175300CBCD33CDCC33CC33CB3350147004ED30FD
:10176300E00ED2F1E4CD3DCDCC3CCC3B5005DA05C7
:10177300C2F1EB547FC63308E63392F0FBE733093B
:10178300E733C39A502D2B70190C0D4C4D7015185F
:1017930006E608C333700D20F10AA2F013F6E4182D
:1017A300800B4024E4F630F002768018F618F61821
:1017B300F68024D33B14501074FFA2F013F618766E
:1017C30080E418F618F6800FA2F013F618E6330338
:1017D300F618ECF618EDF6D0E0FDD0E0FCD0E0FB17
:1017E300D0E0FA221216497004181818221216585B
:1017F300700D74FFF61819F61819F61819F622E782
:10180300548066F612160F700F12161870F014F645
:1018130008F608F608F680D1121618700CF608F6CA
:1018230008768008E6447F80EC121638700C121696
:101833002460BFE65480F6E480BB121624700519B9
:10184300191980A5E869700C763F18768018F61888
:10185300F6E8F922E6CDC0E018ECC0E0E633CD337C
:10186300CDD313F6E719FCE7191933CC33C3947FAF
:10187300400ECD9D502408E65480F6E418F6800F00
:10188300F4043D14501408E6447FF6187680E418F7
:10189300F618F6D0E0FCD0E0FD22CCD313CCFD1833
:1018A300E4C6CBC0E018E4C6CAC0E00808ED08C629
:1018B30033E613F618E433C675F003C3CA97CA09AF
:1018C300CB97CB199C40047D08802EBD00030219E1
:1018D3009016B6FF050606081618C3CA33CACB33DB
:1018E300CB33CA27CA09CB37CB193CC37D08803E0B
:1018F300187D0820E75CC633C6CA33CACB33CB3363
:10190300DDF1D5F0EB30E77BCA97CA09CB974ACB19
:10191300199C406F4B7025E620E0218066187D08F6
:10192300C3CA97CA09CB97CB199CD3C633C6CA334C
:10193300CACB33CB3350C9DDE7D5F0E1D3E4C636A8
:10194300C608C636C608C636C608C636C618181828
:101953008031C3CA97CA09CB97CB199CB34097C6AA
:1019630033C6CA33CACB33CB33DD34D5F02EC6A24C
:10197300E0C640C8CA27CA09CB37194A70BECB3C58
:10198300B480B90808E63308E633601F181818D086
:10199300E0FAD0E0FBD0E0FCD0E0FD22187D08CADD
:1019A30027CA09CB37CB193CD3808013F618E4B68A
:1019B3007F11F618B6FF0EF618C60470D208087623
:1019C3008080CAF618F618F680C5080808EAC0E051
:1019D300EBC0E086F0E7A4FA180986F0E7A42AFA38
:1019E300180986F0E7A42AFA180986F0E7A42AFA68
:1019F3001986F0E7A4FBE5F02AFA190886F0E7A4B4
:101A03002BFBE5F03AFA190886F0E7A42BFBE5F087
:101A13003AFA18180986F0E7A4C5F02BFBE43AFA62
:101A23001908E7C5F0C6A426F6E5F03BFBE43AFA4D
:101A33001886F0E7A4F6E5F00826F6E43B08F6E49A
:101A43003A08F6D0E0FBD0E0FA22E4CFC0E0E4CEDF
:101A5300C0E0E4CDC0E0E4CCC0E075F020E626F6BB
:101A630008E633F608E633F608E633F6181818ECFA
:101A730033FCED33FDEE33FEEF33FFC3EC9709ED9B
:101A83009709EE9709EF97191919400FFFEC97FC87
:101A930009ED97FD09EE97FE191906D5F0BFECF78E
:101AA30009EDF709EEF709EFF7191919D0E0FCD0A2
:101AB300E0FDD0E0FED0E0FF226016080808C6C3B0
:101AC30013C618C613C618C613C618C613C6D5E060
:101AD300EA227009080808226016181818C6C333CA
:101AE300C608C633C608C633C608C633C6D5E0EA39
:101AF30022E627F60809E637F60809E637F6080965
:101B0300E637F622E026F608A3E036F608A3E03629
:101B1300F608A3E036F622E026F008A3E036F00844
:101B2300A3E036F008A3E036F022C3E697F60809EF
:101B3300E697F60809E697F60809E697F622C3E062
:101B430096F008A3E096F008A3E096F008A3E096C9
:101B5300F022E657F60809E657F60809E657F608AD
:101B630009E657F622E056F608A3E056F608A3E086
:101B730056F608A3E056F622E056F008A3E056F026
:101B830008A3E056F008A3E056F022E066F608A3A7
:101B9300E066F608A3E066F608A3E066F622E0F640
:101BA30008A3E0F608A3E0F608A3E0F622E6F008AF
:101BB300A3E6F008A3E6F008A3E6F022E0FAA3E028
:101BC300FBA3E0FCA3E0FD22EAF0A3EBF0A3ECF01F
:101BD300A3EDF022E0F8A3E0F9A3E0FAA3E0FB22EF
:101BE300E8F0A3E9F0A3EAF0A3EBF022CAC0E0E631
:101BF300F0A308DAFAD0E0FA22CAC0E0E0A3C58273
:101C0300CCC582C583CDC583F0A3C582CCC582C5AF
:101C130083CDC583DAE6D0E0CA22C3E498F8E49919
:101C2300F9121C5E8026C3E49AFAE49BFBE920E7E1
:101C3300E9121C5EE498F8E499F922C3E498F8E405
:101C430099F9121C5EE498F8E499F9C3E49AFAE46A
:101C53009BFB22EB20E7CFE920E7E0B90010BB00B4
:101C630008E88AF084F8AAF022E4FBC8FA22EB70B1
:101C7300227B10C833C8C933C9335007C39AC3DBA7
:101C8300F280069A50012ADBEAC833F4C8C933F458
:101C9300C9FA2275F008E4C833C8C933C933C99AED
:101CA300C99B5004C92AC93BD5F0ECFBC833F4C81F
:101CB300E4C9FA22600D08C6A2E713C618C613C604
:101CC300D5E0F322600C08C6C313C618C613C6D5E5
:101CD300E0F422700422600D18C6C333C608C6336D
:101CE300C6D5E0F41822252110AF08F521400C15C4
:101CF300228008F52140021522D2AF2200C0D02550
:101D03002110AF08F521500C05228008F52150025F
:101D13000522D2AFD0D0222521F58210AF08F521BC
:101D2300400C15228008F52140021522D2AF8522EE
:101D330083222521F582E43522F583222521F8E447
:101D43003522F9222521FAE43522FB222521FCE460
:101D53003522FD22E4732521C582C0E0E52234FF4C
:101D6300C583C0E0E521C3958224F810AF088583BD
:101D7300228582218008858322858221D2AFCEF0FD
:101D8300A3E520F0A37808E608F0A3DEFAEFF0A3BA
:101D9300E58124FAF8E608F0A3E608F0A3E608F0E4
:101DA300A30808E608F0A3E608F0A315811581D07F
:101DB300E0FED0E0F8158115811581E8C0E0EEC0A2
:101DC300E0222521C582C0E0E52234FFC583C0E0BF
:101DD300E521C3958224F910AF08858322858221EA
:101DE3008008858322858221D2AFCEF0A3E520F03F
:101DF300A37808E608F0A3DEFAEFF0A3E58124FB5D
:101E0300F8E608F0A3E608F0A30808E608F0A3E65E
:101E130008F0A315811581D0E0FED0E0F8158115F7
:101E230081E8C0E0EEC0E022852283852182E0A321
:101E3300FEE0A3F5207808E0A3F608DFFAE0A3FFAD
:101E4300E0A3C0E0E0A3C0E0E0A3C0E0E0A3C0E003
:101E5300E0A3C0E010AF0885822185832280088536
:101E63008221858322D2AFD083D08202011F8522B3
:101E730083852182E0A3FEE0A3F5207808E0A3F6A2
:101E830008DFFAE0A3FFE0A3C0E0E0A3C0E0E0A323
:101E9300C0E0E0A3C0E010AF0885822185832280E3
:101EA30008858221858322D2AFD083D08222C0D0FD
:101EB3002521C582C0E0E52234FFC583C0E0E521CA
:101EC300C3958224F310AF0885832285822180087D
:101ED300858322858221D2AFC8F0A3E9F0A3EAF07B
:101EE300A3EBF0A37908E709F0A3D8FAECF0A3ED8C
:101EF300F0A3EEF0A3EFF0A3D0E0F0A3D0E0F0A3C3
:101F0300D0E0F0A3E520F0A3E5F0F0A3228522833F
:101F1300852182E0C0E0A3E0F9A3E0FAA3E0FBA3FC
:101F23007808E0F608A3DFFAE0FCA3E0FDA3E0FEF7
:101F3300A3E0FFA3E0C0E0A3E0C0E0A3E0F5D0A3EB
:101F4300E0F520A3E0A3F5F010AF08858322858296
:101F5300218008858322858221D2AFD082D083D08D
:101F6300E0F8D0E03274048006740280027401C089
:101F7300E0F404121D1AD0E0121BEF227404800453
:101F830074028000CCC0E0EDC0E0E521C39CCCAD81
:101F93002250011D10AF068C218D2280068C218DCD
:101FA30022D2AF121BFCD0E0FDD0E0FC22D083D0C4
:101FB30082E9C0E0E493A3C386F0C5F095F0F90885
:101FC300E493A386F0C5F095F0700BE493A3C39953
:101FD3004005E9048002A3E475F002A42582F5829A
:101FE300E5F03583F583D0E0F9E493A3C0E0E4930F
:101FF300C0E022D083D082ECC0E0EDC0E0E493A344
:10200300FCE493A3FDED4C600D122042EC24FFFC95
:10201300ED34FFFD80EFE493A3FCE493A3FDED4CCB
:10202300600D122081EC24FFFCED34FFFD80EFD026
:10203300E0FDD0E0FCE493A3C0E0E493C0E022C061
:10204300E0C3E49396087401939618400FE49366F3
:10205300700808740193661870007019A3A3C3E491
:102063009396087401939618A3A3400DD0E0D0E093
:10207300D0E0022032A3A3A3A3A3A3D0E022C0E015
:10208300C0F088F0E49366700808740193661870D2
:1020930000A8F0A3A3700BD0F0D0E0D0E0D0E00212
:1020A3002032A3A3D0F0D0E02274F6121DC5EAFEBD
:1020B300EBFF8C088D09EE2434F8E43FF9E8FCE9E2
:1020C300FDEE24351223A1FAEE24371223A1F8855D
:1020D30008F0A4C885F00A8509F0A4250AF9EA28BE
:1020E300F8E439F97A257B00121C5EEA8C828D8331
:1020F300F0FA131313541FF8EE28F8E43FF9E82419
:102103005DF582E439F583E0C0E074075AF8D0E066
:10211300B800028004C313D8FCA2E0EE50082434B4
:10212300F582E43F801824361223A1F5F0EA84A84F
:10213300F0EE28F8E43FF9E82438F582E439F58332
:10214300E0F97F03021E7174F7121DC5EAFEEBFF6F
:10215300EE24341223A1C0E0EE2435F582E43FF5EA
:1021630083D0E0F08E828F83A3A3A3A3A3A3A3C0F2
:1021730082C0838E828F83A3A3A3A3A3122212D030
:1021830083D082E0C398F508A3E099F509EE247F94
:102193001223A16401705DEE248012220C8E828FC3
:1021A30083A3A3A3A3A3A3A31225448E828F83A3F4
:1021B300A3A3A3A3E0FAA3E0FBC3EA9CEB9D501007
:1021C300C3EC98ED99402DC3EA98EB995026800E05
:1021D300C3EA98EB994007C3EC98ED9940167CBD90
:1021E3007D06EEFAEFFB120B15EE247FF582E43F3A
:1021F300F583E4F0AC08AD09EEFAEFFB1220ACE98D
:10220300F912290F7F02021E71F582E43FF583E084
:10221300F8A3E0F92274EF121DC5900369E0640886
:102223006005E06407702A9061C8E060249003971A
:10223300E0F4601DE0F875F00CA4C8AAF02AF97464
:102243009928FE740339FF8E828F83A3A3A3E070C2
:1022530003022326906060E0C0E0EE2468F582E488
:102263003FF583D0E0F0750CF9750D067508007520
:102273000900E5D914F50AE5D95403F50E60127483
:1022830003650E6043E50A600AEE24671223A1701A
:102293000280759006F4E06401601F12239E6004BF
:1022A3007A0480027A00E50AC39AFA95E0FB1209E0
:1022B300BF8A088B09EA45097005120D97806412DD
:1022C300239E70048A0C8B0DE50A6012850C8285AF
:1022D3000D83F50BE5D9F0A3150BE50B70F612236F
:1022E3009E604474FC250AF50A780C121F6CAC0A34
:1022F300A90EEEFAEFFB120BDB7402121CFFE9705E
:1023030026AA08AB09121433793D8E828F83A3A3C7
:10231300A3A3E0FA7B00120839EEFAEFFB120B39A4
:10232300120C3B7900806F7403650E6051850A10AF
:102333007511007810121F6CAC0CAD0DAA08AB0917
:10234300120B9F7402121CFFEE24681223A16480F7
:102353007004747F8001E0F50C780C121F70E50E99
:10236300F50C780C121F70A90AAC08AD09900397FD
:10237300E0FA7B001208097402121CFF8013900319
:1023830069E06408700BAC0CAD0DEEFAEFFB120CB8
:102393000B120DA379017F0A021E71EE2482F582CE
:1023A300E43FF583E02274F2121DC574FC121CE9AC
:1023B300EAFEEBFF8909A2AFE433F508C2AF0224BA
:1023C30065E0601B780C121F6CAC0BA90EEEFAEFE4
:1023D300FB120BD57402121CFF7404250BF50B744E
:1023E30001250BF5D9850ED9E50B6018F50A850C87
:1023F30082850D83E0F5D9A385820C85830D150AAB
:10240300E50A70EA75E195EE2463F8E43FF97A0092
:102413007B00A2AFE433F50BC2AF122540EC4D6055
:102423003288828983E0FAA3E0FB8A828B831225B8
:102433004488828983ECF0A3EDF08A828B83E4F0F5
:10244300A3F0122540EC4D700A88828983A3A3E48C
:10245300F0A3F0E50BA2E092AF1214339006C4E0B0
:1024630004F0EE246312220CE8496064EE24631244
:1024730023A12402F8A3E03400F988828983E5824A
:102483002402F50CE43583F50DE0F50BA3E0F50E1E
:10249300EE24621223A1640170369061D0E0F81239
:1024A300239E60047C0480027C007480C398FA95A8
:1024B300E0FBE50B2CF8E43400F9E82402F85001C2
:1024C30009C3EA98EB99A2D265D03340030223C42F
:1024D3009006C4E0604D9006C5E0F89006C4E0C3E2
:1024E30098500C74026509703A9006C6E060348E09
:1024F300828F83A3A3A3A3E0852182852283122550
:10250300367402121D35E81225369006C3E028F012
:102513007402121D4FAA21AB22790112086390069F
:10252300C4E4F0E508A2E092AF7404121CFF7F0735
:10253300021E71F0A3E4F09006C4E0F822888289B9
:1025430083E0FCA3E0FD2200008523878524C622C7
:10255300C0E074EB121EB1A2AFE433F508C2AF754D
:102563009B00906182E0A2E05030E591A2E0502A06
:102573007591FE7401652370211226E6120CCB12AD
:1025830026D4121F7F12284B7404121CFFE9640126
:1025930070057901120CFB122218906182E0A2E50A
:1025A300505DE591A2E550577591DF900369E064B2
:1025B300076005E06408702F1226E6740165237036
:1025C3003E120CCB1226D4121F7F12284B74041216
:1025D3001CFFE9640170057901120CFB7901EEFA25
:1025E300EFFB1223A98018E0640D701390038BE0B6
:1025F30004F064287002E4F07A00E0F9120DA99067
:102603006182E0A2E640030226A9E591A2E6400327
:102613000226A97591BF900369E064057008120C46
:10262300B3120CBF8003120CB9752300120D19E904
:1026330090036AF07900120CFB120A7F7A017B0087
:10264300900368E0F9121001907803E06442705639
:102653009006F8E014F0704EC2AF122660007826A0
:10266300D0E0F618D0E0F6E59F5407F87005750D35
:10267300FF8003750D7FC4C0E07825E6F50A08E600
:10268300550DF50B740B780A121CC7D0E0250AF818
:10269300906270E0A2E740F8E8C333906272F09072
:1026A3006270E0D2E0F0906181E0A2E35009E5E9D5
:1026B300A2E3500375E9F7A3E0A2E75009E591A26D
:1026C300E7500375917FE508A2E092AF7F08021FF0
:1026D300108E828F83E0F8A3E0C82416F582E438D5
:1026E300F58322900397E0F875F00CA4C8AAF02AAA
:1026F300F9749928FE740339FF22C0E0C0D0C08268
:10270300C083906183E0A2E05009E5BFA2E05003DB
:1027130075BFFEE0A2E15009E5BFA2E1500375BF1A
:10272300FDE0A2E25009E5BFA2E2500375BFFBE062
:10273300A2E35009E5BFA2E3500375BFF7E0A2E4AB
:102743005009E5BFA2E4500375BFEFE0A2E55009CD
:10275300E5BFA2E5500375BFDFE0A2E65009E5BF80
:10276300A2E6500375BFBFD083D082D0D0D0E03271
:10277300C0E074F2121EB1E5A7A2E6500FE5A1A2D4
:10278300E6500953A7BF75A1BF1227C7E5A7A2E566
:10279300500CE5A1A2E5500653A7DF75A1DFE5A71D
:1027A300A2E15009E5A1A2E1500375A1FDE5A7A2AD
:1027B300E2500CE5A1A2E2500653A7FB75A1FB7FF3
:1027C30001021F1074F7121DC5752301900369E000
:1027D30064067015120C5F8A828B83A3A3A3A3A341
:1027E300A3E0FAA3E0FB120CA1A2AFE433FED2AF45
:1027F30090036FE0640170187A207B00900368E017
:10280300F91210917A207B00900368E0F912100707
:10281300906182E0D2E6F09006F5E0602185C6245F
:10282300801690036EE064017008E5C654F8440511
:10283300F5C653BEFC12254C7401652360E4EEA279
:10284300E092AF7F02021E7174F1121DC58A088BDC
:10285300098C0A8D0B908E387808121B68740F123E
:102863001D35780C121BA1908E38780C121B6878DA
:1028730008790C1214E4908DF850107808790C1232
:102883001B2D78081215044014800E780C79081259
:102893001B2D780C12150450047901800279007FF6
:1028A30008021E7174ED121DC58A088B098C0A8DEE
:1028B3000B908E387808121B687413121D35780C30
:1028C300121BA1908E38780C121B68780C790812B1
:1028D30014E440117808790C121B2DAA08AB09AC3B
:1028E3000AAD0B8022751000751100751200751367
:1028F300017810790C121B2D78107908121AF4AA9A
:1029030010AB11AC12AD137F0C021E71C082C083D9
:10291300E9906000F0D083D08222C2AF020000228F
:10292300C0E074F2121EB1A2AFE433FED2AFC2C054
:10293300E5D1A2E4500653D1EF1213A3EEA2E09225
:10294300AF7F01021F10C0E074F2121EB1E5A8FEB2
:10295300D2AF1212B9C2EBEEA2E7A2E792AF7F01A8
:10296300021F10C0E0C0D0E8C0E0E9C0E0E5A8D293
:10297300AFC2C7A2E7A2E792AFD0E0F9D0E0F8D0A8
:10298300D0D0E032C0E074F2121EB1A2AFE433FC47
:10299300D2AF901BBEE0F8A3E0F9A3E0687003A3F5
:1029A300E069700A539AFB901BC274018039C2E933
:1029B300901BBEE0F8A3E0F9E82401FAE439FB90A8
:1029C3001BBEEAF0A3EBF0742E28F582741A39F5D6
:1029D30083E0F5C1901BBEC3E09490A3E094014053
:1029E30007901BBEE4F0A3F0ECA2E092AF7F0102DC
:1029F3001F1002011FFFFFFFFFFFFFFFFFC082C089
:102A030083E9901CDBF0D083D08202011F74F6129D
:102A13001D59E99002DCF090033BE0F508750900CD
:102A230074027808121CD6AA08AB0912103D900252
:102A3300DD1233C39002DD1237B0606F90033BE0C9
:102A430075F003A4FAABF012103D9002FA1233C3EF
:102A53009002FA1237B0700B9002DD123781121018
:102A63004380489002FA1247157AFF7BFF12121D2A
:102A73007A0080198A0875090074027808121CD636
:102A83001241BD74FF122BC3E4F0A3F00A90033B81
:102A9300E0F8EAC39840DD79051207019002DCE013
:102AA300F91205ED7A8B7B0712095F02426074F419
:102AB300121D598A088B09EB548060479002DCE0B1
:102AC300F9120FE98A0A8B0BAE0AAF0BEE4F602A9D
:102AD3008E828F83E064B0701A120713E960148E3C
:102AE300828F83A3A3A3A3E0F9EE2405FAE43FFBBB
:102AF3001206E3EEFAEFFB120FD7AA08E50964808A
:102B0300FB80047A007B00022D1374F2121D5974AA
:102B1300FB121CE9EAFEEBFFEE4F60457403121D46
:102B230035EEF0A3EFF0852182852283ECF0A3ED4F
:102B3300F07402121D35E9F0AA21AB221205E7E970
:102B4300F50870757413121D35E0F50AA3E0F50B53
:102B5300E50A450B60638E828F8312314CEE4F7012
:102B63000575080280537A067B0012103D8A0C8B90
:102B73000DA80CA90DE8497005750813803B8882E0
:102B83008983E4122BC3EEF0A3EF122CDFE50AF0E6
:102B9300A3E50BF09002E0122CD89002E06017E05E
:102BA300FCA3E08003EAFCEBFD8C828D83122CD81E
:102BB30070F38C828D83123DD8A908740502499560
:102BC300F0A31246F7A32274F2121D598908890C47
:102BD300750D007403780C121CD6850C0A850D0B39
:102BE3009002DFF09002DD123BE3122CD6602E122E
:102BF30010437900801D890C750D007402780C1246
:102C03001CD69002DD12407C8882F583A3A3E4F0F6
:102C1300A3F00990033BE0F8E9C39840D990033B44
:102C2300E0FA850AF0A4CAA8F0850BF0A428FB12E9
:102C3300103D8A0C8B0DAE0CAF0DEE4F7003022CC2
:102C4300CC90033BE0FC850AF0A4CCA8F0850BF004
:102C5300A428FD7900120FC57C0080318D0C750D01
:102C6300007403780C121CD68A828B83122CD188B1
:102C7300828983E4F0122CDEA3A3F0A3F00DEDC34D
:102C8300950840D8EE250AFEEF350BFF0C90033B69
:102C9300E0F8ECC39850288C0C750D007402780C86
:102CA300121CD69002DD122CD1E82402500109FA3D
:102CB300E9FB8A828B83EEF0A3EFF07D0080BFE512
:102CC300089002DFF07900800279130249981240DC
:102CD30080F922A3A3123785EA4B22A31246F7A356
:102CE300A3A32274F4121D597900EAA2E0501F75C0
:102CF300089275098D7808121F6C79107C047D0089
:102D03007ADD7B1C1206FB7402121CFFE9F98000BA
:102D13007F04021E2BC082C0839002E01237B06092
:102D23001C88828983A3A3E06A7003A3E06B888273
:102D3300898370E8A3A3A3A312378180047A007B5D
:102D430000022A0974F2121D5974FD121CE9EAFEED
:102D5300EBFF852182852283E4F0A3F07402121D28
:102D6300357401F01237AD70141208B112103D9092
:102D730002E31233C31237AD7003022ED91234C3E8
:102D8300EE2404F50AE43FF50B850A82F583E0247B
:102D9300FE603C24FC607424FE607E24FE7003020B
:102DA3002E2924FE7003022E3624FE7003022E43C6
:102DB30024FE7003022E5024FE7003022E5D24FCB9
:102DC3007003022E7E24FE7003022E96022ED21270
:102DD30008B19002E5EAF0A3EB122EE512025DE9D9
:102DE3006003022ED29002E5121F838E828F83A38B
:102DF300A3A3A3A3124715850882850983123781EC
:102E03001206CB7402121CFF022ED2AC21AD22EEAD
:102E1300FAEFFB120719022EA1AC21AD22EEFAEF55
:102E2300FB12071F8078AC21AD22EEFAEFFB1207ED
:102E330025806BAC21AD22EEFAEFFB12072B805EEF
:102E4300AC21AD22EEFAEFFB1207318051AC21AD7C
:102E530022EEFAEFFB12073780447402121D3F88FB
:102E63000C890D780C121F6C7402121D4FEEFAEFD1
:102E7300FB12073D7402121CFF8023AC21AD22EE2E
:102E8300FAEFFB120743E9F870167402121D35E4DA
:102E9300F0803CAC21AD22EEFAEFFB120749E9F8D2
:102EA300E8602C8E828F83A3E064146022850A82FB
:102EB300850B83E09002E5F085218285228312371A
:102EC300819002E61233C3E8A3122EE5120257EEF5
:102ED300FAEFFB1206A17402121D35E0F974030226
:102EE3004995F07CE57D0285088285098312378543
:102EF3002274E8121D5974FA121CE97404121D3568
:102F0300ECF0A3EDF08A128B13EA2405F50EE435F9
:102F130013F50FEA2402F510E43513F51185108239
:102F2300F5831237811203958A0A8B0B7508007C8F
:102F3300037D0079007AE57B02120FC5E50E2402BA
:102F4300F516E4350FF5177402121D3F880C890D31
:102F5300780C121F6C850E82850F83A3A3A3A3E0B5
:102F6300F50C750D00780C121F6CE50E2405F50C9D
:102F7300E4350FF50D780C121F6C851682851783C7
:102F8300123A881206057406121CFF8A0C8B0DE593
:102F93000C450D7003023115802085218285228323
:102FA300E088828983F00508852182852283A3E056
:102FB300C0E0123156D0E0F00508E50A24FBFAE53B
:102FC3000B34FFFBC3E5089AE49B40030231157EF3
:102FD300007F00851282851383A3A3A3A3E0F509D1
:102FE3007809121F70E4F514F5157814121F6C7527
:102FF30014E27515027814121F6C9002E3121F83FA
:103003007409121D35121F83E50A24F9F9AC0CADBE
:103013000D8510828511831237811207737409128B
:103023001CFFE960030230B6850E82850F83A3A3DC
:10303300A3A3A3A3A3E0F89002E2E0687075E0F510
:10304300148E157814121F6C124712850E82850F89
:1030530083A3A3A3A3A3A3A3A3123781120FBF74B4
:1030630002121CFFE9604C9002E61237B0703BE499
:10307300F5147814121F6C7CFF7DFF79078510828D
:103083008511831237811206DD7402121CFF123779
:10309300B67017850E82850F831248AF7404121D14
:1030A30035124170123AB9023149850C82850D837C
:1030B30012314CA821A922881489157814121F6C87
:1030C3007404121D35121F838516828517831233EC
:1030D300B91206117404121CFF8A0C8B0DEE4F708B
:1030E30003022F92123156EE123161123A6FEF1230
:1030F3003161F8A3E03400F9E50C450D6003022FBC
:103103009D8882898374FFF0050812315674FFF09D
:103113000508E508601A1313543F1233C9120269F4
:10312300E960099002E612378112143379008016A0
:10313300850E82850F831248AF7404121D35124128
:1031430070123DD8790A023A42A3A3A3A3E0FEA3D7
:10315300E0FF22A8089002E6E028123A6F22F00569
:1031630008089002E6E0282274E8121D5974FA1246
:103173001CE97402121D351233C37404121D35EC9D
:10318300F0A3EDF07402121D35E02405123A58E065
:10319300F50CA3E0F50D7402121D35E02402F510C1
:1031A300A3E03400F511851082F5831237811203F1
:1031B30095750800750900EA24FCFEEB34FFFF80D7
:1031C30008050CE50C7002050DA808C3EE98EF94F2
:1031D300005003023375A821A922880E890F780EA7
:1031E300121F6C851482851583A3A3A3A312471909
:1031F300121F6CE5142405F50EE43515F50F780E52
:10320300121F6C8514828515831233B71206057459
:1032130006121CFF8A0E8B0FEA450F7003023375EB
:10322300EA2404F516E4350FF517851682F583E0D5
:10323300F50CA3E0F50D8521828522831247158ABB
:10324300828B83A3A3A3E0F98510828511831237B0
:10325300811205F3E9F50960030233757402121D47
:1032630035123A7FF5097809121F70E4F512F51348
:103273007812121F6C7512E27513027812121F6C0A
:103283009002E3121F837407121D35121F83EEF998
:10329300AC0EAD0F8510828511831237811207732F
:1032A3007409121CFFE9F5096003023375E5087020
:1032B3003FE4F50EF50F780E121F6C7CFF7DFF794E
:1032C300098510828511831237811206DD7402127B
:1032D3001CFF123AA5700D7404121D351233AC791C
:1032E300110233A99002E2E024029002E6F0801476
:1032F3009002E6E0FA9002E2E0790024025001092C
:103303006A497072A8089002E2E0FAE82AFAE43403
:1033130000FBEE9AEF9B405A851682851783E0C027
:10332300E09002E712315BD0E0F005088516828554
:103333001783A3E0C0E0089002E712315BD0E0F00E
:1033430005089002E2124719121F6C124712A808CF
:10335300123A4C120FAD7402121CFF9002E2E025E8
:1033630008F50874FF650C700474FF650D600302B3
:1033730031C4E508601F9002E6E0F5F0E508841229
:1033830033C912026FE960099002E7123781121400
:103393003379008011E509700375090A7404121D5D
:1033A300351233ACA909023A42123BE7E50CF0A30C
:1033B300E50DF022A3A31249A4AA0CAB0D22A3A3EB
:1033C300EAF0A3EBF0229002E5F07CE57D028510A4
:1033D300828511831237852274EC121D5974FC12F5
:1033E3001CE9123EE87402121D4F12377B12060BC2
:1033F3008A0C8B0DEA450D70030234B31234C3A853
:1034030021A922881089117810121F6C7CFF7DFF7F
:10341300790B8508828509831237811206DD7402D0
:10342300121CFF1235B9700C850A82850B83123A80
:10343300B60234C08E828F83A3A3A3A3E0F51278D0
:1034430012121F70E4F512F5137812121F6C751225
:10345300E57513027812121F6C7810121F6C740931
:10346300121D35121F837409121D35E0F9AC0CAD22
:103473000D85088285098312378112077374091237
:103483001CFFE9FE70157CE57D02850882850983B2
:10349300123781120275E97009802074166E70026A
:1034A3007E009002E6123781121433EE7004800B13
:1034B3007E01850A82850B83123DD5EEF9023DEA32
:1034C300EE2402F508E43FF5092274EC121D597449
:1034D300FC121CE9EAFEEBFF8C0E8D0FEE2405F5C2
:1034E30008E43FF5097402121D4F8508828509839C
:1034F30012378112060B8A0C8B0DEA450D700302FD
:1035030035A9EE2402F50AE43FF50BA821A9228888
:103513001089117810121F6C7CFF7DFF790D123713
:103523007B1206DD7402121CFF1235B9700B85087D
:1035330082850983123AB6807A8E828F83A3A3A3EE
:10354300A3E0F5127812121F70850882850983A300
:10355300A3121F837512E57513027812121F6C787C
:1035630010121F6C7409121D35121F837409121D6A
:1035730035E0F91237771207737409121CFFE9FE5D
:10358300700F7CE57D0212377B12027BE9700980A4
:103593002074166E70027E009002E61237811214B8
:1035A30033EE7004800B7E01850882850983123D0A
:1035B300D5EEF9023DEA1237C0F510A3E0F511EAA2
:1035C30045112274E8121D5974FE121CE98A168BE8
:1035D300178C148D15EA2405F50CE43517F50DEA5F
:1035E3002402F50EE43517F50F850E82F5831237A5
:1035F300811203958A088B09750B007C037D007982
:10360300007AE57B02120FC5750A00E50814F51070
:103613000424FFF508E50934FFF50980549002E519
:10362300E0FA9002E2E0F8EA28F8E43400F9E50869
:1036330098E50999500D9002E5E0F8E510C39890DC
:1036430002E2F0E0F5127513007812121F6C1247B4
:10365300129002E6E02AFAA3E03400FB120FAD74E5
:1036630002121CFF9002E2E0F89002E5E028F00568
:103673000A850C82850D83A3A312408C4003023775
:103683005C9002E5E0C39508E49509400302375CCA
:10369300AE0AEE2EFEE433FF12379BAC21AD2212AD
:1036A300472DE439FB12060B8A128B13AC12AD13B0
:1036B300EC4D701B750B0112378B123DD99002E64E
:1036C300122CD86003121433A90B7402023A4485F6
:1036D3001682851783A3A3A3A3E0F50B780B121F10
:1036E30070E4F512F5137812121F6C7512E275135C
:1036F300027812121F6C9002E3121F837407121DCB
:1037030035121F83A910850E82850F83123781120C
:1037130007737409121CFFE9F50B709B9002E61204
:1037230037B06003023620E4F512F5137812121F46
:103733006C7CFF7DFF790F850E82850F83123781A5
:103743001206DD7402121CFF1237B6600302362024
:1037530012378B123ABA0236CD7CE57D02850E8292
:10376300850F83123781120281E960030236C07923
:10377300000236CDAC0CAD0D850A82850B83123762
:103783008522E0FAA3E0FB2212379BE0FAA3E0F9DB
:10379300EA85148285158322850C82850D83E02EAC
:1037A300F8A3E03FF988828983229002E31248B3A9
:1037B300E849221237C0F8A3E0F9E849229002E66B
:1037C300EAF0A3EBF09002E6E02274E8121D5974CC
:1037D300FA121CE97404121D351233C38C168D17AB
:1037E3007404121D35E02405F50EA3E03400F50F33
:1037F3007404121D35E02402123A58123781120361
:10380300958A0A8B0B7F007E00A821A9228808894C
:10381300097808121F6C850E82850F83A3A3A3A3C7
:10382300E0F5088E097808121F6CE50E2405F508EB
:10383300E4350FF5097808121F6C850E82850F8316
:10384300A3A3123A881206057406121CFF8A0C8B76
:103853000D8029123A79F00F123A79F00F9002E2B3
:10386300123DC4121F6C124712EFF8123A4C120F9A
:10387300AD7402121CFF9002E2E02FFFE50C450D30
:103883007003023908852182852283123EFAA3A39D
:10389300A3E0F98514828515831237811205F3E9B4
:1038A300FEE50C2404F510E4350DF511EE705074AB
:1038B30004121D35123A7FF5087808121F70E4F5DB
:1038C30008F5097808121F6C7508E2750902780873
:1038D300121F6C9002E3121F837407121D35121F0F
:1038E30083E50A24FAF9AC0CAD0D851482851583A2
:1038F3001237811207737409121CFFE9FE60391233
:103903003A95123DD8EF7003023A2F9002E6E0F5A4
:10391300F0EF849002E5F07CE57D02851482851545
:1039230083123781120287E960099002E712378117
:103933001214337900023A428F08EF703BE4F51218
:10394300F5137812121F6C7CFF7DFF7911851482A9
:103953008515831237811206DD7402121CFF123A99
:10396300A57009123A95123AB9023A429002E2E07E
:1039730024049002E6F080359002E2E0F89002E63B
:10398300E0FAE82404FCE43400FDEC6A4D60030231
:10399300390EE50A24FAFAE50B34FFFBE50828F8AB
:1039A300E43400F9EA98EB99500302390E8510824A
:1039B300851183E0C0E09002E7E02FF8A3E0340034
:1039C3008882F583D0E0F00F851082851183A3E010
:1039D300C0E0123A66D0E0F00F7402121D3F88086F
:1039E30089097808121F6C7402121D35121F838512
:1039F3000E82850F831233B71206117404121CFF53
:103A03008A0C8B0DEA450D70030238567402121DA1
:103A130035E0C0E0123A66D0E0F00F7402121D35B3
:103A2300A3E0C0E0123A66D0E002385EEE70027E98
:103A33000A850E82850F83123A9B123DD8EEF974E4
:103A430006121CFF7F10021E2B9002E7E028FAA348
:103A5300E03400FB22F514A3E03400F5158514824D
:103A6300F58322123A6A229002E7E02FFAA3E034A8
:103A7300008A82F58322123A6A74FF22123BE7A37B
:103A8300A3A3A3E0221249A4850E82850F831237D4
:103A930085228510828511831248B3851682851786
:103AA30083229002E7EAF0A3EBF09002E71248B317
:103AB300E84922123DDEE8F0A3E9F079112274EA25
:103AC300121D5974FE121CE98A088B098C128D137E
:103AD300EA2405FEE43509FFAC21AD228E828F83F3
:103AE30012378112060B8A0C8B0DEE2406F50EE4B9
:103AF3003FF50FEA450D7003023BB9E5082402F5D3
:103B03000AE43509F50B8A828B83A3A3A3E0A2E51C
:103B130050288521828522831237811207678A10F4
:103B23008B11EA451160207912123777851082854F
:103B33001183121D57E9F50C707F850E82850F8363
:103B4300E0600979528011750C0E806D85088285BD
:103B53000983A3A3A3A3E0F9E4F508F50978081200
:103B63001F6C8E828F83A3A3E0F5087808121F6C65
:103B73008E828F83A3A3A3121F838E828F83124708
:103B83001512377B1207797406121CFFE9F50C70C6
:103B930011850E82850F83E0702D12377B12028D03
:103BA30080257416650C7011750C007418121D3580
:103BB300123BE3E48010750C011248AB8512828539
:103BC3001383E8F0A3E9F0850E82850F83E0600498
:103BD30079008002A90C7402121CFF7F0E021E2BB7
:103BE300123BE722E0F8A3E0F58388822274EC120B
:103BF3001D5974F7121CE98A0A8B0B8C108D11EA7C
:103C03002405FEE4350BFF750C00AC21AD228E823A
:103C13008F8312378112060B8A088B09EA450970D4
:103C230003023DAFE50A2402F50A5002050B8A821E
:103C33008B83A3A3A3E0A2E5502F85218285228352
:103C43001237811207678A0C8B0DEA450D604F7995
:103C530012AC08AD0912377B850C82850D83121DCA
:103C630057E9F50C6003023DB2850A82850B83E0B8
:103C7300F508A3E0F509AA08FB12075BEA4B7019E4
:103C83007AFF7BFF12075BEA4B7003023DA58A8232
:103C93008B83E508F0A3E509F07508008008750C2F
:103CA3000E023DB205089002DFE0F8E508C3984034
:103CB30003023DA585080E750F007403780E121CD0
:103CC300D68A828B83A3A3E0250EF8A3E0350F12D7
:103CD300417970D08E828F83123DCD1233C38E8291
:103CE3008F83A3A3123DCD1233C1EE2404F508E460
:103CF3003FF509850882F583E088828983A3A3A31E
:103D0300A3F0A3E4F0EE2405F50EE43FF50F850ED2
:103D130082F583123DCDA3A3A3A31233C17512076A
:103D23007513007812121F6CEEFCEFFD7404121D64
:103D330047120FAD7402121CFFE4F5127812121F22
:103D43006C850882850983E0FC7D00791712377B37
:103D53001206DD7402121CFF7407121D351233C3E1
:103D63007407121D35E0FA4B603D8508828509838F
:103D7300123DC4121F6C850E82850F8312471512E4
:103D83000FAD7402121CFF7402121D4F12377B1207
:103D93000293E960267407121D351237811214331A
:103DA3008019750C098008750C118003750C0112BC
:103DB30048AB851082851183123DD8A90C74098004
:103DC30028E0F5087509007808221237858882896A
:103DD3008322123DDEE8F0A3E9F022E0F8A3E0F944
:103DE300850E82850F83227404121CFF7F0C021E32
:103DF3002B74EC121D59123EE8751000EE2402F5E7
:103E03000CE43FF50D850C82F58312378112075BB5
:103E13008A088B09EA45097003023ECC850A82852C
:103E23000B83E064016003023EC1AC08AD09AA0A3A
:103E3300AB0B12074FE9606E850882850983123147
:103E43004EEE2406F50AE43FF50B8E828F83A3A37F
:103E5300121F838E828F83A3A3A3A3121F83850ABA
:103E630082850B83121F8379188E828F83123EFA09
:103E73001237811207797406121CFFE9F874166869
:103E8300700B850A82850B83E4F0A38014E860122B
:103E93008E828F83123781850E82850F83EAF0A38A
:103EA300EBF088108018780E121F6CAC08AD09EE89
:103EB300FAEFFB1207557402121CFFE9F510AA086A
:103EC300AB09120761E510700E850C82850D831214
:103ED30037811202998009741665107003751000FA
:103EE300A910023DEFEAFEEBFF8C0E8D0FEE2405C9
:103EF300F50AE43FF50B221249A4850C82850D8354
:103F03002274EA121D597508007509007E007F00AE
:103F1300750A00EC2402F510E43DF5118035EC65DB
:103F2300087003ED65096003023FB988828983A3A2
:103F3300A3E06A7003A3E06B707C88828983A3A3E8
:103F4300A3A31248AFEE28FEEF39FFEA28FAEB39B4
:103F5300FB050A124089503A850A0C750D0074035B
:103F6300780C121CD685108285118312407C124175
:103F730079601FE508450970A58C088D0988828939
:103F83008312314C88828983A3A3E02EFAA3E03FF6
:103F930080BEE50AC394025003024077750800759A
:103FA3000900EE4F6010EEFAEFFB12142D8A0E8B10
:103FB3000FEA450F70057900024079750B00024046
:103FC3004C850B0C750D007403780C121CD68510F0
:103FD30082851183E0250CF50CA3E0350DF50DE585
:103FE3000C2406F514E4350DF515851482F58312BA
:103FF300417E6042E50C2404F512E4350DF513858A
:104003001282F583121F83E50E2508FAE50F3509A1
:10401300FB120FAD7402121CFF851282851383E01D
:104023002508F508A3E03509F5098514828515836C
:10403300123781121433E50B600D7C087D00790083
:10404300AA0CAB0D120FC5050BE50BC3950A500364
:10405300023FC48510828511831248AF8882898309
:10406300A3A3A3A3A3A3E50EF0A3E50F122CDFEEF6
:10407300F0A3EFF07901023BDE12408022E0250C31
:10408300F8A3E0350D229002DFE0F8E50AC3982299
:1040930074F0121D598A0E8B0F8C0A8D0B750D004F
:1040A300750C0080507916EE2406F508E43FF509F7
:1040B3008E828F83A3A3121F838E828F83A3A3A3D6
:1040C300A3121F83850882850983121F83850E82AD
:1040D300850F83A3A31237811207797406121CFF7D
:1040E300E9F50D7416650D706C850882850983E406
:1040F300F0A3F0050C9002DFE0F8E50CC3985066DE
:10410300AA0C8A0875090074037808121CD6850A5C
:1041130082850B83A3A31241C8E8FEE9FF8E828F39
:104123008312417E6040EA2401F508E43400F50976
:104133009002DFE065087002E509601488828983D4
:10414300A3A3A3A3A3A3A3A31237B060030240A80E
:1041530079180240AAE9609B1248AB7410121D350E
:10416300124170123DD8A90D7F08021E2BE0FAA35D
:10417300E0F5838A8222F9888289831249A4EC4D6F
:104183002274F6121D597C0080010C90033BE0F869
:10419300ECC398501E8C0875090074027808121C31
:1041A300D61241BDE06A7003A3E06B70DDE8FAE963
:1041B300FB80047A007B000242609002DD1241C85A
:1041C3008882898322E02508F8A3E03509F922745F
:1041D300F2121D598A088B09750A0080278E828F77
:1041E30083A3A3A3A3122CD660031214337C087DEC
:1041F300007900EEFAEFFB120FC58E828F83E4F095
:10420300A3F0050A1240895027850A0C750D007426
:1042130003780C121CD6850882850983A3A3E025A5
:104223000CFEA3E0350DFF8E828F831237B070AD85
:1042330085088285098374FFF0A3F002499874F618
:10424300121D5912070D8A828B83E58245837006FE
:104253007A007B008007A3A3A3A31237817F020206
:104263001E2B74F4121D5989088C828D83E064021D
:10427300703C12484EFEA3E0F9EEF8740268700336
:104283007429697029750A02750B00780A121F6C6C
:104293007410121D35121F837410121D35121F83E3
:1042A300A9081212237406121CFFE9F9800279018E
:1042B300022D1374E8121D5974FB121CE9E98521C0
:1042C30082852283F08A168B17ECFEEDFF751000B2
:1042D3008E828F83A3A3A3E0A2E4502D741D121D2D
:1042E300351237811207678A828B83E58245837093
:1042F300030246ED790AEEFCEFFDAA16AB17121D79
:1043030057E9F51060030246F0741F121D35E0F5FE
:1043130008A3E0F5097421121D35E0F50AA3E0F5C1
:104323000B7423121D35E0F50EA3E0F50F8E828F7B
:1043330083E06402600302468EA31248AF850882BD
:10434300850983A3858212858313EE2406F50CE485
:104353003FF50D8882898312472DF514E439F5154D
:104363007814121FF6010000280128904307000269
:104373002855440328C343002984450129AF450236
:1043830029504503298445042928468E46E50E45D0
:104393000F6003024689850C82850D831248AFE8BE
:1043A300FAE9FB8A828B83E0850A82850B831247B5
:1043B30038121F6C8A828B83A3E0FCA3E0024612AF
:1043C300E50E450F6003024689850A82850B8374D7
:1043D30001F0124722850882850983F07C007D0065
:1043E3008E828F83A3A3A3A3E02401FAA3E0340066
:1043F300FB12060BEA4B60408A828B83E02402F8AF
:10440300850A82850B83E028F0EA2404F8E43BF96B
:1044130088828983E0851282851383124746124777
:1044230038121F6C8A828B83A3124715E508240375
:10443300FAE43509FB024617850A82850B83E024DB
:1044430004F07C047D007900AA12AB13120FC5029D
:1044530046F0E50E450F6003024689124722FEA38C
:10446300E0FF850A82850B837404F0EE850882855C
:104473000983F0EF851282851383F07403121D4FB5
:10448300EEFAEFFB12060B8A0C8B0DEA450D700357
:104493000245338A828B83A3A312314C7401121D0C
:1044A3003F880E890F780E121F6C7405121D35128A
:1044B3001F837CFF7DFF1206117404121CFF8B0FF8
:1044C300EA450F7033850C82850D83124719121F3D
:1044D3006C850C82850D83A3121F837C027D007A79
:1044E300527B8E1203837404121CFFE9700A740159
:1044F300121D3574FFF0A3F08E828F83E064027087
:1045030039750C02750D00780C121F6C8E828F8327
:10451300A3124715E5082404FAE43509FB120FAD8D
:104523007402121CFF850A82850B83E02402800932
:104533007401121D35EEF0A3EFF07401121D351254
:1045430047077401121D351246FE024683E50E45E8
:104553000F6003024689850C82850D8312499DAA4B
:1045630016AB17121229850A82850B837402F08514
:104573000882850983EAF0851282851383EB02465C
:1045830086E50E450F6003024689124722F8A3E031
:10459300F9850A82850B837402F0E8850882850910
:1045A30083F0E9851282851383024686850C828512
:1045B3000D83123781120FA7EAFAF8C3950EE4951B
:1045C3000F405CE8650E450F70047A008021852159
:1045D30082852283E0FCE50E2CFCE4350FFDC3EC61
:1045E30098ED94005003E08005E50ECAC39AFAEAF9
:1045F300850A82850B83F08A0A750B00780A121FDD
:104603006C850C82850D83E0250EFCA3E0350FFD40
:10461300AA08AB09120FAD7402121CFF0246F07513
:1046230010070246F0E50E450F705B850C82850D81
:10463300831248AF850A82850B837407F0888289C9
:10464300831246FF1246F7E0851282851383F0E852
:104653002402FAE439FB8A828B831247078A828B0E
:10466300831246FEA3A3122CDE12470CF0E82405A6
:10467300F85001098882898312470CA3124746A385
:10468300A3A3A3F0806775100B8062741D121D3500
:1046930012378112070D8A828B83E5824583604A34
:1046A3001248AF880C890DE8450D603E7425121D34
:1046B30035E0F5107810121F70780E121F6C780A0F
:1046C300121F6C7808121F6C7407121D35E0F9EE87
:1046D300FCEFFDAA16AB17850C82850D83121D57BF
:1046E3007407121CFFE9F510800375100EA91074EE
:1046F30005023A44F088828983A322A3E0850882D5
:104703008509832212474DF02212474DA3A322901D
:1047130002E31249A422E0F50E750F00780E2285FC
:104723000C82850D83123BE7E022E0FAA3E0F8E474
:10473300C8F9EA2822F08A828B83E0F50A750B0018
:10474300780A221246F712474D22E085088285092E
:1047530083A3A32274EE121D5974FE121CE98A0866
:104763008B09ECFEEDFF890AAC21AD22EEFAEFFBDB
:1047730012060B8A0C8B0DEA450D700302483F8528
:10478300218285228312378112070D8A828B83E56A
:10479300824583700302483AA3A31248AF880E8967
:1047A3000FE8450F700302483A7414121D35E0F503
:1047B30010A3E0F511E50AF50B780B121F707419BD
:1047C300121D35121F837810121F6C741B121D35B6
:1047D300E0F9AC0CAD0DAA08AB09850E82850F83F9
:1047E300121D577405121CFFE9F50B705274FE6518
:1047F3000A604C850C82850D83E064027041124887
:104803004EFAA3E0F9EAF874026870037429697038
:104813002E85108285118312472DF50CE439F50D91
:10482300780C121F6CEEFCEFFDAA08AB091207917E
:104833007402121CFF8008750B0E8003750B01A90F
:104843000B7402121CFF7F0A021E2BA31248B388AB
:10485300828983E02274F6121D5974FE121CE974D6
:104863000C121D351248AFE8852182852283F0742E
:1048730001121D35E9F0E4F508F5097808121F6CFB
:104883007508027808121F6C7404121D3F8808898A
:10489300097808121F6C79FE1207797406121CFF3F
:1048A3007402121CFF0242608E828F831248B3226D
:1048B300E0F8A3E0F92274F7121D59EAFEEBFF8931
:1048C300089002FA124715121229EA5402600BA942
:1048D30008EEFAEFFB1205FF800279017F01021E49
:1048E3002B74F2121D5974FE121CE9EAFEEBFF89C8
:1048F3000A7401650A60147402650A60030249932D
:10490300790112097DE96003024993EEFAEFFB1284
:10491300075BEA4B6003120761A821A92288088973
:10492300097808121F6C7508027509007808121FB0
:104933006C75085875098E7808121F6C7CFF7DFF13
:104943007A017B001206057406121CFF8038850865
:1049530082850983A3A3A3A3A3A312499DEEFAEF20
:10496300FB12121DE4F50CF50D780C121F6C74028A
:10497300121D35121F837CFF7DFFAA08AB091206A7
:10498300117404121CFF8A088B09E508450970BEDF
:104993007402121CFF7F06021E2B123BE71249A46E
:1049A30022E0FCA3E0FD2274F4121D598A088B094E
:1049B300ECFEEDFF901CDBE0F4604B7A097B001208
:1049C3000FD1EA4B60408A828B8374B1F0A3E41267
:1049D3004A0CF08A828B83A3A3E508F0A3E50912AE
:1049E3004A0CA3EEF0A3EFF0740C121D351248AF7E
:1049F3008A828B83A3A3A3A3A3A3A3123DD8901C52
:104A0300DBE0F9120FDD022D13F08A828B83A3A35F
:104A1300A3A322C082C0839061907404F0A374485E
:104A2300F0A37402F09061807440F09061BC740351
:104A3300F09061877419F0906265741BF09062497D
:104A4300E0C3941390619C40107409F09060667405
:104A530001F090619F7428800D740BF0906066E400
:104A6300F090619F742CF0124C017009C291900375
:104A73006D7467800590036D7461F0124C53902937
:104A8300F8E493F46006E493F9120A737905120DBE
:104A93008B024E95C082C083E9540FF9906185E083
:104AA300696012E5C654B84441F5C6E59E544764AF
:104AB3004170F8E9F053C6B8E59E544770FA024EC8
:104AC30095C082C083A8A853A87E906181E4F0A317
:104AD300F0A3F0C2BA539AFEC289759B00C2C27595
:104AE300E90075910075BF0075A91175B90590614D
:104AF30081F0A374C0F0A3E4F0D2BA439A017480A6
:104B03005842A8024E95F0024E95C082C08374F8B5
:104B1300121CE990036B1262157003024BF99003A8
:104B23006BE0544060177908AA21AB22120B81AACB
:104B330021AB221207F190036BE054BFF0E05480E5
:104B43006010790C7A197B07120B8190036BE05488
:104B53007FF0E0A2E0501E124C017009C291900355
:104B63006D7467800590036D7461F01207F790030D
:104B73006BE054FEF0E05402601E124C467009D202
:104B83009190036D7471800590036D746AF0120740
:104B9300F790036BE054FDF0E0540460109029FC9F
:104BA300124C561207FD90036BE054FBF0E05408DF
:104BB30060109029FD124C561207FD90036BE054D0
:104BC300F7F0E05410600D124C531207FD90036B85
:104BD300E054EFF0E05420600A1207FD90036BE00D
:104BE30054DFF0A3E05401600D120A911208039000
:104BF300036CE054FEF07408121CFF024E959061A2
:104C03009A124E489006F3E0640122C082C083E901
:104C130060051460178029124C017009C29190033A
:104C23006D7467801A90036D74618013124C467023
:104C330009D29190036D7471800590036D746AF0CD
:104C4300024E9590619A124E3A9006F3E064012267
:104C53009029FEE493906186F02274EA121D597440
:104C6300F4121CE9908E2CAC21AD227404121BFCAF
:104C73009029FC93F46003024DCF907808E0C3942D
:104C8300025003024DB3908D647404121D4F7408D7
:104C9300121BFCA821A922881489157404121D3F34
:104CA30088088909AE08AF097510FF7511FF750EE5
:104CB300FF7C00750C48750D78801274086C7003C6
:104CC300024D4974096C607E740A6C6079850C82AC
:104CD300850D837808121BA18E828F83A909E50AAB
:104CE300C9F8881274187808121ABCE5124508F836
:104CF300C3E098A3E099850C82850D837808121B85
:104D0300A140188E828F8374187808121ABCE5129A
:104D13004508F8E0C398F8A3E0801A7418780812DD
:104D23001ABCE5124508FAE9FB8E828F8312556A95
:104D3300EAC398F8EB99F9C3E89510E99511500681
:104D4300881089118C0E0CE50C2404F50C50020517
:104D53000DECC394135003024CBE74FF6510700432
:104D630074FF65116024850E0874027808121CD63E
:104D730074482508F58274783509F5837808121B81
:104D8300A1851482851583E508F0EE2402FE500107
:104D93000F851482851583A3858214858315740C6E
:104DA300121D35E5826E7003E5836F6003024CAB21
:104DB3007508017509007808121F6C7402121D4FE3
:104DC3007A7F7B0A12128F7402121CFF740C121C5E
:104DD300FF7F0E021E2BC082C0839061AE7468F009
:104DE300A3746AF090624574FBF0A304F053F4FDDE
:104DF30043FE029006F37401F09061A0E0643A90E0
:104E0300619A7019124E48740164017009C291903D
:104E1300036D7467801E90036D74618017124E3AA0
:104E2300740164017009D29190036D7471800590CF
:104E3300036D746A024B09743FF0A3745AF09061D6
:104E4300A0747FF0227433F0A37455F09061A074C2
:104E53003AF0227F04021E2BC082C0839006D1E069
:104E6300640170119006D7E064016019E07006A335
:104E7300E0640160109006E8E06401700C9006EEB7
:104E8300E064017004790C800279008005E0F91276
:104E9300290FD083D08202011FE0C4333354C022D0
:104EA3008882898312542BA882A983222414F58231
:104EB300E438F58322C082C0839006DB7425F0902A
:104EC30006D97401F0A3E4F07A01FB120D07124F27
:104ED30004241AF582E438F58374B5F0A3740AF058
:104EE3009006D8E0640170169006D7E0701079013F
:104EF300120D67120D37120D617900120D73024EF8
:104F0300959006C712528D2274F6121D5974FA1227
:104F13001CE99006D0E064017008120A9D9006D047
:104F2300E4F075E1F1124F042415F582E438F583BA
:104F33007401F09006D2E06401704B908DA4AC2113
:104F4300AD227406121BFC75D90D9006C9124E9C36
:104F53004403F5D97582CA758306125427E5826422
:104F6300D07004E583640670F1A821A922124EA330
:104F73007406121D35E582687003E5836970EE756A
:104F8300E195790180027900120D0D901CFF124FFB
:104F9300F1741DF0A3740CF0A3124FF1124FF11230
:104FA300515F7423F0A3740C1251749006C9E0F995
:104FB3007ACA7B06120CE99006DBE0F912290F7915
:104FC30001120D13908E30121BBF120D2B908E40C9
:104FD300121BBF120CF57900120D7F124F04124EF3
:104FE300AF7416F09003697405F00402568C7417BD
:104FF300F0A3740CF0A32274F7121D598908A808B2
:10500300E875F00CA4C8AAF02AF9749928FE740371
:1050130039FF9006E0E0F97AE17B06120CE990068D
:10502300EEE070257900120D49EE240BF582EF3482
:1050330001F583E07004790080027901EE2405FA1A
:10504300EF3401FB120CEF80057901120D4975E174
:10505300F175D9239006E0124E9C4405F5D975826B
:10506300E1758306125427E58264E77004E58364DF
:105073000670F175D90075D90075D90075D9007519
:10508300D90075D900EE24221254E01254FF7003A4
:10509300E9658370F6EE24261254EB2403F8E43515
:1050A30083F91254FF7003E9658370F6EE242B1223
:1050B30054F4242C1254F4242D1254F4242E125498
:1050C300F4242F1254F424301254F424311254F4DF
:1050D30024321254F424331254F4245D1254EB2476
:1050E30005F8E43583F91254FF7003E9658370F61C
:1050F300EE2437126094541FF8EE242A126094C4ED
:105103003354E048F5D975E195901CFF74E7F0A39B
:10511300740BF0A374EDF0A3740B12515674F3F0F7
:10512300A3740B1251749006EDE0F912290F908EBF
:1051330030121BBF120D2B908E40121BBF120CF5A9
:1051430090600DE4F07901120D7F9003697406F00D
:105153000258C8F0A312515F12515F221251632209
:1051630074E1F0A3740BF0A374E1F0A3740BF0A348
:105173002212517822F0901D0D125184A3125184F2
:105183002212516374E1F0A3740BF02274EC121D2C
:10519300599006DE125CEA7810121BA19006EFE02C
:1051A300FAF875F00CA4C8ACF02C125E66FFEE2E74
:1051B300FEEF33FF8E0CF50D750E00750F00851095
:1051C3000885110985120A85130B908E2078081221
:1051D3001B077808121F6885100885110985120AB4
:1051E30085130B7808790C121AF47810790C121ABB
:1051F3004DE4F50EF50F7808790C121B2D8A0C750A
:105203000D007403780C121CD67808790C121AF46A
:10521300908E387808121B68AA08AB09AC0AAD0B4C
:105223001228A77404121CFF8A088B09A808A9096D
:10523300C3EE98EF995006E82EF8E93FF9E890603D
:105243000EF0E9A3F0EEA3F0EFA3F090600D74C1AC
:10525300F07F0C021E2BC082C0839006C7125279C6
:105263009006DB024E90C082C0839006DE12527914
:105273009006ED024E9012528D125283F0A3F0224B
:105283002406F582E438F583E422E0F8A3E0C8229B
:1052930002011F74F6121D59125430600478048001
:1052A300027800E8240EF8ECC39850030253647CA0
:1052B3000C9006F9E4F0EA2476F582E43BF583E00A
:1052C3009006FAF0EA24771253699006FB1253739F
:1052D3009006FCF0EA24791253699006FD12537389
:1052E3009006FEF0EA247B1253699006FF12537373
:1052F300900700F0EA247D1253699007011253735B
:10530300900702F0EA2474F8E43BF98A828B83A3C2
:10531300A3A3A3A3E0FEA3E0FF88828983E02EF08A
:10532300A3E03F125A0D9007031253739007041220
:10533300545460177508F97509067808121F6C79BB
:1053430003120BD57402121CFF7C1012569AECFE4A
:10535300125427DEFB75E1957904120D3179018032
:1053630002790002568FF8E43BF988828983E022B0
:10537300125A12A3E02274F6121D5912543060041B
:10538300780480027800E8240AF8ECC398500302FA
:1053930054227E089006F97401F07CBD7D0678FAEC
:1053A30079067F0512543EA882A983DFF7EA248099
:1053B300FCE43BFD8A828B83A3A3A3A3A3E0F508AC
:1053C300A3E0F5098C828D83E02508F0A3E035097D
:1053D300F012543E08A9838C828D83E088828983EE
:1053E30012545460197508F97509067808121F6C70
:1053F3007C087903120BD57402121CFF7E0C740116
:105403002EF5D975D9037582F9758306EEFF12540B
:1054130027DFFB75E1957904120D3179018002795B
:105423000002568F12542B22E0F5D9A3229061D0AB
:10543300E0F87480C398FC12545922125442228C0F
:10544300828D83E08882898312625288828983A352
:1054530022F012545922EA2482F582E43BF583E0D8
:105463002274F7121D59EAFEEBFF9061D0E07068D9
:1054730075D91875D90375D903EE249B12550612F5
:1054830054FF7003E9658370F6EE24A31254F424E9
:10549300A41254F424931255061254FF7003E965C1
:1054A3008370F6EE24871254E01254FF7003E9650B
:1054B3008370F675E1957908EE2493FAE43FFB12C5
:1054C3000B757904EE2487FAE43FFB120B7579041C
:1054D300120D31125614800279000258C81254EB8F
:1054E3002404F8E43583F922F582E43FF583E58269
:1054F30022F582E43FF583E0F5D9EE2212542BE83E
:105503006582221254EB2408F8E43583F92274F6F9
:10551300121D59EAFEEBFF9006F974061255BD12EF
:105523001F6C7C017903120BD57402121CFF75D911
:105533000675D9037582F97583061255B57004E5AE
:1055430083640670F575E195900369E06408701053
:10555300EE246FF582E43F125568EE247112602346
:10556300790102568FF5831262212274F6121D59B6
:10557300EAFEEBFF9061D0E070339006F9740A12F3
:1055830055BD121F6C7C017903120BD57402121CDA
:10559300FF75D90675D9037582F97583061255B55A
:1055A3007004E583640670F51256118002790002D7
:1055B300568F12542BE58264FE22F07508F97509A3
:1055C3000678082274F6121D59EAFEEBFF9061D0AB
:1055D300E0703678019006F9740BF0900369E0648B
:1055E3000770197508F97509067808121F6C7C0194
:1055F3007903120BD57402121CFF780512585C1242
:105603005427DAFB1256118002790002568F75E196
:1056130095EE246F12621BEE2471F582E43FF5834D
:10562300E8F0A3E9F079012274F6121D5912575DCF
:105633006004780480027800E8240BF8EAC39840F9
:10564300447C099006F974081256A91256B8DDFB7A
:10565300126091601B7508F97509067808121F6CB2
:105663007903EEFAEFFB120BD57402121CFF7C0DCB
:1056730012569412575570FB75E1957904120D314A
:10568300125614800279008003121CFF7F02021E4F
:105693002B12569A8C082274012CF5D975D90375EF
:1056A30082F975830622F0EE24E4F8E43FF97AFAEE
:1056B3007B067D082288828983E08A828B83125A43
:1056C30012A3A882A9838A828B83A3AA82AB832293
:1056D30074F6121D5912575D600478048002780035
:1056E300E82408F8EAC398406478069006F9740C35
:1056F300F0900386E09006FAF0900387E09006FBB3
:10570300F0900388E09006FCF0900389E09006FD9A
:10571300F090038AE09006FE1257EC601B7508F9BF
:105723007509067808121F6C7C067903EEFA120BD2
:10573300D57402121CFF780A1257E612575570FBF4
:1057430075E1957904120D31125614800279000225
:10575300568F12542B1508E50822EAFEEBFF9061E1
:10576300D0E0F87480C398FA1257F12274F6121D30
:105773005912575D6004780480027800E82404F825
:10578300EAC398405978029006F9E8F0EE24F6123D
:1057930060949006FA1257EC601B7508F9750906B8
:1057A3007808121F6C7C027903EEFA120BD574028F
:1057B300121CFF78061257E612575570FB75E195D8
:1057C300EE24731259FEEE247F1259FE1259FBA3E5
:1057D300F07904120D31EE240D1256178002790070
:1057E30002568F125862880822F01257F122EE24D3
:1057F30082F582E43FF583E02274F6121D591254B8
:10580300306004780480027800E82404F8ECC3983C
:10581300404278029006F97407F0EA24F7F582E42F
:105823003BF583E09006FA12545460197508F97534
:1058330009067808121F6C7C027903120BD57402D7
:10584300121CFF780612585C125427DAFB75E19597
:1058530079018002790002568F125862E8FA2274A5
:105863000128F5D975D9037582F97583062274F772
:10587300121D59E9FFA2AFE433FEC2AF7C008001E1
:105883000C1259195010ECF8EA28F8E43BF9125FAE
:105893007F6F70EC8016EA246EF8E43BF9E0FCEAD3
:1058A3002CFAE43BFB1258B6EF125A07EEA2E09231
:1058B300AF8012EA246AF582E43BF58322F0EEA27C
:1058C300E092AF79007F01021E2BC082C083A2AF9A
:1058D300E433FDC2AF12592114F07C00801DECF8B3
:1058E300EA28F8E43BF9E8246B125F82C0E0E8247D
:1058F3006AF582E439F583D0E0F00C12591940DEE1
:10590300EA246DF582E43BF58374FF125946EDA258
:10591300E092AF024E95125921F8ECC39822EA2483
:105923006EF582E43BF583E022C082C083A8A8C25F
:10593300AF1258B6E9125946E8A2E7E433FAE8A2EF
:10594300E780CEF0EA2469F582E43BF583E4F022B4
:1059530074F3121D59EAFEEBFFECFAEDFB8A828B1E
:1059630083A3A3A3A3E0541FF0EE24361259FE75BC
:105973000A00EE245DFCE43FFD8A828B83E08C8287
:105983008D83F0750B00E50A33333354F8F50C8A35
:10599300828B83E0F508750900E50B7808121CB7C4
:1059A300E508A2E05027EE2436F8E43FF98882891F
:1059B30083E0F508EE2508F508E43FF509E508243A
:1059C30038F582E43509F583E50C125A07050B0512
:1059D3000CE50BC3940840B7050A8A828B83A3AAFC
:1059E30082AB838C828D83A3AC82AD83E50AC3949F
:1059F3000540867F05021E2BEE241DF582E43FF54C
:105A030083E4F022125A0D04F022125A12E022F01B
:105A1300888289832274F7121D59900395E06403E9
:105A23007003025BB07C0075829B758303E06003A7
:105A3300025B9AECF875F00CA4C8AAF02AF97499E1
:105A430028FA740339FB8A828B83A3A37401125B44
:105A5300D2E4F0EC8A828B83A3A3A3A3F012619C0C
:105A63007401F0EA2467F582E43BF5837401125B69
:105A7300CCE4F0A3125BCCA3A3125BE2240FF58268
:105A8300E43BF5837401F0EA2435125BB724181262
:105A93005BE7241C125BB7241D125BDB247F125BC4
:105AA300B72473125BB72468F582E43BF5837480F3
:105AB300125946EA246E125BB724EC125BB724ED4D
:105AC300125BB724EE125BB724EF125BB724F0121C
:105AD3005BDB24F2125BDB24F5125BB72482125BDF
:105AE300B724D2125BB724D3125BB724D4125BE77B
:105AF30024D8125BE724DE125BB724E0125BB724E1
:105B0300DC125BB724E1125BB724E2125BB724F823
:105B1300125BDB24FA125BDB24FC125BDB24FE1238
:105B23005BDB240B125BC12405125BC12406125BF1
