:020000040000FA
:0600000002011A02299D15
:03002B00022F00A1
:03003B00022F5F32
:03004300022EBAD0
:03005300022A136B
:03006B00022F243D
:03007B00022EE36F
:100083000227F3E5C754F84401F5C77901220000BC
:100093000080FB120086B90003020104E47924788E
:1000A30002B800028004F709D8FCE479267802B884
:1000B30000028004F709D8FCE490028178D6791A0B
:1000C3008002F0A3D8FCD9FA782390014A7A01BAC6
:1000D30000028007E493A3F608DAF97A567B1C90B2
:1000E300014B78E979018015E493A3AD82AE838A4D
:1000F300828B83F0A3AA82AB838D828E83D8E9D9C6
:10010300E77582497583F4740312012C7582917526
:100113008300740012012C75D00075813F75218115
:10012300752202759F00020096C09FF59FE473D06D
:100133009F22D083D082C09FE493C0E0740193C018
:10014300E0740293F59F2201C503D1030704010460
:10015300FF0000B4000028002800283075A000A08C
:1001630000A000A00000080008E001F0001000104B
:10017300001000100010001000500050005000103C
:10018300001000D0070000000000000F0001000570
:1001930000307507001000010081FF00000000FF20
:1001A300FFFF020202B38D010000A38D02AD8D019A
:1001B3000000B01C02A98D010000B80202AD8D0140
:1001C3000000B11C02AF8D010000CE02FFFF010051
:1001D300FF2002B38D010000A68D02AD8D0100004A
:1001E300DF1C02B98D000000000002AB8D0300008C
:1001F300FA021700F90BF90BF90BF90BF90BF90BD1
:10020300F90BF90BF90BF90BF90BF90BF90BF10DD1
:100213000F0EEB0DFFFFFFFFFF01E8030577100251
:100223000A6666C6400301010101FEFF0104FF00E7
:100233001201351EDE0312013531DE031201355280
:10024300DE03120135BDDE03120135FEDE031201AA
:10025300351FDF0312013560DF03120135F8DF03B9
:1002630012013540E00312013518D5031201352B75
:10027300D5031201355CD50312013596D50312015E
:1002830035EFD50312013536D6031201357ED60379
:10029300120135ADD603120135DCD6031201351335
:1002A300D7031201355AD70312013573D70312014D
:1002B30035C8D703120135F6D70312013530D803F9
:1002C30012013538B5021201353BB6021201356809
:1002D300B602120135B9B602120135DCB6021201BB
:1002E30035EEB602120135F1B6021201352FB7020F
:1002F300120135A3B7021201350FB802120135D727
:10030300B802120135F3B8021201352AB9021201FB
:100313003564B902120135FBB9021201354DBA0237
:100323001201357EBA02120135AFBA02120135BC91
:10033300BA0212013526BB0212013529BB02120192
:100343003536BB0212013539BB0212013590BB02AF
:1003530012013593BB02120135CCBB02120135CF1A
:10036300BB0212013503BC0212013506BC021201A5
:10037300355ABC02120135A3BC02120135B3BC02CB
:10038300120135E6BC02120135F3BC02120135F647
:10039300BC021201355EBD0212013560BE021201BC
:1003A3003504BF021201356DBF02120135ABBF0226
:1003B3001201357ADD0212013572DE02120135A611
:1003C300DE021201353CDF0212013587DF02120122
:1003D30035EBDF0212013575E0021201352EE10221
:1003E30012013550E402120135CDE502120135F058
:1003F300E50212013533B603120135D8B7031201F2
:1004030035F8B70312013519B9031201356CB90375
:1004130012013579BA03120135A1BA03120135CE9F
:10042300BA0312013506BB0312013564BB03120183
:1004330035B0BB0312013517BC0312013557BC039A
:1004430012013594BC03120135C2BC031201356C91
:10045300BD0312013576BD0312013583BD031201BD
:1004630035B6BD03120135C2BD03120135DABD0332
:10047300120135E4BD0312013511FF011201351FCD
:10048300FF0112013537FF011201354FFF01120140
:100493003566FF01120135008002120135AA800280
:1004A3001201352681021201354482021201358080
:1004B30082021201351B8302120135FF83021201EE
:1004C30035C284021201353A8502120135C886020B
:1004D300120135398702120135F38702120135E51E
:1004E3008802120135258902120135D989021201C8
:1004F300350B8A02120135018C02120135438C023D
:10050300120135618C02120135E68C02120135AA03
:100513008D02120135C98F0212013550C603120133
:100523003566C60312013584C60312013595C70328
:100533001201359FC703120135CAC803120135C121
:10054300C9031201352ECA031201357BA803120118
:10055300351FA90312013556A903120135A0A903BA
:100563001201355FAB03120135CFA30112013580B0
:10057300A4011201359CA40112013565A5011201E4
:10058300357FA5011201358AA50112013560A60147
:100593001201353DA701120135CDA70112013584A2
:1005A300A80112013592AB0112013581AD0112018F
:1005B3003533AE01120135FCAE0112013541B201F2
:1005C300120135EBB20112013514B401120135D019
:1005D300B50112013570B601120135BEB601120123
:1005E30035FDB601120135D0B70112013504B8014A
:1005F30012013591B80112013510CF011201359C5A
:10060300CF0112013500D1011201350CD1011201C4
:100613003547D101120135B6D101120135BFD201DF
:10062300120135C8D3011201358FD401120135EC03
:10063300D5011201350AD60112013527D60112015F
:1006430035F2D6011201351AD701120135E4D90169
:10065300120135E9D90112013502DC0112013550CD
:10066300DC01120135C0DC01120135FEDC0112018F
:1006730035DADD011201359ADE01120135E6DE01BC
:10068300120135E9DE011201352DDF011201357545
:10069300DF01120135B4DF01120135D6DF0112018A
:1006A300350AE0011201356DE0011201356295034F
:1006B3001201356B9503120135799503120135CC7F
:1006C3009503120135EB95031201353096031201A0
:1006D300357497031201350F9803120135539803AC
:1006E3001201357D9803120135EC9803120135325E
:1006F3009903120135A999031201355A9A0312017C
:1007030035D42F00120135E42F0012013585300056
:10071300120135E130001201359E3100120135BA64
:100723003200120135EC32001201351B3300120185
:1007330035C834001201353F3700120135AF390097
:10074300120135A13A001201359A3B00120135A17D
:100753003D00120135954000120135C441001201DC
:1007630035C84300120135D84400120135674600ED
:10077300120135584700120135A6470012013515FD
:1007830048001201353948001201358A4800120128
:10079300352B4D001201352C4E001201358D4E00C4
:1007A300120135B84E001201357E4F001201356338
:1007B300C2031201356DC203120135B2C203120125
:1007C30035C6C20312013556C3031201357EC30376
:1007D300120135B9C303120135E2C3031201351601
:1007E300C4031201352BC40312013596C40312014D
:1007F30035B7C403120135CBC403120135E0C4037A
:100803001201351AC5031201357FC503120135C222
:10081300C503120135ECC50312013528C6031201C5
:10082300358EEC0312013548AA021201352BAB02B7
:10083300120135A6AB02120135E1AB0212013532CA
:10084300AD02120135BBAD02120135D3AF02120165
:100853003565B20212013517B30212013536B402FF
:100863001201358FB4021201353F90031201358214
:100873009003120135069103120135D99103120138
:1008830035B0940312013580DB031201352DDC03EF
:100893001201353ADD0312013579DD03120135D337
:1008A300DD031201355CE603120135BFE6031201D5
:1008B300355CE7031201358AE703120135ABE70321
:1008C300120135E6E70312013506E8031201356C20
:1008D3009A03120135F89A03120135B79B031201EB
:1008E30035CF9C03120135E99E0312013529CA0253
:1008F3001201354ECA0212013522CB021201358F85
:10090300CB02120135E5CB0212013581CC02120173
:1009130035B5CD0212013590CE02120135EFCE026C
:10092300120135C0CF021201354CD0021201354FEE
:10093300D00212013599D0021201350BD1021201F6
:1009430035B6D102120135D6D1021201351ED202BB
:100953001201353AD202120135B4D202120135C264
:10096300D20212013551D302120135BAD302120158
:100973003516AD031201359BAD03120135DDAD0311
:10098300120135C1AE031201352EAF0312013572C8
:10099300AF03120135B6AF03120135E3AF03120102
:1009A300350BB00312013543B00312013581B00397
:1009B300120135A8B00312013522B1031201356CBF
:1009C300B103120135316800120135FE69001201CD
:1009D30035EC6B00120135406C001201356B6C0075
:1009E300120135196D00120135496D001201357878
:1009F3006D001201358B6D00120135CC6D001201B3
:100A030035F86D00120135466E001201357D6E001A
:100A1300120135C96E00120135286F00120135BB72
:100A23006F00120135A57000120135947100120197
:100A3300353F73001201355E7800120135B7780037
:100A4300120135A07A001201356F7C00120135F1D5
:100A53007C001201353F7E00120135507E001201E9
:100A63003568FD0212013553FE0212013596FE026E
:100A7300120135E5FE0212013536FF0212013587F8
:100A8300FF02120135EA4F001201356B50001201CB
:100A930035985000120135E15000120135E2510042
:100AA300120135315200120135AD53001201352FB9
:100AB30054001201358C5400120135DF5400120129
:100AC30035CE55001201356357001201352D5800FC
:100AD3001201353D58001201356758001201356A7D
:100AE30058001201354D5900120135385A001201D0
:100AF30035E55A00120135425B001201359B5B005C
:100B0300120135FF5B00120135A75C00120135436A
:100B13005D00120135D05D00120135455E00120102
:100B230035A15E00120135005F00120135275F0019
:100B3300120135EC5F00120135D861001201352135
:100B43006200120135516200120135C462001201C4
:100B5300354A6400120135FA64001201351F65003D
:100B63001201355E6500120135736500120135B659
:100B73006500120135266600120135706600120108
:100B8300357A6700120135FB6700120135DDD302A8
:100B930012013528D40212013534D402120135086A
:100BA300D5021201351FD5021201355CD50212019F
:100BB300358DD502120135C5D5021201351BD6027A
:100BC30012013531D6021201356DD602120135807C
:100BD300D602120135A7D602120135DBD602120165
:100BE3003501D8021201354BD90212013547DA0219
:100BF3001201355DDB02120135E97F001201351266
:100C03008B03120135C08E03120135F48F031201D9
:100C130035639E021201351CA10212013522A10285
:100C2300120135D3A3021201352DA602120135207C
:100C33009F03120135B79F0312013575A0031201FB
:100C4300359FA003120135D5A203120135C08D01D2
:100C5300120135FB8D011201354F9801120135BB8D
:100C63009901120135B89A011201353D9E01120115
:100C730035329F011201357E9F01120135989F0184
:100C8300120135D99F01120135E29F0112013594FA
:100C9300A00112013564A101120135ABA1011201BA
:100CA3003511A20112013583A20112013538CA039D
:100CB300120135CECA03120135E4CA031201353DD0
:100CC300CB0312013581CB03120135BBCB031201D8
:100CD3003553CC03120135C2CC03120135CBCC03FF
:100CE300120135D7CC03120135F1CC031201351BA8
:100CF300CD0312013530CD0312013592CD0312011C
:100D030035B9CD0312013542F7021201354FF7020F
:100D130012013569F7021201359CF702120135DA27
:100D2300F7021201353FF80212013554F80212019D
:100D3300356BF80212013579F80212013588F80291
:100D43001201359DF802120135B2F802120135BDC8
:100D5300F802120135C9F802120135D6F802120160
:100D630035E5F802120135F0F80212013515F902E2
:100D7300120135B9F902120135CEF902120135E338
:100D8300F902120135FDF9021201351AFA021201B4
:100D93003537FA0212013542FA02120135EEFA0230
:100DA300120135CFFB02120135F4FB02120135FFAC
:100DB300FB0212013514FC0212013528FC02120158
:100DC3003589FC021201358FFC0212013595FC02B4
:100DD3001201359BFC02120135B3FC02120135E608
:100DE300FC02120135D1BF02120135F3BF02120119
:100DF30035BBC00212013575C3021201358BC40223
:100E0300120135ACC50212013586C6021201353511
:100E1300C7021201358EF10112013525F2011201CB
:100E230035BDF201120135ADF301120135E4F301D1
:100E3300120135F7F30112013565F4011201350092
:100E4300F60112013527F601120135C9F601120127
:100E530035FEF6011201350FF70112013588F7014E
:100E6300120135A9F701120135C1F7011201351934
:100E7300F90112013522FB0112013572FD01120144
:100E83003575FE01120135C4FE01120135D68F02FC
:100E9300120135D39002120135BE9102120135C8F9
:100EA3009102120135EA9102120135F69102120103
:100EB30035489302120135779302120135A7940244
:100EC300120135E99402120135159602120135EB30
:100ED30096021201353D97021201359C97021201C9
:100EE30035D397021201350E9802120135A99B02E0
:100EF300120135C29B02120135449C021201355284
:100F03009C02120135A79C02120135B59C02120105
:100F130035229D02120135949D02120135DA9D029C
:100F230012013514E80312013539E803120135AA19
:100F3300E80312013543EF021201354CEF021201AF
:100F43003555EF0212013586F002120135A5F20282
:100F5300120135DBF20212013515F3021201354B92
:100F6300F30212013585F302120135B9F3021201BE
:100F730035E5F3021201352EF40212013568F4024D
:100F8300120135B0F40212013506F5021201353BA8
:100F9300F50212013596F502120135D0F502120160
:100FA3003521F60212013557F60212013591F60288
:100FB300120135B4F602120135ACF003120135D833
:100FC300F00312013533F1031201353DF103120130
:100FD300354DF103120135A98503120135B385039C
:100FE300120135F185031201353A86031201357476
:100FF3008603120135CE8603120135EF86031201F3
:1010030035F88603120135498703120135728703C8
:10101300120135878703120135F8870312013586DC
:101023008803120135C38803120135F388031201C3
:1010330035778903120135B78903120135EF890327
:10104300120135018A03120135208A031201352961
:101053008A03120135E88A03120135B2EF03120144
:101063003598D803120135DCD80312013512D903A0
:10107300120135FADA0312013554DB031201355D2F
:10108300DB0312013566DB0312013557F10312014D
:10109300356DF10312013577F103120135CDF103FB
:1010A300120135ACB103120135C5B1031201356923
:1010B300B203120135A9B203120135C2B203120100
:1010C30035F6B20312013543B30312013577B30387
:1010D300120135B9B303120135B9B503120135262F
:1010E300B6031201358DF303120135737E0012012D
:1010F30035AA7E00120135CF7E00120135E67E004F
:10110300120135027F00120135197F001201355596
:101113007F00120135897F001201359AE203120123
:1011230035B6E20312013533E3031201354FE3030E
:10113300120135B2E30312013553E4031201350002
:1011430080031201353F8003120135C88003120169
:1011530035DD8003120135288103120135678103D0
:101163001201357681031201352B82031201358476
:101173008203120135D38203120135268303120140
:10118300353B840312013534850312013571850320
:10119300120135ECF30312013587B901120135FD54
:1011A300BB0112013575BD01120135D6BD01120116
:1011B3003575BE0112013567BF01120135ECBF0160
:1011C30012013568C0011201358DC0011201355677
:1011D300C301120135CAC301120135B6C40112019C
:1011E30035F0C40112013530C501120135EAC601DB
:1011F3001201351BC7011201356EC701120135B744
:10120300C70112013525C80112013557C801120162
:10121300356FC80112013584C90112013594C90122
:10122300120135F9CA0112013519CB011201354FEB
:10123300CB01120135FCCC011201357CCD01120129
:1012430035BBCD01120135E2CE0112013580E40335
:10125300120135DDE403120135A0E503120135BFA8
:10126300E50312013515E603120135FBF103120103
:10127300350BF203120135A1F403120135E0F40337
:1012830012013551EB0312013584EB031201358E44
:10129300EB0312013573EC031201352BF503120135
:1012A30035A2ED03120135B2ED03120135CDED0385
:1012B300120135A1EE03120135AEEE0312013533EF
:1012C300EF0312013599EF0312013529F3031201DC
:1012D3003543F30312013554F303120135D2A3034B
:1012E300120135E6A3031201355FA4031201353859
:1012F300A503120135F6A7031201353BA80312011A
:101303003568A803120135E7CD0312013500CE037A
:101313001201351BCE031201352CCE031201353DCC
:10132300CE03120135B5CE031201358CCF03120162
:1013330035D9CF0312013503D00312013529D00368
:101343001201354FD00312013597D003120135E353
:10135300D00312013508D10312013522D103120142
:10136300354ED10312013565D103120135F87F00E3
:101373001201356BE003120135F0E103120135511F
:10138300E20312013597E20312013572BE03120123
:10139300350DBF03120135C1BF0312013581C003EF
:1013A300120135F3C00312013522C1031201353294
:1013B300C1031201359FC1031201352EC20312016D
:1013C3003542C2031201354CC20312013560C20318
:1013D300120135EAF40312013513F5031201354501
:1013E300E101120135EAE20112013555E40112016E
:1013F300356AE50112013519E601120135F5E601F9
:10140300120135E4E701120135E7E8011201356203
:10141300E9011201358FE901120135AAE90112012F
:10142300353BEA0112013577EA0112013591EA01F0
:101433001201358CED01120135C4ED01120135C7DE
:10144300ED0112013514F10112013598F203120175
:101453003503F3031201350EF3031201351EF303B3
:10146300120135CAE9031201351FEA031201358D52
:10147300EA03120135FDEA031201358BD103120190
:1014830035B5D103120135AFD203120135D4D203DE
:101493001201356BD303120135EDD303120135135A
:1014A300E702120135D0E7021201350BE8021201FF
:1014B3003533E80212013595E802120135E1E802FD
:1014C3001201353AE902120135CBE902120135CD99
:1014D300EA021201358AEC021201350CED02120107
:1014E3003571ED0212013588ED0212013598EE02D5
:1014F300120135D6EE02120135BD7F00120135D936
:10150300FF02E066701008A3E066700A08A3E066B5
:10151300700408A3E06622C3E7960809E796080962
:10152300E7960809E79622C3E09608A3E09608A386
:10153300E09608A3E09622C008C3E096F50808A346
:10154300E096420808A3E096420808A3E0964508FF
:101553007001D3D00822E9799EC608CAC608CBC653
:1015630008CCC6C370207996CACBCC7019798ECBC0
:10157300CC70137986CC700EF9802ACA33CACB3368
:10158300CBCC33CC331930E7F2CCCBCA3350147005
:1015930004EA30E00DE4CA3ACACB3BCBCC3CCC5096
:1015A3000209C3E913C6CC182313C6CB18C6CA183D
:1015B300C6F9221215F620F01430E72B74FFFCFB5A
:1015C300FA747F8022E4FCFBFA7480801AB48008EA
:1015D300BC00F2BB00EF800F50EBF9E4C39AFAE4CE
:1015E3009BFBE49CFCE499C6CC18C6CB18C6CA186E
:1015F300C6F922E4C9C608CAC608CBC6D333030852
:10160300CCC63392F0C3947F402E94184019C9B9C5
:101613000704CACBCC225025C309CA33CACB33CB68
:10162300CC33CC33D9F422F4600DC9CCC313CB1320
:10163300CBCA13CAD9F6CC22E4FCFBFA2214FCFB76
:10164300FA22E62618461846184622E727194719AC
:1016530047194722181818E60846087009E62608AD
:101663007005E633F4220822191919E709470970AE
:1016730009E727097005E733F4220922E60846083B
:10168300C3134608336002E633F422E7094709C36C
:10169300134709336002E733F42212167F601C12EA
:1016A300168E6017121645700712164E7001D3225C
:1016B300C0D012164E7006D0D0B322C32233D0D07E
:1016C300501430E0F6C3E7960809E7960809E79651
:1016D3000809E796B32220E0D5E6970809E69708BC
:1016E30009E6970809E697B3220012167F604F12A6
:1016F300168E6012E7548066F61216577011121692
:101703004E703B090909F4F618F618F618F622127A
:10171300166B701512164508080860EAE6447FF652
:1017230018768018E4F618F622121645601612167B
:101733004E7012E4F608F608F608E65480F6090936
:101743000918181822EAC0E0EBC0E0ECC0E0EDC0D5
:10175300E0E687F0A4FBACF008E687F0A42CFCE4F9
:1017630035F0FA1809E687F0A42C4B60027401CA1D
:1017730035F0FCE433FB09E687F0D2F7A42CCB3534
:10178300F0FC1908E687F0A42BCC35F0FBE433FD1D
:101793000819E687F0D2E7A42C4ACB35F0CD340004
:1017A300FC09E687F0D2E7A42DCC35F0FDE433FA4B
:1017B3000918E687F0D2F7A42CCD35F0CA3400FC23
:1017C30008E687F0D2E7D2F7A42ACC35F07A7E2058
:1017D300E70B0ACB33CBCD33CDCC33CC33CB335028
:1017E300147004ED30E00ED2F1E4CD3DCDCC3CCC11
:1017F3003B5005DA05C2F1EB547FC63308E633925A
:10180300F0FBE73309E733C39A502D2B70190C0D06
:101813004C4D70151806E608C333700D20F10AA26B
:10182300F013F6E418800B4024E4F630F0027680DF
:1018330018F618F618F68024D33B14501074FFA240
:10184300F013F6187680E418F618F6800FA2F0135A
:10185300F618E63303F618ECF618EDF6D0E0FDD0F3
:10186300E0FCD0E0FBD0E0FA2212167F601D1216D6
:101873008E7005191919801A121657701F12166BDC
:10188300C37003E66733191919400718181822089B
:10189300080874FFF618F618F618F62212166B608D
:1018A3001712164E702192F0121645701950172018
:1018B300F014080808090909E7F61819E7F61819D2
:1018C300E7F61819E7F62212164560E6E869701F75
:1018D3000808E62480F608E436F618547FB47F0C33
:1018E300E654806007F6E418F618F622181822E981
:1018F300C6CC08C6CD08C6CE08C6CFC0E0E8C0E057
:10190300EAC0E0EBC0E009E9F809E7FA09E7FBE61A
:10191300F918E6F8C3EC98ED99EE9AEBC2E7F5F007
:10192300EFC2E795F0500E600CEBCFFBEACEFAE97D
:10193300CDF9E8CCF8EAA2E7D2E7FAEB33FB13F5EB
:10194300F0EEA2E7D2E7FEEF33FFC5F013A2E730D4
:10195300E601B313C5F0C3C0E0C0F07F00C39BFB37
:10196300605E9418600F401D14601AD0E023F9D014
:10197300E0F8021A4D8AF0E9486003D2F0E4AFF0D0
:10198300FAF9F8803BEB30E40D89F0EA6003D2F01A
:10199300E4AFF0F9CAF8EB30E30D88F0EF6002D260
:1019A300F0AFF0E4CAC9F8EB54076014FBC3EA13C1
:1019B300FAE913F9E813F8EF135002D2E0FFDBED75
:1019C300D0E0C0E030E739C3E49FFFF5F0EC98FCCA
:1019D30042F0ED99FD42F0EE9AFE42F0D0E0F9D0EC
:1019E300E0F8E5F0607AE923F9EE20E742D80280D7
:1019F30067C3EF33FFEC33FCED33FDEE33FE80EAD8
:101A0300EC28FCED39FDEE3AFED0E023F9D0E0F806
:101A13004002801BC3EE13FEED13FDEC13FCEF132A
:101A23005002D2E0FF08B800067F7F74FF802EEFDC
:101A33003350178CF020F00260100CBC000C0DBD6D
:101A430000080EBE000408E860DFE933E813FFEE88
:101A53002313FE4F4D4C8008E95480FFE4FEFDFC48
:101A6300EE33EF33F47004FCFD7E80D0E0FBD0E076
:101A7300FAD0E0F8D0E0CFC618CEC618CDC618CC41
:101A8300C6F92212167F70041818182212168E70C7
:101A93000D74FFF61819F61819F61819F622E754FB
:101AA3008066F6121645700F12164E70F014F60883
:101AB300F608F608F680D112164E700CF608F608F2
:101AC300768008E6447F80EC12166E700C12165A6C
:101AD30060BFE65480F6E480BB12165A70051919EC
:101AE3001980A5E869700C763F18768018F618F609
:101AF300E8F922E6CDC0E018ECC0E0E633CD33CD03
:101B0300D313F6E719FCE7191933CC33C3947F4099
:101B13000ECD9D502408E65480F6E418F6800FF4A9
:101B2300043D14501408E6447FF6187680E418F652
:101B330018F6D0E0FCD0E0FD22CCD313CCFD18E4A2
:101B4300C6CBC0E018E4C6CAC0E00808ED08C63337
:101B5300E613F618E433C675F003C3CA97CA09CB74
:101B630097CB199C40047D08802EBD0003021C2FD7
:101B730016B6FF050606081618C3CA33CACB33CBFD
:101B830033CA27CA09CB37CB193CC37D08803E181B
:101B93007D0820E75CC633C6CA33CACB33CB33DDFB
:101BA300F1D5F0EB30E77BCA97CA09CB974ACB193B
:101BB3009C406F4B7025E620E0218066187D08C3AA
:101BC300CA97CA09CB97CB199CD3C633C6CA33CAA3
:101BD300CB33CB3350C9DDE7D5F0E1D3E4C636C60A
:101BE30008C636C608C636C608C636C618181880CC
:101BF30031C3CA97CA09CB97CB199CB34097C63355
:101C0300C6CA33CACB33CB33DD34D5F02EC6A2E0FC
:101C1300C640C8CA27CA09CB37194A70BECB3CB4E1
:101C230080B90808E63308E633601F181818D0E0B7
:101C3300FAD0E0FBD0E0FCD0E0FD22187D08CA27F3
:101C4300CA09CB37CB193CD3808013F618E4B67F8F
:101C530011F618B6FF0EF618C60470D2080876807F
:101C630080CAF618F618F680C5080808EAC0E0EB43
:101C7300C0E086F0E7A4FA180986F0E7A42AFA1868
:101C83000986F0E7A42AFA180986F0E7A42AFA19C4
:101C930086F0E7A4FBE5F02AFA190886F0E7A42BFF
:101CA300FBE5F03AFA190886F0E7A42BFBE5F03AD6
:101CB300FA18180986F0E7A4C5F02BFBE43AFA19E1
:101CC30008E7C5F0C6A426F6E5F03BFBE43AFA18AC
:101CD30086F0E7A4F6E5F00826F6E43B08F6E43AD6
:101CE30008F6D0E0FBD0E0FA22E4CFC0E0E4CEC0B7
:101CF300E0E4CDC0E0E4CCC0E075F020E626F608D1
:101D0300E633F608E633F608E633F6181818EC332C
:101D1300FCED33FDEE33FEEF33FFC3EC9709ED9794
:101D230009EE9709EF97191919400FFFEC97FC0972
:101D3300ED97FD09EE97FE191906D5F0BFECF709EB
:101D4300EDF709EEF709EFF7191919D0E0FCD0E028
:101D5300FDD0E0FED0E0FF226016080808C6C313DA
:101D6300C618C613C618C613C618C613C6D5E0EAE6
:101D7300227009080808226016181818C6C333C64B
:101D830008C633C608C633C608C633C6D5E0EA223A
:101D9300E627F60809E637F60809E637F60809E6FE
:101DA30037F622E026F608A3E036F608A3E036F677
:101DB30008A3E036F622E026F008A3E036F008A3F5
:101DC300E036F008A3E036F022C3E697F60809E60A
:101DD30097F60809E697F60809E697F622C3E09610
:101DE300F008A3E096F008A3E096F008A3E096F0CD
:101DF30022E657F60809E657F60809E657F60809F2
:101E0300E657F622E056F608A3E056F608A3E05696
:101E1300F608A3E056F622E056F008A3E056F008D1
:101E2300A3E056F008A3E056F022E066F608A3E02C
:101E330066F608A3E066F608A3E066F622E0F60875
:101E4300A3E0F608A3E0F608A3E0F622E6F008A371
:101E5300E6F008A3E6F008A3E6F022E0FAA3E0FB2D
:101E6300A3E0FCA3E0FD22EAF0A3EBF0A3ECF0A3D4
:101E7300EDF022E0F8A3E0F9A3E0FAA3E0FB22E807
:101E8300F0A3E9F0A3EAF0A3EBF022CAC0E0E6F086
:101E9300A308DAFAD0E0FA22CAC0E0E0A3C582CCF4
:101EA300C582C583CDC583F0A3C582CCC582C58356
:101EB300CDC583DAE6D0E0CA22C3E498F8E499F901
:101EC300121EFD8026C3E49AFAE49BFBE920E7E9AE
:101ED300121EFDE498F8E499F922C3E498F8E49912
:101EE300F9121EFDE498F8E499F9C3E49AFAE49B25
:101EF300FB22EB20E7CFE920E7E0B90010BB0008A5
:101F0300E88AF084F8AAF022E4FBC8FA22EB7022F4
:101F13007B10C833C8C933C9335007C39AC3DBF234
:101F230080069A50012ADBEAC833F4C8C933F4C9DE
:101F3300FA2275F008E4C833C8C933C933C99AC94A
:101F43009B5004C92AC93BD5F0ECFBC833F4C8E461
:101F5300C9FA22600D08C6A2E713C618C613C6D570
:101F6300E0F322600C08C6C313C618C613C6D5E037
:101F7300F422700422600D18C6C333C608C633C6E4
:101F8300D5E0F41822252110AF08F521400C1522C5
:101F93008008F52140021522D2AF2200C0D02521AE
:101FA30010AF08F521500C05228008F521500205D9
:101FB30022D2AFD0D0222521F58210AF08F52140DF
:101FC3000C15228008F52140021522D2AF85228309
:101FD300222521F582E43522F583222521F8E435F3
:101FE30022F9222521FAE43522FB222521FCE435BE
:101FF30022FD22E4732521C582C0E0E52234FFC51A
:1020030083C0E0E521C3958224F810AF08858322BD
:102013008582218008858322858221D2AFCEF0A3D9
:10202300E520F0A37808E608F0A3DEFAEFF0A3E5D5
:102033008124FAF8E608F0A3E608F0A3E608F0A383
:102043000808E608F0A3E608F0A315811581D0E09F
:10205300FED0E0F8158115811581E8C0E0EEC0E0FF
:10206300222521C582C0E0E52234FFC583C0E0E517
:1020730021C3958224F910AF0885832285822180AC
:1020830008858322858221D2AFCEF0A3E520F0A379
:102093007808E608F0A3DEFAEFF0A3E58124FBF865
:1020A300E608F0A3E608F0A30808E608F0A3E608AC
:1020B300F0A315811581D0E0FED0E0F815811581DC
:1020C300E8C0E0EEC0E022852283852182E0A3FE02
:1020D300E0A3F5207808E0A3F608DFFAE0A3FFE029
:1020E300A3C0E0E0A3C0E0E0A3C0E0E0A3C0E0E061
:1020F300A3C0E010AF0885822185832280088582F2
:1021030021858322D2AFD083D082020132852283FC
:10211300852182E0A3FEE0A3F5207808E0A3F6087A
:10212300DFFAE0A3FFE0A3C0E0E0A3C0E0E0A3C0C8
:10213300E0E0A3C0E010AF088582218583228008F8
:10214300858221858322D2AFD083D08222C0D0253D
:1021530021C582C0E0E52234FFC583C0E0E521C389
:10216300958224F310AF0885832285822180088518
:102173008322858221D2AFC8F0A3E9F0A3EAF0A3BA
:10218300EBF0A37908E709F0A3D8FAECF0A3EDF09C
:10219300A3EEF0A3EFF0A3D0E0F0A3D0E0F0A3D040
:1021A300E0F0A3E520F0A3E5F0F0A32285228385E8
:1021B3002182E0C0E0A3E0F9A3E0FAA3E0FBA37867
:1021C30008E0F608A3DFFAE0FCA3E0FDA3E0FEA32A
:1021D300E0FFA3E0C0E0A3E0C0E0A3E0F5D0A3E00C
:1021E300F520A3E0A3F5F010AF08858322858221B3
:1021F3008008858322858221D2AFD082D083D0E02C
:10220300F8D0E03274048006740280027401C0E0E6
:10221300F404121FB9D0E0121E8E227404800474D9
:10222300028000CCC0E0EDC0E0E521C39CCCAD2230
:1022330050011D10AF068C218D2280068C218D222A
:10224300D2AF121E9BD0E0FDD0E0FC22D083D0821F
:10225300E9C0E0E493A3C386F0C5F095F0F908E480
:1022630093A386F0C5F095F0700BE493A3C3994054
:1022730005E9048002A3E475F002A42582F582E552
:10228300F03583F583D0E0F9E493A3C0E0E493C091
:10229300E022D083D082ECC0E0EDC0E0E493A3FC65
:1022A300E493A3FDED4C600D1222E1EC24FFFCED61
:1022B30034FFFD80EFE493A3FCE493A3FDED4C60B6
:1022C3000D122320EC24FFFCED34FFFD80EFD0E062
:1022D300FDD0E0FCE493A3C0E0E493C0E022C0E0BF
:1022E300C3E49396087401939618400FE4936670C1
:1022F3000808740193661870007019A3A3C3E493CC
:1023030096087401939618A3A3400DD0E0D0E0D0B3
:10231300E00222D1A3A3A3A3A3A3D0E022C0E0C0E1
:10232300F088F0E4936670080874019366187000EF
:10233300A8F0A3A3700BD0F0D0E0D0E0D0E002224D
:08234300D1A3A3D0F0D0E022E9
:10234C0074F6122064EAFEEBFF8C088D09EE24343F
:10235C00F8E43FF9E8FCE9FDEE2435122641FAEEEB
:10236C002437122641F88508F0A4C885F00A85099F
:10237C00F0A4250AF9EA28F8E439F97A257B001249
:10238C001EFDEA8C828D83F0FA131313541FF8EEA2
:10239C0028F8E43FF9E8245DF582E439F583E0C0E0
:1023AC00E074075AF8D0E0B800028004C313D8FCDC
:1023BC00A2E0EE50082434F582E43F801824361253
:1023CC002641F5F0EA84A8F0EE28F8E43FF9E82479
:1023DC0038F582E439F583E0F97F0302211074F7B4
:1023EC00122064EAFEEBFFEE2434122641C0E0EE2C
:1023FC002435F582E43FF583D0E0F08E828F83A301
:10240C00A3A3A3A3A3A3C082C0838E828F83A3A301
:10241C00A3A3A31224B2D083D082E0C398F508A35F
:10242C00E099F509EE247F1226416401705DEE24DB
:10243C00801224AC8E828F83A3A3A3A3A3A3A31285
:10244C0027E48E828F83A3A3A3A3A3E0FAA3E0FBCC
:10245C00C3EA9CEB9D5010C3EC98ED99402DC3EA58
:10246C0098EB995026800EC3EA98EB994007C3EC81
:10247C0098ED9940167CBD7D06EEFAEFFB120B2D04
:10248C00EE247FF582E43FF583E4F0AC08AD09EE71
:10249C00FAEFFB12234CE9F9122EA67F020221104F
:1024AC00F582E43FF583E0F8A3E0F92274EF122003
:1024BC0064900369E064086005E06407702A906129
:1024CC00C8E06024900397E0F4601DE0F875F00C10
:1024DC00A4C8AAF02AF9749928FE740339FF8E82D5
:1024EC008F83A3A3A3E070030225C6906060E0C0B5
:1024FC00E0EE2468F582E43FF583D0E0F0750CF94A
:10250C00750D06750800750900E5D914F50AE5D9AD
:10251C005403F50E60127403650E6043E50A600AFD
:10252C00EE2467122641700280759006F4E0640177
:10253C00601F12263E60047A0480027A00E50AC30A
:10254C009AFA95E0FB1209D78A088B09EA450970BB
:10255C0005120DC7806412263E70048A0C8B0DE5A3
:10256C000A6012850C82850D83F50BE5D9F0A31555
:10257C000BE50B70F612263E604474FC250AF50A36
:10258C00780C12220BAC0AA90EEEFAEFFB120BF32D
:10259C007402121F9EE97026AA08AB0912146979FD
:1025AC003D8E828F83A3A3A3A3E0FA7B0012085174
:1025BC00EEFAEFFB120B51120C537900806F74037F
:1025CC00650E6051850A10751100781012220BAC43
:1025DC000CAD0DAA08AB09120BB77402121F9EEEBC
:1025EC00246812264164807004747F8001E0F50C2D
:1025FC00780C12220FE50EF50C780C12220FA90A9A
:10260C00AC08AD09900397E0FA7B00120821740224
:10261C00121F9E8013900369E06408700BAC0CAD24
:10262C000DEEFAEFFB120C23120DD379017F0A0287
:10263C002110EE2482F582E43FF583E02274F2123D
:10264C00206474FC121F88EAFEEBFF8909A2AFE438
:10265C0033F508C2AF022705E0601B780C12220B81
:10266C00AC0BA90EEEFAEFFB120BED7402121F9ECF
:10267C007404250BF50B7401250BF5D9850ED9E5E2
:10268C000B6018F50A850C82850D83E0F5D9A385BE
:10269C00820C85830D150AE50A70EA75E195EE2426
:1026AC0063F8E43FF97A007B00A2AFE433F50BC288
:1026BC00AF1227E0EC4D603288828983E0FAA3E008
:1026CC00FB8A828B831227E488828983ECF0A3ED4A
:1026DC00F08A828B83E4F0A3F01227E0EC4D700AB1
:1026EC0088828983A3A3E4F0A3F0E50BA2E092AF68
:1026FC001214699006C4E004F0EE24631224ACE8D2
:10270C00496064EE24631226412402F8A3E03400ED
:10271C00F988828983E5822402F50CE43583F50D72
:10272C00E0F50BA3E0F50EEE246212264164017075
:10273C00369061D0E0F812263E60047C0480027C66
:10274C00007480C398FA95E0FBE50B2CF8E4340098
:10275C00F9E82402F8500109C3EA98EB99A2D26572
:10276C00D03340030226649006C4E0604D9006C549
:10277C00E0F89006C4E0C398500C74026509703AF6
:10278C009006C6E060348E828F83A3A3A3A3E0855A
:10279C0021828522831227D67402121FD4E81227B5
:1027AC00D69006C3E028F07402121FEEAA21AB22C9
:1027BC00790112087B9006C4E4F0E508A2E092AF20
:1027CC007404121F9E7F07022110F0A3E4F0900600
:1027DC00C4E0F82288828983E0FCA3E0FD2200009B
:1027EC008524878525C622C0E074EB122150A2AF48
:1027FC00E433F508C2AF759B00906182E0A2E05013
:10280C0030E591A2E0502A7591FE74016524702187
:10281C00122986120CEF12297412221E122DE27448
:10282C0004121F9EE9640170057901120D2B12240C
:10283C00B8906182E0A2E5505DE591A2E550577534
:10284C0091DF900369E064076005E06408702F1263
:10285C00298674016524703E120CEF122974122221
:10286C001E122DE27404121F9EE964017005790199
:10287C00120D2B7901EEFAEFFB1226498018E06459
:10288C000D701390038BE004F064287002E4F07A6E
:10289C0000E0F9120DD9906182E0A2E64003022912
:1028AC0049E591A2E640030229497591BF9003695D
:1028BC00E064057008120CD7120CE38003120CDDD7
:1028CC00752400120D49E990036AF07900120D2B62
:1028DC00120A977A017B00900368E0F9121031908C
:1028EC007803E0644270569006F8E014F0704EC223
:1028FC00AF122900007827D0E0F618D0E0F6E59F5B
:10290C005407F87005750DFF8003750D7FC4C0E08A
:10291C007826E6F50A08E6550DF50B740B780A12C5
:10292C001F66D0E0250AF8906270E0A2E740F8E854
:10293C00C333906272F0906270E0D2E0F0906181EB
:10294C00E0A2E35009E5E9A2E3500375E9F7A3E03F
:10295C00A2E75009E591A2E7500375917FE508A223
:10296C00E092AF7F080221AF8E828F83E0F8A3E064
:10297C00C82416F582E438F58322900397E0F875A5
:10298C00F00CA4C8AAF02AF9749928FE740339FF34
:10299C0022C0E0C0D0C082C083906183E0A2E0502E
:1029AC0009E5BFA2E0500375BFFEE0A2E15009E5C6
:1029BC00BFA2E1500375BFFDE0A2E25009E5BFA242
:1029CC00E2500375BFFBE0A2E35009E5BFA2E35060
:1029DC000375BFF7E0A2E45009E5BFA2E45003750C
:1029EC00BFEFE0A2E55009E5BFA2E5500375BFDFDC
:1029FC00E0A2E65009E5BFA2E6500375BFBFD08345
:102A0C00D082D0D0D0E032C0E074F2122150E5A7D1
:102A1C00A2E6500FE5A1A2E6500953A7BF75A1BFCE
:102A2C00122A67E5A7A2E5500CE5A1A2E5500653D2
:102A3C00A7DF75A1DFE5A7A2E15009E5A1A2E1504E
:102A4C000375A1FDE5A7A2E2500CE5A1A2E2500698
:102A5C0053A7FB75A1FB7F010221AF74F712206411
:102A6C00752401900369E064067015120C778A8254
:102A7C008B83A3A3A3A3A3A3E0FAA3E0FB120CC52F
:102A8C00A2AFE433FED2AF90036FE0640170187A0A
:102A9C00207B00900368E0F91210C77A207B00902D
:102AAC000368E0F9121037906182E0D2E6F09006EC
:102ABC00F5E0602185C625801690036EE0640170F8
:102ACC0008E5C654F84405F5C653BEFC1227EC7451
:102ADC0001652460E4EEA2E092AF7F020221107443
:102AEC00E912206474FA121F88EAFEEBFF8C0A8D3F
:102AFC000B120CFBEAF8EBF9ECFAEDFB8E828F83F0
:102B0C00121E82900369E024F7C3940550067514D5
:102B1C0001022C52120C778A088B09EA45097003C2
:102B2C00022C4FEEFCEFFDAA21AB22120CF585080E
:102B3C0082850983A3A3780C121E40908D70780CAB
:102B4C00121E078521828522837810121E40908DDB
:102B5C00707810121E07780C791012151A501F7805
:102B6C000C7910121DCC908D28780C12153A404718
:102B7C00850C14850D15850E16850F178045908DC7
:102B8C00288510148511158512168513177814795C
:102B9C000C121DCC781412153A501C7514007515B6
:102BAC000075160075170178147910121DCC781465
:102BBC00790C121D93800C75140175150075160097
:102BCC0075170074097814121D74908D54780C12BA
:102BDC001E407814790C121CEC850882850983A39D
:102BEC00A3A3A3A3A3122C70121EFD880C890DE4C1
:102BFC00F50EF50F7814790C121D937404121FD472
:102C0C00122C70121EFDE8FA8A0CE4F50D7814797A
:102C1C000C12151A50077814790C121DCC900369FC
:102C2C00E06408600AE064066005E06405702090CA
:102C3C008D24781412153A5016908D1C7814121D90
:102C4C00A6800C7514007515007516007517008597
:102C5C000A82850B837814121E4F7406121F9E7FF6
:102C6C0010022110E0F8A3E0F97AD07B032274F76C
:102C7C00122064120D0D9006F3E064017010906246
:102C8C0045E4F0A3F053F4F343FE0C5390F3120C11
:102C9C00B3E5C654B84441F5C6E59E54476441704B
:102CAC00F8906185740FF09006F1E0F47002A3E0E7
:102CBC00604E9006F2E0600814601B14602E804099
:102CCC007508017509009006F1E07808121F75E58A
:102CDC0008F45280802A7508017509009006F1E00D
:102CEC007808121F75E508F4529080147508017568
:102CFC0009009006F1E07808121F75E508F452A05F
:102D0C0079007F0202211074F7122064E9FEEAFFB9
:102D1C00120D0D74016E700C7A807B00900368E0CC
:102D2C00F9121031902FCCE493F46008E493F9126B
:102D3C000A8B800953C6B8E59E544770FA120CB939
:102D4C009006F3E064017003120AA99006F1E0F416
:102D5C007002A3E0604B9006F2E0600814601A1455
:102D6C00602C803D7508017509009006F1E078082B
:102D7C00121F75E5084280802875080175090090BE
:102D8C0006F1E07808121F75E5084290801375086B
:102D9C00017509009006F1E07808121F75E50842EC
:102DAC00A0120C778A088B09A808A909E8496014B5
:102DBC00E5E170FCE82414F582E439F583E0F46075
:102DCC0003E0F5E174016F700A7A01900368E0F991
:102DDC00121097022D0E74F11220648A088B098C44
:102DEC000A8D0B908D707808121E07740F121FD469
:102DFC00780C121E40908D70780C121E0778087992
:102E0C000C12151A908D2850107808790C121DCCC4
:102E1C00780812153A4014800E780C7908121DCCE3
:102E2C00780C12153A50047901800279007F08025F
:102E3C00211074ED1220648A088B098C0A8D0B907A
:102E4C008D707808121E077413121FD4780C121E82
:102E5C0040908D70780C121E07780C790812151A98
:102E6C0040117808790C121DCCAA08AB09AC0AAD3C
:102E7C000B80227510007511007512007513017806
:102E8C0010790C121DCC78107908121D93AA10AB76
:102E9C0011AC12AD137F0C022110C082C083E990DB
:102EAC006000F0D083D08222C2AF02000022C0E0CA
:102EBC0074F2122150A2AFE433FED2AFC2C0E5D1FE
:102ECC00A2E4500653D1EF1213CD752300EEA2E00D
:102EDC0092AF7F010221AFC0E074F2122150E5A83D
:102EEC00FED2AF1212D7C2EBEEA2E7A2E792AF7FEF
:102EFC00010221AFC0E0C0D0E8C0E0E9C0E0E5A825
:102F0C00D2AFC2C7752300A2E7A2E792AFD0E0F917
:102F1C00D0E0F8D0D0D0E032C0E074F2122150A250
:102F2C00AFE433FED2AF758900C2C59019FD7401B0
:102F3C00F0752300FA9019CDE0F9121097122FBEFC
:102F4C007003A3E0697002D285EEA2E092AF7F011C
:102F5C000221AFC0E074F2122150A2AFE433FCD2D4
:102F6C00AF122FBE7003A3E069700A539AFB901B3B
:102F7C00C574018039C2E9901BC1E0F8A3E0F9E8FF
:102F8C002401FAE439FB901BC1EAF0A3EBF0743195
:102F9C0028F582741A39F583E0F5C1901BC1C3E0A2
:102FAC009490A3E094014007901BC1E4F0A3F0ECD3
:0E2FBC008098901BC1E0F8A3E0F9A3E0682222
:102FCC00FFFFFFFFFFFFFFFFC082C083E9901CDE05
:102FDC00F0D083D08202013274F6121FF8E990020D
:102FEC00DCF090033BE0F5087509007402780812D8
:102FFC001F75AA08AB0912106D9002DD123997905B
:10300C0002DD123D84606F90033BE075F003A4FA7F
:10301C00ABF012106D9002FA1239979002FA123D31
:10302C0084700B9002DD123D551210738048900293
:10303C00FA124CE97AFF7BFF12124D7A0080198A42
:10304C000875090074027808121F7512479174FFF5
:10305C00123197E4F0A3F00A90033BE0F8EAC3982E
:10306C0040DD79051207199002DCE0F91206057AA9
:10307C00A37B0712097702483474F4121FF88A08EC
:10308C008B09EB548060479002DCE0F91210198A2E
:10309C000A8B0BAE0AAF0BEE4F602A8E828F83E049
:1030AC0064B0701A12072BE960148E828F83A3A36D
:1030BC00A3A3E0F9EE2405FAE43FFB1206FBEEFABB
:1030CC00EFFB121007AA08E5096480FB80047A0064
:1030DC007B000232E774F2121FF874FB121F88EAAD
:1030EC00FEEBFFEE4F60457403121FD4EEF0A3EF1E
:1030FC00F0852182852283ECF0A3EDF07402121F7F
:10310C00D4E9F0AA21AB221205FFE9F50870757419
:10311C0013121FD4E0F50AA3E0F50BE50A450B608A
:10312C00638E828F83123720EE4F700575080280F4
:10313C00537A067B0012106D8A0C8B0DA80CA90D0E
:10314C00E8497005750813803B88828983E4123145
:10315C0097EEF0A3EF1232B3E50AF0A3E50BF09073
:10316C0002E01232AC9002E06017E0FCA3E08003B6
:10317C00EAFCEBFD8C828D831232AC70F38C828D69
:10318C00831243ACA9087405024F69F0A3124CCB0F
:10319C00A32274F2121FF88908890C750D007403B0
:1031AC00780C121F75850C0A850D0B9002DFF090C0
:1031BC0002DD1241B71232AA602E12107379008010
:1031CC001D890C750D007402780C121F759002DDB0
:1031DC001246508882F583A3A3E4F0A3F009900370
:1031EC003BE0F8E9C39840D990033BE0FA850AF03C
:1031FC00A4CAA8F0850BF0A428FB12106D8A0C8BC6
:10320C000DAE0CAF0DEE4F70030232A090033BE0FD
:10321C00FC850AF0A4CCA8F0850BF0A428FD79005D
:10322C00120FF57C0080318D0C750D007403780C39
:10323C00121F758A828B831232A588828983E4F0EF
:10324C001232B2A3A3F0A3F00DEDC3950840D8EE53
:10325C00250AFEEF350BFF0C90033BE0F8ECC3980E
:10326C0050288C0C750D007402780C121F7590028E
:10327C00DD1232A5E82402500109FAE9FB8A828B9F
:10328C0083EEF0A3EFF07D0080BFE5089002DFF045
:10329C00790080027913024F6C124654F922A3A3D1
:1032AC00123D59EA4B22A3124CCBA3A3A32274F4D4
:1032BC00121FF87900EAA2E0501F7508CE75098C30
:1032CC00780812220B79107C047D007AE07B1C12AA
:1032DC0007137402121F9EE9F980007F040220CAB2
:1032EC00C082C0839002E0123D84601C8882898376
:1032FC00A3A3E06A7003A3E06B8882898370E8A3C0
:10330C00A3A3A3123D5580047A007B00022FDD7429
:10331C00F2121FF874FD121F88EAFEEBFF85218262
:10332C00852283E4F0A3F07402121FD47401F0120E
:10333C003D8170141208C912106D9002E312399776
:10334C00123D8170030234AD123A97EE2404F50A53
:10335C00E43FF50B850A82F583E024FE603C24FCF7
:10336C00607424FE607E24FE70030233FD24FE7024
:10337C000302340A24FE700302341724FE70030285
:10338C00342424FE700302343124FC7003023452C2
:10339C0024FE700302346A0234A61208C99002E5B6
:1033AC00EAF0A3EB1234B9120275E960030234A6F9
:1033BC009002E51222228E828F83A3A3A3A3A312D1
:1033CC004CE9850882850983123D551206E3740287
:1033DC00121F9E0234A6AC21AD22EEFAEFFB1207AF
:1033EC0031023475AC21AD22EEFAEFFB12073780B7
:1033FC0078AC21AD22EEFAEFFB12073D806BAC21CD
:10340C00AD22EEFAEFFB120743805EAC21AD22EE4B
:10341C00FAEFFB1207498051AC21AD22EEFAEFFB1B
:10342C0012074F80447402121FDE880C890D780C31
:10343C0012220B7402121FEEEEFAEFFB12075574F8
:10344C0002121F9E8023AC21AD22EEFAEFFB120775
:10345C005BE9F870167402121FD4E4F0803CAC21C6
:10346C00AD22EEFAEFFB120761E9F8E8602C8E82D0
:10347C008F83A3E064146022850A82850B83E0901D
:10348C0002E5F0852182852283123D559002E612D9
:10349C003997E8A31234B912026FEEFAEFFB120659
:1034AC00B97402121FD4E0F97403024F69F07CE581
:1034BC007D02850882850983123D592274E8121F0A
:1034CC00F874FA121F887404121FD4ECF0A3EDF0F8
:1034DC008A128B13EA2405F50EE43513F50FEA2452
:1034EC0002F510E43513F511851082F583123D5564
:1034FC001203AD8A0A8B0B7508007C037D007900E2
:10350C007AE57B02120FF5E50E2402F516E4350F71
:10351C00F5177402121FDE880C890D780C12220B21
:10352C00850E82850F83A3A3A3A3E0F50C750D0074
:10353C00780C12220BE50E2405F50CE4350FF50D75
:10354C00780C12220B85168285178312405C1206AA
:10355C001D7406121F9E8A0C8B0DE50C450D700315
:10356C000236E98020852182852283E08882898346
:10357C00F00508852182852283A3E0C0E012372A5A
:10358C00D0E0F00508E50A24FBFAE50B34FFFBC399
:10359C00E5089AE49B40030236E97E007F00851221
:1035AC0082851383A3A3A3A3E0F509780912220F44
:1035BC00E4F514F515781412220B7514E275150246
:1035CC00781412220B9002E31222227409121FD4D7
:1035DC00122222E50A24F9F9AC0CAD0D8510828576
:1035EC001183123D5512078B7409121F9EE960035B
:1035FC0002368A850E82850F83A3A3A3A3A3A3A35C
:10360C00E0F89002E2E0687075E0F5148E1578141D
:10361C0012220B124CE6850E82850F83A3A3A3A363
:10362C00A3A3A3A3123D55120FEF7402121F9EE920
:10363C00604C9002E6123D84703BE4F51478141251
:10364C00220B7CFF7DFF7907851082851183123D4B
:10365C00551206F57402121F9E123D8A7017850EC4
:10366C0082850F83124E837404121FD412474412A6
:10367C00408D02371D850C82850D83123720A821C1
:10368C00A92288148915781412220B7404121FD4E1
:10369C0012222285168285178312398D12062974FF
:1036AC0004121F9E8A0C8B0DEE4F700302356612AE
:1036BC00372AEE123735124043EF123735F8A3E0B4
:1036CC003400F9E50C450D6003023571888289835D
:1036DC0074FFF0050812372A74FFF00508E508603E
:1036EC001A1313543F12399D120281E9600990029A
:1036FC00E6123D5512146979008016850E82850FED
:10370C0083124E837404121FD41247441243AC79B3
:10371C000A024016A3A3A3A3E0FEA3E0FF22A8087D
:10372C009002E6E02812404322F00508089002E6D9
:10373C00E0282274E8121FF874FA121F887402121F
:10374C001FD41239977404121FD4ECF0A3EDF0744B
:10375C0002121FD4E0240512402CE0F50CA3E0F576
:10376C000D7402121FD4E02402F510A3E03400F50E
:10377C0011851082F583123D551203AD7508007545
:10378C000900EA24FCFEEB34FFFF8008050CE50C75
:10379C007002050DA808C3EE98EF9400500302398F
:1037AC0049A821A922880E890F780E12220B8514A4
:1037BC0082851583A3A3A3A3124CED12220BE5144F
:1037CC002405F50EE43515F50F780E12220B851431
:1037DC008285158312398B12061D7406121F9E8A60
:1037EC000E8B0FEA450F7003023949EA2404F516D3
:1037FC00E4350FF517851682F583E0F50CA3E0F59B
:10380C000D852182852283124CE98A828B83A3A3A6
:10381C00A3E0F9851082851183123D5512060BE940
:10382C00F50960030239497402121FD4124053F592
:10383C0009780912220FE4F512F513781212220BF3
:10384C007512E2751302781212220B9002E3122207
:10385C00227407121FD4122222EEF9AC0EAD0F8582
:10386C001082851183123D5512078B7409121F9E0D
:10387C00E9F5096003023949E508703FE4F50EF5F6
:10388C000F780E12220B7CFF7DFF79098510828543
:10389C001183123D551206F57402121F9E124079C7
:1038AC00700D7404121FD4123980791102397D9075
:1038BC0002E2E024029002E6F080149002E6E0FAC4
:1038CC009002E2E0790024025001096A497072A862
:1038DC00089002E2E0FAE82AFAE43400FBEE9AEFF0
:1038EC009B405A851682851783E0C0E09002E71250
:1038FC00372FD0E0F00508851682851783A3E0C02A
:10390C00E0089002E712372FD0E0F005089002E2B1
:10391C00124CED12220B124CE6A808124020120F8A
:10392C00DD7402121F9E9002E2E02508F50874FF78
:10393C00650C700474FF650D6003023798E5086030
:10394C001F9002E6E0F5F0E5088412399D1202871B
:10395C00E960099002E7123D551214697900801153
:10396C00E509700375090A7404121FD4123980A971
:10397C00090240161241BBE50CF0A3E50DF022A3A1
:10398C00A3124F78AA0CAB0D22A3A3EAF0A3EBF081
:10399C00229002E5F07CE57D028510828511831270
:1039AC003D592274EC121FF874FC121F881244BC8F
:1039BC007402121FEE123D4F1206238A0C8B0DEA75
:1039CC00450D7003023A87123A97A821A922881054
:1039DC008911781012220B7CFF7DFF790B850882F0
:1039EC00850983123D551206F57402121F9E123B77
:1039FC008D700C850A82850B8312408A023A948E54
:103A0C00828F83A3A3A3A3E0F512781212220FE4F2
:103A1C00F512F513781212220B7512E57513027854
:103A2C001212220B781012220B7409121FD41222BC
:103A3C00227409121FD4E0F9AC0CAD0D85088285F7
:103A4C000983123D5512078B7409121F9EE9FE70F3
:103A5C00157CE57D02850882850983123D5512028D
:103A6C008DE97009802074166E70027E009002E65B
:103A7C00123D55121469EE7004800B7E01850A828A
:103A8C00850B831243A9EEF90243BEEE2402F5081E
:103A9C00E43FF5092274EC121FF874FC121F88EA3B
:103AAC00FEEBFF8C0E8D0FEE2405F508E43FF509B7
:103ABC007402121FEE850882850983123D55120689
:103ACC00238A0C8B0DEA450D7003023B7DEE24021C
:103ADC00F50AE43FF50BA821A9228810891178106A
:103AEC0012220B7CFF7DFF790D123D4F1206F574EF
:103AFC0002121F9E123B8D700B8508828509831262
:103B0C00408A807A8E828F83A3A3A3A3E0F51278D8
:103B1C001212220F850882850983A3A31222227513
:103B2C0012E5751302781212220B781012220B7404
:103B3C0009121FD41222227409121FD4E0F9123D6B
:103B4C004B12078B7409121F9EE9FE700F7CE57DEA
:103B5C0002123D4F120293E97009802074166E70A8
:103B6C00027E009002E6123D55121469EE7004803C
:103B7C000B7E018508828509831243A9EEF9024365
:103B8C00BE123D94F510A3E0F511EA45112274E83C
:103B9C00121FF874FE121F888A168B178C148D1541
:103BAC00EA2405F50CE43517F50DEA2402F50EE4CC
:103BBC003517F50F850E82F583123D551203AD8A2C
:103BCC00088B09750B007C037D0079007AE57B027C
:103BDC00120FF5750A00E50814F5100424FFF5081A
:103BEC00E50934FFF50980549002E5E0FA9002E211
:103BFC00E0F8EA28F8E43400F9E50898E50999506A
:103C0C000D9002E5E0F8E510C3989002E2F0E0F5C3
:103C1C0012751300781212220B124CE69002E6E099
:103C2C002AFAA3E03400FB120FDD7402121F9E90DF
:103C3C0002E2E0F89002E5E028F0050A850C8285A6
:103C4C000D83A3A31246604003023D309002E5E0D1
:103C5C00C39508E495094003023D30AE0AEE2EFEF2
:103C6C00E433FF123D6FAC21AD22124D01E439FB60
:103C7C001206238A128B13AC12AD13EC4D701B750C
:103C8C000B01123D5F1243AD9002E61232AC6003A1
:103C9C00121469A90B7402024018851682851783C9
:103CAC00A3A3A3A3E0F50B780B12220FE4F512F5F6
:103CBC0013781212220B7512E2751302781212226B
:103CCC000B9002E31222227407121FD4122222A993
:103CDC0010850E82850F83123D5512078B740912C5
:103CEC001F9EE9F50B709B9002E6123D8460030267
:103CFC003BF4E4F512F513781212220B7CFF7DFFD6
:103D0C00790F850E82850F83123D551206F57402CC
:103D1C00121F9E123D8A6003023BF4123D5F12405B
:103D2C008E023CA17CE57D02850E82850F83123DBF
:103D3C0055120299E96003023C947900023CA1AC53
:103D4C000CAD0D850A82850B83123D5922E0FAA336
:103D5C00E0FB22123D6FE0FAA3E0F9EA85148285BC
:103D6C00158322850C82850D83E02EF8A3E03FF9A4
:103D7C0088828983229002E3124E87E84922123D01
:103D8C0094F8A3E0F9E849229002E6EAF0A3EBF0FC
:103D9C009002E6E02274E8121FF874FA121F88747D
:103DAC0004121FD41239978C168D177404121FD459
:103DBC00E02405F50EA3E03400F50F7404121FD4B3
:103DCC00E0240212402C123D551203AD8A0A8B0BD3
:103DDC007F007E00A821A922880889097808122270
:103DEC000B850E82850F83A3A3A3A3E0F5088E0990
:103DFC00780812220BE50E2405F508E4350FF509B9
:103E0C00780812220B850E82850F83A3A312405CC7
:103E1C0012061D7406121F9E8A0C8B0D80291240EF
:103E2C004DF00F12404DF00F9002E2124398122207
:103E3C000B124CE6EFF8124020120FDD7402121F29
:103E4C009E9002E2E02FFFE50C450D7003023EDC74
:103E5C008521828522831244CEA3A3A3E0F9851485
:103E6C0082851583123D5512060BE9FEE50C2404E0
:103E7C00F510E4350DF511EE70507404121FD412C8
:103E8C004053F508780812220FE4F508F509780874
:103E9C0012220B7508E2750902780812220B9002A7
:103EAC00E31222227407121FD4122222E50A24FAEA
:103EBC00F9AC0CAD0D851482851583123D55120796
:103ECC008B7409121F9EE9FE60391240691243ACD3
:103EDC00EF70030240039002E6E0F5F0EF849002ED
:103EEC00E5F07CE57D02851482851583123D551223
:103EFC00029FE960099002E7123D5512146979009E
:103F0C000240168F08EF703BE4F512F5137812128D
:103F1C00220B7CFF7DFF7911851482851583123D60
:103F2C00551206F57402121F9E1240797009124048
:103F3C006912408D0240169002E2E024049002E6E1
:103F4C00F080359002E2E0F89002E6E0FAE8240412
:103F5C00FCE43400FDEC6A4D6003023EE2E50A2409
:103F6C00FAFAE50B34FFFBE50828F8E43400F9EA2B
:103F7C0098EB995003023EE2851082851183E0C0D4
:103F8C00E09002E7E02FF8A3E034008882F583D0BC
:103F9C00E0F00F851082851183A3E0C0E012403A57
:103FAC00D0E0F00F7402121FDE880889097808121D
:103FBC00220B7402121FD4122222850E82850F83CB
:103FCC0012398B1206297404121F9E8A0C8B0DEA6F
:103FDC00450D7003023E2A7402121FD4E0C0E01299
:103FEC00403AD0E0F00F7402121FD4A3E0C0E012EC
:103FFC00403AD0E0023E32EE70027E0A850E828597
:10400C000F8312406F1243ACEEF97406121F9E7FA1
:10401C00100220CA9002E7E028FAA3E03400FB2249
:10402C00F514A3E03400F515851482F583221240B3
:10403C003E229002E7E02FFAA3E034008A82F58357
:10404C002212403E74FF221241BBA3A3A3A3E02281
:10405C00124F78850E82850F83123D59228510826E
:10406C00851183124E87851682851783229002E76D
:10407C00EAF0A3EBF09002E7124E87E849221243D4
:10408C00B2E8F0A3E9F079112274EA121FF874FE79
:10409C00121F888A088B098C128D13EA2405FEE402
:1040AC003509FFAC21AD228E828F83123D5512064D
:1040BC00238A0C8B0DEE2406F50EE43FF50FEA4532
:1040CC000D700302418DE5082402F50AE43509F56B
:1040DC000B8A828B83A3A3A3E0A2E55028852182BF
:1040EC00852283123D5512077F8A108B11EA4511E8
:1040FC0060207912123D4B851082851183121FF6B8
:10410C00E9F50C707F850E82850F83E0600979528A
:10411C008011750C0E806D850882850983A3A3A37D
:10412C00A3E0F9E4F508F509780812220B8E828FCA
:10413C0083A3A3E0F508780812220B8E828F83A349
:10414C00A3A31222228E828F83124CE9123D4F12AE
:10415C0007917406121F9EE9F50C7011850E82856D
:10416C000F83E0702D123D4F1202A5802574166549
:10417C000C7011750C007418121FD41241B7E48026
:10418C0010750C01124E7F851282851383E8F0A303
:10419C00E9F0850E82850F83E0600479008002A926
:1041AC000C7402121F9E7F0E0220CA1241BB22E029
:1041BC00F8A3E0F58388822274EC121FF874F712CE
:1041CC001F888A0A8B0B8C108D11EA2405FEE435AE
:1041DC000BFF750C00AC21AD228E828F83123D55E6
:1041EC001206238A088B09EA45097003024383E50A
:1041FC000A2402F50A5002050B8A828B83A3A3A31F
:10420C00E0A2E5502F852182852283123D551207AD
:10421C007F8A0C8B0DEA450D604F7912AC08AD0905
:10422C00123D4F850C82850D83121FF6E9F50C604B
:10423C0003024386850A82850B83E0F508A3E0F52B
:10424C0009AA08FB120773EA4B70197AFF7BFF125D
:10425C000773EA4B70030243798A828B83E508F07B
:10426C00A3E509F07508008008750C0E024386055D
:10427C00089002DFE0F8E508C39840030243798513
:10428C00080E750F007403780E121F758A828B83CB
:10429C00A3A3E0250EF8A3E0350F12474D70D08E86
:1042AC00828F831243A11239978E828F83A3A3121C
:1042BC0043A1123995EE2404F508E43FF50985086D
:1042CC0082F583E088828983A3A3A3A3F0A3E4F0FF
:1042DC00EE2405F50EE43FF50F850E82F5831243AF
:1042EC00A1A3A3A3A3123995751207751300781215
:1042FC0012220BEEFCEFFD7404121FE6120FDD749C
:10430C0002121F9EE4F512781212220B8508828588
:10431C000983E0FC7D007917123D4F1206F57402FB
:10432C00121F9E7407121FD41239977407121FD4D0
:10433C00E0FA4B603D85088285098312439812226E
:10434C000B850E82850F83124CE9120FDD7402125D
:10435C001F9E7402121FEE123D4F1202ABE9602633
:10436C007407121FD4123D551214698019750C096B
:10437C008008750C118003750C01124E7F8510821C
:10438C008511831243ACA90C74098028E0F50875DB
:10439C000900780822123D5988828983221243B27F
:1043AC00E8F0A3E9F022E0F8A3E0F9850E82850F8E
:1043BC0083227404121F9E7F0C0220CA74EC121FFD
:1043CC00F81244BC751000EE2402F50CE43FF50D18
:1043DC00850C82F583123D551207738A088B09EA06
:1043EC00450970030244A0850A82850B83E06401B1
:1043FC006003024495AC08AD09AA0AAB0B1207671F
:10440C00E9606E850882850983123722EE2406F551
:10441C000AE43FF50B8E828F83A3A31222228E8295
:10442C008F83A3A3A3A3122222850A82850B831256
:10443C00222279188E828F831244CE123D55120798
:10444C00917406121F9EE9F8741668700B850A8227
:10445C00850B83E4F0A38014E860128E828F8312A4
:10446C003D55850E82850F83EAF0A3EBF088108012
:10447C0018780E12220BAC08AD09EEFAEFFB1207FE
:10448C006D7402121F9EE9F510AA08AB0912077988
:10449C00E510700E850C82850D83123D551202B10C
:1044AC008009741665107003751000A9100243C3BF
:1044BC00EAFEEBFF8C0E8D0FEE2405F50AE43FF5BA
:1044CC000B22124F78850C82850D832274EA121F01
:1044DC00F87508007509007E007F00750A00EC2451
:1044EC0002F510E43DF5118035EC65087003ED65BF
:1044FC0009600302458D88828983A3A3E06A700357
:10450C00A3E06B707C88828983A3A3A3A3124E8340
:10451C00EE28FEEF39FFEA28FAEB39FB050A1246C2
:10452C005D503A850A0C750D007403780C121F75DA
:10453C0085108285118312465012474D601FE50885
:10454C00450970A58C088D098882898312372088CB
:10455C00828983A3A3E02EFAA3E03F80BEE50AC3C1
:10456C009402500302464B750800750900EE4F602B
:10457C0010EEFAEFFB1214638A0E8B0FEA450F70E4
:10458C0005790002464D750B00024620850B0C7513
:10459C000D007403780C121F75851082851183E051
:1045AC00250CF50CA3E0350DF50DE50C2406F514E2
:1045BC00E4350DF515851482F5831247526042E5FA
:1045CC000C2404F512E4350DF513851282F58312D3
:1045DC002222E50E2508FAE50F3509FB120FDD74D2
:1045EC0002121F9E851282851383E02508F508A30D
:1045FC00E03509F509851482851583123D55121491
:10460C0069E50B600D7C087D007900AA0CAB0D12DE
:10461C000FF5050BE50BC3950A5003024598851061
:10462C0082851183124E8388828983A3A3A3A3A3BB
:10463C00A3E50EF0A3E50F1232B3EEF0A3EFF07981
:10464C00010241B212465422E0250CF8A3E0350DCC
:10465C00229002DFE0F8E50AC3982274F0121FF8EA
:10466C008A0E8B0F8C0A8D0B750D00750C0080500B
:10467C007916EE2406F508E43FF5098E828F83A3A4
:10468C00A31222228E828F83A3A3A3A3122222859C
:10469C000882850983122222850E82850F83A3A3AB
:1046AC00123D551207917406121F9EE9F50D7416F2
:1046BC00650D706C850882850983E4F0A3F0050C08
:1046CC009002DFE0F8E50CC3985066AA0C8A0875D6
:1046DC00090074037808121F75850A82850B83A361
:1046EC00A312479CE8FEE9FF8E828F83124752602B
:1046FC0040EA2401F508E43400F5099002DFE06596
:10470C00087002E509601488828983A3A3A3A3A37C
:10471C00A3A3A3123D84600302467C791802467E53
:10472C00E9609B124E7F7410121FD412474412433F
:10473C00ACA90D7F080220CAE0FAA3E0F5838A82B7
:10474C0022F988828983124F78EC4D2274F6121F5D
:10475C00F87C0080010C90033BE0F8ECC398501EF1
:10476C008C0875090074027808121F75124791E0C5
:10477C006A7003A3E06B70DDE8FAE9FB80047A0051
:10478C007B000248349002DD12479C888289832288
:10479C00E02508F8A3E03509F92274F2121FF88A13
:1047AC00088B09750A0080278E828F83A3A3A3A38D
:1047BC001232AA60031214697C087D007900EEFAAB
:1047CC00EFFB120FF58E828F83E4F0A3F0050A1233
:1047DC00465D5027850A0C750D007403780C121F6A
:1047EC0075850882850983A3A3E0250CFEA3E0351B
:1047FC000DFF8E828F83123D8470AD8508828509F2
:10480C008374FFF0A3F0024F6C74F6121FF81207BA
:10481C00258A828B83E582458370067A007B008033
:10482C0007A3A3A3A3123D557F020220CA74F4125E
:10483C001FF889088C828D83E06402703C124E2232
:10484C00FEA3E0F9EEF8740268700374296970290C
:10485C00750A02750B00780A12220B7410121FD401
:10486C001222227410121FD4122222A908121253DF
:10487C007406121F9EE9F9800279010232E774E88E
:10488C00121FF874FB121F88E9852182852283F0A0
:10489C008A168B17ECFEEDFF7510008E828F83A3AA
:1048AC00A3A3E0A2E4502D741D121FD4123D551287
:1048BC00077F8A828B83E58245837003024CC17922
:1048CC000AEEFCEFFDAA16AB17121FF6E9F5106005
:1048DC0003024CC4741F121FD4E0F508A3E0F509C1
:1048EC007421121FD4E0F50AA3E0F50B7423121FF8
:1048FC00D4E0F50EA3E0F50F8E828F83E0640260A6
:10490C0003024C62A3124E83850882850983A3851A
:10491C008212858313EE2406F50CE43FF50D888294
:10492C008983124D01F514E439F51578141222958A
:10493C00010000280128644907000228294A03289D
:10494C0097490029584B0129834B0229244B0329F1
:10495C00584B0429FC4B624CE50E450F6003024C8E
:10496C005D850C82850D83124E83E8FAE9FB8A8201
:10497C008B83E0850A82850B83124D0C12220B8AE5
:10498C00828B83A3E0FCA3E0024BE6E50E450F60AF
:10499C0003024C5D850A82850B837401F0124CF680
:1049AC00850882850983F07C007D008E828F83A32D
:1049BC00A3A3A3E02401FAA3E03400FB120623EA2C
:1049CC004B60408A828B83E02402F8850A82850B37
:1049DC0083E028F0EA2404F8E43BF988828983E038
:1049EC00851282851383124D1A124D0C12220B8ADA
:1049FC00828B83A3124CE9E5082403FAE43509FB06
:104A0C00024BEB850A82850B83E02404F07C047D49
:104A1C00007900AA12AB13120FF5024CC4E50E4537
:104A2C000F6003024C5D124CF6FEA3E0FF850A8278
:104A3C00850B837404F0EE850882850983F0EF857D
:104A4C001282851383F07403121FEEEEFAEFFB1241
:104A5C0006238A0C8B0DEA450D7003024B078A82E4
:104A6C008B83A3A31237207401121FDE880E890FCB
:104A7C00780E12220B7405121FD41222227CFF7D99
:104A8C00FF1206297404121F9E8B0FEA450F703318
:104A9C00850C82850D83124CED12220B850C8285C0
:104AAC000D83A31222227C027D007AB17B8D12032E
:104ABC009B7404121F9EE9700A7401121FD474FFB8
:104ACC00F0A3F08E828F83E064027039750C02754E
:104ADC000D00780C12220B8E828F83A3124CE9E509
:104AEC00082404FAE43509FB120FDD7402121F9E30
:104AFC00850A82850B83E0240280097401121FD47D
:104B0C00EEF0A3EFF07401121FD4124CDB740112FF
:104B1C001FD4124CD2024C57E50E450F6003024CC9
:104B2C005D850C82850D83124F71AA16AB1712127C
:104B3C0059850A82850B837402F085088285098366
:104B4C00EAF0851282851383EB024C5AE50E450F71
:104B5C006003024C5D124CF6F8A3E0F9850A8285DD
:104B6C000B837402F0E8850882850983F0E98512CD
:104B7C0082851383024C5A850C82850D83123D5518
:104B8C00120FD7EAFAF8C3950EE4950F405CE8656E
:104B9C000E450F70047A008021852182852283E0E6
:104BAC00FCE50E2CFCE4350FFDC3EC98ED940050A5
:104BBC0003E08005E50ECAC39AFAEA850A82850BE2
:104BCC0083F08A0A750B00780A12220B850C8285F9
:104BDC000D83E0250EFCA3E0350FFDAA08AB0912EE
:104BEC000FDD7402121F9E024CC4751007024CC4D8
:104BFC00E50E450F705B850C82850D83124E838507
:104C0C000A82850B837407F088828983124CD31235
:104C1C004CCBE0851282851383F0E82402FAE43948
:104C2C00FB8A828B83124CDB8A828B83124CD2A33D
:104C3C00A31232B2124CE0F0E82405F850010988B6
:104C4C00828983124CE0A3124D1AA3A3A3A3F08074
:104C5C006775100B8062741D121FD4123D5512071C
:104C6C00258A828B83E5824583604A124E83880CA9
:104C7C00890DE8450D603E7425121FD4E0F51078BF
:104C8C001012220F780E12220B780A12220B7808BF
:104C9C0012220B7407121FD4E0F9EEFCEFFDAA16DA
:104CAC00AB17850C82850D83121FF67407121F9E9D
:104CBC00E9F510800375100EA9107405024018F068
:104CCC0088828983A322A3E0850882850983221226
:104CDC004D21F022124D21A3A3229002E3124F7812
:104CEC0022E0F50E750F00780E22850C82850D835F
:104CFC001241BBE022E0FAA3E0F8E4C8F9EA28226A
:104D0C00F08A828B83E0F50A750B00780A22124C2C
:104D1C00CB124D2122E0850882850983A3A322743E
:104D2C00EE121FF874FE121F888A088B09ECFEED38
:104D3C00FF890AAC21AD22EEFAEFFB1206238A0C96
:104D4C008B0DEA450D7003024E138521828522835B
:104D5C00123D551207258A828B83E58245837003A9
:104D6C00024E0EA3A3124E83880E890FE8450F70D6
:104D7C0003024E0E7414121FD4E0F510A3E0F511CB
:104D8C00E50AF50B780B12220F7419121FD412229C
:104D9C0022781012220B741B121FD4E0F9AC0CAD4C
:104DAC000DAA08AB09850E82850F83121FF67405B8
:104DBC00121F9EE9F50B705274FE650A604C850C4F
:104DCC0082850D83E064027041124E22FAA3E0F951
:104DDC00EAF87402687003742969702E8510828554
:104DEC001183124D01F50CE439F50D780C12220BE0
:104DFC00EEFCEFFDAA08AB091207A97402121F9E64
:104E0C008008750B0E8003750B01A90B7402121F21
:104E1C009E7F0A0220CAA3124E8788828983E022D1
:104E2C0074F6121FF874FE121F88740C121FD41221
:104E3C004E83E8852182852283F07401121FD4E908
:104E4C00F0E4F508F509780812220B7508027808C9
:104E5C0012220B7404121FDE8808890978081222AA
:104E6C000B79FE1207917406121F9E7402121F9E7C
:104E7C000248348E828F83124E8722E0F8A3E0F929
:104E8C002274F7121FF8EAFEEBFF89089002FA125F
:104E9C004CE9121259EA5402600BA908EEFAEFFB26
:104EAC00120617800279017F010220CA74F2121FC8
:104EBC00F874FE121F88EAFEEBFF890A7401650A7A
:104ECC0060147402650A6003024F67790112099538
:104EDC00E96003024F67EEFAEFFB120773EA4B60CF
:104EEC0003120779A821A9228808890978081222B7
:104EFC000B750802750900780812220B7508AB7542
:104F0C00098D780812220B7CFF7DFF7A017B001241
:104F1C00061D7406121F9E8038850882850983A39E
:104F2C00A3A3A3A3A3124F71EEFAEFFB12124DE44D
:104F3C00F50CF50D780C12220B7402121FD41222F0
:104F4C00227CFF7DFFAA08AB091206297404121FEC
:104F5C009E8A088B09E508450970BE7402121F9ED3
:104F6C007F060220CA1241BB124F7822E0FCA3E05C
:104F7C00FD2274F4121FF88A088B09ECFEEDFF90E9
:104F8C001CDEE0F4604B7A097B00121001EA4B60E6
:104F9C00408A828B8374B1F0A3E4124FE0F08A82D2
:104FAC008B83A3A3E508F0A3E509124FE0A3EEF071
:104FBC00A3EFF0740C121FD4124E838A828B83A33E
:104FCC00A3A3A3A3A3A31243AC901CDEE0F912107D
:104FDC000D0232E7F08A828B83A3A3A3A322C082A3
:104FEC00C0839061907404F0A37448F0A37402F031
:104FFC009061807440F09061BC7403F09061877490
:10500C0019F0906265741BF0906249E0C3941390A0
:10501C00619C40107409F09060667401F090619F7F
:10502C007428800D740BF0906066E4F090619F74AE
:10503C002CF01251D57009C29190036D74678005E4
:10504C0090036D7461F0125227902FCCE493F460AE
:10505C0006E493F9120A8B7905120DBB025469C050
:10506C0082C083E9540FF9906185E0696012E5C64E
:10507C0054B84441F5C6E59E5447644170F8E9F0D4
:10508C0053C6B8E59E544770FA025469C082C08377
:10509C00A8A853A87E906181E4F0A3F0A3F0C2BA53
:1050AC00539AFEC289759B00C2C275E900759100C6
:1050BC0075BF0075A91175B905906181F0A374C015
:1050CC00F0A3E4F0D2BA439A0174805842A8025477
:1050DC0069F0025469C082C08374F8121F8890036F
:1050EC006B1267E970030251CD90036BE054406082
:1050FC00177908AA21AB22120B99AA21AB2212080C
:10510C000990036BE054BFF0E054806010790C7A86
:10511C00197B07120B9990036BE0547FF0E0A2E02F
:10512C00501E1251D57009C29190036D74678005A1
:10513C0090036D7461F012080F90036BE054FEF055
:10514C00E05402601E12521A7009D29190036D74D1
:10515C0071800590036D746AF012080F90036BE078
:10516C0054FDF0E054046010902FD012522A120813
:10517C001590036BE054FBF0E054086010902FD1B5
:10518C0012522A12081590036BE054F7F0E05410F9
:10519C00600D12522712081590036BE054EFF0E0EB
:1051AC005420600A12081590036BE054DFF0A3E062
:1051BC005401600D120AA912081B90036CE054FEF6
:1051CC00F07408121F9E02546990619A12541C903C
:1051DC0006F3E0640122C082C083E9600514601705
:1051EC0080291251D57009C29190036D7467801A91
:1051FC0090036D7461801312521A7009D29190034E
:10520C006D7471800590036D746AF002546990613D
:10521C009A12540E9006F3E0640122902FD2E4937C
:10522C00906186F02274EA121FF874F4121F8890B1
:10523C008D64AC21AD227404121E9B902FD093F47C
:10524C0060030253A3907808E0C394025003025306
:10525C0087908C947404121FEE7408121E9BA82164
:10526C00A922881489157404121FDE88088909AED6
:10527C0008AF097510FF7511FF750EFF7C00750CDA
:10528C0048750D78801274086C700302531D7409F4
:10529C006C607E740A6C6079850C82850D8378084D
:1052AC00121E408E828F83A909E50AC9F8881274F0
:1052BC00187808121D5BE5124508F8C3E098A3E0C6
:1052CC0099850C82850D837808121E4040188E82B9
:1052DC008F8374187808121D5BE5124508F8E0C33B
:1052EC0098F8A3E0801A74187808121D5BE5124533
:1052FC0008FAE9FB8E828F83125B3EEAC398F8EBC7
:10530C0099F9C3E89510E995115006881089118C0C
:10531C000E0CE50C2404F50C5002050DECC3941393
:10532C00500302529274FF6510700474FF65116093
:10533C0024850E0874027808121F7574482508F528
:10534C008274783509F5837808121E40851482859D
:10535C001583E508F0EE2402FE50010F85148285BA
:10536C001583A3858214858315740C121FD4E582D2
:10537C006E7003E5836F600302527F750801750937
:10538C0000780812220B7402121FEE7AF47B0B12B7
:10539C0012BF7402121F9E740C121F9E7F0E0220ED
:1053AC00CAC082C0839061AE7468F0A3746AF09036
:1053BC00624574FBF0A304F053F4FD43FE02900627
:1053CC00F37401F09061A0E0643A90619A70191244
:1053DC00541C740164017009C29190036D74678050
:1053EC001E90036D7461801712540E740164017069
:1053FC0009D29190036D7471800590036D746A02EB
:10540C0050DD743FF0A3745AF09061A0747FF022C9
:10541C007433F0A37455F09061A0743AF0227F04B9
:10542C000220CAC082C0839006D1E0640170119042
:10543C0006D7E064016019E07006A3E06401601017
:10544C009006E8E06401700C9006EEE064017004D4
:10545C00790C800279008005E0F9122EA6D083D059
:10546C0082020132E0C4333354C022888289831211
:10547C0059FFA882A983222414F582E438F58322EB
:10548C00C082C0839006DB7425F09006D97401F0BD
:10549C00A3E4F07A01FB120D371254D8241AF582CA
:1054AC00E438F58374CDF0A3740AF09006D8E06468
:1054BC000170169006D7E070107901120D97120D3D
:1054CC0067120D917900120DA30254699006C71250
:1054DC0058612274F6121FF874FA121F889006D0C5
:1054EC00E064017008120AB59006D0E4F075E1F1A1
:1054FC001254D82415F582E438F5837401F0900623
:10550C00D2E06401704B908CBCAC21AD22740612BD
:10551C001E9B75D90D9006C91254704403F5D975AC
:10552C0082CA7583061259FBE58264D07004E58348
:10553C00640670F1A821A9221254777406121FD4A4
:10554C00E582687003E5836970EE75E195790180F9
:10555C00027900120D3D901D021255C57435F0A351
:10556C00740CF0A31255C51255C5125733743BF089
:10557C00A3740C1257489006C9E0F97ACA7B06123C
:10558C000D199006DBE0F9122EA67901120D43904D
:10559C008D68121E5E120D5B908D78121E5E120DC0
:1055AC00257900120DAF1254D81254837416F09052
:1055BC0003697405F004025C60742FF0A3740CF0A2
:1055CC00A32274F7121FF88908A808E875F00CA438
:1055DC00C8AAF02AF9749928FE740339FF9006E0E2
:1055EC00E0F97AE17B06120D199006EEE070257950
:1055FC0000120D79EE240BF582EF3401F583E07087
:10560C0004790080027901EE2405FAEF3401FB12D3
:10561C000D1F80057901120D7975E1F175D9239073
:10562C0006E01254704405F5D97582E175830612B3
:10563C0059FBE58264E77004E583640670F175D963
:10564C000075D90075D90075D90075D90075D900C8
:10565C00EE2422125AB4125AD37003E9658370F601
:10566C00EE2426125ABF2403F8E43583F9125AD3D8
:10567C007003E9658370F6EE242B125AC8242C12A1
:10568C005AC8242D125AC8242E125AC8242F125A22
:10569C00C82430125AC82431125AC82432125AC89B
:1056AC002433125AC8245D125ABF2405F8E43583FA
:1056BC00F9125AD37003E9658370F6EE243712663B
:1056CC0068541FF8EE242A126668C43354E048F577
:1056DC00D975E195901D0274FFF0A3740BF0A374BF
:1056EC0005F0A3740C12572A740BF0A3740C125708
:1056FC00489006EDE0F9122EA6908D68121E5E12EF
:10570C000D5B908D78121E5E120D2590600DE4F0ED
:10571C007901120DAF9003697406F0025E9CF0A340
:10572C00125733125733221257372274F9F0A374DD
:10573C000BF0A374F9F0A3740BF0A32212574C22B4
:10574C00F0901D10125758A3125758221257377445
:10575C00F9F0A3740BF02274EC121FF89006DE1211
:10576C0062BE7810121E409006EFE0FAF875F00C4D
:10577C00A4C8ACF02C12643AFFEE2EFEEF33FF8E71
:10578C000CF50D750E00750F008510088511098537
:10579C00120A85130B908D587808121DA6780812E2
:1057AC00220785100885110985120A85130B7808C4
:1057BC00790C121D937810790C121CECE4F50EF593
:1057CC000F7808790C121DCC8A0C750D00740378B7
:1057DC000C121F757808790C121D93908D70780837
:1057EC00121E07AA08AB09AC0AAD0B122E3E7404AC
:1057FC00121F9E8A088B09A808A909C3EE98EF9975
:10580C005006E82EF8E93FF9E890600EF0E9A3F0B5
:10581C00EEA3F0EFA3F090600D74C1F07F0C0220AA
:10582C00CAC082C0839006C712584D9006DB025442
:10583C0064C082C0839006DE12584D9006ED02546F
:10584C0064125861125857F0A3F0222406F582E432
:10585C0038F583E422E0F8A3E0C82202013274F6A2
:10586C00121FF8125A046004780480027800E824AD
:10587C000EF8ECC39850030259387C0C9006F9E4EE
:10588C00F0EA2476F582E43BF583E09006FAF0EA40
:10589C00247712593D9006FB1259479006FCF0EA0A
:1058AC00247912593D9006FD1259479006FEF0EAF4
:1058BC00247B12593D9006FF125947900700F0EADD
:1058CC00247D12593D900701125947900702F0EAC6
:1058DC002474F8E43BF98A828B83A3A3A3A3A3E0EB
:1058EC00FEA3E0FF88828983E02EF0A3E03F125FE5
:1058FC00E1900703125947900704125A2860177554
:10590C0008F9750906780812220B7903120BED744D
:10591C0002121F9E7C10125C6EECFE1259FBDEFB19
:10592C0075E1957904120D61790180027900025CB0
:10593C0063F8E43BF988828983E022125FE6A3E0F6
:10594C002274F6121FF8125A04600478048002784C
:10595C0000E8240AF8ECC39850030259F67E08902C
:10596C0006F97401F07CBD7D0678FA79067F051284
:10597C005A12A882A983DFF7EA2480FCE43BFD8A53
:10598C00828B83A3A3A3A3A3E0F508A3E0F5098C62
:10599C00828D83E02508F0A3E03509F0125A120835
:1059AC00A9838C828D83E088828983125A2860199E
:1059BC007508F9750906780812220B7C0879031210
:1059CC000BED7402121F9E7E0C74012EF5D975D945
:1059DC00037582F9758306EEFF1259FBDFFB75E147
:1059EC00957904120D61790180027900025C6312D1
:1059FC0059FF22E0F5D9A3229061D0E0F87480C35E
:105A0C0098FC125A2D22125A16228C828D83E08811
:105A1C0082898312682688828983A322F0125A2DE8
:105A2C0022EA2482F582E43BF583E02274F7121F0C
:105A3C00F8EAFEEBFF9061D0E0706875D91875D963
:105A4C000375D903EE249B125ADA125AD37003E968
:105A5C00658370F6EE24A3125AC824A4125AC824E3
:105A6C0093125ADA125AD37003E9658370F6EE2456
:105A7C0087125AB4125AD37003E9658370F675E134
:105A8C00957908EE2493FAE43FFB120B8D7904EE22
:105A9C002487FAE43FFB120B8D7904120D61125B23
:105AAC00E880027900025E9C125ABF2404F8E435A7
:105ABC0083F922F582E43FF583E58222F582E43F07
:105ACC00F583E0F5D9EE221259FFE8658222125ACD
:105ADC00BF2408F8E43583F92274F6121FF8EAFEA5
:105AEC00EBFF9006F97406125B9112220B7C017984
:105AFC0003120BED7402121F9E75D90675D903752E
:105B0C0082F9758306125B897004E583640670F56F
:105B1C0075E195900369E064087010EE246FF582CE
