:020000040000FA
:0600000002011A0226EDC8
:03002B00022C277D
:030053000227631E
:03007B00022C0A4A
:10008300022543E5C754F84401F5C779012200006E
:100093000080FB120086B90003020104E47924788E
:1000A30002B800028004F709D8FCE479267802B884
:1000B30000028004F709D8FCE490028178F27918F1
:1000C3008002F0A3D8FCD9FA782390014A7A01BAC6
:1000D30000028007E493A3F608DAF97A727B1A9098
:1000E300014B78E479018015E493A3AD82AE838A52
:1000F300828B83F0A3AA82AB838D828E83D8E9D9C6
:10010300E77582387583EA740312012C7582917541
:100113008300740012012C75D00075813F75218115
:10012300752202759F00020096C09FF59FE473D06D
:100133009F22D083D082C09FE493C0E0740193C018
:10014300E0740293F59F2201C003CC030204FC0375
:10015300FF0000B4000028002800283075A000A08C
:1001630000A000A00000080008E001F0001000104B
:10017300001000100010001000500050005000103C
:10018300001000D0070000000000000F0001000570
:1001930000307507001000010081FF00000000FF20
:1001A300FFFF020202CC8D010000C08D02D28D013F
:1001B3000000CC1A02D68D010000B80202D28D01D4
:1001C3000000CD1A02D88D010000CE02FFFF01000E
:1001D300FF2002CC8D010000C38D02D28D010000EF
:1001E300FB1A02C68D000000000002D48D0300003C
:1001F300FA021700F40BF40BF40BF40BF40BF40BEF
:10020300F40BF40BF40BF40BF40BF40BF40BEC0DF9
:100213000A0EE60DFFFFFFFFFF01E803057710025B
:100223000A02010101FEFF0104FF001201351DD284
:100233000312013530D20312013551D203120135B5
:10024300BCD203120135FDD2031201351ED30312B2
:1002530001355FD303120135F7D3031201353FD4C0
:1002630003120135CFC803120135E2C80312013569
:1002730013C9031201354DC903120135A6C903126F
:100283000135EDC90312013535CA0312013564CABC
:100293000312013593CA03120135CACA0312013589
:1002A30011CB031201352ACB031201357FCB031285
:1002B3000135ADCB03120135E7CB0312013538B558
:1002C300021201353BB60212013568B6021201353E
:1002D300B9B602120135DCB602120135EEB60212CE
:1002E3000135F1B6021201352FB702120135A3B75A
:1002F300021201350FB802120135D7B802120135C7
:10030300F3B8021201352AB90212013564B9021297
:100313000135FBB9021201354DBA021201357EBA1D
:1003230002120135AFBA02120135BCBA021201350D
:1003330026BB0212013529BB0212013536BB02125C
:10034300013539BB0212013590BB0212013593BB53
:1003530002120135CCBB02120135CFBB02120135AB
:1003630003BC0212013506BC021201355ABC02124B
:100373000135A3BC02120135B3BC02120135E6BC40
:1003830002120135F3BC02120135F6BC021201352B
:100393005EBD0212013560BE0212013504BF0212B6
:1003A30001356DBF02120135ABBF021201357ADD93
:1003B3000212013572DE02120135A6DE0212013588
:1003C3003CDF0212013587DF02120135EBDF021237
:1003D300013575E0021201352EE10212013550E4B8
:1003E30002120135CDE502120135F0E502120135A5
:1003F3007FB10312013524B30312013544B3031251
:10040300013565B403120135B8B403120135C5B51E
:1004130003120135EDB5031201351AB60312013586
:1004230052B603120135B0B603120135FCB60312FE
:10043300013563B703120135A3B703120135E0B7E2
:10044300031201350EB803120135B8B80312013592
:10045300C2B803120135CFB80312013502B9031232
:1004630001350EB90312013526B90312013530B92E
:100473000312013552E50312013560E5031201351C
:1004830078E50312013590E503120135A7E5031260
:100493000135008002120135AA800212013526813E
:1004A30002120135448202120135808202120135A3
:1004B3001B8302120135FF8302120135C28402122B
:1004C30001353A8502120135C88602120135398792
:1004D30002120135F38702120135E5880212013554
:1004E300258902120135D989021201350B8A0212BC
:1004F3000135018C02120135438C02120135618CE6
:1005030002120135E68C02120135AA8D0212013561
:10051300C98F02120135ABBD03120135C1BD0312F0
:100523000135DFBD03120135F0BE03120135FABEFA
:100533000312013525C0031201351CC10312013515
:1005430089C103120135C7A3031201356BA403123A
:100553000135A2A403120135ECA403120135ABA6A5
:1005630003120135ECA3011201359DA401120135DB
:10057300B9A40112013582A5011201359CA501120E
:100583000135A7A5011201357DA6011201355AA730
:1005930001120135EAA701120135A1A801120135A3
:1005A300AFAB011201359EAD0112013550AE011200
:1005B300013519AF011201355EB20112013508B3DD
:1005C3000112013531B401120135EDB501120135C6
:1005D3008DB601120135DBB6011201351AB70112CE
:1005E3000135EDB70112013521B801120135AEB85D
:1005F300011201352DCF01120135B9CF0112013599
:100603001DD10112013529D10112013564D1011225
:100613000135D3D101120135DCD201120135E5D305
:1006230001120135ACD40112013509D6011201358D
:1006330027D60112013544D6011201350FD7011215
:10064300013537D70112013501DA0112013506DA16
:10065300011201351FDC011201356DDC0112013578
:10066300DDDC011201351BDD01120135F7DD01125D
:100673000135B7DE0112013503DF0112013506DF53
:10068300011201354ADF0112013592DF01120135F2
:10069300D1DF01120135F3DF0112013527E0011229
:1006A30001358AE0011201356295031201356B951C
:1006B30003120135799503120135CC9503120135E7
:1006C300EB9503120135309603120135749703122B
:1006D30001350F98031201355398031201357D98A4
:1006E30003120135EC9803120135329903120135D7
:1006F300A999031201355A9A03120135542C001299
:100703000135642C00120135052D00120135612DD0
:10071300001201351E2E001201353A2F0012013549
:100723006C2F001201359B2F001201354831001246
:100733000135BF33001201352F3600120135213741
:10074300001201351A3800120135213A0012013521
:10075300153D00120135443E001201354840001298
:100763000135584100120135E74200120135D843E3
:10077300001201352644001201359544001201355B
:10078300B944001201350A4500120135AB49001284
:100793000135AC4A001201350D4B00120135384BBF
:1007A30000120135FE4B00120135BEB903120135AB
:1007B300C8B9031201350DBA0312013521BA031268
:1007C3000135B1BA03120135D9BA0312013514BB8D
:1007D300031201353DBB0312013571BB0312013511
:1007E30086BB03120135F1BB0312013512BC0312A0
:1007F300013526BC031201353BBC0312013575BC20
:1008030003120135DABC031201351DBD0312013594
:1008130047BD0312013583BD0312013540E20312C4
:10082300013548AA021201352BAB02120135A6ABE2
:1008330002120135E1AB0212013532AD021201356C
:10084300BBAD02120135D3AF0212013565B20212FC
:10085300013517B30212013536B4021201358FB4D4
:10086300021201353F9003120135829003120135C4
:10087300069103120135D99103120135B094031285
:1008830001357FCF031201352CD00312013539D145
:100893000312013578D103120135D2D10312013588
:1008A3007ADA03120135DDDA031201357ADB03123A
:1008B3000135A8DB03120135C9DB0312013504DC62
:1008C3000312013524DC03120135F37A00120135DA
:1008D3007F7B001201353E7C00120135567D0012EC
:1008E3000135707F0012013529CA021201354ECA43
:1008F3000212013522CB021201358FCB02120135D0
:10090300E5CB0212013581CC02120135B5CD0212BD
:10091300013590CE02120135EFCE02120135C0CF60
:10092300021201354CD0021201354FD002120135AB
:1009330099D0021201350BD102120135B6D1021240
:100943000135D6D1021201351ED2021201353AD237
:1009530002120135B4D202120135C2D2021201359C
:1009630051D302120135BAD30212013562A8031220
:100973000135E7A80312013529A9031201350DAA90
:10098300031201357AAA03120135BEAA03120135F7
:1009930002AB031201352FAB0312013557AB031220
:1009A30001358FAB03120135CDAB03120135F4AB27
:1009B300031201356EAC03120135B8AC03120135D5
:1009C300B164001201357E66001201356C680012B5
:1009D3000135C06800120135EB68001201359969D1
:1009E30000120135C96900120135F8690012013599
:1009F3000B6A001201354C6A00120135786A001245
:100A03000135C66A00120135FD6A00120135496BD2
:100A130000120135A86B001201353B6C0012013541
:100A2300256D00120135146E00120135BF6F0012DF
:100A33000135DE7400120135377500120135207758
:100A430000120135EF78001201357179001201357A
:100A5300BF7A00120135D07A0012013568FD021207
:100A6300013553FE0212013596FE02120135E5FEF1
:100A73000212013536FF0212013587FF02120135DA
:100A83006A4C00120135EB4C00120135184D00126F
:100A93000135614D00120135624E00120135B14E30
:100AA300001201352D5000120135AF5000120135EF
:100AB3000C51001201355F51001201354E520012E4
:100AC3000135E35300120135AD5400120135BD5415
:100AD30000120135E75400120135EA5400120135C2
:100AE300CD5500120135B856001201356557001275
:100AF3000135C257001201351B58001201357F58CA
:100B030000120135275900120135C359001201356E
:100B1300505A00120135C55A00120135215B0012EB
:100B23000135805B00120135A75B001201356C5C57
:100B330000120135585E00120135A15E0012013525
:100B4300D15E00120135445F00120135CA60001204
:100B530001357A61001201359F6100120135DE61B2
:100B630000120135F36100120135366200120135BE
:100B7300A66200120135F06200120135FA63001219
:100B830001357B6400120135DDD30212013528D40F
:100B93000212013534D40212013508D5021201358F
:100BA3001FD5021201355CD5021201358DD5021213
:100BB3000135C5D5021201351BD60212013531D6D6
:100BC300021201356DD60212013580D602120135AB
:100BD300A7D602120135DBD60212013501D8021263
:100BE30001354BD90212013547DA021201355DDBBB
:100BF30002120135F07F00120135128B0312013509
:100C0300C08E03120135F48F03120135639E021265
:100C130001351CA10212013522A102120135D3A311
:100C2300021201352DA6021201356C9A0312013509
:100C3300039B03120135C19B03120135EB9B031286
:100C43000135219E03120135DD8D01120135188E08
:100C5300011201356C9801120135D8990112013541
:100C6300D59A011201355A9E011201354F9F011287
:100C730001359B9F01120135B59F01120135F69F86
:100C830001120135FF9F01120135B1A00112013597
:100C930081A101120135C8A1011201352EA2011251
:100CA3000135A0A20112013593C10312013529C2F6
:100CB300031201353FC20312013598C203120135F5
:100CC300DCC20312013516C303120135AEC303128E
:100CD30001351DC40312013526C40312013532C484
:100CE300031201354CC40312013576C403120135D6
:100CF3008BC403120135EDC40312013514C503126D
:100D0300013542F7021201354FF70212013569F737
:100D1300021201359CF702120135DAF7021201358E
:100D23003FF80212013554F8021201356BF8021232
:100D3300013579F80212013588F8021201359DF860
:100D430002120135B2F802120135BDF80212013563
:100D5300C9F802120135D6F802120135E5F802127C
:100D63000135F0F80212013515F902120135B9F90E
:100D730002120135CEF902120135E3F902120135EF
:100D8300FDF9021201351AFA0212013537FA02127D
:100D9300013542FA02120135EEFA02120135CFFB98
:100DA30002120135F4FB02120135FFFB0212013579
:100DB30014FC0212013528FC0212013589FC0212CF
:100DC30001358FFC0212013595FC021201359BFCA3
:100DD30002120135B3FC02120135E6FC02120135A1
:100DE300D1BF02120135F3BF02120135BBC002129B
:100DF300013575C3021201358BC402120135ACC52E
:100E03000212013586C60212013535C702120135B9
:100E1300C4F1011201355BF201120135F3F2011243
:100E23000135E3F3011201351AF4011201352DF4F2
:100E3300011201359BF40112013536F60112013519
:100E43005DF601120135FFF60112013534F7011287
:100E5300013545F701120135BEF701120135DFF700
:100E630001120135F7F7011201354FF9011201356E
:100E730058FB01120135A8FD01120135ABFE011229
:100E83000135FAFE01120135D68F02120135D390D6
:100E930002120135BE9102120135C89102120135C9
:100EA300EA9102120135F6910212013548930212BA
:100EB3000135779302120135A79402120135E994A3
:100EC30002120135159602120135EB960212013515
:100ED3003D97021201359C9702120135D3970212F6
:100EE30001350E9802120135A99B02120135C29BEE
:100EF30002120135449C02120135529C0212013543
:100F0300A79C02120135B59C02120135229D0212E3
:100F13000135949D02120135DA9D0212013532DC4E
:100F23000312013557DC03120135C8DC0312013506
:100F330043EF021201354CEF0212013555EF021255
:100F4300013586F002120135A5F202120135DBF2FA
:100F53000212013515F3021201354BF3021201356A
:100F630085F302120135B9F302120135E5F30212DA
:100F730001352EF40212013568F402120135B0F482
:100F83000212013506F5021201353BF50212013555
:100F930096F502120135D0F50212013521F602123F
:100FA300013557F60212013591F602120135B4F6F6
:100FB3000212013547FF0112013573FF011201359A
:100FC300CEFF01120135D8FF01120135E8FF0112EE
:100FD3000135A98503120135B38503120135F18566
:100FE300031201353A860312013574860312013563
:100FF300CE8603120135EF8603120135F8860312FC
:10100300013549870312013572870312013587873A
:1010130003120135F887031201358688031201355F
:10102300C38803120135F38803120135778903124C
:101033000135B78903120135EF8903120135018A9E
:1010430003120135208A03120135298A031201355F
:10105300E88A0312013558E4031201359FD60312BF
:101063000135D5D6031201350BD70312013564D8E8
:1010730003120135B4E703120135CAE70312013540
:10108300D4E7031201352AE803120135F8AC031241
:10109300013511AD03120135B5AD03120135F5ADBF
:1010A300031201350EAE0312013542AE03120135B0
:1010B3008FAE03120135C3AE0312013505AF031220
:1010C300013505B10312013572B1031201357CE913
:1010D30003120135E8DD0312013526DE0312013563
:1010E3004BDE0312013562DE031201357EDE03128D
:1010F300013595DE03120135ACDE03120135E5DE61
:101103000312013519DF0312013550DF03120135D4
:10111300FDEA0312013500EB0312013503EB031261
:1011230001350AEB031201350CEB03120135008084
:10113300031201353F8003120135C88003120135C4
:10114300DD80031201352881031201356781031203
:1011530001357681031201352B8203120135848216
:1011630003120135D382031201352683031201359D
:101173003B84031201353485031201357185031253
:101183000135DBE903120135A4B9011201351ABC9B
:101193000112013592BD01120135F3BD0112013572
:1011A30092BE0112013584BF0112013509C001123B
:1011B300013585C001120135AAC00112013573C37F
:1011C30001120135E7C301120135D3C40112013500
:1011D3000DC5011201354DC50112013507C70112B5
:1011E300013538C7011201358BC701120135D4C748
:1011F3000112013542C80112013574C801120135CB
:101203008CC801120135A1C901120135B1C90112FE
:10121300013516CB0112013536CB011201356CCBEA
:101223000112013519CD0112013599CD0112013594
:10123300D8CD01120135FFCE011201359ED803121C
:101243000135FBD803120135BED903120135DDD9AF
:101253000312013533DA0312013558E8031201355D
:1012630068E803120135A77F00120135E67F0012FB
:101273000135F5E80312013520E9031201352AE9A6
:101283000312013562E9031201350FEB0312013535
:101293000BE1031201351BE10312013539E103129E
:1012A30001353AE20312013554E303120135D9E360
:1012B300031201353FE40312013537E6031201350A
:1012C30058E6031201356BE6031201357DE603127E
:1012D3000135AAE603120135BBE603120135F4E634
:1012E30003120135F7E6031201351E9F0312013580
:1012F300329F03120135AB9F0312013584A0031201
:10130300013542A30312013587A303120135B4A3A8
:10131300031201354FCC0312013568CC031201359A
:1013230083CC0312013594CC03120135A5CC0312EF
:101333000135FDCC031201356CCD03120135BFCD50
:1013430003120135EECD0312013515CE031201351B
:1013530034CE03120135BBCE03120135D8CE0312AE
:101363000135F2CE031201350BCF031201351ACF2B
:101373000312013545CF031201355BCF031201354B
:10138300FAE60312013514E7031201352EE70312BF
:1013930001358DE703120135F87F001201356AD458
:1013A30003120135F5D50312013556D60312013563
:1013B3009CD60312013590EA03120135B9EA0312F0
:1013C300013562E1011201350FE30112013575E4C4
:1013D30001120135E1E50112013587E601120135FC
:1013E30063E70112013552E80112013559E901128F
:1013F3000135D4E90112013514EA0112013536EA47
:1014030001120135C2ED01120135FAED0112013568
:10141300FDED011201354AF10112013584DF03129A
:101423000135D9DF0312013547E003120135B7E077
:101433000312013542C5031201356CC50312013590
:1014430066C6031201358BC60312013522C7031288
:101453000135A4C70312013513E702120135D0E7A2
:10146300021201350BE80212013533E8021201358D
:1014730095E802120135E1E8021201353AE9021258
:101483000135CBE902120135CDEA021201358AECAE
:10149300021201350CED0212013571ED0212013514
:1014A30088ED0212013598EE02120135D6EE0212D2
:1014B3000135D1EA03120135D9FF02E06670100845
:1014C300A3E066700A08A3E066700408A3E066223E
:1014D300C3E7960809E7960809E7960809E79622FD
:1014E300C3E09608A3E09608A3E09608A3E096223B
:1014F300C008C3E096F50808A3E096420808A3E0F5
:1015030096420808A3E09645087001D3D00822E963
:10151300799EC608CAC608CBC608CCC6C370207954
:1015230096CACBCC7019798ECBCC70137986CC70DC
:101533000EF9802ACA33CACB33CBCC33CC33193020
:10154300E7F2CCCBCA3350147004EA30E00DE4CA9E
:101553003ACACB3BCBCC3CCC500209C3E913C6CC33
:10156300182313C6CB18C6CA18C6F9221215AF2002
:10157300F01430E72B74FFFCFBFA747F8022E4FC49
:10158300FBFA7480801AB48008BC00F2BB00EF80C1
:101593000F50EBF9E4C39AFAE49BFBE49CFCE49957
:1015A300C6CC18C6CB18C6CA18C6F922E4C9C608E1
:1015B300CAC608CBC6D3330308CCC63392F0C39450
:1015C3007F402E94184019C9B90704CACBCC2250C6
:1015D30025C309CA33CACB33CBCC33CC33D9F4229A
:1015E300F4600DC9CCC313CB13CBCA13CAD9F6CC41
:1015F30022E4FCFBFA2214FCFBFA22E62618461826
:1016030046184622E7271947194719472218181879
:10161300E60846087009E626087005E633F4220852
:1016230022191919E70947097009E727097005E71E
:1016330033F4220922E6084608C31346083360023E
:10164300E633F422E7094709C3134709336002E786
:1016530033F42200121638604F1216476012E75413
:101663008066F61216107011121607703B090909ED
:10167300F4F618F618F618F6221216247015121539
:10168300FE08080860EAE6447FF618768018E4F658
:1016930018F6221215FE60161216077012E4F608E9
:1016A300F608F608E65480F609090918181822EA1C
:1016B300C0E0EBC0E0ECC0E0EDC0E0E687F0A4FBE7
:1016C300ACF008E687F0A42CFCE435F0FA1809E640
:1016D30087F0A42C4B60027401CA35F0FCE433FBA1
:1016E30009E687F0D2F7A42CCB35F0FC1908E6877E
:1016F300F0A42BCC35F0FBE433FD0819E687F0D2D8
:10170300E7A42C4ACB35F0CD3400FC09E687F0D2B0
:10171300E7A42DCC35F0FDE433FA0918E687F0D2BF
:10172300F7A42CCD35F0CA3400FC08E687F0D2E7E5
:10173300D2F7A42ACC35F07A7E20E70B0ACB33CB41
:10174300CD33CDCC33CC33CB3350147004ED30E0F8
:101753000ED2F1E4CD3DCDCC3CCC3B5005DA05C2F5
:10176300F1EB547FC63308E63392F0FBE73309E726
:1017730033C39A502D2B70190C0D4C4D7015180650
:10178300E608C333700D20F10AA2F013F6E41880C3
:101793000B4024E4F630F002768018F618F618F6BB
:1017A3008024D33B14501074FFA2F013F6187680F4
:1017B300E418F618F6800FA2F013F618E63303F6D2
:1017C30018ECF618EDF6D0E0FDD0E0FCD0E0FBD04D
:1017D300E0FA2212163870041818182212164770ED
:1017E3000D74FFF61819F61819F61819F622E754AE
:1017F3008066F61215FE700F12160770F014F608C5
:10180300F608F608F680D1121607700CF608F608EB
:10181300768008E6447F80EC121627700C121613AC
:1018230060BFE65480F6E480BB12161370051919E5
:101833001980A5E869700C763F18768018F618F6BB
:10184300E8F922E6CDC0E018ECC0E0E633CD33CDB5
:10185300D313F6E719FCE7191933CC33C3947F404C
:101863000ECD9D502408E65480F6E418F6800FF45C
:10187300043D14501408E6447FF6187680E418F605
:1018830018F6D0E0FCD0E0FD22CCD313CCFD18E455
:10189300C6CBC0E018E4C6CAC0E00808ED08C633EA
:1018A300E613F618E433C675F003C3CA97CA09CB27
:1018B30097CB199C40047D08802EBD000302197F3D
:1018C30016B6FF050606081618C3CA33CACB33CBB0
:1018D30033CA27CA09CB37CB193CC37D08803E18CE
:1018E3007D0820E75CC633C6CA33CACB33CB33DDAE
:1018F300F1D5F0EB30E77BCA97CA09CB974ACB19EE
:101903009C406F4B7025E620E0218066187D08C35C
:10191300CA97CA09CB97CB199CD3C633C6CA33CA55
:10192300CB33CB3350C9DDE7D5F0E1D3E4C636C6BC
:1019330008C636C608C636C608C636C6181818807E
:1019430031C3CA97CA09CB97CB199CB34097C63307
:10195300C6CA33CACB33CB33DD34D5F02EC6A2E0AF
:10196300C640C8CA27CA09CB37194A70BECB3CB494
:1019730080B90808E63308E633601F181818D0E06A
:10198300FAD0E0FBD0E0FCD0E0FD22187D08CA27A6
:10199300CA09CB37CB193CD3808013F618E4B67F42
:1019A30011F618B6FF0EF618C60470D20808768032
:1019B30080CAF618F618F680C5080808EAC0E0EBF6
:1019C300C0E086F0E7A4FA180986F0E7A42AFA181B
:1019D3000986F0E7A42AFA180986F0E7A42AFA1977
:1019E30086F0E7A4FBE5F02AFA190886F0E7A42BB2
:1019F300FBE5F03AFA190886F0E7A42BFBE5F03A89
:101A0300FA18180986F0E7A4C5F02BFBE43AFA1993
:101A130008E7C5F0C6A426F6E5F03BFBE43AFA185E
:101A230086F0E7A4F6E5F00826F6E43B08F6E43A88
:101A330008F6D0E0FBD0E0FA22E4CFC0E0E4CEC069
:101A4300E0E4CDC0E0E4CCC0E075F020E626F60883
:101A5300E633F608E633F608E633F6181818EC33DF
:101A6300FCED33FDEE33FEEF33FFC3EC9709ED9747
:101A730009EE9709EF97191919400FFFEC97FC0925
:101A8300ED97FD09EE97FE191906D5F0BFECF7099E
:101A9300EDF709EEF709EFF7191919D0E0FCD0E0DB
:101AA300FDD0E0FED0E0FF226016080808C6C3138D
:101AB300C618C613C618C613C618C613C6D5E0EA99
:101AC300227009080808226016181818C6C333C6FE
:101AD30008C633C608C633C608C633C6D5E0EA22ED
:101AE300E627F60809E637F60809E637F60809E6B1
:101AF30037F622E026F608A3E036F608A3E036F62A
:101B030008A3E036F622E026F008A3E036F008A3A7
:101B1300E036F008A3E036F022C3E697F60809E6BC
:101B230097F60809E697F60809E697F622C3E096C2
:101B3300F008A3E096F008A3E096F008A3E096F07F
:101B430022E657F60809E657F60809E657F60809A4
:101B5300E657F622E056F608A3E056F608A3E05649
:101B6300F608A3E056F622E056F008A3E056F00884
:101B7300A3E056F008A3E056F022E066F608A3E0DF
:101B830066F608A3E066F608A3E066F622E0F60828
:101B9300A3E0F608A3E0F608A3E0F622E6F008A324
:101BA300E6F008A3E6F008A3E6F022E0FAA3E0FBE0
:101BB300A3E0FCA3E0FD22EAF0A3EBF0A3ECF0A387
:101BC300EDF022E0F8A3E0F9A3E0FAA3E0FB22E8BA
:101BD300F0A3E9F0A3EAF0A3EBF022CAC0E0E6F039
:101BE300A308DAFAD0E0FA22CAC0E0E0A3C582CCA7
:101BF300C582C583CDC583F0A3C582CCC582C58309
:101C0300CDC583DAE6D0E0CA22C3E498F8E499F9B3
:101C1300121C4D8026C3E49AFAE49BFBE920E7E912
:101C2300121C4DE498F8E499F922C3E498F8E49976
:101C3300F9121C4DE498F8E499F9C3E49AFAE49B89
:101C4300FB22EB20E7CFE920E7E0B90010BB000857
:101C5300E88AF084F8AAF022E4FBC8FA22EB7022A7
:101C63007B10C833C8C933C9335007C39AC3DBF2E7
:101C730080069A50012ADBEAC833F4C8C933F4C991
:101C8300FA2275F008E4C833C8C933C933C99AC9FD
:101C93009B5004C92AC93BD5F0ECFBC833F4C8E414
:101CA300C9FA22600D08C6A2E713C618C613C6D523
:101CB300E0F322600C08C6C313C618C613C6D5E0EA
:101CC300F422700422600D18C6C333C608C633C697
:101CD300D5E0F41822252110AF08F521400C152278
:101CE3008008F52140021522D2AF2200C0D0252161
:101CF30010AF08F521500C05228008F5215002058C
:101D030022D2AFD0D0222521F58210AF08F5214091
:101D13000C15228008F52140021522D2AF852283BB
:101D2300222521F582E43522F583222521F8E435A5
:101D330022F9222521FAE43522FB222521FCE43570
:101D430022FD22E4732521C582C0E0E52234FFC5CC
:101D530083C0E0E521C3958224F810AF0885832270
:101D63008582218008858322858221D2AFCEF0A38C
:101D7300E520F0A37808E608F0A3DEFAEFF0A3E588
:101D83008124FAF8E608F0A3E608F0A3E608F0A336
:101D93000808E608F0A3E608F0A315811581D0E052
:101DA300FED0E0F8158115811581E8C0E0EEC0E0B2
:101DB300222521C582C0E0E52234FFC583C0E0E5CA
:101DC30021C3958224F910AF08858322858221805F
:101DD30008858322858221D2AFCEF0A3E520F0A32C
:101DE3007808E608F0A3DEFAEFF0A3E58124FBF818
:101DF300E608F0A3E608F0A30808E608F0A3E6085F
:101E0300F0A315811581D0E0FED0E0F8158115818E
:101E1300E8C0E0EEC0E022852283852182E0A3FEB4
:101E2300E0A3F5207808E0A3F608DFFAE0A3FFE0DB
:101E3300A3C0E0E0A3C0E0E0A3C0E0E0A3C0E0E013
:101E4300A3C0E010AF0885822185832280088582A4
:101E530021858322D2AFD083D082020132852283AF
:101E6300852182E0A3FEE0A3F5207808E0A3F6082D
:101E7300DFFAE0A3FFE0A3C0E0E0A3C0E0E0A3C07B
:101E8300E0E0A3C0E010AF088582218583228008AB
:101E9300858221858322D2AFD083D08222C0D025F0
:101EA30021C582C0E0E52234FFC583C0E0E521C33C
:101EB300958224F310AF08858322858221800885CB
:101EC3008322858221D2AFC8F0A3E9F0A3EAF0A36D
:101ED300EBF0A37908E709F0A3D8FAECF0A3EDF04F
:101EE300A3EEF0A3EFF0A3D0E0F0A3D0E0F0A3D0F3
:101EF300E0F0A3E520F0A3E5F0F0A322852283859B
:101F03002182E0C0E0A3E0F9A3E0FAA3E0FBA37819
:101F130008E0F608A3DFFAE0FCA3E0FDA3E0FEA3DC
:101F2300E0FFA3E0C0E0A3E0C0E0A3E0F5D0A3E0BE
:101F3300F520A3E0A3F5F010AF0885832285822165
:101F43008008858322858221D2AFD082D083D0E0DE
:101F5300F8D0E03274048006740280027401C0E099
:101F6300F404121D09D0E0121BDE227404800474F1
:101F7300028000CCC0E0EDC0E0E521C39CCCAD22E3
:101F830050011D10AF068C218D2280068C218D22DD
:101F9300D2AF121BEBD0E0FDD0E0FC22D083D08285
:101FA300E9C0E0E493A3C386F0C5F095F0F908E433
:101FB30093A386F0C5F095F0700BE493A3C3994007
:101FC30005E9048002A3E475F002A42582F582E505
:101FD300F03583F583D0E0F9E493A3C0E0E493C044
:101FE300E022D083D082ECC0E0EDC0E0E493A3FC18
:101FF300E493A3FDED4C600D122031EC24FFFCEDC6
:1020030034FFFD80EFE493A3FCE493A3FDED4C6068
:102013000D122070EC24FFFCED34FFFD80EFD0E0C7
:10202300FDD0E0FCE493A3C0E0E493C0E022C0E071
:10203300C3E49396087401939618400FE493667073
:102043000808740193661870007019A3A3C3E4937E
:1020530096087401939618A3A3400DD0E0D0E0D066
:10206300E0022021A3A3A3A3A3A3D0E022C0E0C046
:10207300F088F0E4936670080874019366187000A2
:10208300A8F0A3A3700BD0F0D0E0D0E0D0E0022002
:0820930021A3A3D0F0D0E0224C
:10209C0074F6121DB4EAFEEBFF8C088D09EE2434A5
:1020AC00F8E43FF9E8FCE9FDEE2435122391FAEE51
:1020BC002437122391F88508F0A4C885F00A850905
:1020CC00F0A4250AF9EA28F8E439F97A257B0012FC
:1020DC001C4DEA8C828D83F0FA131313541FF8EE07
:1020EC0028F8E43FF9E8245DF582E439F583E0C093
:1020FC00E074075AF8D0E0B800028004C313D8FC8F
:10210C00A2E0EE50082434F582E43F801824361205
:10211C002391F5F0EA84A8F0EE28F8E43FF9E824DE
:10212C0038F582E439F583E0F97F03021E6074F719
:10213C00121DB4EAFEEBFFEE2434122391C0E0EE44
:10214C002435F582E43FF583D0E0F08E828F83A3B3
:10215C00A3A3A3A3A3A3C082C0838E828F83A3A3B4
:10216C00A3A3A3122202D083D082E0C398F508A3C4
:10217C00E099F509EE247F1223916401705DEE2441
:10218C00801221FC8E828F83A3A3A3A3A3A3A312EB
:10219C0025348E828F83A3A3A3A3A3E0FAA3E0FB31
:1021AC00C3EA9CEB9D5010C3EC98ED99402DC3EA0B
:1021BC0098EB995026800EC3EA98EB994007C3EC34
:1021CC0098ED9940167CBD7D06EEFAEFFB120B28BC
:1021DC00EE247FF582E43FF583E4F0AC08AD09EE24
:1021EC00FAEFFB12209CE9F9122BF67F02021E601B
:1021FC00F582E43FF583E0F8A3E0F92274EF121DB9
:10220C00B4900369E064086005E06407702A90618B
:10221C00C8E06024900397E0F4601DE0F875F00CC2
:10222C00A4C8AAF02AF9749928FE740339FF8E8287
:10223C008F83A3A3A3E07003022316906060E0C019
:10224C00E0EE2468F582E43FF583D0E0F0750CF9FC
:10225C00750D06750800750900E5D914F50AE5D960
:10226C005403F50E60127403650E6043E50A600AB0
:10227C00EE2467122391700280759006F4E06401DD
:10228C00601F12238E60047A0480027A00E50AC370
:10229C009AFA95E0FB1209D28A088B09EA45097073
:1022AC0005120DC2806412238E70048A0C8B0DE50E
:1022BC000A6012850C82850D83F50BE5D9F0A31508
:1022CC000BE50B70F612238E604474FC250AF50A9C
:1022DC00780C121F5BAC0AA90EEEFAEFFB120BEE98
:1022EC007402121CEEE97026AA08AB0912142279AA
:1022FC003D8E828F83A3A3A3A3E0FA7B0012084C2C
:10230C00EEFAEFFB120B4C120C4E7900806F74033B
:10231C00650E6051850A107511007810121F5BACA8
:10232C000CAD0DAA08AB09120BB27402121CEEEE26
:10233C00246812239164807004747F8001E0F50C92
:10234C00780C121F5FE50EF50C780C121F5FA90AB2
:10235C00AC08AD09900397E0FA7B0012081C7402DC
:10236C00121CEE8013900369E06408700BAC0CAD8A
:10237C000DEEFAEFFB120C1E120DCE79017F0A0244
:10238C001E60EE2482F582E43FF583E02274F212A3
:10239C001DB474FC121CD8EAFEEBFF8909A2AFE451
:1023AC0033F508C2AF022455E0601B780C121F5B9A
:1023BC00AC0BA90EEEFAEFFB120BE87402121CEE3A
:1023CC007404250BF50B7401250BF5D9850ED9E595
:1023DC000B6018F50A850C82850D83E0F5D9A38571
:1023EC00820C85830D150AE50A70EA75E195EE24D9
:1023FC0063F8E43FF97A007B00A2AFE433F50BC23B
:10240C00AF122530EC4D603288828983E0FAA3E06C
:10241C00FB8A828B8312253488828983ECF0A3EDAE
:10242C00F08A828B83E4F0A3F0122530EC4D700A15
:10243C0088828983A3A3E4F0A3F0E50BA2E092AF1A
:10244C001214229006C4E004F0EE24631221FCE87E
:10245C00496064EE24631223912402F8A3E0340053
:10246C00F988828983E5822402F50CE43583F50D25
:10247C00E0F50BA3E0F50EEE2462122391640170DB
:10248C00369061D0E0F812238E60047C0480027CCC
:10249C00007480C398FA95E0FBE50B2CF8E434004B
:1024AC00F9E82402F8500109C3EA98EB99A2D26525
:1024BC00D03340030223B49006C4E0604D9006C5AF
:1024CC00E0F89006C4E0C398500C74026509703AA9
:1024DC009006C6E060348E828F83A3A3A3A3E0850D
:1024EC0021828522831225267402121D24E81225CE
:1024FC00269006C3E028F07402121D3EAA21AB22DE
:10250C0079011208769006C4E4F0E508A2E092AFD7
:10251C007404121CEE7F07021E60F0A3E4F0900618
:10252C00C4E0F82288828983E0FCA3E0FD2200004D
:10253C008524878525C622C0E074EB121EA0A2AFAD
:10254C00E433F508C2AF759B00906182E0A2E050C5
:10255C0030E591A2E0502A7591FE7401652470213A
:10256C001226D6120CEA1226C4121F6E122B3274CB
:10257C0004121CEEE9640170057901120D26122279
:10258C0008906182E0A2E5505DE591A2E550577597
:10259C0091DF900369E064076005E06408702F1216
:1025AC0026D674016524703E120CEA1226C4121F42
:1025BC006E122B327404121CEEE964017005790161
:1025CC00120D267901EEFAEFFB1223998018E064C4
:1025DC000D701390038BE004F064287002E4F07A21
:1025EC0000E0F9120DD4906182E0A2E640030226CD
:1025FC0099E591A2E640030226997591BF90036973
:10260C00E064057008120CD2120CDE8003120CD898
:10261C00752400120D44E990036AF07900120D261E
:10262C00120A927A017B00900368E0F912102C9048
:10263C007803E0644270569006F8E014F0704EC2D5
:10264C00AF122650007827D0E0F618D0E0F6E59FC0
:10265C005407F87005750DFF8003750D7FC4C0E03D
:10266C007826E6F50A08E6550DF50B740B780A1278
:10267C001CB6D0E0250AF8906270E0A2E740F8E8BA
:10268C00C333906272F0906270E0D2E0F09061819E
:10269C00E0A2E35009E5E9A2E3500375E9F7A3E0F2
:1026AC00A2E75009E591A2E7500375917FE508A2D6
:1026BC00E092AF7F08021EFF8E828F83E0F8A3E0CA
:1026CC00C82416F582E438F58322900397E0F87558
:1026DC00F00CA4C8AAF02AF9749928FE740339FFE7
:1026EC0022C0E0C0D0C082C083906183E0A2E050E1
:1026FC0009E5BFA2E0500375BFFEE0A2E15009E579
:10270C00BFA2E1500375BFFDE0A2E25009E5BFA2F4
:10271C00E2500375BFFBE0A2E35009E5BFA2E35012
:10272C000375BFF7E0A2E45009E5BFA2E4500375BE
:10273C00BFEFE0A2E55009E5BFA2E5500375BFDF8E
:10274C00E0A2E65009E5BFA2E6500375BFBFD083F7
:10275C00D082D0D0D0E032C0E074F2121EA0E5A737
:10276C00A2E6500FE5A1A2E6500953A7BF75A1BF81
:10277C001227B7E5A7A2E5500CE5A1A2E550065338
:10278C00A7DF75A1DFE5A7A2E15009E5A1A2E15001
:10279C000375A1FDE5A7A2E2500CE5A1A2E250064B
:1027AC0053A7FB75A1FB7F01021EFF74F7121DB42A
:1027BC00752401900369E064067015120C728A820C
:1027CC008B83A3A3A3A3A3A3E0FAA3E0FB120CC0E7
:1027DC00A2AFE433FED2AF90036FE0640170187ABD
:1027EC00207B00900368E0F91210B07A207B0090F7
:1027FC000368E0F9121032906182E0D2E6F09006A4
:10280C00F5E0602185C625801690036EE0640170AA
:10281C0008E5C654F84405F5C653BEFC12253C74B5
:10282C0001652460E4EEA2E092AF7F02021E6074A8
:10283C00E9121DB474FA121CD8EAFEEBFF8C0A8D57
:10284C000B120CF6EAF8EBF9ECFAEDFB8E828F83A7
:10285C00121BD2900369E024F7C39405500675143B
:10286C00010229A2120C728A088B09EA450970032D
:10287C0002299FEEFCEFFDAA21AB22120CF0850879
:10288C0082850983A3A3780C121B90908DB0780CD1
:10289C00121B578521828522837810121B90908DF4
:1028AC00B07810121B57780C79101214D3501F7873
:1028BC000C7910121B1C908D70780C1214F340477D
:1028CC00850C14850D15850E16850F178045908D7A
:1028DC0070851014851115851216851317781479C7
:1028EC000C121B1C78141214F3501C751400751563
:1028FC000075160075170178147910121B1C7814CA
:10290C00790C121AE3800C751401751500751600FC
:10291C0075170074097814121AC4908D0C780C1267
:10292C001B907814790C121A3C850882850983A3B4
:10293C00A3A3A3A3A31229C0121C4D880C890DE4D8
:10294C00F50EF50F7814790C121AE37404121D2489
:10295C001229C0121C4DE8FA8A0CE4F50D78147992
:10296C000C1214D350077814790C121B1C900369A9
:10297C00E06408600AE064066005E064057020907D
:10298C008D6C78141214F35016908D647814121AFE
:10299C00F6800C75140075150075160075170085FA
:1029AC000A82850B837814121B9F7406121CEE7F0F
:1029BC0010021E60E0F8A3E0F97AD07B032274F7D2
:1029CC00121DB4120D089006F3E0640170109062B1
:1029DC0045E4F0A3F053F4F343FE0C5390F3120CC4
:1029EC00AEE5C654B84441F5C6E59E544764417003
:1029FC00F8906185740FF09006F1E0F47002A3E09A
:102A0C00604E9006F2E0600814601B14602E80404B
:102A1C007508017509009006F1E07808121CC5E5EF
:102A2C0008F45280802A7508017509009006F1E0BF
:102A3C007808121CC5E508F45290801475080175CD
:102A4C0009009006F1E07808121CC5E508F452A0C4
:102A5C0079007F02021E6074F7121DB4E9FEEAFFD2
:102A6C00120D0874016E700C7A807B00900368E084
:102A7C00F912102C902C4CE493F46008E493F912A6
:102A8C000A86800953C6B8E59E544770FA120CB4F6
:102A9C009006F3E064017003120AA49006F1E0F4CE
:102AAC007002A3E0604B9006F2E0600814601A1408
:102ABC00602C803D7508017509009006F1E07808DE
:102ACC00121CC5E508428080287508017509009024
:102ADC0006F1E07808121CC5E508429080137508D1
:102AEC00017509009006F1E07808121CC5E5084252
:102AFC00A0120C728A088B09A808A909E84960146D
:102B0C00E5E170FCE82414F582E439F583E0F46027
:102B1C0003E0F5E174016F700A7A01900368E0F943
:102B2C00121080022A5E74F1121DB48A088B098C73
:102B3C000A8D0B908DB07808121B57740F121D2440
:102B4C00780C121B90908DB0780C121B577808796A
:102B5C000C1214D3908D7050107808790C121B1C29
:102B6C0078081214F34014800E780C7908121B1C90
:102B7C00780C1214F350047901800279007F08025A
:102B8C001E6074ED121DB48A088B098C0A8D0B9093
:102B9C008DB07808121B577413121D24780C121B5D
:102BAC0090908DB0780C121B57780C79081214D3B6
:102BBC0040117808790C121B1CAA08AB09AC0AADA1
:102BCC000B802275100075110075120075130178B9
:102BDC0010790C121B1C78107908121AE3AA10AB8E
:102BEC0011AC12AD137F0C021E60C082C083E99041
:102BFC006000F0D083D08222C2AF02000022C0E07D
:102C0C0074F2121EA0E5A8FED2AF1212D8C2EBEEDF
:102C1C00A2E7A2E792AF7F01021EFFC0E0C0D0E89E
:102C2C00C0E0E9C0E0E5A8D2AFC2C7752300A2E7B7
:0F2C3C00A2E792AFD0E0F9D0E0F8D0D0D0E032EC
:102C4C00FFFFFFFFFFFFFFFFC082C083E9901AFA6E
:102C5C00F0D083D08202013274F6121D48E9900242
:102C6C00DCF090033BE0F50875090074027808125B
:102C7C001CC5AA08AB091210689002DD1236179019
:102C8C0002DD123A04606F90033BE075F003A4FA86
:102C9C00ABF01210689002FA1236179002FA123A40
:102CAC0004700B9002DD1239D512106E8048900220
:102CBC00FA1249697AFF7BFF12123C7A0080198A5A
:102CCC000875090074027808121CC512441174FFAF
:102CDC00122E17E4F0A3F00A90033BE0F8EAC39835
:102CEC0040DD79051207149002DCE0F91206007A37
:102CFC009E7B071209720244B474F4121D488A08B0
:102D0C008B09EB548060479002DCE0F91210148AB6
:102D1C000A8B0BAE0AAF0BEE4F602A8E828F83E0CC
:102D2C0064B0701A120726E960148E828F83A3A3F5
:102D3C00A3A3E0F9EE2405FAE43FFB1206F6EEFA43
:102D4C00EFFB121002AA08E5096480FB80047A00EC
:102D5C007B00022F6774F2121D4874FB121CD8EA18
:102D6C00FEEBFFEE4F60457403121D24EEF0A3EF53
:102D7C00F0852182852283ECF0A3EDF07402121D04
:102D8C0024E9F0AA21AB221205FAE9F50870757452
:102D9C0013121D24E0F50AA3E0F50BE50A450B60C0
:102DAC00638E828F831233A0EE4F700575080280FC
:102DBC00537A067B001210688A0C8B0DA80CA90D97
:102DCC00E8497005750813803B88828983E4122ECC
:102DDC0017EEF0A3EF122F33E50AF0A3E50BF090FA
:102DEC0002E0122F2C9002E06017E0FCA3E08003BD
:102DFC00EAFCEBFD8C828D83122F2C70F38C828D70
:102E0C008312402CA9087405024BE9F0A312494B1C
:102E1C00A32274F2121D488908890C750D007403E5
:102E2C00780C121CC5850C0A850D0B9002DFF090F6
:102E3C0002DD123E37122F2A602E12106E7900809E
:102E4C001D890C750D007402780C121CC59002DDE6
:102E5C001242D08882F583A3A3E4F0A3F009900377
:102E6C003BE0F8E9C39840D990033BE0FA850AF0BF
:102E7C00A4CAA8F0850BF0A428FB1210688A0C8B4E
:102E8C000DAE0CAF0DEE4F7003022F2090033BE004
:102E9C00FC850AF0A4CCA8F0850BF0A428FD7900E1
:102EAC00120FF07C0080318D0C750D007403780CC2
:102EBC00121CC58A828B83122F2588828983E4F0A9
:102ECC00122F32A3A3F0A3F00DEDC3950840D8EE5A
:102EDC00250AFEEF350BFF0C90033BE0F8ECC39892
:102EEC0050288C0C750D007402780C121CC59002C5
:102EFC00DD122F25E82402500109FAE9FB8A828BA6
:102F0C0083EEF0A3EFF07D0080BFE5089002DFF0C8
:102F1C00790080027913024BEC1242D4F922A3A35C
:102F2C001239D9EA4B22A312494BA3A3A32274F45E
:102F3C00121D487900EAA2E0501F7508FA75098C39
:102F4C007808121F5B79107C047D007AFC7B1A12C6
:102F5C00070E7402121CEEE9F980007F04021E1A9F
:102F6C00C082C0839002E0123A04601C888289837C
:102F7C00A3A3E06A7003A3E06B8882898370E8A343
:102F8C00A3A3A31239D580047A007B00022C5D74B4
:102F9C00F2121D4874FD121CD8EAFEEBFF8521824B
:102FAC00852283E4F0A3F07402121D247401F01244
:102FBC003A0170141208C41210689002E31236170A
:102FCC00123A01700302312D123717EE2404F50A60
:102FDC00E43FF50B850A82F583E024FE603C24FC7B
:102FEC00607424FE607E24FE700302307D24FE702B
:102FFC000302308A24FE700302309724FE70030211
:10300C0030A424FE70030230B124FC70030230D2D1
:10301C0024FE70030230EA0231261208C49002E545
:10302C00EAF0A3EB123139120270E9600302312687
:10303C009002E5121F728E828F83A3A3A3A3A31207
:10304C0049698508828509831239D51206DE740216
:10305C00121CEE023126AC21AD22EEFAEFFB120768
:10306C002C0230F5AC21AD22EEFAEFFB12073280C8
:10307C0078AC21AD22EEFAEFFB120738806BAC2155
:10308C00AD22EEFAEFFB12073E805EAC21AD22EED4
:10309C00FAEFFB1207448051AC21AD22EEFAEFFBA4
:1030AC0012074A80447402121D2E880C890D780C6C
:1030BC00121F5B7402121D3EEEFAEFFB12075074E6
:1030CC0002121CEE8023AC21AD22EEFAEFFB1207AC
:1030DC0056E9F870167402121D24E4F0803CAC2101
:1030EC00AD22EEFAEFFB12075CE9F8E8602C8E8259
:1030FC008F83A3E064146022850A82850B83E090A1
:10310C0002E5F08521828522831239D59002E612E0
:10311C003617E8A312313912026AEEFAEFFB1206E7
:10312C00B47402121D24E0F97403024BE9F07CE53F
:10313C007D028508828509831239D92274E8121D13
:10314C004874FA121CD87404121D24ECF0A3EDF090
:10315C008A128B13EA2405F50EE43513F50FEA24D5
:10316C0002F510E43513F511851082F5831239D56B
:10317C001203A88A0A8B0B7508007C037D0079006A
:10318C007AE57B02120FF0E50E2402F516E4350FFA
:10319C00F5177402121D2E880C890D780C121F5B0A
:1031AC00850E82850F83A3A3A3A3E0F50C750D00F8
:1031BC00780C121F5BE50E2405F50CE4350FF50DAC
:1031CC00780C121F5B851682851783123CDC120665
:1031DC00187406121CEE8A0C8B0DE50C450D700351
:1031EC000233698020852182852283E0888289834D
:1031FC00F00508852182852283A3E0C0E01233AA62
:10320C00D0E0F00508E50A24FBFAE50B34FFFBC31C
:10321C00E5089AE49B40030233697E007F00851227
:10322C0082851383A3A3A3A3E0F5097809121F5F7A
:10323C00E4F514F5157814121F5B7514E27515027C
:10324C007814121F5B9002E3121F727409121D2472
:10325C00121F72E50A24F9F9AC0CAD0D85108285AC
:10326C0011831239D51207867409121CEEE960031A
:10327C0002330A850E82850F83A3A3A3A3A3A3A362
:10328C00E0F89002E2E0687075E0F5148E157814A1
:10329C00121F5B124966850E82850F83A3A3A3A31D
:1032AC00A3A3A3A31239D5120FEA7402121CEEE9E0
:1032BC00604C9002E6123A04703BE4F51478141258
:1032CC001F5B7CFF7DFF7907851082851183123986
:1032DC00D51206F07402121CEE123A0A7017850E03
:1032EC0082850F83124B037404121D241243C412E3
:1032FC003D0D02339D850C82850D831233A0A821D0
:10330C00A922881489157814121F5B7404121D24C9
:10331C00121F7285168285178312360D12062474BD
:10332C0004121CEE8A0C8B0DEE4F70030231E61268
:10333C0033AAEE1233B5123CC3EF1233B5F8A3E047
:10334C003400F9E50C450D60030231F18882898364
:10335C0074FFF005081233AA74FFF00508E5086045
:10336C001A1313543F12361D12027CE960099002A5
:10337C00E61239D512142279008016850E82850F3B
:10338C0083124B037404121D241243C412402C7973
:10339C000A023C96A3A3A3A3E0FEA3E0FF22A80885
:1033AC009002E6E028123CC322F00508089002E6E1
:1033BC00E0282274E8121D4874FA121CD874021208
:1033CC001D241236177404121D24ECF0A3EDF074B6
:1033DC0002121D24E02405123CACE0F50CA3E0F530
:1033EC000D7402121D24E02402F510A3E03400F544
:1033FC0011851082F5831239D51203A87508007552
:10340C000900EA24FCFEEB34FFFF8008050CE50CF8
:10341C007002050DA808C3EE98EF94005003023516
:10342C00C9A821A922880E890F780E121F5B85145A
:10343C0082851583A3A3A3A312496D121F5BE51408
:10344C002405F50EE43515F50F780E121F5B851467
:10345C008285158312360B1206187406121CEE8A1E
:10346C000E8B0FEA450F70030235C9EA2404F516DA
:10347C00E4350FF517851682F583E0F50CA3E0F51E
:10348C000D8521828522831249698A828B83A3A3AD
:10349C00A3E0F98510828511831239D5120606E94D
:1034AC00F50960030235C97402121D24123CD3F5D0
:1034BC00097809121F5FE4F512F5137812121F5BDD
:1034CC007512E27513027812121F5B9002E3121F41
:1034DC00727407121D24121F72EEF9AC0EAD0F851B
:1034EC0010828511831239D51207867409121CEECD
:1034FC00E9F50960030235C9E508703FE4F50EF5FE
:10350C000F780E121F5B7CFF7DFF79098510828579
:10351C0011831239D51206F07402121CEE123CF90A
:10352C00700D7404121D2412360079110235FD90B1
:10353C0002E2E024029002E6F080149002E6E0FA47
:10354C009002E2E0790024025001096A497072A8E5
:10355C00089002E2E0FAE82AFAE43400FBEE9AEF73
:10356C009B405A851682851783E0C0E09002E712D3
:10357C0033AFD0E0F00508851682851783A3E0C031
:10358C00E0089002E71233AFD0E0F005089002E2B9
:10359C0012496D121F5B124966A808123CA0120F4B
:1035AC00D87402121CEE9002E2E02508F50874FFB4
:1035BC00650C700474FF650D6003023418E5086037
:1035CC001F9002E6E0F5F0E5088412361D12028227
:1035DC00E960099002E71239D512142279008011A2
:1035EC00E509700375090A7404121D24123600A92A
:1035FC0009023C96123E3BE50CF0A3E50DF022A32C
:10360C00A3124BF8AA0CAB0D22A3A3EAF0A3EBF088
:10361C00229002E5F07CE57D0285108285118312F3
:10362C0039D92274EC121D4874FC121CD812413C7E
:10363C007402121D3E1239CF12061E8A0C8B0DEA33
:10364C00450D7003023707123717A821A9228810DD
:10365C0089117810121F5B7CFF7DFF790B85088226
:10366C008509831239D51206F07402121CEE123839
:10367C000D700C850A82850B83123D0A0237148E5D
:10368C00828F83A3A3A3A3E0F5127812121F5FE429
:10369C00F512F5137812121F5B7512E5751302788B
:1036AC0012121F5B7810121F5B7409121D24121F5B
:1036BC00727409121D24E0F9AC0CAD0D85088285DD
:1036CC0009831239D51207867409121CEEE9FE70B3
:1036DC00157CE57D028508828509831239D5120295
:1036EC0088E97009802074166E70027E009002E6E4
:1036FC001239D5121422EE7004800B7E01850A82D9
:10370C00850B83124029EEF902403EEE2402F508A7
:10371C00E43FF5092274EC121D4874FC121CD8EA23
:10372C00FEEBFF8C0E8D0FEE2405F508E43FF5093A
:10373C007402121D3E8508828509831239D5120642
:10374C001E8A0C8B0DEA450D70030237FDEE240228
:10375C00F50AE43FF50BA821A922881089117810ED
:10376C00121F5B7CFF7DFF790D1239CF1206F074AE
:10377C0002121CEE12380D700B850882850983121B
:10378C003D0A807A8E828F83A3A3A3A3E0F51278DF
:10379C0012121F5F850882850983A3A3121F7275FD
:1037AC0012E57513027812121F5B7810121F5B74EE
:1037BC0009121D24121F727409121D24E0F912390A
:1037CC00CB1207867409121CEEE9FE700F7CE57DA6
:1037DC00021239CF12028EE97009802074166E70B5
:1037EC00027E009002E61239D5121422EE7004808B
:1037FC000B7E01850882850983124029EEF902406F
:10380C003E123A14F510A3E0F511EA45112274E8C2
:10381C00121D4874FE121CD88A168B178C148D1529
:10382C00EA2405F50CE43517F50DEA2402F50EE44F
:10383C003517F50F850E82F5831239D51203A88A38
:10384C00088B09750B007C037D0079007AE57B02FF
:10385C00120FF0750A00E50814F5100424FFF508A2
:10386C00E50934FFF50980549002E5E0FA9002E294
:10387C00E0F8EA28F8E43400F9E50898E5099950ED
:10388C000D9002E5E0F8E510C3989002E2F0E0F547
:10389C00127513007812121F5B1249669002E6E053
:1038AC002AFAA3E03400FB120FD87402121CEE901B
:1038BC0002E2E0F89002E5E028F0050A850C82852A
:1038CC000D83A3A31242E040030239B09002E5E05D
:1038DC00C39508E4950940030239B0AE0AEE2EFEFA
:1038EC00E433FF1239EFAC21AD22124981E439FBEC
:1038FC0012061E8A128B13AC12AD13EC4D701B7595
:10390C000B011239DF12402D9002E6122F2C6003AE
:10391C00121422A90B7402023C9885168285178317
:10392C00A3A3A3A3E0F50B780B121F5FE4F512F52C
:10393C00137812121F5B7512E27513027812121FA4
:10394C005B9002E3121F727407121D24121F72A9DE
:10395C0010850E82850F831239D5120786740912D1
:10396C001CEEE9F50B709B9002E6123A0460030220
:10397C003874E4F512F5137812121F5B7CFF7DFF8F
:10398C00790F850E82850F831239D51206F07402D9
:10399C00121CEE123A0A60030238741239DF123D1F
:1039AC000E0239217CE57D02850E82850F8312394A
:1039BC00D5120294E960030239147900023921AC62
:1039CC000CAD0D850A82850B831239D922E0FAA33E
:1039DC00E0FB221239EFE0FAA3E0F9EA85148285C4
:1039EC00158322850C82850D83E02EF8A3E03FF928
:1039FC0088828983229002E3124B07E84922123A0B
:103A0C0014F8A3E0F9E849229002E6EAF0A3EBF0FF
:103A1C009002E6E02274E8121D4874FA121CD87465
:103A2C0004121D241236178C168D177404121D24C3
:103A3C00E02405F50EA3E03400F50F7404121D24E8
:103A4C00E02402123CAC1239D51203A88A0A8B0B63
:103A5C007F007E00A821A922880889097808121FF6
:103A6C005B850E82850F83A3A3A3A3E0F5088E09C3
:103A7C007808121F5BE50E2405F508E4350FF509EF
:103A8C007808121F5B850E82850F83A3A3123CDC82
:103A9C001206187406121CEE8A0C8B0D8029123C2F
:103AAC00CDF00F123CCDF00F9002E2124018121F15
:103ABC005B124966EFF8123CA0120FD87402121C6C
:103ACC00EE9002E2E02FFFE50C450D7003023B5C2B
:103ADC0085218285228312414EA3A3A3E0F985148C
:103AEC00828515831239D5120606E9FEE50C2404ED
:103AFC00F510E4350DF511EE70507404121D2412FE
:103B0C003CD3F5087808121F5FE4F508F50978082E
:103B1C00121F5B7508E27509027808121F5B900290
:103B2C00E3121F727407121D24121F72E50A24FA85
:103B3C00F9AC0CAD0D8514828515831239D512079D
:103B4C00867409121CEEE9FE6039123CE912402C15
:103B5C00EF7003023C839002E6E0F5F0EF849002F4
:103B6C00E5F07CE57D028514828515831239D5122A
:103B7C00029AE960099002E71239D51214227900F1
:103B8C00023C968F08EF703BE4F512F51378121295
:103B9C001F5B7CFF7DFF791185148285158312399B
:103BAC00D51206F07402121CEE123CF97009123C8C
:103BBC00E9123D0D023C969002E2E024049002E6EC
:103BCC00F080359002E2E0F89002E6E0FAE8240496
:103BDC00FCE43400FDEC6A4D6003023B62E50A2410
:103BEC00FAFAE50B34FFFBE50828F8E43400F9EAAF
:103BFC0098EB995003023B62851082851183E0C0DB
:103C0C00E09002E7E02FF8A3E034008882F583D03F
:103C1C00E0F00F851082851183A3E0C0E0123CBA5E
:103C2C00D0E0F00F7402121D2E8808890978081252
:103C3C001F5B7402121D24121F72850E82850F8366
:103C4C0012360B1206247404121CEE8A0C8B0DEA2D
:103C5C00450D7003023AAA7402121D24E0C0E01252
:103C6C003CBAD0E0F00F7402121D24A3E0C0E012A5
:103C7C003CBAD0E0023AB2EE70027E0A850E828522
:103C8C000F83123CEF12402CEEF97406121CEE7FDF
:103C9C0010021E1A9002E7E028FAA3E03400FB227F
:103CAC00F514A3E03400F515851482F58322123C3B
:103CBC00BE229002E7E02FFAA3E034008A82F5835B
:103CCC0022123CBE74FF22123E3BA3A3A3A3E0220C
:103CDC00124BF8850E82850F831239D922851082FA
:103CEC00851183124B07851682851783229002E774
:103CFC00EAF0A3EBF09002E7124B07E849221240DE
:103D0C0032E8F0A3E9F079112274EA121D4874FE2E
:103D1C00121CD88A088B098C128D13EA2405FEE438
:103D2C003509FFAC21AD228E828F831239D5120654
:103D3C001E8A0C8B0DEE2406F50EE43FF50FEA45BA
:103D4C000D7003023E0DE5082402F50AE43509F571
:103D5C000B8A828B83A3A3A3E0A2E5502885218242
:103D6C008522831239D512077A8A108B11EA4511F4
:103D7C00602079121239CB851082851183121D4671
:103D8C00E9F50C707F850E82850F83E0600979520E
:103D9C008011750C0E806D850882850983A3A3A301
:103DAC00A3E0F9E4F508F5097808121F5B8E828F01
:103DBC0083A3A3E0F5087808121F5B8E828F83A380
:103DCC00A3A3121F728E828F831249691239CF12EC
:103DDC00078C7406121CEEE9F50C7011850E8285A9
:103DEC000F83E0702D1239CF1202A0802574166556
:103DFC000C7011750C007418121D24123E37E480DF
:103E0C0010750C01124AFF851282851383E8F0A30A
:103E1C00E9F0850E82850F83E0600479008002A9A9
:103E2C000C7402121CEE7F0E021E1A123E3B22E094
:103E3C00F8A3E0F58388822274EC121D4874F71203
:103E4C001CD88A0A8B0B8C108D11EA2405FEE435E4
:103E5C000BFF750C00AC21AD228E828F831239D5ED
:103E6C0012061E8A088B09EA45097003024003E515
:103E7C000A2402F50A5002050B8A828B83A3A3A3A2
:103E8C00E0A2E5502F8521828522831239D51207B5
:103E9C007A8A0C8B0DEA450D604F7912AC08AD098E
:103EAC001239CF850C82850D83121D46E9F50C6005
:103EBC0003024006850A82850B83E0F508A3E0F532
:103ECC0009AA08FB12076EEA4B70197AFF7BFF12E6
:103EDC00076EEA4B7003023FF98A828B83E508F088
:103EEC00A3E509F07508008008750C0E0240060564
:103EFC00089002DFE0F8E508C3984003023FF9851B
:103F0C00080E750F007403780E121CC58A828B8301
:103F1C00A3A3E0250EF8A3E0350F1243CD70D08E8D
:103F2C00828F831240211236178E828F83A3A312A5
:103F3C004021123615EE2404F508E43FF5098508F6
:103F4C0082F583E088828983A3A3A3A3F0A3E4F082
:103F5C00EE2405F50EE43FF50F850E82F583124035
:103F6C0021A3A3A3A312361575120775130078129B
:103F7C00121F5BEEFCEFFD7404121D36120FD87489
:103F8C0002121CEEE4F5127812121F5B8508828572
:103F9C000983E0FC7D0079171239CF1206F0740208
:103FAC00121CEE7407121D241236177407121D24EE
:103FBC00E0FA4B603D850882850983124018121F78
:103FCC005B850E82850F83124969120FD874021219
:103FDC001CEE7402121D3E1239CF1202A6E96026A5
:103FEC007407121D241239D51214228019750C096C
:103FFC008008750C118003750C01124AFF85108224
:10400C0085118312402CA90C74098028E0F50875E1
:10401C0009007808221239D9888289832212403209
:10402C00E8F0A3E9F022E0F8A3E0F9850E82850F11
:10403C0083227404121CEE7F0C021E1A74EC121DE7
:10404C004812413C751000EE2402F50CE43FF50DCE
:10405C00850C82F5831239D512076E8A088B09EA12
:10406C0045097003024120850A82850B83E06401B7
:10407C006003024115AC08AD09AA0AAB0B1207622A
:10408C00E9606E8508828509831233A2EE2406F559
:10409C000AE43FF50B8E828F83A3A3121F728E82CC
:1040AC008F83A3A3A3A3121F72850A82850B83128D
:1040BC001F7279188E828F8312414E1239D51207D6
:1040CC008C7406121CEEE9F8741668700B850A8263
:1040DC00850B83E4F0A38014E860128E828F831228
:1040EC0039D5850E82850F83EAF0A3EBF08810801A
:1040FC0018780E121F5BAC08AD09EEFAEFFB120735
:10410C00687402121CEEE9F510AA08AB09120774C8
:10411C00E510700E850C82850D831239D51202AC18
:10412C008009741665107003751000A910024043C5
:10413C00EAFEEBFF8C0E8D0FEE2405F50AE43FF53D
:10414C000B22124BF8850C82850D832274EA121D0A
:10415C00487508007509007E007F00750A00EC2484
:10416C0002F510E43DF5118035EC65087003ED6542
:10417C0009600302420D88828983A3A3E06A70035D
:10418C00A3E06B707C88828983A3A3A3A3124B0347
:10419C00EE28FEEF39FFEA28FAEB39FB050A12424A
:1041AC00DD503A850A0C750D007403780C121CC591
:1041BC008510828511831242D01243CD601FE50811
:1041CC00450970A58C088D09888289831233A088D3
:1041DC00828983A3A3E02EFAA3E03F80BEE50AC345
:1041EC00940250030242CB750800750900EE4F6033
:1041FC0010EEFAEFFB12141C8A0E8B0FEA450F70AF
:10420C000579000242CD750B000242A0850B0C759E
:10421C000D007403780C121CC5851082851183E087
:10422C00250CF50CA3E0350DF50DE50C2406F51465
:10423C00E4350DF515851482F5831243D26042E501
:10424C000C2404F512E4350DF513851282F5831256
:10425C001F72E50E2508FAE50F3509FB120FD8740D
:10426C0002121CEE851282851383E02508F508A343
:10427C00E03509F5098514828515831239D5121498
:10428C0022E50B600D7C087D007900AA0CAB0D12A9
:10429C000FF0050BE50BC3950A500302421885106D
:1042AC0082851183124B0388828983A3A3A3A3A3C2
:1042BC00A3E50EF0A3E50F122F33EEF0A3EFF07988
:1042CC0001023E321242D422E0250CF8A3E0350D57
:1042DC00229002DFE0F8E50AC3982274F0121D4820
:1042EC008A0E8B0F8C0A8D0B750D00750C0080508F
:1042FC007916EE2406F508E43FF5098E828F83A328
:10430C00A3121F728E828F83A3A3A3A3121F728585
:10431C000882850983121F72850E82850F83A3A3E1
:10432C001239D512078C7406121CEEE9F50D7416B1
:10433C00650D706C850882850983E4F0A3F0050C8B
:10434C009002DFE0F8E50CC3985066AA0C8A087559
:10435C00090074037808121CC5850A82850B83A397
:10436C00A312441CE8FEE9FF8E828F831243D260B5
:10437C0040EA2401F508E43400F5099002DFE06519
:10438C00087002E509601488828983A3A3A3A3A300
:10439C00A3A3A3123A0460030242FC79180242FE62
:1043AC00E9609B124AFF7410121D241243C4124080
:1043BC002CA90D7F08021E1AE0FAA3E0F5838A826D
:1043CC0022F988828983124BF8EC4D2274F6121D67
:1043DC00487C0080010C90033BE0F8ECC398501E25
:1043EC008C0875090074027808121CC5124411E07F
:1043FC006A7003A3E06B70DDE8FAE9FB80047A00D5
:10440C007B000244B49002DD12441C888289832212
:10441C00E02508F8A3E03509F92274F2121D488A48
:10442C00088B09750A0080278E828F83A3A3A3A310
:10443C00122F2A60031214227C087D007900EEFAF8
:10444C00EFFB120FF08E828F83E4F0A3F0050A12BB
:10445C0042DD5027850A0C750D007403780C121C74
:10446C00C5850882850983A3A3E0250CFEA3E0354E
:10447C000DFF8E828F83123A0470AD8508828509F8
:10448C008374FFF0A3F0024BEC74F6121D48120774
:10449C00208A828B83E582458370067A007B0080BC
:1044AC0007A3A3A3A31239D57F02021E1A74F41218
:1044BC001D4889088C828D83E06402703C124AA2EC
:1044CC00FEA3E0F9EEF87402687003742969702990
:1044DC00750A02750B00780A121F5B7410121D24EA
:1044EC00121F727410121D24121F72A9081212428C
:1044FC007406121CEEE9F980027901022F6774E848
:10450C00121D4874FB121CD8E9852182852283F088
:10451C008A168B17ECFEEDFF7510008E828F83A32D
:10452C00A3A3E0A2E4502D741D121D241239D51240
:10453C00077A8A828B83E58245837003024941792D
:10454C000AEEFCEFFDAA16AB17121D46E9F510603A
:10455C0003024944741F121D24E0F508A3E0F50979
:10456C007421121D24E0F50AA3E0F50B7423121D2F
:10457C0024E0F50EA3E0F50F8E828F83E0640260D9
:10458C00030248E2A3124B03850882850983A385A5
:10459C008212858313EE2406F50CE43FF50D888218
:1045AC008983124981F514E439F5157814121FE545
:1045BC00010000280128E44507000228A946032829
:1045CC0017460029D847012903480229A447032983
:1045DC00D84704297C48E248E50E450F60030248A1
:1045EC00DD850C82850D83124B03E8FAE9FB8A8288
:1045FC008B83E0850A82850B8312498C121F5B8AA0
:10460C00828B83A3E0FCA3E0024866E50E450F60B5
:10461C00030248DD850A82850B837401F01249760A
:10462C00850882850983F07C007D008E828F83A3B0
:10463C00A3A3A3E02401FAA3E03400FB12061EEAB4
:10464C004B60408A828B83E02402F8850A82850BBA
:10465C0083E028F0EA2404F8E43BF988828983E0BB
:10466C0085128285138312499A12498C121F5B8A18
:10467C00828B83A3124969E5082403FAE43509FB0C
:10468C0002486B850A82850B83E02404F07C047D50
:10469C00007900AA12AB13120FF0024944E50E4543
:1046AC000F60030248DD124976FEA3E0FF850A8203
:1046BC00850B837404F0EE850882850983F0EF8501
:1046CC001282851383F07403121D3EEEFAEFFB1277
:1046DC00061E8A0C8B0DEA450D70030247878A82F1
:1046EC008B83A3A31233A07401121D2E880E890F85
:1046FC00780E121F5B7405121D24121F727CFF7D35
:10470C00FF1206247404121CEE8B0FEA450F703353
:10471C00850C82850D8312496D121F5B850C828579
:10472C000D83A3121F727C027D007ACE7B8D120347
:10473C00967404121CEEE9700A7401121D2474FFA5
:10474C00F0A3F08E828F83E064027039750C0275D1
:10475C000D00780C121F5B8E828F83A3124969E5C2
:10476C00082404FAE43509FB120FD87402121CEE6B
:10477C00850A82850B83E0240280097401121D24B2
:10478C00EEF0A3EFF07401121D2412495B740112B8
:10479C001D241249520248D7E50E450F600302480A
:1047AC00DD850C82850D83124BF1AA16AB17121204
:1047BC0048850A82850B837402F0850882850983FB
:1047CC00EAF0851282851383EB0248DAE50E450F79
:1047DC0060030248DD124976F8A3E0F9850A828568
:1047EC000B837402F0E8850882850983F0E9851251
:1047FC00828513830248DA850C82850D831239D5A4
:10480C00120FD2EAFAF8C3950EE4950F405CE865F6
:10481C000E450F70047A008021852182852283E069
:10482C00FCE50E2CFCE4350FFDC3EC98ED94005028
:10483C0003E08005E50ECAC39AFAEA850A82850B65
:10484C0083F08A0A750B00780A121F5B850C82852F
:10485C000D83E0250EFCA3E0350FFDAA08AB091271
:10486C000FD87402121CEE02494475100702494419
:10487C00E50E450F705B850C82850D83124B03850D
:10488C000A82850B837407F088828983124953123C
:10489C00494BE0851282851383F0E82402FAE4394F
:1048AC00FB8A828B8312495B8A828B83124952A3C7
:1048BC00A3122F32124960F0E82405F85001098840
:1048CC00828983124960A312499AA3A3A3A3F080FF
:1048DC006775100B8062741D121D241239D51207D6
:1048EC00208A828B83E5824583604A124B03880CB5
:1048FC00890DE8450D603E7425121D24E0F51078F5
:10490C0010121F5F780E121F5B780A121F5B78085B
:10491C00121F5B7407121D24E0F9EEFCEFFDAA16C2
:10492C00AB17850C82850D83121D467407121CEE85
:10493C00E9F510800375100EA9107405023C98F06F
:10494C0088828983A322A3E08508828509832212A9
:10495C0049A1F0221249A1A3A3229002E3124BF821
:10496C0022E0F50E750F00780E22850C82850D83E2
:10497C00123E3BE022E0FAA3E0F8E4C8F9EA282270
:10498C00F08A828B83E0F50A750B00780A221249B3
:10499C004B1249A122E0850882850983A3A32274C6
:1049AC00EE121D4874FE121CD88A088B09ECFEED21
:1049BC00FF890AAC21AD22EEFAEFFB12061E8A0C1F
:1049CC008B0DEA450D7003024A9385218285228363
:1049DC001239D51207208A828B83E58245837003B6
:1049EC00024A8EA3A3124B03880E890FE8450F7061
:1049FC0003024A8E7414121D24E0F510A3E0F51185
:104A0C00E50AF50B780B121F5F7419121D24121F87
:104A1C00727810121F5B741B121D24E0F9AC0CADE4
:104A2C000DAA08AB09850E82850F83121D467405ED
:104A3C00121CEEE9F50B705274FE650A604C850C85
:104A4C0082850D83E064027041124AA2FAA3E0F958
:104A5C00EAF87402687003742969702E85108285D7
:104A6C001183124981F50CE439F50D780C121F5B9A
:104A7C00EEFCEFFDAA08AB091207A47402121CEE9F
:104A8C008008750B0E8003750B01A90B7402121CA8
:104A9C00EE7F0A021E1AA3124B0788828983E0223A
:104AAC0074F6121D4874FE121CD8740C121D2412BC
:104ABC004B03E8852182852283F07401121D24E9C1
:104ACC00F0E4F508F5097808121F5B750802780800
:104ADC00121F5B7404121D2E880889097808121F96
:104AEC005B79FE12078C7406121CEE7402121CEE1B
:104AFC000244B48E828F83124B0722E0F8A3E0F9B4
:104B0C002274F7121D48EAFEEBFF89089002FA1294
:104B1C004969121248EA5402600BA908EEFAEFFB3D
:104B2C00120612800279017F01021E1A74F2121D04
:104B3C004874FE121CD8EAFEEBFF890A7401650A60
:104B4C0060147402650A6003024BE7790112099044
:104B5C00E96003024BE7EEFAEFFB12076EEA4B60DB
:104B6C0003120774A821A922880889097808121F42
:104B7C005B7508027509007808121F5B7508D475FF
:104B8C00098D7808121F5B7CFF7DFF7A017B001278
:104B9C0006187406121CEE8038850882850983A3DA
:104BAC00A3A3A3A3A3124BF1EEFAEFFB12123CE466
:104BBC00F50CF50D780C121F5B7402121D24121FDC
:104BCC00727CFF7DFFAA08AB091206247404121C28
:104BDC00EE8A088B09E508450970BE7402121CEEBA
:104BEC007F06021E1A123E3B124BF822E0FCA3E099
:104BFC00FD2274F4121D488A088B09ECFEEDFF901F
:104C0C001AFAE0F4604B7A097B00120FFCEA4B6055
:104C1C00408A828B8374B1F0A3E4124C60F08A82D8
:104C2C008B83A3A3E508F0A3E509124C60A3EEF077
:104C3C00A3EFF0740C121D24124B038A828B83A3F6
:104C4C00A3A3A3A3A3A312402C901AFAE0F9121069
:104C5C0008022F67F08A828B83A3A3A3A322C082AE
:104C6C00C0839061907404F0A37448F0A37402F0B4
:104C7C009061807440F09061BC7403F09061877413
:104C8C0019F0906265741BF0906249E0C394139024
:104C9C00619C40107409F09060667401F090619F03
:104CAC007428800D740BF0906066E4F090619F7432
:104CBC002CF0124E557009C29190036D74678005EB
:104CCC0090036D7461F0124EA7902C4CE493F46039
:104CDC0006E493F9120A867905120DB60250E9C062
:104CEC0082C083E9540FF9906185E0696012E5C6D2
:104CFC0054B84441F5C6E59E5447644170F8E9F058
:104D0C0053C6B8E59E544770FA0250E9C082C0837E
:104D1C00A8A853A87E906181E4F0A3F0A3F0C2BAD6
:104D2C00539AFEC289759B00C2C275E90075910049
:104D3C0075BF0075A91175B905906181F0A374C098
:104D4C00F0A3E4F0D2BA439A0174805842A80250FE
:104D5C00E9F00250E9C082C08374F8121CD89003A9
:104D6C006B1264697003024E4D90036BE05440600B
:104D7C00177908AA21AB22120B94AA21AB22120894
:104D8C000490036BE054BFF0E054806010790C7A0F
:104D9C00197B07120B9490036BE0547FF0E0A2E0B8
:104DAC00501E124E557009C29190036D74678005A8
:104DBC0090036D7461F012080A90036BE054FEF0DE
:104DCC00E05402601E124E9A7009D29190036D74D9
:104DDC0071800590036D746AF012080A90036BE001
:104DEC0054FDF0E054046010902C50124EAA12089E
:104DFC001090036BE054FBF0E054086010902C51C1
:104E0C00124EAA12081090036BE054F7F0E0541005
:104E1C00600D124EA712081090036BE054EFF0E0F7
:104E2C005420600A12081090036BE054DFF0A3E0EA
:104E3C005401600D120AA412081690036CE054FE83
:104E4C00F07408121CEE0250E990619A12509C907A
:104E5C0006F3E0640122C082C083E9600514601788
:104E6C008029124E557009C29190036D7467801A97
:104E7C0090036D74618013124E9A7009D291900355
:104E8C006D7471800590036D746AF00250E9906145
:104E9C009A12508E9006F3E0640122902C52E49307
:104EAC00906186F02274EA121D4874F4121CD8909A
:104EBC008DA4AC21AD227404121BEB902C5093F4F6
:104ECC006003025023907808E0C394025003025010
:104EDC0007908CE07404121D3E7408121BEBA82181
:104EEC00A922881489157404121D2E88088909AE0C
:104EFC0008AF097510FF7511FF750EFF7C00750C5E
:104F0C0048750D78801274086C7003024F9D7409FB
:104F1C006C607E740A6C6079850C82850D837808D0
:104F2C00121B908E828F83A909E50AC9F888127426
:104F3C00187808121AABE5124508F8C3E098A3E0FC
:104F4C0099850C82850D837808121B9040188E82EF
:104F5C008F8374187808121AABE5124508F8E0C371
:104F6C0098F8A3E0801A74187808121AABE5124569
:104F7C0008FAE9FB8E828F831257BEEAC398F8EBCE
:104F8C0099F9C3E89510E995115006881089118C90
:104F9C000E0CE50C2404F50C5002050DECC3941317
:104FAC005003024F1274FF6510700474FF6511609A
:104FBC0024850E0874027808121CC574482508F55F
:104FCC008274783509F5837808121B9085148285D4
:104FDC001583E508F0EE2402FE50010F851482853E
:104FEC001583A3858214858315740C121D24E58208
:104FFC006E7003E5836F6003024EFF75080175093F
:10500C00007808121F5B7402121D3E7A147B0B127F
:10501C0012AE7402121CEE740C121CEE7F0E021EE9
:10502C001AC082C0839061AE7468F0A3746AF09069
:10503C00624574FBF0A304F053F4FD43FE029006AA
:10504C00F37401F09061A0E0643A90619A701912C7
:10505C00509C740164017009C29190036D74678057
:10506C001E90036D7461801712508E740164017070
:10507C0009D29190036D7471800590036D746A026E
:10508C004D5D743FF0A3745AF09061A0747FF022D0
:10509C007433F0A37455F09061A0743AF0227F043D
:1050AC00021E1AC082C0839006D1E0640170119078
:1050BC0006D7E064016019E07006A3E0640160109B
:1050CC009006E8E06401700C9006EEE06401700458
:1050DC00790C800279008005E0F9122BF6D083D090
:1050EC0082020132E0C4333354C022888289831295
:1050FC00567FA882A983222414F582E438F58322F2
:10510C00C082C0839006DB7425F09006D97401F040
:10511C00A3E4F07A01FB120D32125158241AF582D5
:10512C00E438F58374C8F0A3740AF09006D8E064F0
:10513C000170169006D7E070107901120D92120DC5
:10514C0062120D8C7900120D9E0250E99006C71266
:10515C0054E12274F6121D4874FA121CD89006D031
:10516C00E064017008120AB09006D0E4F075E1F129
:10517C001251582415F582E438F5837401F0900629
:10518C00D2E06401704B908D06AC21AD22740612F6
:10519C001BEB75D90D9006C91250F04403F5D97567
:1051AC0082CA75830612567BE58264D07004E5834F
:1051BC00640670F1A821A9221250F77406121D245E
:1051CC00E582687003E5836970EE75E1957901807D
:1051DC00027900120D38901B1E1252457430F0A348
:1051EC00740CF0A31252451252451253B37436F09C
:1051FC00A3740C1253C89006C9E0F97ACA7B061244
:10520C000D149006DBE0F9122BF67901120D3E908D
:10521C008DA8121BAE120D56908DB8121BAE120D2E
:10522C00207900120DAA1251581251037416F090E5
:10523C0003697405F0040258E0742AF0A3740CF0AE
:10524C00A32274F7121D488908A808E875F00CA46D
:10525C00C8AAF02AF9749928FE740339FF9006E065
:10526C00E0F97AE17B06120D149006EEE0702579D8
:10527C0000120D74EE240BF582EF3401F583E0700F
:10528C0004790080027901EE2405FAEF3401FB1257
:10529C000D1A80057901120D7475E1F175D9239001
:1052AC0006E01250F04405F5D97582E175830612BB
:1052BC00567BE58264E77004E583640670F175D96A
:1052CC000075D90075D90075D90075D90075D9004C
:1052DC00EE24221257341257537003E9658370F68B
:1052EC00EE242612573F2403F8E43583F912575362
:1052FC007003E9658370F6EE242B125748242C12A8
:10530C005748242D125748242E125748242F125731
:10531C004824301257482431125748243212574827
:10532C002433125748245D12573F2405F8E4358383
:10533C00F91257537003E9658370F6EE2437126245
:10534C00E8541FF8EE242A1262E8C43354E048F5FE
:10535C00D975E195901B1E74FAF0A3740BF0A3742D
:10536C0000F0A3740C1253AA7406F0A3740C12531D
:10537C00C89006EDE0F9122BF6908DA8121BAE1218
:10538C000D56908DB8121BAE120D2090600DE4F0EE
:10539C007901120DAA9003697406F0025B1CF0A34C
:1053AC001253B31253B3221253B72274F4F0A374F2
:1053BC000BF0A374F4F0A3740BF0A3221253CC22C1
:1053CC00F0901B2C1253D8A31253D8221253B7743B
:1053DC00F4F0A3740BF02274EC121D489006DE124C
:1053EC005F3E7810121B909006EFE0FAF875F00C07
:1053FC00A4C8ACF02C1260BAFFEE2EFEEF33FF8E79
:10540C000CF50D750E00750F0085100885110985BA
:10541C00120A85130B908D987808121AF6780812D8
:10542C001F5785100885110985120A85130B7808FA
:10543C00790C121AE37810790C121A3CE4F50EF57B
:10544C000F7808790C121B1C8A0C750D00740378EC
:10545C000C121CC57808790C121AE3908DB07808E0
:10546C00121B57AA08AB09AC0AAD0B122B8E740495
:10547C00121CEE8A088B09A808A909C3EE98EF99AB
:10548C005006E82EF8E93FF9E890600EF0E9A3F039
:10549C00EEA3F0EFA3F090600D74C1F07F0C021E30
:1054AC001AC082C0839006C71254CD9006DB0250FE
:1054BC00E4C082C0839006DE1254CD9006ED0250FB
:1054CC00E41254E11254D7F0A3F0222406F582E43E
:1054DC0038F583E422E0F8A3E0C82202013274F626
:1054EC00121D481256846004780480027800E82467
:1054FC000EF8ECC39850030255B87C0C9006F9E4F6
:10550C00F0EA2476F582E43BF583E09006FAF0EAC3
:10551C0024771255BD9006FB1255C79006FCF0EA95
:10552C0024791255BD9006FD1255C79006FEF0EA7F
:10553C00247B1255BD9006FF1255C7900700F0EA68
:10554C00247D1255BD9007011255C7900702F0EA51
:10555C002474F8E43BF98A828B83A3A3A3A3A3E06E
:10556C00FEA3E0FF88828983E02EF0A3E03F125C6B
:10557C00619007031255C79007041256A86017755F
:10558C0008F97509067808121F5B7903120BE87489
:10559C0002121CEE7C101258EEECFE12567BDEFB57
:1055AC0075E1957904120D5C79018002790002583D
:1055BC00E3F8E43BF988828983E022125C66A3E07D
:1055CC002274F6121D481256846004780480027806
:1055DC0000E8240AF8ECC39850030256767E089033
:1055EC0006F97401F07CBD7D0678FA79067F051208
:1055FC005692A882A983DFF7EA2480FCE43BFD8A5B
:10560C00828B83A3A3A3A3A3E0F508A3E0F5098CE5
:10561C00828D83E02508F0A3E03509F0125692083C
:10562C00A9838C828D83E0888289831256A86019A5
:10563C007508F97509067808121F5B7C0879031246
:10564C000BE87402121CEE7E0C74012EF5D975D980
:10565C00037582F9758306EEFF12567BDFFB75E14D
:10566C00957904120D5C7901800279000258E312DD
:10567C00567F22E0F5D9A3229061D0E0F87480C364
:10568C0098FC1256AD22125696228C828D83E0889D
:10569C008289831264A688828983A322F01256AD74
:1056AC0022EA2482F582E43BF583E02274F7121D92
:1056BC0048EAFEEBFF9061D0E0706875D91875D997
:1056CC000375D903EE249B12575A1257537003E9F2
:1056DC00658370F6EE24A312574824A4125748246D
:1056EC009312575A1257537003E9658370F6EE24E0
:1056FC00871257341257537003E9658370F675E1BE
:10570C00957908EE2493FAE43FFB120B887904EEAA
:10571C002487FAE43FFB120B887904120D5C1258B3
:10572C006880027900025B1C12573F2404F8E435B0
:10573C0083F922F582E43FF583E58222F582E43F8A
:10574C00F583E0F5D9EE2212567FE86582221257D6
:10575C003F2408F8E43583F92274F6121D48EAFE5A
:10576C00EBFF9006F97406125811121F5B7C01793D
:10577C0003120BE87402121CEE75D90675D9037569
:10578C0082F97583061258097004E583640670F576
:10579C0075E195900369E064087010EE246FF58252
:1057AC00E43F1257BCEE247112627779010258E380
:1057BC00F5831264752274F6121D48EAFEEBFF9015
:1057CC0061D0E070339006F9740A125811121F5B05
:1057DC007C017903120BE87402121CEE75D9067564
:1057EC00D9037582F97583061258097004E5836430
:1057FC000670F5125865800279000258E312567F44
:10580C00E58264FE22F07508F975090678082274A1
:10581C00F6121D48EAFEEBFF9061D0E0703678017D
:10582C009006F9740BF0900369E064077019750821
:10583C00F97509067808121F5B7C017903120BE8D5
:10584C007402121CEE7805125AB012567BDAFB1257
:10585C005865800279000258E375E195EE246F12C9
:10586C00646FEE2471F582E43FF583E8F0A3E9F070
:10587C0079012274F6121D481259B1600478048023
:10588C00027800E8240BF8EAC39840447C0990069F
:10589C00F974081258FD12590CDDFB1262E5601BFD
:1058AC007508F97509067808121F5B7903EEFAEF93
:1058BC00FB120BE87402121CEE7C0D1258E8125904
:1058CC00A970FB75E1957904120D5C125868800281
:1058DC0079008003121CEE7F02021E1A1258EE8C05
:1058EC00082274012CF5D975D9037582F9758306D4
:1058FC0022F0EE24E4F8E43FF97AFA7B067D0822E4
:10590C0088828983E08A828B83125C66A3A882A931
:10591C00838A828B83A3AA82AB832274F6121D48DE
:10592C001259B16004780480027800E82408F8EA7F
:10593C00C398406478069006F9740CF0900386E0E6
:10594C009006FAF0900387E09006FBF0900388E055
:10595C009006FCF0900389E09006FDF090038AE03D
:10596C009006FE125A40601B7508F97509067808F6
:10597C00121F5B7C067903EEFA120BE87402121C00
:10598C00EE780A125A3A1259A970FB75E19579040E
:10599C00120D5C125868800279000258E312567F8F
:1059AC001508E50822EAFEEBFF9061D0E0F8748060
:1059BC00C398FA125A452274F6121D481259B16056
:1059CC0004780480027800E82404F8EAC39840596B
:1059DC0078029006F9E8F0EE24F61262E89006FAE6
:1059EC00125A40601B7508F97509067808121F5B7E
:1059FC007C027903EEFA120BE87402121CEE7806A4
:105A0C00125A3A1259A970FB75E195EE2473125C87
:105A1C0052EE247F125C52125C4FA3F07904120DEB
:105A2C005CEE240D12586B800279000258E3125A76
:105A3C00B6880822F0125A4522EE2482F582E43F01
:105A4C00F583E02274F6121D481256846004780423
:105A5C0080027800E82404F8ECC398404278029065
:105A6C0006F97407F0EA24F7F582E43BF583E0903D
:105A7C0006FA1256A860197508F975090678081205
:105A8C001F5B7C027903120BE87402121CEE780681
:105A9C00125AB012567BDAFB75E1957901800279C6
:105AAC00000258E3125AB6E8FA22740128F5D975A7
:105ABC00D9037582F97583062274F7121D48E9FF24
:105ACC00A2AFE433FEC2AF7C0080010C125B6D50C0
:105ADC0010ECF8EA28F8E43BF91261D36F70EC8013
:105AEC0016EA246EF8E43BF9E0FCEA2CFAE43BFB02
:105AFC00125B0AEF125C5BEEA2E092AF8012EA241A
:105B0C006AF582E43BF58322F0EEA2E092AF7900D5
:105B1C007F01021E1AC082C083A2AFE433FDC2AF64
:105B2C00125B7514F07C00801DECF8EA28F8E43B5D
