:020000040000FA
:060000000201070225AD1C
:03002B0002281692
:03003B0002283761
:030043000227D3BE
:030053000226235F
:03007B000227F960
:10008300022403E5C754F84401F5C77901220000AF
:100093000080FB120086B900030200F1E4792378A3
:1000A30002B800028004F709D8FCE479257802B885
:1000B30000028004F709D8FCE490028178D4791A0D
:1000C3008002F0A3D8FCD9FA7A547B1C90013778CC
:1000D300E479018015E493A3AD82AE838A828B8396
:1000E300F0A3AA82AB838D828E83D8E9D9E7758288
:1000F3008A7583EA740312011975829175830074FA
:100103000012011975D00075813F75218175220296
:10011300759F00020096C09FF59FE473D09F22D085
:1001230083D082C09FE493C0E0740193C0E0740263
:1001330093F59F22AC03B803EE03E803FF0000B47A
:10014300000028002800283075A000A000A000A00F
:100153000000080008E001F000100010001000107B
:10016300001000100050005000500010001000D08C
:10017300070000000000000F0001000500307507B4
:10018300001000010081FF00000000FFFFFF0202DA
:1001930002338E010000288E02398E010000AE1C4E
:1001A300023D8E010000B80202398E010000AF1C2F
:1001B300023F8E010000CE02FFFF0100FF20023349
:1001C3008E010000258E02398E010000DD1C0235F0
:1001D3008E0000000000023B8E030000FA021700AD
:1001E300E00BE00BE00BE00BE00BE00BE00BE00BB4
:1001F300E00BE00BE00BE00BE00BC00DDE0DBA0DE6
:10020300FFFFFFFFFFFF01E803057710020A02016A
:100213000101FEFF04FF0012012256D50312012241
:1002230069D5031201228AD503120122F5D50312DF
:10023300012236D60312012257D60312012298D681
:100243000312012230D70312012278D703120122AD
:100253000CC7031201221FC70312012250C7031246
:1002630001228AC703120122E3C7031201222AC80B
:100273000312012272C803120122A1C80312012230
:10028300D0C80312012207C9031201224EC9031267
:10029300012267C903120122BCC903120122EAC960
:1002A3000312012224CA03120122DBB60212012225
:1002B300DEB7021201220BB8021201225CB802124D
:1002C30001227FB80212012291B80212012294B8CE
:1002D30002120122D2B80212012246B902120122ED
:1002E300B2B9021201227ABA0212012296BA02129A
:1002F3000122CDBA0212012207BB021201229EBBC8
:1003030002120122F0BB0212012221BC02120122BD
:1003130052BC021201225FBC02120122C9BC0212AA
:100323000122CCBC02120122D9BC02120122DCBC84
:100333000212012233BD0212012236BD0212012232
:100343006FBD0212012272BD02120122A6BD02126A
:100353000122A9BD02120122FDBD0212012246BEE5
:100363000212012256BE0212012289BE021201228A
:1003730096BE0212012299BE0212012201BF02128D
:10038300012203C002120122A7C00212012210C1DE
:10039300021201224EC1021201221DDF02120122AA
:1003A30015E00212012249E002120122DFE00212EB
:1003B30001222AE1021201228EE10212012218E235
:1003C30002120122D1E202120122F3E502120122FA
:1003D30070E70212012293E702120122BEAB03125D
:1003E300012263AD0312012283AD03120122A4AEE5
:1003F30003120122F7AE0312012222B403120122D7
:100403004AB40312012277B403120122AFB40312D8
:1004130001220DB50312012259B503120122C0B501
:100423000312012200B6031201223DB60312012278
:100433006BB60312012215B7031201221FB7031271
:1004430001222CB7031201225FB7031201226BB7FB
:100453000312012283B7031201228DB70312012273
:1004630016FF0112012224FF011201223CFF011297
:10047300012254FF011201226BFF011201220080AD
:1004830002120122AA8002120122268102120122F3
:100493004482021201228082021201221B83021271
:1004A3000122FF8302120122C284021201223A8531
:1004B30002120122C8860212012239870212012286
:1004C300F38702120122E588021201222589021212
:1004D3000122D989021201220B8A02120122018C04
:1004E30002120122438C02120122618C02120122A8
:1004F300E68C02120122AA8D02120122C98F021276
:10050300012208BC031201221EBC031201223CBCBF
:10051300031201224DBD0312012257BD0312012212
:1005230082BE0312012279BF03120122E6BF031226
:100533000122249E03120122C89E03120122FF9E60
:1005430003120122499F0312012208A1031201226F
:1005530051A40112012202A5011201221EA50112BA
:100563000122E7A50112012201A6011201220CA614
:1005730001120122E2A601120122BFA701120122E8
:100583004FA80112012206A90112012214AC011283
:10059300012203AE01120122B5AE011201227EAF88
:1005A30001120122C3B2011201226DB30112012211
:1005B30096B40112012252B601120122F2B60112BF
:1005C300012240B7011201227FB70112012252B862
:1005D3000112012286B80112012213B9011201226C
:1005E30092CF011201221ED00112012282D10112E7
:1005F30001228ED101120122C9D10112012238D266
:100603000112012241D3011201224AD40112012213
:1006130011D5011201226ED6011201228CD60112CC
:100623000122A9D60112012274D7011201229CD7FB
:100633000112012266DA011201226BDA0112012290
:1006430084DC01120122D2DC0112012242DD0112FB
:10065300012280DD011201225CDE011201221CDF76
:100663000112012268DF011201226BDF0112012254
:10067300AFDF01120122F7DF0112012236E001127E
:10068300012258E0011201228CE001120122EFE065
:1006930001120122B48F03120122BD8F0312012222
:1006A300CB8F031201221E90031201223D900312ED
:1006B3000122829003120122C69103120122619248
:1006C30003120122A59203120122CF9203120122E7
:1006D3003E9303120122849303120122FB9303121C
:1006E3000122AC9403120122B02800120122C02877
:1006F30000120122612900120122BD2900120122E8
:100703007A2A00120122962B00120122C82B001212
:100713000122F72B00120122A42D001201221B300B
:10072300001201228B32001201227D3300120122BA
:100733007634001201227D36001201227139001233
:100743000122A03A00120122A43C00120122B43D6E
:1007530000120122433F0012012234400012012201
:10076300824000120122F1400012012215410012C1
:1007730001226641001201220746001201220847A6
:10078300001201226947001201229447001201223C
:100793005A48001201221BB80312012225B8031282
:1007A30001226AB8031201227EB8031201220EB994
:1007B3000312012236B90312012271B90312012275
:1007C3009AB903120122CEB903120122E3B903122B
:1007D30001224EBA031201226FBA0312012283BA15
:1007E3000312012298BA03120122D2BA0312012280
:1007F30037BB031201227ABB03120122A4BB0312EB
:100803000122E0BB03120122F6E103120122EBAB4A
:1008130002120122CEAC0212012249AD02120122C0
:1008230084AD02120122D5AE021201225EAF021282
:10083300012276B10212012208B402120122BAB4D3
:1008430002120122D9B50212012232B6021201228A
:10085300918A03120122D48A03120122588B0312B4
:1008630001222B8C03120122028F0312012247D093
:1008730003120122F4D00312012201D20312012236
:1008830040D2031201229AD20312012265DB031222
:100893000122C8DB0312012265DC0312012293DC6F
:1008A30003120122B4DC03120122EFDC0312012242
:1008B3000FDD03120122BE94031201224A95031293
:1008C30001220996031201222197031201223B9967
:1008D30003120122CCCB02120122F1CB021201221C
:1008E300C5CC0212012232CD0212012288CD02129E
:1008F300012224CE0212012258CF0212012233D048
:100903000212012292D00212012263D102120122A9
:10091300EFD102120122F2D1021201223CD20212C1
:100923000122AED20212012259D30212012279D33B
:1009330002120122C1D302120122DDD302120122CB
:1009430057D40212012265D402120122F4D40212F6
:1009530001225DD502120122BFA20312012244A388
:100963000312012286A3031201226AA403120122A5
:10097300D7A4031201221BA5031201225FA50312B0
:1009830001228CA503120122B4A503120122ECA5B6
:10099300031201222AA60312012251A603120122E5
:1009A300CBA60312012215A7031201220D61001227
:1009B3000122DA6200120122C864001201221C65BE
:1009C30000120122476500120122F565001201227F
:1009D3002566001201225466001201226766001286
:1009E3000122A86600120122D466001201222267A6
:1009F30000120122596700120122A5670012012289
:100A03000468001201229768001201228169001212
:100A13000122706A001201221B6C001201223A713A
:100A2300001201229371001201227C730012012231
:100A33004B7500120122CD75001201221B770012A3
:100A430001222C7700120122E5D203120122D0D316
:100A53000312012213D40312012262D403120122CE
:100A6300B3D40312012204D503120122C648001293
:100A73000122474900120122744900120122BD4993
:100A830000120122BE4A001201220D4B0012012264
:100A9300894C001201220B4D00120122684D0012F5
:100AA3000122BB4D00120122AA4E001201223F5027
:100AB30000120122095100120122195100120122D0
:100AC3004351001201224651001201222952001201
:100AD3000122145300120122C153001201221E5499
:100AE30000120122775400120122DB54001201226A
:100AF3008355001201221F5600120122AC56001228
:100B030001222157001201227D5700120122DC57D6
:100B130000120122035800120122C85800120122B8
:100B2300B45A00120122FD5A001201222D5B001259
:100B33000122A05B00120122265D00120122D65D74
:100B430000120122FB5D001201223A5E0012012213
:100B53004F5E00120122925E00120122025F001218
:100B630001224C5F00120122566000120122D7605D
:100B73000012012280D502120122CBD502120122DA
:100B8300D7D502120122ABD602120122C2D602121B
:100B93000122FFD60212012230D70212012268D7A6
:100BA30002120122BED702120122D4D7021201225D
:100BB30010D80212012223D8021201224AD80212AB
:100BC30001227ED802120122A4D902120122EEDAF6
:100BD30002120122EADB0212012200DD02120122CB
:100BE300A52800120122648503120122128903122F
:100BF3000122468A0312012231F301120122EAF58E
:100C030001120122F0F501120122A1F801120122C1
:100C1300FBFA01120122729903120122099A0312AB
:100C23000122C79A03120122F19A03120122279D7E
:100C330003120122428E011201227D8E0112012232
:100C4300D198011201223D9A011201223A9B01120D
:100C53000122BF9E01120122B49F0112012200A0B2
:100C6300011201221AA0011201225BA0011201222A
:100C730064A00112012216A101120122E6A10112B0
:100C830001222DA20112012293A20112012205A326
:100C930001120122B8FC0212012295FD0212012267
:100CA300D9FD0212012213FE02120122ABFE02122F
:100CB30001221AFF0212012223FF021201222FFF37
:100CC3000212012249FF0212012273FF02120122C2
:100CD300A3FF02120122B5F002120122C2F0021296
:100CE3000122DCF0021201220FF1021201224DF166
:100CF30002120122B2F102120122C7F102120122F1
:100D0300DEF102120122ECF102120122FBF10212C6
:100D1300012210F20212012225F20212012230F204
:100D2300021201223CF20212012249F202120122B2
:100D330058F20212012263F20212012288F2021215
:100D430001222CF30212012241F30212012256F373
:100D53000212012270F3021201228DF30212012208
:100D6300AAF302120122B5F30212012261F4021264
:100D7300012242F50212012267F50212012272F5E5
:100D83000212012287F5021201229BF502120122AF
:100D9300FCF50212012202F60212012208F60212E7
:100DA30001220EF60212012226F60212012259F640
:100DB3000212012274C10212012296C102120122FF
:100DC3005EC20212012218C5021201222EC60212AD
:100DD30001224FC70212012229C802120122D8C8D8
:100DE30002120122689E02120122FF9E02120122B8
:100DF300979F0212012287A002120122BEA00212B3
:100E03000122D1A0021201223FA102120122DAA281
:100E13000212012201A302120122A3A30212012240
:100E2300D8A302120122E9A30212012262A4021230
:100E3300012283A4021201229BA402120122F3A520
:100E430002120122FCA7021201224CAA0212012261
:100E53004FAB021201229EAB02120122D68F021265
:100E63000122D39002120122BE9102120122C891E3
:100E730002120122EA9102120122F69102120122C8
:100E8300489302120122779302120122A7940212BD
:100E93000122E99402120122159602120122EB9615
:100EA300021201223D97021201229C970212012293
:100EB300D397021201220E9802120122A99B021259
:100EC3000122C29B02120122449C02120122529C63
:100ED30002120122A79C02120122B59C02120122D6
:100EE300229D02120122949D02120122DA9D021216
:100EF30001221DDD0312012242DD03120122B3DDB3
:100F030003120122B6E802120122BFE802120122F3
:100F1300C8E802120122F9E90212012218EC0212B6
:100F230001224EEC0212012288EC02120122BEECD5
:100F330002120122F8EC021201222CED021201220C
:100F430058ED02120122A1ED02120122DBED021281
:100F5300012223EE0212012279EE02120122AEEEE9
:100F63000212012209EF0212012243EF02120122AF
:100F730094EF02120122CAEF0212012204F00212BC
:100F8300012227F0021201226EE7031201229AE7DF
:100F930003120122F5E703120122FFE703120122E4
:100FA3000FE8031201220080031201220A800312B8
:100FB3000122488003120122918003120122CB8077
:100FC3000312012225810312012246810312012209
:100FD3004F8103120122A08103120122C98103124E
:100FE3000122DE81031201224F8203120122DD82DC
:100FF300031201221A83031201224A8303120122DC
:10100300CE83031201220E840312012246840312AB
:10101300012258840312012277840312012280845F
:10102300031201223A85031201220EE40312012264
:101033008CCA03120122D0CA0312012206CB031267
:101043000122EECC0312012248CD0312012251CD1D
:10105300031201225ACD031201227F7F00120122C3
:10106300957F001201229F7F0012012204B0031218
:1010730001221DB003120122C1B00312012201B1EA
:10108300031201221AB1031201224EB103120122EB
:101093009BB103120122CFB10312012211B2031239
:1010A300012215B403120122CEE903120122D3DE79
:1010B3000312012211DF0312012236DF0312012280
:1010C3004DDF0312012269DF0312012280DF0312C5
:1010D300012297DF03120122D0DF0312012204E071
:1010E300031201223BE003120122A3D703120122C0
:1010F300BFD7031201223CD80312012258D803128E
:101103000122BBD8031201225CD903120122DBF6B0
:10111300021201221AF702120122A3F7021201227C
:10112300B8F70212012203F80212012237F8021261
:10113300012276F80212012285F8021201223AF9FD
:101143000212012293F902120122E2F90212012290
:1011530035FA021201224AFB0212012243FC021257
:10116300012280FC021201222DEA0312012209BA94
:10117300011201227FBC01120122F7BD01120122DB
:1011830058BE01120122F7BE01120122E9BF01126A
:1011930001226EC001120122EAC0011201220FC115
:1011A30001120122D8C3011201224CC401120122EF
:1011B30038C50112012272C501120122B2C5011202
:1011C30001226CC7011201229DC701120122F0C73F
:1011D3000112012239C801120122A7C801120122FA
:1011E300D9C801120122F1C80112012206CA011253
:1011F300012216CA011201227BCB011201229BCBD1
:1012030001120122D1CB011201227ECD0112012252
:10121300FECD011201223DCE0112012264CF011243
:10122300012289D903120122E6D903120122A9DA84
:1012330003120122C8DA031201221EDB0312012268
:1012430019E80312012229E803120122DDEA03123D
:1012530001221CEB0312012247E90312012272E966
:10126300031201227CE903120122B4E903120122D1
:1012730044EB0312012208E50312012218E50312CD
:10128300012239E503120122EDE5031201220AE3EB
:10129300031201228FE303120122F5E30312012259
:1012A300F7E50312012218E6031201222BE60312CB
:1012B30001223DE6031201226AE6031201227BE6C4
:1012C3000312012255A70312012269A70312012267
:1012D300E2A703120122BBA80312012279AB031276
:1012E300012274CD031201228DCD03120122A8CD58
:1012F30003120122B9CD03120122CACD0312012226
:101303000CCE031201225BCE0312012286CE0312FE
:101313000122B2CE03120122D3CE031201220BCF3C
:10132300031201223CCF0312012296CF03120122A2
:10133300B4CF03120122CECF03120122EACF03124C
:101343000122F7CF0312012223D003120122B4E6B4
:1013530003120122CEE603120122E8E60312012260
:1013630047E703120122F0BF0312012280C00312D8
:101373000122FEC00312012287C10312012235C2DA
:1013830003120122BFC203120122D0C2031201229F
:10139300DFC203120122F5C20312012208C30312A2
:1013A300012268C3031201227CC303120122C7E195
:1013B3000112012256E301120122DDE4011201228E
:1013C3007FE60112012218E701120122F4E701125C
:1013D3000122E3E80112012246EA01120122C1EAD5
:1013E30001120122EEEA0112012209EB011201228C
:1013F3009AEB01120122D6EB01120122F0EB01124A
:10140300012234EF011201226CEF011201226FEF6E
:1014130001120122BCF201120122B6E803120122D9
:1014230021E9031201222CE9031201223CE90312F0
:1014330001226FE003120122C4E00312012232E110
:1014430003120122A2E1031201227FC3031201222C
:10145300A9C303120122A3C403120122C8C40312A5
:1014630001225FC503120122E1C5031201224F7756
:10147300001201220C780012012247780012012287
:101483006F7800120122D178001201221D79001217
:101493000122767900120122077A00120122097BC8
:1014A30000120122C67C00120122487D0012012293
:1014B300AD7D00120122C47D00120122D47E0012F0
:1014C3000122127F00120122D1FF0212012226EB18
:1014D30003E066701008A3E066700A08A3E0667074
:1014E3000408A3E06622C3E7960809E7960809E71C
:1014F300960809E79622C3E09608A3E09608A3E0BE
:101503009608A3E09622C008C3E096F50808A3E076
:1015130096420808A3E096420808A3E0964508709F
:1015230001D3D00822080808E630E7111219561231
:101533001540080808C64480C61818182218181839
:10154300E9799EC608CAC608CBC608CCC6C37020B4
:101553007996CACBCC7019798ECBCC70137986CCA3
:10156300700EF9802ACA33CACB33CBCC33CC3319B0
:1015730030E7F2CCCBCA3350147004EA30E00DE408
:10158300CA3ACACB3BCBCC3CCC500209C3E913C605
:10159300CC182313C6CB18C6CA18C6F9221215E0F5
:1015A30020F01430E72B74FFFCFBFA747F8022E4F5
:1015B300FCFBFA7480801AB48008BC00F2BB00EF15
:1015C300800F50EBF9E4C39AFAE49BFBE49CFCE440
:1015D30099C6CC18C6CB18C6CA18C6F922E4C9C620
:1015E30008CAC608CBC6D3330308CCC63392F0C3AC
:1015F300947F402E94184019C9B90704CACBCC2252
:101603005025C309CA33CACB33CBCC33CC33D9F43B
:1016130022F4600DC9CCC313CB13CBCA13CAD9F6BA
:10162300CC22E4FCFBFA2214FCFBFA22E626184641
:101633001846184622E72719471947194722E6088B
:1016430046087009E626087005E633F4220822E707
:101653000947097009E727097005E733F4220922CE
:10166300E6084608C3134608336002E633F422E76C
:10167300094709C3134709336002E733F4221216FB
:1016830063700418181822121672700D74FFF6187E
:1016930019F61819F61819F622E7548066F6121689
:1016A3002F700F12163870F014F608F608F608F6C5
:1016B30080D1121638700CF608F608768008E644D6
:1016C3007F80EC121652700C12164160BFE65480F4
:1016D300F6E480BB121641700519191980A5E86953
:1016E300700C763F18768018F618F6E8F922E6CDE6
:1016F300C0E018ECC0E0E633CD33CDD313F6E719E1
:10170300FCE7191933CC33C3947F400ECD9D50248D
:1017130008E65480F6E418F6800FF4043D145014E0
:1017230008E6447FF6187680E418F618F6D0E0FC55
:10173300D0E0FD22CCD313CCFD18E4C6CBC0E01817
:10174300E4C6CAC0E00808ED08C633E613F618E499
:1017530033C675F003C3CA97CA09CB97CB199C400C
:10176300047D08802EBD000302182A16B6FF050665
:1017730006081618C3CA33CACB33CB33CA27CA09E0
:10178300CB37CB193CC37D08803E187D0820E75C2E
:10179300C633C6CA33CACB33CB33DDF1D5F0EB3016
:1017A300E77BCA97CA09CB974ACB199C406F4B700A
:1017B30025E620E0218066187D08C3CA97CA09CBB5
:1017C30097CB199CD3C633C6CA33CACB33CB33505A
:1017D300C9DDE7D5F0E1D3E4C636C608C636C60888
:1017E300C636C608C636C61818188031C3CA97CA83
:1017F30009CB97CB199CB34097C633C6CA33CACB20
:1018030033CB33DD34D5F02EC6A2E0C640C8CA2799
:10181300CA09CB37194A70BECB3CB480B90808E675
:101823003308E633601F181818D0E0FAD0E0FBD075
:10183300E0FCD0E0FD22187D08CA27CA09CB37CBCC
:10184300193CD3808013F618E4B67F11F618B6FF5F
:101853000EF618C60470D20808768080CAF618F609
:1018630018F680C5080808EAC0E0EBC0E086F0E798
:10187300A4FA180986F0E7A42AFA180986F0E7A45F
:101883002AFA180986F0E7A42AFA1986F0E7A4FBD6
:10189300E5F02AFA190886F0E7A42BFBE5F03AFAFB
:1018A300190886F0E7A42BFBE5F03AFA1818098625
:1018B300F0E7A4C5F02BFBE43AFA1908E7C5F0C634
:1018C300A426F6E5F03BFBE43AFA1886F0E7A4F623
:1018D300E5F00826F6E43B08F6E43A08F6D0E0FB28
:1018E300D0E0FA22E4CFC0E0E4CEC0E0E4CDC0E033
:1018F300E4CCC0E075F020E626F608E633F608E609
:1019030033F608E633F6181818EC33FCED33FDEE26
:1019130033FEEF33FFC3EC9709ED9709EE9709EF19
:1019230097191919400FFFEC97FC09ED97FD09EE84
:1019330097FE191906D5F0BFECF709EDF709EEF795
:1019430009EFF7191919D0E0FCD0E0FDD0E0FED083
:10195300E0FF22181818E4C396F608E496F608E4A4
:1019630096F608E496F6226016080808C6C313C65E
:1019730018C613C618C613C618C613C6D5E0EA227E
:101983007009080808226016181818C6C333C60859
:10199300C633C608C633C608C633C6D5E0EA22E650
:1019A30027F60809E637F60809E637F60809E637A1
:1019B300F622E026F608A3E036F608A3E036F6089A
:1019C300A3E036F622E026F008A3E036F008A3E011
:1019D30036F008A3E036F022C3E697F60809E69747
:1019E300F60809E697F60809E697F622C3E096F0AB
:1019F30008A3E096F008A3E096F008A3E096F0228F
:101A0300E657F60809E657F60809E657F60809E621
:101A130057F622E056F608A3E056F608A3E056F67A
:101A230008A3E056F622E056F008A3E056F008A318
:101A3300E056F008A3E056F022E066F608A3E0665D
:101A4300F608A3E066F608A3E066F622E0F608A32C
:101A5300E0F608A3E0F608A3E0F622E6F008A3E622
:101A6300F008A3E6F008A3E6F022E0FAA3E0FBA364
:101A7300E0FCA3E0FD22EAF0A3EBF0A3ECF0A3ED7E
:101A8300F022E0F8A3E0F9A3E0FAA3E0FB22E8F0F8
:101A9300A3E9F0A3EAF0A3EBF022CAC0E0E6F0A3C7
:101AA30008DAFAD0E0FA22CAC0E0E0A3C582CCC5C6
:101AB30082C583CDC583F0A3C582CCC582C583CD42
:101AC300C583DAE6D0E0CA22C3E498F8E499F912B0
:101AD3001B0C8026C3E49AFAE49BFBE920E7E91296
:101AE3001B0CE498F8E499F922C3E498F8E499F913
:101AF300121B0CE498F8E499F9C3E49AFAE49BFB0B
:101B030022EB20E7CFE920E7E0B90010BB0008E8AB
:101B13008AF084F8AAF022E4FBC8FA22EB70227B55
:101B230010C833C8C933C9335007C39AC3DBF28023
:101B3300069A50012ADBEAC833F4C8C933F4C9FA58
:101B43002275F008E4C833C8C933C933C99AC99B9D
:101B53005004C92AC93BD5F0ECFBC833F4C8E4C927
:101B6300FA22600D08C6A2E713C618C613C6D5E04D
:101B7300F322600C08C6C313C618C613C6D5E0F417
:101B830022700422600D18C6C333C608C633C6D5F7
:101B9300E0F41822252110AF08F521400C1522800E
:101BA30008F52140021522D2AF2200C0D025211012
:101BB300AF08F521500C05228008F52150020522BB
:101BC300D2AFD0D0222521F58210AF08F521400CE9
:101BD30015228008F52140021522D2AF85228322E7
:101BE3002521F582E43522F583222521F8E43522E7
:101BF300F9222521FAE43522FB222521FCE43522B2
:101C0300FD22E4732521C582C0E0E52234FFC583AC
:101C1300C0E0E521C3958224F810AF0885832285AF
:101C230082218008858322858221D2AFCEF0A3E56D
:101C330020F0A37808E608F0A3DEFAEFF0A3E5812D
:101C430024FAF8E608F0A3E608F0A3E608F0A308F0
:101C530008E608F0A3E608F0A315811581D0E0FE9D
:101C6300D0E0F8158115811581E8C0E0EEC0E022CF
:101C73002521C582C0E0E52234FFC583C0E0E5210C
:101C8300C3958224F910AF088583228582218008B9
:101C9300858322858221D2AFCEF0A3E520F0A378FD
:101CA30008E608F0A3DEFAEFF0A3E58124FBF8E6EB
:101CB30008F0A3E608F0A30808E608F0A3E608F096
:101CC300A315811581D0E0FED0E0F815811581E8D8
:101CD300C0E0EEC0E022852283852182E0A3FEE0FE
:101CE300A3F5207808E0A3F608DFFAE0A3FFE0A35A
:101CF300C0E0E0A3C0E0E0A3C0E0E0A3C0E0E0A355
:101D0300C0E010AF08858221858322800885822167
:101D1300858322D2AFD083D08202011F852283859F
:101D23002182E0A3FEE0A3F5207808E0A3F608DF14
:101D3300FAE0A3FFE0A3C0E0E0A3C0E0E0A3C0E0BB
:101D4300E0A3C0E010AF0885822185832280088547
:101D53008221858322D2AFD083D08222C0D0252195
:101D6300C582C0E0E52234FFC583C0E0E521C39509
:101D73008224F310AF08858322858221800885831E
:101D830022858221D2AFC8F0A3E9F0A3EAF0A3EB46
:101D9300F0A37908E709F0A3D8FAECF0A3EDF0A3D8
:101DA300EEF0A3EFF0A3D0E0F0A3D0E0F0A3D0E0F7
:101DB300F0A3E520F0A3E5F0F0A32285228385219B
:101DC30082E0C0E0A3E0F9A3E0FAA3E0FBA3780874
:101DD300E0F608A3DFFAE0FCA3E0FDA3E0FEA3E046
:101DE300FFA3E0C0E0A3E0C0E0A3E0F5D0A3E0F5EB
:101DF30020A3E0A3F5F010AF08858322858221801C
:101E030008858322858221D2AFD082D083D0E0F8A7
:101E1300D0E03274048006740280027401C0E0F4DE
:101E230004121BC8D0E0121A9D22740480047402A9
:101E33008000CCC0E0EDC0E0E521C39CCCAD2250D6
:101E4300011D10AF068C218D2280068C218D22D29C
:101E5300AF121AAAD0E0FDD0E0FC22D083D082E9F1
:101E6300C0E0E493A3C386F0C5F095F0F908E493CA
:101E7300A386F0C5F095F0700BE493A3C3994005D6
:101E8300E9048002A3E475F002A42582F582E5F05B
:101E93003583F583D0E0F9E493A3C0E0E493C0E095
:101EA30022D083D082ECC0E0EDC0E0E493A3FCE455
:101EB30093A3FDED4C600D121EF0EC24FFFCED34FA
:101EC300FFFD80EFE493A3FCE493A3FDED4C600DD1
:101ED300121F2FEC24FFFCED34FFFD80EFD0E0FD5B
:101EE300D0E0FCE493A3C0E0E493C0E022C0E0C3ED
:101EF300E49396087401939618400FE49366700870
:101F030008740193661870007019A3A3C3E4939631
:101F1300087401939618A3A3400DD0E0D0E0D0E05D
:101F2300021EE0A3A3A3A3A3A3D0E022C0E0C0F0BA
:101F330088F0E4936670080874019366187000A82B
:101F4300F0A3A3700BD0F0D0E0D0E0D0E0021EE00D
:071F5300A3A3D0F0D0E022AF
:101F5C0074F6121C73EAFEEBFF8C088D09EE243428
:101F6C00F8E43FF9E8FCE9FDEE2435122251FAEED3
:101F7C002437122251F88508F0A4C885F00A850987
:101F8C00F0A4250AF9EA28F8E439F97A257B00123D
:101F9C001B0CEA8C828D83F0FA131313541FF8EE8A
:101FAC0028F8E43FF9E8245DF582E439F583E0C0D4
:101FBC00E074075AF8D0E0B800028004C313D8FCD0
:101FCC00A2E0EE50082434F582E43F801824361247
:101FDC002251F5F0EA84A8F0EE28F8E43FF9E82461
:101FEC0038F582E439F583E0F97F03021D1F74F79D
:101FFC00121C73EAFEEBFFEE2434122251C0E0EE09
:10200C002435F582E43FF583D0E0F08E828F83A3F4
:10201C00A3A3A3A3A3A3C082C0838E828F83A3A3F5
:10202C00A3A3A31220C2D083D082E0C398F508A347
:10203C00E099F509EE247F1222516401705DEE24C3
:10204C00801220BC8E828F83A3A3A3A3A3A3A3126D
:10205C0023F48E828F83A3A3A3A3A3E0FAA3E0FBB4
:10206C00C3EA9CEB9D5010C3EC98ED99402DC3EA4C
:10207C0098EB995026800EC3EA98EB994007C3EC75
:10208C0098ED9940167CBD7D06EEFAEFFB120B1411
:10209C00EE247FF582E43FF583E4F0AC08AD09EE65
:1020AC00FAEFFB121F5CE9F91227BF7F02021D1F1A
:1020BC00F582E43FF583E0F8A3E0F92274EF121CFB
:1020CC0073900369E064086005E06407702A90610E
:1020DC00C8E06024900397E0F4601DE0F875F00C04
:1020EC00A4C8AAF02AF9749928FE740339FF8E82C9
:1020FC008F83A3A3A3E070030221D6906060E0C09D
:10210C00E0EE2468F582E43FF583D0E0F0750CF93D
:10211C00750D06750800750900E5D914F50AE5D9A1
:10212C005403F50E60127403650E6043E50A600AF1
:10213C00EE2467122251700280759006F4E064015F
:10214C00601F12224E60047A0480027A00E50AC3F2
:10215C009AFA95E0FB1209BE8A088B09EA450970C8
:10216C0005120D96806412224E70048A0C8B0DE5BC
:10217C000A6012850C82850D83F50BE5D9F0A31549
:10218C000BE50B70F612224E604474FC250AF50A1E
:10219C00780C121E1AAC0AA90EEEFAEFFB120BDA2F
:1021AC007402121BADE97026AA08AB091214387917
:1021BC003D8E828F83A3A3A3A3E0FA7B0012083881
:1021CC00EEFAEFFB120B38120C3A7900806F7403A5
:1021DC00650E6051850A107511007810121E1AAC2C
:1021EC000CAD0DAA08AB09120B9E7402121BADEEBE
:1021FC00246812225164807004747F8001E0F50C15
:10220C00780C121E1EE50EF50C780C121E1EA90A77
:10221C00AC08AD09900397E0FA7B00120808740231
:10222C00121BAD8013900369E06408700BAC0CAD0D
:10223C000DEEFAEFFB120C0A120DA279017F0A02C5
:10224C001D1FEE2482F582E43FF583E02274F21226
:10225C001C7374FC121B97EAFEEBFF8909A2AFE416
:10226C0033F508C2AF022315E0601B780C121E1A5E
:10227C00AC0BA90EEEFAEFFB120BD47402121BADD1
:10228C007404250BF50B7401250BF5D9850ED9E5D6
:10229C000B6018F50A850C82850D83E0F5D9A385B2
:1022AC00820C85830D150AE50A70EA75E195EE241A
:1022BC0063F8E43FF97A007B00A2AFE433F50BC27C
:1022CC00AF1223F0EC4D603288828983E0FAA3E0F0
:1022DC00FB8A828B831223F488828983ECF0A3ED32
:1022EC00F08A828B83E4F0A3F01223F0EC4D700A99
:1022FC0088828983A3A3E4F0A3F0E50BA2E092AF5C
:10230C001214389006C4E004F0EE24631220BCE8EA
:10231C00496064EE24631222512402F8A3E03400D5
:10232C00F988828983E5822402F50CE43583F50D66
:10233C00E0F50BA3E0F50EEE24621222516401705D
:10234C00369061D0E0F812224E60047C0480027C4E
:10235C00007480C398FA95E0FBE50B2CF8E434008C
:10236C00F9E82402F8500109C3EA98EB99A2D26566
:10237C00D03340030222749006C4E0604D9006C531
:10238C00E0F89006C4E0C398500C74026509703AEA
:10239C009006C6E060348E828F83A3A3A3A3E0854E
:1023AC0021828522831223E67402121BE3E8122396
:1023BC00E69006C3E028F07402121BFDAA21AB22A2
:1023CC0079011208629006C4E4F0E508A2E092AF2D
:1023DC007404121BAD7F07021D1FF0A3E4F09006DE
:1023EC00C4E0F82288828983E0FCA3E0FD2200008F
:1023FC008523878524C622C0E074EB121D5FA2AF33
:10240C00E433F508C2AF759B00906182E0A2E05006
:10241C0030E591A2E0502A7591FE7401652370217C
:10242C00122596120CCA122584121E2D1226FB742C
:10243C0004121BADE9640170057901120CFA12202B
:10244C00C8906182E0A2E5505DE591A2E550577518
:10245C0091DF900369E064076005E06408702F1257
:10246C00259674016523703E120CCA122584121E27
:10247C002D1226FB7404121BADE964017005790161
:10248C00120CFA7901EEFAEFFB1222598018E06473
:10249C000D701390038BE004F064287002E4F07A62
:1024AC0000E0F9120DA8906182E0A2E6400302253B
:1024BC0059E591A2E640030225597591BF90036935
:1024CC00E064057008120CB2120CBE8003120CB83A
:1024DC00752300120D18E990036AF07900120CFABA
:1024EC00120A7E7A017B00900368E0F912100090CA
:1024FC007803E0644270569006F8E014F0704EC217
:10250C00AF122510007826D0E0F618D0E0F6E59F43
:10251C005407F87005750DFF8003750D7FC4C0E07E
:10252C007825E6F50A08E6550DF50B740B780A12BA
:10253C001B75D0E0250AF8906270E0A2E740F8E83D
:10254C00C333906272F0906270E0D2E0F0906181DF
:10255C00E0A2E35009E5E9A2E3500375E9F7A3E033
:10256C00A2E75009E591A2E7500375917FE508A217
:10257C00E092AF7F08021DBE8E828F83E0F8A3E04D
:10258C00C82416F582E438F58322900397E0F87599
:10259C00F00CA4C8AAF02AF9749928FE740339FF28
:1025AC0022C0E0C0D0C082C083906183E0A2E05022
:1025BC0009E5BFA2E0500375BFFEE0A2E15009E5BA
:1025CC00BFA2E1500375BFFDE0A2E25009E5BFA236
:1025DC00E2500375BFFBE0A2E35009E5BFA2E35054
:1025EC000375BFF7E0A2E45009E5BFA2E450037500
:1025FC00BFEFE0A2E55009E5BFA2E5500375BFDFD0
:10260C00E0A2E65009E5BFA2E6500375BFBFD08338
:10261C00D082D0D0D0E032C0E074F2121D5FE5A7BA
:10262C00A2E6500FE5A1A2E6500953A7BF75A1BFC2
:10263C00122677E5A7A2E5500CE5A1A2E5500653BA
:10264C00A7DF75A1DFE5A7A2E15009E5A1A2E15042
:10265C000375A1FDE5A7A2E2500CE5A1A2E250068C
:10266C0053A7FB75A1FB7F01021DBE74F7121C73EF
:10267C00752301900369E064067015120C5E8A8262
:10268C008B83A3A3A3A3A3A3E0FAA3E0FB120CA048
:10269C00A2AFE433FED2AF90036FE0640170187AFE
:1026AC00207B00900368E0F91210907A207B009058
:1026BC000368E0F9121006906182E0D2E6F0900611
:1026CC00F5E0602185C624801690036EE0640170ED
:1026DC0008E5C654F84405F5C653BEFC1223FC7439
:1026EC0001652360E4EEA2E092AF7F02021D1F742D
:1026FC00F1121C738A088B098C0A8D0B908E1D7835
:10270C0008121A16740F121BE3780C121A4F908EC3
:10271C001D780C121A167808790C1214E9908DDDBC
:10272C0050107808790C1219DB780812150940142E
:10273C00800E780C79081219DB780C1215095004EC
:10274C007901800279007F08021D1F74ED121C7341
:10275C008A088B098C0A8D0B908E1D7808121A161C
:10276C007413121BE3780C121A4F908E1D780C12F6
:10277C001A16780C79081214E940117808790C12A1
:10278C0019DBAA08AB09AC0AAD0B802275100075D9
:10279C0011007512007513017810790C1219DB7881
:1027AC001079081219A2AA10AB11AC12AD137F0C40
:1027BC00021D1FC082C083E9906000F0D083D082DC
:1027CC0022C2AF02000022C0E074F2121D5FA2AF61
:1027DC00E433FED2AFC2C0E5D1A2E4500653D1EF30
:1027EC001213A8EEA2E092AF7F01021DBEC0E074EE
:1027FC00F2121D5FE5A8FED2AF1212BEC2EBEEA222
:10280C00E7A2E792AF7F01021DBEC0E0C0D0E8C0D6
:10281C00E0E9C0E0E5A8D2AFC2C7A2E7A2E792AF59
:10282C00D0E0F9D0E0F8D0D0D0E032C0E074F212B1
:10283C001D5FA2AFE433FCD2AF901BBEE0F8A3E067
:10284C00F9A3E0687003A3E069700A539AFB901B2C
:10285C00C274018039C2E9901BBEE0F8A3E0F9E82C
:10286C002401FAE439FB901BBEEAF0A3EBF0742EC2
:10287C0028F582741A39F583E0F5C1901BBEC3E0CC
:10288C009490A3E094014007901BBEE4F0A3F0ECFD
:10289C00A2E092AF7F01021DBE02011FFFFFFFFFEE
:1028AC00FFFFFFFFC082C083E9901CDCF0D083D017
:1028BC008202011F74F6121C07E99002DCF09003EF
:1028CC003BE0F50875090074027808121B84AA080D
:1028DC00AB0912103C9002DD1232739002DD1236FD
:1028EC0060606F90033BE075F003A4FAABF012103C
:1028FC003C9002FA1232739002FA123660700B900E
:10290C0002DD12363112104280489002FA1245C58F
:10291C007AFF7BFF1212227A0080198A087509004F
:10292C0074027808121B8412406D74FF122A73E42F
:10293C00F0A3F00A90033BE0F8EAC39840DD790578
:10294C001207009002DCE0F91205EC7A8A7B071280
:10295C00095E02411074F4121C078A088B09EB54AF
:10296C008060479002DCE0F9120FE88A0A8B0BAE0C
:10297C000AAF0BEE4F602A8E828F83E064B0701A20
:10298C00120712E960148E828F83A3A3A3A3E0F92C
:10299C00EE2405FAE43FFB1206E2EEFAEFFB120F0F
:1029AC00D6AA08E5096480FB80047A007B00022B20
:1029BC00C374F2121C0774FB121B97EAFEEBFFEEBA
:1029CC004F60457403121BE3EEF0A3EFF0852182F8
:1029DC00852283ECF0A3EDF07402121BE3E9F0AA5C
:1029EC0021AB221205E6E9F50870757413121BE38E
:1029FC00E0F50AA3E0F50BE50A450B60638E828FC8
:102A0C0083122FFCEE4F700575080280537A067BFB
:102A1C000012103C8A0C8B0DA80CA90DE84970050E
:102A2C00750813803B88828983E4122A73EEF0A325
:102A3C00EF122B8FE50AF0A3E50BF09002E0122BBE
:102A4C00889002E06017E0FCA3E08003EAFCEBFD59
:102A5C008C828D83122B8870F38C828D83123C8830
:102A6C00A9087405024845F0A31245A7A32274F2E5
:102A7C00121C078908890C750D007403780C121B45
:102A8C0084850C0A850D0B9002DFF09002DD123A62
:102A9C0093122B86602E1210427900801D890C75C2
:102AAC000D007402780C121B849002DD123F2C88EE
:102ABC0082F583A3A3E4F0A3F00990033BE0F8E9CB
:102ACC00C39840D990033BE0FA850AF0A4CAA8F059
:102ADC00850BF0A428FB12103C8A0C8B0DAE0CAFAE
:102AEC000DEE4F7003022B7C90033BE0FC850AF04B
:102AFC00A4CCA8F0850BF0A428FD7900120FC47C9F
:102B0C000080318D0C750D007403780C121B848AB7
:102B1C00828B83122B8188828983E4F0122B8EA303
:102B2C00A3F0A3F00DEDC3950840D8EE250AFEEFF7
:102B3C00350BFF0C90033BE0F8ECC39850288C0C41
:102B4C00750D007402780C121B849002DD122B811F
:102B5C00E82402500109FAE9FB8A828B83EEF0A388
:102B6C00EFF07D0080BFE5089002DFF07900800275
:102B7C007913024848123F30F922A3A3123635EAE2
:102B8C004B22A31245A7A3A3A32274F4121C07790A
:102B9C0000EAA2E0501F75088375098D7808121E93
:102BAC001A79107C047D007ADE7B1C1206FA740202
:102BBC00121BADE9F980007F04021CD9C082C083CE
:102BCC009002E0123660601C88828983A3A3E06ABD
:102BDC007003A3E06B8882898370E8A3A3A3A3127C
:102BEC00363180047A007B000228B974F2121C077B
:102BFC0074FD121B97EAFEEBFF852182852283E48C
:102C0C00F0A3F07402121BE37401F012365D701421
:102C1C001208B012103C9002E312327312365D703F
:102C2C0003022D89123373EE2404F50AE43FF50BED
:102C3C00850A82F583E024FE603C24FC607424FE4B
:102C4C00607E24FE7003022CD924FE7003022CE655
:102C5C0024FE7003022CF324FE7003022D0024FECC
:102C6C007003022D0D24FC7003022D2E24FE700324
:102C7C00022D46022D821208B09002E5EAF0A3EB79
:102C8C00122D9512025CE96003022D829002E5126E
:102C9C001E318E828F83A3A3A3A3A31245C58508DF
:102CAC00828509831236311206CA7402121BAD02D8
:102CBC002D82AC21AD22EEFAEFFB120718022D513A
:102CCC00AC21AD22EEFAEFFB12071E8078AC21ADE1
:102CDC0022EEFAEFFB120724806BAC21AD22EEFA48
:102CEC00EFFB12072A805EAC21AD22EEFAEFFB124D
:102CFC0007308051AC21AD22EEFAEFFB1207368083
:102D0C00447402121BED880C890D780C121E1A7477
:102D1C0002121BFDEEFAEFFB12073C7402121BAD04
:102D2C008023AC21AD22EEFAEFFB120742E9F870DA
:102D3C00167402121BE3E4F0803CAC21AD22EEFAD7
:102D4C00EFFB120748E9F8E8602C8E828F83A3E032
:102D5C0064146022850A82850B83E09002E5F0857D
:102D6C0021828522831236319002E6123273E8A357
:102D7C00122D95120256EEFAEFFB1206A0740212F7
:102D8C001BE3E0F97403024845F07CE57D028508FD
:102D9C00828509831236352274E8121C0774FA12E4
:102DAC001B977404121BE3ECF0A3EDF08A128B1347
:102DBC00EA2405F50EE43513F50FEA2402F510E4C8
:102DCC003513F511851082F5831236311203948A6E
:102DDC000A8B0B7508007C037D0079007AE57B0279
:102DEC00120FC4E50E2402F516E4350FF517740224
:102DFC00121BED880C890D780C121E1A850E82851B
:102E0C000F83A3A3A3A3E0F50C750D00780C121E81
:102E1C001AE50E2405F50CE4350FF50D780C121E91
:102E2C001A85168285178312393812060474061215
:102E3C001BAD8A0C8B0DE50C450D7003022FC58064
:102E4C0020852182852283E088828983F00508858C
:102E5C002182852283A3E0C0E0123006D0E0F00589
:102E6C0008E50A24FBFAE50B34FFFBC3E5089AE4FA
:102E7C009B4003022FC57E007F0085128285138341
:102E8C00A3A3A3A3E0F5097809121E1EE4F514F51B
:102E9C00157814121E1A7514E27515027814121E88
:102EAC001A9002E3121E317409121BE3121E31E553
:102EBC000A24F9F9AC0CAD0D8510828511831236FC
:102ECC00311207727409121BADE96003022F66857B
:102EDC000E82850F83A3A3A3A3A3A3A3E0F8900260
:102EEC00E2E0687075E0F5148E157814121E1A1253
:102EFC0045C2850E82850F83A3A3A3A3A3A3A3A37B
:102F0C00123631120FBE7402121BADE9604C9002E6
:102F1C00E6123660703BE4F5147814121E1A7CFF2E
:102F2C007DFF79078510828511831236311206DCFC
:102F3C007402121BAD1236667017850E82850F83D4
:102F4C0012475F7404121BE3124020123969022FDE
:102F5C00F9850C82850D83122FFCA821A9228814D7
:102F6C0089157814121E1A7404121BE3121E318573
:102F7C0016828517831232691206107404121BAD67
:102F8C008A0C8B0DEE4F7003022E42123006EE129D
:102F9C00301112391FEF123011F8A3E03400F9E5AB
:102FAC000C450D6003022E4D8882898374FFF00559
:102FBC000812300674FFF00508E508601A13135464
:102FCC003F123279120268E960099002E61236313A
:102FDC0012143879008016850E82850F8312475F94
:102FEC007404121BE3124020123C88790A0238F256
:102FFC00A3A3A3A3E0FEA3E0FF22A8089002E6E0AF
:10300C002812391F22F00508089002E6E0282274E5
:10301C00E8121C0774FA121B977402121BE312328B
:10302C00737404121BE3ECF0A3EDF07402121BE3B7
:10303C00E02405123908E0F50CA3E0F50D7402123A
:10304C001BE3E02402F510A3E03400F51185108297
:10305C00F583123631120394750800750900EA24C1
:10306C00FCFEEB34FFFF8008050CE50C7002050D2F
:10307C00A808C3EE98EF94005003023225A821A9AA
:10308C0022880E890F780E121E1A851482851583DC
:10309C00A3A3A3A31245C9121E1AE5142405F50E09
:1030AC00E43515F50F780E121E1A851482851583DA
:1030BC001232671206047406121BAD8A0E8B0FEACD
:1030CC00450F7003023225EA2404F516E4350FF59A
:1030DC0017851682F583E0F50CA3E0F50D852182AA
:1030EC008522831245C58A828B83A3A3A3E0F9852D
:1030FC0010828511831236311205F2E9F50960034D
:10310C000232257402121BE312392FF509780912C9
:10311C001E1EE4F512F5137812121E1A7512E275C2
:10312C0013027812121E1A9002E3121E3174071247
:10313C001BE3121E31EEF9AC0EAD0F85108285111A
:10314C00831236311207727409121BADE9F509604E
:10315C0003023225E508703FE4F50EF50F780E12E8
:10316C001E1A7CFF7DFF790985108285118312362A
:10317C00311206DC7402121BAD123955700D740439
:10318C00121BE312325C79110232599002E2E024F4
:10319C00029002E6F080149002E6E0FA9002E2E07F
:1031AC00790024025001096A497072A8089002E261
:1031BC00E0FAE82AFAE43400FBEE9AEF9B405A85D9
:1031CC001682851783E0C0E09002E712300BD0E046
:1031DC00F00508851682851783A3E0C0E0089002ED
:1031EC00E712300BD0E0F005089002E21245C9124C
:1031FC001E1A1245C2A8081238FC120FAC74021227
:10320C001BAD9002E2E02508F50874FF650C700414
:10321C0074FF650D6003023074E508601F9002E6D0
:10322C00E0F5F0E5088412327912026EE96009903B
:10323C0002E712363112143879008011E509700357
:10324C0075090A7404121BE312325CA9090238F2E4
:10325C00123A97E50CF0A3E50DF022A3A312485403
:10326C00AA0CAB0D22A3A3EAF0A3EBF0229002E58B
:10327C00F07CE57D0285108285118312363522742F
:10328C00EC121C0774FC121B97123D987402121B53
:10329C00FD12362B12060A8A0C8B0DEA450D7003B3
:1032AC00023363123373A821A92288108911781074
:1032BC00121E1A7CFF7DFF790B850882850983120B
:1032CC0036311206DC7402121BAD123469700C8597
:1032DC000A82850B831239660233708E828F83A328
:1032EC00A3A3A3E0F5127812121E1EE4F512F51337
:1032FC007812121E1A7512E57513027812121E1A24
:10330C007810121E1A7409121BE3121E3174091262
:10331C001BE3E0F9AC0CAD0D8508828509831236F0
:10332C00311207727409121BADE9FE70157CE57D34
:10333C0002850882850983123631120274E97009FC
:10334C00802074166E70027E009002E612363112E6
:10335C001438EE7004800B7E01850A82850B831273
:10336C003C85EEF9023C9AEE2402F508E43FF5099F
:10337C002274EC121C0774FC121B97EAFEEBFF8CF8
:10338C000E8D0FEE2405F508E43FF5097402121BAF
:10339C00FD85088285098312363112060A8A0C8B48
:1033AC000DEA450D7003023459EE2402F50AE43F90
:1033BC00F50BA821A922881089117810121E1A7CED
:1033CC00FF7DFF790D12362B1206DC7402121BAD39
:1033DC00123469700B850882850983123966807AEC
:1033EC008E828F83A3A3A3A3E0F5127812121E1E64
:1033FC00850882850983A3A3121E317512E5751306
:10340C00027812121E1A7810121E1A7409121BE37B
:10341C00121E317409121BE3E0F9123627120772DF
:10342C007409121BADE9FE700F7CE57D0212362B80
:10343C0012027AE97009802074166E70027E009078
:10344C0002E6123631121438EE7004800B7E0185C0
:10345C000882850983123C85EEF9023C9A1236707B
:10346C00F510A3E0F511EA45112274E8121C07745B
:10347C00FE121B978A168B178C148D15EA2405F5F2
:10348C000CE43517F50DEA2402F50EE43517F50FAB
:10349C00850E82F5831236311203948A088B0975D6
:1034AC000B007C037D0079007AE57B02120FC4755A
:1034BC000A00E50814F5100424FFF508E50934FFAB
:1034CC00F50980549002E5E0FA9002E2E0F8EA286F
:1034DC00F8E43400F9E50898E50999500D9002E5F7
:1034EC00E0F8E510C3989002E2F0E0F512751300D5
:1034FC007812121E1A1245C29002E6E02AFAA3E0D4
:10350C003400FB120FAC7402121BAD9002E2E0F817
:10351C009002E5E028F0050A850C82850D83A3A3B3
:10352C00123F3C400302360C9002E5E0C39508E4E0
:10353C009509400302360CAE0AEE2EFEE433FF1260
:10354C00364BAC21AD221245DDE439FB12060A8A5A
:10355C00128B13AC12AD13EC4D701B750B011236A4
:10356C003B123C899002E6122B886003121438A996
:10357C000B74020238F4851682851783A3A3A3A3C8
:10358C00E0F50B780B121E1EE4F512F513781212EF
:10359C001E1A7512E27513027812121E1A9002E3AB
:1035AC00121E317407121BE3121E31A910850E82F4
:1035BC00850F831236311207727409121BADE9F5AF
:1035CC000B709B9002E612366060030234D0E4F577
:1035DC0012F5137812121E1A7CFF7DFF790F850EDF
:1035EC0082850F831236311206DC7402121BAD1267
:1035FC00366660030234D012363B12396A02357DCE
:10360C007CE57D02850E82850F8312363112028095
:10361C00E96003023570790002357DAC0CAD0D8587
:10362C000A82850B8312363522E0FAA3E0FB2212C4
:10363C00364BE0FAA3E0F9EA8514828515832285DE
:10364C000C82850D83E02EF8A3E03FF988828983F4
:10365C00229002E3124763E84922123670F8A3E085
:10366C00F9E849229002E6EAF0A3EBF09002E6E0DA
:10367C002274E8121C0774FA121B977404121BE3D1
:10368C001232738C168D177404121BE3E02405F5AB
:10369C000EA3E03400F50F7404121BE3E0240212B5
:1036AC0039081236311203948A0A8B0B7F007E0084
:1036BC00A821A922880889097808121E1A850E8269
:1036CC00850F83A3A3A3A3E0F5088E097808121E27
:1036DC001AE50E2405F508E4350FF5097808121ED5
:1036EC001A850E82850F83A3A3123938120604742F
:1036FC0006121BAD8A0C8B0D8029123929F00F1282
:10370C003929F00F9002E2123C74121E1A1245C2B3
:10371C00EFF81238FC120FAC7402121BAD9002E2DF
:10372C00E02FFFE50C450D70030237B8852182852B
:10373C002283123DAAA3A3A3E0F9851482851583E5
:10374C001236311205F2E9FEE50C2404F510E435CD
:10375C000DF511EE70507404121BE312392FF5089D
:10376C007808121E1EE4F508F5097808121E1A7561
:10377C0008E27509027808121E1A9002E3121E3133
:10378C007407121BE3121E31E50A24FAF9AC0CADD6
:10379C000D85148285158312363112077274091245
:1037AC001BADE9FE6039123945123C88EF700302FB
:1037BC0038DF9002E6E0F5F0EF849002E5F07CE56E
:1037CC007D02851482851583123631120286E960DA
:1037DC00099002E712363112143879000238F28F50
:1037EC0008EF703BE4F512F5137812121E1A7CFFE9
:1037FC007DFF79118514828515831236311206DC12
:10380C007402121BAD1239557009123945123969FF
:10381C000238F29002E2E024049002E6F080359047
:10382C0002E2E0F89002E6E0FAE82404FCE434005A
:10383C00FDEC6A4D60030237BEE50A24FAFAE50B8B
:10384C0034FFFBE50828F8E43400F9EA98EB9950CA
:10385C00030237BE851082851183E0C0E09002E739
:10386C00E02FF8A3E034008882F583D0E0F00F85D8
:10387C001082851183A3E0C0E0123916D0E0F00F5E
:10388C007402121BED880889097808121E1A74023A
:10389C00121BE3121E31850E82850F8312326712C2
:1038AC0006107404121BAD8A0C8B0DEA450D7003C7
:1038BC000237067402121BE3E0C0E0123916D0E0A6
:1038CC00F00F7402121BE3A3E0C0E0123916D0E033
:1038DC0002370EEE70027E0A850E82850F83123936
:1038EC004B123C88EEF97406121BAD7F10021CD9EA
:1038FC009002E7E028FAA3E03400FB22F514A3E0E1
:10390C003400F515851482F5832212391A2290029F
:10391C00E7E02FFAA3E034008A82F5832212391AE9
:10392C0074FF22123A97A3A3A3A3E0221248548552
:10393C000E82850F831236352285108285118312F3
:10394C004763851682851783229002E7EAF0A3EB82
:10395C00F09002E7124763E84922123C8EE8F0A38C
:10396C00E9F079112274EA121C0774FE121B978A73
:10397C00088B098C128D13EA2405FEE43509FFAC83
:10398C0021AD228E828F8312363112060A8A0C8B5D
:10399C000DEE2406F50EE43FF50FEA450D7003021B
:1039AC003A69E5082402F50AE43509F50B8A828B9D
:1039BC0083A3A3A3E0A2E55028852182852283124C
:1039CC0036311207668A108B11EA45116020791284
:1039DC00123627851082851183121C05E9F50C70AF
:1039EC007F850E82850F83E0600979528011750CFA
:1039FC000E806D850882850983A3A3A3A3E0F9E457
:103A0C00F508F5097808121E1A8E828F83A3A3E09D
:103A1C00F5087808121E1A8E828F83A3A3A3121E98
:103A2C00318E828F831245C512362B12077874069D
:103A3C00121BADE9F50C7011850E82850F83E070B9
:103A4C002D12362B12028C80257416650C70117594
:103A5C000C007418121BE3123A93E48010750C01DD
:103A6C0012475B851282851383E8F0A3E9F0850E7B
:103A7C0082850F83E0600479008002A90C74021225
:103A8C001BAD7F0E021CD9123A9722E0F8A3E0F589
:103A9C008388822274EC121C0774F7121B978A0A13
:103AAC008B0B8C108D11EA2405FEE4350BFF750C85
:103ABC0000AC21AD228E828F8312363112060A8A17
:103ACC00088B09EA45097003023C5FE50A2402F5FC
:103ADC000A5002050B8A828B83A3A3A3E0A2E550B4
:103AEC002F8521828522831236311207668A0C8B30
:103AFC000DEA450D604F7912AC08AD0912362B85D5
:103B0C000C82850D83121C05E9F50C6003023C62E6
:103B1C00850A82850B83E0F508A3E0F509AA08FB6A
:103B2C0012075AEA4B70197AFF7BFF12075AEA4BBD
:103B3C007003023C558A828B83E508F0A3E509F0FB
:103B4C007508008008750C0E023C6205089002DFB7
:103B5C00E0F8E508C3984003023C5585080E750F44
:103B6C00007403780E121B848A828B83A3A3E02536
:103B7C000EF8A3E0350F12402970D08E828F83127D
:103B8C003C7D1232738E828F83A3A3123C7D123242
:103B9C0071EE2404F508E43FF509850882F583E00D
:103BAC0088828983A3A3A3A3F0A3E4F0EE2405F5F4
:103BBC000EE43FF50F850E82F583123C7DA3A3A383
:103BCC00A31232717512077513007812121E1AEEB9
:103BDC00FCEFFD7404121BF5120FAC7402121BAD3A
:103BEC00E4F5127812121E1A850882850983E0FC0E
:103BFC007D00791712362B1206DC7402121BAD7481
:103C0C0007121BE31232737407121BE3E0FA4B60CA
:103C1C003D850882850983123C74121E1A850E821A
:103C2C00850F831245C5120FAC7402121BAD7402C2
:103C3C00121BFD12362B120292E960267407121B1E
:103C4C00E31236311214388019750C098008750C82
:103C5C00118003750C0112475B851082851183124C
:103C6C003C88A90C74098028E0F5087509007808CF
:103C7C00221236358882898322123C8EE8F0A3E921
:103C8C00F022E0F8A3E0F9850E82850F83227404FC
:103C9C00121BAD7F0C021CD974EC121C07123D9840
:103CAC00751000EE2402F50CE43FF50D850C82F541
:103CBC008312363112075A8A088B09EA45097003B8
:103CCC00023D7C850A82850B83E064016003023D22
:103CDC0071AC08AD09AA0AAB0B12074EE9606E85F0
:103CEC000882850983122FFEEE2406F50AE43FF5BF
:103CFC000B8E828F83A3A3121E318E828F83A3A37C
:103D0C00A3A3121E31850A82850B83121E317918EA
:103D1C008E828F83123DAA123631120778740612E6
:103D2C001BADE9F8741668700B850A82850B83E469
:103D3C00F0A38014E860128E828F83123631850EC8
:103D4C0082850F83EAF0A3EBF088108018780E12AE
:103D5C001E1AAC08AD09EEFAEFFB120754740212EE
:103D6C001BADE9F510AA08AB09120760E510700E3F
:103D7C00850C82850D8312363112029880097416D7
:103D8C0065107003751000A910023C9FEAFEEBFF52
:103D9C008C0E8D0FEE2405F50AE43FF50B2212482C
:103DAC0054850C82850D832274EA121C0775080059
:103DBC007509007E007F00750A00EC2402F510E402
:103DCC003DF5118035EC65087003ED650960030263
:103DDC003E6988828983A3A3E06A7003A3E06B70B9
:103DEC007C88828983A3A3A3A312475FEE28FEEFEE
:103DFC0039FFEA28FAEB39FB050A123F39503A85AC
:103E0C000A0C750D007403780C121B8485108285C6
:103E1C001183123F2C124029601FE508450970A53B
:103E2C008C088D0988828983122FFC88828983A350
:103E3C00A3E02EFAA3E03F80BEE50AC39402500330
:103E4C00023F27750800750900EE4F6010EEFAEF7F
:103E5C00FB1214328A0E8B0FEA450F7005790002A3
:103E6C003F29750B00023EFC850B0C750D0074038D
:103E7C00780C121B84851082851183E0250CF50CBF
:103E8C00A3E0350DF50DE50C2406F514E4350DF520
:103E9C0015851482F58312402E6042E50C2404F53E
:103EAC0012E4350DF513851282F583121E31E50EE1
:103EBC002508FAE50F3509FB120FAC7402121BAD85
:103ECC00851282851383E02508F508A3E03509F5F2
:103EDC0009851482851583123631121438E50B606E
:103EEC000D7C087D007900AA0CAB0D120FC4050BDC
:103EFC00E50BC3950A5003023E748510828511832D
:103F0C0012475F88828983A3A3A3A3A3A3E50EF022
:103F1C00A3E50F122B8FEEF0A3EFF07901023A8E8E
:103F2C00123F3022E0250CF8A3E0350D229002DF81
:103F3C00E0F8E50AC3982274F0121C078A0E8B0F66
:103F4C008C0A8D0B750D00750C0080507916EE24C3
:103F5C0006F508E43FF5098E828F83A3A3121E3168
:103F6C008E828F83A3A3A3A3121E31850882850999
:103F7C0083121E31850E82850F83A3A31236311254
:103F8C0007787406121BADE9F50D7416650D706C8F
:103F9C00850882850983E4F0A3F0050C9002DFE02C
:103FAC00F8E50CC3985066AA0C8A087509007403CE
:103FBC007808121B84850A82850B83A3A312407890
:103FCC00E8FEE9FF8E828F8312402E6040EA2401C6
:103FDC00F508E43400F5099002DFE065087002E5AD
:103FEC0009601488828983A3A3A3A3A3A3A3A31208
:103FFC0036606003023F587918023F5AE9609B1201
:10400C00475B7410121BE3124020123C88A90D7FF1
:10401C0008021CD9E0FAA3E0F5838A8222F988828F
:10402C008983124854EC4D2274F6121C077C0080D4
:10403C00010C90033BE0F8ECC398501E8C087509FA
:10404C000074027808121B8412406DE06A7003A39E
:10405C00E06B70DDE8FAE9FB80047A007B0002413A
:10406C00109002DD1240788882898322E02508F8BE
:10407C00A3E03509F92274F2121C078A088B097522
:10408C000A0080278E828F83A3A3A3A3122B8660A2
:10409C00031214387C087D007900EEFAEFFB120F46
:1040AC00C48E828F83E4F0A3F0050A123F395027A7
:1040BC00850A0C750D007403780C121B848508821C
:1040CC00850983A3A3E0250CFEA3E0350DFF8E82AA
:1040DC008F8312366070AD85088285098374FFF07A
:1040EC00A3F002484874F6121C0712070C8A828B44
:1040FC0083E582458370067A007B008007A3A3A327
:10410C00A31236317F02021CD974F4121C078908E1
:10411C008C828D83E06402703C1246FEFEA3E0F9B3
:10412C00EEF874026870037429697029750A0275B7
:10413C000B00780A121E1A7410121BE3121E317433
:10414C0010121BE3121E31A9081212287406121B3E
:10415C00ADE9F980027901022BC374E8121C0774D3
:10416C00FB121B97E9852182852283F08A168B1717
:10417C00ECFEEDFF7510008E828F83A3A3A3E0A24B
:10418C00E4502D741D121BE31236311207668A821D
:10419C008B83E5824583700302459D790AEEFCEF23
:1041AC00FDAA16AB17121C05E9F51060030245A019
:1041BC00741F121BE3E0F508A3E0F5097421121B30
:1041CC00E3E0F50AA3E0F50B7423121BE3E0F50E14
:1041DC00A3E0F50F8E828F83E06402600302453EFC
:1041EC00A312475F850882850983A3858212858384
:1041FC0013EE2406F50CE43FF50D888289831245F5
:10420C00DDF514E439F5157814121EA4010000280C
:10421C000128404207000228054303287342002965
:10422C00344401295F4402290044032934440429FD
:10423C00D8443E45E50E450F6003024539850C8296
:10424C00850D8312475FE8FAE9FB8A828B83E08550
:10425C000A82850B831245E8121E1A8A828B83A36D
:10426C00E0FCA3E00244C2E50E450F6003024539B1
:10427C00850A82850B837401F01245D285088285EC
:10428C000983F07C007D008E828F83A3A3A3A3E01F
:10429C002401FAA3E03400FB12060AEA4B60408AC0
:1042AC00828B83E02402F8850A82850B83E028F058
:1042BC00EA2404F8E43BF988828983E0851282853C
:1042CC0013831245F61245E8121E1A8A828B83A3B9
:1042DC001245C5E5082403FAE43509FB0244C785F9
:1042EC000A82850B83E02404F07C047D007900AA0B
:1042FC0012AB13120FC40245A0E50E450F6003026A
:10430C0045391245D2FEA3E0FF850A82850B8374E2
:10431C0004F0EE850882850983F0EF8512828513FF
:10432C0083F07403121BFDEEFAEFFB12060A8A0CE3
:10433C008B0DEA450D70030243E38A828B83A3A3A2
:10434C00122FFC7401121BED880E890F780E121EB1
:10435C001A7405121BE3121E317CFF7DFF1206102E
:10436C007404121BAD8B0FEA450F7033850C8285DC
:10437C000D831245C9121E1A850C82850D83A3125A
:10438C001E317C027D007A317B8E12038274041202
:10439C001BADE9700A7401121BE374FFF0A3F08EDD
:1043AC00828F83E064027039750C02750D00780CF5
:1043BC00121E1A8E828F83A31245C5E5082404FAB7
:1043CC00E43509FB120FAC7402121BAD850A828511
:1043DC000B83E0240280097401121BE3EEF0A3EFBF
:1043EC00F07401121BE31245B77401121BE3124562
:1043FC00AE024533E50E450F6003024539850C824C
:10440C00850D8312484DAA16AB1712122E850A82FF
:10441C00850B837402F0850882850983EAF0851286
:10442C0082851383EB024536E50E450F600302458A
:10443C00391245D2F8A3E0F9850A82850B83740200
:10444C00F0E8850882850983F0E98512828513835B
:10445C00024536850C82850D83123631120FA6EA81
:10446C00FAF8C3950EE4950F405CE8650E450F70A5
:10447C00047A008021852182852283E0FCE50E2CC4
:10448C00FCE4350FFDC3EC98ED94005003E080057F
:10449C00E50ECAC39AFAEA850A82850B83F08A0A6A
:1044AC00750B00780A121E1A850C82850D83E02587
:1044BC000EFCA3E0350FFDAA08AB09120FAC740279
:1044CC00121BAD0245A07510070245A0E50E450F65
:1044DC00705B850C82850D8312475F850A82850B84
:1044EC00837407F0888289831245AF1245A7E08553
:1044FC001282851383F0E82402FAE439FB8A828B5A
:10450C00831245B78A828B831245AEA3A3122B8EDE
:10451C001245BCF0E82405F8500109888289831201
:10452C0045BCA31245F6A3A3A3A3F0806775100B9B
:10453C008062741D121BE312363112070C8A828BB7
:10454C0083E5824583604A12475F880C890DE845F4
:10455C000D603E7425121BE3E0F5107810121E1E40
:10456C00780E121E1A780A121E1A7808121E1A7465
:10457C0007121BE3E0F9EEFCEFFDAA16AB17850C56
:10458C0082850D83121C057407121BADE9F5108092
:10459C000375100EA91074050238F4F08882898313
:1045AC00A322A3E0850882850983221245FDF0220F
:1045BC001245FDA3A3229002E312485422E0F50E0B
:1045CC00750F00780E22850C82850D83123A97E0C8
:1045DC0022E0FAA3E0F8E4C8F9EA2822F08A828BF8
:1045EC0083E0F50A750B00780A221245A71245FDE7
:1045FC0022E0850882850983A3A32274EE121C078E
:10460C0074FE121B978A088B09ECFEEDFF890AAC2D
:10461C0021AD22EEFAEFFB12060A8A0C8B0DEA454D
:10462C000D70030246EF85218285228312363112EA
:10463C00070C8A828B83E582458370030246EAA3CA
:10464C00A312475F880E890FE8450F70030246EAF4
:10465C007414121BE3E0F510A3E0F511E50AF50B59
:10466C00780B121E1E7419121BE3121E31781012D5
:10467C001E1A741B121BE3E0F9AC0CAD0DAA08ABAF
:10468C0009850E82850F83121C057405121BADE97A
:10469C00F50B705274FE650A604C850C82850D8397
:1046AC00E0640270411246FEFAA3E0F9EAF87402E3
:1046BC00687003742969702E8510828511831245E8
:1046CC00DDF50CE439F50D780C121E1AEEFCEFFD3D
:1046DC00AA08AB091207907402121BAD8008750B67
:1046EC000E8003750B01A90B7402121BAD7F0A021D
:1046FC001CD9A312476388828983E02274F6121CAA
:10470C000774FE121B97740C121BE312475FE885AB
:10471C002182852283F07401121BE3E9F0E4F50891
:10472C00F5097808121E1A7508027808121E1A74F8
:10473C0004121BED880889097808121E1A79FE12DA
:10474C0007787406121BAD7402121BAD0241108E59
:10475C00828F8312476322E0F8A3E0F92274F712E8
:10476C001C07EAFEEBFF89089002FA1245C51212EB
:10477C002EEA5402600BA908EEFAEFFB1205FE803C
:10478C000279017F01021CD974F2121C0774FE120B
:10479C001B97EAFEEBFF890A7401650A6014740228
:1047AC00650A6003024843790112097CE96003023F
:1047BC004843EEFAEFFB12075AEA4B60031207600C
:1047CC00A821A922880889097808121E1A750802DE
:1047DC007509007808121E1A75083B75098E780841
:1047EC00121E1A7CFF7DFF7A017B001206047406F0
:1047FC00121BAD8038850882850983A3A3A3A3A3CC
:10480C00A312484DEEFAEFFB121222E4F50CF50D53
:10481C00780C121E1A7402121BE3121E317CFF7DDF
:10482C00FFAA08AB091206107404121BAD8A088B80
:10483C0009E508450970BE7402121BAD7F06021C07
:10484C00D9123A9712485422E0FCA3E0FD2274F4EA
:10485C00121C078A088B09ECFEEDFF901CDCE0F4BF
:10486C00604B7A097B00120FD0EA4B60408A828B36
:10487C008374B1F0A3E41248BCF08A828B83A3A3A7
:10488C00E508F0A3E5091248BCA3EEF0A3EFF07421
:10489C000C121BE312475F8A828B83A3A3A3A3A3EF
:1048AC00A3A3123C88901CDCE0F9120FDC022BC392
:1048BC00F08A828B83A3A3A3A322C082C0839061BE
:1048CC00907404F0A37448F0A37402F090618074A7
:1048DC0040F09061BC7403F09061877419F09062A1
:1048EC0065741BF0906249E0C3941390619C401076
:1048FC007409F09060667401F090619F7428800DCB
:10490C00740BF0906066E4F090619F742CF0124A86
:10491C00B17009C29190036D7467800590036D743A
:10492C0061F0124B039028A8E493F46006E493F929
:10493C00120A727905120D8A024D45C082C083E9B4
:10494C00540FF9906185E0696012E5C654B8444192
:10495C00F5C6E59E5447644170F8E9F053C6B8E5D6
:10496C009E544770FA024D45C082C083A8A853A834
:10497C007E906181E4F0A3F0A3F0C2BA539AFEC218
:10498C0089759B00C2C275E90075910075BF0075F1
:10499C00A91175B905906181F0A374C0F0A3E4F07E
:1049AC00D2BA439A0174805842A8024D45F0024D88
:1049BC0045C082C08374F8121B9790036B1260C5BC
:1049CC007003024AA990036BE0544060177908AA5F
:1049DC0021AB22120B80AA21AB221207F090036BA1
:1049EC00E054BFF0E054806010790C7A197B071208
:1049FC000B8090036BE0547FF0E0A2E0501E124A53
:104A0C00B17009C29190036D7467800590036D7449
:104A1C0061F01207F690036BE054FEF0E054026074
:104A2C001E124AF67009D29190036D747180059034
:104A3C00036D746AF01207F690036BE054FDF0E01E
:104A4C00540460109028AC124B061207FC90036BB8
:104A5C00E054FBF0E0540860109028AD124B0612A5
:104A6C0007FC90036BE054F7F0E05410600D124B10
:104A7C00031207FC90036BE054EFF0E05420600A43
:104A8C001207FC90036BE054DFF0A3E05401600DBF
:104A9C00120A9012080290036CE054FEF074081293
:104AAC001BAD024D4590619A124CF89006F3E064F0
:104ABC000122C082C083E960051460178029124A64
:104ACC00B17009C29190036D7467801A90036D7474
:104ADC00618013124AF67009D29190036D74718043
:104AEC000590036D746AF0024D4590619A124CEA80
:104AFC009006F3E06401229028AEE493906186F076
:104B0C002274EA121C0774F4121B97908E11AC21BC
:104B1C00AD227404121AAA9028AC93F46003024CD0
:104B2C007F907808E0C394025003024C63908D6729
:104B3C007404121BFD7408121AAAA821A922881445
:104B4C0089157404121BED88088909AE08AF097524
:104B5C0010FF7511FF750EFF7C00750C48750D78F4
:104B6C00801274086C7003024BF974096C607E74CB
:104B7C000A6C6079850C82850D837808121A4F8E29
:104B8C00828F83A909E50AC9F8881274187808126B
:104B9C00196AE5124508F8C3E098A3E099850C82E0
:104BAC00850D837808121A4F40188E828F837418E3
:104BBC00780812196AE5124508F8E0C398F8A3E0E2
:104BCC00801A7418780812196AE5124508FAE9FB7C
:104BDC008E828F8312541AEAC398F8EB99F9C3E8C2
:104BEC009510E995115006881089118C0E0CE50C66
:104BFC002404F50C5002050DECC394135003024B26
:104C0C006E74FF6510700474FF65116024850E08C6
:104C1C0074027808121B8474482508F58274783560
:104C2C0009F5837808121A4F851482851583E508D7
:104C3C00F0EE2402FE50010F851482851583A385A6
:104C4C008214858315740C121BE3E5826E7003E5E8
:104C5C00836F6003024B5B750801750900780812BD
:104C6C001E1A7402121BFD7A2B7B0A121294740208
:104C7C00121BAD740C121BAD7F0E021CD9C082C06E
:104C8C00839061AE7468F0A3746AF090624574FB13
:104C9C00F0A304F053F4FD43FE029006F37401F00C
:104CAC009061A0E0643A90619A7019124CF874010A
:104CBC0064017009C29190036D7467801E90036D3E
:104CCC0074618017124CEA740164017009D29190DE
:104CDC00036D7471800590036D746A0249B9743F59
:104CEC00F0A3745AF09061A0747FF0227433F0A397
:104CFC007455F09061A0743AF0227F04021CD9C064
:104D0C0082C0839006D1E0640170119006D7E064F4
:104D1C00016019E07006A3E0640160109006E8E001
:104D2C006401700C9006EEE064017004790C800252
:104D3C0079008005E0F91227BFD083D08202011FD1
:104D4C00E0C4333354C022888289831252DBA88298
:104D5C00A983222414F582E438F58322C082C0830F
:104D6C009006DB7425F09006D97401F0A3E4F07A78
:104D7C0001FB120D06124DB4241AF582E438F583AA
:104D8C0074B4F0A3740AF09006D8E0640170169025
:104D9C0006D7E070107901120D66120D36120D60F7
:104DAC007900120D72024D459006C712513D2274C6
:104DBC00F6121C0774FA121B979006D0E06401706F
:104DCC0008120A9C9006D0E4F075E1F1124DB4245F
:104DDC0015F582E438F5837401F09006D2E0640195
:104DEC00704B908D8FAC21AD227406121AAA75D916
:104DFC000D9006C9124D4C4403F5D97582CA7583C2
:104E0C00061252D7E58264D07004E583640670F113
:104E1C00A821A922124D537406121BE3E582687077
:104E2C0003E5836970EE75E19579018002790012D2
:104E3C000D0C901D00124EA1741CF0A3740CF0A369
:104E4C00124EA1124EA112500F7422F0A3740C1228
:104E5C0050249006C9E0F97ACA7B06120CE8900639
:104E6C00DBE0F91227BF7901120D12908E15121A80
:104E7C006D120D2A908DD9121A6D120CF479001244
:104E8C000D7E124DB4124D5F7416F09003697405CB
:104E9C00F00402553C7416F0A3740CF0A32274F7C2
:104EAC00121C078908A808E875F00CA4C8AAF02AF7
:104EBC00F9749928FE740339FF9006E0E0F97AE161
:104ECC007B06120CE89006EEE070257900120D4876
:104EDC00EE240BF582EF3401F583E0700479008049
:104EEC00027901EE2405FAEF3401FB120CEE800579
:104EFC007901120D4875E1F175D9239006E0124D38
:104F0C004C4405F5D97582E17583061252D7E582BA
:104F1C0064E77004E583640670F175D90075D900F7
:104F2C0075D90075D90075D90075D900EE242212F7
:104F3C0053901253AF7003E9658370F6EE2426127A
:104F4C00539B2403F8E43583F91253AF7003E965DE
:104F5C008370F6EE242B1253A4242C1253A4242D6C
:104F6C001253A4242E1253A4242F1253A42430120F
:104F7C0053A424311253A424321253A424331253B5
:104F8C00A4245D12539B2405F8E43583F91253AF26
:104F9C007003E9658370F6EE2437125F44541FF8F2
:104FAC00EE242A125F44C43354E048F5D975E195D8
:104FBC00901D0074E6F0A3740BF0A374ECF0A374D2
:104FCC000B12500674F2F0A3740B1250249006EDE1
:104FDC00E0F91227BF908E15121A6D120D2A908DC2
:104FEC00D9121A6D120CF490600DE4F07901120DC7
:104FFC007E9003697406F0025778F0A312500F12DA
:10500C00500F221250132274E0F0A3740BF0A3740F
:10501C00E0F0A3740BF0A32212502822F0901D0E86
:10502C00125034A31250342212501374E0F0A374B3
:10503C000BF02274EC121C079006DE125B9A7810AF
:10504C00121A4F9006EFE0FAF875F00CA4C8ACF009
:10505C002C125D16FFEE2EFEEF33FF8E0CF50D7548
:10506C000E00750F0085100885110985120A85132D
:10507C000B908E0578081219B57808121E1685103B
:10508C000885110985120A85130B7808790C1219F9
:10509C00A27810790C1218E7E4F50EF50F78087960
:1050AC000C1219DB8A0C750D007403780C121B841E
:1050BC007808790C1219A2908E1D7808121A16AA6B
:1050CC0008AB09AC0AAD0B1227577404121BAD8A3E
:1050DC00088B09A808A909C3EE98EF995006E82E89
:1050EC00F8E93FF9E890600EF0E9A3F0EEA3F0EFD9
:1050FC00A3F090600D74C1F07F0C021CD9C082C06B
:10510C00839006C71251299006DB024D40C082C025
:10511C00839006DE1251299006ED024D4012513D4E
:10512C00125133F0A3F0222406F582E438F583E41F
:10513C0022E0F8A3E0C82202011F74F6121C071229
:10514C0052E06004780480027800E8240EF8ECC386
:10515C009850030252147C0C9006F9E4F0EA247681
:10516C00F582E43BF583E09006FAF0EA24771252DC
:10517C00199006FB1252239006FCF0EA2479125285
:10518C00199006FD1252239006FEF0EA247B12526F
:10519C00199006FF125223900700F0EA247D125258
:1051AC0019900701125223900702F0EA2474F8E4D4
:1051BC003BF98A828B83A3A3A3A3A3E0FEA3E0FF06
:1051CC0088828983E02EF0A3E03F1258BD9007033C
:1051DC0012522390070412530460177508F97509CD
:1051EC00067808121E1A7903120BD47402121BAD26
:1051FC007C1012554AECFE1252D7DEFB75E1957904
:10520C0004120D3079018002790002553FF8E43B1D
:10521C00F988828983E0221258C2A3E02274F61224
:10522C001C071252E06004780480027800E8240A1B
:10523C00F8ECC39850030252D27E089006F9740120
:10524C00F07CBD7D0678FA79067F051252EEA882B5
:10525C00A983DFF7EA2480FCE43BFD8A828B83A3DD
:10526C00A3A3A3A3E0F508A3E0F5098C828D83E04A
:10527C002508F0A3E03509F01252EE08A9838C82C0
:10528C008D83E08882898312530460197508F9753F
:10529C0009067808121E1A7C087903120BD47402C2
:1052AC00121BAD7E0C74012EF5D975D9037582F9DC
:1052BC00758306EEFF1252D7DFFB75E19579041268
:1052CC000D3079018002790002553F1252DB22E049
:1052DC00F5D9A3229061D0E0F87480C398FC1253E6
:1052EC0009221252F2228C828D83E08882898312E9
:1052FC00610288828983A322F012530922EA248254
:10530C00F582E43BF583E02274F7121C07EAFEEB0E
:10531C00FF9061D0E0706875D91875D90375D90301
:10532C00EE249B1253B61253AF7003E9658370F6EB
:10533C00EE24A31253A424A41253A424931253B600
:10534C001253AF7003E9658370F6EE248712539005
:10535C001253AF7003E9658370F675E1957908EE29
:10536C002493FAE43FFB120B747904EE2487FAE4DD
:10537C003FFB120B747904120D301254C480027965
:10538C000002577812539B2404F8E43583F922F574
:10539C0082E43FF583E58222F582E43FF583E0F574
:1053AC00D9EE221252DBE865822212539B2408F8B4
:1053BC00E43583F92274F6121C07EAFEEBFF900623
:1053CC00F9740612546D121E1A7C017903120BD457
:1053DC007402121BAD75D90675D9037582F97583E4
:1053EC00061254657004E583640670F575E19590BA
:1053FC000369E064087010EE246FF582E43F1254E8
:10540C0018EE2471125ED3790102553FF5831260B8
:10541C00D12274F6121C07EAFEEBFF9061D0E0700B
:10542C00339006F9740A12546D121E1A7C0179031A
:10543C00120BD47402121BAD75D90675D903758283
:10544C00F97583061254657004E583640670F512D1
:10545C0054C18002790002553F1252DBE58264FE92
:10546C0022F07508F975090678082274F6121C07E3
:10547C00EAFEEBFF9061D0E0703678019006F9748B
:10548C000BF0900369E0640770197508F97509064B
:10549C007808121E1A7C017903120BD47402121BA9
:1054AC00AD780512570C1252D7DAFB1254C1800298
:1054BC00790002553F75E195EE246F1260CBEE2416
:1054CC0071F582E43FF583E8F0A3E9F079012274E9
:1054DC00F6121C0712560D6004780480027800E85E
:1054EC00240BF8EAC39840447C099006F97408121E
:1054FC005559125568DDFB125F41601B7508F97533
:10550C0009067808121E1A7903EEFAEFFB120BD477
:10551C007402121BAD7C0D12554412560570FB75AE
:10552C00E1957904120D301254C480027900800385
:10553C00121BAD7F02021CD912554A8C0822740131
:10554C002CF5D975D9037582F975830622F0EE24F2
:10555C00E4F8E43FF97AFA7B067D08228882898395
:10556C00E08A828B831258C2A3A882A9838A828B79
:10557C0083A3AA82AB832274F6121C0712560D6009
:10558C0004780480027800E82408F8EAC3984064A0
:10559C0078069006F9740CF0900386E09006FAF009
:1055AC00900387E09006FBF0900388E09006FCF0F7
:1055BC00900389E09006FDF090038AE09006FE12BD
:1055CC00569C601B7508F97509067808121E1A7C22
:1055DC00067903EEFA120BD47402121BAD780A1280
:1055EC00569612560570FB75E1957904120D301222
:1055FC0054C48002790002553F1252DB1508E508AD
:10560C0022EAFEEBFF9061D0E0F87480C398FA12A6
:10561C0056A12274F6121C0712560D6004780480F1
:10562C00027800E82404F8EAC398405978029006FE
:10563C00F9E8F0EE24F6125F449006FA12569C60DC
:10564C001B7508F97509067808121E1A7C02790375
:10565C00EEFA120BD47402121BAD78061256961287
:10566C00560570FB75E195EE24731258AEEE247F4F
:10567C001258AE1258ABA3F07904120D30EE240D73
:10568C001254C78002790002553F12571288082223
:10569C00F01256A122EE2482F582E43FF583E0223B
:1056AC0074F6121C071252E0600478048002780031
:1056BC00E82404F8ECC398404278029006F9740789
:1056CC00F0EA24F7F582E43BF583E09006FA1253F6
:1056DC000460197508F97509067808121E1A7C02FF
:1056EC007903120BD47402121BAD780612570C12EC
:1056FC0052D7DAFB75E19579018002790002553FAA
:10570C00125712E8FA22740128F5D975D90375825B
:10571C00F97583062274F7121C07E9FFA2AFE43374
:10572C00FEC2AF7C0080010C1257C95010ECF8EA95
:10573C0028F8E43BF9125E2F6F70EC8016EA246EA9
:10574C00F8E43BF9E0FCEA2CFAE43BFB125766EF79
:10575C001258B7EEA2E092AF8012EA246AF582E406
:10576C003BF58322F0EEA2E092AF79007F01021CA0
:10577C00D9C082C083A2AFE433FDC2AF1257D1149B
:10578C00F07C00801DECF8EA28F8E43BF9E8246B87
:10579C00125E32C0E0E8246AF582E439F583D0E089
:1057AC00F00C1257C940DEEA246DF582E43BF58318
:1057BC0074FF1257F6EDA2E092AF024D451257D18D
:1057CC00F8ECC39822EA246EF582E43BF583E022E0
:1057DC00C082C083A8A8C2AF125766E91257F6E878
:1057EC00A2E7E433FAE8A2E780CEF0EA2469F58276
:1057FC00E43BF583E4F02274F3121C07EAFEEBFFA2
:10580C00ECFAEDFB8A828B83A3A3A3A3E0541FF0D5
:10581C00EE24361258AE750A00EE245DFCE43FFD12
:10582C008A828B83E08C828D83F0750B00E50A33C2
:10583C00333354F8F50C8A828B83E0F50875090034
:10584C00E50B7808121B65E508A2E05027EE24361C
:10585C00F8E43FF988828983E0F508EE2508F5081D
:10586C00E43FF509E5082438F582E43509F583E5CC
:10587C000C1258B7050B050CE50BC3940840B70583
:10588C000A8A828B83A3AA82AB838C828D83A3AC7E
:10589C0082AD83E50AC3940540867F05021CD9EED0
:1058AC00241DF582E43FF583E4F0221258BD04F088
:1058BC00221258C2E022F0888289832274F7121CCB
:1058CC0007900395E064037003025A607C007582B4
:1058DC009B758303E06003025A4AECF875F00CA444
:1058EC00C8AAF02AF9749928FA740339FB8A828BB6
:1058FC0083A3A37401125A82E4F0EC8A828B83A3F3
:10590C00A3A3A3F012604C7401F0EA2467F582E4BF
:10591C003BF5837401125A7CE4F0A3125A7CA3A3C6
:10592C00125A92240FF582E43BF5837401F0EA24B9
:10593C0035125A672418125A97241C125A67241DC0
:10594C00125A8B247F125A672473125A672468F5F3
:10595C0082E43BF58374801257F6EA246E125A6780
:10596C0024EC125A6724ED125A6724EE125A67245B
:10597C00EF125A6724F0125A8B24F2125A8B24F528
:10598C00125A672482125A6724D2125A6724D312ED
:10599C005A6724D4125A9724D8125A9724DE125AD2
:1059AC006724E0125A6724DC125A6724E1125A6702
:1059BC0024E2125A6724F8125A8B24FA125A8B24B6
:1059CC00FC125A8B24FE125A8B240B125A7124058A
:1059DC00125A712406125A712407125A7124081291
:1059EC005A712409125A71240A125A711257677487
:1059FC00FF7804F0A3D8FCEA245DF8E43BF97CBD05
:105A0C007D06125AAB64C27003ED640670F4EA248E
:105A1C00E4F8E43BF97C7D7D03125AAB648570039A
:105A2C00ED640370F4900395E004F0640170298A2E
:105A3C00828B83A3A3A3A3E0900397F0801A0CE5B9
:105A4C0082240CF582E5833401F583ECC394035076
:105A5C00030258E07A007B00025778F582E43BF5AC
:105A6C0083E4F0EA22F582EB3401F583E4F0EA22D8
:105A7C00125A82A3A322F08A828B83A3A3A322F5BA
:105A8C0082E43BF583E4F0A3F0EA22F582E43BF5F3
:105A9C0083125AA2EA22E4F0A3F0A3F0A3F022129C
:105AAC0052F2A882A983EC22C082C0838A828B83A3
:105ABC00A3A3A3E0600F8A828B83A3A3A3E4F0903B
:105ACC000396E014F0900395E014F07006900397A1
:105ADC0074FFF08A828B83A3A3E4F09006C2E0707B
:105AEC000D900396E0640170057900120CFA024DDA
:105AFC0045C082C083789B790388828983A3E41292
:105B0C0058C2F0125D00E864BF7003E9640670E9E6
:105B1C00900395E4F0A3F0A374FFF075E1F1024D4E
:105B2C004574F5121C07750800750900750A007E8E
