:020000040000FA
:060000000201070224EFDB
:03002B0002275059
:03003B0002277128
:0300430002270D84
:0300530002256221
:03007B0002273326
:1000830002235BE5C754F84401F5C7790122000058
:100093000080FB120086B900030200F1E4791A78AC
:1000A30002B800028004F709D8FCE4791C7802B88E
:1000B30000028004F709D8FCE490028178BA790F32
:1000C3008002F0A3D8FCD9FA7A3A7B1190013778F1
:1000D300E079018015E493A3AD82AE838A828B839A
:1000E300F0A3AA82AB838D828E83D8E9D9E7758288
:1000F3005F7583E17403120119758291758300742E
:100103000012011975D00075813F751881751902A8
:10011300759F00020096C09FF59FE473D09F22D085
:1001230083D082C09FE493C0E0740193C0E0740263
:1001330093F59F22A203B403DE03A803FF0000B4D8
:10014300000028002800283075A000A000A000A00F
:100153000000080008E001F000100010001000107B
:10016300001000100050005000500010001000D08C
:10017300070000000000000F0001000500307507B4
:10018300001000010081FF00000000FF020202B81E
:100193008D010000B58D02BE8D010000921102C8D1
:1001A3008D010000B20202BE8D010000931102CE48
:1001B3008D010000C802FFFF0100FF2002B88D017E
:1001C3000000B28D02BE8D010000C11102CA8D0074
:1001D3000000000002C28D030000A5030A0B0A0BF6
:1001E3000A0B0A0B0A0B0A0B0A0B0A0B0A0B0A0B64
:1001F3000A0B0A0B0A0BDE0CFC0CD80CFFFFFFFFEB
:10020300FFFF01E803053F10020A010101FEFF01A0
:1002130004FF00120122F9D5031201220FD60312A3
:1002230001223ED60312012274D6031201228BD679
:1002330003120122A2D603120122D9D603120122EC
:100243002CD70312012243D7031201227ACF0312C0
:10025300012291CF03120122C2CF03120122FDCF4B
:100263000312012227D00312012251D003120122CB
:1002730068D0031201227FD00312012296D0031209
:100283000122BFD003120122D2D003120122E8D0EF
:100293000312012212D103120122D2C60212012239
:1002A300D6C70212012203C80212012259C8021240
:1002B30001227CC80212012290C80212012292C8B4
:1002C30002120122B5C802120122C4C9021201227C
:1002D30088CA021201225DCB02120122CECB021286
:1002E30001225ACC021201225DCC02120122E5CC7A
:1002F3000212012220CD0212012287CD0212012215
:100303008ACD02120122C1CD02120122EACD0212CC
:10031300012295CE021201221FCF021201226ECFBB
:10032300021201227BCF021201227ECF021201228E
:10033300DECF02120122E9CF0212012268D002129B
:1003430001226BD0021201227ED00212012281D03F
:100353000212012210D1021201222AD10212012219
:100363003AD1021201226AD10212012277D102127A
:1003730001227AD102120122FBD102120122E9D217
:10038300021201229BD30212012262DE0212012217
:100393005ADF021201228EDF0212012210E0021242
:1003A300012230E00212012278E002120122CBE0A6
:1003B300021201222FE102120122BCE102120122E8
:1003C30076E20212012285E50212012210E70212EF
:1003D300012233E7021201220AAF03120122A7B05E
:1003E300031201220BB1031201226AB1031201228B
:1003F30078B103120122A1B1031201225D97031206
:100403000122859703120122B39703120122EA976F
:100413000312012248980312012293980312012226
:10042300DE98031201221E9903120122649903121A
:1004330001229299031201224F9A03120122599A1F
:1004430003120122669A03120122999A03120122CE
:10045300659B03120122719B03120122899B0312E4
:100463000122939B03120122119C0312012271DAD0
:10047300031201227FDA0312012297DA0312012207
:10048300AFDA03120122C7DA03120122548E0212D9
:100493000122008F021201227B8F021201229C9003
:1004A30002120122D890021201228191021201222A
:1004B300689202120122CC930212012223940212A7
:1004C3000122A49402120122949502120122E195C1
:1004D3000212012267960212012299960212012248
:1004E300AD9802120122EF98021201220D99021215
:1004F3000122AF9902120122779A02120122849CEF
:1005030002120122B5B203120122CBB2031201225D
:10051300F1B2031201220DB40312012217B4031224
:1005230001224CB50312012244B603120122B3A1E6
:100533000312012257A2031201228AA203120122EB
:10054300D4A20312012297A403120122A1B901121A
:1005530001221ABA011201222ABA0112012218BB7E
:100563000112012222BB0112012247BB0112012207
:1005730052BB011201223CBC011201229FBC011299
:10058300012255BD011201223CBF01120122F5C017
:1005930001120122D1C10112012285C201120122DD
:1005A300C2C50112012270C601120122DFC7011266
:1005B30001225FC90112012206CA011201224FCA98
:1005C3000112012286CA0112012223CB0112012248
:1005D300AECB011201223DDC0112012292DC011299
:1005E3000122F1DD0112012201DE011201222EDEC0
:1005F3000112012285DE011201222EDF01120122E6
:1006030035E001120122FFE0011201225FE2011233
:100613000122A2E20112012247E3011201226DE34A
:10062300011201227BE50112012280E50112012260
:1006330085E701120122D2E70112012245E80112E6
:10064300012278E8011201221AE901120122C3E909
:1006530001120122FBE901120122FEE9011201222A
:1006630046EA0112012288EA01120122DFEA01129D
:100673000122AEC603120122C1C603120122CFC654
:100683000312012217C7031201222DC703120122ED
:1006930074C70312012288C80312012215C9031269
:1006A300012260C9031201229F6200120122AF627C
:1006B3000012012212630012012257630012012269
:1006C3000D6400120122E864001201221165001278
:1006D300012241650012012281670012012268692B
:1006E30000120122406B00120122846C00120122CD
:1006F300EB6E00120122F96F001201224B710012FE
:100703000122557200120122977200120122CF7248
:1007130000120122F172001201225473001201220D
:10072300167800120122AB7800120122FF78001222
:1007330001222679001201226479001201228379B1
:1007430000120122DD7900120122DD7A001201225A
:10075300627B00120122498603120122538603128F
:100763000122FB86031201223E87031201225987CD
:1007730003120122E98703120122118803120122C5
:10078300498803120122808803120122A9880312D7
:100793000122E38803120122F88803120122C5898A
:1007A30003120122E889031201220A8A0312012299
:1007B3001F8A03120122A58A03120122DF8A031270
:1007C3000122578B03120122A08B03120122CA8B31
:1007D30003120122F58B031201225AD703120122BD
:1007E3009D9C02120122CB9C02120122269E021220
:1007F3000122069F02120122259F02120122A29FBB
:1008030002120122E59F0212012260A102120122BB
:10081300CFA102120122FAA3021201227EA6021222
:1008230001222FA70212012225A802120122C5A824
:1008330002120122C3A9021201224EAA02120122AC
:10084300A8FE0212012211FF0212012265FF021209
:10085300012294FF02120122B5FF0212012234A6E3
:1008630003120122A1A603120122E8A60312012208
:1008730000A803120122FCA803120122DFA903121C
:100883000122DAF7021201221CF802120122F5F802
:1008930002120122EFF902120122D1FA02120122FD
:1008A3003AFB0212012256FC02120122C2FC02127E
:1008B3000122C5FC02120122EEFC0212012268FD94
:1008C300021201220DFE0212012222FE0212012255
:1008D30068FE0212012281FE0212012284FE02122C
:1008E3000122DDB90312012219BA0312012257BAF8
:1008F3000312012221BB0312012290BB0312012226
:10090300CBBB0312012209BC0312012239BC03121F
:10091300012260BC03120122CEBC0312012210BDCE
:1009230003120122D18D01120122F08F0112012243
:10093300D391011201220F92011201223C92011262
:1009430001220393011201224E9301120122999372
:1009530001120122AB9301120122EB930112012236
:100963001F94011201226D94011201229E9401121F
:100973000122C194011201224895011201223096ED
:10098300011201221D970112012216980112012260
:10099300259A01120122C79F0112012217A00112F9
:1009A30001228EA2011201228AC9031201223FCB26
:1009B30003120122C84500120122774600120122C8
:1009C300C14600120122F747001201228D4900128D
:1009D3000122024A00120122434A00120122954ACF
:1009E30000120122064C001201224B4E001201227A
:1009F300454F00120122644F00120122834F00125F
:100A03000122864F00120122B75000120122AF517A
:100A1300001201229B52001201220B5300120122E9
:100A23007D5300120122045400120122DF540012EC
:100A33000122B455001201229356001201221E57BF
:100A4300001201228C5700120122005800120122C9
:100A53002B5800120122EA5800120122D75B001220
:100A63000122205C00120122635C00120122DC5C83
:100A730000120122745D00120122655E0012012240
:100A83008A5E00120122D05E00120122FA5E001279
:100A93000122425F00120122BD5F00120122176092
:100AA300001201228061001201222E620012012233
:100AB3006F6200120122FEB8021201224CB9021227
:100AC300012258B90212012236BA0212012267BA70
:100AD3000212012298BA0212012218BB0212012249
:100AE30050BB02120122A2BB02120122DFBB02127F
:100AF3000122FCBD0212012222C0021201220DC2F8
:100B030002120122F7C302120122FA7F001201220C
:100B13001D8C03120122689003120122AC9103126F
:100B23000122008002120122B88202120122BE8237
:100B33000212012278850212012245880212012243
:100B4300999C031201223D9D031201220F9E031261
:100B53000122399E0312012287A003120122E827F2
:100B630000120122322800120122733600120122E0
:100B7300F837001201221B39001201228C3F0012A8
:100B83000122874000120122C44000120122E740E3
:100B930000120122294100120122334100120122D5
:100BA300214200120122174300120122B043001216
:100BB300012258BD0312012252BE03120122C6BEF6
:100BC3000312012204BF0312012278BF0312012280
:100BD300F1BF03120122FABF0312012206C003125E
:100BE30001221BC00312012259C0031201226FC04C
:100BF300031201220080031201220D80031201223D
:100C0300278003120122668003120122A4800312AB
:100C130001220981031201221E810312012235815F
:100C23000312012243810312012252810312012282
:100C33006781031201227C8103120122878103123F
:100C43000122938103120122A08103120122AF81A9
:100C530003120122BA8103120122DF81031201224E
:100C63008682031201229B8203120122B0820312A5
:100C73000122CA8203120122E582031201220283A6
:100C8300031201220D8303120122C98303120122DD
:100C9300B58403120122DA8403120122E5840312CC
:100CA3000122FA84031201220E85031201226F85A9
:100CB300031201227585031201227B85031201228F
:100CC300818503120122998503120122CC85031227
:100CD30001220CD4021201222ED4021201220ED5BB
:100CE30002120122E5D70212012211D902120122B6
:100CF30035DA02120122E7DA0212012288DB02123C
:100D03000122D4AA0212012258AB0212012207AC1B
:100D13000212012266AD0212012287AF02120122E2
:100D230073B002120122A8B002120122CAB0021249
:100D3300012279B10212012271B3021201229AB384
:100D4300021201222CB4021201225EB40212012209
:100D53006BB402120122C2B402120122E8B40212DD
:100D6300012255B70212012258B802120122B0B86B
:100D730002120122CCEB01120122D6EC0112012254
:100D8300BDED01120122C7ED01120122E9ED0112AD
:100D93000122F5ED011201228EEF01120122BDEFB6
:100DA30001120122D9F00112012232F101120122B2
:100DB30098F20112012277F301120122D3F30112F7
:100DC300012240F4011201227BF401120122BAF440
:100DD3000112012273F7011201228DF70112012280
:100DE30019F80112012227F80112012280F80112D9
:100DF30001228EF80112012201F90112012265F983
:100E030001120122AFF90112012224D1031201229E
:100E130049D103120122BBD1031201228EF0021227
:100E2300012297F002120122A0F00212012277F1AF
:100E33000212012228F3021201225EF3021201229E
:100E430098F302120122CEF30212012208F40212D5
:100E530001223CF40212012268F402120122B1F4CD
:100E630002120122EBF40212012234F502120122D2
:100E73008CF502120122C1F5021201221CF60212A4
:100E8300012256F602120122A7F602120122DDF612
:100E93000212012217F7021201223AF7021201226B
:100EA300DADD0312012206DE0312012261DE0312E0
:100EB30001226BDE031201227BDE03120122EF917A
:100EC30003120122F9910312012237920312012224
:100ED300809203120122BA92031201221493031285
:100EE30001223593031201223E93031201228F93B1
:100EF30003120122B89303120122C29303120122A7
:100F03002E9403120122BC94031201220A950312A8
:100F13000122409503120122C7950312012207966D
:100F2300031201223F96031201225196031201225A
:100F3300709603120122799603120122339703124A
:100F4300012277D90312012295CB03120122CBCBC5
:100F53000312012201CC031201225ACD03120122F2
:100F630039E0031201224FE00312012259E0031278
:100F73000122C97B00120122E27B00120122867C3E
:100F830000120122C67C00120122DF7C0012012222
:100F9300137D00120122607D00120122947D001254
:100FA3000122D67D00120122DA7F00120122A3E082
:100FB30003120122C9D20312012207D30312012211
:100FC3002CD30312012243D3031201225FD3031252
:100FD300012276D3031201228DD303120122C6D339
:100FE30003120122FAD30312012231D40312012284
:100FF30094CD03120122B0CD031201222DCE031290
:10100300012249CE03120122ACCE031201224DCF9D
:101013000312012238FA0112012277FA0112012286
:1010230000FB0112012215FB0112012260FB0112D8
:1010330001229FFB01120122AEFB011201225EFC81
:1010430001120122B7FC0112012206FD0112012245
:1010530056FD011201224AFE011201223FFF011235
:1010630001227CFF0112012202E103120122A7A443
:10107300011201221DA70112012295A801120122CA
:1010830087A9011201220CAA0112012288AA0112C6
:101093000122ADAA0112012243AE01120122B7AE11
:1010A30001120122A3AF01120122DDAF01120122BD
:1010B3001DB001120122D7B10112012208B201129F
:1010C30001225BB201120122A4B20112012212B366
:1010D3000112012244B3011201225CB30112012265
:1010E30071B40112012281B401120122A0B50112CF
:1010F3000122C2B501120122F8B5011201229DB7E6
:10110300011201221DB8011201225CB80112012251
:1011130073B90112012285DE0312012295DE031247
:101123000122B4FF01120122F3FF01120122B2DFF7
:1011330003120122DDDF03120122E7DF0312012282
:101143001FE003120122E77F0012012260DB03127A
:10115300012270DB0312012291DB0312012245DC21
:101163000312012273D803120122F8D803120122B9
:101173005ED9031201224FDC0312012270DC031239
:10118300012283DC0312012295DC03120122C2DC5B
:1011930003120122E7DC03120122A1AA0312012296
:1011A300B5AA031201222EAB0312012207AC0312CC
:1011B3000122C5AE031201229FC003120122B8C04F
:1011C30003120122CCC003120122DDC0031201224B
:1011D300EEC0031201221AC103120122B9C1031284
:1011E3000122FEC1031201226FC203120122B0C207
:1011F30003120122D7C203120122FFC203120122EA
:101203001DC30312012229C30312012255C3031272
:10121300012220DD031201223ADD0312012254DDF3
:1012230003120122B3DD031201224EB6031201227F
:10123300DEB6031201225CB703120122E5B70312E3
:10124300012293B8031201221DB9031201222EB900
:10125300031201223DB90312012253B903120122E1
:1012630066B903120122C6B903120122DAB90312C5
:1012730001228BCC01120122D2CD01120122C0CE58
:10128300011201224AD001120122F1D001120122DE
:101293009ED10112012276D201120122F7D301124B
:1012A300012270D4011201229DD401120122B8D46B
:1012B3000112012241D5011201227DD50112012221
:1012C30098D5011201222BD80112012263D80112F1
:1012D300012266D801120122C3DB0112012222DF9F
:1012E300031201228CDF0312012297DF0312012272
:1012F300A7DF0312012265D403120122BAD4031219
:10130300012228D50312012298D503120122C0C35A
:1013130003120122EAC303120122BFC403120122F2
:10132300B3C50312012236C6031201225EE802127C
:1013330001221BE90212012256E9021201227EE96F
:1013430002120122E0E9021201222CEA0212012216
:1013530085EA0212012216EB0212012218EC021294
:101363000122D5ED0212012257EE02120122BCEE38
:1013730002120122D3EE02120122E3EF0212012232
:1013830021F002120122B2E103120122DEE103E79E
:101393006670100809E766700A0809E766700408B2
:1013A30009E76622E066701008A3E066700A08A3E6
:1013B300E066700408A3E06622C3E7960809E7968F
:1013C3000809E7960809E79622C3E09608A3E09682
:1013D30008A3E09608A3E09622C008C3E096F508A8
:1013E30008A3E096420808A3E096420808A3E09603
:1013F30045087001D3D00822080808E630E7111227
:101403001829121413080808C64480C6181818228D
:10141300181818E9799EC608CAC608CBC608CCC6F0
:10142300C370207996CACBCC7019798ECBCC70134C
:101433007986CC700EF9802ACA33CACB33CBCC332E
:10144300CC331930E7F2CCCBCA3350147004EA30F2
:10145300E00DE4CA3ACACB3BCBCC3CCC500209C327
:10146300E913C6CC182313C6CB18C6CA18C6F9226B
:101473001214B320F01430E72B74FFFCFBFA747FD3
:101483008022E4FCFBFA7480801AB48008BC00F26A
:10149300BB00EF800F50EBF9E4C39AFAE49BFBE443
:1014A3009CFCE499C6CC18C6CB18C6CA18C6F92248
:1014B300E4C9C608CAC608CBC6D3330308CCC633AF
:1014C30092F0C3947F402E94184019C9B90704CAF7
:1014D300CBCC225025C309CA33CACB33CBCC33CCB4
:1014E30033D9F422F4600DC9CCC313CB13CBCA1385
:1014F300CAD9F6CC22E4FCFBFA2214FCFBFA22E65E
:101503002618461846184622E72719471947194748
:1015130022E60846087009E626087005E633F42239
:101523000822E70947097009E727097005E733F43B
:10153300220922E6084608C3134608336002E6334D
:10154300F422E7094709C3134709336002E733F479
:1015530022121536700418181822121545700D74CE
:10156300FFF61819F61819F61819F622E7548066CB
:10157300F6121502700F12150B70F014F608F60828
:10158300F608F680D112150B700CF608F608768073
:1015930008E6447F80EC121525700C12151460BF09
:1015A300E65480F6E480BB121514700519191980EE
:1015B300A5E869700C763F18768018F618F6E8F9F6
:1015C30022E6CDC0E018ECC0E0E633CD33CDD31333
:1015D300F6E719FCE7191933CC33C3947F400ECDDA
:1015E3009D502408E65480F6E418F6800FF4043D79
:1015F30014501408E6447FF6187680E418F618F6BB
:10160300D0E0FCD0E0FD22CCD313CCFD18E4C6CB54
:10161300C0E018E4C6CAC0E00808ED08C633E61304
:10162300F618E433C675F003C3CA97CA09CB97CB40
:10163300199C40047D08802EBD00030216FD16B6DA
:10164300FF050606081618C3CA33CACB33CB33CA01
:1016530027CA09CB37CB193CC37D08803E187D08C8
:1016630020E75CC633C6CA33CACB33CB33DDF1D5EF
:10167300F0EB30E77BCA97CA09CB974ACB199C405A
:101683006F4B7025E620E0218066187D08C3CA975A
:10169300CA09CB97CB199CD3C633C6CA33CACB333B
:1016A300CB3350C9DDE7D5F0E1D3E4C636C608C66F
:1016B30036C608C636C608C636C61818188031C3DB
:1016C300CA97CA09CB97CB199CB34097C633C6CAEE
:1016D30033CACB33CB33DD34D5F02EC6A2E0C640BC
:1016E300C8CA27CA09CB37194A70BECB3CB480B9E4
:1016F3000808E63308E633601F181818D0E0FAD05C
:10170300E0FBD0E0FCD0E0FD22187D08CA27CA091F
:10171300CB37CB193CD3808013F618E4B67F11F690
:1017230018B6FF0EF618C60470D20808768080CA71
:10173300F618F618F680C5080808EAC0E0EBC0E022
:1017430086F0E7A4FA180986F0E7A42AFA180986AE
:10175300F0E7A42AFA180986F0E7A42AFA1986F012
:10176300E7A4FBE5F02AFA190886F0E7A42BFBE5CA
:10177300F03AFA190886F0E7A42BFBE5F03AFA18D9
:10178300180986F0E7A4C5F02BFBE43AFA1908E739
:10179300C5F0C6A426F6E5F03BFBE43AFA1886F05A
:1017A300E7A4F6E5F00826F6E43B08F6E43A08F683
:1017B300D0E0FBD0E0FA22E4CFC0E0E4CEC0E0E426
:1017C300CDC0E0E4CCC0E075F020E626F608E633B1
:1017D300F608E633F608E633F6181818EC33FCED92
:1017E30033FDEE33FEEF33FFC3EC9709ED9709EEBC
:1017F3009709EF97191919400FFFEC97FC09ED971B
:10180300FD09EE97FE191906D5F0BFECF709EDF7C0
:1018130009EEF709EFF7191919D0E0FCD0E0FDD074
:10182300E0FED0E0FF22181818E4C396F608E49609
:10183300F608E496F608E496F6226016080808C649
:10184300C313C618C613C618C613C618C613C6D5FF
:10185300E0EA227009080808226016181818C6C39F
:1018630033C608C633C608C633C608C633C6D5E072
:10187300EA22E627F60809E637F60809E637F60806
:1018830009E637F622E026F608A3E036F608A3E0D9
:1018930036F608A3E036F622E026F008A3E036F099
:1018A30008A3E036F008A3E036F022C3E697F60873
:1018B30009E697F60809E697F60809E697F622C3BC
:1018C300E096F008A3E096F008A3E096F008A3E002
:1018D30096F022E657F60809E657F60809E657F6A2
:1018E3000809E657F622E056F008A3E056F008A3ED
:1018F300E056F008A3E056F022E667F60809E6672B
:10190300F60809E667F60809E667F622E0F608A393
:10191300E0F608A3E0F608A3E0F622E6F008A3E663
:10192300F008A3E6F008A3E6F022E0FAA3E0FBA3A5
:10193300E0FCA3E0FD22EAF0A3EBF0A3ECF0A3EDBF
:10194300F022E0F8A3E0F9A3E0FAA3E0FB22E8F039
:10195300A3E9F0A3EAF0A3EBF022CAC0E0E6F0A308
:1019630008DAFAD0E0FA22CAC0E0E0A3C582CCC507
:1019730082C583CDC583F0A3C582CCC582C583CD83
:10198300C583DAE6D0E0CA22C3E498F8E499F912F1
:1019930019CC8026C3E49AFAE49BFBE920E7E91219
:1019A30019CCE498F8E499F922C3E498F8E499F996
:1019B3001219CCE498F8E499F9C3E49AFAE49BFB8E
:1019C30022EB20E7CFE920E7E0B90010BB0008E8ED
:1019D3008AF084F8AAF022E4FBC8FA22EB70227B97
:1019E30010C833C8C933C9335007C39AC3DBF28065
:1019F300069A50012ADBEAC833F4C8C933F4C9FA9A
:101A03002275F008E4C833C8C933C933C99AC99BDE
:101A13005004C92AC93BD5F0ECFBC833F4C8E4C968
:101A2300FA22600D08C6A2E713C618C613C6D5E08E
:101A3300F322600C08C6C313C618C613C6D5E0F458
:101A430022700422600D18C6C333C608C633C6D538
:101A5300E0F41822251810AF08F518400C1519806A
:101A630008F51840021519D2AF2200C0D02518106E
:101A7300AF08F518500C05198008F5185002051920
:101A8300D2AFD0D0222518F58210AF08F518400C3C
:101A930015198008F51840021519D2AF851983224C
:101AA3002518F582E43519F583222518F8E435194C
:101AB300F9222518FAE43519FB222518FCE4351917
:101AC300FD22E4732518C582C0E0E51934FFC58300
:101AD300C0E0E518C3958224F810AF088583198503
:101AE30082188008858319858218D2AFCEF0A3E5CA
:101AF30020F0A37808E608F0A3DEFAEFF0A3E5816F
:101B030024FAF8E608F0A3E608F0A3E608F0A30831
:101B130008E608F0A3E608F0A315811581D0E0FEDE
:101B2300D0E0F8158115811581E8C0E0EEC0E02210
:101B33002518C582C0E0E51934FFC583C0E0E51868
:101B4300C3958224F910AF0885831985821880080C
:101B5300858319858218D2AFCEF0A3E520F0A37850
:101B630008E608F0A3DEFAEFF0A3E58124FBF8E62C
:101B730008F0A3E608F0A30808E608F0A3E608F0D7
:101B8300A315811581D0E0FED0E0F815811581E819
:101B9300C0E0EEC0E022851983851882E0A3FEE051
:101BA300A3F5207808E0A3F608DFFAE0A3FFE0A39B
:101BB300C0E0E0A3C0E0E0A3C0E0E0A3C0E0E0A396
:101BC300C0E010AF088582188583198008858218C4
:101BD300858319D2AFD083D08202011F85198385F3
:101BE3001882E0A3FEE0A3F5207808E0A3F608DF5F
:101BF300FAE0A3FFE0A3C0E0E0A3C0E0E0A3C0E0FD
:101C0300E0A3C0E010AF088582188583198008859A
:101C13008218858319D2AFD083D08222C0D02518F1
:101C2300C582C0E0E51934FFC583C0E0E518C3955C
:101C33008224F310AF088583198582188008858371
:101C430019858218D2AFC8F0A3E9F0A3EAF0A3EB99
:101C5300F0A37908E709F0A3D8FAECF0A3EDF0A319
:101C6300EEF0A3EFF0A3D0E0F0A3D0E0F0A3D0E038
:101C7300F0A3E520F0A3E5F0F0A3228519838518EE
:101C830082E0C0E0A3E0F9A3E0FAA3E0FBA37808B5
:101C9300E0F608A3DFFAE0FCA3E0FDA3E0FEA3E087
:101CA300FFA3E0C0E0A3E0C0E0A3E0F5D0A3E0F52C
:101CB30020A3E0A3F5F010AF08858319858218806F
:101CC30008858319858218D2AFD082D083D0E0F8FB
:101CD300D0E03274048006740280027401C0E0F420
:101CE30004121A88D0E012195D227404800474026D
:101CF3008000CCC0E0EDC0E0E518C39CCCAD19502A
:101D0300011D10AF068C188D1980068C188D19D201
:101D1300AF12196AD0E0FDD0E0FC22D083D082E973
:101D2300C0E0E493A3C386F0C5F095F0F908E4930B
:101D3300A386F0C5F095F0700BE493A3C399400517
:101D4300E9048002A3E475F002A42582F582E5F09C
:101D53003583F583D0E0F9E493A3C0E0E493C0E0D6
:101D630022D083D082ECC0E0EDC0E0E493A3FCE496
:101D730093A3FDED4C600D121DB0EC24FFFCED347C
:101D8300FFFD80EFE493A3FCE493A3FDED4C600D12
:101D9300121DEFEC24FFFCED34FFFD80EFD0E0FDDE
:101DA300D0E0FCE493A3C0E0E493C0E022C0E0C32E
:101DB300E49396087401939618400FE493667008B1
:101DC30008740193661870007019A3A3C3E4939673
:101DD300087401939618A3A3400DD0E0D0E0D0E09F
:101DE300021DA0A3A3A3A3A3A3D0E022C0E0C0F03D
:101DF30088F0E4936670080874019366187000A86D
:101E0300F0A3A3700BD0F0D0E0D0E0D0E0021DA08F
:071E1300A3A3D0F0D0E022F0
:101E1C0074F5121B33EAFEEBFFEE2434F8EF3400BA
:101E2C00F988088909EE2435F582EF3400F583E052
:101E3C00F8EE2437F582EF3400F583E0F50AEC85F3
:101E4C000AF0A4FCAAF0850AF0EDA42AFDE82CF80F
:101E5C00E43DF97A257B001219CCEA8508828509C4
:101E6C0083F0F8740758F97401B900028004C33385
:101E7C00D9FCFAE8131313541FF8EE28F8EF3400CA
:101E8C00F9E8245DF582E93400F583E05A6008EE48
:101E9C002434F582EF802CEE2434F582EF3400F5F7
:101EAC0083E0C0E0EE2436F582EF3400F583E0F5F4
:101EBC00F0D0E084A8F0EE28F8EF3400F9E82438EC
:101ECC00F582E93400F583E0F97F04021BDF74F539
:101EDC00121B33EAFEEBFFEE2434F582EF3400F5EF
:101EEC0083E0C0E0EE2435F582EF3400F583D0E0DA
:101EFC00F08E828F83A3A3A3A3A3A3A3C082C083CA
:101F0C008E828F83A3A3A3A3A3E0F8A3E0F9D083CD
:101F1C00D082E0C398F508A3E099F509EE247FF58B
:101F2C0082EF3400F583E064017069EE2480F58261
:101F3C00EF3400F583E0F8A3E0F98E828F83A3A33E
:101F4C00A3A3A3A3A3E0FCA3E0FD8E828F83A3A392
:101F5C00A3A3A3E0FAA3E0FBC3EA9CEB9D5010C340
:101F6C00EC98ED99402EC3EA98EB995027800EC35C
:101F7C00EA98EB994007C3EC98ED9940177CBF7D2C
:101F8C0007EEFAEFFB120A50EE247FF582EF3400D5
:101F9C00F583E4F0EE2434F8EF3400F9E8FCE9FDC5
:101FAC00EE2435F582EF3400F583E0F8EE2437F5B6
:101FBC0082EF3400F583E0F50AE508850AF0A4F514
:101FCC0008AAF0850AF0E509A42AF509E82508F81D
:101FDC00E43509F97A257B001219CCEA8C828D83C1
:101FEC00F0F8740758F97401B900028004C333D9AE
:101FFC00FCFAE8131313541FF8EE28F8EF3400F929
:10200C00E8245DF582E93400F583E05A6008EE249B
:10201C0034F582EF802CEE2434F582EF3400F58316
:10202C00E0C0E0EE2436F582EF3400F583E0F5F005
:10203C00D0E084A8F0EE28F8EF3400F9E82438F565
:10204C0082E93400F583E0F91226F9021ED574EF0B
:10205C00121B33900479E064086005E06407702A71
:10206C009061C8E060249004A7E0F4601DE0F8756E
:10207C00F005A4C8AAF02AF974A928FE740439FF43
:10208C008E828F83A3A3A3E0700302218A906060E9
:10209C00E0C0E0EE2468F582EF3400F583D0E0F088
:1020AC00750CFB750D07750800750900E5D914F55D
:1020BC000AE5D95403F50E60177403650E605CE5F0
:1020CC000A6010EE2467F582EF3400F583E07003AC
:1020DC0002216F9007F6E06401602AEE2482F582FB
:1020EC00EF3400F583E06004780480027800850A00
:1020FC0008E508C398FA95E0FB1209368A088B09A3
:10210C00EA45097005120CB48074EE2482F582EF56
:10211C003400F583E070048A0C8B0DE50A6012859F
:10212C000C82850D83F50BE5D9F0A3150BE50B702F
:10213C00F6EE2482F582EF3400F583E0604474FC03
:10214C00250AF50A780C121CDAAC0AA90EEEFAEF85
:10215C00FB120B047402121A6DE97026AA08AB0963
:10216C001212FC793D8E828F83A3A3A3A3E0FA7B8A
:10217C000012081CEEFAEFFB120A74120B647900C1
:10218C0080747403650E6056850A10751100781002
:10219C00121CDAAC0CAD0DAA08AB09120AE07402E1
:1021AC00121A6DEE2468F582EF3400F583E064803A
:1021BC007004747F8001E0F50C780C121CDEE50EC7
:1021CC00F50C780C121CDEA90AAC08AD099004A71A
:1021DC00E0FA7B001207DA7402121A6D8013900475
:1021EC0079E06408700BAC0CAD0DEEFAEFFB120B42
:1021FC0034120CC079017F0A021BDF74F5121B33F9
:10220C0074FC121A57EAFEEBFF8908A2AFE433F50F
:10221C0009C2AF806AEE2463F8EF3400F97A007BD0
:10222C0000A2AFE433F50AC2AF88828983E0FCA335
:10223C00E0FDEC4D603A88828983E0FAA3E0FB8AEA
:10224C00828B83E0FCA3E0FD88828983ECF0A3ED14
:10225C00F08A828B83E4F0A3F088828983E0FCA36C
:10226C00E0FDEC4D700A88828983A3A3E4F0A3F00F
:10227C00E50AA2E092AF1212FC9007C6E004F0EE61
:10228C002463F582EF3400F583E0F8A3E0F9E84924
:10229C00603DEE2463F582EF3400F583E02402FA0E
:1022AC00A3E03400FBEA2402F50AEB3400F50B78CA
:1022BC000A121CDA8A828B83E0FCA3E0F9EEFAEFB7
:1022CC00FB120AA47402121A6DE970030222219007
:1022DC0007C6E060639007C7E0F89007C6E0C398B4
:1022EC00500C7402650870509007C8E0604A8E82EA
:1022FC008F83A3A3A3A3E0851882851983F0A3E49D
:10230C00F09007C6E0F87402121AA3E8F0A3E4F008
:10231C009007C6E0F89007C5E028F07402121AA3E3
:10232C00AC82AD83851882851983AA82AB8379012F
:10233C001207E69007C6E4F0E509A2E092AF740438
:10234C00121A6D021ED50000851A87851BC622C085
:10235C00E0C0D0E8C0E0E9C0E0EAC0E0EBC0E0ECEF
:10236C00C0E0EDC0E0EEC0E0C008C009C00AC00B80
:10237C00C082C083C0F0A2AFE433FEC2AF759B0035
:10238C00906182E0A2E05012E591A2E0500C7591B0
:10239C00FE7401651A700312205AE0A2E55051E553
:1023AC0091A2E5504B7591DF900479E064076005CC
:1023BC00E0640870237401651A703579019004A7E4
:1023CC00E0FA75F005A4CAA8F028FB74A92AFA74DF
:1023DC00043BFB1222078018E0640D701390049BE1
:1023EC00E004F064287002E4F07A00E0F9120CC604
:1023FC00906182E0A2E640030224A2E591A2E640AD
:10240C00030224A27591BF900479E0640570081250
:10241C000BD0120BDC8003120BD6751A00120C3683
:10242C00E990047AF07900120C181209C07A017B39
:10243C0000900478E0F9120F18907803E064427071
:10244C00559007FAE014F0704DC2AF12245A007880
:10245C001DD0E0F618D0E0F6E59F5407700575091D
:10246C00FF800375097FC4C0E0781CE6F50808E618
:10247C005509F509740B7808121A35D0E02508F8BF
:10248C00906270E0A2E740F8E8C333906272F0907B
:10249C006270E0D2E0F0906181E0A2E35009E5E9DE
:1024AC00A2E3500375E9F7A3E0A2E75009E591A276
:1024BC00E7500375917FEEA2E092AFD0F0D083D0BD
:1024CC0082D00BD00AD009D008D0E0FED0E0FDD0ED
:1024DC00E0FCD0E0FBD0E0FAD0E0F9D0E0F8D0D0CE
:1024EC00D0E032C0E0C0D0C082C083906183E0A253
:1024FC00E05009E5BFA2E0500375BFFEE0A2E15039
:10250C0009E5BFA2E1500375BFFDE0A2E25009E569
:10251C00BFA2E2500375BFFBE0A2E35009E5BFA2E6
:10252C00E3500375BFF7E0A2E45009E5BFA2E45005
:10253C000375BFEFE0A2E55009E5BFA2E5500375B6
:10254C00BFDFE0A2E65009E5BFA2E6500375BFBFAE
:10255C00D083D0828088C0E0C0D0E8C0E0E9C0E081
:10256C00EAC0E0EBC0E0ECC0E0EDC0E0C0F0E5A7F5
:10257C00A2E6500FE5A1A2E6500953A7BF75A1BF73
:10258C001225C7E5A7A2E5500CE5A1A2E55006531C
:10259C00A7DF75A1DFE5A7A2E15009E5A1A2E150F3
:1025AC000375A1FDE5A7A2E2500CE5A1A2E250063D
:1025BC0053A7FB75A1FBD0F00224D874F8121B337F
:1025CC00751A01900479E064067015120B888A82E2
:1025DC008B83A3A3A3A3A3A3E0FAA3E0FB120BBEDC
:1025EC00A2AFE433FED2AF90047FE0640170187A9E
:1025FC00207B00900478E0F9120F967A207B0090F3
:10260C000478E0F9120F1E906182E0D2E6F0900798
:10261C00F7E0602185C61B801690047EE064017093
:10262C0008E5C654F84405F5C653BEFC1223547491
:10263C0001651A60E4EEA2E092AF7F01021BDF7429
:10264C00ED121B338A088B098C0A8D0B7413121A2A
:10265C00A3780C12190F7808790C1213BC751001A1
:10266C007511C875120075130050127808790C1288
:10267C0018AE781079081213BC50168010780C79AB
:10268C00081218AE7810790C1213BC400479018032
:10269C000279007F0C021BDF74ED121B338A088B4E
:1026AC00098C0A8D0B7413121AA3780C12190F785B
:1026BC000C79081213BC40117808790C1218AEAAC8
:1026CC0008AB09AC0AAD0B802275100075110075B2
:1026DC0012007513017810790C1218AE7810790865
:1026EC00121875AA10AB11AC12AD1380A6C082C023
:1026FC0083E9906000F0D083D08222C2AF02000048
:10270C0022C0E074F2121C1FA2AFE433FED2AFC29F
:10271C00C0E5D1A2E4500653D1EF12126CEEA2E048
:10272C0092AF7F01021C7EC0E074F2121C1FE5A860
:10273C00FED2AF121194C2EBEEA2E7A2E792AF7FEA
:10274C0001021C7EC0E0C0D0E8C0E0E9C0E0E5A812
:10275C00D2AFC2C7A2E7A2E792AFD0E0F9D0E0F8BF
:10276C00D0D0D0E032C0E074F2121C1FA2AFE43320
:10277C00FCD2AF9010A6E0F8A3E0F9A3E0687003D8
:10278C00A3E069700A539AFB9010AA74018039C2B5
:10279C00E99010A6E0F8A3E0F9E82401FAE439FB8B
:1027AC009010A6EAF0A3EBF0741628F582740F399A
:1027BC00F583E0F5C19010A6C3E09490A3E09401DA
:1027CC0040079010A6E4F0A3F0ECA2E092AF7F01DA
:0327DC00021C7E5E
:1027E000FFFFFFFFFFFFFFFFC082C083784C790827
:1027F00088828983A3A3A3A3A3A3E4F08882898307
:10280000A3A3A3A3A374FFF0E82418F8E93400F904
:10281000E864AC7003E9640870D690084E74FFF069
:1028200090084DE4F090084CF090084FF0A3F002AF
:1028300040E074EC121AC790084FE0F508A3E0F5E9
:1028400009E508450970061209C002366E8508823E
:10285000850983E014601814601524FE601124C4F7
:10286000700302307424C0700302307402366EE0CC
:10287000F9120B768A0A8B0BAE0AAF0B9004A6E016
:102880007003022C72120A68E9F875F005A4C8AA50
:10289000F02AF974A928F50C740439F50D850C8219
:1028A000F583E0F50AA3E0F50BAC0AFDEEFAEFFBC9
:1028B000120B70E9F50E7402650E7003022C1A8E6D
:1028C000828F83E024FE600A24FE7003022B040240
:1028D000366EEE65087003EF650960211209DE901F
:1028E00007DAE0640170169007D9E07010790112E0
:1028F0000C84120C54120C7E7900120C8AE50E60C6
:1029000021E5082415F582E5093400F583E060121D
:102910009007D5E0F8A3E0F9A3E0687003A3E069AD
:102920007042120BE88A0C8B0D8C0E8D0F75100304
:10293000751100751200751300780C791012187556
:102940007510FF7511FF7512FF780C79101218D6EB
:102950008E828F83A3A3E50CF0A3E50DF0A3E50E13
:10296000F0A3E4F0E5082415F582E5093400F583C9
:10297000E064016003022A1C850A82850B83A3A3FD
:10298000750CF1750DFF750EFF750FFF780C1218A1
:1029900088780C121CD68E828F83A3A3C082C0833A
:1029A0009007D7E0F508A3E085080CF50DE4F50ED7
:1029B000F50FD083D082780C121888AA0CAB0DAC1E
:1029C0000EAD0F12264B7404121A6DE9701F8E8221
:1029D0008F83A3A3C082C0839007D7E0F508A3E04C
:1029E000F509E4F50AF50BD083D0828014850A82BC
:1029F000850B83A3A37508F17509FF750AFF750B95
:102A0000FF7808121888750CFF750DFF750EFF759D
:102A10000F007808790C1218D6022F6CEE240EF5F0
:102A200082EF3400F583121CED8E828F83A3A312F4
:102A3000192D12264B7404121A6DE9640160030209
:102A4000358F850A82850B83A3A3750CF1750DFF65
:102A5000750EFF750FFF780C121888780C121CD6B3
:102A60008E828F83A3A3C082C0839007D7E0F5082E
:102A7000A3E085080CF50DE4F50EF50FD083D082A8
:102A8000780C121888AA0CAB0DAC0EAD0F12264BA9
:102A90007404121A6DE9701F8E828F83A3A3C08203
:102AA000C0839007D7E0F508A3E0F509E4F50AF53F
:102AB0000BD083D0828014850A82850B83A3A375F3
:102AC00008F17509FF750AFF750BFF780812188861
:102AD000750CFF750DFF750EFF750F007808790CEA
:102AE0001218D6EE240EF582EF3400F58378081222
:102AF000191E9007DDE06427700474258002E0044D
:102B0000F002358FEE65087003EF650960319007BC
:102B1000F1E0F91209E4850882850983E064027016
:102B20001E9007DAE0640170169007D9E070107902
:102B300000120C84120C54120C7E7901120C8AE5DE
:102B40000E60129007EBE0F8A3E0F9A3E0687003D1
:102B5000A3E0697039120BE88A0C8B0D8C0E8D0F77
:102B6000751003751100751200751300780C79103B
:102B70001218757510FF7511FF7512FF780C79101A
:102B80001218D68E828F83A3A3780C12191E850A81
:102B900082850B83A3A3750CF1750DFF750EFF7570
:102BA0000FFF780C121888780C121CD68E828F8337
:102BB000A3A3C082C0839007EDE0F508A3E08508D9
:102BC0000CF50DE4F50EF50FD083D082780C1218B9
:102BD00088AA0CAB0DAC0EAD0F12264B7404121A62
:102BE0006DE9701F8E828F83A3A3C082C08390077C
:102BF000EDE0F508A3E0F509E4F50AF50BD083D084
:102C0000828014850A82850B83A3A37508F1750958
:102C1000FF750AFF750BFF023378850882850983EB
:102C2000E0640270139007DAE06401700B9007D93A
:102C3000E070057900120C84E50C2404FEE50D34E7
:102C400000FF8E828F83E0F9120BAC8E828F83E0BF
:102C50009004A7F07902FA75F005A4CAA8F028FB41
:102C600074A92AFA74043BFB122207AA0AAB0B02CE
:102C7000366BEE65087003EF65098E828F83600303
:102C8000022E8EE024FE600A24FE7003022DCB0289
:102C90003667EE2415F582EF3400F583E0604C9042
:102CA00007D5E0F8A3E0F9A3E0687003A3E069604A
:102CB0003A120BE88A088B098C0A8D0B750C0A7581
:102CC0000D00750E00750F007808790C12187578D4
:102CD00008121CD68E828F83A3A312192D12264BA5
:102CE0007404121A6DE96003023667120BE88A0851
:102CF0008B098C0A8D0B750C03750D00750E007514
:102D00000F007808790C121875750CFF750DFF759A
:102D10000EFF7808790C1218D68E828F83A3A378C1
:102D20000812191EEE2415F582EF3400F583E064D5
:102D30000170328E828F83A3A3C082C0839007D795
:102D4000E0F508A3E0F509E4F50AD083D08278081D
:102D5000121888EE240EF582EF3400F583780812FD
:102D6000191E023667EE240EF582EF3400F5831249
:102D70001CED8E828F83A3A312192D12264B74048F
:102D8000121A6DE9640160030236678E828F83A395
:102D9000A3C082C0839007D7E0F508A3E0F509E45B
:102DA000F50AD083D0827808121888EE240EF582B6
:102DB000EF3400F583780812191E9007DDE06427D0
:102DC000700474258002E0040236669007EBE0F898
:102DD000A3E0F9A3E0687003A3E0696037120BE891
:102DE0008A088B098C0A8D0B750C0A750D00750EFF
:102DF00000750F007808790C1218757808121CD627
:102E00008E828F83A3A312192D12264B7404121ADB
:102E10006DE97077EE2402F508EF3400F509120B26
:102E2000E88A0C8B0D8C0E8D0F75100375110075D3
:102E30001200751300780C79101218757510FF7553
:102E400011FF7512FF780C79101218D6850882854B
:102E50000983780C12191E850882850983C082C0F7
:102E6000839007EDE0F508A3E0F509E4F50AF50B1A
:102E7000D083D0827808121888EE240EF582EF34C1
:102E800000F583780812191E1209EA023667E02459
:102E9000FE600A24FE7003022F7E02366E1209DEE7
:102EA0009007DAE0640170169007D9E0701079019C
:102EB000120C84120C54120C7E7900120C8A9007AA
:102EC000D5E0F8A3E0F9A3E0687003A3E0696037F8
:102ED000120BE88A088B098C0A8D0B750C0A750D8C
:102EE00000750E00750F007808790C1218757808B7
:102EF000121CD68E828F83A3A312192D12264B7417
:102F000004121A6DE97074EE2402F508EF3400F52E
:102F100009120BE88A0C8B0D8C0E8D0F7510037542
:102F20001100751200751300780C79101218757560
:102F300010FF7511FF7512FF780C79101218D685E5
:102F40000882850983780C12191E850882850983F9
:102F5000C082C0839007D7E0F508A3E0F509E4F547
:102F60000AF50BD083D0827808121888EE240EF56B
:102F700082EF3400F583780812191E02358F90070E
:102F8000F1E0F91209E4850882850983E0640270A2
:102F90001E9007DAE0640170169007D9E07010798E
:102FA00000120C84120C54120C7E7901120C8A90BF
:102FB00007EBE0F8A3E0F9A3E0687003A3E0696021
:102FC00037120BE88A088B098C0A8D0B750C0A7571
:102FD0000D00750E00750F007808790C12187578C1
:102FE00008121CD68E828F83A3A312192D12264B92
:102FF0007404121A6DE97079EE2402F8EF3400F9C6
:1030000088088909120BE88A0C8B0D8C0E8D0F75C0
:103010001003751100751200751300780C791012E9
:1030200018757510FF7511FF7512FF780C79101265
:1030300018D6850882850983780C12191E850882A6
:10304000850983C082C0839007EDE0F508A3E0F511
:1030500009E4F50AF50BD083D0827808121888EEBF
:10306000240EF582EF3400F583780812191E120938
:10307000EA0236619004A6E07003023485120A6801
:10308000E9F875F005A4C8AAF02AF974A928F51082
:10309000740439F511851082F583E0F508A3E0F595
:1030A000099004A7E0F875F005A4C8AAF02AF974FD
:1030B000A928F50C740439F50D90084DE0540770FB
:1030C00003023393A3E0F9120B768A0A8B0BAE0A44
:1030D000AF0BAC08AD09120B70E9F50E7402650E6A
:1030E0007003023393850C82850D83A3A3A3A3E011
:1030F000F875F08AA4C8AAF02AF974B128F50A7400
:103100000839F50BAA0AFB120BA0AA0AAB0B120B8B
:103110009A7512807513007812121CDA7C007D609B
:10312000E50A2406FAE50B3401FB120AE0740212E8
:103130001A6DA80AA90B906195E0C0E0E82486F515
:1031400082E93401F583D0E0F0906196E0C0E0E8D8
:103150002487F582E93401F583D0E0F0906197E0AF
:10316000C0E0E82488F582E93401F583D0E0F090EE
:103170006198E0C0E0E82489F582E93401F583D064
:10318000E0F08E828F83E024FE600A24FE7003024A
:10319000329E0233931209DE9007DAE06401701167
:1031A0009007D9E0700B120C54120C7E7900120CAF
:1031B0008AE50E60129007D5E0F8A3E0F9A3E06875
:1031C0007003A3E0697036120BE88A0C8B0D8C0E2D
:1031D0008D0F751003751100751200780C7910129F
:1031E00018757510FF7511FF7512FF780C791012A4
:1031F00018D68E828F83A3A3780C12191E8508829D
:10320000850983A3A3750CF1750DFF750EFF750F6E
:10321000FF780C121888780C121CD68E828F83A32C
:10322000A3C082C0839007D7E0F50CA3E0F50DE4BE
:10323000F50EF50FD083D082780C121888AA0CAB4B
:103240000DAC0EAD0F12264B7404121A6DE9701FEF
:103250008E828F83A3A3C082C0839007D7E0F50836
:10326000A3E0F509E4F50AF50BD083D0828014853C
:103270000882850983A3A37508F17509FF750AFF04
:10328000750BFF7808121888750CFF750DFF750E09
:10329000FF750F007808790C1218D6023580900758
:1032A000F1E0F91209E4E50E60129007EBE0F8A3F3
:1032B000E0F9A3E0687003A3E0697036120BE88AB6
:1032C0000C8B0D8C0E8D0F7510037511007512008F
:1032D000780C79101218757510FF7511FF7512FFB3
:1032E000780C79101218D68E828F83A3A3780C12D3
:1032F000191E850882850983A3A3750CF1750DFF3E
:10330000750EFF750FFF780C121888780C121CD6FA
:103310008E828F83A3A3C082C0839007EDE0F50C5B
:10332000A3E0F50DE4F50EF50FD083D082780C12F2
:103330001888AA0CAB0DAC0EAD0F12264B740412FC
:103340001A6DE9701F8E828F83A3A3C082C0839001
:1033500007EDE0F508A3E0F509E4F50AF50BD083E5
:10336000D0828014850882850983A3A37508F1752E
:1033700009FF750AFF750BFF7808121888750CFF96
:10338000750DFF750EFF750F007808790C1218D6B1
:1033900002364FE510650C7004E511650D700302EF
:1033A0003463850C82850D83A3A3A3E070030234EC
:1033B00047850C82850D83A3A3A3A3E0F875F08A4B
:1033C000A4C8AAF02AF974B128FE740839FFEEFAED
:1033D000EFFB120BA0EEFAEFFB120B9A750A807549
:1033E0000B00780A121CDA7C007D60EE2406FAEFEE
:1033F0003401FB120AE07402121A6D906195E0C06C
:10340000E0EE2486F582EF3401F583D0E0F09061A0
:1034100096E0C0E0EE2487F582EF3401F583D0E03A
:10342000F0906197E0C0E0EE2488F582EF3401F57A
:1034300083D0E0F0906198E0C0E0EE2489F582EF5F
:103440003401F583D0E0F0E5102404FEE5113400EA
:10345000FF8E828F83E0F9120BAC8E828F83E09017
:1034600004A7F079029004A7E0FA75F005A4CAA8B1
:10347000F028FB74A92AFA74043BFB122207AA085D
:10348000AB0902366B90084DE05407700302366EAC
:10349000A3E0F9120B768A088B09AE08AF098E8279
:1034A0008F83E024FE600A24FE7003023597023603
:1034B0006E1209DE9007DAE0640170169007D9E019
:1034C00070107901120C84120C54120C7E790012C7
:1034D0000C8A9007D5E0F8A3E0F9A3E0687003A395
:1034E000E0696037120BE88A088B098C0A8D0B752E
:1034F0000C0A750D00750E00750F007808790C1216
:1035000018757808121CD68E828F83A3A312192DEA
:1035100012264B7404121A6DE97074EE2402F50839
:10352000EF3400F509120BE88A0C8B0D8C0E8D0F11
:10353000751003751100751200751300780C791061
:103540001218757510FF7511FF7512FF780C791040
:103550001218D6850882850983780C12191E8508F1
:1035600082850983C082C0839007D7E0F508A3E075
:10357000F509E4F50AF50BD083D082780812188893
:10358000EE240EF582EF3400F583780812191E90B0
:10359000084E74020236669007F1E0F91209E490D1
:1035A00007EBE0F8A3E0F9A3E0687003A3E069602B
:1035B00037120BE88A088B098C0A8D0B750C0A757B
:1035C0000D00750E00750F007808790C12187578CB
:1035D00008121CD68E828F83A3A312192D12264B9C
:1035E0007404121A6DE97076EE2402F8EF3400F9D3
:1035F00088088909120BE88A0C8B0D8C0E8D0F75CB
:103600001003751100751200751300780C791012F3
:1036100018757510FF7511FF7512FF780C7910126F
:1036200018D6850882850983780C12191E850882B0
:10363000850983C082C0839007EDE0F508A3E0F51B
:1036400009E4F50AF50BD083D0827808121888EEC9
:10365000240EF582EF3400F583780812191E120942
:10366000EA90084E7404F0EEFAEFFB120B6A7F0C3E
:10367000021B9974F0121AC7EAFEEBFFEE2402F85F
:10368000EF3400F988088909EE2406F8EF3400F9D0
:10369000880A890B8882F583121CF18508828509C6
:1036A0008312192D120BC47402121A6D850A8285B9
:1036B0000B83121CF185088285098312192D120BC8
:1036C000B87402121A6DEE240EF582EF3400F58301
:1036D00012192D120BCA8E828F83E06440701CEE8B
:1036E0002412F8EF3400F988828983E0906064F056
:1036F00088828983A3E09060658006906064E4F02E
:10370000A3F090084FEEF0A3EFF0EE2416F582EF51
:103710003400F583E0F8A3E0F5838882121AC5909F
:103720006054E4F0A3F0A3F0A3F0A3F0A3F0A3F09F
:10373000A3F0A3F0A3F0A3F0A3F0906182E0C2E6AF
:10374000F07591BFEE2415F582EF3400F583E06447
:10375000017003120BFAE5E170FCEE2414F582EF20
:103760003400F583E0F46003E0F5E1EE2415F58222
:10377000EF3400F5837401F090047FE0640170730E
:10378000120BE88A088B098C0A8D0B7808121CD65C
:103790008E828F83A3A312192D1226A47404121AE9
:1037A0006D8A088B098C0A8D0B750C05750D0075DB
:1037B0000E00750F007808790C12173A7403780818
:1037C00012183DE50824F4F508E5093401F50990DF
:1037D00007F7E06003120F42E4F50AF50B780812D0
:1037E0001CD67A207B00900478E0F9120F8A7404CA
:1037F000121A6D7F08021B9974EA121AC7EAFEEBCF
:10380000FF8C148D15EE4F7003023914120BE88AE9
:10381000088B098C0A8D0B750C01750D00750E0057
:10382000750F007808790C121875750CFF750DFF6F
:10383000750EFF7808790C1218D68E828F83E0649B
:103840000270149007D5E0F8A3E0F9A3E0687003D4
:10385000A3E06970248017E06404701D9007EBE01A
:10386000F8A3E0F9A3E0687003A3E069700B8E820F
:103870008F83A3A3780812191E75101A751100758D
:1038800012007513007808121CD6851482851583E2
:10389000A3A312192D1226A47404121A6D8A0C8B7C
:1038A0000D8C0E8D0F7810790C1213BC40668514A8
:1038B00082851583A3A3750CE7750DFF750EFF7543
:1038C0000FFF780C121888780C121CD68E828F830A
:1038D000A3A312192D12264B7404121A6DE9703429
:1038E000750C07750D00750E00750F007808790CC2
:1038F0001218757808121CD68E828F83A3A3121912
:103900002D12264B7404121A6DE97004790080069A
:103910007901800279027F0E021B9974F0121AC796
:10392000890874FF65086003023AA990084DE054C5
:10393000077003023F857A00784C79088882898372
:10394000A3A3A3A3A3E06404703FEA75F018A4F84E
:10395000A9F0745228F582740839F583E064017087
:10396000377A00784C790888828983A3A3A3A3A31C
:10397000E0640460030239FE88828983A3A3A3A3C1
:10398000A3A3E06401707780630AE82418F8E9349F
:1039900000F9EAC3940440A47A00784C790888823C
:1039A0008983A3A3A3A3A3E064017067EA75F01859
:1039B000A4F8A9F0745228F582740839F583E064FC
:1039C0000170627A00784C790888828983A3A3A366
:1039D000A3A3E064016003023A8588828983A3A3DC
:1039E000A3A3A3A3E064016003023A85EA75F0187B
:1039F000A4F8A9F0745128FA740839023F820AE841
:103A00002418F8E93400F9EAC39404500302396732
:103A1000023F850AE82418F8E93400F9EAC394045F
:103A2000500302399E7A00784C790888828983A3F2
:103A3000A3A3A3A3E064027061EA75F018A4F8A937
:103A4000F0745228F582740839F583E064017059E6
:103A50007A00784C790888828983A3A3A3A3A3E082
:103A60006402707A88828983A3A3A3A3A3A3E064DA
:103A700001706BEA75F018A4F8A9F0745128FA7473
:103A80000839FB806F0AE82418F8E93400F9EAC322
:103A9000940450030239C9023F850AE82418F8E962
:103AA0003400F9EAC3940440827A00784C7908889B
:103AB000828983A3A3A3A3A3E06508703A888289BF
:103AC00083A3A3A3A3A3A3E06401702BEA75F0185A
:103AD000A4F8A9F0745128FE740839FF802C0AE874
:103AE0002418F8E93400F9EAC394045003023A5662
:103AF0007A007B00023F890AE82418F8E93400F9CB
:103B0000EAC3940440A97E007F007A00784C7908CB
:103B100088828983A3A3A3A3A3E06508701BEA7529
:103B2000F018A4F8A9F0745228F582740839F583C6
:103B3000E0640170137A0180110AE82418F8E9346E
:103B400000F9EAC3940440C87A00E5081460101430
:103B50007003023CC024FE7003023DD3023F857B0C
:103B600000784C790888828983A3A3A3A3A3E06487
:103B7000027052EB75F018A4F8A9F0745228F5827F
:103B8000740839F583E06401704A7B00784C790849
:103B900088828983A3A3A3A3A3E064026003023CF9
:103BA0002E88828983A3A3A3A3A3A3E06401707ECC
:103BB000EB75F018A4F8A9F0745128F50A740839C7
:103BC000F50B023C460BE82418F8E93400F9EBC386
:103BD000940440917B00784C790888828983A3A360
:103BE000A3A3A3E064046003023C87EB75F018A470
:103BF000F8A9F0745228F582740839F583E064015D
:103C00006003023C997B00784C790888828983A301
:103C1000A3A3A3A3E064046003023CA48882898375
:103C2000A3A3A3A3A3A3E064017079023E270BE83A
:103C30002418F8E93400F9EBC394045003023B90D4
:103C4000750A00750B00EAA2E05035850A82850BE3
:103C500083A3A3750CF6750DFF750EFF750FFF7826
:103C60000C121888780C121CD68E828F83A3A31294
:103C7000192D12264B7404121A6DE97003023F7F4E
:103C8000AA0AAB0B023F890BE82418F8E93400F9C3
:103C9000EBC394045003023BDAEAA2E0501BEEFAB5
:103CA000EFFB80190BE82418F8E93400F9EBC39412
:103CB000045003023C0B023ECC7A007B00023F8999
:103CC0007B00784C790888828983A3A3A3A3A3E00F
:103CD00064047040EB75F018A4F8A9F0745228F54C
:103CE00082740839F583E0640170387B00784C7980
:103CF0000888828983A3A3A3A3A3E06404600302CA
:103D00003D8588828983A3A3A3A3A3A3E064017054
:103D100074023E270BE82418F8E93400F9EBC39449
:103D20000440A37B00784C790888828983A3A3A3ED
:103D3000A3A3E064017063EB75F018A4F8A9F07414
:103D40005228F582740839F583E06401705B7B00CA
:103D5000784C790888828983A3A3A3A3A3E0640194
:103D6000705288828983A3A3A3A3A3A3E0640170F4
:103D700043EB75F018A4F8A9F0745128F50A7408FB
:103D800039F50B80440BE82418F8E93400F9EBC34B
:103D900094045003023CF1023ECC0BE82418F8E9ED
:103DA0003400F9EBC394044080EAA2E0501EEEFA1E
:103DB000EFFB801C0BE82418F8E93400F9EBC394FE
:103DC000044091750A00750B00023ED27A007B0018
:103DD000023F897B00784C790888828983A3A3A35A
:103DE000A3A3E064017055EB75F018A4F8A9F07472
:103DF0005228F582740839F583E06401704D7B0028
:103E0000784C790888828983A3A3A3A3A3E06401E3
:103E10006003023EBA88828983A3A3A3A3A3A3E07D
:103E200064016003023EBAEB75F018A4F8A9F074BF
:103E30005128F50A740839F50B023ED20BE8241814
:103E4000F8E93400F9EBC39404408E7B00784C7998
:103E50000888828983A3A3A3A3A3E064026003026A
:103E60003F11EB75F018A4F8A9F0745228F582748C
:103E70000839F583E064016003023F237B00784C3E
:103E8000790888828983A3A3A3A3A3E064026003C3
:103E9000023F2A88828983A3A3A3A3A3A3E064018A
:103EA0006003023F2AEB75F018A4F8A9F0745128BA
:103EB000F50A740839F50B023F420BE82418F8E9BB
:103EC0003400F9EBC394045003023E04750A0075F4
:103ED0000B00EAA2E04003023C80850A82850B8346
:103EE000A3A3750CF6750DFF750EFF750FFF780C0B
:103EF000121888780C121CD68E828F83A3A31219F5
:103F00002D12264B7404121A6DE96003023C808066
:103F10006E0BE82418F8E93400F9EBC3940450035D
:103F2000023E51EAA2E0505D80550BE82418F8E902
:103F30003400F9EBC394045003023E82750A007505
:103F40000B00EAA2E04003023C80850A82850B83D5
:103F5000A3A3750CF6750DFF750EFF750FFF780C9A
:103F6000121888780C121CD68E828F83A3A3121984
:103F70002D12264B7404121A6DE96003023C80EE88
:103F8000FAEFFB80047A007B000237F374F6121A12
:103F9000C78909750800784C790888828983A3A3AA
:103FA000A3A3A3A3E06003024068E50875F018A48A
:103FB000F8A9F0745128FE740839FF8E828F83A30C
:103FC0007401F08E828F83E509F0120BE88E828FE8
:103FD00083A3A31219398E828F83A3A3A3A3A3A3C0
:103FE000E4F0A3F0EE240EF582EF3400F58374FFC5
:103FF000F0A3F0A3F0A3F0EE2414F582EF3400F563
:10400000837401F0EE2415F582EF3400F58374011A
:10401000F0EE2416F582EF3400F583E4F0A3F0907F
:10402000084DE04509F090084CE004F06401600C94
:10403000748065096006744065097019E50875F0BB
:1040400018A4F8A9F0745128F8740839F990084FA9
:10405000E8F0A3E9F0E50875F018A4F8A9F07451A8
:1040600028FA740839FB80180508E82418F8E934A0
:1040700000F9E508C394045003023F9A7A007B00DC
:1040800080007F02021B99C082C0838A828B83E0FA
:10409000F8A3E0F98A828B83E4F0A3F08882898315
:1040A000A3F088828983E0F4F890084DE058F090FE
:1040B000084CE014F0700B90084FE4F0A3F090046B
:1040C00079F0801CC082C08390084CE0600A9008A0
:1040D0004FE0FAA3E0FB80047A007B008002E0F965
:1040E000D083D08202011FC082C083E9FB7A0078AE
:1040F0004C790888828983A3A3A3A3A3E06B7016DD
:10410000EA75F018A4F8A9F0745228F582740839F9
:10411000F583E0F980110AE82418F8E93400F9EA97
:10412000C3940440CE790080B7C082C08390084C0D
:104130000240DE74F6121AC7EAFEEBFF9061D0E08F
:10414000C0E0EE2400F582EF3401F583D0E0F0907A
:1041500061D7E0F89061D5E0C398547FC0E0EE24C9
:1041600001F582EF3401F583D0E0F09061D6E0C331
:1041700098547FC0E0EE2402F582EF3401F583D03D
:10418000E0F0701A9061C5E0A2E45012E0A2E7509E
:104190000DEE2402F582EF3401F5837480F0120CE9
:1041A000AEEE2401F582EF3401F583E07034EE24A5
:1041B00002F582EF3401F583E070279061C5E0A23B
:1041C000E4501FE0A2E7501AEE2402F582EF34011A
:1041D000F5837480F0EE2401F582EF3401F58374E9
:1041E00080F075E1957800EE2400F582EF3401F55A
:1041F00083E060279061D3E0C0E08808EE2508F5F1
:1042000082EF3400F583D0E0F008EE2400F582EF71
:104210003401F583E0F9E8C39940D975E191024092
:104220008274F6121AC7EAFEEBFF9061C8E0C0E0A4
:10423000EE2403F582EF3401F583D0E0F09061CFF6
:10424000E0F89061CDE0C398547FC0E0EE2404F51F
:1042500082EF3401F583D0E0F09061CEE0C3985452
:104260007FC0E0EE2405F582EF3401F583D0E0F065
:10427000701A9061C5E0A2E05012E0A2E3500DEE8A
:104280002405F582EF3401F5837480F0120CB4EE4E
:104290002404F582EF3401F583E07034EE2405F553
:1042A00082EF3401F583E070279061C5E0A2E05011
:1042B0001FE0A2E3501AEE2405F582EF3401F583E6
:1042C0007480F0EE2404F582EF3401F5837480F0FD
:1042D000120CBA7A00EE2403F582EF3401F583E084
:1042E000602F9061CBE0C0E08A08EE2508F8EF343B
:1042F00000F9E82480F582E93400F583D0E0F00A83
:10430000EE2403F582EF3401F583E0F8EAC3984028
:10431000D175E18102408274F4121AC78908A80895
:10432000E875F08AA4C8AAF02AF974B128FE7408C6
:1043300039FFEEFAEFFB120BA0EEFAEFFB120B9A2D
:10434000750A80750B00780A121CDA7C007D60EE1D
:104350002406FAEF3401FB120AE07402121A6D907F
:104360006195E0C0E0EE2486F582EF3401F583D05C
:10437000E0F0906196E0C0E0EE2487F582EF340132
:10438000F583D0E0F0906197E0C0E0EE2488F582FC
:10439000EF3401F583D0E0F0906198E0C0E0EE24C6
:1043A00089F582EF3401F583D0E0F07F04021B9998
:1043B00074F2121AC78908A808E875F08AA4C8AA76
:1043C000F02AF974B128F8740839F99061C6E0FD53
:1043D000E054F0F075E1817C00E82403F582E934D3
:1043E00001F583E0602B8C0AE8250AFAE93400FB2A
:1043F000EA2480F582EB3400F583E09061CAF00C8A
:10440000E82403F582E93401F583E0FAECC39A402D
:10441000D5E82405F582E93401F583E06004906174
:10442000CEF0E82404F582E93401F583E0600490DD
:1044300061CDF0ED9061C6F0A808E875F08AA4C8D7
:10444000AAF02AF974B128F8740839F9E0FCE054AC
:104450000FF075E1917A00E82400F582E93401F566
:1044600083E060238A0AE8250AF582E93400F583AF
:10447000E09061D2F00AE82400F582E93401F58386
:10448000E0FBEAC39B40DDE82402F582E93401F554
:1044900083E060049061D6F0E82401F582E93401FC
:1044A000F583E060049061D5F0EC9061C6F085087A
:1044B00082AE82EEF875F08AA4C8AAF02AF974B127
:1044C00028F50A740839F50B750C80750D00780C09
:1044D000121CDAE50A2406FCE50B3401FD7A007BA8
:1044E00060120AE07402121A6DA80AA90BE8248669
:1044F000F582E93401F583E0906195F0E82487F5D1
:1045000082E93401F583E0906196F0E82488F58231
:10451000E93401F583E0906197F0E82489F582E9B8
:104520003401F583E0906198F0EE75F005A4CEA813
:10453000F028FF74A92EF58274043FF583E0F8A3F8
:10454000E0F5838882E0648070419011E27422F08B
:10455000A3740BF0A3740AF0A3740BF0A37422F0FD
:10456000A3740BF0A37422F0A3740BF0A3740AF0ED
:10457000A3740BF0A37422F0A3740BF0A37428F0BF
:10458000A3740BF090047974088005900479740783
:10459000F09011F0740AF0A3740BF0A3740AF0A366
:1045A000740BF0A3740AF0A3740BF0A3740AF0A3C5
:1045B000740BF0A3740AF0A3740BF0A3740AF0A3B5
:1045C000740BF07F06021B99C082C08390619074C7
:1045D00004F0A37448F0A37402F09061807440F07A
:1045E0009061BC7403F09061877419F090626574F7
:1045F0001BF0906249E0C3941390619C400A7409D7
:10460000F090606674018007740DF0906066E4F0CD
:1046100090619A7433F0A37455F09061A0743AF0ED
:104620009007F5E064017009C29190047D74678081
:104630000590047D7461F09027E6E493906186F024
:104640009027E0E493F46027E493540FF890618599
:10465000E0686012E5C654804449F5C6E59E547F83
:10466000644970F8E8F053C680E59E547F70FA798B
:1046700005120CA8024A3CC082C083E5A8F853A8E2
:104680007E906181E4F0A3F0A3F0C2BA539AFEC217
:1046900089759B00C2C275E90075910075BF0075F0
:1046A000A91175B905906181F0A374C0F0A3E4F07D
:1046B000D2BA439A0174805842A8024A3CF0024A96
:1046C0003CC082C08374F8121A5790047BE0F8A3B0
:1046D000E0F9E84970030247EF90047BE054406042
:1046E000237908851882851983AA82AB83120AC2AE
:1046F000851882851983AA82AB831207C290047B36
:10470000E054BFF0E054806010790C7A1B7B0812F3
:104710000AC290047BE0547FF0E0A2E05031906147
:104720009A7433F0A37455F09061A0743AF0900736
:10473000F5E064017009C29190047D746780059072
:10474000047D7461F01207C890047BE054FEF0E031
:104750005402603190619A743FF0A3745AF09061F2
:10476000A0747FF09007F5E064017009D291900485
:104770007D7471800590047D746AF01207C89004FE
:104780007BE054FDF0E0540460139027E4E4939040
:104790006186F01207CE90047BE054FBF0E05408F1
:1047A00060139027E5E493906186F01207CE9004A1
:1047B0007BE054F7F0E0541060139027E6E4939008
:1047C0006186F01207CE90047BE054EFF0E05420B5
:1047D000600A1207CE90047BE054DFF0A3E054019E
:1047E000600D1209CC1207D490047CE054FEF074E2
:1047F00008121A6D024A3C74EC121AC774F4121AA9
:1048000057851882851983AC82AD8375838D758237
:1048100096740412196A9027E493F46003024983A2
:10482000907808E0C3940250030249637404121A9A
:10483000A3AC82AD8375838D758250740812196A9A
:104840008518828519838582128583137404121A50
:10485000A3AC82AD83750EFF750FFF7FFF7E0075E1
:104860000C48750D78801574086E70030248F77453
:10487000096E70030248F7740A6E607B850C8285AE
:104880000D83780812190F8C828D83A909E50AC956
:10489000F888107418780812183DE5104508F8C318
:1048A000E098A3E099850C82850D83780812190F92
:1048B00040188C828D837418780812183DE51045D5
:1048C00008F8E0C398F8A3E0801C74187808121860
:1048D0003DE5104508FAE9FB8C828D83E0F8A3E002
:1048E000F9EAC398F8EB99F9C3E8950EE9950F50EA
:1048F00006880E890FEEFF0EE50C2404F50CE50D7D
:104900003400F50DEEC39413500302486774FF653D
:104910000E700474FF650F60238F0874027808120C
:104920001A4474482508F58274783509F5837808A7
:1049300012190F851282851383E508F0EC2402FC1E
:10494000ED3400FD851282851383A3858212858351
:1049500013740C121AA3E5826C7003E5836D600377
:104960000248557508017509007808121CDA7402AE
:10497000121AA3AC82AD837AF97B0912116A740210
:10498000121A6D740C121A6D7F0C021B99C082C032
:10499000839061AE7468F0A3746AF090624574FB12
:1049A000F0A304F053F4FD43FE029007F57401F008
:1049B0009061A0E0643A90619A70237433F0A3741C
:1049C00055F09061A0743AF0740164017009C291CD
:1049D00090047D7467802890047D74618021743F09
:1049E000F0A3745AF09061A0747FF07401640170B8
:1049F00009D29190047D7471800590047D746A02DF
:104A000046BDC082C0839007D3E064017011900757
:104A1000D9E064016019E07006A3E06401601090C1
:104A200007EAE06401700C9007F0E064017004791B
:104A30000C800279008005E0F91226F9D083D0823B
:104A400002011FC082C0839007DD7425F09007DB50
:104A50007401F0A3E4F07A01FB120C249007C9E082
:104A6000F8A3E0C82416F582E83400F58374F0F06A
:104A7000A37409F09007DAE0640170169007D9E09A
:104A800070107901120C84120C54120C7E790012F1
:104A90000C90024A3CC082C08374FA121A579007E5
:104AA000D2E0640170081209D89007D2E4F075E1F1
:104AB000F19007C9E0F8A3E0C82415F582E83400B6
:104AC000F5837401F09007D4E064017076908D58FE
:104AD000C082851882851983AC82AD8375838DD0A1
:104AE00082740612196A75D90D9007CBE0C433336E
:104AF00054C04403F5D978C9790788828983A3A370
:104B0000A3E0F5D988828983A3A882A983E864CF2A
:104B10007003E9640770E3851882851983A882A968
:104B20008388828983E0F5D9A3A882A983740612B9
:104B30001AA3E582687003E5836970E575E19579EC
:104B40000180027900120C2A9011E27440F0A374E3
:104B50000BF0A37446F0A3740BF0A37440F0A3749D
:104B60000BF0A37440F0A3740BF0A3740AF0A374C9
:104B70000BF0A3740AF0A3740BF0A3744CF0A374AD
:104B80000BF09011F0740AF0A3740BF0A3740AF008
:104B9000A3740BF0A3740AF0A3740BF0A3740AF0CF
:104BA000A3740BF0A3740AF0A3740BF0A3740AF0BF
:104BB000A3740BF09007CBE0F97ACC7B07120C06BC
:104BC0009007DDE0F91226F97901120C307AD67BD4
:104BD000BE7C897D8E120C487A557B557C557D00B4
:104BE000120C127900120C9C9007C9E0F8A3E0C8DF
:104BF0002414F582E83400F5837416F09004797477
:104C000005F0040247F174F7121AC78908A808E8EA
:104C100075F005A4C8AAF02AF974A928FE7404390D
:104C2000FF9007E2E0F97AE37B07120C069007F0A9
:104C3000E0701A7900120C669007B8E070047900F1
:104C4000800279017AB97B07120C0C800579011278
:104C50000C6675E1F175D9239007E2E0C433335453
:104C6000C04405F5D978E0790788828983A3A3A396
:104C7000E0F5D988828983A3A882A983E864E670D5
:104C800003E9640770E375D90075D90075D900751B
:104C9000D90075D90075D900EEF8EFF9E82404FAC7
:104CA000E93400FBE82422F582E93400F583E0F5DD
:104CB000D988828983A3A882A983EA687002EB69F4
:104CC00070E2EEF8EFF9E824031AE93400FBE82477
:104CD00026F582E93400F583E0F5D988828983A33B
:104CE000A882A983EA687002EB6970E2EE242BF5D2
:104CF00082EF3400F583E0F5D9EE242CF582EF3411
:104D000000F583E0F5D9EE242DF582EF3400F5832C
:104D1000E0F5D9EE242EF582EF3400F583E0F5D9E5
:104D2000EE242FF582EF3400F583E0F5D9EE243040
:104D3000F582EF3400F583E0F5D9EE2431F582EF0A
:104D40003400F583E0F5D9EE2432F582EF3400F536
:104D500083E0F5D9EE2433F582EF3400F583E0F5F6
:104D6000D9EEF8EFF9E82405FAE93400FBE8245D10
:104D7000F582E93400F583E0F5D988828983A3A818
:104D800082A983EA687002EB6970E2EE2437F5824B
:104D9000EF3400F583E0541FF8EE242AF582EF3457
:104DA00000F583E0C43354E048F5D975E1959011DE
:104DB000E27410F0A3740BF0A37416F0A3740BF05C
:104DC000A3740AF0A3740BF0A3740AF0A3740BF09D
:104DD000A3740AF0A3740BF0A3740AF0A3740BF08D
:104DE000A3741CF0A3740BF09011F0740AF0A37478
:104DF0000BF0A3740AF0A3740BF0A3740AF0A3746D
:104E00000BF0A3740AF0A3740BF0A3740AF0A3745C
:104E10000BF0A3740AF0A3740BF09007EFE0F91203
:104E200026F97AD67BBE7C897D8E120C487A557B1A
:104E3000557C557D00120C1290600DE4F079011242
:104E40000C9C9004797406F00253FF74E8121AC7A0
:104E50009007E0E0F8A3E0F5838882A3A3780C1222
:104E6000190F9007F1E0FAF875F005A4C8ACF02C22
:104E7000F974D728F582740439F583E0FEA3E0FFC6
:104E8000EEC333FEEF33FF8E14F51575160075175C
:104E900000850C08850D09850E0A850F0B75100419
:104EA00075110075120075130078087910121875C5
:104EB0007808121CD6850C08850D09850E0A850F09
:104EC0000B78087914121875780C79141217BAE453
:104ED000F516F517780879141218AE8A0C750D00BE
:104EE0007403780C121A44E50D3395E0F50EF50FB6
:104EF0007808790C121875750CFF750DFF750EFF8B
:104F00007808790C1218D6AA08AB09AC0A7D0012F1
:104F100026A47404121A6D8A088B09A808A909C36B
:104F2000EE98EF995006E82EF8E93FF9E890600E08
:104F3000F0E9A3F0EEA3F0EFA3F090600D74C1F0E0
:104F40007F10021B99C082C0839007C9E0F8A3E0DC
:104F5000C82406F582E83400F583E4F0A3F0900756
:104F6000DD024A37C082C0839007E0E0F8A3E0C8C2
:104F70002406F582E83400F583E4F0A3F09007EF0F
:104F8000024A3702011F74F6121AC79061D0E0F886
:104F90007480C398FCEA2482F582EB3400F583E048
:104FA0006004780480027800E8240EF8ECC398507E
:104FB000030250B27C0C9007FBE4F0EA2476F58201
:104FC000EB3400F583E09007FCF0EA2477F8EB344B
:104FD00000F988828983E09007FDF088828983A3A5
:104FE000E09007FEF0EA2479F8EB3400F988828932
:104FF00083E09007FFF088828983A3E0900800F0A7
:10500000EA247BF8EB3400F988828983E090080178
:10501000F088828983A3E0900802F0EA247DF8EB0F
:105020003400F988828983E0900803F088828983BC
:10503000A3E0900804F0EA2474F8EB3400F98A82C3
:105040008B83A3A3A3A3A3E0FEA3E0FF88828983AD
:10505000E02EF0A3E03FF088828983E0900805F01D
:1050600088828983A3E0900806F0EA2482F582EB27
:105070003400F583E060177508FB7509077808129E
:105080001CDA7903120AFE7402121A6D7C10740184
:105090002CF5D975D9037582FB758307ECFEE0F515
:1050A000D9A31EEE70F875E1957904120C4E7901C2
:1050B000800279000255AF74F6121AC79061D0E0F1
:1050C000F87480C398FCEA2482F582EB3400F583FF
:1050D000E06004780480027800E8240AF8ECC398C1
:1050E00050030251AA7508089007FB7401F07CBFB9
:1050F0007D0778FC79077E058C828D83E088828924
:1051000083F08C828D83A3AC82AD8388828983A354
:10511000A882A9831EEE70E0EA2480FCEB3400FD37
:105120008A828B83A3A3A3A3A3E0FEA3E0FF8C82C8
:105130008D83E02EF0A3E03FF08C828D83E08882A7
:105140008983F08C828D83A3AC82AD83888289832E
:10515000A308A9838C828D83E088828983F0EA2466
:1051600082F582EB3400F583E0601A7508FB75095F
:10517000077808121CDA7C087903120AFE740212FE
:105180001A6D75080C74012508F5D975D903758257
:10519000FB758307AE08E0F5D9A31EEE70F875E144
:1051A000957904120C4E7901800279000255AF7492
:1051B000F7121AC7EAFEEBFF9061D0E060030252DB
:1051C0009675D91875D90375D903EEF8EFF9E82467
:1051D00008FAE93400FBE8249BF582E93400F58302
:1051E000E0F5D988828983A3A882A983EA6870023E
:1051F000EB6970E2EE24A3F582EF3400F583E0F56D
:10520000D9EE24A4F582EF3400F583E0F5D9EE243D
:1052100093F582EF3400F583E5822408F8E58334C2
:1052200000F9E0F5D9A3E865827003E9658370F2BF
:10523000EE2487F582EF3400F583E5822404F8E557
:10524000833400F9E0F5D9A3E865827003E965834A
:1052500070F275E1957908EE2493FAEF3400FB12B1
:105260000AB67904EE2487FAEF3400FB120AB67905
:1052700004120C4EEE246FF582EF3400F583E0F853
:10528000A3E0F9EE2471F582EF3400F583E8F0A392
:10529000E9F07901800279000253FF74F6121AC70F
:1052A000EAFEEBFF9007FB7406F07508FB75090733
:1052B0007808121CDA7C017903120AFE7402121AB1
:1052C0006D75D90675D9037582FB758307E0F5D92D
:1052D000A3E58264007004E583640870F075E195CD
:1052E000900479E06408701EEE246FF582EF3400BC
:1052F000F583E0F8A3E0F9EE2471F582EF3400F5D0
:1053000083E8F0A3E9F079010255AF74F6121AC7E9
:10531000EAFEEBFF9061D0E0705E9007FB740AF04C
:105320007508FB7509077808121CDA7C01790312ED
:105330000AFE7402121A6D75D90675D9037582FBBF
:10534000758307E0F5D9A3E58264007004E5836402
:105350000870F075E195EE246FF582EF3400F58367
:10536000E0F8A3E0F9EE2471F582EF3400F583E86C
:10537000F0A3E9F07901800279000255AF74F612CA
:105380001AC7EAFEEBFF9061D0E0706678019007E3
:10539000FB740BF0900479E0640770197508FB75D5
:1053A00009077808121CDA7C017903120AFE7402DC
:1053B000121A6D7805740128F5D975D9037582FB29
:1053C000758307E8FAE0F5D9A31AEA70F875E19554
:1053D000EE246FF582EF3400F583E0F8A3E0F9EEF8
:1053E0002471F582EF3400F583E8F0A3E9F0790148
:1053F000800279000255AFF0EEA2E092AF79007F13
:1054000001021B9974F6121AC7EAFEEBFF9061D0F5
:10541000E0F87480C398FAEE2482F582EF3400F548
:1054200083E06004780480027800E8240BF8EAC383
:105430009850030254DA7D099007FB7408F0EE24BB
:10544000E4F8EF3400F97AFC7B077C0888828983D2
:10545000E08A828B83F088828983A3A882A9838AC9
:10546000828B83A3AA82AB831CEC70E0EE2482F5CE
:1054700082EF3400F583E0601D7508FB750907783D
:1054800008121CDA7C097903EEFAEFFB120AFE74AB
:1054900002121A6D7D0D74012DF5D975D90375822F
:1054A000FB7583078D08E0F5D9A31508E50870F6AC
:1054B00075E1957904120C4EEE246FF582EF3400FD
:1054C000F583E0F8A3E0F9EE2471F582EF3400F5FE
:1054D00083E8F0A3E9F07901800279000255AF7406
:1054E000F6121AC7EAFEEBFF9061D0E0F87480C3B1
:1054F00098FAEE2482F582EF3400F583E0600478B8
:105500000480027800E82408F8EAC39850030255A2
:10551000AD78069007FB740CF0900496E09007FCC1
:10552000F0900497E09007FDF0900498E09007FE5B
:10553000F0900499E09007FFF090049AE090080042
:10554000F0EE2482F582EF3400F583E0601B7508ED
:10555000FB7509077808121CDA7C067903EEFA124B
:105560000AFE7402121A6D780A740128F5D975D9E9
:10557000037582FB7583078808E0F5D9A31508E554
:105580000870F675E1957904120C4EEE246FF582E1
:10559000EF3400F583E0F8A3E0F9EE2471F582EF33
:1055A0003400F583E8F0A3E9F07901800279007F07
:1055B00002021B9974F6121AC7EAFEEBFF9061D043
:1055C000E0F87480C398FAEE2482F582EF3400F597
:1055D00083E06004780480027800E82404F8EAC3D9
:1055E00098500302568E78029007FBE8F0EE24F6FE
:1055F000F582EF3400F583E09007FCF0EE2482F5AD
:1056000082EF3400F583E0601B7508FB75090778AD
:1056100008121CDA7C027903EEFA120AFE740212F6
:105620001A6D7806740128F5D975D9037582FB7552
:1056300083078808E0F5D9A31508E50870F675E139
:1056400095EE2473F582EF3400F583E4F0EE247FC9
:10565000F582EF3400F583E4F0EE241DF582EF349B
:1056600000F583E4F0A3F07904120C4EEE240DF55E
:1056700082EF3400F583E0F8A3E0F9EE2471F582BF
:10568000EF3400F583E8F0A3E9F0790180027900B6
:105690000255AF74F6121AC79061D0E0F87480C357
:1056A00098FCEA2482F582EB3400F583E06004780C
:1056B0000480027800E82404F8ECC398405B790287
:1056C0009007FB7407F0EA24F7F582EB3400F583CA
:1056D000E09007FCF0EA2482F582EB3400F583E0E9
:1056E00060187508FB7509077808121CDA7C020936
:1056F000120AFE7402121A6D7906740129F5D97521
:10570000D9037582FB758307E9F8E0F5D9A318E89A
:1057100070F875E1957901800279000255AF74F552
:10572000121AC7E9FCA2AFE433F50AC2AF7D0080CC
:10573000010DEA246EF582EB3400F583E0F8EDC349
:1057400098501A8D08EA2508F8EB3400F9E8246A25
:10575000F582E93400F583E06C70D68024EA246E8B
:10576000F8EB3400F9E0FEEA2EFAEB3400FBEA2411
:105770006AF582EB3400F583ECF088828983E004DB
:10578000F0E50AA2E092AF7F03021B9974F6121AA9
:10579000C7A2AFE433FDC2AFEA246EF582EB34005A
:1057A000F583E014F07C0060368C08EA2508F8EBFD
:1057B0003400F9E8246BF582E93400F583E0C0E0B9
:1057C000E8246AF582E93400F583D0E0F00CEA249D
:1057D0006EF582EB3400F583E0F8ECC39840CAEA3A
:1057E000246DF582EB3400F58374FFF0EA2469F54B
:1057F00082EB3400F583E4F0EDA2E092AF0255AF06
:10580000C082C083E5A8F8C2AFEA246AF582EB340F
:1058100000F583E9F0EA2469F582EB3400F583E4CE
:10582000F0E8A2E7A2E792AF024A3C74F3121AC76B
:10583000EAFEEBFFECFAEDFB8A828B83A3A3A3A322
:10584000E0541FF0EE2436F582EF3400F583E4F0E7
:10585000F50AEEFCEFFD8A828B83E0C0E0EC245D6C
:10586000F582ED3400F583D0E0F0750B00E50A33E6
:10587000333354F8F50C8A828B83E0F50875090000
:10588000E50B7808121A25E508A2E0502FEE243621
:10589000F8EF3400F988828983E0F508EE2508F5F1
:1058A00008EF3400F509E5082438F582E5093400ED
:1058B000F583E50CF088828983E004F0050B050C84
:1058C000E50BC3940840AF050A8A828B83A3AA82A2
:1058D000AB838C828D83A3AC82AD83E50AC3940530
:1058E00050030258567F05021B9974F7121AC7908D
:1058F00004A5E064037003025BD07C0078A5790402
:1059000088828983A3A3A3A3A3A3E06003025BBE51
:10591000ECF875F005A4C8AAF02AF974A928FA745D
:105920000439FB8A828B83A3A37401F08A828B8360
:10593000A3A3A3E4F0EC8A828B83A3A3A3A3F0EA3E
:105940002462F582EB3400F5837401F0EA2467F5F4
:1059500082EB3400F5837401F08A828B83A3A3A3C6
:10596000A3A3E4F0A3F08A828B83A3A3A3A3A3A39E
:10597000A3F0A3F0EA240FF582EB3400F583740161
:10598000F0EA2435F582EB3400F583E4F0EA2418DC
:10599000F582EB3400F583E4F0A3F0A3F0A3F0EA82
:1059A000241CF582EB3400F583E4F0EA241DF58233
:1059B000EB3400F583E4F0A3F0EA247FF582EB34C6
:1059C00000F583E4F0EA2473F582EB3400F583E418
:1059D000F0EA2468F582EB3400F5837480F0EA2461
:1059E00069F582EB3400F583E4F0EA246EF582EB8E
:1059F0003400F583E4F0EA24ECF582EB3400F5831F
:105A0000E4F0EA24EDF582EB3400F583E4F0EA24D7
:105A1000EEF582EB3400F583E4F0EA24EFF582EB57
:105A20003400F583E4F0EA24F0F582EB3400F583EA
:105A3000E4F0A3F0EA24F2F582EB3400F583E4F01D
:105A4000A3F0EA24F5F582EB3400F583E4F0EA24D0
:105A500082F582EB3400F583E4F0EA24D2F582EBA0
:105A60003400F583E4F0EA24D3F582EB3400F583C7
:105A7000E4F0EA24D4F582EB3400F583E4F0A3F0FB
:105A8000A3F0A3F0EA24D8F582EB3400F583E4F028
:105A9000A3F0A3F0A3F0EA24DEF582EB3400F58353
:105AA000E4F0EA24E0F582EB3400F583E4F0EA2444
:105AB000DCF582EB3400F583E4F0EA24E1F582EBD7
:105AC0003400F583E4F0EA24E2F582EB3400F58358
:105AD000E4F0EA24F8F582EB3400F583E4F0A3F077
:105AE000EA24FAF582EB3400F583E4F0A3F0EA242B
:105AF000FCF582EB3400F583E4F0A3F0EA24FEF534
:105B000082EB3400F583E4F0A3F0EAF8EBF9E82443
:105B100004FCE93400FDE8246AF582E93400F583E9
:105B200074FFF088828983A3A882A983EC6870023D
