:020000040000FA
:0600000002010702259930
:03002B00022802A6
:03003B0002282375
:030043000227BFD2
:0300530002260F73
:03007B000227E574
:100083000223EFE5C754F84401F5C77901220000C4
:100093000080FB120086B900030200F1E4792378A3
:1000A30002B800028004F709D8FCE479257802B885
:1000B30000028004F709D8FCE490028178D4791A0D
:1000C3008002F0A3D8FCD9FA7A547B1C90013778CC
:1000D300E379018015E493A3AD82AE838A828B8397
:1000E300F0A3AA82AB838D828E83D8E9D9E7758288
:1000F300387583EB7403120119758291758300744B
:100103000012011975D00075813F75218175220296
:10011300759F00020096C09FF59FE473D09F22D085
:1001230083D082C09FE493C0E0740193C0E0740263
:1001330093F59F22AB03B703ED03E703FF0000B47E
:10014300000028002800283075A000A000A000A00F
:100153000000080008E001F000100010001000107B
:10016300001000100050005000500010001000D08C
:10017300070000000000000F0001000500307507B4
:10018300001000010081FF00000000FFFFFF0202DA
:1001930002F88E010000F38E02028F010000AE1CF4
:1001A30002068F010000B80202028F010000AF1C9B
:1001B30002088F010000CE02FFFF0100FF2002F8BA
:1001C3008E010000F08E02028F010000DD1C020A86
:1001D3008F000000000002048F030000FA021700E2
:1001E300DF0BDF0BDF0BDF0BDF0BDF0BDF0BDF0BBC
:1001F300DF0BDF0BDF0BDF0BDF0BBF0DDD0DB90DEE
:10020300FFFFFFFFFFFF01E803057710020A01016B
:1002130001FEFF04FF001201229CD503120122AF4D
:10022300D503120122D0D5031201223BD6031201BA
:10023300227CD6031201229DD603120122DED603AD
:1002430012012276D703120122BED7031201220C18
:10025300C7031201221FC70312012250C703120151
:10026300228AC703120122E3C7031201222AC80309
:1002730012012272C803120122A1C803120122D063
:10028300C80312012207C9031201224EC903120136
:100293002267C903120122BCC903120122EAC9035E
:1002A30012012224CA03120122DBB602120122DE4A
:1002B300B7021201220BB8021201225CB80212012A
:1002C300227FB80212012291B80212012294B802CD
:1002D300120122D2B80212012246B902120122B23D
:1002E300B9021201227ABA0212012296BA0212014B
:1002F30022CDBA0212012207BB021201229EBB02C7
:10030300120122F0BB0212012221BC02120122526D
:10031300BC021201225FBC02120122C9BC021201FB
:1003230022CCBC02120122D9BC02120122DCBC0283
:1003330012012233BD0212012236BD021201226FC5
:10034300BD0212012272BD02120122A6BD021201D8
:1003530022A9BD02120122FDBD0212012246BE02E4
:1003630012012256BE0212012289BE0212012296F6
:10037300BE0212012299BE0212012201BF02120122
:100383002203C002120122A7C00212012210C102DD
:100393001201224EC1021201221DDF021201221597
:1003A300E00212012249E002120122DFE0021201FF
:1003B300222AE1021201228EE10212012218E20234
:1003C300120122D1E202120122F3E502120122708C
:1003D300E70212012293E702120122BEAB031201CC
:1003E3002263AD0312012283AD03120122A4AE03E3
:1003F300120122F7AE0312012222B4031201224A90
:10040300B40312012277B403120122AFB403120121
:10041300220DB50312012259B503120122C0B503FF
:1004230012012200B6031201223DB6031201226B10
:10043300B60312012215B7031201221FB7031201DB
:10044300222CB7031201225FB7031201226BB703F9
:1004530012012283B7031201228DB7031201223D39
:10046300E6031201224BE60312012263E6031201A3
:10047300227BE60312012292E6031201220080028C
:10048300120122AA800212012226810212012244B1
:1004930082021201228082021201221B83021201B4
:1004A30022FF8302120122C284021201223A850230
:1004B300120122C88602120122398702120122F395
:1004C3008702120122E58802120122258902120104
:1004D30022D989021201220B8A02120122018C0203
:1004E300120122438C02120122618C02120122E6C4
:1004F3008C02120122AA8D02120122C98F0212015B
:100503002208BC031201221EBC031201223CBC03BD
:100513001201224DBD0312012257BD031201228293
:10052300BE0312012279BF03120122E6BF031201A7
:1005330022249E03120122C89E03120122FF9E035E
:10054300120122499F0312012208A1031201221E54
:10055300A501120122CFA501120122EBA50112016F
:1005630022B4A601120122CEA601120122D9A601AC
:10057300120122AFA7011201228CA8011201221C31
:10058300A901120122D3A901120122E1AC01120136
:1005930022D0AE0112012282AF011201224BB0011F
:1005A30012012290B3011201223AB4011201226313
:1005B300B5011201221FB701120122BFB7011201B7
:1005C300220DB8011201224CB8011201221FB901F8
:1005D30012012253B901120122E0B9011201225F73
:1005E300D001120122EBD0011201224FD2011201DC
:1005F300225BD20112012296D20112012205D301FC
:100603001201220ED40112012217D501120122DE9A
:10061300D5011201223BD70112012259D701120140
:100623002276D70112012241D80112012269D80191
:1006330012012233DB0112012238DB0112012251A4
:10064300DD011201229FDD011201220FDE011201E1
:10065300224DDE0112012229DF01120122E9DF010D
:1006630012012235E00112012238E0011201227C3D
:10067300E001120122C4E00112012203E10112018F
:100683002225E10112012259E101120122BCE101FB
:10069300120122B48F03120122BD8F03120122CB58
:1006A3008F031201221E90031201223D90031201B7
:1006B30022829003120122C6910312012261920346
:1006C300120122A59203120122CF92031201223EAC
:1006D3009303120122849303120122FB9303120159
:1006E30022AC94031201229C2800120122AC2800A0
:1006F3001201224D2900120122A9290012012266AA
:100703002A00120122822B00120122B42B001201B3
:1007130022E32B00120122902D0012012207300048
:100723001201227732001201226933001201226280
:1007330034001201226936001201225D39001201D0
:10074300228C3A00120122903C00120122A03D00AB
:100753001201222F3F001201222040001201226EBB
:100763004000120122DD400012012201410012016A
:1007730022524100120122F34500120122F44600E5
:10078300120122554700120122804700120122461E
:1007930048001201221BB80312012225B8031201DB
:1007A300226AB8031201227EB8031201220EB90392
:1007B30012012236B90312012271B9031201229ADE
:1007C300B903120122CEB903120122E3B9031201C4
:1007D300224EBA031201226FBA0312012283BA0313
:1007E30012012298BA03120122D2BA03120122374C
:1007F300BB031201227ABB03120122A4BB03120121
:1008030022E0BB031201223CE203120122EBAB0202
:10081300120122CEAC0212012249AD02120122843E
:10082300AD02120122D5AE021201225EAF02120105
:100833002276B10212012208B402120122BAB402D2
:10084300120122D9B50212012232B60212012291FB
:100853008A03120122D48A03120122588B03120144
:10086300222B8C03120122028F031201228DD0034B
:100873001201223AD10312012247D2031201228626
:10088300D203120122E0D203120122ABDB031201D5
:10089300220EDC03120122ABDC03120122D9DC039A
:1008A300120122FADC0312012235DD031201225563
:1008B300DD03120122BE94031201224A95031201A1
:1008C300220996031201222197031201223B990365
:1008D300120122CCCB02120122F1CB02120122C55A
:1008E300CC0212012232CD0212012288CD02120162
:1008F3002224CE0212012258CF0212012233D00247
:1009030012012292D00212012263D102120122EFBC
:10091300D102120122F2D1021201223CD2021201AF
:1009230022AED20212012259D30212012279D3023A
:10093300120122C1D302120122DDD3021201225776
:10094300D40212012265D402120122F4D40212014C
:10095300225DD502120122BFA20312012244A30386
:1009630012012286A3031201226AA403120122D7D1
:10097300A4031201221BA5031201225FA503120186
:10098300228CA503120122B4A503120122ECA503B4
:100993001201222AA60312012251A603120122CB1D
:1009A300A60312012215A703120122F96000120106
:1009B30022C66200120122B46400120122086500FB
:1009C300120122336500120122E165001201221196
:1009D30066001201224066001201225366001201D2
:1009E30022946600120122C066001201220E6700E3
:1009F300120122456700120122916700120122F0C1
:100A030067001201228368001201226D690012013E
:100A1300225C6A00120122076C0012012226710077
:100A23001201227F71001201226873001201223722
:100A33007500120122B97500120122077700120115
:100A4300221877001201222BD30312012216D4039A
:100A530012012259D403120122A8D403120122F94C
:100A6300D4031201224AD503120122B24800120113
:100A730022334900120122604900120122A94900D0
:100A8300120122AA4A00120122F94A001201227518
:100A93004C00120122F74C00120122544D001201A6
:100AA30022A74D00120122964E001201222B500064
:100AB300120122F550001201220551001201222FCA
:100AC300510012012232510012012215520012016B
:100AD30022005300120122AD53001201220A5400D6
:100AE300120122635400120122C754001201226F23
:100AF30055001201220B56001201229856001201D2
:100B0300220D5700120122695700120122C8570013
:100B1300120122EF5700120122B45800120122A041
:100B23005A00120122E95A00120122195B00120134
:100B3300228C5B00120122125D00120122C25D00B1
:100B4300120122E75D00120122265E001201223B00
:100B53005E001201227E5E00120122EE5E0012018F
:100B630022385F00120122426000120122C360009A
:100B730012012280D502120122CBD502120122D703
:100B8300D502120122ABD602120122C2D6021201F1
:100B930022FFD60212012230D70212012268D702A5
:100BA300120122BED702120122D4D702120122104F
:100BB300D80212012223D8021201224AD8021201BA
:100BC300227ED802120122A4D902120122EEDA02F5
:100BD300120122EADB0212012200DD02120122913C
:100BE30028001201226485031201221289031201D3
:100BF30022468A03120122A3F3011201225CF601A9
:100C030012012262F60112012213F9011201226D6F
:100C1300FB01120122729903120122099A031201A4
:100C230022C79A03120122F19A03120122279D037C
:100C33001201220F8F011201224A8F011201229EFB
:100C430099011201220A9B01120122079C01120140
:100C5300228C9F0112012281A001120122CDA00149
:100C6300120122E7A00112012228A101120122315F
:100C7300A101120122E3A101120122B3A201120177
:100C830022FAA20112012260A301120122D2A301BE
:100C93001201228CCA0312012269CB03120122AD75
:100CA300CB03120122E7CB031201227FCC031201F3
:100CB30022EECC03120122F7CC0312012203CD034F
:100CC3001201221DCD0312012247CD031201227707
:100CD300CD03120122B5F002120122C2F002120169
:100CE30022DCF0021201220FF1021201224DF10265
:100CF300120122B2F102120122C7F102120122DE15
:100D0300F102120122ECF102120122FBF1021201A3
:100D13002210F20212012225F20212012230F20203
:100D23001201223CF20212012249F202120122585C
:100D3300F20212012263F20212012288F20212016C
:100D4300222CF30212012241F30212012256F30272
:100D530012012270F3021201228DF302120122AA60
:100D6300F302120122B5F30212012261F40212010D
:100D73002242F50212012267F50212012272F502E4
:100D830012012287F5021201229BF502120122FCB5
:100D9300F50212012202F60212012208F6021201E2
:100DA300220EF60212012226F60212012259F6023F
:100DB30012012274C10212012296C1021201225EA3
:100DC300C20212012218C5021201222EC60212010A
:100DD300224FC70212012229C802120122D8C802D7
:100DE300120122689E02120122FF9E021201229723
:100DF3009F0212012287A002120122BEA002120149
:100E030022D1A0021201223FA102120122DAA20280
:100E130012012201A302120122A3A302120122D86A
:100E2300A302120122E9A30212012262A402120107
:100E33002283A4021201229BA402120122F3A5021F
:100E4300120122FCA7021201224CAA021201224F14
:100E5300AB021201229EAB02120122D68F021201B3
:100E630022D39002120122BE9102120122C89102E2
:100E7300120122EA9102120122F691021201224882
:100E83009302120122779302120122A79402120104
:100E930022E99402120122159602120122EB960214
:100EA3001201223D97021201229C9702120122D3C2
:100EB30097021201220E9802120122A99B0212012B
:100EC30022C29B02120122449C02120122529C0262
:100ED300120122A79C02120122B59C0212012222B6
:100EE3009D02120122949D02120122DA9D02120137
:100EF3002263DD0312012288DD03120122F9DD03DF
:100F0300120122B6E802120122BFE802120122C82E
:100F1300E802120122F9E90212012218EC0212017D
:100F2300224EEC0212012288EC02120122BEEC02D4
:100F3300120122F8EC021201222CED0212012258B6
:100F4300ED02120122A1ED02120122DBED021201D8
:100F53002223EE0212012279EE02120122AEEE02E8
:100F630012012209EF0212012243EF02120122941D
:100F7300EF02120122CAEF0212012204F00212014F
:100F83002227F002120122ADE803120122D9E8035D
:100F930012012234E9031201223EE9031201224E17
:100FA300E9031201220080031201220A80031201C5
:100FB30022488003120122918003120122CB800375
:100FC3001201222581031201224681031201224FBD
:100FD3008103120122A08103120122C9810312019C
:100FE30022DE81031201224F8203120122DD8203DA
:100FF3001201221A83031201224A8303120122CE11
:1010030083031201220E8403120122468403120178
:10101300225884031201227784031201228084035D
:101023001201223A850312012254E403120122A57C
:10103300CD03120122E9CD031201221FCE031201B7
:101043002207D00312012261D0031201226AD003C6
:1010530012012273D00312012288FF011201229E82
:10106300FF01120122A8FF0112012204B0031201A1
:10107300221DB003120122C1B00312012201B103E8
:101083001201221AB1031201224EB1031201229B53
:10109300B103120122CFB10312012211B2031201D3
:1010A3002215B4031201227CEA0312012219DF0381
:1010B30012012257DF031201227CDF031201229364
:1010C300DF03120122AFDF03120122C6DF03120185
:1010D30022DDDF0312012216E0031201224AE0039C
:1010E30012012281E003120122E9D7031201220532
:1010F300D80312012282D8031201229ED8031201BF
:101103002201D903120122A2D903120122DBF60222
:101113001201221AF702120122A3F702120122B8C6
:10112300F70212012203F80212012237F802120118
:101133002276F80212012285F8021201223AF902FC
:1011430012012293F902120122E2F902120122355D
:10115300FA021201224AFB0212012243FC0212018B
:101163002280FC02120122DBEA03120122D6BA0119
:101173001201224CBD01120122C4BE01120122251B
:10118300BF01120122C4BF01120122B6C001120124
:10119300223BC101120122B7C101120122DCC101AC
:1011A300120122A5C40112012219C501120122054F
:1011B300C6011201223FC6011201227FC60112019C
:1011C3002239C8011201226AC801120122BDC801D5
:1011D30012012206C90112012274C901120122A6B9
:1011E300C901120122BEC901120122D3CA0112018F
:1011F30022E3CA0112012248CC0112012268CC0168
:101203001201229ECC011201224BCE01120122CBEC
:10121300CE011201220ACF0112012231D0011201A3
:1012230022CFD9031201222CDA03120122EFDA03AF
:101233001201220EDB0312012264DB031201225886
:10124300E90312012268E9031201228BEB03120165
:1012530022CAEB03120122F5E90312012220EA0359
:101263001201222AEA0312012262EA031201220076
:10127300EC031201224EE5031201225EE503120183
:10128300227FE50312012233E60312012250E30316
:10129300120122D5E3031201223BE40312012222AD
:1012A300E70312012243E70312012256E703120167
:1012B3002268E70312012295E703120122BAE7032A
:1012C30012012255A70312012269A703120122E288
:1012D300A703120122BBA80312012279AB03120157
:1012E30022B8FC02120122D1FC02120122E5FC0207
:1012F300120122F6FC0212012207FD02120122331F
:10130300FD02120122D2FD0212012217FE02120176
:101313002288FE02120122C9FE02120122F0FE02FD
:1013230012012218FF0212012236FF021201224289
:10133300FF021201226EFF02120122F3E7031201E0
:10134300220DE80312012227E80312012286E80393
:10135300120122F0BF0312012280C003120122FEF8
:10136300C00312012287C10312012235C2031201F5
:1013730022BFC203120122D0C203120122DFC20321
:10138300120122F5C20312012208C30312012268CB
:10139300C3031201227CC30312012294E20112014E
:1013A3002223E40112012280E5011201222AE7012E
:1013B300120122C3E7011201229FE8011201228ECA
:1013C300E901120122F1EA011201226CEB0112017F
:1013D3002299EB01120122B4EB0112012245EC0127
:1013E30012012281EC011201229BEC01120122A6BF
:1013F300EF01120122DEEF01120122E1EF011201DE
:10140300222EF3011201226B7F00120122D47F00EE
:10141300120122DF7F00120122EF7F00120122B5A9
:10142300E0031201220AE10312012278E10312010F
:1014330022E8E1031201227FC303120122A9C3039D
:10144300120122A3C403120122C8C4031201225FA2
:10145300C503120122E1C5031201223B77001201E9
:1014630022F877001201223378001201225B780000
:10147300120122BD780012012209790012012262B1
:101483007900120122F37900120122F57A00120188
:1014930022B27C00120122347D00120122997D00C8
:1014A300120122B07D00120122C07E00120122FE31
:1014B3007E00120122D4EB03120122D9FF02E0665F
:1014C300701008A3E066700A08A3E066700408A31E
:1014D300E06622C3E7960809E7960809E796080934
:1014E300E79622C3E09608A3E09608A3E09608A334
:1014F300E09622C008C3E096F50808A3E0964208E8
:1015030008A3E096420808A3E09645087001D3D0EB
:101513000822080808E630E71112194312152D08AE
:101523000808C64480C618181822181818E9799EA6
:10153300C608CAC608CBC608CCC6C370207996CAEB
:10154300CBCC7019798ECBCC70137986CC700EF915
:10155300802ACA33CACB33CBCC33CC331930E7F22E
:10156300CCCBCA3350147004EA30E00DE4CA3ACA53
:10157300CB3BCBCC3CCC500209C3E913C6CC1823DC
:1015830013C6CB18C6CA18C6F9221215CD20F014FB
:1015930030E72B74FFFCFBFA747F8022E4FCFBFA38
:1015A3007480801AB48008BC00F2BB00EF800F5037
:1015B300EBF9E4C39AFAE49BFBE49CFCE499C6CC04
:1015C30018C6CB18C6CA18C6F922E4C9C608CAC6C3
:1015D30008CBC6D3330308CCC63392F0C3947F4001
:1015E3002E94184019C9B90704CACBCC225025C37D
:1015F30009CA33CACB33CBCC33CC33D9F422F4600E
:101603000DC9CCC313CB13CBCA13CAD9F6CC22E46E
:10161300FCFBFA2214FCFBFA22E6261846184618AD
:101623004622E72719471947194722E60846087053
:1016330009E626087005E633F4220822E70947097C
:101643007009E727097005E733F4220922E6084603
:1016530008C3134608336002E633F422E709470957
:10166300C3134709336002E733F4221216507004A0
:101673001818182212165F700D74FFF61819F61851
:1016830019F61819F622E7548066F612161C700F25
:1016930012162570F014F608F608F608F680D11233
:1016A3001625700CF608F608768008E6447F80EC71
:1016B30012163F700C12162E60BFE65480F6E480BB
:1016C300BB12162E700519191980A5E869700C76DE
:1016D3003F18768018F618F6E8F922E6CDC0E01830
:1016E300ECC0E0E633CD33CDD313F6E719FCE719AD
:1016F3001933CC33C3947F400ECD9D502408E65458
:1017030080F6E418F6800FF4043D14501408E64400
:101713007FF6187680E418F618F6D0E0FCD0E0FDEA
:1017230022CCD313CCFD18E4C6CBC0E018E4C6CA60
:10173300C0E00808ED08C633E613F618E433C675AF
:10174300F003C3CA97CA09CB97CB199C40047D0801
:10175300802EBD000302181716B6FF0506060816ED
:1017630018C3CA33CACB33CB33CA27CA09CB37CB47
:10177300193CC37D08803E187D0820E75CC633C64C
:10178300CA33CACB33CB33DDF1D5F0EB30E77BCAB9
:1017930097CA09CB974ACB199C406F4B7025E6201B
:1017A300E0218066187D08C3CA97CA09CB97CB1975
:1017B3009CD3C633C6CA33CACB33CB3350C9DDE758
:1017C300D5F0E1D3E4C636C608C636C608C636C663
:1017D30008C636C61818188031C3CA97CA09CB97EA
:1017E300CB199CB34097C633C6CA33CACB33CB336A
:1017F300DD34D5F02EC6A2E0C640C8CA27CA09CB3D
:1018030037194A70BECB3CB480B90808E63308E602
:1018130033601F181818D0E0FAD0E0FBD0E0FCD0FA
:10182300E0FD22187D08CA27CA09CB37CB193CD360
:10183300808013F618E4B67F11F618B6FF0EF6187B
:10184300C60470D20808768080CAF618F618F680A7
:10185300C5080808EAC0E0EBC0E086F0E7A4FA1880
:101863000986F0E7A42AFA180986F0E7A42AFA18E9
:101873000986F0E7A42AFA1986F0E7A4FBE5F02A23
:10188300FA190886F0E7A42BFBE5F03AFA19088663
:10189300F0E7A42BFBE5F03AFA18180986F0E7A461
:1018A300C5F02BFBE43AFA1908E7C5F0C6A426F6FF
:1018B300E5F03BFBE43AFA1886F0E7A4F6E5F00816
:1018C30026F6E43B08F6E43A08F6D0E0FBD0E0FA6B
:1018D30022E4CFC0E0E4CEC0E0E4CDC0E0E4CCC07D
:1018E300E075F020E626F608E633F608E633F60858
:1018F300E633F6181818EC33FCED33FDEE33FEEF48
:1019030033FFC3EC9709ED9709EE9709EF97191980
:1019130019400FFFEC97FC09ED97FD09EE97FE19AF
:101923001906D5F0BFECF709EDF709EEF709EFF764
:10193300191919D0E0FCD0E0FDD0E0FED0E0FF2281
:10194300181818E4C396F608E496F608E496F60821
:10195300E496F6226016080808C6C313C618C61311
:10196300C618C613C618C613C6D5E0EA22700908FE
:101973000808226016181818C6C333C608C633C62B
:1019830008C633C608C633C6D5E0EA22E627F608FA
:1019930009E637F60809E637F60809E637F622E0DE
:1019A30026F608A3E036F608A3E036F608A3E036E9
:1019B300F622E026F008A3E036F008A3E036F008AC
:1019C300A3E036F022C3E697F60809E697F608097E
:1019D300E697F60809E697F622C3E096F008A3E037
:1019E30096F008A3E096F008A3E096F022E657F6F7
:1019F3000809E657F60809E657F60809E657F622F6
:101A0300E056F608A3E056F608A3E056F608A3E06E
:101A130056F622E056F008A3E056F008A3E056F08D
:101A230008A3E056F022E066F608A3E066F608A3F2
:101A3300E066F608A3E066F622E0F608A3E0F608FF
:101A4300A3E0F608A3E0F622E6F008A3E6F008A375
:101A5300E6F008A3E6F022E0FAA3E0FBA3E0FCA390
:101A6300E0FD22EAF0A3EBF0A3ECF0A3EDF022E01B
:101A7300F8A3E0F9A3E0FAA3E0FB22E8F0A3E9F07E
:101A8300A3EAF0A3EBF022CAC0E0E6F0A308DAFA77
:101A9300D0E0FA22CAC0E0E0A3C582CCC582C583E8
:101AA300CDC583F0A3C582CCC582C583CDC583DAFA
:101AB300E6D0E0CA22C3E498F8E499F9121AF9804F
:101AC30026C3E49AFAE49BFBE920E7E9121AF9E456
:101AD30098F8E499F922C3E498F8E499F9121AF909
:101AE300E498F8E499F9C3E49AFAE49BFB22EB2027
:101AF300E7CFE920E7E0B90010BB0008E88AF084EB
:101B0300F8AAF022E4FBC8FA22EB70227B10C83358
:101B1300C8C933C9335007C39AC3DBF280069A504E
:101B2300012ADBEAC833F4C8C933F4C9FA2275F0D1
:101B330008E4C833C8C933C933C99AC99B5004C917
:101B43002AC93BD5F0ECFBC833F4C8E4C9FA2260D8
:101B53000D08C6A2E713C618C613C6D5E0F3226064
:101B63000C08C6C313C618C613C6D5E0F422700406
:101B730022600D18C6C333C608C633C6D5E0F418B1
:101B830022252110AF08F521400C15228008F521EC
:101B930040021522D2AF2200C0D0252110AF08F594
:101BA30021500C05228008F52150020522D2AFD026
:101BB300D0222521F58210AF08F521400C15228093
:101BC30008F52140021522D2AF852283222521F573
:101BD30082E43522F583222521F8E43522F92225F2
:101BE30021FAE43522FB222521FCE43522FD22E4FF
:101BF300732521C582C0E0E52234FFC583C0E0E53B
:101C030021C3958224F810AF088583228582218021
:101C130008858322858221D2AFCEF0A3E520F0A3ED
:101C23007808E608F0A3DEFAEFF0A3E58124FAF8DA
:101C3300E608F0A3E608F0A3E608F0A30808E60820
:101C4300F0A3E608F0A315811581D0E0FED0E0F8FB
:101C5300158115811581E8C0E0EEC0E0222521C57C
:101C630082C0E0E52234FFC583C0E0E521C395824D
:101C730024F910AF08858322858221800885832279
:101C8300858221D2AFCEF0A3E520F0A37808E60841
:101C9300F0A3DEFAEFF0A3E58124FBF8E608F0A356
:101CA300E608F0A30808E608F0A3E608F0A3158108
:101CB3001581D0E0FED0E0F815811581E8C0E0EE93
:101CC300C0E022852283852182E0A3FEE0A3F520E4
:101CD3007808E0A3F608DFFAE0A3FFE0A3C0E0E0A2
:101CE300A3C0E0E0A3C0E0E0A3C0E0E0A3C0E01035
:101CF300AF088582218583228008858221858322FE
:101D0300D2AFD083D08202011F852283852182E056
:101D1300A3FEE0A3F5207808E0A3F608DFFAE0A32A
:101D2300FFE0A3C0E0E0A3C0E0E0A3C0E0E0A3C005
:101D3300E010AF0885822185832280088582218572
:101D43008322D2AFD083D08222C0D02521C582C0C6
:101D5300E0E52234FFC583C0E0E521C3958224F387
:101D630010AF08858322858221800885832285829E
:101D730021D2AFC8F0A3E9F0A3EAF0A3EBF0A37973
:101D830008E709F0A3D8FAECF0A3EDF0A3EEF0A373
:101D9300EFF0A3D0E0F0A3D0E0F0A3D0E0F0A3E510
:101DA30020F0A3E5F0F0A322852283852182E0C001
:101DB300E0A3E0F9A3E0FAA3E0FBA37808E0F608C8
:101DC300A3DFFAE0FCA3E0FDA3E0FEA3E0FFA3E0B2
:101DD300C0E0A3E0C0E0A3E0F5D0A3E0F520A3E0DA
:101DE300A3F5F010AF0885832285822180088583BF
:101DF30022858221D2AFD082D083D0E0F8D0E032E6
:101E030074048006740280027401C0E0F404121B9F
:101E1300B5D0E0121A8A227404800474028000CCC4
:101E2300C0E0EDC0E0E521C39CCCAD2250011D1004
:101E3300AF068C218D2280068C218D22D2AF121AFF
:101E430097D0E0FDD0E0FC22D083D082E9C0E0E46B
:101E530093A3C386F0C5F095F0F908E493A386F045
:101E6300C5F095F0700BE493A3C3994005E9048092
:101E730002A3E475F002A42582F582E5F03583F52B
:101E830083D0E0F9E493A3C0E0E493C0E022D083DD
:101E9300D082ECC0E0EDC0E0E493A3FCE493A3FDA7
:101EA300ED4C600D121EDDEC24FFFCED34FFFD80D4
:101EB300EFE493A3FCE493A3FDED4C600D121F1C10
:101EC300EC24FFFCED34FFFD80EFD0E0FDD0E0FC1F
:101ED300E493A3C0E0E493C0E022C0E0C3E493969C
:101EE300087401939618400FE49366700808740110
:101EF30093661870007019A3A3C3E4939608740142
:101F0300939618A3A3400DD0E0D0E0D0E0021ECDFD
:101F1300A3A3A3A3A3A3D0E022C0E0C0F088F0E46E
:101F2300936670080874019366187000A8F0A3A361
:101F3300700BD0F0D0E0D0E0D0E0021ECDA3A3D050
:041F4300F0D0E022D8
:101F480074F6121C60EAFEEBFF8C088D09EE24344F
:101F5800F8E43FF9E8FCE9FDEE243512223DFAEEFB
:101F6800243712223DF88508F0A4C885F00A8509AF
:101F7800F0A4250AF9EA28F8E439F97A257B001251
:101F88001AF9EA8C828D83F0FA131313541FF8EEB2
:101F980028F8E43FF9E8245DF582E439F583E0C0E8
:101FA800E074075AF8D0E0B800028004C313D8FCE4
:101FB800A2E0EE50082434F582E43F80182436125B
:101FC800223DF5F0EA84A8F0EE28F8E43FF9E82489
:101FD80038F582E439F583E0F97F03021D0C74F7C4
:101FE800121C60EAFEEBFFEE243412223DC0E0EE44
:101FF8002435F582E43FF583D0E0F08E828F83A309
:10200800A3A3A3A3A3A3C082C0838E828F83A3A309
:10201800A3A3A31220AED083D082E0C398F508A36F
:10202800E099F509EE247F12223D6401705DEE24EB
:10203800801220A88E828F83A3A3A3A3A3A3A31295
:1020480023E08E828F83A3A3A3A3A3E0FAA3E0FBDC
:10205800C3EA9CEB9D5010C3EC98ED99402DC3EA60
:1020680098EB995026800EC3EA98EB994007C3EC89
:1020780098ED9940167CBD7D06EEFAEFFB120B1326
:10208800EE247FF582E43FF583E4F0AC08AD09EE79
:10209800FAEFFB121F48E9F91227AB7F02021D0C69
:1020A800F582E43FF583E0F8A3E0F92274EF121C0F
:1020B80060900369E064086005E06407702A906135
:1020C800C8E06024900397E0F4601DE0F875F00C18
:1020D800A4C8AAF02AF9749928FE740339FF8E82DD
:1020E8008F83A3A3A3E070030221C2906060E0C0C5
:1020F800E0EE2468F582E43FF583D0E0F0750CF952
:10210800750D06750800750900E5D914F50AE5D9B5
:102118005403F50E60127403650E6043E50A600A05
:10212800EE246712223D700280759006F4E0640187
:10213800601F12223A60047A0480027A00E50AC31A
:102148009AFA95E0FB1209BD8A088B09EA450970DD
:1021580005120D95806412223A70048A0C8B0DE5E5
:102168000A6012850C82850D83F50BE5D9F0A3155D
:102178000BE50B70F612223A604474FC250AF50A46
:10218800780C121E07AC0AA90EEEFAEFFB120BD957
:102198007402121B9AE97026AA08AB091214257951
:1021A8003D8E828F83A3A3A3A3E0FA7B0012083796
:1021B800EEFAEFFB120B37120C397900806F7403BB
:1021C800650E6051850A107511007810121E07AC53
:1021D8000CAD0DAA08AB09120B9D7402121B9AEEE6
:1021E800246812223D64807004747F8001E0F50C3D
:1021F800780C121E0BE50EF50C780C121E0BA90AB2
:10220800AC08AD09900397E0FA7B00120807740246
:10221800121B9A8013900369E06408700BAC0CAD34
:102228000DEEFAEFFB120C09120DA179017F0A02DB
:102238001D0CEE2482F582E43FF583E02274F2124D
:102248001C6074FC121B84EAFEEBFF8909A2AFE450
:1022580033F508C2AF022301E0601B780C121E0799
:10226800AC0BA90EEEFAEFFB120BD37402121B9AF9
:102278007404250BF50B7401250BF5D9850ED9E5EA
:102288000B6018F50A850C82850D83E0F5D9A385C6
:10229800820C85830D150AE50A70EA75E195EE242E
:1022A80063F8E43FF97A007B00A2AFE433F50BC290
:1022B800AF1223DCEC4D603288828983E0FAA3E018
:1022C800FB8A828B831223E088828983ECF0A3ED5A
:1022D800F08A828B83E4F0A3F01223DCEC4D700AC1
:1022E80088828983A3A3E4F0A3F0E50BA2E092AF70
:1022F8001214259006C4E004F0EE24631220A8E826
:10230800496064EE246312223D2402F8A3E03400FD
:10231800F988828983E5822402F50CE43583F50D7A
:10232800E0F50BA3E0F50EEE246212223D64017085
:10233800369061D0E0F812223A60047C0480027C76
:10234800007480C398FA95E0FBE50B2CF8E43400A0
:10235800F9E82402F8500109C3EA98EB99A2D2657A
:10236800D03340030222609006C4E0604D9006C559
:10237800E0F89006C4E0C398500C74026509703AFE
:102388009006C6E060348E828F83A3A3A3A3E08562
:1023980021828522831223D27402121BD0E81223D1
:1023A800D29006C3E028F07402121BEAAA21AB22DD
:1023B80079011208619006C4E4F0E508A2E092AF42
:1023C8007404121B9A7F07021D0CF0A3E4F0900618
:1023D800C4E0F82288828983E0FCA3E0FD220000A3
:1023E8008523878524C622C0E074EB121D4CA2AF5A
:1023F800E433F508C2AF759B00906182E0A2E0501B
:1024080030E591A2E0502A7591FE74016523702190
:10241800122582120CC9122570121E1A1226E77490
:1024280004121B9AE9640170057901120CF9122053
:10243800B4906182E0A2E5505DE591A2E550577540
:1024480091DF900369E064076005E06408702F126B
:10245800258274016523703E120CC9122570121E64
:102468001A1226E77404121B9AE9640170057901AF
:10247800120CF97901EEFAEFFB1222458018E0649C
:102488000D701390038BE004F064287002E4F07A76
:1024980000E0F9120DA7906182E0A2E64003022550
:1024A80045E591A2E640030225457591BF90036971
:1024B800E064057008120CB1120CBD8003120CB751
:1024C800752300120D17E990036AF07900120CF9D0
:1024D800120A7D7A017B00900368E0F9120FFF90E1
:1024E8007803E0644270569006F8E014F0704EC22B
:1024F800AF1224FC007826D0E0F618D0E0F6E59F6D
:102508005407F87005750DFF8003750D7FC4C0E092
:102518007825E6F50A08E6550DF50B740B780A12CE
:102528001B62D0E0250AF8906270E0A2E740F8E864
:10253800C333906272F0906270E0D2E0F0906181F3
:10254800E0A2E35009E5E9A2E3500375E9F7A3E047
:10255800A2E75009E591A2E7500375917FE508A22B
:10256800E092AF7F08021DAB8E828F83E0F8A3E074
:10257800C82416F582E438F58322900397E0F875AD
:10258800F00CA4C8AAF02AF9749928FE740339FF3C
:1025980022C0E0C0D0C082C083906183E0A2E05036
:1025A80009E5BFA2E0500375BFFEE0A2E15009E5CE
:1025B800BFA2E1500375BFFDE0A2E25009E5BFA24A
:1025C800E2500375BFFBE0A2E35009E5BFA2E35068
:1025D8000375BFF7E0A2E45009E5BFA2E450037514
:1025E800BFEFE0A2E55009E5BFA2E5500375BFDFE4
:1025F800E0A2E65009E5BFA2E6500375BFBFD0834D
:10260800D082D0D0D0E032C0E074F2121D4CE5A7E1
:10261800A2E6500FE5A1A2E6500953A7BF75A1BFD6
:10262800122663E5A7A2E5500CE5A1A2E5500653E2
:10263800A7DF75A1DFE5A7A2E15009E5A1A2E15056
:102648000375A1FDE5A7A2E2500CE5A1A2E25006A0
:1026580053A7FB75A1FB7F01021DAB74F7121C6029
:10266800752301900369E064067015120C5D8A8277
:102678008B83A3A3A3A3A3A3E0FAA3E0FB120C9F5D
:10268800A2AFE433FED2AF90036FE0640170187A12
:10269800207B00900368E0F912108F7A207B00906D
:1026A8000368E0F9121005906182E0D2E6F0900626
:1026B800F5E0602185C624801690036EE064017001
:1026C80008E5C654F84405F5C653BEFC1223E87461
:1026D80001652360E4EEA2E092AF7F02021D0C7454
:1026E800F1121C608A088B098C0A8D0B908EAC78CD
:1026F80008121A03740F121BD0780C121A3C908E11
:10270800AC780C121A037808790C1214D6908EB093
:1027180050107808790C1219C878081214F6401469
:10272800800E780C79081219C8780C1214F6500427
:102738007901800279007F08021D0C74ED121C607B
:102748008A088B098C0A8D0B908EAC7808121A03B4
:102758007413121BD0780C121A3C908EAC780C12A1
:102768001A03780C79081214D640117808790C12DB
:1027780019C8AA08AB09AC0AAD0B80227510007500
:1027880011007512007513017810790C1219C878A8
:1027980010790812198FAA10AB11AC12AD137F0C67
:1027A800021D0CC082C083E9906000F0D083D08203
:1027B80022C2AF02000022C0E074F2121D4CA2AF88
:1027C800E433FED2AFC2C0E5D1A2E4500653D1EF44
:1027D800121395EEA2E092AF7F01021DABC0E07428
:1027E800F2121D4CE5A8FED2AF1212BDC2EBEEA24A
:1027F800E7A2E792AF7F01021DABC0E0C0D0E8C0FE
:10280800E0E9C0E0E5A8D2AFC2C7A2E7A2E792AF6D
:10281800D0E0F9D0E0F8D0D0D0E032C0E074F212C5
:102828001D4CA2AFE433FCD2AF901BC0E0F8A3E08C
:10283800F9A3E0687003A3E069700A539AFB901B40
:10284800C474018039C2E9901BC0E0F8A3E0F9E83C
:102858002401FAE439FB901BC0EAF0A3EBF07430D2
:1028680028F582741A39F583E0F5C1901BC0C3E0DE
:102878009490A3E094014007901BC0E4F0A3F0EC0F
:10288800A2E092AF7F01021DAB02011FFFFFFFFF15
:10289800FFFFFFFFC082C083E9901CDCF0D083D02B
:1028A8008202011F74F6121BF4E99002DCF0900317
:1028B8003BE0F50875090074027808121B71AA0834
:1028C800AB0912103B9002DD12325F9002DD123626
:1028D8004C606F90033BE075F003A4FAABF0121064
:1028E8003B9002FA12325F9002FA12364C700B904B
:1028F80002DD12361D12104180489002FA1245B1CD
:102908007AFF7BFF1212217A0080198A0875090064
:1029180074027808121B7112405974FF122A5FE47E
:10292800F0A3F00A90033BE0F8EAC39840DD79058C
:102938001206FF9002DCE0F91205EB7A897B071298
:10294800095D0240FC74F4121BF48A088B09EB54ED
:102958008060479002DCE0F9120FE78A0A8B0BAE21
:102968000AAF0BEE4F602A8E828F83E064B0701A34
:10297800120711E960148E828F83A3A3A3A3E0F941
:10298800EE2405FAE43FFB1206E1EEFAEFFB120F24
:10299800D5AA08E5096480FB80047A007B00022B35
:1029A800AF74F2121BF474FB121B84EAFEEBFFEE09
:1029B8004F60457403121BD0EEF0A3EFF08521821F
:1029C800852283ECF0A3EDF07402121BD0E9F0AA83
:1029D80021AB221205E5E9F50870757413121BD0B6
:1029E800E0F50AA3E0F50BE50A450B60638E828FDC
:1029F80083122FE8EE4F700575080280537A067B24
:102A08000012103B8A0C8B0DA80CA90DE849700523
:102A1800750813803B88828983E4122A5FEEF0A34D
:102A2800EF122B7BE50AF0A3E50BF09002E0122BE6
:102A3800749002E06017E0FCA3E08003EAFCEBFD81
:102A48008C828D83122B7470F38C828D83123C746C
:102A5800A9087405024831F0A3124593A32274F221
:102A6800121BF48908890C750D007403780C121B6D
:102A780071850C0A850D0B9002DFF09002DD123A89
:102A88007F122B72602E1210417900801D890C75FF
:102A98000D007402780C121B719002DD123F188829
:102AA80082F583A3A3E4F0A3F00990033BE0F8E9DF
:102AB800C39840D990033BE0FA850AF0A4CAA8F06D
:102AC800850BF0A428FB12103B8A0C8B0DAE0CAFC3
:102AD8000DEE4F7003022B6890033BE0FC850AF073
:102AE800A4CCA8F0850BF0A428FD7900120FC37CB4
:102AF8000080318D0C750D007403780C121B718ADF
:102B0800828B83122B6D88828983E4F0122B7AA33F
:102B1800A3F0A3F00DEDC3950840D8EE250AFEEF0B
:102B2800350BFF0C90033BE0F8ECC39850288C0C55
:102B3800750D007402780C121B719002DD122B6D5A
:102B4800E82402500109FAE9FB8A828B83EEF0A39C
:102B5800EFF07D0080BFE5089002DFF07900800289
:102B68007913024834123F1CF922A3A3123621EA32
:102B78004B22A3124593A3A3A32274F4121BF47946
:102B880000EAA2E0501F75084275098E7808121EE7
:102B98000779107C047D007ADE7B1C1206F974022A
:102BA800121B9AE9F980007F04021CC6C082C08308
:102BB8009002E012364C601C88828983A3A3E06AE5
:102BC8007003A3E06B8882898370E8A3A3A3A31290
:102BD800361D80047A007B000228A574F2121BF4CB
:102BE80074FD121B84EAFEEBFF852182852283E4B3
:102BF800F0A3F07402121BD07401F012364970145D
:102C08001208AF12103B9002E312325F123649707D
:102C180003022D7512335FEE2404F50AE43FF50B29
:102C2800850A82F583E024FE603C24FC607424FE5F
:102C3800607E24FE7003022CC524FE7003022CD291
:102C480024FE7003022CDF24FE7003022CEC24FE09
:102C58007003022CF924FC7003022D1A24FE700361
:102C6800022D32022D6E1208AF9002E5EAF0A3EBB6
:102C7800122D8112025BE96003022D6E9002E512AB
:102C88001E1E8E828F83A3A3A3A3A31245B185081A
:102C98008285098312361D1206C97402121B9A0214
:102CA8002D6EAC21AD22EEFAEFFB120717022D3D77
:102CB800AC21AD22EEFAEFFB12071D8078AC21ADF6
:102CC80022EEFAEFFB120723806BAC21AD22EEFA5D
:102CD800EFFB120729805EAC21AD22EEFAEFFB1262
:102CE800072F8051AC21AD22EEFAEFFB1207358099
:102CF800447402121BDA880C890D780C121E0774B2
:102D080002121BEAEEFAEFFB12073B7402121B9A3F
:102D18008023AC21AD22EEFAEFFB120741E9F870EF
:102D2800167402121BD0E4F0803CAC21AD22EEFAFE
:102D3800EFFB120747E9F8E8602C8E828F83A3E047
:102D480064146022850A82850B83E09002E5F08591
:102D5800218285228312361D9002E612325FE8A393
:102D6800122D81120255EEFAEFFB12069F74021221
:102D78001BD0E0F97403024831F07CE57D02850838
:102D8800828509831236212274E8121BF474FA1220
:102D98001B847404121BD0ECF0A3EDF08A128B1381
:102DA800EA2405F50EE43513F50FEA2402F510E4DC
:102DB8003513F511851082F58312361D1203938A97
:102DC8000A8B0B7508007C037D0079007AE57B028D
:102DD800120FC3E50E2402F516E4350FF517740239
:102DE800121BDA880C890D780C121E07850E828555
:102DF8000F83A3A3A3A3E0F50C750D00780C121E96
:102E080007E50E2405F50CE4350FF50D780C121EB8
:102E18000785168285178312392412060374061251
:102E28001B9A8A0C8B0DE50C450D7003022FB1809F
:102E380020852182852283E088828983F0050885A0
:102E48002182852283A3E0C0E0122FF2D0E0F005B2
:102E580008E50A24FBFAE50B34FFFBC3E5089AE40E
:102E68009B4003022FB17E007F0085128285138369
:102E7800A3A3A3A3E0F5097809121E0BE4F514F542
:102E8800157814121E077514E27515027814121EAF
:102E9800079002E3121E1E7409121BD0121E1EE5B3
:102EA8000A24F9F9AC0CAD0D851082851183123610
:102EB8001D1207717409121B9AE96003022F5285CB
:102EC8000E82850F83A3A3A3A3A3A3A3E0F8900274
:102ED800E2E0687075E0F5148E157814121E07127A
:102EE80045AE850E82850F83A3A3A3A3A3A3A3A3A3
:102EF80012361D120FBD7402121B9AE9604C900223
:102F0800E612364C703BE4F5147814121E077CFF69
:102F18007DFF790785108285118312361D1206DB25
:102F28007402121B9A1236527017850E82850F830F
:102F380012474B7404121BD012400C123955022F41
:102F4800E5850C82850D83122FE8A821A922881413
:102F580089157814121E077404121BD0121E1E85C0
:102F6800168285178312325512060F7404121B9AA3
:102F78008A0C8B0DEE4F7003022E2E122FF2EE12DA
:102F88002FFD12390BEF122FFDF8A3E03400F9E5FD
:102F98000C450D6003022E398882898374FFF00581
:102FA80008122FF274FFF00508E508601A1313548D
:102FB8003F123265120267E960099002E612361D77
:102FC80012142579008016850E82850F8312474BCF
:102FD8007404121BD012400C123C74790A0238DEB9
:102FE800A3A3A3A3E0FEA3E0FF22A8089002E6E0C3
:102FF8002812390B22F00508089002E6E02822740E
:10300800E8121BF474FA121B847402121BD01232D9
:103018005F7404121BD0ECF0A3EDF07402121BD005
:10302800E024051238F4E0F50CA3E0F50D74021263
:103038001BD0E02402F510A3E03400F511851082BE
:10304800F58312361D120393750800750900EA24EA
:10305800FCFEEB34FFFF8008050CE50C7002050D43
:10306800A808C3EE98EF94005003023211A821A9D2
:1030780022880E890F780E121E0785148285158303
:10308800A3A3A3A31245B5121E07E5142405F50E44
:10309800E43515F50F780E121E0785148285158301
:1030A8001232531206037406121B9A8A0E8B0FEA09
:1030B800450F7003023211EA2404F516E4350FF5C2
:1030C80017851682F583E0F50CA3E0F50D852182BE
:1030D8008522831245B18A828B83A3A3A3E0F98555
:1030E800108285118312361D1205F1E9F509600376
:1030F8000232117402121BD012391BF50978091219
:103108001E0BE4F512F5137812121E077512E275FC
:1031180013027812121E079002E3121E1E74071281
:103128001BD0121E1EEEF9AC0EAD0F851082851154
:103138008312361D1207717409121B9AE9F509608A
:1031480003023211E508703FE4F50EF50F780E1210
:103158001E077CFF7DFF7909851082851183123651
:103168001D1206DB7402121B9A123941700D740489
:10317800121BD012324879110232459002E2E02443
:10318800029002E6F080149002E6E0FA9002E2E093
:10319800790024025001096A497072A8089002E275
:1031A800E0FAE82AFAE43400FBEE9AEF9B405A85ED
:1031B8001682851783E0C0E09002E7122FF7D0E06F
:1031C800F00508851682851783A3E0C0E008900201
:1031D800E7122FF7D0E0F005089002E21245B51289
:1031E8001E071245AEA8081238E8120FAB74021277
:1031F8001B9A9002E2E02508F50874FF650C70043C
:1032080074FF650D6003023060E508601F9002E6F8
:10321800E0F5F0E5088412326512026DE960099064
:1032280002E712361D12142579008011E509700392
:1032380075090A7404121BD0123248A9090238DE33
:10324800123A83E50CF0A3E50DF022A3A31248403F
:10325800AA0CAB0D22A3A3EAF0A3EBF0229002E59F
:10326800F07CE57D02851082851183123621227457
:10327800EC121BF474FC121B84123D847402121BA2
:10328800EA1236171206098A0C8B0DEA450D7003EF
:1032980002334F12335FA821A922881089117810B0
:1032A800121E077CFF7DFF790B8508828509831232
:1032B800361D1206DB7402121B9A123455700C85E7
:1032C8000A82850B8312395202335C8E828F83A364
:1032D800A3A3A3E0F5127812121E0BE4F512F5135E
:1032E8007812121E077512E57513027812121E075E
:1032F8007810121E077409121BD0121E1E740912B0
:103308001BD0E0F9AC0CAD0D850882850983123617
:103318001D1207717409121B9AE9FE70157CE57D70
:103328000285088285098312361D120273E9700925
:10333800802074166E70027E009002E612361D120E
:103348001425EE7004800B7E01850A82850B83129A
:103358003C71EEF9023C86EE2402F508E43FF509DB
:103368002274EC121BF474FC121B84EAFEEBFF8C33
:103378000E8D0FEE2405F508E43FF5097402121BC3
:10338800EA85088285098312361D1206098A0C8B84
:103398000DEA450D7003023445EE2402F50AE43FB8
:1033A800F50BA821A922881089117810121E077C14
:1033B800FF7DFF790D1236171206DB7402121B9A75
:1033C800123455700B850882850983123952807A28
:1033D8008E828F83A3A3A3A3E0F5127812121E0B8B
:1033E800850882850983A3A3121E1E7512E575132D
:1033F800027812121E077810121E077409121BD0C9
:10340800121E1E7409121BD0E0F91236131207712E
:103418007409121B9AE9FE700F7CE57D02123617BB
:10342800120279E97009802074166E70027E00908D
:1034380002E612361D121425EE7004800B7E0185FB
:103448000882850983123C71EEF9023C8612365CCB
:10345800F510A3E0F511EA45112274E8121BF47483
:10346800FE121B848A168B178C148D15EA2405F519
:103478000CE43517F50DEA2402F50EE43517F50FBF
:10348800850E82F58312361D1203938A088B0975FF
:103498000B007C037D0079007AE57B02120FC3756F
:1034A8000A00E50814F5100424FFF508E50934FFBF
:1034B800F50980549002E5E0FA9002E2E0F8EA2883
:1034C800F8E43400F9E50898E50999500D9002E50B
:1034D800E0F8E510C3989002E2F0E0F512751300E9
:1034E8007812121E071245AE9002E6E02AFAA3E00F
:1034F8003400FB120FAB7402121B9A9002E2E0F840
:103508009002E5E028F0050A850C82850D83A3A3C7
:10351800123F2840030235F89002E5E0C39508E41D
:10352800950940030235F8AE0AEE2EFEE433FF1289
:103538003637AC21AD221245C9E439FB1206098A97
:10354800128B13AC12AD13EC4D701B750B011236B8
:1035580027123C759002E6122B746003121425A9F9
:103568000B74020238E0851682851783A3A3A3A3F0
:10357800E0F50B780B121E0BE4F512F51378121216
:103588001E077512E27513027812121E079002E3E5
:10359800121E1E7407121BD0121E1EA910850E8241
:1035A800850F8312361D1207717409121B9AE9F5EB
:1035B8000B709B9002E612364C60030234BCE4F5B3
:1035C80012F5137812121E077CFF7DFF790F850E06
:1035D80082850F8312361D1206DB7402121B9A12A3
:1035E800365260030234BC12362712395602356946
:1035F8007CE57D02850E82850F8312361D12027FBF
:10360800E9600302355C7900023569AC0CAD0D85C3
:103618000A82850B8312362122E0FAA3E0FB2212EC
:103628003637E0FAA3E0F9EA851482851583228506
:103638000C82850D83E02EF8A3E03FF98882898308
:10364800229002E312474FE8492212365CF8A3E0C1
:10365800F9E849229002E6EAF0A3EBF09002E6E0EE
:103668002274E8121BF474FA121B847404121BD01F
:1036780012325F8C168D177404121BD0E02405F5E6
:103688000EA3E03400F50F7404121BD0E0240212DC
:1036980038F412361D1203938A0A8B0B7F007E00C2
:1036A800A821A922880889097808121E07850E8290
:1036B800850F83A3A3A3A3E0F5088E097808121E3B
:1036C80007E50E2405F508E4350FF5097808121EFC
:1036D80007850E82850F83A3A3123924120603746B
:1036E80006121B9A8A0C8B0D8029123915F00F12BD
:1036F8003915F00F9002E2123C60121E071245AE17
:10370800EFF81238E8120FAB7402121B9A9002E21B
:10371800E02FFFE50C450D70030237A48521828553
:103728002283123D96A3A3A3E0F98514828515830D
:1037380012361D1205F1E9FEE50C2404F510E435F6
:103748000DF511EE70507404121BD012391BF508D8
:103758007808121E0BE4F508F5097808121E07759B
:1037680008E27509027808121E079002E3121E1E6D
:103778007407121BD0121E1EE50A24FAF9AC0CAD10
:103788000D85148285158312361D1207717409126E
:103798001B9AE9FE6039123931123C74EF7003024A
:1037A80038CB9002E6E0F5F0EF849002E5F07CE596
:1037B8007D0285148285158312361D120285E96003
:1037C800099002E712361D12142579000238DE8F9F
:1037D80008EF703BE4F512F5137812121E077CFF10
:1037E8007DFF791185148285158312361D1206DB3B
:1037F8007402121B9A123941700912393112395563
:103808000238DE9002E2E024049002E6F08035906F
:1038180002E2E0F89002E6E0FAE82404FCE434006E
:10382800FDEC6A4D60030237AAE50A24FAFAE50BB3
:1038380034FFFBE50828F8E43400F9EA98EB9950DE
:10384800030237AA851082851183E0C0E09002E761
:10385800E02FF8A3E034008882F583D0E0F00F85EC
:103868001082851183A3E0C0E0123902D0E0F00F86
:103878007402121BDA880889097808121E07740274
:10388800121BD0121E1E850E82850F831232531210
:10389800060F7404121B9A8A0C8B0DEA450D7003EF
:1038A8000236F27402121BD0E0C0E0123902D0E0F6
:1038B800F00F7402121BD0A3E0C0E0123902D0E06E
:1038C8000236FAEE70027E0A850E82850F8312395F
:1038D80037123C74EEF97406121B9A7F10021CC64C
:1038E8009002E7E028FAA3E03400FB22F514A3E0F5
:1038F8003400F515851482F58322123906229002C8
:10390800E7E02FFAA3E034008A82F5832212390611
:1039180074FF22123A83A3A3A3A3E022124840858E
:103928000E82850F8312362122851082851183121B
:10393800474F851682851783229002E7EAF0A3EBAA
:10394800F09002E712474FE84922123C7AE8F0A3C8
:10395800E9F079112274EA121BF474FE121B848AAE
:10396800088B098C128D13EA2405FEE43509FFAC97
:1039780021AD228E828F8312361D1206098A0C8B86
:103988000DEE2406F50EE43FF50FEA450D7003022F
:103998003A55E5082402F50AE43509F50B8A828BC5
:1039A80083A3A3A3E0A2E550288521828522831260
:1039B800361D1207658A108B11EA451160207912AD
:1039C800123613851082851183121BF2E9F50C70EB
:1039D8007F850E82850F83E0600979528011750C0E
:1039E8000E806D850882850983A3A3A3A3E0F9E46B
:1039F800F508F5097808121E078E828F83A3A3E0C5
:103A0800F5087808121E078E828F83A3A3A3121EBF
:103A18001E8E828F831245B11236171207777406ED
:103A2800121B9AE9F50C7011850E82850F83E070E0
:103A38002D12361712028B80257416650C701175BD
:103A48000C007418121BD0123A7FE48010750C0118
:103A5800124747851282851383E8F0A3E9F0850EA3
:103A680082850F83E0600479008002A90C74021239
:103A78001B9A7F0E021CC6123A8322E0F8A3E0F5D7
:103A88008388822274EC121BF474F7121B848A0A4E
:103A98008B0B8C108D11EA2405FEE4350BFF750C99
:103AA80000AC21AD228E828F8312361D1206098A40
:103AB800088B09EA45097003023C4BE50A2402F524
:103AC8000A5002050B8A828B83A3A3A3E0A2E550C8
:103AD8002F85218285228312361D1207658A0C8B59
:103AE8000DEA450D604F7912AC08AD0912361785FD
:103AF8000C82850D83121BF2E9F50C6003023C4E23
:103B0800850A82850B83E0F508A3E0F509AA08FB7E
:103B1800120759EA4B70197AFF7BFF120759EA4BD3
:103B28007003023C418A828B83E508F0A3E509F023
:103B38007508008008750C0E023C4E05089002DFDF
:103B4800E0F8E508C3984003023C4185080E750F6C
:103B5800007403780E121B718A828B83A3A3E0255D
:103B68000EF8A3E0350F12401570D08E828F8312A5
:103B78003C6912325F8E828F83A3A3123C69123292
:103B88005DEE2404F508E43FF509850882F583E035
:103B980088828983A3A3A3A3F0A3E4F0EE2405F508
:103BA8000EE43FF50F850E82F583123C69A3A3A3AB
:103BB800A312325D7512077513007812121E07EEF4
:103BC800FCEFFD7404121BE2120FAB7402121B9A75
:103BD800E4F5127812121E07850882850983E0FC35
:103BE8007D0079171236171206DB7402121B9A74BD
:103BF80007121BD012325F7407121BD0E0FA4B6019
:103C08003D850882850983123C60121E07850E8255
:103C1800850F831245B1120FAB7402121B9A7402FE
:103C2800121BEA123617120291E960267407121B5A
:103C3800D012361D1214258019750C098008750CD0
:103C4800118003750C011247478510828511831274
:103C58003C74A90C74098028E0F5087509007808F7
:103C6800221236218882898322123C7AE8F0A3E95D
:103C7800F022E0F8A3E0F9850E82850F8322740410
:103C8800121B9A7F0C021CC674EC121BF4123D84A2
:103C9800751000EE2402F50CE43FF50D850C82F555
:103CA8008312361D1207598A088B09EA45097003E1
:103CB800023D68850A82850B83E064016003023D4A
:103CC8005DAC08AD09AA0AAB0B12074DE9606E8519
:103CD8000882850983122FEAEE2406F50AE43FF5E7
:103CE8000B8E828F83A3A3121E1E8E828F83A3A3A3
:103CF800A3A3121E1E850A82850B83121E1E791825
:103D08008E828F83123D9612361D12077774061223
:103D18001B9AE9F8741668700B850A82850B83E490
:103D2800F0A38014E860128E828F8312361D850EF0
:103D380082850F83EAF0A3EBF088108018780E12C2
:103D48001E07AC08AD09EEFAEFFB12075374021216
:103D58001B9AE9F510AA08AB0912075FE510700E67
:103D6800850C82850D8312361D1202978009741600
:103D780065107003751000A910023C8BEAFEEBFF7A
:103D88008C0E8D0FEE2405F50AE43FF50B22124840
:103D980040850C82850D832274EA121BF475080095
:103DA8007509007E007F00750A00EC2402F510E416
:103DB8003DF5118035EC65087003ED650960030277
:103DC8003E5588828983A3A3E06A7003A3E06B70E1
:103DD8007C88828983A3A3A3A312474BEE28FEEF16
:103DE80039FFEA28FAEB39FB050A123F25503A85D4
:103DF8000A0C750D007403780C121B7185108285EE
:103E08001183123F18124015601FE508450970A577
:103E18008C088D0988828983122FE888828983A378
:103E2800A3E02EFAA3E03F80BEE50AC39402500344
:103E3800023F13750800750900EE4F6010EEFAEFA7
:103E4800FB12141F8A0E8B0FEA450F7005790002CA
:103E58003F15750B00023EE8850B0C750D007403C9
:103E6800780C121B71851082851183E0250CF50CE6
:103E7800A3E0350DF50DE50C2406F514E4350DF534
:103E880015851482F58312401A6042E50C2404F566
:103E980012E4350DF513851282F583121E1EE50E08
:103EA8002508FAE50F3509FB120FAB7402121B9AAD
:103EB800851282851383E02508F508A3E03509F506
:103EC8000985148285158312361D121425E50B60A9
:103ED8000D7C087D007900AA0CAB0D120FC3050BF1
:103EE800E50BC3950A5003023E6085108285118355
:103EF80012474B88828983A3A3A3A3A3A3E50EF04B
:103F0800A3E50F122B7BEEF0A3EFF07901023A7ACA
:103F1800123F1C22E0250CF8A3E0350D229002DFA9
:103F2800E0F8E50AC3982274F0121BF48A0E8B0F8E
:103F38008C0A8D0B750D00750C0080507916EE24D7
:103F480006F508E43FF5098E828F83A3A3121E1E8F
:103F58008E828F83A3A3A3A3121E1E8508828509C0
:103F680083121E1E850E82850F83A3A312361D128F
:103F780007777406121B9AE9F50D7416650D706CB7
:103F8800850882850983E4F0A3F0050C9002DFE040
:103F9800F8E50CC3985066AA0C8A087509007403E2
:103FA8007808121B71850A82850B83A3A3124064CB
:103FB800E8FEE9FF8E828F8312401A6040EA2401EE
:103FC800F508E43400F5099002DFE065087002E5C1
:103FD80009601488828983A3A3A3A3A3A3A3A3121C
:103FE800364C6003023F447918023F46E9609B1251
:103FF80047477410121BD012400C123C74A90D7F55
:1040080008021CC6E0FAA3E0F5838A8222F98882B6
:104018008983124840EC4D2274F6121BF47C008010
:10402800010C90033BE0F8ECC398501E8C0875090E
:104038000074027808121B71124059E06A7003A3D9
:10404800E06B70DDE8FAE9FB80047A007B0002404F
:10405800FC9002DD1240648882898322E02508F8FA
:10406800A3E03509F92274F2121BF48A088B09754A
:104078000A0080278E828F83A3A3A3A3122B7260CA
:10408800031214257C087D007900EEFAEFFB120F6D
:10409800C38E828F83E4F0A3F0050A123F255027D0
:1040A800850A0C750D007403780C121B7185088243
:1040B800850983A3A3E0250CFEA3E0350DFF8E82BE
:1040C8008F8312364C70AD85088285098374FFF0A2
:1040D800A3F002483474F6121BF412070B8A828B81
:1040E80083E582458370067A007B008007A3A3A33B
:1040F800A312361D7F02021CC674F4121BF4890831
:104108008C828D83E06402703C1246EAFEA3E0F9DB
:10411800EEF874026870037429697029750A0275CB
:104128000B00780A121E077410121BD0121E1E7480
:1041380010121BD0121E1EA9081212277406121B79
:104148009AE9F980027901022BAF74E8121BF47422
:10415800FB121B84E9852182852283F08A168B173E
:10416800ECFEEDFF7510008E828F83A3A3A3E0A25F
:10417800E4502D741D121BD012361D1207658A8259
:104188008B83E58245837003024589790AEEFCEF4B
:10419800FDAA16AB17121BF2E9F510600302458C55
:1041A800741F121BD0E0F508A3E0F5097421121B57
:1041B800D0E0F50AA3E0F50B7423121BD0E0F50E4E
:1041C800A3E0F50F8E828F83E06402600302452A24
:1041D800A312474B850882850983A38582128583AC
:1041E80013EE2406F50CE43FF50D88828983124509
:1041F800C9F514E439F5157814121E910100002848
:1042080001282C4207000228F14203285F420029B6
:10421800204401294B440229EC4303292044042962
:10422800C4442A45E50E450F6003024525850C82E6
:10423800850D8312474BE8FAE9FB8A828B83E08578
:104248000A82850B831245D4121E078A828B83A3A8
:10425800E0FCA3E00244AEE50E450F6003024525ED
:10426800850A82850B837401F01245BE8508828514
:104278000983F07C007D008E828F83A3A3A3A3E033
:104288002401FAA3E03400FB120609EA4B60408AD5
:10429800828B83E02402F8850A82850B83E028F06C
:1042A800EA2404F8E43BF988828983E08512828550
:1042B80013831245E21245D4121E078A828B83A308
:1042C8001245B1E5082403FAE43509FB0244B38535
:1042D8000A82850B83E02404F07C047D007900AA1F
:1042E80012AB13120FC302458CE50E450F60030293
:1042F80045251245BEFEA3E0FF850A82850B83741F
:1043080004F0EE850882850983F0EF851282851313
:1043180083F07403121BEAEEFAEFFB1206098A0C0B
:104328008B0DEA450D70030243CF8A828B83A3A3CA
:10433800122FE87401121BDA880E890F780E121EEC
:10434800077405121BD0121E1E7CFF7DFF12060F7C
:104358007404121B9A8B0FEA450F7033850C828503
:104368000D831245B5121E07850C82850D83A31295
:104378001E1E7C027D007AFA7B8E12038174041261
:104388001B9AE9700A7401121BD074FFF0A3F08E17
:10439800828F83E064027039750C02750D00780C09
:1043A800121E078E828F83A31245B1E5082404FAF2
:1043B800E43509FB120FAB7402121B9A850A828539
:1043C8000B83E0240280097401121BD0EEF0A3EFE6
:1043D800F07401121BD01245A37401121BD01245B0
:1043E8009A02451FE50E450F6003024525850C829C
:1043F800850D83124839AA16AB1712122D850A8229
:10440800850B837402F0850882850983EAF085129A
:1044180082851383EB024522E50E450F60030245B2
:10442800251245BEF8A3E0F9850A82850B8374023C
:10443800F0E8850882850983F0E98512828513836F
:10444800024522850C82850D8312361D120FA5EABE
:10445800FAF8C3950EE4950F405CE8650E450F70B9
:10446800047A008021852182852283E0FCE50E2CD8
:10447800FCE4350FFDC3EC98ED94005003E0800593
:10448800E50ECAC39AFAEA850A82850B83F08A0A7E
:10449800750B00780A121E07850C82850D83E025AE
:1044A8000EFCA3E0350FFDAA08AB09120FAB74028E
:1044B800121B9A02458C75100702458CE50E450FB4
:1044C800705B850C82850D8312474B850A82850BAC
:1044D800837407F08882898312459B124593E0858F
:1044E8001282851383F0E82402FAE439FB8A828B6E
:1044F800831245A38A828B8312459AA3A3122B7A2F
:104508001245A8F0E82405F8500109888289831229
:1045180045A8A31245E2A3A3A3A3F0806775100BD7
:104528008062741D121BD012361D12070B8A828BF3
:1045380083E5824583604A12474B880C890DE8451C
:104548000D603E7425121BD0E0F5107810121E0B7A
:10455800780E121E07780A121E077808121E0774B2
:1045680007121BD0E0F9EEFCEFFDAA16AB17850C7D
:1045780082850D83121BF27407121B9AE9F51080CD
:104588000375100EA91074050238E0F0888289833B
:10459800A322A3E0850882850983221245E9F02237
:1045A8001245E9A3A3229002E312484022E0F50E47
:1045B800750F00780E22850C82850D83123A83E0F0
:1045C80022E0FAA3E0F8E4C8F9EA2822F08A828B0C
:1045D80083E0F50A750B00780A221245931245E923
:1045E80022E0850882850983A3A32274EE121BF4B6
:1045F80074FE121B848A088B09ECFEEDFF890AAC55
:1046080021AD22EEFAEFFB1206098A0C8B0DEA4562
:104618000D70030246DB85218285228312361D1226
:10462800070B8A828B83E582458370030246D6A3F3
:10463800A312474B880E890FE8450F70030246D630
:104648007414121BD0E0F510A3E0F511E50AF50B80
:10465800780B121E0B7419121BD0121E1E78101222
:104668001E07741B121BD0E0F9AC0CAD0DAA08ABE9
:1046780009850E82850F83121BF27405121B9AE9B5
:10468800F50B705274FE650A604C850C82850D83AB
:10469800E0640270411246EAFAA3E0F9EAF874020B
:1046A800687003742969702E8510828511831245FC
:1046B800C9F50CE439F50D780C121E07EEFCEFFD78
:1046C800AA08AB0912078F7402121B9A8008750B8F
:1046D8000E8003750B01A90B7402121B9A7F0A0244
:1046E8001CC6A312474F88828983E02274F6121BE6
:1046F800F474FE121B84740C121BD012474BE8850D
:104708002182852283F07401121BD0E9F0E4F508B8
:10471800F5097808121E077508027808121E077432
:1047280004121BDA880889097808121E0779FE1214
:1047380007777406121B9A7402121B9A0240FC8EA9
:10474800828F8312474F22E0F8A3E0F92274F71210
:104758001BF4EAFEEBFF89089002FA1245B1121227
:104768002DEA5402600BA908EEFAEFFB1205FD8052
:104778000279017F01021CC674F2121BF474FE1246
:104788001B84EAFEEBFF890A7401650A601474024F
:10479800650A600302482F790112097BE960030268
:1047A800482FEEFAEFFB120759EA4B600312075F36
:1047B800A821A922880889097808121E0775080205
:1047C8007509007808121E0775080475098F78089E
:1047D800121E077CFF7DFF7A017B00120603740618
:1047E800121B9A8038850882850983A3A3A3A3A3F3
:1047F800A3124839EEFAEFFB121221E4F50CF50D7D
:10480800780C121E077402121BD0121E1E7CFF7D2C
:10481800FFAA08AB0912060F7404121B9A8A088BA8
:1048280009E508450970BE7402121B9A7F06021C2E
:10483800C6123A8312484022E0FCA3E0FD2274F439
:10484800121BF48A088B09ECFEEDFF901CDCE0F4E7
:10485800604B7A097B00120FCFEA4B60408A828B4B
:104868008374B1F0A3E41248A8F08A828B83A3A3CF
:10487800E508F0A3E5091248A8A3EEF0A3EFF07449
:104888000C121BD012474B8A828B83A3A3A3A3A32A
:10489800A3A3123C74901CDCE0F9120FDB022BAFCF
:1048A800F08A828B83A3A3A3A322C082C0839061D2
:1048B800907404F0A37448F0A37402F090618074BB
:1048C80040F09061BC7403F09061877419F09062B5
:1048D80065741BF0906249E0C3941390619C40108A
:1048E8007409F09060667401F090619F7428800DDF
:1048F800740BF0906066E4F090619F742CF0124A9B
:104908009D7009C29190036D7467800590036D7462
:1049180061F0124AEF902894E493F46006E493F966
:10492800120A717905120D89024D31C082C083E9DE
:10493800540FF9906185E0696012E5C654B84441A6
:10494800F5C6E59E5447644170F8E9F053C6B8E5EA
:104958009E544770FA024D31C082C083A8A853A85C
:104968007E906181E4F0A3F0A3F0C2BA539AFEC22C
:1049780089759B00C2C275E90075910075BF007505
:10498800A91175B905906181F0A374C0F0A3E4F092
:10499800D2BA439A0174805842A8024D31F0024DB0
:1049A80031C082C08374F8121B8490036B1260B10B
:1049B8007003024A9590036BE0544060177908AA87
:1049C80021AB22120B7FAA21AB221207EF90036BB7
:1049D800E054BFF0E054806010790C7A197B07121C
:1049E8000B7F90036BE0547FF0E0A2E0501E124A68
:1049F8009D7009C29190036D7467800590036D7472
:104A080061F01207F590036BE054FEF0E054026089
:104A18001E124AE27009D29190036D74718005905C
:104A2800036D746AF01207F590036BE054FDF0E033
:104A380054046010902898124AF21207FB90036BF6
:104A4800E054FBF0E054086010902899124AF212E2
:104A580007FB90036BE054F7F0E05410600D124A26
:104A6800EF1207FB90036BE054EFF0E05420600A6C
:104A78001207FB90036BE054DFF0A3E05401600DD4
:104A8800120A8F12080190036CE054FEF0740812A9
:104A98001B9A024D3190619A124CE49006F3E0643F
:104AA8000122C082C083E960051460178029124A78
:104AB8009D7009C29190036D7467801A90036D749C
:104AC800618013124AE27009D29190036D7471806B
:104AD8000590036D746AF0024D3190619A124CD6BC
:104AE8009006F3E064012290289AE493906186F09E
:104AF8002274EA121BF474F4121B84908EE0AC2129
:104B0800AD227404121A9790289893F46003024C0B
:104B18006B907808E0C394025003024C4F908E3A91
:104B28007404121BEA7408121A97A821A92288147F
:104B380089157404121BDA88088909AE08AF09754B
:104B480010FF7511FF750EFF7C00750C48750D7808
:104B5800801274086C7003024BE574096C607E74F3
:104B68000A6C6079850C82850D837808121A3C8E50
:104B7800828F83A909E50AC9F8881274187808127F
:104B88001957E5124508F8C3E098A3E099850C8207
:104B9800850D837808121A3C40188E828F8374180A
:104BA8007808121957E5124508F8E0C398F8A3E009
:104BB800801A74187808121957E5124508FAE9FBA3
:104BC8008E828F83125406EAC398F8EB99F9C3E8EA
:104BD8009510E995115006881089118C0E0CE50C7A
:104BE8002404F50C5002050DECC394135003024B3A
:104BF8005A74FF6510700474FF65116024850E08EF
:104C080074027808121B7174482508F58274783587
:104C180009F5837808121A3C851482851583E508FE
:104C2800F0EE2402FE50010F851482851583A385BA
:104C38008214858315740C121BD0E5826E7003E50F
:104C4800836F6003024B47750801750900780812E5
:104C58001E077402121BEA7A267B0A121293740248
:104C6800121B9A740C121B9A7F0E021CC6C082C0BB
:104C7800839061AE7468F0A3746AF090624574FB27
:104C8800F0A304F053F4FD43FE029006F37401F020
:104C98009061A0E0643A90619A7019124CE4740132
:104CA80064017009C29190036D7467801E90036D52
:104CB80074618017124CD6740164017009D2919006
:104CC800036D7471800590036D746A0249A5743F81
:104CD800F0A3745AF09061A0747FF0227433F0A3AB
:104CE8007455F09061A0743AF0227F04021CC6C08B
:104CF80082C0839006D1E0640170119006D7E06409
:104D0800016019E07006A3E0640160109006E8E015
:104D18006401700C9006EEE064017004790C800266
:104D280079008005E0F91227ABD083D08202011FF9
:104D3800E0C4333354C022888289831252C7A882C0
:104D4800A983222414F582E438F58322C082C08323
:104D58009006DB7425F09006D97401F0A3E4F07A8C
:104D680001FB120D05124DA0241AF582E438F583D3
:104D780074B3F0A3740AF09006D8E064017016903A
:104D880006D7E070107901120D65120D35120D5F0E
:104D98007900120D71024D319006C7125129227403
:104DA800F6121BF474FA121B849006D0E0640170AA
:104DB80008120A9B9006D0E4F075E1F1124DA02488
:104DC80015F582E438F5837401F09006D2E06401A9
:104DD800704B908E54AC21AD227406121A9775D977
:104DE8000D9006C9124D384403F5D97582CA7583EA
:104DF800061252C3E58264D07004E583640670F13C
:104E0800A821A922124D3F7406121BD0E5826870B2
:104E180003E5836970EE75E19579018002790012E6
:104E28000D0B901D00124E8D741BF0A3740CF0A393
:104E3800124E8D124E8D124FFB7421F0A3740C127A
:104E480050109006C9E0F97ACA7B06120CE7900662
:104E5800DBE0F91227AB7901120D11908EE4121ADA
:104E68005A120D29908E98121A5A120CF3790012C0
:104E78000D7D124DA0124D4B7416F0900369740508
:104E8800F0040255287415F0A3740CF0A32274F7EB
:104E9800121BF48908A808E875F00CA4C8AAF02A1F
:104EA800F9749928FE740339FF9006E0E0F97AE175
:104EB8007B06120CE79006EEE070257900120D478C
:104EC800EE240BF582EF3401F583E070047900805D
:104ED800027901EE2405FAEF3401FB120CED80058E
:104EE8007901120D4775E1F175D9239006E0124D4D
:104EF800384405F5D97582E17583061252C3E582F7
:104F080064E77004E583640670F175D90075D9000B
:104F180075D90075D90075D90075D900EE2422120B
:104F2800537C12539B7003E9658370F6EE242612B6
:104F380053872403F8E43583F912539B7003E9651A
:104F48008370F6EE242B125390242C125390242DA8
:104F5800125390242E125390242F1253902430125F
:104F68005390243112539024321253902433125305
:104F780090245D1253872405F8E43583F912539B76
:104F88007003E9658370F6EE2437125F30541FF81A
:104F9800EE242A125F30C43354E048F5D975E19500
:104FA800901D0074E5F0A3740BF0A374EBF0A374E8
:104FB8000B124FF274F1F0A3740B1250109006ED1F
:104FC800E0F91227AB908EE4121A5A120D29908E2E
:104FD80098121A5A120CF390600DE4F07901120D30
:104FE8007D9003697406F0025764F0A3124FFB1218
:104FF8004FFB22124FFF2274DFF0A3740BF0A3744F
:10500800DFF0A3740BF0A32212501422F0901D0EAF
:10501800125020A312502022124FFF74DFF0A37405
:105028000BF02274EC121BF49006DE125B867810EB
:10503800121A3C9006EFE0FAF875F00CA4C8ACF030
:105048002C125D02FFEE2EFEEF33FF8E0CF50D7570
:105058000E00750F0085100885110985120A851341
:105068000B908ED878081219A27808121E038510A2
:105078000885110985120A85130B7808790C12190D
:105088008F7810790C1218D4E4F50EF50F7808799A
:105098000C1219C88A0C750D007403780C121B7158
:1050A8007808790C12198F908EAC7808121A03AA16
:1050B80008AB09AC0AAD0B1227437404121B9A8A79
:1050C800088B09A808A909C3EE98EF995006E82E9D
:1050D800F8E93FF9E890600EF0E9A3F0EEA3F0EFED
:1050E800A3F090600D74C1F07F0C021CC6C082C092
:1050F800839006C71251159006DB024D2CC082C062
:10510800839006DE1251159006ED024D2C1251299E
:1051180012511FF0A3F0222406F582E438F583E447
:1051280022E0F8A3E0C82202011F74F6121BF41251
:1051380052CC6004780480027800E8240EF8ECC3AE
:105148009850030252007C0C9006F9E4F0EA2476A9
:10515800F582E43BF583E09006FAF0EA24771252F0
:10516800059006FB12520F9006FCF0EA24791252C1
:10517800059006FD12520F9006FEF0EA247B1252AB
:10518800059006FF12520F900700F0EA247D125294
:105198000590070112520F900702F0EA2474F8E410
:1051A8003BF98A828B83A3A3A3A3A3E0FEA3E0FF1A
:1051B80088828983E02EF0A3E03F1258A990070364
:1051C80012520F9007041252F060177508F975090A
:1051D800067808121E077903120BD37402121B9A61
:1051E8007C10125536ECFE1252C3DEFB75E1957940
:1051F80004120D2F79018002790002552BF8E43B47
:10520800F988828983E0221258AEA3E02274F6124C
:105218001BF41252CC6004780480027800E8240A57
:10522800F8ECC39850030252BE7E089006F9740148
:10523800F07CBD7D0678FA79067F051252DAA882DD
:10524800A983DFF7EA2480FCE43BFD8A828B83A3F1
:10525800A3A3A3A3E0F508A3E0F5098C828D83E05E
:105268002508F0A3E03509F01252DA08A9838C82E8
:105278008D83E0888289831252F060197508F97568
:1052880009067808121E077C087903120BD37402EA
:10529800121B9A7E0C74012EF5D975D9037582F903
:1052A800758306EEFF1252C3DFFB75E19579041290
:1052B8000D2F79018002790002552B1252C722E086
:1052C800F5D9A3229061D0E0F87480C398FC1252FB
:1052D800F5221252DE228C828D83E0888289831225
:1052E80060EE88828983A322F01252F522EA248292
:1052F800F582E43BF583E02274F7121BF4EAFEEB37
:10530800FF9061D0E0706875D91875D90375D90315
:10531800EE249B1253A212539B7003E9658370F627
:10532800EE24A312539024A412539024931253A250
:1053380012539B7003E9658370F6EE248712537C41
:1053480012539B7003E9658370F675E1957908EE51
:105358002493FAE43FFB120B737904EE2487FAE4F2
:105368003FFB120B737904120D2F1254B08002798F
:10537800000257641253872404F8E43583F922F5B0
:1053880082E43FF583E58222F582E43FF583E0F588
:10539800D9EE221252C7E86582221253872408F8F0
:1053A800E43583F92274F6121BF4EAFEEBFF90064B
:1053B800F97406125459121E077C017903120BD393
:1053C8007402121B9A75D90675D9037582F975830B
:1053D800061254517004E583640670F575E19590E2
:1053E8000369E064087010EE246FF582E43F1254FC
:1053F80004EE2471125EBF790102552BF583126009
:10540800BD2274F6121BF4EAFEEBFF9061D0E07047
:10541800339006F9740A125459121E077C01790355
:10542800120BD37402121B9A75D90675D9037582AB
:10543800F97583061254517004E583640670F512F9
:1054480054AD8002790002552B1252C7E58264FEE2
:1054580022F07508F975090678082274F6121BF40B
:10546800EAFEEBFF9061D0E0703678019006F9749F
:105478000BF0900369E0640770197508F97509065F
:105488007808121E077C017903120BD37402121BD1
:105498009A78051256F81252C3DAFB1254AD8002FC
:1054A800790002552B75E195EE246F1260B7EE2452
:1054B80071F582E43FF583E8F0A3E9F079012274FD
:1054C800F6121BF41255F96004780480027800E89B
:1054D800240BF8EAC39840447C099006F974081232
:1054E8005545125554DDFB125F2D601B7508F97583
:1054F80009067808121E077903EEFAEFFB120BD3A0
:105508007402121B9A7C0D1255301255F170FB75FE
:10551800E1957904120D2F1254B0800279008003AE
:10552800121B9A7F02021CC61255368C082274017F
:105538002CF5D975D9037582F975830622F0EE2406
:10554800E4F8E43FF97AFA7B067D082288828983A9
:10555800E08A828B831258AEA3A882A9838A828BA1
:1055680083A3AA82AB832274F6121BF41255F96046
:1055780004780480027800E82408F8EAC3984064B4
:1055880078069006F9740CF0900386E09006FAF01D
:10559800900387E09006FBF0900388E09006FCF00B
:1055A800900389E09006FDF090038AE09006FE12D1
:1055B8005688601B7508F97509067808121E077C5D
:1055C800067903EEFA120BD37402121B9A780A12A8
:1055D80056821255F170FB75E1957904120D2F1260
:1055E80054B08002790002552B1252C71508E508FD
:1055F80022EAFEEBFF9061D0E0F87480C398FA12BB
:10560800568D2274F6121BF41255F9600478048042
:10561800027800E82404F8EAC39840597802900612
:10562800F9E8F0EE24F6125F309006FA1256886018
:105638001B7508F97509067808121E077C0279039C
:10564800EEFA120BD37402121B9A780612568212C3
:1056580055F170FB75E195EE247312589AEE247F8C
:1056680012589A125897A3F07904120D2FEE240DB0
:105678001254B38002790002552B1256FE88082274
:10568800F012568D22EE2482F582E43FF583E02263
:1056980074F6121BF41252CC60047804800278006D
:1056A800E82404F8ECC398404278029006F974079D
:1056B800F0EA24F7F582E43BF583E09006FA12520B
:1056C800F060197508F97509067808121E077C023A
:1056D8007903120BD37402121B9A78061256F81229
:1056E80052C3DAFB75E19579018002790002552BE6
:1056F8001256FEE8FA22740128F5D975D903758285
:10570800F97583062274F7121BF4E9FFA2AFE4339C
:10571800FEC2AF7C0080010C1257B55010ECF8EABD
:1057280028F8E43BF9125E1B6F70EC8016EA246ED1
:10573800F8E43BF9E0FCEA2CFAE43BFB125752EFA1
:105748001258A3EEA2E092AF8012EA246AF582E42E
:105758003BF58322F0EEA2E092AF79007F01021CB4
:10576800C6C082C083A2AFE433FDC2AF1257BD14D6
:10577800F07C00801DECF8EA28F8E43BF9E8246B9B
:10578800125E1EC0E0E8246AF582E439F583D0E0B1
:10579800F00C1257B540DEEA246DF582E43BF58340
:1057A80074FF1257E2EDA2E092AF024D311257BDDD
:1057B800F8ECC39822EA246EF582E43BF583E022F4
:1057C800C082C083A8A8C2AF125752E91257E2E8B4
:1057D800A2E7E433FAE8A2E780CEF0EA2469F5828A
:1057E800E43BF583E4F02274F3121BF4EAFEEBFFCA
:1057F800ECFAEDFB8A828B83A3A3A3A3E0541FF0EA
:10580800EE243612589A750A00EE245DFCE43FFD3A
:105818008A828B83E08C828D83F0750B00E50A33D6
:10582800333354F8F50C8A828B83E0F50875090048
:10583800E50B7808121B52E508A2E05027EE243643
:10584800F8E43FF988828983E0F508EE2508F50831
:10585800E43FF509E5082438F582E43509F583E5E0
:105868000C1258A3050B050CE50BC3940840B705AB
:105878000A8A828B83A3AA82AB838C828D83A3AC92
:1058880082AD83E50AC3940540867F05021CC6EEF7
:10589800241DF582E43FF583E4F0221258A904F0B0
:1058A800221258AEE022F0888289832274F7121BF4
:1058B800F4900395E064037003025A4C7C007582EF
:1058C8009B758303E06003025A36ECF875F00CA46C
:1058D800C8AAF02AF9749928FA740339FB8A828BCA
:1058E80083A3A37401125A6EE4F0EC8A828B83A31B
:1058F800A3A3A3F01260387401F0EA2467F582E4E8
:105908003BF5837401125A68E4F0A3125A68A3A302
:10591800125A7E240FF582E43BF5837401F0EA24E1
:1059280035125A532418125A83241C125A53241D10
:10593800125A77247F125A532473125A532468F543
:1059480082E43BF58374801257E2EA246E125A53BC
:1059580024EC125A5324ED125A5324EE125A5324AB
:10596800EF125A5324F0125A7724F2125A7724F578
:10597800125A532482125A5324D2125A5324D3123D
:105988005A5324D4125A8324D8125A8324DE125A22
:105998005324E0125A5324DC125A5324E1125A5366
:1059A80024E2125A5324F8125A7724FA125A772406
:1059B800FC125A7724FE125A77240B125A5D2405DA
:1059C800125A5D2406125A5D2407125A5D240812E1
:1059D8005A5D2409125A5D240A125A5D12575374EB
:1059E800FF7804F0A3D8FCEA245DF8E43BF97CBD19
:1059F8007D06125A9764C27003ED640670F4EA24B7
:105A0800E4F8E43BF97C7D7D03125A9764857003C2
:105A1800ED640370F4900395E004F0640170298A42
:105A2800828B83A3A3A3A3E0900397F0801A0CE5CD
:105A380082240CF582E5833401F583ECC39403508A
:105A4800030258CC7A007B00025764F582E43BF5E8
:105A580083E4F0EA22F582EB3401F583E4F0EA22EC
:105A6800125A6EA3A322F08A828B83A3A3A322F5E2
:105A780082E43BF583E4F0A3F0EA22F582E43BF507
:105A880083125A8EEA22E4F0A3F0A3F0A3F02212C4
:105A980052DEA882A983EC22C082C0838A828B83CB
:105AA800A3A3A3E0600F8A828B83A3A3A3E4F0904F
:105AB8000396E014F0900395E014F07006900397B5
:105AC80074FFF08A828B83A3A3E4F09006C2E0708F
:105AD8000D900396E0640170057900120CF9024DEF
:105AE80031C082C083789B790388828983A3E412BA
:105AF80058AEF0125CECE864BF7003E9640670E924
:105B0800900395E4F0A3F0A374FFF075E1F1024D62
:105B18003174F5121BF4750800750900750A007ECA
:105B2800997F038E828F83A3A3A3E0602BE50845AA
