:020000040000FA
:0600000002011A0226E1D4
:03002B00022C1B89
:030053000227572A
:03007B00022BFE57
:10008300022537E5C754F84401F5C779012200007A
:100093000080FB120086B90003020104E47924788E
:1000A30002B800028004F709D8FCE479267802B884
:1000B30000028004F709D8FCE490028178F27918F1
:1000C3008002F0A3D8FCD9FA782390014A7A01BAC6
:1000D30000028007E493A3F608DAF97A727B1A9098
:1000E300014B78E479018015E493A3AD82AE838A52
:1000F300828B83F0A3AA82AB838D828E83D8E9D9C6
:10010300E775826F7583E9740312012C758291750B
:100113008300740012012C75D00075813F75218115
:10012300752202759F00020096C09FF59FE473D06D
:100133009F22D083D082C09FE493C0E0740193C018
:10014300E0740293F59F2201C003CC030204FC0375
:10015300FF0000B4000028002800283075A000A08C
:1001630000A000A00000080008E001F0001000104B
:10017300001000100010001000500050005000103C
:10018300001000D0070000000000000F0001000570
:1001930000307507001000010081FF00000000FF20
:1001A300FFFF020202AC8D010000A38D02B28D019C
:1001B3000000CC1A02B68D010000B80202B28D0114
:1001C3000000CD1A02B88D010000CE02FFFF01002E
:1001D300FF2002AC8D010000A08D02B28D01000052
:1001E300FB1A02A88D000000000002B48D0300007A
:1001F300FA021700F40BF40BF40BF40BF40BF40BEF
:10020300F40BF40BF40BF40BF40BF40BF40BEC0DF9
:100213000A0EE60DFFFFFFFFFF01E803057710025B
:100223000A02010101FEFF0104FF00120135A9D0FA
:1002330003120135BCD003120135DDD003120135A1
:1002430048D10312013589D103120135AAD1031212
:100253000135EBD10312013583D203120135CBD221
:1002630003120135ECC403120135FFC40312013537
:1002730030C5031201356AC503120135C3C5031224
:1002830001350AC60312013552C60312013581C670
:1002930003120135B0C603120135E7C60312013557
:1002A3002EC70312013547C7031201359CC703123A
:1002B3000135CAC70312013504C80312013533B42B
:1002C3000212013536B50212013563B5021201354A
:1002D300B4B502120135D7B502120135E9B50212E0
:1002E3000135ECB5021201352AB6021201359EB66C
:1002F300021201350AB702120135D2B702120135D3
:10030300EEB70212013525B8021201355FB80212A9
:100313000135F6B80212013548B90212013579B92F
:1003230002120135AAB902120135B7B90212013519
:1003330021BA0212013524BA0212013531BA02126E
:10034300013534BA021201358BBA021201358EBA65
:1003530002120135C7BA02120135CABA02120135B7
:10036300FEBA0212013501BB0212013555BB02125E
:1003730001359EBB02120135AEBB02120135E1BB52
:1003830002120135EEBB02120135F1BB0212013537
:1003930059BC021201355BBD02120135FFBD0212C9
:1003A300013568BE02120135A6BE0212013575DCA5
:1003B300021201356DDD02120135A1DD0212013594
:1003C30037DE0212013582DE02120135E6DE021249
:1003D300013570DF0212013529E0021201354BE3CA
:1003E30002120135C8E402120135EBE402120135B1
:1003F30029B103120135CEB203120135EEB2031255
:1004030001350FB40312013562B4031201356FB520
:100413000312013597B503120135C4B50312013533
:10042300FCB5031201355AB603120135A6B6031201
:1004330001350DB7031201354DB7031201358AB7E4
:1004430003120135B8B70312013562B8031201353F
:100453006CB80312013579B803120135ACB8031235
:100463000135B8B803120135D0B803120135DAB833
:1004730003120135DEE303120135ECE30312013508
:1004830004E4031201351CE40312013533E40312BF
:100493000135008002120135AA800212013526813E
:1004A30002120135448202120135808202120135A3
:1004B3001B8302120135FF8302120135C28402122B
:1004C30001353A8502120135C88602120135398792
:1004D30002120135F38702120135E5880212013554
:1004E300258902120135D989021201350B8A0212BC
:1004F3000135018C02120135438C02120135618CE6
:1005030002120135E68C02120135AA8D0212013561
:10051300C98F0212013555BD031201356BBD03129C
:10052300013589BD031201359ABE03120135A4BEFC
:1005330003120135CFBF03120135C6C003120135C3
:1005430033C10312013571A30312013515A403123C
:1005530001354CA40312013596A40312013555A6A7
:1005630003120135CCA3011201357DA4011201351B
:1005730099A40112013562A5011201357CA501126E
:10058300013587A5011201355DA6011201353AA790
:1005930001120135CAA70112013581A801120135E3
:1005A3008FAB011201357EAD0112013530AE011260
:1005B3000135F9AE011201353EB201120135E8B23F
:1005C3000112013511B401120135CDB50112013506
:1005D3006DB601120135BBB601120135FAB601122F
:1005E3000135CDB70112013501B8011201358EB8BD
:1005F300011201350DCF0112013599CF01120135D9
:10060300FDD00112013509D10112013544D1011286
:100613000135B3D101120135BCD201120135C5D365
:10062300011201358CD401120135E9D501120135CE
:1006330007D60112013524D601120135EFD6011276
:10064300013517D701120135E1D901120135E6D978
:1006530001120135FFDB011201354DDC01120135B9
:10066300BDDC01120135FBDC01120135D7DD0112BE
:10067300013597DE01120135E3DE01120135E6DEB5
:10068300011201352ADF0112013572DF0112013532
:10069300B1DF01120135D3DF0112013507E0011289
:1006A30001356AE001120135E77A00120135F07A6B
:1006B30000120135FE7A00120135517B001201351B
:1006C300707B00120135B57B00120135F97C0012F5
:1006D3000135947D00120135D87D00120135027E6B
:1006E30000120135717E00120135B77E001201350B
:1006F3002E7F00120135DF7F00120135482C0012D6
:100703000135582C00120135F92C00120135552DF5
:1007130000120135122E001201352E2F0012013561
:10072300602F001201358F2F001201353C3100126A
:100733000135B33300120135233600120135153765
:10074300001201350E3800120135153A0012013539
:10075300093D00120135383E001201353C400012BC
:1007630001354C4100120135DB4200120135CC4307
:10077300001201351A440012013589440012013573
:10078300AD4400120135FE44001201359F490012A9
:100793000135A04A00120135014B001201352C4BE3
:1007A30000120135F24B0012013568B9031201350D
:1007B30072B903120135B7B903120135CBB903126C
:1007C30001355BBA0312013583BA03120135BEBA90
:1007D30003120135E7BA031201351BBB03120135BE
:1007E30030BB031201359BBB03120135BCBB0312A3
:1007F3000135D0BB03120135E5BB031201351FBC24
:100803000312013584BC03120135C7BC0312013541
:10081300F1BC031201352DBD03120135CCE00312E7
:10082300013543A90212013526AA02120135A1AAF4
:1008330002120135DCAA021201352DAC0212013578
:10084300B6AC02120135CEAE0212013560B102120E
:10085300013512B20212013531B3021201358AB3E6
:10086300021201353F9003120135829003120135C4
:10087300069103120135D99103120135B094031285
:1008830001359ACB0312013547CC0312013554CD00
:100893000312013593CD03120135EDCD031201355A
:1008A30006D90312013569D90312013506DA031299
:1008B300013534DA0312013555DA0312013590DAC2
:1008C30003120135B0DA03120135629503120135C3
:1008D300EE9503120135AD9603120135C597031248
:1008E3000135DF990312013524C90212013549C9C3
:1008F300021201351DCA021201358ACA02120135DC
:10090300E0CA021201357CCB02120135B0CC0212CF
:1009130001358BCD02120135EACD02120135BBCE72
:100923000212013547CF021201354ACF02120135B7
:1009330094CF0212013506D002120135B1D0021252
:100943000135D1D00212013519D10212013535D149
:1009530002120135AFD102120135BDD102120135A8
:100963004CD202120135B5D2021201350CA8031282
:10097300013591A803120135D3A803120135B7A994
:100983000312013524AA0312013568AA03120135A3
:10099300ACAA03120135D9AA0312013501AB031224
:1009A300013539AB0312013577AB031201359EAB29
:1009B3000312013518AC0312013562AC0312013581
:1009C300A5640012013572660012013560680012D9
:1009D3000135B46800120135DF68001201358D69F5
:1009E30000120135BD6900120135EC6900120135B1
:1009F300FF6900120135406A001201356C6A00126A
:100A03000135BA6A00120135F16A001201353D6BF6
:100A1300001201359C6B001201352F6C0012013559
:100A2300196D00120135086E00120135B36F001203
:100A33000135D274001201352B750012013514777C
:100A430000120135E3780012013565790012013592
:100A5300B37A00120135C47A0012013538CE03127D
:100A6300013523CF0312013566CF03120135B5CF0C
:100A73000312013506D00312013557D00312013595
:100A83005E4C00120135DF4C001201350C4D001293
:100A93000135554D00120135564E00120135A54E54
:100AA30000120135215000120135A3500012013507
:100AB3000051001201355351001201354252001208
:100AC3000135D75300120135A15400120135B15439
:100AD30000120135DB5400120135DE5400120135DA
:100AE300C15500120135AC56001201355957001299
:100AF3000135B657001201350F58001201357358EE
:100B0300001201351B5900120135B7590012013586
:100B1300445A00120135B95A00120135155B00120F
:100B23000135745B001201359B5B00120135605C7B
:100B3300001201354C5E00120135955E001201353D
:100B4300C55E00120135385F00120135BE60001228
:100B530001356E6100120135936100120135D261D6
:100B630000120135E761001201352A6200120135D6
:100B73009A6200120135E46200120135EE6300123D
:100B830001356F6400120135D8D20212013523D327
:100B9300021201352FD30212013503D4021201359B
:100BA3001AD40212013557D40212013588D4021225
:100BB3000135C0D40212013516D5021201352CD5E8
:100BC3000212013568D5021201357BD502120135B7
:100BD300A2D502120135D6D502120135FCD6021276
:100BE300013546D80212013542D90212013558DACD
:100BF30002120135F17F00120135128B0312013508
:100C0300C08E03120135F48F031201355E9D02126B
:100C1300013517A0021201351DA002120135CEA223
:100C23000212013528A502120135169A0312013565
:100C3300AD9A031201356B9B03120135959B031289
:100C43000135CB9D03120135BD8D01120135F88DA0
:100C5300011201354C9801120135B8990112013581
:100C6300B59A011201353A9E011201352F9F0112E7
:100C730001357B9F01120135959F01120135D69FE6
:100C830001120135DF9F0112013591A001120135D7
:100C930061A101120135A8A1011201350EA20112B1
:100CA300013580A2011201353DC103120135D3C1C3
:100CB30003120135E9C10312013542C203120135A2
:100CC30086C203120135C0C20312013558C3031291
:100CD3000135C7C303120135D0C303120135DCC389
:100CE30003120135F6C30312013520C40312013583
:100CF30035C40312013597C403120135BEC4031270
:100D030001353DF6021201354AF60212013564F649
:100D13000212013597F602120135D5F6021201359A
:100D23003AF7021201354FF70212013566F7021244
:100D3300013574F70212013583F70212013598F772
:100D430002120135ADF702120135B8F7021201356F
:100D5300C4F702120135D1F702120135E0F702128E
:100D63000135EBF70212013510F802120135B4F820
:100D730002120135C9F802120135DEF802120135FB
:100D8300F8F80212013515F90212013532F902128F
:100D930001353DF902120135E9F902120135CAFAAA
:100DA30002120135EFFA02120135FAFA0212013585
:100DB3000FFB0212013523FB0212013584FB0212E1
:100DC30001358AFB0212013590FB0212013596FBB5
:100DD30002120135AEFB02120135E1FB02120135AD
:100DE300CCBE02120135EEBE02120135B6BF0212AD
:100DF300013570C20212013586C302120135A7C440
:100E03000212013581C50212013530C602120135C5
:100E1300DB8F021201357290021201350A91021220
:100E23000135FA91021201353192021201354492D1
:100E330002120135B292021201354D9402120135AC
:100E43007494021201351695021201354B95021264
:100E530001355C9502120135D59502120135F695DF
:100E6300021201350E960212013566970212013500
:100E73006F9902120135BF9B02120135C29C021207
:100E83000135119D0212013551F1011201354EF266
:100E93000112013539F30112013543F30112013512
:100EA30065F30112013571F301120135C3F4011227
:100EB3000135F2F40112013522F60112013564F60F
:100EC3000112013590F70112013566F8011201355F
:100ED300B8F80112013517F9011201354EF9011263
:100EE300013589F90112013524FD011201353DFD5A
:100EF30001120135BFFD01120135CDFD011201358E
:100F030022FE0112013530FE011201359DFE011250
:100F130001350FFF0112013555FF01120135BEDA0C
:100F230003120135E3DA0312013554DB03120135F1
:100F33003EEE0212013547EE0212013550EE021267
:100F4300013581EF02120135A0F102120135D6F10C
:100F53000212013510F20212013546F20212013576
:100F630080F202120135B4F202120135E0F20212EC
:100F7300013529F30212013563F302120135ABF394
:100F83000212013501F40212013536F40212013561
:100F930091F402120135CBF4021201351CF5021251
:100FA300013552F5021201358CF502120135AFF508
:100FB3000212013540E6031201356CE603120135D6
:100FC300C7E603120135D1E603120135E1E6031248
:100FD3000135A98503120135B38503120135F18566
:100FE300031201353A860312013574860312013563
:100FF300CE8603120135EF8603120135F8860312FC
:10100300013549870312013572870312013587873A
:1010130003120135F887031201358688031201355F
:10102300C38803120135F38803120135778903124C
:101033000135B78903120135EF8903120135018A9E
:1010430003120135208A03120135298A031201355F
:10105300E88A03120135E4E2031201352BD50312AA
:10106300013561D50312013597D503120135F0D649
:1010730003120135EBE60312013501E703120135D3
:101083000BE70312013561E703120135A2AC03122A
:101093000135BBAC031201355FAD031201359FADC2
:1010A30003120135B8AD03120135ECAD031201355E
:1010B30039AE031201356DAE03120135AFAE031223
:1010C3000135AFB0031201351CB103120135B3E88A
:1010D3000312013574DC03120135B2DC031201354E
:1010E300D7DC03120135EEDC031201350ADD0312EE
:1010F300013521DD0312013538DD0312013571DDC0
:1011030003120135A5DD03120135DCDD03120135C0
:101113003CEA031201353FEA0312013542EA0312A6
:10112300013549EA031201354BEA03120135008008
:10113300031201353F8003120135C88003120135C4
:10114300DD80031201352881031201356781031203
:1011530001357681031201352B8203120135848216
:1011630003120135D382031201352683031201359D
:101173003B84031201353485031201357185031253
:10118300013512E90312013584B901120135FABBA5
:101193000112013572BD01120135D3BD01120135B2
:1011A30072BE0112013564BF01120135E9BF01129C
:1011B300013565C0011201358AC00112013553C3DF
:1011C30001120135C7C301120135B3C40112013540
:1011D300EDC4011201352DC501120135E7C6011217
:1011E300013518C7011201356BC701120135B4C7A8
:1011F3000112013522C80112013554C8011201350B
:101203006CC80112013581C90112013591C901125E
:101213000135F6CA0112013516CB011201354CCB4B
:1012230001120135F9CC0112013579CD01120135D5
:10123300B8CD01120135DFCE011201352AD70312D1
:10124300013587D7031201354AD80312013569D80E
:1012530003120135BFD8031201358FE7031201359D
:101263009FE703120135C7E90312013506EA0312AA
:1012730001352CE80312013557E80312013561E803
:101283000312013599E8031201354EEA03120135C1
:1012930097DF03120135A7DF03120135C5DF031200
:1012A3000135C6E003120135E0E10312013565E2C1
:1012B30003120135CBE203120135C3E403120135F6
:1012C300E4E403120135F7E40312013509E50312DF
:1012D300013536E50312013547E50312013580E593
:1012E3000312013583E503120135C89E031201354C
:1012F300DC9E03120135559F031201352EA0031204
:101303000135ECA20312013531A3031201355EA3AB
:10131300031201356CC80312013585C80312013568
:10132300A0C803120135B1C803120135C2C80312A4
:1013330001351AC90312013587C903120135DAC908
:101343000312013509CA0312013530CA03120135EC
:101353004FCA03120135D6CA03120135F3CA031269
:1013630001350DCB0312013526CB0312013535CBE5
:101373000312013560CB0312013576CB031201351D
:1013830086E503120135A0E503120135BAE5031220
:10139300013519E603120135F87F00120135F6D243
:1013A3000312013581D403120135E2D4031201354E
:1013B30028D50312013542E101120135D1E20112B0
:1013C300013511E40112013578E5011201351EE6FC
:1013D30001120135FAE601120135E9E7011201357F
:1013E300F0E8011201356BE901120135ABE9011295
:1013F3000135CDE90112013554ED011201358CEDB2
:10140300011201358FED01120135DCF001120135B6
:1014130010DE0312013565DE03120135D3DE03123C
:10142300013543DF0312013563FC021201358DFCE4
:101433000212013587FD02120135ACFD021201359E
:1014430043FE02120135C5FE021201350EE60212F9
:101453000135CBE60212013506E7021201352EE70C
:101463000212013590E702120135DCE70212013561
:1014730035E802120135C6E802120135C8E9021245
:10148300013585EB0212013507EC021201356CECD4
:101493000212013583EC0212013593ED021201357C
:1014A300D1ED0212013510EA03120135DEFF01E02E
:1014B30066701008A3E066700A08A3E0667004086B
:1014C300A3E06622C3E7960809E7960809E79608AA
:1014D30009E79622C3E09608A3E09608A3E09608DE
:1014E300A3E09622C008C3E096F50808A3E096425D
:1014F3000808A3E096420808A3E09645087001D3C4
:10150300D00822E9799EC608CAC608CBC608CCC64D
:10151300C370207996CACBCC7019798ECBCC70135B
:101523007986CC700EF9802ACA33CACB33CBCC333D
:10153300CC331930E7F2CCCBCA3350147004EA3001
:10154300E00DE4CA3ACACB3BCBCC3CCC500209C336
:10155300E913C6CC182313C6CB18C6CA18C6F9227A
:101563001215A320F01430E72B74FFFCFBFA747FF1
:101573008022E4FCFBFA7480801AB48008BC00F279
:10158300BB00EF800F50EBF9E4C39AFAE49BFBE452
:101593009CFCE499C6CC18C6CB18C6CA18C6F92257
:1015A300E4C9C608CAC608CBC6D3330308CCC633BE
:1015B30092F0C3947F402E94184019C9B90704CA06
:1015C300CBCC225025C309CA33CACB33CBCC33CCC3
:1015D30033D9F422F4600DC9CCC313CB13CBCA1394
:1015E300CAD9F6CC22E4FCFBFA2214FCFBFA22E66D
:1015F3002618461846184622E72719471947194758
:1016030022181818E60846087009E626087005E649
:1016130033F4220822191919E70947097009E72742
:10162300097005E733F4220922E6084608C3134686
:1016330008336002E633F422E7094709C313470975
:10164300336002E733F4220012162C604F12163B6C
:101653006012E7548066F612160470111215FB70BF
:101663003B090909F4F618F618F618F622121618AB
:1016730070151215F208080860EAE6447FF618763A
:101683008018E4F618F6221215F260161215FB7094
:1016930012E4F608F608F608E65480F60909091874
:1016A300181822EAC0E0EBC0E0ECC0E0EDC0E0E6D1
:1016B30087F0A4FBACF008E687F0A42CFCE435F03B
:1016C300FA1809E687F0A42C4B60027401CA35F0BE
:1016D300FCE433FB09E687F0D2F7A42CCB35F0FC0E
:1016E3001908E687F0A42BCC35F0FBE433FD081989
:1016F300E687F0D2E7A42C4ACB35F0CD3400FC09C1
:10170300E687F0D2E7A42DCC35F0FDE433FA0918CF
:10171300E687F0D2F7A42CCD35F0CA3400FC08E6F6
:1017230087F0D2E7D2F7A42ACC35F07A7E20E70BF4
:101733000ACB33CBCD33CDCC33CC33CB3350147036
:1017430004ED30E00ED2F1E4CD3DCDCC3CCC3B50AA
:1017530005DA05C2F1EB547FC63308E63392F0FB9A
:10176300E73309E733C39A502D2B70190C0D4C4DF9
:1017730070151806E608C333700D20F10AA2F013A2
:10178300F6E418800B4024E4F630F002768018F675
:1017930018F618F68024D33B14501074FFA2F013EC
:1017A300F6187680E418F618F6800FA2F013F618F0
:1017B300E63303F618ECF618EDF6D0E0FDD0E0FCC6
:1017C300D0E0FBD0E0FA2212162C7004181818226D
:1017D30012163B700D74FFF61819F61819F618193E
:1017E300F622E7548066F61215F2700F1215FB709D
:1017F300F014F608F608F608F680D11215FB700C03
:10180300F608F608768008E6447F80EC12161B7013
:101813000C12160760BFE65480F6E480BB1216076D
:10182300700519191980A5E869700C763F18768040
:1018330018F618F6E8F922E6CDC0E018ECC0E0E6A9
:1018430033CD33CDD313F6E719FCE7191933CC3372
:10185300C3947F400ECD9D502408E65480F6E418CF
:10186300F6800FF4043D14501408E6447FF618760E
:1018730080E418F618F6D0E0FCD0E0FD22CCD313B8
:10188300CCFD18E4C6CBC0E018E4C6CAC0E0080823
:10189300ED08C633E613F618E433C675F003C3CA7E
:1018A30097CA09CB97CB199C40047D08802EBD00B5
:1018B3000302197316B6FF050606081618C3CA33C2
:1018C300CACB33CB33CA27CA09CB37CB193CC37D29
:1018D30008803E187D0820E75CC633C6CA33CACBEE
:1018E30033CB33DDF1D5F0EB30E77BCA97CA09CBB5
:1018F300974ACB199C406F4B7025E620E021806608
:10190300187D08C3CA97CA09CB97CB199CD3C63392
:10191300C6CA33CACB33CB3350C9DDE7D5F0E1D3E5
:10192300E4C636C608C636C608C636C608C636C6B0
:101933001818188031C3CA97CA09CB97CB199CB31F
:101943004097C633C6CA33CACB33CB33DD34D5F065
:101953002EC6A2E0C640C8CA27CA09CB37194A70A7
:10196300BECB3CB480B90808E63308E633601F18E1
:101973001818D0E0FAD0E0FBD0E0FCD0E0FD22184C
:101983007D08CA27CA09CB37CB193CD3808013F60D
:1019930018E4B67F11F618B6FF0EF618C60470D217
:1019A3000808768080CAF618F618F680C508080875
:1019B300EAC0E0EBC0E086F0E7A4FA180986F0E796
:1019C300A42AFA180986F0E7A42AFA180986F0E788
:1019D300A42AFA1986F0E7A4FBE5F02AFA19088687
:1019E300F0E7A42BFBE5F03AFA190886F0E7A42BFD
:1019F300FBE5F03AFA18180986F0E7A4C5F02BFBCB
:101A0300E43AFA1908E7C5F0C6A426F6E5F03BFB6D
:101A1300E43AFA1886F0E7A4F6E5F00826F6E43B84
:101A230008F6E43A08F6D0E0FBD0E0FA22E4CFC0AF
:101A3300E0E4CEC0E0E4CDC0E0E4CCC0E075F0204B
:101A4300E626F608E633F608E633F608E633F61834
:101A53001818EC33FCED33FDEE33FEEF33FFC3EC2C
:101A63009709ED9709EE9709EF97191919400FFF99
:101A7300EC97FC09ED97FD09EE97FE191906D5F0D1
:101A8300BFECF709EDF709EEF709EFF7191919D0CC
:101A9300E0FCD0E0FDD0E0FED0E0FF2260160808B5
:101AA30008C6C313C618C613C618C613C618C6136A
:101AB300C6D5E0EA2270090808082260161818182B
:101AC300C6C333C608C633C608C633C608C633C63C
:101AD300D5E0EA22E627F60809E637F60809E637ED
:101AE300F60809E637F622E026F608A3E036F608FC
:101AF300A3E036F608A3E036F622E026F008A3E0DA
:101B030036F008A3E036F008A3E036F022C3E697E8
:101B1300F60809E697F60809E697F60809E697F640
:101B230022C3E096F008A3E096F008A3E096F0083D
:101B3300A3E096F022E657F60809E657F60809E609
:101B430057F60809E657F622E056F608A3E056F6DC
:101B530008A3E056F608A3E056F622E056F008A3E1
:101B6300E056F008A3E056F008A3E056F022E06642
:101B7300F608A3E066F608A3E066F608A3E066F6B7
:101B830022E0F608A3E0F608A3E0F608A3E0F622B5
:101B9300E6F008A3E6F008A3E6F008A3E6F022E0E7
:101BA300FAA3E0FBA3E0FCA3E0FD22EAF0A3EBF041
:101BB300A3ECF0A3EDF022E0F8A3E0F9A3E0FAA38D
:101BC300E0FB22E8F0A3E9F0A3EAF0A3EBF022CADA
:101BD300C0E0E6F0A308DAFAD0E0FA22CAC0E0E0F7
:101BE300A3C582CCC582C583CDC583F0A3C582CCF2
:101BF300C582C583CDC583DAE6D0E0CA22C3E498A3
:101C0300F8E499F9121C418026C3E49AFAE49BFB99
:101C1300E920E7E9121C41E498F8E499F922C3E4C6
:101C230098F8E499F9121C41E498F8E499F9C3E4AB
:101C33009AFAE49BFB22EB20E7CFE920E7E0B90027
:101C430010BB0008E88AF084F8AAF022E4FBC8FA83
:101C530022EB70227B10C833C8C933C9335007C382
:101C63009AC3DBF280069A50012ADBEAC833F4C830
:101C7300C933F4C9FA2275F008E4C833C8C933C9B3
:101C830033C99AC99B5004C92AC93BD5F0ECFBC898
:101C930033F4C8E4C9FA22600D08C6A2E713C618D4
:101CA300C613C6D5E0F322600C08C6C313C618C614
:101CB30013C6D5E0F422700422600D18C6C333C6E0
:101CC30008C633C6D5E0F41822252110AF08F52144
:101CD300400C15228008F52140021522D2AF2200C4
:101CE300C0D0252110AF08F521500C05228008F53E
:101CF3002150020522D2AFD0D0222521F58210AF88
:101D030008F521400C15228008F52140021522D246
:101D1300AF852283222521F582E43522F58322250E
:101D230021F8E43522F9222521FAE43522FB222584
:101D330021FCE43522FD22E4732521C582C0E0E5C0
:101D43002234FFC583C0E0E521C3958224F810AF98
:101D5300088583228582218008858322858221D27A
:101D6300AFCEF0A3E520F0A37808E608F0A3DEFAEF
:101D7300EFF0A3E58124FAF8E608F0A3E608F0A360
:101D8300E608F0A30808E608F0A3E608F0A3158127
:101D93001581D0E0FED0E0F8158115811581E8C0EA
:101DA300E0EEC0E0222521C582C0E0E52234FFC574
:101DB30083C0E0E521C3958224F910AF088583220F
:101DC3008582218008858322858221D2AFCEF0A32C
:101DD300E520F0A37808E608F0A3DEFAEFF0A3E528
:101DE3008124FBF8E608F0A3E608F0A30808E60858
:101DF300F0A3E608F0A315811581D0E0FED0E0F84A
:101E030015811581E8C0E0EEC0E02285228385219B
:101E130082E0A3FEE0A3F5207808E0A3F608DFFA4A
:101E2300E0A3FFE0A3C0E0E0A3C0E0E0A3C0E0E0E4
:101E3300A3C0E0E0A3C0E010AF0885822185832220
:101E43008008858221858322D2AFD083D08202018C
:101E530032852283852182E0A3FEE0A3F520780862
:101E6300E0A3F608DFFAE0A3FFE0A3C0E0E0A3C02D
:101E7300E0E0A3C0E0E0A3C0E010AF0885822185C5
:101E830083228008858221858322D2AFD083D082AA
:101E930022C0D02521C582C0E0E52234FFC583C01E
:101EA300E0E521C3958224F310AF08858322858260
:101EB300218008858322858221D2AFC8F0A3E9F06F
:101EC300A3EAF0A3EBF0A37908E709F0A3D8FAECAF
:101ED300F0A3EDF0A3EEF0A3EFF0A3D0E0F0A3D0D6
:101EE300E0F0A3D0E0F0A3E520F0A3E5F0F0A32217
:101EF300852283852182E0C0E0A3E0F9A3E0FAA371
:101F0300E0FBA37808E0F608A3DFFAE0FCA3E0FD1A
:101F1300A3E0FEA3E0FFA3E0C0E0A3E0C0E0A3E0F2
:101F2300F5D0A3E0F520A3E0A3F5F010AF08858377
:101F3300228582218008858322858221D2AFD082A7
:101F4300D083D0E0F8D0E0327404800674028002BB
:101F53007401C0E0F404121CFDD0E0121BD2227401
:101F630004800474028000CCC0E0EDC0E0E521C32E
:101F73009CCCAD2250011D10AF068C218D22800612
:101F83008C218D22D2AF121BDFD0E0FDD0E0FC22EA
:101F9300D083D082E9C0E0E493A3C386F0C5F09573
:101FA300F0F908E493A386F0C5F095F0700BE49381
:101FB300A3C3994005E9048002A3E475F002A425B4
:101FC30082F582E5F03583F583D0E0F9E493A3C08D
:101FD300E0E493C0E022D083D082ECC0E0EDC0E027
:101FE300E493A3FCE493A3FDED4C600D122025ECD8
:101FF30024FFFCED34FFFD80EFE493A3FCE493A303
:10200300FDED4C600D122064EC24FFFCED34FFFD6C
:1020130080EFD0E0FDD0E0FCE493A3C0E0E493C004
:10202300E022C0E0C3E49396087401939618400F2E
:10203300E49366700808740193661870007019A31E
:10204300A3C3E49396087401939618A3A3400DD0F9
:10205300E0D0E0D0E0022015A3A3A3A3A3A3D0E084
:1020630022C0E0C0F088F0E493667008087401931E
:1020730066187000A8F0A3A3700BD0F0D0E0D0E0F6
:0C208300D0E0022015A3A3D0F0D0E02292
:1020900074F6121DA8EAFEEBFF8C088D09EE2434BD
:1020A000F8E43FF9E8FCE9FDEE2435122385FAEE69
:1020B0002437122385F88508F0A4C885F00A85091D
:1020C000F0A4250AF9EA28F8E439F97A257B001208
:1020D0001C41EA8C828D83F0FA131313541FF8EE1F
:1020E00028F8E43FF9E8245DF582E439F583E0C09F
:1020F000E074075AF8D0E0B800028004C313D8FC9B
:10210000A2E0EE50082434F582E43F801824361211
:102110002385F5F0EA84A8F0EE28F8E43FF9E824F6
:1021200038F582E439F583E0F97F03021E5474F731
:10213000121DA8EAFEEBFFEE2434122385C0E0EE68
:102140002435F582E43FF583D0E0F08E828F83A3BF
:10215000A3A3A3A3A3A3C082C0838E828F83A3A3C0
:10216000A3A3A31221F6D083D082E0C398F508A3DD
:10217000E099F509EE247F1223856401705DEE2459
:10218000801221F08E828F83A3A3A3A3A3A3A31203
:1021900025288E828F83A3A3A3A3A3E0FAA3E0FB49
:1021A000C3EA9CEB9D5010C3EC98ED99402DC3EA17
:1021B00098EB995026800EC3EA98EB994007C3EC40
:1021C00098ED9940167CBD7D06EEFAEFFB120B28C8
:1021D000EE247FF582E43FF583E4F0AC08AD09EE30
:1021E000FAEFFB122090E9F9122BEA7F02021E544B
:1021F000F582E43FF583E0F8A3E0F92274EF121DC5
:10220000A8900369E064086005E06407702A9061A3
:10221000C8E06024900397E0F4601DE0F875F00CCE
:10222000A4C8AAF02AF9749928FE740339FF8E8293
:102230008F83A3A3A3E0700302230A906060E0C031
:10224000E0EE2468F582E43FF583D0E0F0750CF908
:10225000750D06750800750900E5D914F50AE5D96C
:102260005403F50E60127403650E6043E50A600ABC
:10227000EE2467122385700280759006F4E06401F5
:10228000601F12238260047A0480027A00E50AC388
:102290009AFA95E0FB1209D28A088B09EA4509707F
:1022A00005120DC2806412238270048A0C8B0DE526
:1022B0000A6012850C82850D83F50BE5D9F0A31514
:1022C0000BE50B70F6122382604474FC250AF50AB4
:1022D000780C121F4FAC0AA90EEEFAEFFB120BEEB0
:1022E0007402121CE2E97026AA08AB0912141679CE
:1022F0003D8E828F83A3A3A3A3E0FA7B0012084C38
:10230000EEFAEFFB120B4C120C4E7900806F740347
:10231000650E6051850A107511007810121F4FACC0
:102320000CAD0DAA08AB09120BB27402121CE2EE3E
:10233000246812238564807004747F8001E0F50CAA
:10234000780C121F53E50EF50C780C121F53A90AD6
:10235000AC08AD09900397E0FA7B0012081C7402E8
:10236000121CE28013900369E06408700BAC0CADA2
:102370000DEEFAEFFB120C1E120DCE79017F0A0250
:102380001E54EE2482F582E43FF583E02274F212BB
:102390001DA874FC121CCCEAFEEBFF8909A2AFE475
:1023A00033F508C2AF022449E0601B780C121F4FBE
:1023B000AC0BA90EEEFAEFFB120BE87402121CE252
:1023C0007404250BF50B7401250BF5D9850ED9E5A1
:1023D0000B6018F50A850C82850D83E0F5D9A3857D
:1023E000820C85830D150AE50A70EA75E195EE24E5
:1023F00063F8E43FF97A007B00A2AFE433F50BC247
:10240000AF122524EC4D603288828983E0FAA3E084
:10241000FB8A828B8312252888828983ECF0A3EDC6
:10242000F08A828B83E4F0A3F0122524EC4D700A2D
:1024300088828983A3A3E4F0A3F0E50BA2E092AF26
:102440001214169006C4E004F0EE24631221F0E8A2
:10245000496064EE24631223852402F8A3E034006B
:10246000F988828983E5822402F50CE43583F50D31
:10247000E0F50BA3E0F50EEE2462122385640170F3
:10248000369061D0E0F812238260047C0480027CE4
:10249000007480C398FA95E0FBE50B2CF8E4340057
:1024A000F9E82402F8500109C3EA98EB99A2D26531
:1024B000D03340030223A89006C4E0604D9006C5C7
:1024C000E0F89006C4E0C398500C74026509703AB5
:1024D0009006C6E060348E828F83A3A3A3A3E08519
:1024E000218285228312251A7402121D18E81225F2
:1024F0001A9006C3E028F07402121D32AA21AB2202
:1025000079011208769006C4E4F0E508A2E092AFE3
:102510007404121CE27F07021E54F0A3E4F090063C
:10252000C4E0F82288828983E0FCA3E0FD22000059
:102530008524878525C622C0E074EB121E94A2AFC5
:10254000E433F508C2AF759B00906182E0A2E050D1
:1025500030E591A2E0502A7591FE74016524702146
:102560001226CA120CEA1226B8121F62122B267407
:1025700004121CE2E9640170057901120D26122192
:10258000FC906182E0A2E5505DE591A2E5505775AF
:1025900091DF900369E064076005E06408702F1222
:1025A00026CA74016524703E120CEA1226B8121F66
:1025B00062122B267404121CE2E964017005790191
:1025C000120D267901EEFAEFFB12238D8018E064DC
:1025D0000D701390038BE004F064287002E4F07A2D
:1025E00000E0F9120DD4906182E0A2E640030226D9
:1025F0008DE591A2E6400302268D7591BF90036997
:10260000E064057008120CD2120CDE8003120CD8A4
:10261000752400120D44E990036AF07900120D262A
:10262000120A927A017B00900368E0F912102C9054
:102630007803E0644270569006F8E014F0704EC2E1
:10264000AF122644007827D0E0F618D0E0F6E59FD8
:102650005407F87005750DFF8003750D7FC4C0E049
:102660007826E6F50A08E6550DF50B740B780A1284
:102670001CAAD0E0250AF8906270E0A2E740F8E8D2
:10268000C333906272F0906270E0D2E0F0906181AA
:10269000E0A2E35009E5E9A2E3500375E9F7A3E0FE
:1026A000A2E75009E591A2E7500375917FE508A2E2
:1026B000E092AF7F08021EF38E828F83E0F8A3E0E2
:1026C000C82416F582E438F58322900397E0F87564
:1026D000F00CA4C8AAF02AF9749928FE740339FFF3
:1026E00022C0E0C0D0C082C083906183E0A2E050ED
:1026F00009E5BFA2E0500375BFFEE0A2E15009E585
:10270000BFA2E1500375BFFDE0A2E25009E5BFA200
:10271000E2500375BFFBE0A2E35009E5BFA2E3501E
:102720000375BFF7E0A2E45009E5BFA2E4500375CA
:10273000BFEFE0A2E55009E5BFA2E5500375BFDF9A
:10274000E0A2E65009E5BFA2E6500375BFBFD08303
:10275000D082D0D0D0E032C0E074F2121E94E5A74F
:10276000A2E6500FE5A1A2E6500953A7BF75A1BF8D
:102770001227ABE5A7A2E5500CE5A1A2E550065350
:10278000A7DF75A1DFE5A7A2E15009E5A1A2E1500D
:102790000375A1FDE5A7A2E2500CE5A1A2E2500657
:1027A00053A7FB75A1FB7F01021EF374F7121DA84E
:1027B000752401900369E064067015120C728A8218
:1027C0008B83A3A3A3A3A3A3E0FAA3E0FB120CC0F3
:1027D000A2AFE433FED2AF90036FE0640170187AC9
:1027E000207B00900368E0F91210B07A207B009003
:1027F0000368E0F9121032906182E0D2E6F09006B0
:10280000F5E0602185C625801690036EE0640170B6
:1028100008E5C654F84405F5C653BEFC12253074CD
:1028200001652460E4EEA2E092AF7F02021E5474C0
:10283000E9121DA874FA121CCCEAFEEBFF8C0A8D7B
:102840000B120CF6EAF8EBF9ECFAEDFB8E828F83B3
:10285000121BC6900369E024F7C394055006751453
:1028600001022996120C728A088B09EA4509700345
:10287000022993EEFCEFFDAA21AB22120CF0850891
:1028800082850983A3A3780C121B84908D94780C05
:10289000121B4B8521828522837810121B84908D18
:1028A000947810121B4B780C79101214C7501F78B3
:1028B0000C7910121B10908D54780C1214E74047BD
:1028C000850C14850D15850E16850F178045908D86
:1028D00054851014851115851216851317781479EF
:1028E0000C121B1078141214E7501C751400751587
:1028F0000075160075170178147910121B107814E2
:10290000790C121AD7800C75140175150075160014
:1029100075170074097814121AB8908CF0780C129C
:102920001B847814790C121A30850882850983A3D8
:10293000A3A3A3A3A31229B4121C41880C890DE4FC
:10294000F50EF50F7814790C121AD77404121D18AD
:102950001229B4121C41E8FA8A0CE4F50D781479B6
:102960000C1214C750077814790C121B10900369CD
:10297000E06408600AE064066005E0640570209089
:102980008D5078141214E75016908D487814121A4E
:10299000EA800C7514007515007516007517008512
:1029A0000A82850B837814121B937406121CE27F33
:1029B00010021E54E0F8A3E0F97AD07B032274F7EA
:1029C000121DA8120D089006F3E0640170109062C9
:1029D00045E4F0A3F053F4F343FE0C5390F3120CD0
:1029E000AEE5C654B84441F5C6E59E54476441700F
:1029F000F8906185740FF09006F1E0F47002A3E0A6
:102A0000604E9006F2E0600814601B14602E804057
:102A10007508017509009006F1E07808121CB9E507
:102A200008F45280802A7508017509009006F1E0CB
:102A30007808121CB9E508F45290801475080175E5
:102A400009009006F1E07808121CB9E508F452A0DC
:102A500079007F02021E5474F7121DA8E9FEEAFFF6
:102A6000120D0874016E700C7A807B00900368E090
:102A7000F912102C902C40E493F46008E493F912BE
:102A80000A86800953C6B8E59E544770FA120CB402
:102A90009006F3E064017003120AA49006F1E0F4DA
:102AA0007002A3E0604B9006F2E0600814601A1414
:102AB000602C803D7508017509009006F1E07808EA
:102AC000121CB9E50842808028750801750900903C
:102AD00006F1E07808121CB9E508429080137508E9
:102AE000017509009006F1E07808121CB9E508426A
:102AF000A0120C728A088B09A808A909E849601479
:102B0000E5E170FCE82414F582E439F583E0F46033
:102B100003E0F5E174016F700A7A01900368E0F94F
:102B2000121080022A5274F1121DA88A088B098C97
:102B30000A8D0B908D947808121B4B740F121D1880
:102B4000780C121B84908D94780C121B4B780879AA
:102B50000C1214C7908D5450107808790C121B1069
:102B600078081214E74014800E780C7908121B10B4
:102B7000780C1214E750047901800279007F080272
:102B80001E5474ED121DA88A088B098C0A8D0B90B7
:102B90008D947808121B4B7413121D18780C121B9D
:102BA00084908D94780C121B4B780C79081214C702
:102BB00040117808790C121B10AA08AB09AC0AADB9
:102BC0000B802275100075110075120075130178C5
:102BD00010790C121B1078107908121AD7AA10ABB2
:102BE00011AC12AD137F0C021E54C082C083E99059
:102BF0006000F0D083D08222C2AF02000022C0E089
:102C000074F2121E94E5A8FED2AF1212D8C2EBEEF7
:102C1000A2E7A2E792AF7F01021EF3C0E0C0D0E8B6
:102C2000C0E0E9C0E0E5A8D2AFC2C7752300A2E7C3
:0F2C3000A2E792AFD0E0F9D0E0F8D0D0D0E032F8
:102C4000FFFFFFFFFFFFFFFFC082C083E9901AFA7A
:102C5000F0D083D08202013274F6121D3CE990025A
:102C6000DCF090033BE0F508750900740278081267
:102C70001CB9AA08AB091210689002DD12360B903D
:102C800002DD1239F8606F90033BE075F003A4FA9F
:102C9000ABF01210689002FA12360B9002FA123959
:102CA000F8700B9002DD1239C912106E8048900244
:102CB000FA12495D7AFF7BFF12123C7A0080198A72
:102CC0000875090074027808121CB912440574FFD3
:102CD000122E0BE4F0A3F00A90033BE0F8EAC3984D
:102CE00040DD79051207149002DCE0F91206007A43
:102CF0009E7B071209720244A874F4121D3C8A08D4
:102D00008B09EB548060479002DCE0F91210148AC2
:102D10000A8B0BAE0AAF0BEE4F602A8E828F83E0D8
:102D200064B0701A120726E960148E828F83A3A301
:102D3000A3A3E0F9EE2405FAE43FFB1206F6EEFA4F
:102D4000EFFB121002AA08E5096480FB80047A00F8
:102D50007B00022F5B74F2121D3C74FB121CCCEA48
:102D6000FEEBFFEE4F60457403121D18EEF0A3EF6B
:102D7000F0852182852283ECF0A3EDF07402121D10
:102D800018E9F0AA21AB221205FAE9F5087075746A
:102D900013121D18E0F50AA3E0F50BE50A450B60D8
:102DA000638E828F83123394EE4F70057508028014
:102DB000537A067B001210688A0C8B0DA80CA90DA3
:102DC000E8497005750813803B88828983E4122ED8
:102DD0000BEEF0A3EF122F27E50AF0A3E50BF0901E
:102DE00002E0122F209002E06017E0FCA3E08003D5
:102DF000EAFCEBFD8C828D83122F2070F38C828D88
:102E000083124020A9087405024BDDF0A312493F4C
:102E1000A32274F2121D3C8908890C750D007403FD
:102E2000780C121CB9850C0A850D0B9002DFF0900E
:102E300002DD123E2B122F1E602E12106E790080C2
:102E40001D890C750D007402780C121CB99002DDFE
:102E50001242C48882F583A3A3E4F0A3F00990038F
:102E60003BE0F8E9C39840D990033BE0FA850AF0CB
:102E7000A4CAA8F0850BF0A428FB1210688A0C8B5A
:102E80000DAE0CAF0DEE4F7003022F1490033BE01C
:102E9000FC850AF0A4CCA8F0850BF0A428FD7900ED
:102EA000120FF07C0080318D0C750D007403780CCE
:102EB000121CB98A828B83122F1988828983E4F0CD
:102EC000122F26A3A3F0A3F00DEDC3950840D8EE72
:102ED000250AFEEF350BFF0C90033BE0F8ECC3989E
:102EE00050288C0C750D007402780C121CB99002DD
:102EF000DD122F19E82402500109FAE9FB8A828BBE
:102F000083EEF0A3EFF07D0080BFE5089002DFF0D4
:102F1000790080027913024BE01242C8F922A3A380
:102F20001239CDEA4B22A312493FA3A3A32274F482
:102F3000121D3C7900EAA2E0501F7508EA75098C61
:102F40007808121F4F79107C047D007AFC7B1A12DE
:102F5000070E7402121CE2E9F980007F04021E0EC3
:102F6000C082C0839002E01239F8601C8882898395
:102F7000A3A3E06A7003A3E06B8882898370E8A34F
:102F8000A3A3A31239C980047A007B00022C5174D8
:102F9000F2121D3C74FD121CCCEAFEEBFF8521826F
:102FA000852283E4F0A3F07402121D187401F0125C
:102FB00039F570141208C41210689002E312360B2F
:102FC0001239F5700302312112370BEE2404F50A91
:102FD000E43FF50B850A82F583E024FE603C24FC87
:102FE000607424FE607E24FE700302307124FE7043
:102FF0000302307E24FE700302308B24FE70030235
:10300000309824FE70030230A524FC70030230C601
:1030100024FE70030230DE02311A1208C49002E569
:10302000EAF0A3EB12312D120270E9600302311AAB
:103030009002E5121F668E828F83A3A3A3A3A3121F
:10304000495D8508828509831239C91206DE74023A
:10305000121CE202311AAC21AD22EEFAEFFB12078C
:103060002C0230E9AC21AD22EEFAEFFB12073280E0
:1030700078AC21AD22EEFAEFFB120738806BAC2161
:10308000AD22EEFAEFFB12073E805EAC21AD22EEE0
:10309000FAEFFB1207448051AC21AD22EEFAEFFBB0
:1030A00012074A80447402121D22880C890D780C84
:1030B000121F4F7402121D32EEFAEFFB120750740A
:1030C00002121CE28023AC21AD22EEFAEFFB1207C4
:1030D00056E9F870167402121D18E4F0803CAC2119
:1030E000AD22EEFAEFFB12075CE9F8E8602C8E8265
:1030F0008F83A3E064146022850A82850B83E090AD
:1031000002E5F08521828522831239C99002E612F8
:10311000360BE8A312312D12026AEEFAEFFB12060B
:10312000B47402121D18E0F97403024BDDF07CE563
:103130007D028508828509831239CD2274E8121D2B
:103140003C74FA121CCC7404121D18ECF0A3EDF0C0
:103150008A128B13EA2405F50EE43513F50FEA24E1
:1031600002F510E43513F511851082F5831239C983
:103170001203A88A0A8B0B7508007C037D00790076
:103180007AE57B02120FF0E50E2402F516E4350F06
:10319000F5177402121D22880C890D780C121F4F2E
:1031A000850E82850F83A3A3A3A3E0F50C750D0004
:1031B000780C121F4FE50E2405F50CE4350FF50DC4
:1031C000780C121F4F851682851783123CD0120689
:1031D000187406121CE28A0C8B0DE50C450D700369
:1031E00002335D8020852182852283E08882898365
:1031F000F00508852182852283A3E0C0E012339E7A
:10320000D0E0F00508E50A24FBFAE50B34FFFBC328
:10321000E5089AE49B400302335D7E007F0085123F
:1032200082851383A3A3A3A3E0F5097809121F5392
:10323000E4F514F5157814121F4F7514E275150294
:103240007814121F4F9002E3121F667409121D18A2
:10325000121F66E50A24F9F9AC0CAD0D85108285C4
:1032600011831239C91207867409121CE2E960033E
:103270000232FE850E82850F83A3A3A3A3A3A3A37B
:10328000E0F89002E2E0687075E0F5148E157814AD
:10329000121F4F12495A850E82850F83A3A3A3A341
:1032A000A3A3A3A31239C9120FEA7402121CE2E904
:1032B000604C9002E61239F8703BE4F51478141271
:1032C0001F4F7CFF7DFF790785108285118312399E
:1032D000C91206F07402121CE21239FE7017850E34
:1032E00082850F83124AF77404121D181243B81214
:1032F0003D01023391850C82850D83123394A82100
:10330000A922881489157814121F4F7404121D18ED
:10331000121F6685168285178312360112062474E1
:1033200004121CE28A0C8B0DEE4F70030231DA128C
:10333000339EEE1233A9123CB7EF1233A9F8A3E083
:103340003400F9E50C450D60030231E5888289837C
:1033500074FFF0050812339E74FFF00508E508605D
:103360001A1313543F12361112027CE960099002BD
:10337000E61239C912141679008016850E82850F5F
:1033800083124AF77404121D181243B812402079B0
:103390000A023C8AA3A3A3A3E0FEA3E0FF22A8089D
:1033A0009002E6E028123CB722F00508089002E6F9
:1033B000E0282274E8121D3C74FA121CCC7402122C
:1033C0001D1812360B7404121D18ECF0A3EDF074E6
:1033D00002121D18E02405123CA0E0F50CA3E0F554
:1033E0000D7402121D18E02402F510A3E03400F55C
:1033F00011851082F5831239C91203A8750800756A
:103400000900EA24FCFEEB34FFFF8008050CE50C04
:103410007002050DA808C3EE98EF94005003023522
:10342000BDA821A922880E890F780E121F4F85147E
:1034300082851583A3A3A3A3124961121F4FE5142C
:103440002405F50EE43515F50F780E121F4F85147F
:10345000828515831235FF1206187406121CE28A43
:103460000E8B0FEA450F70030235BDEA2404F516F2
:10347000E4350FF517851682F583E0F50CA3E0F52A
:103480000D85218285228312495D8A828B83A3A3C5
:10349000A3E0F98510828511831239C9120606E965
:1034A000F50960030235BD7402121D18123CC7F500
:1034B000097809121F53E4F512F5137812121F4F01
:1034C0007512E27513027812121F4F9002E3121F59
:1034D000667407121D18121F66EEF9AC0EAD0F854B
:1034E00010828511831239C91207867409121CE2F1
:1034F000E9F50960030235BDE508703FE4F50EF516
:103500000F780E121F4F7CFF7DFF79098510828591
:1035100011831239C91206F07402121CE2123CED3A
:10352000700D7404121D181235F479110235F190E2
:1035300002E2E024029002E6F080149002E6E0FA53
:103540009002E2E0790024025001096A497072A8F1
:10355000089002E2E0FAE82AFAE43400FBEE9AEF7F
:103560009B405A851682851783E0C0E09002E712DF
:1035700033A3D0E0F00508851682851783A3E0C049
:10358000E0089002E71233A3D0E0F005089002E2D1
:10359000124961121F4F12495AA808123C94120F87
:1035A000D87402121CE29002E2E02508F50874FFCC
:1035B000650C700474FF650D600302340CE508604F
:1035C0001F9002E6E0F5F0E508841236111202823F
:1035D000E960099002E71239C912141679008011C6
:1035E000E509700375090A7404121D181235F4A94F
:1035F00009023C8A123E2FE50CF0A3E50DF022A350
:10360000A3124BECAA0CAB0D22A3A3EAF0A3EBF0A0
:10361000229002E5F07CE57D0285108285118312FF
:1036200039CD2274EC121D3C74FC121CCC124130BA
:103630007402121D321239C312061E8A0C8B0DEA57
:10364000450D70030236FB12370BA821A922881002
:1036500089117810121F4F7CFF7DFF790B8508823E
:103660008509831239C91206F07402121CE212385D
:1036700001700C850A82850B83123CFE0237088E8E
:10368000828F83A3A3A3A3E0F5127812121F53E441
:10369000F512F5137812121F4F7512E575130278A3
:1036A00012121F4F7810121F4F7409121D18121F8B
:1036B000667409121D18E0F9AC0CAD0D8508828501
:1036C00009831239C91207867409121CE2E9FE70D7
:1036D000157CE57D028508828509831239C91202AD
:1036E00088E97009802074166E70027E009002E6F0
:1036F0001239C9121416EE7004800B7E01850A82FD
:10370000850B8312401DEEF9024032EE2402F508CB
:10371000E43FF5092274EC121D3C74FC121CCCEA47
:10372000FEEBFF8C0E8D0FEE2405F508E43FF50946
:103730007402121D328508828509831239C9120666
:103740001E8A0C8B0DEA450D70030237F1EE240240
:10375000F50AE43FF50BA821A922881089117810F9
:10376000121F4F7CFF7DFF790D1239C31206F074D2
:1037700002121CE2123801700B850882850983123F
:103780003CFE807A8E828F83A3A3A3A3E0F51278F8
:1037900012121F53850882850983A3A3121F667521
:1037A00012E57513027812121F4F7810121F4F7412
:1037B00009121D18121F667409121D18E0F912393A
:1037C000BF1207867409121CE2E9FE700F7CE57DCA
:1037D000021239C312028EE97009802074166E70CD
:1037E000027E009002E61239C9121416EE700480AF
:1037F0000B7E0185088285098312401DEEF9024087
:1038000032123A08F510A3E0F511EA45112274E8E6
:10381000121D3C74FE121CCC8A168B178C148D154D
:10382000EA2405F50CE43517F50DEA2402F50EE45B
:103830003517F50F850E82F5831239C91203A88A50
:10384000088B09750B007C037D0079007AE57B020B
:10385000120FF0750A00E50814F5100424FFF508AE
:10386000E50934FFF50980549002E5E0FA9002E2A0
:10387000E0F8EA28F8E43400F9E50898E5099950F9
:103880000D9002E5E0F8E510C3989002E2F0E0F553
:10389000127513007812121F4F12495A9002E6E077
:1038A0002AFAA3E03400FB120FD87402121CE29033
:1038B00002E2E0F89002E5E028F0050A850C828536
:1038C0000D83A3A31242D440030239A49002E5E081
:1038D000C39508E4950940030239A4AE0AEE2EFE12
:1038E000E433FF1239E3AC21AD22124975E439FB10
:1038F00012061E8A128B13AC12AD13EC4D701B75A1
:103900000B011239D31240219002E6122F206003DE
:10391000121416A90B7402023C8C8516828517833B
:10392000A3A3A3A3E0F50B780B121F53E4F512F544
:10393000137812121F4F7512E27513027812121FBC
:103940004F9002E3121F667407121D18121F66A91A
:1039500010850E82850F831239C9120786740912E9
:103960001CE2E9F50B709B9002E61239F860030245
:103970003868E4F512F5137812121F4F7CFF7DFFB3
:10398000790F850E82850F831239C91206F07402F1
:10399000121CE21239FE60030238681239D3123D5C
:1039A000020239157CE57D02850E82850F8312396E
:1039B000C9120294E960030239087900023915AC92
:1039C0000CAD0D850A82850B831239CD22E0FAA356
:1039D000E0FB221239E3E0FAA3E0F9EA85148285DC
:1039E000158322850C82850D83E02EF8A3E03FF934
:1039F00088828983229002E3124AFBE84922123A24
:103A000008F8A3E0F9E849229002E6EAF0A3EBF017
:103A10009002E6E02274E8121D3C74FA121CCC7489
:103A200004121D1812360B8C168D177404121D18F3
:103A3000E02405F50EA3E03400F50F7404121D1800
:103A4000E02402123CA01239C91203A88A0A8B0B87
:103A50007F007E00A821A922880889097808121F02
:103A60004F850E82850F83A3A3A3A3E0F5088E09DB
:103A70007808121F4FE50E2405F508E4350FF50907
:103A80007808121F4F850E82850F83A3A3123CD0A6
:103A90001206187406121CE28A0C8B0D8029123C47
:103AA000C1F00F123CC1F00F9002E212400C121F45
:103AB0004F12495AEFF8123C94120FD87402121C9C
:103AC000E29002E2E02FFFE50C450D7003023B504F
:103AD000852182852283124142A3A3A3E0F98514A4
:103AE000828515831239C9120606E9FEE50C240405
:103AF000F510E4350DF511EE70507404121D181216
:103B00003CC7F5087808121F53E4F508F509780852
:103B1000121F4F7508E27509027808121F4F9002B4
:103B2000E3121F667407121D18121F66E50A24FAB5
:103B3000F9AC0CAD0D8514828515831239C91207B5
:103B4000867409121CE2E9FE6039123CDD12402045
:103B5000EF7003023C779002E6E0F5F0EF8490020C
:103B6000E5F07CE57D028514828515831239C91242
:103B7000029AE960099002E71239C9121416790015
:103B8000023C8A8F08EF703BE4F512F513781212AD
:103B90001F4F7CFF7DFF79118514828515831239B3
:103BA000C91206F07402121CE2123CED7009123CBC
:103BB000DD123D01023C8A9002E2E024049002E61C
:103BC000F080359002E2E0F89002E6E0FAE82404A2
:103BD000FCE43400FDEC6A4D6003023B56E50A2428
:103BE000FAFAE50B34FFFBE50828F8E43400F9EABB
:103BF00098EB995003023B56851082851183E0C0F3
:103C0000E09002E7E02FF8A3E034008882F583D04B
:103C1000E0F00F851082851183A3E0C0E0123CAE76
:103C2000D0E0F00F7402121D22880889097808126A
:103C30001F4F7402121D18121F66850E82850F8396
:103C40001235FF1206247404121CE28A0C8B0DEA52
:103C5000450D7003023A9E7402121D18E0C0E01276
:103C60003CAED0E0F00F7402121D18A3E0C0E012C9
:103C70003CAED0E0023AA6EE70027E0A850E828546
:103C80000F83123CE3124020EEF97406121CE27F0F
:103C900010021E0E9002E7E028FAA3E03400FB2297
:103CA000F514A3E03400F515851482F58322123C47
:103CB000B2229002E7E02FFAA3E034008A82F58373
:103CC00022123CB274FF22123E2FA3A3A3A3E02230
:103CD000124BEC850E82850F831239CD228510821E
:103CE000851183124AFB851682851783229002E78D
:103CF000EAF0A3EBF09002E7124AFBE849221240F7
:103D000026E8F0A3E9F079112274EA121D3C74FE52
:103D1000121CCC8A088B098C128D13EA2405FEE450
:103D20003509FFAC21AD228E828F831239C912066C
:103D30001E8A0C8B0DEE2406F50EE43FF50FEA45C6
:103D40000D7003023E01E5082402F50AE43509F589
:103D50000B8A828B83A3A3A3E0A2E550288521824E
:103D60008522831239C912077A8A108B11EA45110C
:103D7000602079121239BF851082851183121D3A95
:103D8000E9F50C707F850E82850F83E0600979521A
:103D90008011750C0E806D850882850983A3A3A30D
:103DA000A3E0F9E4F508F5097808121F4F8E828F19
:103DB00083A3A3E0F5087808121F4F8E828F83A398
:103DC000A3A3121F668E828F8312495D1239C3121C
:103DD000078C7406121CE2E9F50C7011850E8285C1
:103DE0000F83E0702D1239C31202A080257416656E
:103DF0000C7011750C007418121D18123E2BE48003
:103E000010750C01124AF3851282851383E8F0A322
:103E1000E9F0850E82850F83E0600479008002A9B5
:103E20000C7402121CE27F0E021E0E123E2F22E0C4
:103E3000F8A3E0F58388822274EC121D3C74F7121B
:103E40001CCC8A0A8B0B8C108D11EA2405FEE435FC
:103E50000BFF750C00AC21AD228E828F831239C905
:103E600012061E8A088B09EA45097003023FF7E52E
:103E70000A2402F50A5002050B8A828B83A3A3A3AE
:103E8000E0A2E5502F8521828522831239C91207CD
:103E90007A8A0C8B0DEA450D604F7912AC08AD099A
:103EA0001239C3850C82850D83121D3AE9F50C6029
:103EB00003023FFA850A82850B83E0F508A3E0F54B
:103EC00009AA08FB12076EEA4B70197AFF7BFF12F2
:103ED000076EEA4B7003023FED8A828B83E508F0A0
:103EE000A3E509F07508008008750C0E023FFA057D
:103EF000089002DFE0F8E508C3984003023FED8533
:103F0000080E750F007403780E121CB98A828B8319
:103F1000A3A3E0250EF8A3E0350F1243C170D08EA5
:103F2000828F8312401512360B8E828F83A3A312C9
:103F30004015123609EE2404F508E43FF50985081A
:103F400082F583E088828983A3A3A3A3F0A3E4F08E
:103F5000EE2405F50EE43FF50F850E82F583124041
:103F600015A3A3A3A31236097512077513007812BF
:103F7000121F4FEEFCEFFD7404121D2A120FD874AD
:103F800002121CE2E4F5127812121F4F8508828596
:103F90000983E0FC7D0079171239C31206F0740220
:103FA000121CE27407121D1812360B7407121D182A
:103FB000E0FA4B603D85088285098312400C121F90
:103FC0004F850E82850F8312495D120FD87402123D
:103FD0001CE27402121D321239C31202A6E96026D5
:103FE0007407121D181239C91214168019750C099C
:103FF0008008750C118003750C01124AF38510823C
:10400000851183124020A90C74098028E0F50875F9
:1040100009007808221239CD88828983221240262D
:10402000E8F0A3E9F022E0F8A3E0F9850E82850F1D
:1040300083227404121CE27F0C021E0E74EC121D0B
:104040003C124130751000EE2402F50CE43FF50DF2
:10405000850C82F5831239C912076E8A088B09EA2A
:1040600045097003024114850A82850B83E06401CF
:104070006003024109AC08AD09AA0AAB0B12076242
:10408000E9606E850882850983123396EE2406F571
:104090000AE43FF50B8E828F83A3A3121F668E82E4
:1040A0008F83A3A3A3A3121F66850A82850B8312A5
:1040B0001F6679188E828F831241421239C9120706
:1040C0008C7406121CE2E9F8741668700B850A827B
:1040D000850B83E4F0A38014E860128E828F831234
:1040E00039C9850E82850F83EAF0A3EBF088108032
:1040F00018780E121F4FAC08AD09EEFAEFFB12074D
:10410000687402121CE2E9F510AA08AB09120774E0
:10411000E510700E850C82850D831239C91202AC30
:104120008009741665107003751000A910024037DD
:10413000EAFEEBFF8C0E8D0FEE2405F50AE43FF549
:104140000B22124BEC850C82850D832274EA121D22
:104150003C7508007509007E007F00750A00EC249C
:1041600002F510E43DF5118035EC65087003ED654E
:1041700009600302420188828983A3A3E06A700375
:10418000A3E06B707C88828983A3A3A3A3124AF760
:10419000EE28FEEF39FFEA28FAEB39FB050A124256
:1041A000D1503A850A0C750D007403780C121CB9B5
:1041B0008510828511831242C41243C1601FE50835
:1041C000450970A58C088D098882898312339488EB
:1041D000828983A3A3E02EFAA3E03F80BEE50AC351
:1041E000940250030242BF750800750900EE4F604B
:1041F00010EEFAEFFB1214108A0E8B0FEA450F70C7
:104200000579000242C1750B00024294850B0C75C2
:104210000D007403780C121CB9851082851183E09F
:10422000250CF50CA3E0350DF50DE50C2406F51471
:10423000E4350DF515851482F5831243C66042E519
:104240000C2404F512E4350DF513851282F5831262
:104250001F66E50E2508FAE50F3509FB120FD87425
:1042600002121CE2851282851383E02508F508A35B
:10427000E03509F5098514828515831239C91214B0
:1042800016E50B600D7C087D007900AA0CAB0D12C1
:104290000FF0050BE50BC3950A500302420C851085
:1042A00082851183124AF788828983A3A3A3A3A3DB
:1042B000A3E50EF0A3E50F122F27EEF0A3EFF079A0
:1042C00001023E261242C822E0250CF8A3E0350D7B
:1042D000229002DFE0F8E50AC3982274F0121D3C38
:1042E0008A0E8B0F8C0A8D0B750D00750C0080509B
:1042F0007916EE2406F508E43FF5098E828F83A334
:10430000A3121F668E828F83A3A3A3A3121F6685A9
:104310000882850983121F66850E82850F83A3A3F9
:104320001239C912078C7406121CE2E9F50D7416D5
:10433000650D706C850882850983E4F0A3F0050C97
:104340009002DFE0F8E50CC3985066AA0C8A087565
:10435000090074037808121CB9850A82850B83A3AF
:10436000A3124410E8FEE9FF8E828F831243C660D9
:1043700040EA2401F508E43400F5099002DFE06525
:10438000087002E509601488828983A3A3A3A3A30C
:10439000A3A3A31239F860030242F079180242F293
:1043A000E9609B124AF37410121D181243B81240B0
:1043B00020A90D7F08021E0EE0FAA3E0F5838A8291
:1043C00022F988828983124BECEC4D2274F6121D7F
:1043D0003C7C0080010C90033BE0F8ECC398501E3D
:1043E0008C0875090074027808121CB9124405E0A3
:1043F0006A7003A3E06B70DDE8FAE9FB80047A00E1
:104400007B000244A89002DD124410888289832236
:10441000E02508F8A3E03509F92274F2121D3C8A60
:10442000088B09750A0080278E828F83A3A3A3A31C
:10443000122F1E60031214167C087D007900EEFA1C
:10444000EFFB120FF08E828F83E4F0A3F0050A12C7
:1044500042D15027850A0C750D007403780C121C8C
:10446000B9850882850983A3A3E0250CFEA3E03566
:104470000DFF8E828F831239F870AD850882850911
:104480008374FFF0A3F0024BE074F6121D3C120798
:10449000208A828B83E582458370067A007B0080C8
:1044A00007A3A3A3A31239C97F02021E0E74F4123C
:1044B0001D3C89088C828D83E06402703C124A9610
:1044C000FEA3E0F9EEF8740268700374296970299C
:1044D000750A02750B00780A121F4F7410121D180E
:1044E000121F667410121D18121F66A908121242BC
:1044F0007406121CE2E9F980027901022F5B74E86C
:10450000121D3C74FB121CCCE9852182852283F0AC
:104510008A168B17ECFEEDFF7510008E828F83A339
:10452000A3A3E0A2E4502D741D121D181239C91264
:10453000077A8A828B83E582458370030249357945
:104540000AEEFCEFFDAA16AB17121D3AE9F5106052
:1045500003024938741F121D18E0F508A3E0F5099D
:104560007421121D18E0F50AA3E0F50B7423121D47
:1045700018E0F50EA3E0F50F8E828F83E0640260F1
:10458000030248D6A3124AF7850882850983A385CA
:104590008212858313EE2406F50CE43FF50D888224
:1045A0008983124975F514E439F5157814121FD969
:1045B000010000280128D845070002289D4603284D
:1045C0000B460029CC470129F747022998470329C0
:1045D000CC4704297048D648E50E450F60030248D1
:1045E000D1850C82850D83124AF7E8FAE9FB8A82AD
:1045F0008B83E0850A82850B83124980121F4F8AC4
:10460000828B83A3E0FCA3E002485AE50E450F60CD
:10461000030248D1850A82850B837401F012496A2E
:10462000850882850983F07C007D008E828F83A3BC
:10463000A3A3A3E02401FAA3E03400FB12061EEAC0
:104640004B60408A828B83E02402F8850A82850BC6
:1046500083E028F0EA2404F8E43BF988828983E0C7
:1046600085128285138312498E124980121F4F8A48
:10467000828B83A312495DE5082403FAE43509FB24
:1046800002485F850A82850B83E02404F07C047D68
:10469000007900AA12AB13120FF0024938E50E455B
:1046A0000F60030248D112496AFEA3E0FF850A8227
:1046B000850B837404F0EE850882850983F0EF850D
:1046C0001282851383F07403121D32EEFAEFFB128F
:1046D000061E8A0C8B0DEA450D700302477B8A8209
:1046E0008B83A3A31233947401121D22880E890FA9
:1046F000780E121F4F7405121D18121F667CFF7D65
:10470000FF1206247404121CE28B0FEA450F70336B
:10471000850C82850D83124961121F4F850C82859D
:104720000D83A3121F667C027D007AAE7B8D12037F
:10473000967404121CE2E9700A7401121D1874FFC9
:10474000F0A3F08E828F83E064027039750C0275DD
:104750000D00780C121F4F8E828F83A312495DE5E6
:10476000082404FAE43509FB120FD87402121CE283
:10477000850A82850B83E0240280097401121D18CA
:10478000EEF0A3EFF07401121D1812494F740112DC
:104790001D181249460248CBE50E450F600302483A
:1047A000D1850C82850D83124BE5AA16AB17121228
:1047B00048850A82850B837402F085088285098307
:1047C000EAF0851282851383EB0248CEE50E450F91
:1047D00060030248D112496AF8A3E0F9850A82858C
:1047E0000B837402F0E8850882850983F0E985125D
:1047F000828513830248CE850C82850D831239C9C8
:10480000120FD2EAFAF8C3950EE4950F405CE86502
:104810000E450F70047A008021852182852283E075
:10482000FCE50E2CFCE4350FFDC3EC98ED94005034
:1048300003E08005E50ECAC39AFAEA850A82850B71
:1048400083F08A0A750B00780A121F4F850C828547
:104850000D83E0250EFCA3E0350FFDAA08AB09127D
:104860000FD87402121CE202493875100702493849
:10487000E50E450F705B850C82850D83124AF78526
:104880000A82850B837407F0888289831249471254
:10489000493FE0851282851383F0E82402FAE43967
:1048A000FB8A828B8312494F8A828B83124946A3EB
:1048B000A3122F26124954F0E82405F85001098864
:1048C000828983124954A312498EA3A3A3A3F08023
:1048D0006775100B8062741D121D181239C91207FA
:1048E000208A828B83E5824583604A124AF7880CCE
:1048F000890DE8450D603E7425121D18E0F510780D
:1049000010121F53780E121F4F780A121F4F78088B
:10491000121F4F7407121D18E0F9EEFCEFFDAA16E6
:10492000AB17850C82850D83121D3A7407121CE2A9
:10493000E9F510800375100EA9107405023C8CF087
:1049400088828983A322A3E08508828509832212B5
:104950004995F022124995A3A3229002E3124BEC51
:1049600022E0F50E750F00780E22850C82850D83EE
:10497000123E2FE022E0FAA3E0F8E4C8F9EA282288
:10498000F08A828B83E0F50A750B00780A221249BF
:104990003F12499522E0850882850983A3A32274EA
:1049A000EE121D3C74FE121CCC8A088B09ECFEED45
:1049B000FF890AAC21AD22EEFAEFFB12061E8A0C2B
:1049C0008B0DEA450D7003024A878521828522837B
:1049D0001239C91207208A828B83E58245837003CE
:1049E000024A82A3A3124AF7880E890FE8450F7086
:1049F00003024A827414121D18E0F510A3E0F511A9
:104A0000E50AF50B780B121F537419121D18121FAB
:104A1000667810121F4F741B121D18E0F9AC0CAD14
:104A20000DAA08AB09850E82850F83121D3A740505
:104A3000121CE2E9F50B705274FE650A604C850C9D
:104A400082850D83E064027041124A96FAA3E0F970
:104A5000EAF87402687003742969702E85108285E3
:104A60001183124975F50CE439F50D780C121F4FBE
:104A7000EEFCEFFDAA08AB091207A47402121CE2B7
:104A80008008750B0E8003750B01A90B7402121CB4
:104A9000E27F0A021E0EA3124AFB88828983E0226B
:104AA00074F6121D3C74FE121CCC740C121D1812EC
:104AB0004AF7E8852182852283F07401121D18E9E6
:104AC000F0E4F508F5097808121F4F750802780818
:104AD000121F4F7404121D22880889097808121FBA
:104AE0004F79FE12078C7406121CE27402121CE24B
:104AF0000244A88E828F83124AFB22E0F8A3E0F9D9
:104B00002274F7121D3CEAFEEBFF89089002FA12AC
:104B1000495D121248EA5402600BA908EEFAEFFB55
:104B2000120612800279017F01021E0E74F2121D1C
:104B30003C74FE121CCCEAFEEBFF890A7401650A84
:104B400060147402650A6003024BDB79011209905C
:104B5000E96003024BDBEEFAEFFB12076EEA4B60F3
:104B600003120774A821A922880889097808121F4E
:104B70004F7508027509007808121F4F7508B47543
:104B8000098D7808121F4F7CFF7DFF7A017B001290
:104B900006187406121CE28038850882850983A3F2
:104BA000A3A3A3A3A3124BE5EEFAEFFB12123CE47E
:104BB000F50CF50D780C121F4F7402121D18121F00
:104BC000667CFF7DFFAA08AB091206247404121C40
:104BD000E28A088B09E508450970BE7402121CE2DE
:104BE0007F06021E0E123E2F124BEC22E0FCA3E0C9
:104BF000FD2274F4121D3C8A088B09ECFEEDFF9037
:104C00001AFAE0F4604B7A097B00120FFCEA4B6061
:104C1000408A828B8374B1F0A3E4124C54F08A82F0
:104C20008B83A3A3E508F0A3E509124C54A3EEF08F
:104C3000A3EFF0740C121D18124AF78A828B83A31B
:104C4000A3A3A3A3A3A3124020901AFAE0F9121081
:104C500008022F5BF08A828B83A3A3A3A322C082C6
:104C6000C0839061907404F0A37448F0A37402F0C0
:104C70009061807440F09061BC7403F0906187741F
:104C800019F0906265741BF0906249E0C394139030
:104C9000619C40107409F09060667401F090619F0F
:104CA0007428800D740BF0906066E4F090619F743E
:104CB0002CF0124E497009C29190036D7467800503
:104CC00090036D7461F0124E9B902C40E493F4605D
:104CD00006E493F9120A867905120DB60250DDC07A
:104CE00082C083E9540FF9906185E0696012E5C6DE
:104CF00054B84441F5C6E59E5447644170F8E9F064
:104D000053C6B8E59E544770FA0250DDC082C08396
:104D1000A8A853A87E906181E4F0A3F0A3F0C2BAE2
:104D2000539AFEC289759B00C2C275E90075910055
:104D300075BF0075A91175B905906181F0A374C0A4
:104D4000F0A3E4F0D2BA439A0174805842A802500A
:104D5000DDF00250DDC082C08374F8121CCC9003D9
:104D60006B12645D7003024E4190036BE05440602F
:104D7000177908AA21AB22120B94AA21AB221208A0
:104D80000490036BE054BFF0E054806010790C7A1B
:104D9000197B07120B9490036BE0547FF0E0A2E0C4
:104DA000501E124E497009C29190036D74678005C0
:104DB00090036D7461F012080A90036BE054FEF0EA
:104DC000E05402601E124E8E7009D29190036D74F1
:104DD00071800590036D746AF012080A90036BE00D
:104DE00054FDF0E054046010902C44124E9E1208C2
:104DF0001090036BE054FBF0E054086010902C45D9
:104E0000124E9E12081090036BE054F7F0E054101D
:104E1000600D124E9B12081090036BE054EFF0E00F
:104E20005420600A12081090036BE054DFF0A3E0F6
:104E30005401600D120AA412081690036CE054FE8F
:104E4000F07408121CE20250DD90619A12509090AA
:104E500006F3E0640122C082C083E9600514601794
:104E60008029124E497009C29190036D7467801AAF
:104E700090036D74618013124E8E7009D29190036D
:104E80006D7471800590036D746AF00250DD90615D
:104E90009A1250829006F3E0640122902C46E4932B
:104EA000906186F02274EA121D3C74F4121CCC90BE
:104EB0008D88AC21AD227404121BDF902C4493F436
:104EC0006003025017907808E0C394025003024F29
:104ED000FB908CC47404121D327408121BDFA821CD
:104EE000A922881489157404121D2288088909AE24
:104EF00008AF097510FF7511FF750EFF7C00750C6A
:104F000048750D78801274086C7003024F91740913
:104F10006C607E740A6C6079850C82850D837808DC
:104F2000121B848E828F83A909E50AC9F88812743E
:104F3000187808121A9FE5124508F8C3E098A3E014
:104F400099850C82850D837808121B8440188E8207
:104F50008F8374187808121A9FE5124508F8E0C389
:104F600098F8A3E0801A74187808121A9FE5124581
:104F700008FAE9FB8E828F831257B2EAC398F8EBE6
:104F800099F9C3E89510E995115006881089118C9C
:104F90000E0CE50C2404F50C5002050DECC3941323
:104FA0005003024F0674FF6510700474FF651160B2
:104FB00024850E0874027808121CB974482508F577
:104FC0008274783509F5837808121B8485148285EC
:104FD0001583E508F0EE2402FE50010F851482854A
:104FE0001583A3858214858315740C121D18E58220
:104FF0006E7003E5836F6003024EF3750801750957
:10500000007808121F4F7402121D327A117B0B12A6
:1050100012AE7402121CE2740C121CE27F0E021E0D
:105020000EC082C0839061AE7468F0A3746AF09081
:10503000624574FBF0A304F053F4FD43FE029006B6
:10504000F37401F09061A0E0643A90619A701912D3
:105050005090740164017009C29190036D7467806F
:105060001E90036D74618017125082740164017088
:1050700009D29190036D7471800590036D746A027A
:105080004D51743FF0A3745AF09061A0747FF022E8
:105090007433F0A37455F09061A0743AF0227F0449
:1050A000021E0EC082C0839006D1E0640170119090
:1050B00006D7E064016019E07006A3E064016010A7
:1050C0009006E8E06401700C9006EEE06401700464
:1050D000790C800279008005E0F9122BEAD083D0A8
:1050E00082020132E0C4333354C0228882898312A1
:1050F0005673A882A983222414F582E438F583220A
:10510000C082C0839006DB7425F09006D97401F04C
:10511000A3E4F07A01FB120D3212514C241AF582ED
:10512000E438F58374C8F0A3740AF09006D8E064FC
:105130000170169006D7E070107901120D92120DD1
:1051400062120D8C7900120D9E0250DD9006C7127E
:1051500054D52274F6121D3C74FA121CCC9006D061
:10516000E064017008120AB09006D0E4F075E1F135
:1051700012514C2415F582E438F5837401F0900641
:10518000D2E06401704B908CDEAC21AD227406122B
:105190001BDF75D90D9006C91250E44403F5D9758B
:1051A00082CA75830612566FE58264D07004E58367
:1051B000640670F1A821A9221250EB7406121D1882
:1051C000E582687003E5836970EE75E19579018089
:1051D000027900120D38901B1E1252397430F0A360
:1051E000740CF0A31252391252391253A77436F0CC
:1051F000A3740C1253BC9006C9E0F97ACA7B06125C
:105200000D149006DBE0F9122BEA7901120D3E90A5
:105210008D8C121BA2120D56908D9C121BA2120D8A
:10522000207900120DAA12514C1250F77416F0900A
:1052300003697405F0040258D4742AF0A3740CF0C6
:10524000A32274F7121D3C8908A808E875F00CA485
:10525000C8AAF02AF9749928FE740339FF9006E071
:10526000E0F97AE17B06120D149006EEE0702579E4
:1052700000120D74EE240BF582EF3401F583E0701B
:1052800004790080027901EE2405FAEF3401FB1263
:105290000D1A80057901120D7475E1F175D923900D
:1052A00006E01250E44405F5D97582E175830612D3
:1052B000566FE58264E77004E583640670F175D982
:1052C0000075D90075D90075D90075D90075D90058
:1052D000EE24221257281257477003E9658370F6AF
:1052E000EE24261257332403F8E43583F912574786
:1052F0007003E9658370F6EE242B12573C242C12C0
:10530000573C242D12573C242E12573C242F125761
:105310003C243012573C243112573C243212573C63
:10532000243312573C245D1257332405F8E43583A7
:10533000F91257477003E9658370F6EE243712625D
:10534000DC541FF8EE242A1262DCC43354E048F522
:10535000D975E195901B1E74FAF0A3740BF0A37439
:1053600000F0A3740C12539E7406F0A3740C125335
:10537000BC9006EDE0F9122BEA908D8C121BA21264
:105380000D56908D9C121BA2120D2090600DE4F022
:105390007901120DAA9003697406F0025B10F0A364
:1053A0001253A71253A7221253AB2274F4F0A37422
:1053B0000BF0A374F4F0A3740BF0A3221253C022D9
:1053C000F0901B2C1253CCA31253CC221253AB746B
:1053D000F4F0A3740BF02274EC121D3C9006DE1264
:1053E0005F327810121B849006EFE0FAF875F00C2B
:1053F000A4C8ACF02C1260AEFFEE2EFEEF33FF8E91
:105400000CF50D750E00750F0085100885110985C6
:10541000120A85130B908D7C7808121AEA7808120C
:105420001F4B85100885110985120A85130B780812
:10543000790C121AD77810790C121A30E4F50EF59F
:105440000F7808790C121B108A0C750D0074037804
:105450000C121CB97808790C121AD7908D94780820
:10546000121B4BAA08AB09AC0AAD0B122B827404B9
:10547000121CE28A088B09A808A909C3EE98EF99C3
:105480005006E82EF8E93FF9E890600EF0E9A3F045
:10549000EEA3F0EFA3F090600D74C1F07F0C021E3C
:1054A0000EC082C0839006C71254C19006DB025022
:1054B000D8C082C0839006DE1254C19006ED02501F
:1054C000D81254D51254CBF0A3F0222406F582E46E
:1054D00038F583E422E0F8A3E0C82202013274F632
:1054E000121D3C1256786004780480027800E8248B
:1054F0000EF8ECC39850030255AC7C0C9006F9E40E
:10550000F0EA2476F582E43BF583E09006FAF0EACF
:1055100024771255B19006FB1255BB9006FCF0EAB9
:1055200024791255B19006FD1255BB9006FEF0EAA3
:10553000247B1255B19006FF1255BB900700F0EA8C
:10554000247D1255B19007011255BB900702F0EA75
:105550002474F8E43BF98A828B83A3A3A3A3A3E07A
:10556000FEA3E0FF88828983E02EF0A3E03F125C77
:10557000559007031255BB90070412569C6017758F
:1055800008F97509067808121F4F7903120BE874A1
:1055900002121CE27C101258E2ECFE12566FDEFB87
:1055A00075E1957904120D5C790180027900025849
:1055B000D7F8E43BF988828983E022125C5AA3E0A1
:1055C0002274F6121D3C125678600478048002782A
:1055D00000E8240AF8ECC398500302566A7E08904B
:1055E00006F97401F07CBD7D0678FA79067F051214
:1055F0005686A882A983DFF7EA2480FCE43BFD8A73
:10560000828B83A3A3A3A3A3E0F508A3E0F5098CF1
:10561000828D83E02508F0A3E03509F01256860854
:10562000A9838C828D83E08882898312569C6019BD
:105630007508F97509067808121F4F7C087903125E
:105640000BE87402121CE27E0C74012EF5D975D998
:10565000037582F9758306EEFF12566FDFFB75E165
:10566000957904120D5C7901800279000258D712F5
:10567000567322E0F5D9A3229061D0E0F87480C37C
:1056800098FC1256A12212568A228C828D83E088C1
:1056900082898312649A88828983A322F01256A198
:1056A00022EA2482F582E43BF583E02274F7121D9E
:1056B0003CEAFEEBFF9061D0E0706875D91875D9AF
:1056C0000375D903EE249B12574E1257477003E916
:1056D000658370F6EE24A312573C24A412573C2491
:1056E0009312574E1257477003E9658370F6EE2404
:1056F000871257281257477003E9658370F675E1E2
:10570000957908EE2493FAE43FFB120B887904EEB6
:105710002487FAE43FFB120B887904120D5C1258BF
:105720005C80027900025B101257332404F8E435E0
:1057300083F922F582E43FF583E58222F582E43F96
:10574000F583E0F5D9EE22125673E86582221257EE
:10575000332408F8E43583F92274F6121D3CEAFE7E
:10576000EBFF9006F97406125805121F4F7C017961
:1057700003120BE87402121CE275D90675D9037581
:1057800082F97583061257FD7004E583640670F58F
:1057900075E195900369E064087010EE246FF5825E
:1057A000E43F1257B0EE247112626B79010258D7B0
:1057B000F5831264692274F6121D3CEAFEEBFF9039
:1057C00061D0E070339006F9740A125805121F4F29
:1057D0007C017903120BE87402121CE275D906757C
:1057E000D9037582F97583061257FD7004E5836449
:1057F0000670F5125859800279000258D712567374
:10580000E58264FE22F07508F975090678082274AD
:10581000F6121D3CEAFEEBFF9061D0E07036780195
:105820009006F9740BF0900369E06407701975082D
:10583000F97509067808121F4F7C017903120BE8ED
:105840007402121CE27805125AA412566FDAFB1287
:105850005859800279000258D775E195EE246F12ED
:105860006463EE2471F582E43FF583E8F0A3E9F088
:1058700079012274F6121D3C1259A5600478048047
:10588000027800E8240BF8EAC39840447C099006AB
:10589000F974081258F1125900DDFB1262D9601B2D
:1058A0007508F97509067808121F4F7903EEFAEFAB
:1058B000FB120BE87402121CE27C0D1258DC125928
:1058C0009D70FB75E1957904120D5C12585C8002A5
:1058D00079008003121CE27F02021E0E1258E28C35
:1058E000082274012CF5D975D9037582F9758306E0
:1058F00022F0EE24E4F8E43FF97AFA7B067D0822F0
:1059000088828983E08A828B83125C5AA3A882A949
:10591000838A828B83A3AA82AB832274F6121D3CF6
:105920001259A56004780480027800E82408F8EA97
:10593000C398406478069006F9740CF0900386E0F2
:105940009006FAF0900387E09006FBF0900388E061
:105950009006FCF0900389E09006FDF090038AE049
:105960009006FE125A34601B7508F975090678080E
:10597000121F4F7C067903EEFA120BE87402121C18
:10598000E2780A125A2E12599D70FB75E19579043E
:10599000120D5C12585C800279000258D7125673BF
:1059A0001508E50822EAFEEBFF9061D0E0F874806C
:1059B000C398FA125A392274F6121D3C1259A56086
:1059C00004780480027800E82404F8EAC398405977
:1059D00078029006F9E8F0EE24F61262DC9006FAFE
:1059E000125A34601B7508F97509067808121F4FA2
:1059F0007C027903EEFA120BE87402121CE27806BC
:105A0000125A2E12599D70FB75E195EE2473125CAB
:105A100046EE247F125C46125C43A3F07904120D1B
:105A20005CEE240D12585F800279000258D7125A9A
:105A3000AA880822F0125A3922EE2482F582E43F25
:105A4000F583E02274F6121D3C1256786004780447
:105A500080027800E82404F8ECC398404278029071
:105A600006F97407F0EA24F7F582E43BF583E09049
:105A700006FA12569C60197508F97509067808121D
:105A80001F4F7C027903120BE87402121CE27806A5
:105A9000125AA412566FDAFB75E1957901800279EA
:105AA000000258D7125AAAE8FA22740128F5D975CB
:105AB000D9037582F97583062274F7121D3CE9FF3C
:105AC000A2AFE433FEC2AF7C0080010C125B6150D8
:105AD00010ECF8EA28F8E43BF91261C76F70EC802B
:105AE00016EA246EF8E43BF9E0FCEA2CFAE43BFB0E
:105AF000125AFEEF125C4FEEA2E092AF8012EA243F
:105B00006AF582E43BF58322F0EEA2E092AF7900E1
:105B10007F01021E0EC082C083A2AFE433FDC2AF7C
:105B2000125B6914F07C00801DECF8EA28F8E43B75
:105B3000F9E8246B1261CAC0E0E8246AF582E4390E
