:020000040000FA
:0600000002010702258940
:03002B000227F2B7
:03003B0002281385
:030043000227AFE2
:030053000225FF84
:03007B000227D584
:100083000223DFE5C754F84401F5C77901220000D4
:100093000080FB120086B900030200F1E4792378A3
:1000A30002B800028004F709D8FCE479257802B885
:1000B30000028004F709D8FCE490028178CA791A17
:1000C3008002F0A3D8FCD9FA7A4A7B1C90013778D6
:1000D300E379018015E493A3AD82AE838A828B8397
:1000E300F0A3AA82AB838D828E83D8E9D9E7758288
:1000F300E67583E97403120119758291758300749F
:100103000012011975D00075813F75218175220296
:10011300759F00020096C09FF59FE473D09F22D085
:1001230083D082C09FE493C0E0740193C0E0740263
:1001330093F59F22AB03B703ED03E703FF0000B47E
:10014300000028002800283075A000A000A000A00F
:100153000000080008E001F000100010001000107B
:10016300001000100050005000500010001000D08C
:10017300070000000000000F0001000500307507B4
:10018300001000010081FF00000000FFFFFF0202DA
:1001930002D58E010000CE8E02DF8E010000A41C6A
:1001A30002E38E010000B80202DF8E010000A51CED
:1001B30002E58E010000CE02FFFF0100FF2002D501
:1001C3008E010000CB8E02DF8E010000D31C02E7FC
:1001D3008E000000000002E18E030000FA02170007
:1001E300DF0BDF0BDF0BDF0BDF0BDF0BDF0BDF0BBC
:1001F300DF0BDF0BDF0BDF0BDF0BBF0DDD0DB90DEE
:10020300FFFFFFFFFFFF01E803057710020A01016B
:1002130001FEFF04FF00120122B4D203120122C720
:10022300D203120122E8D20312012253D303120193
:100233002294D303120122B5D303120122F6D3036E
:100243001201228ED403120122D6D4031201220CEE
:10025300C7031201221FC70312012250C703120151
:10026300228AC703120122E3C7031201222AC80309
:1002730012012272C803120122A1C803120122D063
:10028300C80312012207C9031201224EC903120136
:100293002267C903120122BCC903120122EAC9035E
:1002A30012012224CA03120122DBB602120122DE4A
:1002B300B7021201220BB8021201225CB80212012A
:1002C300227FB80212012291B80212012294B802CD
:1002D300120122D2B80212012246B902120122B23D
:1002E300B9021201227ABA0212012296BA0212014B
:1002F30022CDBA0212012207BB021201229EBB02C7
:10030300120122F0BB0212012221BC02120122526D
:10031300BC021201225FBC02120122C9BC021201FB
:1003230022CCBC02120122D9BC02120122DCBC0283
:1003330012012233BD0212012236BD021201226FC5
:10034300BD0212012272BD02120122A6BD021201D8
:1003530022A9BD02120122FDBD0212012246BE02E4
:1003630012012256BE0212012289BE0212012296F6
:10037300BE0212012299BE0212012201BF02120122
:100383002203C002120122A7C00212012210C102DD
:100393001201224EC1021201221DDF021201221597
:1003A300E00212012249E002120122DFE0021201FF
:1003B300222AE1021201228EE10212012218E20234
:1003C300120122D1E202120122F3E502120122708C
:1003D300E70212012293E702120122BEAB031201CC
:1003E3002263AD0312012283AD03120122A4AE03E3
:1003F300120122F7AE0312012222B4031201224A90
:10040300B40312012277B403120122AFB403120121
:10041300220DB50312012259B503120122C0B503FF
:1004230012012200B6031201223DB6031201226B10
:10043300B60312012215B7031201221FB7031201DB
:10044300222CB7031201225FB7031201226BB703F9
:1004530012012283B7031201228DB7031201225422
:10046300E50312012262E5031201227AE503120178
:100473002292E503120122A9E50312012200800260
:10048300120122AA800212012226810212012244B1
:1004930082021201228082021201221B83021201B4
:1004A30022FF8302120122C284021201223A850230
:1004B300120122C88602120122398702120122F395
:1004C3008702120122E58802120122258902120104
:1004D30022D989021201220B8A02120122018C0203
:1004E300120122438C02120122618C02120122E6C4
:1004F3008C02120122AA8D02120122C98F0212015B
:100503002208BC031201221EBC031201223CBC03BD
:100513001201224DBD0312012257BD031201228293
:10052300BE0312012279BF03120122E6BF031201A7
:1005330022249E03120122C89E03120122FF9E035E
:10054300120122499F0312012208A103120122F979
:10055300A401120122AAA501120122C6A5011201BA
:10056300228FA601120122A9A601120122B4A6011B
:100573001201228AA70112012267A801120122F7A0
:10058300A801120122AEA901120122BCAC01120181
:1005930022ABAE011201225DAF0112012226B0018E
:1005A3001201226BB30112012215B4011201223E82
:1005B300B501120122FAB6011201229AB701120102
:1005C30022E8B70112012227B801120122FAB80169
:1005D3001201222EB901120122BBB9011201223AE2
:1005E300D001120122C6D0011201222AD201120126
:1005F3002236D20112012271D201120122E0D2016C
:10060300120122E9D301120122F2D401120122B90B
:10061300D50112012216D70112012234D70112018A
:100623002251D7011201221CD80112012244D80100
:100633001201220EDB0112012213DB011201222C13
:10064300DD011201227ADD01120122EADD0112012C
:100653002228DE0112012204DF01120122C4DF017C
:1006630012012210E00112012213E00112012257AC
:10067300E0011201229FE001120122DEE0011201DA
:100683002200E10112012234E10112012297E1016A
:10069300120122B48F03120122BD8F03120122CB58
:1006A3008F031201221E90031201223D90031201B7
:1006B30022829003120122C6910312012261920346
:1006C300120122A59203120122CF92031201223EAC
:1006D3009303120122849303120122FB9303120159
:1006E30022AC94031201228C28001201229C2800C0
:1006F3001201223D290012012299290012012256DA
:100703002A00120122722B00120122A42B001201D3
:1007130022D32B00120122802D00120122F72F0079
:1007230012012267320012012259330012012252B0
:1007330034001201225936001201224D39001201F0
:10074300227C3A00120122803C00120122903D00DB
:100753001201221F3F001201221040001201225EEB
:100763004000120122CD4000120122F1400012018B
:1007730022424100120122E34500120122E4460015
:10078300120122454700120122704700120122364E
:1007930048001201221BB80312012225B8031201DB
:1007A300226AB8031201227EB8031201220EB90392
:1007B30012012236B90312012271B9031201229ADE
:1007C300B903120122CEB903120122E3B9031201C4
:1007D300224EBA031201226FBA0312012283BA0313
:1007E30012012298BA03120122D2BA03120122374C
:1007F300BB031201227ABB03120122A4BB03120121
:1008030022E0BB0312012253E103120122EBAB02EC
:10081300120122CEAC0212012249AD02120122843E
:10082300AD02120122D5AE021201225EAF02120105
:100833002276B10212012208B402120122BAB402D2
:10084300120122D9B50212012232B60212012291FB
:100853008A03120122D48A03120122588B03120144
:10086300222B8C03120122028F03120122A5CD0336
:1008730012012252CE031201225FCF031201229EE4
:10088300CF03120122F8CF03120122C2DA031201AD
:100893002225DB03120122C2DB03120122F0DB0358
:1008A30012012211DC031201224CDC031201226C1F
:1008B300DC03120122BE94031201224A95031201A2
:1008C300220996031201222197031201223B990365
:1008D300120122CCCB02120122F1CB02120122C55A
:1008E300CC0212012232CD0212012288CD02120162
:1008F3002224CE0212012258CF0212012233D00247
:1009030012012292D00212012263D102120122EFBC
:10091300D102120122F2D1021201223CD2021201AF
:1009230022AED20212012259D30212012279D3023A
:10093300120122C1D302120122DDD3021201225776
:10094300D40212012265D402120122F4D40212014C
:10095300225DD502120122BFA20312012244A30386
:1009630012012286A3031201226AA403120122D7D1
:10097300A4031201221BA5031201225FA503120186
:10098300228CA503120122B4A503120122ECA503B4
:100993001201222AA60312012251A603120122CB1D
:1009A300A60312012215A703120122E96000120116
:1009B30022B66200120122A46400120122F864002C
:1009C300120122236500120122D1650012012201C6
:1009D30066001201223066001201224366001201F2
:1009E30022846600120122B06600120122FE660014
:1009F300120122356700120122816700120122E0F1
:100A030067001201227368001201225D690012015E
:100A1300224C6A00120122F76B00120122167100A8
:100A23001201226F71001201225873001201222752
:100A33007500120122A97500120122F77600120136
:100A43002208770012012243D0031201222ED10380
:100A530012012271D103120122C0D103120122110A
:100A6300D20312012262D203120122A24800120110
:100A73002223490012012250490012012299490000
:100A83001201229A4A00120122E94A001201226548
:100A93004C00120122E74C00120122444D001201C6
:100AA30022974D00120122864E001201221B500094
:100AB300120122E55000120122F550001201221FFB
:100AC300510012012222510012012205520012018B
:100AD30022F052001201229D5300120122FA530008
:100AE300120122535400120122B754001201225F53
:100AF3005500120122FB55001201228856001201F3
:100B030022FD5600120122595700120122B8570044
:100B1300120122DF5700120122A458001201229071
:100B23005A00120122D95A00120122095B00120154
:100B3300227C5B00120122025D00120122B25D00E1
:100B4300120122D75D00120122165E001201222B30
:100B53005E001201226E5E00120122DE5E001201AF
:100B630022285F00120122326000120122B36000CA
:100B730012012280D502120122CBD502120122D703
:100B8300D502120122ABD602120122C2D6021201F1
:100B930022FFD60212012230D70212012268D702A5
:100BA300120122BED702120122D4D702120122104F
:100BB300D80212012223D8021201224AD8021201BA
:100BC300227ED802120122A4D902120122EEDA02F5
:100BD300120122EADB0212012200DD02120122814C
:100BE30028001201226485031201221289031201D3
:100BF30022468A0312012238F301120122F1F50180
:100C0300120122F7F501120122A8F80112012202B2
:100C1300FB01120122729903120122099A031201A4
:100C230022C79A03120122F19A03120122279D037C
:100C3300120122EA8E01120122258F01120122796B
:100C43009901120122E59A01120122E29B0112018C
:100C530022679F011201225CA001120122A8A001B8
:100C6300120122C2A00112012203A1011201220CCE
:100C7300A101120122BEA1011201228EA2011201C1
:100C830022D5A2011201223BA301120122ADA3012D
:100C93001201228CCA0312012269CB03120122AD75
:100CA300CB03120122E7CB031201227FCC031201F3
:100CB30022EECC03120122F7CC0312012203CD034F
:100CC3001201221DCD0312012247CD031201227707
:100CD300CD03120122B5F002120122C2F002120169
:100CE30022DCF0021201220FF1021201224DF10265
:100CF300120122B2F102120122C7F102120122DE15
:100D0300F102120122ECF102120122FBF1021201A3
:100D13002210F20212012225F20212012230F20203
:100D23001201223CF20212012249F202120122585C
:100D3300F20212012263F20212012288F20212016C
:100D4300222CF30212012241F30212012256F30272
:100D530012012270F3021201228DF302120122AA60
:100D6300F302120122B5F30212012261F40212010D
:100D73002242F50212012267F50212012272F502E4
:100D830012012287F5021201229BF502120122FCB5
:100D9300F50212012202F60212012208F6021201E2
:100DA300220EF60212012226F60212012259F6023F
:100DB30012012274C10212012296C1021201225EA3
:100DC300C20212012218C5021201222EC60212010A
:100DD300224FC70212012229C802120122D8C802D7
:100DE300120122689E02120122FF9E021201229723
:100DF3009F0212012287A002120122BEA002120149
:100E030022D1A0021201223FA102120122DAA20280
:100E130012012201A302120122A3A302120122D86A
:100E2300A302120122E9A30212012262A402120107
:100E33002283A4021201229BA402120122F3A5021F
:100E4300120122FCA7021201224CAA021201224F14
:100E5300AB021201229EAB02120122D68F021201B3
:100E630022D39002120122BE9102120122C89102E2
:100E7300120122EA9102120122F691021201224882
:100E83009302120122779302120122A79402120104
:100E930022E99402120122159602120122EB960214
:100EA3001201223D97021201229C9702120122D3C2
:100EB30097021201220E9802120122A99B0212012B
:100EC30022C29B02120122449C02120122529C0262
:100ED300120122A79C02120122B59C0212012222B6
:100EE3009D02120122949D02120122DA9D02120137
:100EF300227ADC031201229FDC0312012210DD039C
:100F0300120122B6E802120122BFE802120122C82E
:100F1300E802120122F9E90212012218EC0212017D
:100F2300224EEC0212012288EC02120122BEEC02D4
:100F3300120122F8EC021201222CED0212012258B6
:100F4300ED02120122A1ED02120122DBED021201D8
:100F53002223EE0212012279EE02120122AEEE02E8
:100F630012012209EF0212012243EF02120122941D
:100F7300EF02120122CAEF0212012204F00212014F
:100F83002227F002120122F3E6031201221FE703D4
:100F93001201227AE70312012284E7031201229449
:100FA300E7031201220080031201220A80031201C7
:100FB30022488003120122918003120122CB800375
:100FC3001201222581031201224681031201224FBD
:100FD3008103120122A08103120122C9810312019C
:100FE30022DE81031201224F8203120122DD8203DA
:100FF3001201221A83031201224A8303120122CE11
:1010030083031201220E8403120122468403120178
:10101300225884031201227784031201228084035D
:101023001201223A85031201226BE303120122010A
:10103300D50312012237D5031201226DD503120104
:1010430022C6D603120122B4E803120122CAE8031E
:10105300120122D4E80312012204B0031201221D5B
:10106300B003120122C1B00312012201B103120124
:10107300221AB1031201224EB1031201229BB103C2
:10108300120122CFB10312012211B2031201221560
:10109300B4031201222AE90312012230DE031201F2
:1010A300226EDE0312012293DE03120122AADE0363
:1010B300120122C6DE03120122DDDE03120122F435
:1010C300DE031201222DDF0312012261DF0312016D
:1010D3002298DF0312012200D7031201221CD70337
:1010E30012012299D703120122B5D7031201221844
:1010F300D803120122B9D803120122DBF60212012E
:10110300221AF702120122A3F702120122B8F702F0
:1011130012012203F80212012237F8021201227689
:10112300F80212012285F8021201223AF902120191
:101133002293F902120122E2F90212012235FA0284
:101143001201224AFB0212012243FC0212012280F5
:10115300FC0212012289E903120122B1BA01120130
:101163002227BD011201229FBE0112012200BF01ED
:101173001201229FBF0112012291C0011201221606
:10118300C10112012292C101120122B7C101120150
:101193002280C401120122F4C401120122E0C5011C
:1011A3001201221AC6011201225AC6011201221487
:1011B300C80112012245C80112012298C801120177
:1011C30022E1C8011201224FC90112012281C90182
:1011D30012012299C901120122AECA01120122BED3
:1011E300CA0112012223CC0112012243CC011201B4
:1011F3002279CC0112012226CE01120122A6CE01B0
:10120300120122E5CE011201220CD001120122E6C5
:10121300D80312012243D90312012206DA03120171
:101223002225DA031201227BDA031201225B7F00FB
:101233001201226B7F0012012239EA031201227884
:10124300EA031201222DE80312012258E8031201D6
:101253002262E8031201229AE803120122AEEA0392
:1012630012012265E40312012275E403120122969E
:10127300E4031201224AE50312012267E203120189
:1012830022ECE20312012252E3031201221DFF01A9
:101293001201223EFF0112012251FF0112012263BA
:1012A300FF0112012290FF01120122B5FF01120179
:1012B3002255A70312012269A703120122E2A70301
:1012C300120122BBA80312012279AB03120122B837
:1012D300FC02120122D1FC02120122E5FC021201DE
:1012E30022F6FC0212012207FD0212012233FD0243
:1012F300120122D2FD0212012217FE0212012288DC
:10130300FE02120122C9FE02120122F0FE021201A4
:101313002218FF0212012236FF0212012242FF02AB
:101323001201226EFF0212012239E6031201225337
:10133300E6031201226DE603120122CCE603120139
:1013430022F0BF0312012280C003120122FEC00358
:1013530012012287C10312012235C203120122BFE7
:10136300C203120122D0C203120122DFC2031201FF
:1013730022F5C20312012208C30312012268C30328
:101383001201227CC3031201226FE201120122FE29
:10139300E30112012211E501120122BBE601120150
:1013A3002254E70112012230E8011201221FE90150
:1013B30012012284EA01120122FDEA011201222A0A
:1013C300EB0112012245EB01120122D6EB011201BE
:1013D3002212EC011201222CEC011201223BEF013B
:1013E30012012273EF0112012276EF01120122C3CF
:1013F300F2011201229EE70312012207E803120100
:101403002212E80312012222E803120122CCDF0395
:1014130012012221E0031201228FE003120122FFB5
:10142300E0031201227FC303120122A9C3031201A5
:1014330022A3C403120122C8C4031201225FC503FD
:10144300120122E1C5031201222B7700120122E8C7
:1014530077001201222378001201224B7800120137
:1014630022AD7800120122F978001201225279008C
:10147300120122E37900120122E57A00120122A26D
:101483007C00120122247D00120122897D001201B9
:1014930022A07D00120122B07E00120122EE7E0006
:1014A30012012282EA03120122D9FF02E0667010C0
:1014B30008A3E066700A08A3E066700408A3E06668
:1014C30022C3E7960809E7960809E7960809E7960D
:1014D30022C3E09608A3E09608A3E09608A3E0964B
:1014E30022C008C3E096F50808A3E096420808A3C3
:1014F300E096420808A3E09645087001D3D008227D
:10150300080808E630E71112193112151B080808FC
:10151300C64480C618181822181818E9799EC608F8
:10152300CAC608CBC608CCC6C370207996CACBCC32
:101533007019798ECBCC70137986CC700EF9802A12
:10154300CA33CACB33CBCC33CC331930E7F2CCCB51
:10155300CA3350147004EA30E00DE4CA3ACACB3BF4
:10156300CBCC3CCC500209C3E913C6CC182313C619
:10157300CB18C6CA18C6F9221215BB20F01430E7DF
:101583002B74FFFCFBFA747F8022E4FCFBFA74806B
:10159300801AB48008BC00F2BB00EF800F50EBF957
:1015A300E4C39AFAE49BFBE49CFCE499C6CC18C61A
:1015B300CB18C6CA18C6F922E4C9C608CAC608CBDE
:1015C300C6D3330308CCC63392F0C3947F402E9422
:1015D300184019C9B90704CACBCC225025C309CA7C
:1015E30033CACB33CBCC33CC33D9F422F4600DC91B
:1015F300CCC313CB13CBCA13CAD9F6CC22E4FCFB5E
:10160300FA2214FCFBFA22E626184618461846224C
:10161300E72719471947194722E60846087009E6DC
:1016230026087005E633F4220822E7094709700902
:10163300E727097005E733F4220922E6084608C3C1
:10164300134608336002E633F422E7094709C3135C
:101653004709336002E733F42212163E7004181868
:10166300182212164D700D74FFF61819F61819F694
:101673001819F622E7548066F612160A700F12162E
:101683001370F014F608F608F608F680D112161354
:10169300700CF608F608768008E6447F80EC121694
:1016A3002D700C12161C60BFE65480F6E480BB124A
:1016B300161C700519191980A5E869700C763F1876
:1016C300768018F618F6E8F922E6CDC0E018ECC0EB
:1016D300E0E633CD33CDD313F6E719FCE71919331D
:1016E300CC33C3947F400ECD9D502408E65480F63E
:1016F300E418F6800FF4043D14501408E6447FF612
:10170300187680E418F618F6D0E0FCD0E0FD22CC81
:10171300D313CCFD18E4C6CBC0E018E4C6CAC0E0BE
:101723000808ED08C633E613F618E433C675F0036C
:10173300C3CA97CA09CB97CB199C40047D08802E56
:10174300BD000302180516B6FF050606081618C3E2
:10175300CA33CACB33CB33CA27CA09CB37CB193CDD
:10176300C37D08803E187D0820E75CC633C6CA33B4
:10177300CACB33CB33DDF1D5F0EB30E77BCA97CA65
:1017830009CB974ACB199C406F4B7025E620E0218B
:101793008066187D08C3CA97CA09CB97CB199CD317
:1017A300C633C6CA33CACB33CB3350C9DDE7D5F012
:1017B300E1D3E4C636C608C636C608C636C608C66A
:1017C30036C61818188031C3CA97CA09CB97CB19E4
:1017D3009CB34097C633C6CA33CACB33CB33DD344D
:1017E300D5F02EC6A2E0C640C8CA27CA09CB37190E
:1017F3004A70BECB3CB480B90808E63308E63360D0
:101803001F181818D0E0FAD0E0FBD0E0FCD0E0FDC0
:1018130022187D08CA27CA09CB37CB193CD380804D
:1018230013F618E4B67F11F618B6FF0EF618C604C1
:1018330070D20808768080CAF618F618F680C508B4
:101843000808EAC0E0EBC0E086F0E7A4FA180986CE
:10185300F0E7A42AFA180986F0E7A42AFA180986F9
:10186300F0E7A42AFA1986F0E7A4FBE5F02AFA19AF
:101873000886F0E7A42BFBE5F03AFA190886F0E7AF
:10188300A42BFBE5F03AFA18180986F0E7A4C5F093
:101893002BFBE43AFA1908E7C5F0C6A426F6E5F0EF
:1018A3003BFBE43AFA1886F0E7A4F6E5F00826F6DF
:1018B300E43B08F6E43A08F6D0E0FBD0E0FA22E491
:1018C300CFC0E0E4CEC0E0E4CDC0E0E4CCC0E0753E
:1018D300F020E626F608E633F608E633F608E633A4
:1018E300F6181818EC33FCED33FDEE33FEEF33FF3F
:1018F300C3EC9709ED9709EE9709EF97191919406A
:101903000FFFEC97FC09ED97FD09EE97FE191906F9
:10191300D5F0BFECF709EDF709EEF709EFF7191961
:1019230019D0E0FCD0E0FDD0E0FED0E0FF22181893
:1019330018E4C396F608E496F608E496F608E496E7
:10194300F6226016080808C6C313C618C613C618BD
:10195300C613C618C613C6D5E0EA227009080808DC
:10196300226016181818C6C333C608C633C608C67D
:1019730033C608C633C6D5E0EA22E627F60809E6E9
:1019830037F60809E637F60809E637F622E026F6C1
:1019930008A3E036F608A3E036F608A3E036F622FD
:1019A300E026F008A3E036F008A3E036F008A3E051
:1019B30036F022C3E697F60809E697F60809E69794
:1019C300F60809E697F622C3E096F008A3E096F03E
:1019D30008A3E096F008A3E096F022E657F608097C
:1019E300E657F60809E657F60809E657F622E056E1
:1019F300F608A3E056F608A3E056F608A3E056F669
:101A030022E056F008A3E056F008A3E056F008A33E
:101A1300E056F022E066F608A3E066F608A3E06667
:101A2300F608A3E066F622E0F608A3E0F608A3E0D2
:101A3300F608A3E0F622E6F008A3E6F008A3E6F032
:101A430008A3E6F022E0FAA3E0FBA3E0FCA3E0FD99
:101A530022EAF0A3EBF0A3ECF0A3EDF022E0F8A36D
:101A6300E0F9A3E0FAA3E0FB22E8F0A3E9F0A3EA9C
:101A7300F0A3EBF022CAC0E0E6F0A308DAFAD0E064
:101A8300FA22CAC0E0E0A3C582CCC582C583CDC516
:101A930083F0A3C582CCC582C583CDC583DAE6D0E6
:101AA300E0CA22C3E498F8E499F9121AE78026C33E
:101AB300E49AFAE49BFBE920E7E9121AE7E498F8D1
:101AC300E499F922C3E498F8E499F9121AE7E4983F
:101AD300F8E499F9C3E49AFAE49BFB22EB20E7CFFD
:101AE300E920E7E0B90010BB0008E88AF084F8AA0F
:101AF300F022E4FBC8FA22EB70227B10C833C8C97A
:101B030033C9335007C39AC3DBF280069A50012AC4
:101B1300DBEAC833F4C8C933F4C9FA2275F008E420
:101B2300C833C8C933C933C99AC99B5004C92AC920
:101B33003BD5F0ECFBC833F4C8E4C9FA22600D08C6
:101B4300C6A2E713C618C613C6D5E0F322600C0875
:101B5300C6C313C618C613C6D5E0F42270042260A8
:101B63000D18C6C333C608C633C6D5E0F4182225FC
:101B73002110AF08F521400C15228008F521400201
:101B83001522D2AF2200C0D0252110AF08F5215075
:101B93000C05228008F52150020522D2AFD0D022B5
:101BA3002521F58210AF08F521400C15228008F598
:101BB3002140021522D2AF852283222521F582E41A
:101BC3003522F583222521F8E43522F9222521FA4D
:101BD300E43522FB222521FCE43522FD22E4732592
:101BE30021C582C0E0E52234FFC583C0E0E521C3FF
:101BF300958224F810AF0885832285822180088589
:101C03008322858221D2AFCEF0A3E520F0A378080A
:101C1300E608F0A3DEFAEFF0A3E58124FAF8E6087C
:101C2300F0A3E608F0A3E608F0A30808E608F0A38B
:101C3300E608F0A315811581D0E0FED0E0F8158108
:101C430015811581E8C0E0EEC0E0222521C582C0E0
:101C5300E0E52234FFC583C0E0E521C3958224F982
:101C630010AF08858322858221800885832285829F
:101C730021D2AFCEF0A3E520F0A37808E608F0A3C5
:101C8300DEFAEFF0A3E58124FBF8E608F0A3E6080B
:101C9300F0A30808E608F0A3E608F0A31581158170
:101CA300D0E0FED0E0F815811581E8C0E0EEC0E099
:101CB30022852283852182E0A3FEE0A3F520780814
:101CC300E0A3F608DFFAE0A3FFE0A3C0E0E0A3C0CF
:101CD300E0E0A3C0E0E0A3C0E0E0A3C0E010AF08F1
:101CE3008582218583228008858221858322D2AF44
:101CF300D083D08202011F852283852182E0A3FE47
:101D0300E0A3F5207808E0A3F608DFFAE0A3FFE0FC
:101D1300A3C0E0E0A3C0E0E0A3C0E0E0A3C0E01004
:101D2300AF088582218583228008858221858322CD
:101D3300D2AFD083D08222C0D02521C582C0E0E5B6
:101D43002234FFC583C0E0E521C3958224F310AF9D
:101D5300088583228582218008858322858221D27A
:101D6300AFC8F0A3E9F0A3EAF0A3EBF0A37908E787
:101D730009F0A3D8FAECF0A3EDF0A3EEF0A3EFF093
:101D8300A3D0E0F0A3D0E0F0A3D0E0F0A3E520F0EF
:101D9300A3E5F0F0A322852283852182E0C0E0A39E
:101DA300E0F9A3E0FAA3E0FBA37808E0F608A3DFD9
:101DB300FAE0FCA3E0FDA3E0FEA3E0FFA3E0C0E0A4
:101DC300A3E0C0E0A3E0F5D0A3E0F520A3E0A3F5F2
:101DD300F010AF08858322858221800885832285C0
:101DE3008221D2AFD082D083D0E0F8D0E032740425
:101DF3008006740280027401C0E0F404121BA3D0B5
:101E0300E0121A78227404800474028000CCC0E0CB
:101E1300EDC0E0E521C39CCCAD2250011D10AF06FF
:101E23008C218D2280068C218D22D2AF121A85D06F
:101E3300E0FDD0E0FC22D083D082E9C0E0E493A3AC
:101E4300C386F0C5F095F0F908E493A386F0C5F0D6
:101E530095F0700BE493A3C3994005E9048002A3B2
:101E6300E475F002A42582F582E5F03583F583D08D
:101E7300E0F9E493A3C0E0E493C0E022D083D082EE
:101E8300ECC0E0EDC0E0E493A3FCE493A3FDED4CD0
:101E9300600D121ECBEC24FFFCED34FFFD80EFE45C
:101EA30093A3FCE493A3FDED4C600D121F0AEC24F5
:101EB300FFFCED34FFFD80EFD0E0FDD0E0FCE493C8
:101EC300A3C0E0E493C0E022C0E0C3E493960874A7
:101ED30001939618400FE4936670080874019366A3
:101EE3001870007019A3A3C3E49396087401939622
:101EF30018A3A3400DD0E0D0E0D0E0021EBBA3A303
:101F0300A3A3A3A3D0E022C0E0C0F088F0E49366CB
:101F130070080874019366187000A8F0A3A3700BEF
:101F2300D0F0D0E0D0E0D0E0021EBBA3A3D0F0D02D
:021F3300E022AA
:101F380074F6121C4EEAFEEBFF8C088D09EE243471
:101F4800F8E43FF9E8FCE9FDEE243512222DFAEE1B
:101F5800243712222DF88508F0A4C885F00A8509CF
:101F6800F0A4250AF9EA28F8E439F97A257B001261
:101F78001AE7EA8C828D83F0FA131313541FF8EED4
:101F880028F8E43FF9E8245DF582E439F583E0C0F8
:101F9800E074075AF8D0E0B800028004C313D8FCF4
:101FA800A2E0EE50082434F582E43F80182436126B
:101FB800222DF5F0EA84A8F0EE28F8E43FF9E824A9
:101FC80038F582E439F583E0F97F03021CFA74F7E7
:101FD800121C4EEAFEEBFFEE243412222DC0E0EE76
:101FE8002435F582E43FF583D0E0F08E828F83A319
:101FF800A3A3A3A3A3A3C082C0838E828F83A3A31A
:10200800A3A3A312209ED083D082E0C398F508A38F
:10201800E099F509EE247F12222D6401705DEE240B
:10202800801220988E828F83A3A3A3A3A3A3A312B5
:1020380023D08E828F83A3A3A3A3A3E0FAA3E0FBFC
:10204800C3EA9CEB9D5010C3EC98ED99402DC3EA70
:1020580098EB995026800EC3EA98EB994007C3EC99
:1020680098ED9940167CBD7D06EEFAEFFB120B1336
:10207800EE247FF582E43FF583E4F0AC08AD09EE89
:10208800FAEFFB121F38E9F912279B7F02021CFAAC
:10209800F582E43FF583E0F8A3E0F92274EF121C1F
:1020A8004E900369E064086005E06407702A906157
:1020B800C8E06024900397E0F4601DE0F875F00C28
:1020C800A4C8AAF02AF9749928FE740339FF8E82ED
:1020D8008F83A3A3A3E070030221B2906060E0C0E5
:1020E800E0EE2468F582E43FF583D0E0F0750CF962
:1020F800750D06750800750900E5D914F50AE5D9C6
:102108005403F50E60127403650E6043E50A600A15
:10211800EE246712222D700280759006F4E06401A7
:10212800601F12222A60047A0480027A00E50AC33A
:102138009AFA95E0FB1209BD8A088B09EA450970ED
:1021480005120D95806412222A70048A0C8B0DE505
:102158000A6012850C82850D83F50BE5D9F0A3156D
:102168000BE50B70F612222A604474FC250AF50A66
:10217800780C121DF5AC0AA90EEEFAEFFB120BD97A
:102188007402121B88E97026AA08AB091214137985
:102198003D8E828F83A3A3A3A3E0FA7B00120837A6
:1021A800EEFAEFFB120B37120C397900806F7403CB
:1021B800650E6051850A107511007810121DF5AC76
:1021C8000CAD0DAA08AB09120B9D7402121B88EE08
:1021D800246812222D64807004747F8001E0F50C5D
:1021E800780C121DF9E50EF50C780C121DF9A90AE8
:1021F800AC08AD09900397E0FA7B00120807740257
:10220800121B888013900369E06408700BAC0CAD56
:102218000DEEFAEFFB120C09120DA179017F0A02EB
:102228001CFAEE2482F582E43FF583E02274F21270
:102238001C4E74FC121B72EAFEEBFF8909A2AFE484
:1022480033F508C2AF0222F1E0601B780C121DF5CD
:10225800AC0BA90EEEFAEFFB120BD37402121B881B
:102268007404250BF50B7401250BF5D9850ED9E5FA
:102278000B6018F50A850C82850D83E0F5D9A385D6
:10228800820C85830D150AE50A70EA75E195EE243E
:1022980063F8E43FF97A007B00A2AFE433F50BC2A0
:1022A800AF1223CCEC4D603288828983E0FAA3E038
:1022B800FB8A828B831223D088828983ECF0A3ED7A
:1022C800F08A828B83E4F0A3F01223CCEC4D700AE1
:1022D80088828983A3A3E4F0A3F0E50BA2E092AF80
:1022E8001214139006C4E004F0EE2463122098E858
:1022F800496064EE246312222D2402F8A3E034001E
:10230800F988828983E5822402F50CE43583F50D8A
:10231800E0F50BA3E0F50EEE246212222D640170A5
:10232800369061D0E0F812222A60047C0480027C96
:10233800007480C398FA95E0FBE50B2CF8E43400B0
:10234800F9E82402F8500109C3EA98EB99A2D2658A
:10235800D03340030222509006C4E0604D9006C579
:10236800E0F89006C4E0C398500C74026509703A0E
:102378009006C6E060348E828F83A3A3A3A3E08572
:1023880021828522831223C27402121BBEE8122303
:10239800C29006C3E028F07402121BD8AA21AB220F
:1023A80079011208619006C4E4F0E508A2E092AF52
:1023B8007404121B887F07021CFAF0A3E4F090064D
:1023C800C4E0F82288828983E0FCA3E0FD220000B3
:1023D8008523878524C622C0E074EB121D3AA2AF7C
:1023E800E433F508C2AF759B00906182E0A2E0502B
:1023F80030E591A2E0502A7591FE740165237021A1
:10240800122572120CC9122560121E081226D774E2
:1024180004121B88E9640170057901120CF9122075
:10242800A4906182E0A2E5505DE591A2E550577560
:1024380091DF900369E064076005E06408702F127B
:10244800257274016523703E120CC9122560121E94
:10245800081226D77404121B88E9640170057901F3
:10246800120CF97901EEFAEFFB1222358018E064BC
:102478000D701390038BE004F064287002E4F07A86
:1024880000E0F9120DA7906182E0A2E64003022560
:1024980035E591A2E640030225357591BF900369A1
:1024A800E064057008120CB1120CBD8003120CB761
:1024B800752300120D17E990036AF07900120CF9E0
:1024C800120A7D7A017B00900368E0F9120FFF90F1
:1024D8007803E0644270569006F8E014F0704EC23B
:1024E800AF1224EC007826D0E0F618D0E0F6E59F8D
:1024F8005407F87005750DFF8003750D7FC4C0E0A3
:102508007825E6F50A08E6550DF50B740B780A12DE
:102518001B50D0E0250AF8906270E0A2E740F8E886
:10252800C333906272F0906270E0D2E0F090618103
:10253800E0A2E35009E5E9A2E3500375E9F7A3E057
:10254800A2E75009E591A2E7500375917FE508A23B
:10255800E092AF7F08021D998E828F83E0F8A3E096
:10256800C82416F582E438F58322900397E0F875BD
:10257800F00CA4C8AAF02AF9749928FE740339FF4C
:1025880022C0E0C0D0C082C083906183E0A2E05046
:1025980009E5BFA2E0500375BFFEE0A2E15009E5DE
:1025A800BFA2E1500375BFFDE0A2E25009E5BFA25A
:1025B800E2500375BFFBE0A2E35009E5BFA2E35078
:1025C8000375BFF7E0A2E45009E5BFA2E450037524
:1025D800BFEFE0A2E55009E5BFA2E5500375BFDFF4
:1025E800E0A2E65009E5BFA2E6500375BFBFD0835D
:1025F800D082D0D0D0E032C0E074F2121D3AE5A704
:10260800A2E6500FE5A1A2E6500953A7BF75A1BFE6
:10261800122653E5A7A2E5500CE5A1A2E550065302
:10262800A7DF75A1DFE5A7A2E15009E5A1A2E15066
:102638000375A1FDE5A7A2E2500CE5A1A2E25006B0
:1026480053A7FB75A1FB7F01021D9974F7121C4E5D
:10265800752301900369E064067015120C5D8A8287
:102668008B83A3A3A3A3A3A3E0FAA3E0FB120C9F6D
:10267800A2AFE433FED2AF90036FE0640170187A22
:10268800207B00900368E0F912107D7A207B00908F
:102698000368E0F9121005906182E0D2E6F0900636
:1026A800F5E0602185C624801690036EE064017011
:1026B80008E5C654F84405F5C653BEFC1223D87481
:1026C80001652360E4EEA2E092AF7F02021CFA7477
:1026D800F1121C4E8A088B098C0A8D0B908E837818
:1026E800081219F1740F121BBE780C121A2A908E58
:1026F80083780C1219F17808790C1214C4908E871B
:1027080050107808790C1219B678081214E440149D
:10271800800E780C79081219B6780C1214E450045B
:102728007901800279007F08021CFA74ED121C4EB0
:102738008A088B098C0A8D0B908E8378081219F100
:102748007413121BBE780C121A2A908E83780C12FE
:1027580019F1780C79081214C440117808790C1210
:1027680019B6AA08AB09AC0AAD0B80227510007522
:1027780011007512007513017810790C1219B678CA
:1027880010790812197DAA10AB11AC12AD137F0C89
:10279800021CFAC082C083E9906000F0D083D08226
:1027A80022C2AF02000022C0E074F2121D3AA2AFAA
:1027B800E433FED2AFC2C0E5D1A2E4500653D1EF54
:1027C800121383EEA2E092AF7F01021D99C0E0745C
:1027D800F2121D3AE5A8FED2AF1212ABC2EBEEA27E
:1027E800E7A2E792AF7F01021D99C0E0C0D0E8C020
:1027F800E0E9C0E0E5A8D2AFC2C7A2E7A2E792AF7E
:10280800D0E0F9D0E0F8D0D0D0E032C0E074F212D5
:102818001D3AA2AFE433FCD2AF901BB6E0F8A3E0B8
:10282800F9A3E0687003A3E069700A539AFB901B50
:10283800BA74018039C2E9901BB6E0F8A3E0F9E860
:102848002401FAE439FB901BB6EAF0A3EBF07426F6
:1028580028F582741A39F583E0F5C1901BB6C3E0F8
:102868009490A3E094014007901BB6E4F0A3F0EC29
:10287800A2E092AF7F01021D9902011FFFFFFFFF37
:10288800FFFFFFFFC082C083E9901CD2F0D083D045
:102898008202011F74F6121BE2E99002DCF0900339
:1028A8003BE0F50875090074027808121B5FAA0856
:1028B800AB0912103B9002DD12324F9002DD123646
:1028C8003C606F90033BE075F003A4FAABF0121084
:1028D8003B9002FA12324F9002FA12363C700B907B
:1028E80002DD12360D12104180489002FA1245A1FD
:1028F8007AFF7BFF12120F7A0080198A0875090087
:1029080074027808121B5F12404974FF122A4FE4C0
:10291800F0A3F00A90033BE0F8EAC39840DD79059C
:102928001206FF9002DCE0F91205EB7A897B0712A8
:10293800095D0240EC74F4121BE28A088B09EB541F
:102948008060479002DCE0F9120FE78A0A8B0BAE31
:102958000AAF0BEE4F602A8E828F83E064B0701A44
:10296800120711E960148E828F83A3A3A3A3E0F951
:10297800EE2405FAE43FFB1206E1EEFAEFFB120F34
:10298800D5AA08E5096480FB80047A007B00022B45
:102998009F74F2121BE274FB121B72EAFEEBFFEE4D
:1029A8004F60457403121BBEEEF0A3EFF085218241
:1029B800852283ECF0A3EDF07402121BBEE9F0AAA5
:1029C80021AB221205E5E9F50870757413121BBED8
:1029D800E0F50AA3E0F50BE50A450B60638E828FEC
:1029E80083122FD8EE4F700575080280537A067B44
:1029F8000012103B8A0C8B0DA80CA90DE849700534
:102A0800750813803B88828983E4122A4FEEF0A36D
:102A1800EF122B6BE50AF0A3E50BF09002E0122B06
:102A2800649002E06017E0FCA3E08003EAFCEBFDA1
:102A38008C828D83122B6470F38C828D83123C649C
:102A4800A9087405024821F0A3124583A32274F251
:102A5800121BE28908890C750D007403780C121B8F
:102A68005F850C0A850D0B9002DFF09002DD123AAB
:102A78006F122B62602E1210417900801D890C752F
:102A88000D007402780C121B5F9002DD123F08885B
:102A980082F583A3A3E4F0A3F00990033BE0F8E9EF
:102AA800C39840D990033BE0FA850AF0A4CAA8F07D
:102AB800850BF0A428FB12103B8A0C8B0DAE0CAFD3
:102AC8000DEE4F7003022B5890033BE0FC850AF093
:102AD800A4CCA8F0850BF0A428FD7900120FC37CC4
:102AE8000080318D0C750D007403780C121B5F8A01
:102AF800828B83122B5D88828983E4F0122B6AA370
:102B0800A3F0A3F00DEDC3950840D8EE250AFEEF1B
:102B1800350BFF0C90033BE0F8ECC39850288C0C65
:102B2800750D007402780C121B5F9002DD122B5D8C
:102B3800E82402500109FAE9FB8A828B83EEF0A3AC
:102B4800EFF07D0080BFE5089002DFF07900800299
:102B58007913024824123F0CF922A3A3123611EA72
:102B68004B22A3124583A3A3A32274F4121BE27978
:102B780000EAA2E0501F75082975098E7808121D11
:102B8800F579107C047D007AD47B1C1206F9740256
:102B9800121B88E9F980007F04021CB4C082C0833C
:102BA8009002E012363C601C88828983A3A3E06A05
:102BB8007003A3E06B8882898370E8A3A3A3A312A0
:102BC800360D80047A007B0002289574F2121BE20D
:102BD80074FD121B72EAFEEBFF852182852283E4D5
:102BE800F0A3F07402121BBE7401F012363970148F
:102BF8001208AF12103B9002E312324F12363970AE
:102C080003022D6512334FEE2404F50AE43FF50B59
:102C1800850A82F583E024FE603C24FC607424FE6F
:102C2800607E24FE7003022CB524FE7003022CC2C1
:102C380024FE7003022CCF24FE7003022CDC24FE39
:102C48007003022CE924FC7003022D0A24FE700391
:102C5800022D22022D5E1208AF9002E5EAF0A3EBE6
:102C6800122D7112025BE96003022D5E9002E512DB
:102C78001E0C8E828F83A3A3A3A3A31245A185084C
:102C88008285098312360D1206C97402121B880246
:102C98002D5EAC21AD22EEFAEFFB120717022D2DA7
:102CA800AC21AD22EEFAEFFB12071D8078AC21AD06
:102CB80022EEFAEFFB120723806BAC21AD22EEFA6D
:102CC800EFFB120729805EAC21AD22EEFAEFFB1272
:102CD800072F8051AC21AD22EEFAEFFB12073580A9
:102CE800447402121BC8880C890D780C121DF574E7
:102CF80002121BD8EEFAEFFB12073B7402121B8874
:102D08008023AC21AD22EEFAEFFB120741E9F870FF
:102D1800167402121BBEE4F0803CAC21AD22EEFA20
:102D2800EFFB120747E9F8E8602C8E828F83A3E057
:102D380064146022850A82850B83E09002E5F085A1
:102D4800218285228312360D9002E612324FE8A3C3
:102D5800122D71120255EEFAEFFB12069F74021241
:102D68001BBEE0F97403024821F07CE57D0285086A
:102D7800828509831236112274E8121BE274FA1252
:102D88001B727404121BBEECF0A3EDF08A128B13B5
:102D9800EA2405F50EE43513F50FEA2402F510E4EC
:102DA8003513F511851082F58312360D1203938AB7
:102DB8000A8B0B7508007C037D0079007AE57B029D
:102DC800120FC3E50E2402F516E4350FF517740249
:102DD800121BC8880C890D780C121DF5850E82858A
:102DE8000F83A3A3A3A3E0F50C750D00780C121DA7
:102DF800F5E50E2405F50CE4350FF50D780C121DDC
:102E0800F585168285178312391412060374061283
:102E18001B888A0C8B0DE50C450D7003022FA180D1
:102E280020852182852283E088828983F0050885B0
:102E38002182852283A3E0C0E0122FE2D0E0F005D2
:102E480008E50A24FBFAE50B34FFFBC3E5089AE41E
:102E58009B4003022FA17E007F0085128285138389
:102E6800A3A3A3A3E0F5097809121DF9E4F514F565
:102E7800157814121DF57514E27515027814121DD3
:102E8800F59002E3121E0C7409121BBE121E0CE50B
:102E98000A24F9F9AC0CAD0D851082851183123620
:102EA8000D1207717409121B88E96003022F42850D
:102EB8000E82850F83A3A3A3A3A3A3A3E0F8900284
:102EC800E2E0687075E0F5148E157814121DF5129D
:102ED800459E850E82850F83A3A3A3A3A3A3A3A3C3
:102EE80012360D120FBD7402121B88E9604C900255
:102EF800E612363C703BE4F5147814121DF57CFF9D
:102F08007DFF790785108285118312360D1206DB45
:102F18007402121B881236427017850E82850F8341
:102F280012473B7404121BBE123FFC123945022F94
:102F3800D5850C82850D83122FD8A821A922881443
:102F480089157814121DF57404121BBE121E0C8507
:102F5800168285178312324512060F7404121B88D5
:102F68008A0C8B0DEE4F7003022E1E122FE2EE120A
:102F78002FED1238FBEF122FEDF8A3E03400F9E53E
:102F88000C450D6003022E298882898374FFF005A1
:102F980008122FE274FFF00508E508601A131354AD
:102FA8003F123255120267E960099002E612360DA7
:102FB80012141379008016850E82850F8312473B01
:102FC8007404121BBE123FFC123C64790A0238CE0C
:102FD800A3A3A3A3E0FEA3E0FF22A8089002E6E0D3
:102FE800281238FB22F00508089002E6E02822742F
:102FF800E8121BE274FA121B727402121BBE123220
:103008004F7404121BBEECF0A3EDF07402121BBE49
:10301800E024051238E4E0F50CA3E0F50D74021283
:103028001BBEE02402F510A3E03400F511851082E0
:10303800F58312360D120393750800750900EA240A
:10304800FCFEEB34FFFF8008050CE50C7002050D53
:10305800A808C3EE98EF94005003023201A821A9F2
:1030680022880E890F780E121DF585148285158326
:10307800A3A3A3A31245A5121DF5E5142405F50E77
:10308800E43515F50F780E121DF585148285158324
:103098001232431206037406121B888A0E8B0FEA3B
:1030A800450F7003023201EA2404F516E4350FF5E2
:1030B80017851682F583E0F50CA3E0F50D852182CE
:1030C8008522831245A18A828B83A3A3A3E0F98575
:1030D800108285118312360D1205F1E9F509600396
:1030E8000232017402121BBE12390BF5097809125B
:1030F8001DF9E4F512F5137812121DF57512E27533
:1031080013027812121DF59002E3121E0C740712B6
:103118001BBE121E0CEEF9AC0EAD0F851082851188
:103128008312360D1207717409121B88E9F50960BC
:1031380003023201E508703FE4F50EF50F780E1230
:103148001DF57CFF7DFF7909851082851183123674
:103158000D1206DB7402121B88123931700D7404CB
:10316800121BBE12323879110232359002E2E02485
:10317800029002E6F080149002E6E0FA9002E2E0A3
:10318800790024025001096A497072A8089002E285
:10319800E0FAE82AFAE43400FBEE9AEF9B405A85FD
:1031A8001682851783E0C0E09002E7122FE7D0E08F
:1031B800F00508851682851783A3E0C0E008900211
:1031C800E7122FE7D0E0F005089002E21245A512B9
:1031D8001DF512459EA8081238D8120FAB740212BA
:1031E8001B889002E2E02508F50874FF650C70045E
:1031F80074FF650D6003023050E508601F9002E619
:10320800E0F5F0E5088412325512026DE960099084
:1032180002E712360D12141379008011E5097003C4
:1032280075090A7404121BBE123238A9090238CE75
:10323800123A73E50CF0A3E50DF022A3A31248306F
:10324800AA0CAB0D22A3A3EAF0A3EBF0229002E5AF
:10325800F07CE57D02851082851183123611227477
:10326800EC121BE274FC121B72123D747402121BE6
:10327800D81236071206098A0C8B0DEA450D700321
:1032880002333F12334FA821A922881089117810E0
:10329800121DF57CFF7DFF790B8508828509831255
:1032A800360D1206DB7402121B88123445700C8529
:1032B8000A82850B8312394202334C8E828F83A394
:1032C800A3A3A3E0F5127812121DF9E4F512F51381
:1032D8007812121DF57512E57513027812121DF594
:1032E8007810121DF57409121BBE121E0C740912F7
:1032F8001BBEE0F9AC0CAD0D85088285098312363A
:103308000D1207717409121B88E9FE70157CE57DA2
:103318000285088285098312360D120273E9700945
:10332800802074166E70027E009002E612360D122E
:103338001413EE7004800B7E01850A82850B8312BC
:103348003C61EEF9023C76EE2402F508E43FF5090B
:103358002274EC121BE274FC121B72EAFEEBFF8C67
:103368000E8D0FEE2405F508E43FF5097402121BD3
:10337800D885088285098312360D1206098A0C8BB6
:103388000DEA450D7003023435EE2402F50AE43FD8
:10339800F50BA821A922881089117810121DF57C37
:1033A800FF7DFF790D1236071206DB7402121B88A7
:1033B800123445700B850882850983123942807A58
:1033C8008E828F83A3A3A3A3E0F5127812121DF9AE
:1033D800850882850983A3A3121E0C7512E575134F
:1033E800027812121DF57810121DF57409121BBE11
:1033F800121E0C7409121BBEE0F912360312077173
:103408007409121B88E9FE700F7CE57D02123607ED
:10341800120279E97009802074166E70027E00909D
:1034280002E612360D121413EE7004800B7E01852D
:103438000882850983123C61EEF9023C7612364C0B
:10344800F510A3E0F511EA45112274E8121BE274A5
:10345800FE121B728A168B178C148D15EA2405F53B
:103468000CE43517F50DEA2402F50EE43517F50FCF
:10347800850E82F58312360D1203938A088B09751F
:103488000B007C037D0079007AE57B02120FC3757F
:103498000A00E50814F5100424FFF508E50934FFCF
:1034A800F50980549002E5E0FA9002E2E0F8EA2893
:1034B800F8E43400F9E50898E50999500D9002E51B
:1034C800E0F8E510C3989002E2F0E0F512751300F9
:1034D8007812121DF512459E9002E6E02AFAA3E042
:1034E8003400FB120FAB7402121B889002E2E0F862
:1034F8009002E5E028F0050A850C82850D83A3A3D8
:10350800123F1840030235E89002E5E0C39508E44D
:10351800950940030235E8AE0AEE2EFEE433FF12A9
:103528003627AC21AD221245B9E439FB1206098AC7
:10353800128B13AC12AD13EC4D701B750B011236C8
:1035480017123C659002E6122B646003121413A94B
:103558000B74020238D0851682851783A3A3A3A310
:10356800E0F50B780B121DF9E4F512F51378121239
:103578001DF57512E27513027812121DF59002E31B
:10358800121E0C7407121BBE121E0CA910850E8287
:10359800850F8312360D1207717409121B88E9F51D
:1035A8000B709B9002E612363C60030234ACE4F5E3
:1035B80012F5137812121DF57CFF7DFF790F850E29
:1035C80082850F8312360D1206DB7402121B8812D5
:1035D800364260030234AC123617123946023559A6
:1035E8007CE57D02850E82850F8312360D12027FDF
:1035F800E9600302354C7900023559AC0CAD0D85F4
:103608000A82850B8312361122E0FAA3E0FB22120C
:103618003627E0FAA3E0F9EA851482851583228526
:103628000C82850D83E02EF8A3E03FF98882898318
:10363800229002E312473FE8492212364CF8A3E0F1
:10364800F9E849229002E6EAF0A3EBF09002E6E0FE
:103658002274E8121BE274FA121B727404121BBE65
:1036680012324F8C168D177404121BBEE02405F518
:103678000EA3E03400F50F7404121BBEE0240212FE
:1036880038E412360D1203938A0A8B0B7F007E00F2
:10369800A821A922880889097808121DF5850E82B3
:1036A800850F83A3A3A3A3E0F5088E097808121D4C
:1036B800F5E50E2405F508E4350FF5097808121D1F
:1036C800F5850E82850F83A3A3123914120603749D
:1036D80006121B888A0C8B0D8029123905F00F12EF
:1036E8003905F00F9002E2123C50121DF512459E6A
:1036F800EFF81238D8120FAB7402121B889002E24E
:10370800E02FFFE50C450D70030237948521828573
:103718002283123D86A3A3A3E0F98514828515832D
:1037280012360D1205F1E9FEE50C2404F510E43516
:103738000DF511EE70507404121BBE12390BF5080A
:103748007808121DF9E4F508F5097808121DF575D1
:1037580008E27509027808121DF59002E3121E0CA2
:103768007407121BBE121E0CE50A24FAF9AC0CAD44
:103778000D85148285158312360D1207717409128E
:103788001B88E9FE6039123921123C64EF7003028C
:1037980038BB9002E6E0F5F0EF849002E5F07CE5B6
:1037A8007D0285148285158312360D120285E96023
:1037B800099002E712360D12141379000238CE8FE1
:1037C80008EF703BE4F512F5137812121DF57CFF33
:1037D8007DFF791185148285158312360D1206DB5B
:1037E8007402121B881239317009123921123945B5
:1037F8000238CE9002E2E024049002E6F080359090
:1038080002E2E0F89002E6E0FAE82404FCE434007E
:10381800FDEC6A4D600302379AE50A24FAFAE50BD3
:1038280034FFFBE50828F8E43400F9EA98EB9950EE
:103838000302379A851082851183E0C0E09002E781
:10384800E02FF8A3E034008882F583D0E0F00F85FC
:103858001082851183A3E0C0E01238F2D0E0F00FA7
:103868007402121BC8880889097808121DF57402A9
:10387800121BBE121E0C850E82850F831232431254
:10388800060F7404121B888A0C8B0DEA450D700311
:103898000236E27402121BBEE0C0E01238F2D0E039
:1038A800F00F7402121BBEA3E0C0E01238F2D0E0A1
:1038B8000236EAEE70027E0A850E82850F8312397F
:1038C80027123C64EEF97406121B887F10021CB4A0
:1038D8009002E7E028FAA3E03400FB22F514A3E005
:1038E8003400F515851482F583221238F6229002E9
:1038F800E7E02FFAA3E034008A82F583221238F633
:1039080074FF22123A73A3A3A3A3E02212483085BE
:103918000E82850F8312361122851082851183123B
:10392800473F851682851783229002E7EAF0A3EBCA
:10393800F09002E712473FE84922123C6AE8F0A3F8
:10394800E9F079112274EA121BE274FE121B728AE2
:10395800088B098C128D13EA2405FEE43509FFACA7
:1039680021AD228E828F8312360D1206098A0C8BA6
:103978000DEE2406F50EE43FF50FEA450D7003023F
:103988003A45E5082402F50AE43509F50B8A828BE5
:1039980083A3A3A3E0A2E550288521828522831270
:1039A800360D1207658A108B11EA451160207912CD
:1039B800123603851082851183121BE0E9F50C701D
:1039C8007F850E82850F83E0600979528011750C1E
:1039D8000E806D850882850983A3A3A3A3E0F9E47B
:1039E800F508F5097808121DF58E828F83A3A3E0E8
:1039F800F5087808121DF58E828F83A3A3A3121EE3
:103A08000C8E828F831245A112360712077774062F
:103A1800121B88E9F50C7011850E82850F83E07002
:103A28002D12360712028B80257416650C701175DD
:103A38000C007418121BBE123A6FE48010750C014A
:103A4800124737851282851383E8F0A3E9F0850EC3
:103A580082850F83E0600479008002A90C74021249
:103A68001B887F0E021CB4123A7322E0F8A3E0F51B
:103A78008388822274EC121BE274F7121B728A0A82
:103A88008B0B8C108D11EA2405FEE4350BFF750CA9
:103A980000AC21AD228E828F8312360D1206098A60
:103AA800088B09EA45097003023C3BE50A2402F544
:103AB8000A5002050B8A828B83A3A3A3E0A2E550D8
:103AC8002F85218285228312360D1207658A0C8B79
:103AD8000DEA450D604F7912AC08AD09123607851D
:103AE8000C82850D83121BE0E9F50C6003023C3E55
:103AF800850A82850B83E0F508A3E0F509AA08FB8F
:103B0800120759EA4B70197AFF7BFF120759EA4BE3
:103B18007003023C318A828B83E508F0A3E509F043
:103B28007508008008750C0E023C3E05089002DFFF
:103B3800E0F8E508C3984003023C3185080E750F8C
:103B4800007403780E121B5F8A828B83A3A3E0257F
:103B58000EF8A3E0350F12400570D08E828F8312C5
:103B68003C5912324F8E828F83A3A3123C591232D2
:103B78004DEE2404F508E43FF509850882F583E055
:103B880088828983A3A3A3A3F0A3E4F0EE2405F518
:103B98000EE43FF50F850E82F583123C59A3A3A3CB
:103BA800A312324D7512077513007812121DF5EE27
:103BB800FCEFFD7404121BD0120FAB7402121B88A9
:103BC800E4F5127812121DF5850882850983E0FC58
:103BD8007D0079171236071206DB7402121B8874EF
:103BE80007121BBE12324F7407121BBEE0FA4B605D
:103BF8003D850882850983123C50121DF5850E8289
:103C0800850F831245A1120FAB7402121B88740230
:103C1800121BD8123607120291E960267407121B8C
:103C2800BE12360D1214138019750C098008750C14
:103C3800118003750C011247378510828511831294
:103C48003C64A90C74098028E0F508750900780817
:103C5800221236118882898322123C6AE8F0A3E98D
:103C6800F022E0F8A3E0F9850E82850F8322740420
:103C7800121B887F0C021CB474EC121BE2123D74F8
:103C8800751000EE2402F50CE43FF50D850C82F565
:103C98008312360D1207598A088B09EA4509700301
:103CA800023D58850A82850B83E064016003023D6A
:103CB8004DAC08AD09AA0AAB0B12074DE9606E8539
:103CC8000882850983122FDAEE2406F50AE43FF507
:103CD8000B8E828F83A3A3121E0C8E828F83A3A3C5
:103CE800A3A3121E0C850A82850B83121E0C791859
:103CF8008E828F83123D8612360D12077774061254
:103D08001B88E9F8741668700B850A82850B83E4B2
:103D1800F0A38014E860128E828F8312360D850E10
:103D280082850F83EAF0A3EBF088108018780E12D2
:103D38001DF5AC08AD09EEFAEFFB12075374021239
:103D48001B88E9F510AA08AB0912075FE510700E89
:103D5800850C82850D8312360D1202978009741620
:103D680065107003751000A910023C7BEAFEEBFF9A
:103D78008C0E8D0FEE2405F50AE43FF50B22124850
:103D880030850C82850D832274EA121BE2750800C7
:103D98007509007E007F00750A00EC2402F510E426
:103DA8003DF5118035EC65087003ED650960030287
:103DB8003E4588828983A3A3E06A7003A3E06B7001
:103DC8007C88828983A3A3A3A312473BEE28FEEF36
:103DD80039FFEA28FAEB39FB050A123F15503A85F4
:103DE8000A0C750D007403780C121B5F8510828510
:103DF8001183123F08124005601FE508450970A5A8
:103E08008C088D0988828983122FD888828983A398
:103E1800A3E02EFAA3E03F80BEE50AC39402500354
:103E2800023F03750800750900EE4F6010EEFAEFC7
:103E3800FB12140D8A0E8B0FEA450F7005790002EC
:103E48003F05750B00023ED8850B0C750D007403F9
:103E5800780C121B5F851082851183E0250CF50C08
:103E6800A3E0350DF50DE50C2406F514E4350DF544
:103E780015851482F58312400A6042E50C2404F586
:103E880012E4350DF513851282F583121E0CE50E2A
:103E98002508FAE50F3509FB120FAB7402121B88CF
:103EA800851282851383E02508F508A3E03509F516
:103EB8000985148285158312360D121413E50B60DB
:103EC8000D7C087D007900AA0CAB0D120FC3050B01
:103ED800E50BC3950A5003023E5085108285118375
:103EE80012473B88828983A3A3A3A3A3A3E50EF06B
:103EF800A3E50F122B6BEEF0A3EFF07901023A6AFB
:103F0800123F0C22E0250CF8A3E0350D229002DFC9
:103F1800E0F8E50AC3982274F0121BE28A0E8B0FB0
:103F28008C0A8D0B750D00750C0080507916EE24E7
:103F380006F508E43FF5098E828F83A3A3121E0CB1
:103F48008E828F83A3A3A3A3121E0C8508828509E2
:103F580083121E0C850E82850F83A3A312360D12C1
:103F680007777406121B88E9F50D7416650D706CD9
:103F7800850882850983E4F0A3F0050C9002DFE050
:103F8800F8E50CC3985066AA0C8A087509007403F2
:103F98007808121B5F850A82850B83A3A3124054FD
:103FA800E8FEE9FF8E828F8312400A6040EA24010E
:103FB800F508E43400F5099002DFE065087002E5D1
:103FC80009601488828983A3A3A3A3A3A3A3A3122C
:103FD800363C6003023F347918023F36E9609B1291
:103FE80047377410121BBE123FFC123C64A90D7FA8
:103FF80008021CB4E0FAA3E0F5838A8222F98882D9
:104008008983124830EC4D2274F6121BE27C008042
:10401800010C90033BE0F8ECC398501E8C0875091E
:104028000074027808121B5F124049E06A7003A30B
:10403800E06B70DDE8FAE9FB80047A007B0002405F
:10404800EC9002DD1240548882898322E02508F82A
:10405800A3E03509F92274F2121BE28A088B09756C
:104068000A0080278E828F83A3A3A3A3122B6260EA
:10407800031214137C087D007900EEFAEFFB120F8F
:10408800C38E828F83E4F0A3F0050A123F155027F0
:10409800850A0C750D007403780C121B5F85088265
:1040A800850983A3A3E0250CFEA3E0350DFF8E82CE
:1040B8008F8312363C70AD85088285098374FFF0C2
:1040C800A3F002482474F6121BE212070B8A828BB3
:1040D80083E582458370067A007B008007A3A3A34B
:1040E800A312360D7F02021CB474F4121BE2890875
:1040F8008C828D83E06402703C1246DAFEA3E0F9FC
:10410800EEF874026870037429697029750A0275DB
:104118000B00780A121DF57410121BBE121E0C74C7
:1041280010121BBE121E0CA9081212157406121BBF
:1041380088E9F980027901022B9F74E8121BE27466
:10414800FB121B72E9852182852283F08A168B1760
:10415800ECFEEDFF7510008E828F83A3A3A3E0A26F
:10416800E4502D741D121BBE12360D1207658A828B
:104178008B83E58245837003024579790AEEFCEF6B
:10418800FDAA16AB17121BE0E9F510600302457C87
:10419800741F121BBEE0F508A3E0F5097421121B79
:1041A800BEE0F50AA3E0F50B7423121BBEE0F50E82
:1041B800A3E0F50F8E828F83E06402600302451A44
:1041C800A312473B850882850983A38582128583CC
:1041D80013EE2406F50CE43FF50D88828983124519
:1041E800B9F514E439F5157814121E7F010000287A
:1041F80001281C4207000228E14203284F420029F7
:10420800104401293B440229DC43032910440429B2
:10421800B4441A45E50E450F6003024515850C8226
:10422800850D8312473BE8FAE9FB8A828B83E08598
:104238000A82850B831245C4121DF58A828B83A3DB
:10424800E0FCA3E002449EE50E450F60030245151D
:10425800850A82850B837401F01245AE8508828534
:104268000983F07C007D008E828F83A3A3A3A3E043
:104278002401FAA3E03400FB120609EA4B60408AE5
:10428800828B83E02402F8850A82850B83E028F07C
:10429800EA2404F8E43BF988828983E08512828560
:1042A80013831245D21245C4121DF58A828B83A34B
:1042B8001245A1E5082403FAE43509FB0244A38565
:1042C8000A82850B83E02404F07C047D007900AA2F
:1042D80012AB13120FC302457CE50E450F600302B3
:1042E80045151245AEFEA3E0FF850A82850B83744F
:1042F80004F0EE850882850983F0EF851282851324
:1043080083F07403121BD8EEFAEFFB1206098A0C2D
:104318008B0DEA450D70030243BF8A828B83A3A3EA
:10432800122FD87401121BC8880E890F780E121D1F
:10433800F57405121BBE121E0C7CFF7DFF12060FC2
:104348007404121B888B0FEA450F7033850C828525
:104358000D831245A5121DF5850C82850D83A312C8
:104368001E0C7C027D007ADB7B8E120381740412A2
:104378001B88E9700A7401121BBE74FFF0A3F08E4B
:10438800828F83E064027039750C02750D00780C19
:10439800121DF58E828F83A31245A1E5082404FA25
:1043A800E43509FB120FAB7402121B88850A82855B
:1043B8000B83E0240280097401121BBEEEF0A3EF08
:1043C800F07401121BBE1245937401121BBE1245F4
:1043D8008A02450FE50E450F6003024515850C82DC
:1043E800850D83124829AA16AB1712121B850A825B
:1043F800850B837402F0850882850983EAF08512AB
:1044080082851383EB024512E50E450F60030245D2
:10441800151245AEF8A3E0F9850A82850B8374026C
:10442800F0E8850882850983F0E98512828513837F
:10443800024512850C82850D8312360D120FA5EAEE
:10444800FAF8C3950EE4950F405CE8650E450F70C9
:10445800047A008021852182852283E0FCE50E2CE8
:10446800FCE4350FFDC3EC98ED94005003E08005A3
:10447800E50ECAC39AFAEA850A82850B83F08A0A8E
:10448800750B00780A121DF5850C82850D83E025D1
:104498000EFCA3E0350FFDAA08AB09120FAB74029E
:1044A800121B8802457C75100702457CE50E450FF6
:1044B800705B850C82850D8312473B850A82850BCC
:1044C800837407F08882898312458B124583E085BF
:1044D8001282851383F0E82402FAE439FB8A828B7E
:1044E800831245938A828B8312458AA3A3122B6A6F
:1044F800124598F0E82405F850010988828983124A
:104508004598A31245D2A3A3A3A3F0806775100B07
:104518008062741D121BBE12360D12070B8A828B25
:1045280083E5824583604A12473B880C890DE8453C
:104538000D603E7425121BBEE0F5107810121DF9AF
:10454800780E121DF5780A121DF57808121DF574FB
:1045580007121BBEE0F9EEFCEFFDAA16AB17850C9F
:1045680082850D83121BE07407121B88E9F5108001
:104578000375100EA91074050238D0F0888289835B
:10458800A322A3E0850882850983221245D9F02257
:104598001245D9A3A3229002E312483022E0F50E77
:1045A800750F00780E22850C82850D83123A73E010
:1045B80022E0FAA3E0F8E4C8F9EA2822F08A828B1C
:1045C80083E0F50A750B00780A221245831245D953
:1045D80022E0850882850983A3A32274EE121BE2D8
:1045E80074FE121B728A088B09ECFEEDFF890AAC77
:1045F80021AD22EEFAEFFB1206098A0C8B0DEA4573
:104608000D70030246CB85218285228312360D1256
:10461800070B8A828B83E582458370030246C6A313
:10462800A312473B880E890FE8450F70030246C660
:104638007414121BBEE0F510A3E0F511E50AF50BA2
:10464800780B121DF97419121BBE121E0C78101269
:104658001DF5741B121BBEE0F9AC0CAD0DAA08AB1E
:1046680009850E82850F83121BE07405121B88E9E9
:10467800F50B705274FE650A604C850C82850D83BB
:10468800E0640270411246DAFAA3E0F9EAF874022B
:10469800687003742969702E85108285118312450C
:1046A800B9F50CE439F50D780C121DF5EEFCEFFDAB
:1046B800AA08AB0912078F7402121B888008750BB1
:1046C8000E8003750B01A90B7402121B887F0A0266
:1046D8001CB4A312473F88828983E02274F6121B18
:1046E800E274FE121B72740C121BBE12473BE88563
:1046F8002182852283F07401121BBEE9F0E4F508DB
:10470800F5097808121DF57508027808121DF57468
:1047180004121BC8880889097808121DF579FE1249
:1047280007777406121B887402121B880240EC8EED
:10473800828F8312473F22E0F8A3E0F92274F71230
:104748001BE2EAFEEBFF89089002FA1245A1121259
:104758001BEA5402600BA908EEFAEFFB1205FD8074
:104768000279017F01021CB474F2121BE274FE127A
:104778001B72EAFEEBFF890A7401650A6014740271
:10478800650A600302481F790112097BE960030288
:10479800481FEEFAEFFB120759EA4B600312075F56
:1047A800A821A922880889097808121DF575080228
:1047B8007509007808121DF57508E175098E7808E5
:1047C800121DF57CFF7DFF7A017B0012060374063B
:1047D800121B888038850882850983A3A3A3A3A315
:1047E800A3124829EEFAEFFB12120FE4F50CF50DAF
:1047F800780C121DF57402121BBE121E0C7CFF7D74
:10480800FFAA08AB0912060F7404121B888A088BCA
:1048180009E508450970BE7402121B887F06021C50
:10482800B4123A7312483022E0FCA3E0FD2274F47B
:10483800121BE28A088B09ECFEEDFF901CD2E0F413
:10484800604B7A097B00120FCFEA4B60408A828B5B
:104858008374B1F0A3E4124898F08A828B83A3A3EF
:10486800E508F0A3E509124898A3EEF0A3EFF07469
:104878000C121BBE12473B8A828B83A3A3A3A3A35C
:10488800A3A3123C64901CD2E0F9120FDB022B9F09
:10489800F08A828B83A3A3A3A322C082C0839061E2
:1048A800907404F0A37448F0A37402F090618074CB
:1048B80040F09061BC7403F09061877419F09062C5
:1048C80065741BF0906249E0C3941390619C40109A
:1048D8007409F09060667401F090619F7428800DEF
:1048E800740BF0906066E4F090619F742CF0124AAB
:1048F8008D7009C29190036D7467800590036D7483
:1049080061F0124ADF902884E493F46006E493F996
:10491800120A717905120D89024D21C082C083E9FE
:10492800540FF9906185E0696012E5C654B84441B6
:10493800F5C6E59E5447644170F8E9F053C6B8E5FA
:104948009E544770FA024D21C082C083A8A853A87C
:104958007E906181E4F0A3F0A3F0C2BA539AFEC23C
:1049680089759B00C2C275E90075910075BF007515
:10497800A91175B905906181F0A374C0F0A3E4F0A2
:10498800D2BA439A0174805842A8024D21F0024DD0
:1049980021C082C08374F8121B7290036B1260A14D
:1049A8007003024A8590036BE0544060177908AAA7
:1049B80021AB22120B7FAA21AB221207EF90036BC7
:1049C800E054BFF0E054806010790C7A197B07122C
:1049D8000B7F90036BE0547FF0E0A2E0501E124A78
:1049E8008D7009C29190036D7467800590036D7492
:1049F80061F01207F590036BE054FEF0E05402609A
:104A08001E124AD27009D29190036D74718005907C
:104A1800036D746AF01207F590036BE054FDF0E043
:104A280054046010902888124AE21207FB90036B26
:104A3800E054FBF0E054086010902889124AE21212
:104A480007FB90036BE054F7F0E05410600D124A36
:104A5800DF1207FB90036BE054EFF0E05420600A8C
:104A68001207FB90036BE054DFF0A3E05401600DE4
:104A7800120A8F12080190036CE054FEF0740812B9
:104A88001B88024D2190619A124CD49006F3E06481
:104A98000122C082C083E960051460178029124A88
:104AA8008D7009C29190036D7467801A90036D74BC
:104AB800618013124AD27009D29190036D7471808B
:104AC8000590036D746AF0024D2190619A124CC6EC
:104AD8009006F3E064012290288AE493906186F0BE
:104AE8002274EA121BE274F4121B72908EBBAC2182
:104AF800AD227404121A8590288893F46003024C3E
:104B08005B907808E0C394025003024C3F908E0DEE
:104B18007404121BD87408121A85A821A9228814B3
:104B280089157404121BC888088909AE08AF09756D
:104B380010FF7511FF750EFF7C00750C48750D7818
:104B4800801274086C7003024BD574096C607E7413
:104B58000A6C6079850C82850D837808121A2A8E72
:104B6800828F83A909E50AC9F8881274187808128F
:104B78001945E5124508F8C3E098A3E099850C8229
:104B8800850D837808121A2A40188E828F8374182C
:104B98007808121945E5124508F8E0C398F8A3E02B
:104BA800801A74187808121945E5124508FAE9FBC5
:104BB8008E828F831253F6EAC398F8EB99F9C3E80B
:104BC8009510E995115006881089118C0E0CE50C8A
:104BD8002404F50C5002050DECC394135003024B4A
:104BE8004A74FF6510700474FF65116024850E080F
:104BF80074027808121B5F74482508F582747835AA
:104C080009F5837808121A2A851482851583E50820
:104C1800F0EE2402FE50010F851482851583A385CA
:104C28008214858315740C121BBEE5826E7003E531
:104C3800836F6003024B3775080175090078081205
:104C48001DF57402121BD87A227B0A121281740293
:104C5800121B88740C121B887F0E021CB4C082C001
:104C6800839061AE7468F0A3746AF090624574FB37
:104C7800F0A304F053F4FD43FE029006F37401F030
:104C88009061A0E0643A90619A7019124CD4740152
:104C980064017009C29190036D7467801E90036D62
:104CA80074618017124CC6740164017009D2919026
:104CB800036D7471800590036D746A024995743FA1
:104CC800F0A3745AF09061A0747FF0227433F0A3BB
:104CD8007455F09061A0743AF0227F04021CB4C0AD
:104CE80082C0839006D1E0640170119006D7E06419
:104CF800016019E07006A3E0640160109006E8E026
:104D08006401700C9006EEE064017004790C800276
:104D180079008005E0F912279BD083D08202011F19
:104D2800E0C4333354C022888289831252B7A882E0
:104D3800A983222414F582E438F58322C082C08333
:104D48009006DB7425F09006D97401F0A3E4F07A9C
:104D580001FB120D05124D90241AF582E438F583F3
:104D680074B3F0A3740AF09006D8E064017016904A
:104D780006D7E070107901120D65120D35120D5F1E
:104D88007900120D71024D219006C7125119227433
:104D9800F6121BE274FA121B729006D0E0640170DE
:104DA80008120A9B9006D0E4F075E1F1124D9024A8
:104DB80015F582E438F5837401F09006D2E06401B9
:104DC800704B908E2FAC21AD227406121A8575D9BE
:104DD8000D9006C9124D284403F5D97582CA75830A
:104DE800061252B3E58264D07004E583640670F15C
:104DF800A821A922124D2F7406121BBEE5826870E5
:104E080003E5836970EE75E19579018002790012F6
:104E18000D0B901CF6124E7D741BF0A3740CF0A3BE
:104E2800124E7D124E7D124FEB7421F0A3740C12BA
:104E380050009006C9E0F97ACA7B06120CE7900682
:104E4800DBE0F912279B7901120D11908EBF121A1F
:104E580048120D29908E73121A48120CF379001219
:104E68000D7D124D90124D3B7416F0900369740538
:104E7800F0040255187415F0A3740CF0A32274F70B
:104E8800121BE28908A808E875F00CA4C8AAF02A41
:104E9800F9749928FE740339FF9006E0E0F97AE185
:104EA8007B06120CE79006EEE070257900120D479C
:104EB800EE240BF582EF3401F583E070047900806D
:104EC800027901EE2405FAEF3401FB120CED80059E
:104ED8007901120D4775E1F175D9239006E0124D5D
:104EE800284405F5D97582E17583061252B3E58227
:104EF80064E77004E583640670F175D90075D9001C
:104F080075D90075D90075D90075D900EE2422121B
:104F1800536C12538B7003E9658370F6EE242612E6
:104F280053772403F8E43583F912538B7003E9654A
:104F38008370F6EE242B125380242C125380242DD8
:104F4800125380242E125380242F1253802430129F
:104F58005380243112538024321253802433125345
:104F680080245D1253772405F8E43583F912538BB6
:104F78007003E9658370F6EE2437125F20541FF83A
:104F8800EE242A125F20C43354E048F5D975E19520
:104F9800901CF674E5F0A3740BF0A374EBF0A37403
:104FA8000B124FE274F1F0A3740B1250009006ED4F
:104FB800E0F912279B908EBF121A48120D29908E85
:104FC80073121A48120CF390600DE4F07901120D77
:104FD8007D9003697406F0025754F0A3124FEB1248
:104FE8004FEB22124FEF2274DFF0A3740BF0A3747F
:104FF800DFF0A3740BF0A32212500422F0901D04DA
:10500800125010A312501022124FEF74DFF0A37445
:105018000BF02274EC121BE29006DE125B7678101D
:10502800121A2A9006EFE0FAF875F00CA4C8ACF052
:105038002C125CF2FFEE2EFEEF33FF8E0CF50D7591
:105048000E00750F0085100885110985120A851351
:105058000B908EAF78081219907808121DF1851000
:105068000885110985120A85130B7808790C12191D
:105078007D7810790C1218C2E4F50EF50F780879CE
:105088000C1219B68A0C750D007403780C121B5F8C
:105098007808790C12197D908E8378081219F1AA74
:1050A80008AB09AC0AAD0B1227337404121B888AAB
:1050B800088B09A808A909C3EE98EF995006E82EAD
:1050C800F8E93FF9E890600EF0E9A3F0EEA3F0EFFD
:1050D800A3F090600D74C1F07F0C021CB4C082C0B4
:1050E800839006C71251059006DB024D1CC082C092
:1050F800839006DE1251059006ED024D1C125119DF
:1051080012510FF0A3F0222406F582E438F583E467
:1051180022E0F8A3E0C82202011F74F6121BE21273
:1051280052BC6004780480027800E8240EF8ECC3CE
:105138009850030251F07C0C9006F9E4F0EA2476CA
:10514800F582E43BF583E09006FAF0EA2477125101
:10515800F59006FB1251FF9006FCF0EA24791251F3
:10516800F59006FD1251FF9006FEF0EA247B1251DD
:10517800F59006FF1251FF900700F0EA247D1251C6
:10518800F59007011251FF900702F0EA2474F8E441
:105198003BF98A828B83A3A3A3A3A3E0FEA3E0FF2A
:1051A80088828983E02EF0A3E03F12589990070384
:1051B8001251FF9007041252E060177508F975093B
:1051C800067808121DF57903120BD37402121B8896
:1051D8007C10125526ECFE1252B3DEFB75E1957970
:1051E80004120D2F79018002790002551BF8E43B67
:1051F800F988828983E02212589EA3E02274F6126D
:105208001BE21252BC6004780480027800E8240A89
:10521800F8ECC39850030252AE7E089006F9740168
:10522800F07CBD7D0678FA79067F051252CAA882FD
:10523800A983DFF7EA2480FCE43BFD8A828B83A301
:10524800A3A3A3A3E0F508A3E0F5098C828D83E06E
:105258002508F0A3E03509F01252CA08A9838C8208
:105268008D83E0888289831252E060197508F97588
:1052780009067808121DF57C087903120BD374020D
:10528800121B887E0C74012EF5D975D9037582F925
:10529800758306EEFF1252B3DFFB75E195790412B0
:1052A8000D2F79018002790002551B1252B722E0B6
:1052B800F5D9A3229061D0E0F87480C398FC12520B
:1052C800E5221252CE228C828D83E0888289831255
:1052D80060DE88828983A322F01252E522EA2482C2
:1052E800F582E43BF583E02274F7121BE2EAFEEB59
:1052F800FF9061D0E0706875D91875D90375D90326
:10530800EE249B12539212538B7003E9658370F657
:10531800EE24A312538024A4125380249312539290
:1053280012538B7003E9658370F6EE248712536C71
:1053380012538B7003E9658370F675E1957908EE71
:105348002493FAE43FFB120B737904EE2487FAE402
:105358003FFB120B737904120D2F1254A0800279AF
:10536800000257541253772404F8E43583F922F5E0
:1053780082E43FF583E58222F582E43FF583E0F598
:10538800D9EE221252B7E86582221253772408F820
:10539800E43583F92274F6121BE2EAFEEBFF90066D
:1053A800F97406125449121DF57C017903120BD3C6
:1053B8007402121B8875D90675D9037582F975832D
:1053C800061254417004E583640670F575E1959002
:1053D8000369E064087010EE246FF582E43F12530D
:1053E800F4EE2471125EAF790102551BF583126049
:1053F800AD2274F6121BE2EAFEEBFF9061D0E0707A
:10540800339006F9740A125449121DF57C01790388
:10541800120BD37402121B8875D90675D9037582CD
:10542800F97583061254417004E583640670F51219
:10543800549D8002790002551B1252B7E58264FE22
:1054480022F07508F975090678082274F6121BE22D
:10545800EAFEEBFF9061D0E0703678019006F974AF
:105468000BF0900369E0640770197508F97509066F
:105478007808121DF57C017903120BD37402121BF4
:105488008878051256E81252B3DAFB12549D80024E
:10549800790002551B75E195EE246F1260A7EE2482
:1054A80071F582E43FF583E8F0A3E9F0790122740D
:1054B800F6121BE21255E96004780480027800E8CD
:1054C800240BF8EAC39840447C099006F974081242
:1054D8005535125544DDFB125F1D601B7508F975C3
:1054E80009067808121DF57903EEFAEFFB120BD3C3
:1054F8007402121B887C0D1255201255E170FB7541
:10550800E1957904120D2F1254A0800279008003CE
:10551800121B887F02021CB41255268C08227401C3
:105528002CF5D975D9037582F975830622F0EE2416
:10553800E4F8E43FF97AFA7B067D082288828983B9
:10554800E08A828B8312589EA3A882A9838A828BC1
:1055580083A3AA82AB832274F6121BE21255E96078
:1055680004780480027800E82408F8EAC3984064C4
:1055780078069006F9740CF0900386E09006FAF02D
:10558800900387E09006FBF0900388E09006FCF01B
:10559800900389E09006FDF090038AE09006FE12E1
:1055A8005678601B7508F97509067808121DF57C90
:1055B800067903EEFA120BD37402121B88780A12CA
:1055C80056721255E170FB75E1957904120D2F1290
:1055D80054A08002790002551B1252B71508E5083D
:1055E80022EAFEEBFF9061D0E0F87480C398FA12CB
:1055F800567D2274F6121BE21255E9600478048085
:10560800027800E82404F8EAC39840597802900622
:10561800F9E8F0EE24F6125F209006FA1256786048
:105628001B7508F97509067808121DF57C027903BF
:10563800EEFA120BD37402121B88780612567212F5
:1056480055E170FB75E195EE247312588AEE247FBC
:1056580012588A125887A3F07904120D2FEE240DE0
:105668001254A38002790002551B1256EE880822B4
:10567800F012567D22EE2482F582E43FF583E02283
:1056880074F6121BE21252BC60047804800278009F
:10569800E82404F8ECC398404278029006F97407AD
:1056A800F0EA24F7F582E43BF583E09006FA12521B
:1056B800E060197508F97509067808121DF57C026D
:1056C8007903120BD37402121B8878061256E8125B
:1056D80052B3DAFB75E19579018002790002551B16
:1056E8001256EEE8FA22740128F5D975D9037582A5
:1056F800F97583062274F7121BE2E9FFA2AFE433BF
:10570800FEC2AF7C0080010C1257A55010ECF8EADD
:1057180028F8E43BF9125E0B6F70EC8016EA246EF1
:10572800F8E43BF9E0FCEA2CFAE43BFB125742EFC1
:10573800125893EEA2E092AF8012EA246AF582E44E
:105748003BF58322F0EEA2E092AF79007F01021CC4
:10575800B4C082C083A2AFE433FDC2AF1257AD1408
:10576800F07C00801DECF8EA28F8E43BF9E8246BAB
:10577800125E0EC0E0E8246AF582E439F583D0E0D1
:10578800F00C1257A540DEEA246DF582E43BF58360
:1057980074FF1257D2EDA2E092AF024D211257AD1D
:1057A800F8ECC39822EA246EF582E43BF583E02204
:1057B800C082C083A8A8C2AF125742E91257D2E8E4
:1057C800A2E7E433FAE8A2E780CEF0EA2469F5829A
:1057D800E43BF583E4F02274F3121BE2EAFEEBFFEC
:1057E800ECFAEDFB8A828B83A3A3A3A3E0541FF0FA
:1057F800EE243612588A750A00EE245DFCE43FFD5B
:105808008A828B83E08C828D83F0750B00E50A33E6
:10581800333354F8F50C8A828B83E0F50875090058
:10582800E50B7808121B40E508A2E05027EE243665
:10583800F8E43FF988828983E0F508EE2508F50841
:10584800E43FF509E5082438F582E43509F583E5F0
:105858000C125893050B050CE50BC3940840B705CB
:105868000A8A828B83A3AA82AB838C828D83A3ACA2
:1058780082AD83E50AC3940540867F05021CB4EE19
:10588800241DF582E43FF583E4F02212589904F0D0
:105898002212589EE022F0888289832274F7121B14
:1058A800E2900395E064037003025A3C7C00758221
:1058B8009B758303E06003025A26ECF875F00CA48C
:1058C800C8AAF02AF9749928FA740339FB8A828BDA
:1058D80083A3A37401125A5EE4F0EC8A828B83A33B
:1058E800A3A3A3F01260287401F0EA2467F582E408
:1058F8003BF5837401125A58E4F0A3125A58A3A333
:10590800125A6E240FF582E43BF5837401F0EA2401
:1059180035125A432418125A73241C125A43241D50
:10592800125A67247F125A432473125A432468F583
:1059380082E43BF58374801257D2EA246E125A43EC
:1059480024EC125A4324ED125A4324EE125A4324EB
:10595800EF125A4324F0125A6724F2125A6724F5B8
:10596800125A432482125A4324D2125A4324D3127D
:105978005A4324D4125A7324D8125A7324DE125A62
:105988004324E0125A4324DC125A4324E1125A43B6
:1059980024E2125A4324F8125A6724FA125A672446
:1059A800FC125A6724FE125A67240B125A4D24051A
:1059B800125A4D2406125A4D2407125A4D24081221
:1059C8005A4D2409125A4D240A125A4D125743743B
:1059D800FF7804F0A3D8FCEA245DF8E43BF97CBD29
:1059E8007D06125A8764C27003ED640670F4EA24D7
:1059F800E4F8E43BF97C7D7D03125A8764857003E3
:105A0800ED640370F4900395E004F0640170298A52
:105A1800828B83A3A3A3A3E0900397F0801A0CE5DD
:105A280082240CF582E5833401F583ECC39403509A
:105A3800030258BC7A007B00025754F582E43BF518
:105A480083E4F0EA22F582EB3401F583E4F0EA22FC
:105A5800125A5EA3A322F08A828B83A3A3A322F502
:105A680082E43BF583E4F0A3F0EA22F582E43BF517
:105A780083125A7EEA22E4F0A3F0A3F0A3F02212E4
:105A880052CEA882A983EC22C082C0838A828B83EB
:105A9800A3A3A3E0600F8A828B83A3A3A3E4F0905F
:105AA8000396E014F0900395E014F07006900397C5
:105AB80074FFF08A828B83A3A3E4F09006C2E0709F
:105AC8000D900396E0640170057900120CF9024DFF
:105AD80021C082C083789B790388828983A3E412DA
:105AE800589EF0125CDCE864BF7003E9640670E954
:105AF800900395E4F0A3F0A374FFF075E1F1024D73
:105B08002174F5121BE2750800750900750A007EFC
:105B1800997F038E828F83A3A3A3E0602BE50845BA
:105B280009601D850882850983125B76121E08129A
