:020000040000FA
:060000000201070223A526
:03002B0002260E9C
:03003B0002262F6B
:030043000225CBC8
:0300530002241B69
:03007B000225F16A
:100083000221FBE5C754F84401F5C77901220000BA
:100093000080FB120086B900030200F1E4792378A3
:1000A30002B800028004F709D8FCE479257802B885
:1000B30000028004F709D8FCE49001417859791CC7
:1000C3008002F0A3D8FCD9FA7A997B1C9001377887
:1000D3003B79028015E493A3AD82AE838A828B833E
:1000E300F0A3AA82AB838D828E83D8E9D9E7758288
:1000F300967583A97404120119758291758300742E
:100103000012011975D00075813F752141752201D7
:10011300759F00020096C09FF59FE473D09F22D085
:1001230083D082C09FE493C0E0740193C0E0740263
:1001330093F59F221504210457045104FF0000B4D2
:10014300000028002800283075A000A000A000A00F
:100153000000080008E001F000100010001000107B
:10016300001000100050005000500010001000D08C
:10017300070000000000000F0001000500307507B4
:10018300001000010081FF00000000FFFFFF0202DA
:10019300027FA001000070A00285A0010000F31CF3
:1001A3000275A001000078010285A0010000F41C83
:1001B3000273A00100008E01FFFF0100FF20027FF8
:1001C300A00100006DA00285A0010000221D02799C
:1001D300A000000000000277A0030000BA0117008E
:1001E300550C550C550C550C550C550C550C550C04
:1001F300550C550C550C550C550C350E530E2F0E36
:10020300FFFFFF01FEFF11223344556668C90B044B
:100213000101638253634433221145332211000EDB
:10022300C64455660044FFFFFFFFFFFFFFFFFFFFCC
:1002330000430220000405B46D1B01E80305771099
:10024300020A01C0A8019E000EC6445566045EFF63
:10025300FFFF00C0A8010172375EF4FFFFFFFFFF3D
:10026300FF22600220000405B4016D1BFF00120190
:1002730022F696041201220997041201222A9704F6
:10028300120122959704120122D69704120122F734
:10029300970412012218980412012259980412019A
:1002A30022F19804120122399904120122048B04C9
:1002B300120122178B04120122488B04120122829D
:1002C3008B04120122DB8B04120122228C04120103
:1002D300226A8C04120122998C04120122C88C0414
:1002E300120122FF8C04120122468D041201225FA7
:1002F3008D04120122B48D04120122E28D04120135
:10030300221C8E0412012233EE0212012236EF0266
:1003130012012263EF02120122B4EF02120122D76B
:10032300EF02120122E9EF02120122ECEF021201A5
:10033300222AF0021201229EF0021201220AF10285
:10034300120122D2F102120122EEF1021201222540
:10035300F2021201225FF202120122F6F2021201EC
:100363002248F30212012279F3021201227CF302E2
:10037300120122ADF302120122BAF302120122D2B8
:10038300F3021201223CF4021201223FF402120191
:10039300224CF4021201224FF402120122A6F402AB
:1003A300120122B7F402120122F0F402120122F325
:1003B300F40212012227F5021201222AF502120188
:1003C300227EF502120122C7F502120122D7F5029D
:1003D3001201220AF60212012217F6021201221A50
:1003E300F60212012282F60212012284F70212019E
:1003F3002228F80212012291F802120122CFF802F8
:10040300120122A99D03120122A19E03120122D5EA
:100413009E031201226B9F03120122B69F03120156
:10042300221AA003120122A4A0031201225DA10338
:100433001201227FA403120122FCA5031201221F31
:10044300A60312012203ED03120122A8EE031201F7
:1004530022C8EE03120122E9EF031201223CF0034A
:1004630012012267F5031201228FF503120122BC48
:10047300F503120122F4F50312012252F6031201CD
:10048300229EF60312012205F70312012245F70308
:1004930012012282F703120122B0F7031201225A3A
:1004A300F80312012264F80312012271F803120106
:1004B30022A4F803120122B0F803120122C8F803A0
:1004C300120122D2F8031201221BFF021201222978
:1004D300FF0212012241FF0212012259FF021201FF
:1004E3002270FF02120122359202120122DF9202D0
:1004F3001201225B9302120122799402120122B5A6
:100503009402120122509502120122349602120122
:1005130022F796021201226F9702120122FD98021E
:100523001201226E9902120122289A021201221A42
:100533009B021201225A9B021201220E9C021201FB
:1005430022409C02120122369E02120122789E0250
:10055300120122969E021201221B9F02120122DF28
:100563009F02120122FEA102120122008004120145
:1005730022168004120122348004120122458104D0
:100583001201224F81041201227A82041201227184
:100593008304120122DE8304120122EDDA03120125
:1005A3002291DB03120122C8DB0312012212DC03B6
:1005B300120122D1DD03120122D1B80112012282DC
:1005C300B9011201229EB90112012267BA01120177
:1005D3002271BA011201228BBA0112012296BA01C9
:1005E3001201226CBB0112012249BC01120122A695
:1005F300BC0112012236BD01120122EDBD0112011F
:1006030022FBC001120122EAC2011201229CC30192
:1006130012012265C401120122AAC7011201225448
:10062300C8011201227DC90112012239CB01120135
:1006330022D9CB0112012227CC0112012266CC015F
:1006430012012239CD011201226DCD01120122FACC
:10065300CD011201220080021201228C80021201BC
:1006630022F08102120122FC81021201223782024E
:10067300120122A68202120122AF8302120122B8C2
:1006830084021201227F8502120122DC86021201FA
:1006930022FA8602120122178702120122E287023E
:1006A3001201220A8802120122D48A02120122D9DB
:1006B3008A02120122F28C02120122408D021201DF
:1006C30022B08D02120122EE8D02120122CA8E0285
:1006D3001201228A8F02120122D68F02120122D91D
:1006E3008F021201221D9002120122659002120153
:1006F30022A49002120122C69002120122FA900251
:100703001201225D91021201227DCC031201228685
:10071300CC0312012294CC03120122E7CC03120171
:100723002206CD031201224BCD031201228FCE03E9
:100733001201222ACF031201226ECF031201229843
:10074300CF0312012207D0031201224DD00312015D
:1007530022C4D00312012275D103120122F34700F0
:10076300120122034800120122A4480012012200B0
:100773004900120122BD4900120122D94A00120187
:10078300220B4B001201223A4B00120122E74C00CC
:100793001201225E4F00120122CE5100120122C02B
:1007A3005200120122B95300120122C05500120156
:1007B30022B45800120122E35900120122E75B0020
:1007C300120122F75C00120122865E0012012277D9
:1007D3005F00120122C55F00120122346000120182
:1007E30022586000120122A960001201224A65000A
:1007F3001201224B6600120122AC6600120122D7BD
:1008030066001201229D670012012260F9031201A2
:10081300226AF903120122AFF903120122C3F90379
:1008230012012253FA031201227BFA03120122B6A8
:10083300FA03120122DFFA0312012213FB0312014E
:100843002228FB0312012293FB03120122B4FB03B0
:10085300120122C8FB03120122DDFB03120122173E
:10086300FC031201227CFC03120122BFFC031201D0
:1008730022E9FC0312012225FD031201229BA2049B
:100883001201225AD8021201223DD902120122B8C2
:10089300D902120122F3D90212012244DB0212010E
:1008A30022CDDB02120122E5DD0212012277E002F2
:1008B30012012229E10212012248E202120122A1BD
:1008C300E20212012247C2031201228AC203120169
:1008D300220EC303120122E1C303120122B8C6038D
:1008E3001201224DFD03120122FAFD031201220718
:1008F300FF0312012246FF03120122A0FF0312018C
:10090300222D9F04120122909F041201222DA00484
:100913001201225BA0041201227CA004120122B75F
:10092300A004120122D7A00412012287D1031201CD
:100933002213D203120122D2D203120122EAD303D9
:1009430012012204D603120122588A031201227DC6
:100953008A03120122518B03120122BE8B0312015F
:1009630022148C03120122B08C03120122E48D03A2
:10097300120122BF8E031201221E8F03120122EFE6
:100983008F031201227B90031201227E9003120136
:1009930022C890031201223A9103120122E5910326
:1009A3001201220592031201224D920312012269C0
:1009B3009203120122E39203120122F19203120124
:1009C30022809303120122E9930312012288DF0399
:1009D3001201220DE0031201224FE0031201223320
:1009E300E103120122A0E103120122E4E103120157
:1009F3002228E20312012255E2031201227DE203BF
:100A0300120122B5E203120122F3E2031201221AB8
:100A1300E30312012294E303120122DEE303120132
:100A230022096800120122D66900120122C46B0058
:100A3300120122186C00120122436C00120122F1F0
:100A43006C00120122216D00120122506D0012016F
:100A530022636D00120122A46D00120122D06D00E9
:100A63001201221E6E00120122556E00120122A1F4
:100A73006E00120122006F00120122936F00120117
:100A8300227D70001201226C710012012217730083
:100A93001201223678001201228F78001201227887
:100AA3007A00120122477C00120122C97C00120144
:100AB30022177E00120122287E001201228594044F
:100AC300120122709504120122B39504120122022D
:100AD3009604120122539604120122A496041201D1
:100AE300228AA0011201220BA10112012238A101C5
:100AF30012012281A10112012282A201120122D13B
:100B0300A2011201224DA401120122CFA40112015C
:100B1300222CA5011201227FA5011201226EA6013A
:100B230012012203A801120122CDA801120122DD24
:100B3300A80112012207A9011201220AA901120127
:100B430022EDA901120122D8AA0112012285AB01CB
:100B5300120122E2AB011201223BAC011201229FDE
:100B6300AC0112012247AD01120122E3AD011201D2
:100B73002270AE01120122E5AE0112012241AF0142
:100B8300120122A0AF01120122C7AF011201228C70
:100B9300B00112012278B201120122C1B201120185
:100BA30022F1B20112012264B301120122EAB4015B
:100BB3001201229AB501120122BFB501120122FED0
:100BC300B50112012213B60112012256B601120118
:100BD30022C6B60112012210B7011201221AB8016E
:100BE3001201229BB8011201220C94031201225715
:100BF3009403120122639403120122379503120115
:100C0300224E95031201228B9503120122BC9503F8
:100C1300120122F495031201224A96031201226063
:100C230096031201229C9603120122AF960312012E
:100C330022D696031201220A970312012230980347
:100C43001201227A9903120122769A031201228C4D
:100C53009B031201229D26001201221ABD031201D9
:100C630022C8C003120122FCC10312012275CC0267
:100C73001201222ECF0212012234CF02120122E5E9
:100C8300D1021201223FD4021201223BD6031201E8
:100C930022D2D60312012290D703120122BAD7031C
:100CA300120122F0D903120122F0CE011201222BEC
:100CB300CF011201227FD901120122EBDA011201C5
:100CC30022E8DB011201226DDF0112012262E00141
:100CD300120122AEE001120122C8E0011201220931
:100CE300E10112012212E101120122C4E101120108
:100CF3002294E201120122DBE20112012241E3010B
:100D0300120122B3E301120122848E041201226133
:100D13008F04120122A58F04120122DF8F04120116
:100D230022779004120122E69004120122EF90042C
:100D3300120122FB90041201221591041201223F99
:100D430091041201226F9104120122F5F80212019B
:100D53002202F9021201221CF9021201224FF902A6
:100D63001201228DF902120122F2F9021201220765
:100D7300FA021201221EFA021201222CFA021201B5
:100D8300223BFA0212012250FA0212012265FA02F0
:100D930012012270FA021201227CFA021201228944
:100DA300FA0212012298FA02120122A3FA02120194
:100DB30022C8FA021201226CFB0212012281FB02F9
:100DC30012012296FB02120122B0FB02120122CD74
:100DD300FB02120122EAFB02120122F5FB021201BD
:100DE30022A1FC0212012282FD02120122A7FD02AE
:100DF300120122B2FD02120122C7FD02120122DBFF
:100E0300FD021201223CFE0212012242FE021201E5
:100E13002248FE021201224EFE0212012266FE0247
:100E230012012299FE0212012200800312012222E2
:100E33008003120122EA8003120122A48303120118
:100E430022BA8403120122DB8503120122B5860331
:100E5300120122648703120122F2BE0212012289C7
:100E6300BF0212012221C00212012211C10212018A
:100E73002248C1021201225BC102120122C9C1022E
:100E830012012264C3021201228BC3021201222D1A
:100E9300C40212012262C40212012273C4021201AB
:100EA30022ECC4021201220DC50212012225C50241
:100EB3001201227DC60212012286C802120122D625
:100EC300CA02120122D9CB0212012228CC0212013A
:100ED300220BA20212012208A302120122F3A3028F
:100EE300120122FDA3021201221FA4021201222BCE
:100EF300A4021201227DA502120122ACA502120155
:100F030022DCA6021201221EA7021201224AA80213
:100F130012012220A90212012272A902120122D176
:100F2300A90212012208AA0212012243AA021201F3
:100F330022DEAD02120122F7AD0212012279AE02C6
:100F430012012287AE02120122DCAE02120122EA52
:100F5300AE0212012257AF02120122C9AF021201DF
:100F6300220FB002120122E5A0041201220AA104F9
:100F73001201227BA10412012272AF031201227B10
:100F8300AF0312012284AF03120122B5B003120191
:100F930022D4B2031201220AB30312012244B3037F
:100FA3001201227AB303120122B4B303120122E81D
:100FB300B30312012214B4031201225DB40312011C
:100FC3002297B403120122DFB40312012235B503C1
:100FD3001201226AB503120122C5B503120122FFD1
:100FE300B50312012250B60312012286B603120181
:100FF30022C0B603120122E3B6031201225FA50445
:101003001201228BA504120122E6A504120122F08B
:10101300A50412012200A60412012288FA0112017A
:101023002292FA01120122D0FA0112012219FB01C4
:1010330012012253FB01120122ADFB01120122CE48
:10104300FB01120122D7FB0112012228FC0112012C
:101053002251FC0112012266FC01120122D7FC017C
:1010630012012265FD01120122A2FD01120122D209
:10107300FD0112012256FE0112012296FE01120108
:1010830022CEFE01120122E0FE01120122FFFE0127
:1010930012012208FF01120122C2FF011201226A7A
:1010A300C7031201225FC80312012279C803120188
:1010B300228AC803120122BFCA03120122DECA0315
:1010C3001201229D9104120122E1910412012217BF
:1010D3009204120122FF9304120122599404120173
:1010E300226294041201226B940412012264A80464
:1010F3001201227AA80412012284A80412012249AF
:10110300F10312012262F10312012206F20312011A
:101113002246F2031201225FF20312012293F20329
:10112300120122E0F20312012214F30312012256E8
:10113300F3031201225AF503120122DAA804120161
:10114300220AA60412012233A6041201225CA60479
:1011530012012274A6041201226B9B04120122873E
:101163009B04120122049C04120122209C041201FC
:1011730022839C04120122249D0412012271B703CD
:10118300120122B0B70312012239B8031201224E11
:10119300B80312012299B803120122D8B80312012D
:1011A30022E7B8031201229CB903120122F5B90305
:1011B30012012244BA0312012297BA03120122AC8C
:1011C300BB03120122A5BC03120122E2BC031201DC
:1011D30022A826001201228A2800120122B62B001F
:1011E300120122922C00120122722D0012012246BA
:1011F3003000120122853000120122BD300012019D
:1012030022D930001201226A3100120122AF3100CB
:10121300120122C63100120122D134001201220927
:1012230035001201220C350012012234380012015C
:1012330022E438001201222B3900120122613A0004
:10124300120122B23B00120122083E001201225E6B
:101253003F001201221C4000120122A04100120192
:1012630022994200120122AA440012012280460060
:10127300120122C64600120122FA46001201227E02
:10128300470012012298B00212012251B102120149
:1012930022D0B1021201226DB50212012291B502D0
:1012A30012012237B70212012247BB021201229810
:1012B300BB02120122EDBB0212012252BC02120137
:1012C3002264BC0212012231BD0212012263BD025B
:1012D30012012293BD02120122BFBD02120122E7B5
:1012E300BD0212012239A904120122FFE4011201F5
:1012F3002275E701120122EDE8011201224EE901F4
:10130300120122EDE901120122DFEA011201226436
:10131300EB01120122E0EB0112012205EC011201A3
:1013230022CEEE0112012242EF011201222EF00120
:1013330012012268F001120122A8F00112012262B7
:10134300F20112012293F201120122E6F2011201CB
:10135300222FF3011201229DF301120122CFF30187
:10136300120122E7F301120122FCF4011201220C03
:10137300F50112012271F60112012291F601120107
:1013830022C7F60112012274F801120122F4F801B6
:1013930012012233F9011201225AFA0112012251D8
:1013A3009D04120122AE9D04120122719E041201BA
:1013B30022909E04120122E69E04120122EBFF03F7
:1013C300120122E9A90412012228AA04120122EC23
:1013D300FF01120122B0A604120122C0A6041201C9
:1013E30022D8A60412012240A704120122AFA304AB
:1013F30012012234A4041201229AA404120122D954
:10140300A704120122E1A70412012216A804120163
:1014130022B3A404120122D4A404120122E7A404D7
:10142300120122F9A40412012226A5041201229A10
:10143300E803120122AEE80312012227E903120195
:101443002200EA03120122BEEC03120122E8830404
:10145300120122788404120122F684041201227FED
:1014630085041201222D8604120122B7860412017B
:1014730022C88604120122D78604120122ED8604B3
:1014830012012200870412012260870412012274D0
:1014930087041201224AE3021201229AE302120193
:1014A30022FBE30212012243E40212012281E4023D
:1014B300120122B0E402120122DFE4021201227AB5
:1014C300E5021201226FE702120122C4E7021201B0
:1014D30022CFE80212012263EA0212012283EB0205
:1014E3001201226BEC02120122C7EC0212012272DA
:1014F300ED0212012283ED02120122FDED0212011F
:10150300221EE403120122A5E403120122F1E403E3
:10151300120122B4E503120122E3E50312012214AE
:10152300E603120122DDE7031201227EE803120122
:10153300224AA704120122B3A704120122BEA70460
:10154300120122CEA7041201224B7E00120122A017
:101553007E001201220E7F001201227E7F00120103
:1015630022778704120122A187041201229B880497
:10157300120122C08804120122578904120122D9C0
:10158300890412012242A703120122FFA7031201B9
:10159300223AA80312012262A803120122C4A8035B
:1015A30012012210A90312012269A903120122FACE
:1015B300A903120122FCAA03120122B9AC031201EE
:1015C300223BAD03120122A0AD03120122B7AD03EA
:1015D300120122C7AE0312012205AF0312012264D6
:1015E30099041201228D9904120122D19904120146
:1015F30022419A04120122379B04120122419B04C7
:101603001201224B9B04120122569B0412012260F9
:101613009B04120122D27F0012012232AA04E06647
:10162300701008A3E066700A08A3E066700408A3BC
:10163300E06622C3E7960809E7960809E7960809D2
:10164300E79622C3E09608A3E09608A3E09608A3D2
:10165300E09622C008C3E096F50808A3E096420886
:1016630008A3E096420808A3E09645087001D3D08A
:101673000822080808EAC0E0EBC0E086F0E7A4FA15
:10168300180986F0E7A42AFA180986F0E7A42AFACB
:10169300180986F0E7A42AFA1986F0E7A4FBE5F017
:1016A3002AFA190886F0E7A42BFBE5F03AFA1908A1
:1016B30086F0E7A42BFBE5F03AFA18180986F0E761
:1016C300A4C5F02BFBE43AFA1908E7C5F0C6A42633
:1016D300F6E5F03BFBE43AFA1886F0E7A4F6E5F00A
:1016E3000826F6E43B08F6E43A08F6D0E0FBD0E03F
:1016F300FA22E4CFC0E0E4CEC0E0E4CDC0E0E4CC25
:10170300C0E075F020E626F608E633F608E633F681
:1017130008E633F6181818EC33FCED33FDEE33FE10
:10172300EF33FFC3EC9709ED9709EE9709EF97198C
:101733001919400FFFEC97FC09ED97FD09EE97FE91
:10174300191906D5F0BFECF709EDF709EEF709EF24
:10175300F7191919D0E0FCD0E0FDD0E0FED0E0FF8E
:10176300226016080808C6C313C618C613C618C6CF
:1017730013C618C613C6D5E0EA2270090808082262
:101783006016181818C6C333C608C633C608C6334E
:10179300C608C633C6D5E0EA22E627F60809E637C7
:1017A300F60809E637F60809E637F622E026F608D2
:1017B300A3E036F608A3E036F608A3E036F622E007
:1017C30026F008A3E036F008A3E036F008A3E036DD
:1017D300F022C3E697F60809E697F60809E697F6B6
:1017E3000809E697F622C3E096F008A3E096F0080E
:1017F300A3E096F008A3E096F022E657F60809E680
:1018030057F60809E657F60809E657F622E056F6B2
:1018130008A3E056F608A3E056F608A3E056F6221E
:10182300E056F008A3E056F008A3E056F008A3E062
:1018330056F022E066F608A3E066F608A3E066F633
:1018430008A3E066F622E0F608A3E0F608A3E0F6B4
:1018530008A3E0F622E6F008A3E6F008A3E6F00802
:10186300A3E6F022E0FAA3E0FBA3E0FCA3E0FD2261
:10187300EAF0A3EBF0A3ECF0A3EDF022E0F8A3E091
:10188300F9A3E0FAA3E0FB22E8F0A3E9F0A3EAF06E
:10189300A3EBF022CAC0E0E6F0A308DAFAD0E0FA3C
:1018A30022CAC0E0E0A3C582CCC582C583CDC5836F
:1018B300F0A3C582CCC582C583CDC583DAE6D0E06B
:1018C300CA22C3E498F8E499F91219068026C3E4FE
:1018D3009AFAE49BFBE920E7E9121906E498F8E495
:1018E30099F922C3E498F8E499F9121906E498F8EF
:1018F300E499F9C3E49AFAE49BFB22EB20E7CFE9EE
:1019030020E7E0B90010BB0008E88AF084F8AAF0E9
:1019130022E4FBC8FA22EB70227B10C833C8C93318
:10192300C9335007C39AC3DBF280069A50012ADBFE
:10193300EAC833F4C8C933F4C9FA2275F008E4C815
:1019430033C8C933C933C99AC99B5004C92AC93B8F
:10195300D5F0ECFBC833F4C8E4C9FA22600D08C61D
:10196300A2E713C618C613C6D5E0F322600C08C657
:10197300C313C618C613C6D5E0F422700422600D43
:1019830018C6C333C608C633C6D5E0F418222521CA
:1019930010AF08F521400C15228008F521400215EF
:1019A30022D2AF2200C0D0252110AF08F521500C60
:1019B30005228008F52150020522D2AFD0D022257E
:1019C30021F58210AF08F521400C15228008F5217E
:1019D30040021522D2AF852283222521F582E435E8
:1019E30022F583222521F8E43522F9222521FAE480
:1019F3003522FB222521FCE43522FD22E473252137
:101A0300C582C0E0E52234FFC583C0E0E521C3956C
:101A13008224F810AF08858322858221800885837C
:101A230022858221D2AFCEF0A3E520F0A37808E689
:101A330008F0A3DEFAEFF0A3E58124FAF8E608F054
:101A4300A3E608F0A3E608F0A30808E608F0A3E677
:101A530008F0A315811581D0E0FED0E0F8158115BB
:101A6300811581E8C0E0EEC0E0222521C582C0E0F7
:101A7300E52234FFC583C0E0E521C3958224F91034
:101A8300AF08858322858221800885832285822170
:101A9300D2AFCEF0A3E520F0A37808E608F0A3DEEA
:101AA300FAEFF0A3E58124FBF8E608F0A3E608F0DB
:101AB300A30808E608F0A3E608F0A315811581D072
:101AC300E0FED0E0F815811581E8C0E0EEC0E02229
:101AD300852283852182E0A3FEE0A3F5207808E038
:101AE300A3F608DFFAE0A3FFE0A3C0E0E0A3C0E0B1
:101AF300E0A3C0E0E0A3C0E0E0A3C0E010AF08852E
:101B030082218583228008858221858322D2AFD0DA
:101B130083D08202011F852283852182E0A3FEE018
:101B2300A3F5207808E0A3F608DFFAE0A3FFE0A31B
:101B3300C0E0E0A3C0E0E0A3C0E0E0A3C0E010AFDA
:101B4300088582218583228008858221858322D28C
:101B5300AFD083D08222C0D02521C582C0E0E52248
:101B630034FFC583C0E0E521C3958224F310AF0899
:101B73008583228582218008858322858221D2AFB5
:101B8300C8F0A3E9F0A3EAF0A3EBF0A37908E7090F
:101B9300F0A3D8FAECF0A3EDF0A3EEF0A3EFF0A3DB
:101BA300D0E0F0A3D0E0F0A3D0E0F0A3E520F0A3D1
:101BB300E5F0F0A322852283852182E0C0E0A3E043
:101BC300F9A3E0FAA3E0FBA37808E0F608A3DFFAA1
:101BD300E0FCA3E0FDA3E0FEA3E0FFA3E0C0E0A3DD
:101BE300E0C0E0A3E0F5D0A3E0F520A3E0A3F5F087
:101BF30010AF088583228582218008858322858210
:101C030021D2AFD082D083D0E0F8D0E03274048008
:101C130006740280027401C0E0F4041219C2D0E019
:101C2300121897227404800474028000CCC0E0ED83
:101C3300C0E0E521C39CCCAD2250011D10AF068C42
:101C4300218D2280068C218D22D2AF1218A4D0E0E0
:101C5300FDD0E0FC22D083D082E9C0E0E493A3C3AB
:101C630086F0C5F095F0F908E493A386F0C5F095E6
:101C7300F0700BE493A3C3994005E9048002A3E445
:101C830075F002A42582F582E5F03583F583D0E073
:101C9300F9E493A3C0E0E493C0E022D083D082ECC4
:101CA300C0E0EDC0E0E493A3FCE493A3FDED4C603E
:101CB3000D121CEAEC24FFFCED34FFFD80EFE493EE
:101CC300A3FCE493A3FDED4C600D121D29EC24FF4E
:101CD300FCED34FFFD80EFD0E0FDD0E0FCE493A306
:101CE300C0E0E493C0E022C0E0C3E493960874012B
:101CF300939618400FE4936670080874019366186E
:101D030070007019A3A3C3E4939608740193961803
:101D1300A3A3400DD0E0D0E0D0E0021CDAA3A3A33C
:101D2300A3A3A3D0E022C0E0C0F088F0E4936670E0
:101D3300080874019366187000A8F0A3A3700BD071
:101D4300F0D0E0D0E0D0E0021CDAA3A3D0F0D0E0E2
:101D53002274F6121A6DEAFEEBFF8C088D09EE244D
:101D630034F8E43FF9E8FCE9FDEE2435122049FAA2
:101D7300EE2437122049F88508F0A4C885F00A85B7
:101D830009F0A4250AF9EA28F8E439F97A257B0051
:101D9300121906EA8C828D83F0FA131313541FF879
:101DA300EE28F8E43FF9E8245DF582E439F583E0B1
:101DB300C0E074075AF8D0E0B800028004C313D817
:101DC300FCA2E0EE50082434F582E43F8018243668
:101DD300122049F5F0EA84A8F0EE28F8E43FF9E888
:101DE3002438F582E439F583E0F97F03021B197483
:101DF300F7121A6DEAFEEBFFEE2434122049C0E01D
:101E0300EE2435F582E43FF583D0E0F08E828F83B4
:101E1300A3A3A3A3A3A3A3C082C0838E828F83A300
:101E2300A3A3A3A3121EBAD083D082E0C398F5085C
:101E3300A3E099F509EE247F1220496401705DEE59
:101E43002480121EB48E828F83A3A3A3A3A3A3A370
:101E53001221EC8E828F83A3A3A3A3A3E0FAA3E0B2
:101E6300FBC3EA9CEB9D5010C3EC98ED99402DC346
:101E7300EA98EB995026800EC3EA98EB994007C382
:101E8300EC98ED9940167C7D7D05EEFAEFFB120B85
:101E930089EE247FF582E43FF583E4F0AC08AD09D5
:101EA300EEFAEFFB121D54E9F91225B77F02021B6C
:101EB30019F582E43FF583E0F8A3E0F92274EF1209
:101EC3001A6D900229E064086005E06407702A90A7
:101ED30061C8E06024900257E0F4601DE0F875F0FB
:101EE3000CA4C8AAF02AF9745928FE740239FF8E8B
:101EF300828F83A3A3A3E07003021FCE906060E0F0
:101F0300C0E0EE2468F582E43FF583D0E0F0750C81
:101F1300B9750D05750800750900E5D914F50AE5CD
:101F2300D95403F50E60127403650E6043E50A602D
:101F33000AEE2467122049700280759005B4E064AC
:101F430001601F12204660047A0480027A00E50AC9
:101F5300C39AFA95E0FB120A338A088B09EA45090A
:101F63007005120E0B806412204670048A0C8B0DD0
:101F7300E50A6012850C82850D83F50BE5D9F0A384
:101F8300150BE50B70F6122046604474FC250AF528
:101F93000A780C121C14AC0AA90EEEFAEFFB120C11
:101FA3004F74021219A7E97026AA08AB0912154F3C
:101FB300793D8E828F83A3A3A3A3E0FA7B0012084B
:101FC300ADEEFAEFFB120BAD120CAF7900806F741C
:101FD30003650E6051850A107511007810121C14E8
:101FE300AC0CAD0DAA08AB09120C1374021219A79D
:101FF300EE246812204964807004747F8001E0F548
:102003000C780C121C18E50EF50C780C121C18A990
:102013000AAC08AD09900257E0FA7B0012087D7400
:10202300021219A78013900229E06408700BAC0C0C
:10203300AD0DEEFAEFFB120C7F120E1779017F0A3A
:10204300021B19EE2482F582E43FF583E02274F249
:10205300121A6D74FC121991EAFEEBFF8909A2AF03
:10206300E433F508C2AF02210DE0601B780C121CAB
:1020730014AC0BA90EEEFAEFFB120C497402121901
:10208300A77404250BF50B7401250BF5D9850ED91F
:10209300E50B6018F50A850C82850D83E0F5D9A35D
:1020A30085820C85830D150AE50A70EA75E195EEC4
:1020B3002463F8E43FF97A007B00A2AFE433F50B25
:1020C300C2AF1221E8EC4D603288828983E0FAA323
:1020D300E0FB8A828B831221EC88828983ECF0A354
:1020E300EDF08A828B83E4F0A3F01221E8EC4D70CB
:1020F3000A88828983A3A3E4F0A3F0E50BA2E0920C
:10210300AF12154F900584E004F0EE2463121EB461
:10211300E8496064EE24631220492402F8A3E03402
:1021230000F988828983E5822402F50CE43583F57E
:102133000DE0F50BA3E0F50EEE24621220496401D5
:1021430070369061D0E0F812204660047C0480026F
:102153007C007480C398FA95E0FBE50B2CF8E4341B
:1021630000F9E82402F8500109C3EA98EB99A2D2D6
:1021730065D033400302206C900584E0604D9005E8
:1021830085E0F8900584E0C398500C7402650970EB
:102193003A900586E060348E828F83A3A3A3A3E0E5
:1021A3008521828522831221DE74021219DDE81251
:1021B30021DE900583E028F074021219F7AA21ABFF
:1021C3002279011208D7900584E4F0E508A2E09291
:1021D300AF74041219A77F07021B19F0A3E4F09050
:1021E3000584E0F82288828983E0FCA3E0FD2200D5
:1021F300008523878524C622C0E074EB121B59A2F5
:10220300AFE433F508C2AF759B00906182E0A2E0B2
:102213005030E591A2E0502A7591FE740165237058
:102223002112238E120D3F12237C121C271224F33A
:1022330074041219A7E9640170057901120D6F1274
:102243001EC0906182E0A2E5505DE591A2E5505782
:102253007591DF900229E064076005E06408702F40
:1022630012238E74016523703E120D3F12237C12DC
:102273001C271224F374041219A7E9640170057969
:1022830001120D6F7901EEFAEFFB1220518018E075
:10229300640D701390024BE004F064287002E4F0C4
:1022A3007A00E0F9120E1D906182E0A2E64003027B
:1022B3002351E591A2E640030223517591BF900299
:1022C30029E064057008120D27120D338003120DE7
:1022D3002D752300120D8DE990022AF07900120D5D
:1022E3006F120AF37A017B00900228E0F91210754D
:1022F300907803E0644270569005B8E014F0704E95
:10230300C2AF122308007826D0E0F618D0E0F6E535
:102313009F5407F87005750DFF8003750D7FC4C0CA
:10232300E07825E6F50A08E6550DF50B740B780AF7
:1023330012196FD0E0250AF8906270E0A2E740F826
:10234300E8C333906272F0906270E0D2E0F0906183
:1023530081E0A2E35009E5E9A2E3500375E9F7A39D
:10236300E0A2E75009E591A2E7500375917FE508E4
:10237300A2E092AF7F08021BB88E828F83E0F8A39E
:10238300E0C82416F582E438F58322900257E0F87A
:1023930075F00CA4C8AAF02AF9745928FE740239FE
:1023A300FF22C0E0C0D0C082C083906183E0A2E07E
:1023B3005009E5BFA2E0500375BFFEE0A2E150095A
:1023C300E5BFA2E1500375BFFDE0A2E25009E5BFFE
:1023D300A2E2500375BFFBE0A2E35009E5BFA2E30D
:1023E300500375BFF7E0A2E45009E5BFA2E4500330
:1023F30075BFEFE0A2E55009E5BFA2E5500375BF45
:10240300DFE0A2E65009E5BFA2E6500375BFBFD0E7
:1024130083D082D0D0D0E032C0E074F2121B59E5F1
:10242300A7A2E6500FE5A1A2E6500953A7BF75A1E5
:10243300BF12246FE5A7A2E5500CE5A1A2E5500663
:1024430053A7DF75A1DFE5A7A2E15009E5A1A2E14A
:10245300500375A1FDE5A7A2E2500CE5A1A2E2504D
:102463000653A7FB75A1FB7F01021BB874F7121A71
:102473006D752301900229E064067015120CD38A4E
:10248300828B83A3A3A3A3A3A3E0FAA3E0FB120D70
:1024930015A2AFE433FED2AF90022FE064017018AF
:1024A3007A207B00900228E0F91211237A207B0026
:1024B300900228E0F912107B906182E0D2E6F0905E
:1024C30005B5E0602185C624801690022EE06401E4
:1024D3007008E5C654F84405F5C653BEFC1221F452
:1024E3007401652360E4EEA2E092AF7F02021B1940
:1024F30074F1121A6D8A088B098C0A8D0B90A00552
:102503007808121810740F1219DD780C12184990FC
:10251300A005780C1218107808790C12163690A0C2
:102523003D50107808790C1217D5780812165640CA
:1025330014800E780C79081217D5780C12165650A1
:10254300047901800279007F08021B1974ED121AC5
:102553006D8A088B098C0A8D0B90A00578081218D8
:102563001074131219DD780C12184990A005780C19
:10257300121810780C790812163640117808790C65
:102583001217D5AA08AB09AC0AAD0B80227510004F
:102593007511007512007513017810790C1217D597
:1025A3007810790812179CAA10AB11AC12AD137FE7
:1025B3000C021B19C082C083E9906000F0D083D065
:1025C3008222C2AF02000022C0E074F2121B59A2A1
:1025D300AFE433FED2AFC2C0E5D1A2E4500653D17B
:1025E300EF12148FEEA2E092AF7F01021BB8C0E09E
:1025F30074F2121B59E5A8FED2AF121429C2EBEEF6
:10260300A2E7A2E792AF7F01021BB8C0E0C0D0E807
:10261300C0E0E9C0E0E5A8D2AFC2C7A2E7A2E79253
:10262300AFD0E0F9D0E0F8D0D0D0E032C0E074F21F
:10263300121B59A2AFE433FCD2AF901AFFE0F8A308
:10264300E0F9A3E0687003A3E069700A539AFB9072
:102653001B0374018039C2E9901AFFE0F8A3E0F983
:10266300E82401FAE439FB901AFFEAF0A3EBF074D3
:102673006F28F582741939F583E0F5C1901AFFC309
:10268300E09490A3E094014007901AFFE4F0A3F0D4
:10269300ECA2E092AF7F01021BB802011FFFFFFF14
:1026A300FFFFFFFFFF74F0121A0174F7121991E98B
:1026B300852182852283F09017A8F08521828522C7
:1026C300837408F0AC21AD2279017A047B041211E2
:1026D300837C707D177A027B001204637C707D1704
:1026E3007A037B001204637CC87D007A197B001295
:1026F30004637A157B001204698A0E8B0F7A167BAA
:10270300001204698A0A8B0B7A1A7B001204698A05
:10271300088B097A197B001204698A0C8B0D7A6283
:102723007B9E121165AA0EAB0F12116B121165AAD3
:102733000AAB0B12116B121165AA08AB0912116BCC
:10274300121165AA0CAB0D12116B1211657C877DFA
:10275300987A15790012059B74051219DD74C7F078
:10276300A3744CF0A3E4F0A3F074041219DD740114
:10277300F074031219DDE4F074021219DDE4F004BD
:102783001219DD7401F074051219F779047A087BC4
:10279300041212EB74041219F779017A007B041204
:1027A30012EB74031219F779017A027B041212EB0C
:1027B30074021219F779017A037B041212EB740184
:1027C3001219F779017A067B041212EB1205B990FC
:1027D30017A8E0F91205BF90A0111218671205A1FE
:1027E30090A01112186712077B9017A8E0F9121135
:1027F3004D9017A8E0F912115912152590A019123E
:102803001C277A087B009017A8E0F91211177404AB
:102813001219A790A019121C277A107B009017A8F1
:10282300E0F912111774041219A790A029121C279A
:102833007A207B009017A8E0F9121117740412197B
:10284300A790A015121C277A407B009017A8E0F9E7
:1028530012111774041219A790A015121C277A805D
:102863007B009017A8E0F912111774041219A77AC4
:102873000079031214357A017B009017A8E0F9124E
:102883001075740902303E74F0121A0174FE1219A5
:1028930091EAFEEBFF5480700302291F9017A8E012
:1028A300F912105D8A088B09EA450960678A828BF1
:1028B30083E02450600A24F0603524DF6007804DF4
:1028C3001211E98048A3A3E024CF60181460101408
:1028D30060081470141212078033121201802E1232
:1028E30011FB80291211F580247A917B9E801BA312
:1028F300A3A3E0F50AA2E050077AC97B9B121165F6
:10290300E50AA2E150077AB67B9B121165AA08ABD0
:102913000912104BEEFAEF6480022BACEEA2E050EA
:10292300147A257BA012117D7A217BA0121315EE58
:102933006401022BAA5402604C90A081AC21AD2209
:1029430074021218A49017AFF0A3F09017AD1234CD
:10295300B69017B3F0A3F09017B1F0A3F09017ACB3
:1029630004F09017A8E0F5087808121C187902748F
:10297300011219F71246BD1205C574011219A7EE0B
:102983006402022BAAEE540460091211F5EE6404EA
:10299300022BAAEF5401601E9017ABE06401700E86
:1029A3007A667B891211657AFE7BFF121189EEFA32
:1029B300EF6401022BACEE5408602090A019121CA6
:1029C300277A087B009017A8E0F9121117740412F4
:1029D30019A712123DEE6408022BAAEE54106020D0
:1029E30090A019121C277A107B009017A8E0F91207
:1029F300111774041219A7121243EE6410022BAAC2
:102A0300EE5420602490A029121C277A207B00908A
:102A130017A8E0F912111774041219A77AE87B03B7
:102A230012152BEE6420022BAAEE54407003022AE7
:102A3300D21210E78A088B097A167B9F121165AAB6
:102A430008AB0912116B1211651210DB8A088B098E
:102A53007ACA7B9E121165AA08AB0912116B121177
:102A6300651210E18A088B097A227B9F121165AAED
:102A730008AB0912116B12116590A015121C277A6D
:102A8300407B009017A8E0F912111774041219A7DC
:102A93009017C4780C121849850C08850D09850E0A
:102AA3000A850F0B909FE578081217AF9017C4E5BE
:102AB30008F0A3E509F0A3E50AF0A3E50BF0AA0CDF
:102AC300AB0DAC0EAD0F12124FEE6440022BAAEE0B
:102AD30054807003022BAF90A015121C277A807BC1
:102AE300009017A8E0F912111774041219A7901790
:102AF300C47808121849909FE5780C12184990176A
:102B0300C4780C1217C279009017B71246C012127C
:102B1300738B0DEA450D600A7AAC7B801211650256
:102B23002BA77A3B7B801211657A0E7B001210CFA4
:102B33008A0E8B0FEA450F606B8A828B837425F0B4
:102B4300A378081218588A828B83A3A3A3A3A3E4B0
:102B530012428D7406F0F5087509007808121C14EA
:102B63007C6B7D1DEA2407FAE4350FFB12102174F8
:102B7300021219A7E50E240DF582E4350FF58374CF
:102B830023F07A907B8512116575081075092778F3
:102B930008121C14AC0EAD0F7AB77B1712125B74BC
:102BA300021219A7EE6480FAEFFB80047A007B001F
:102BB30002303C74F6121A0174F91219917A227BCD
:102BC300961211659017ABE064026003022C811228
:102BD300381F7003022C819017C8E06003022C8118
:102BE300E4F508F5097808121C147C081246B9129A
:102BF300075174021219A774031219DDEAF0A3EB4B
:102C0300F074031219DD123822607A9017B3123B65
:102C1300A174021219DD7408F074031219DDE0FCCB
:102C2300A3E0FD7583177582D774081218A4740581
:102C33001219DDE4F074061219DDE41230291205CD
:102C4300D7E9FE7AB27B8E121165EEF91211711279
:102C53001165EE700E901D747406122D6A7A5B7BFB
:102C630091801F7912AA21AB221207579017EC7497
:102C730004F07ACB7B8312116512120780077A98CE
:102C83007B8212116574071219A77F02021AD3748B
:102C9300F6121A0174F91219917AB47B9212116522
:102CA3009017ABE064026003022D609017B51238F1
:102CB300227003022D609017C8E06003022D60E4C8
:102CC300F508F5097808121C147C0D1246B9120791
:102CD3005174021219A774031219DDEAF0A3EBF081
:102CE30074031219DD123822607A9017B5123BA1D2
:102CF30074021219DD740DF074031219DDE0FCA3E4
:102D0300E0FD7583177582DF740D1218A474051224
:102D130019DDE4F074061219DDE41230291205D727
:102D2300E9FE7AB27B8E121165EEF912117112115E
:102D330065EE700E901D747407122D6A7A447B8DB4
:102D4300801F7912AA21AB22120757901D747404B5
:102D5300F07A3C7B8212116512120780077A4D7B51
:102D630081121165022C88F09017C87401F0227447
:102D7300F0121A0174FC121991EAFEEBFF9017ABE3
:102D8300E06402600A7ADB7B981211650230047AF0
:102D9300327B93121165EE2404123B94F9121171E4
:102DA300121165850A82850B83E0F8740B68602E27
:102DB3007401686003022F7B8E828F83A3A3A3A376
:102DC300A3E0F8EE2408F582E43FF583740A686013
:102DD30003022FA2E0F5087A1E7B89022FAE750E3F
:102DE3001F750F9A750CDC750D9B8E828F83A385DF
:102DF30082088583099017ECE064016003022EA426
:102E03001230087CCF7D1774081218A47AB27B9510
:102E130012116579087ACF7B171211779017C8E4DE
:102E2300F07AC87B9C121165850882850983E0F9D5
:102E33001211711211657A987B971211659017AB75
:102E4300E06402705512381F60509017C8E0704A52
:102E530074021219DD123BAC9017A8E0F974021248
:102E630019F71246BD1205CBE9F508AA0CAB0D12F2
:102E73001165A908121171121165E508700D9017FB
:102E8300EC7402F09017C814022F299017ECE4F0A9
:102E93007A8A7B89121165022FE07ACC7B86022F16
:102EA3002EE064026003022F341230087CD77D17B2
:102EB30074081218A47A147B9712116579087AD7CB
:102EC3007B171211779017C8E4F07A197B931211CC
:102ED30065850882850983E0F91211711211657AFB
:102EE300327B921211659017ABE0640270AC9017BD
:102EF300B512382260A49017C8E0709E12301F12DA
:102F030005CBE9F508AA0CAB0D121165A90812113E
:102F130071121165E5086003022E8E9017EC74039D
:102F2300F09017C87401F0AA0EAB0F121165022FAF
:102F3300F2E064036003022FF21230087CDF7D1796
:102F4300740D1218A47A4C7B92121165790D7ADFF5
:102F53007B171211779017C8E4F09017ECF07A60A2
:102F63007B8F121165850882850983E0F91211713F
:102F730012116512123780777413687065901D748F
:102F8300E0640770389017C8E4F07A9C7B941211C0
:102F930065790D7ADF7B171211771211DD8050747A
:102FA3001268703EE0F5087A3F7B87121165A90825
:102FB3001211711211659017C8E4F08020E06406C5
:102FC300702D9017C8E4F0901D747404F07A2F7B71
:102FD3009912116579087AD77B17121177121207A4
:102FE300800D9017ACE06007EEFAEFFB1212258517
:102FF3000A82850B83E0F9EE2405FAE43FFB12070E
:1030030057740480368E828F83A3A3A3A3A3A31232
:10301300301622E0F8A3E0F5838882228521828599
:103023002283E8F0A3E9F09017A8E0F9AC21AD22E0
:10303300901D69E0FAA3E0FB2274021219A77F082E
:10304300021AD374F7121A017F008F82A882EA282A
:10305300F582E43BF583E0FEEC28F582E43DF5835D
:10306300E06E600B7A0C7B94121165790080100F6F
:10307300EFC3940640D47AC47B9712116579010299
:10308300316574F7121A019017AAE070267401F0E3
:103093009017A9E4F0FBFA7903121195E9FE7A027D
:1030A3007B9E1211657A8B7B9F121165EEF91211CB
:1030B3007180047A807B9C023162C082C083901746
:1030C300AAE0600BE4F012119B7A757B9F80047A6F
:1030D300FC7B9C0231A574F7121A019017ABE070C8
:1030E300757401F07CC97D177B007A00F912118F8A
:1030F300E9FE702E7AAE7B9E1211657AC97B171298
:10310300127F12116590A019121C277A007B01907F
:1031130017A8E0F912111774041219A77AAE7B9756
:1031230080389017ABE4F07A6A7B8C121165EEF964
:103133001211711211657A837B9A121165909FE9BE
:10314300121C277A047B009017A8E0F91211177458
:10315300041219A780077AD07B89121165800312A4
:1031630011657F01021AD3C082C0839017ABE0645C
:10317300016005E06402700F7403F01246BD121182
:10318300897A387B9C8016E070077A6D7B951211E3
:10319300659017ABE0640370077AC67B98121165DC
:1031A3008003121165D083D08202011F74F7121AB3
:1031B30001E9FE7AA97B9F121165EEF404F912115D
:1031C30071809C74F4121A01EAFEEBFFEE2405F5FC
:1031D30008E43FF5098E828F83A3A3E06023147074
:1031E3000302334924FC7003023380147003023456
:1031F3003E1470030234A024FA70030232AF023487
:10320300A77A827B8D1211657AC27B9D121165EEBE
:103213002403FAE43FFB12127F12116578137978C5
:103223007A0088828983E0C0E0746B2AF582E434F3
:103233001DF583D0E0F0E824FF18E934FFF90AEA2A
:10324300C3940640DD7508067509007808121C143E
:103253007C6B7D1D7A837B1D12102174021219A7CA
:103263007808121C147C6B7D1D7A6B7B1D12102158
:1032730074021219A77AEC7B8E12116579067A6BA8
:103283007B1D1211777A7E7B8612116579067A830C
:103293007B1D1211777A1E7B8312116579067A6B77
:1032A3007B1D1211777A827B970234847A3A7B9F53
:1032B300121165AA08AB0912127F1211657AB27B4B
:1032C3009D121165EE240CF582E43FF583E0F912BB
:1032D30040121246C01211777871791D7E05E8FC01
:1032E300E9FD8C828D83A3A882A983E5082EF5824C
:1032F300E43509F583E0FF8C828D83E06F70391E1E
:10330300EEC3940350D87A127B9E121165750A0698
:10331300750B00780A121C14AC08AD097AC97B1727
:1033230012102174021219A77A467B9F121165129B
:1033330011FB1212010234A77A027B9C1211657AE7
:10334300637B900234A49017AAE4F07A647B93120F
:1033530011659017ABE0701E909FE9121C277A0449
:103363007B009017A8E0F912111774041219A77AB9
:10337300647B960234A47A7A7B960234A47A007B27
:10338300019017A8E0F91211238E828F83A38582FF
:1033930008858309E09017AB60030234207402129E
:1033A3003E021234AE901D69E8F0A3E9122D6A9033
:1033B30017B1123822600D12381F60089017B5122A
:1033C30038227017909FE5121C277A027B00901712
:1033D300A8E0F912111774041219A77AFD7B911250
:1033E3001165EE2404FAE43FFB12127F1211657A91
:1033F300337B9A1211651246BD12116B121165903F
:103403001D68E060117A927B9C1211657CE87D0354
:103413001246BD1211A17AAC7B930234A41234C0BC
:103423007A1E7B9B121165850882850983E0F91258
:1034330011711211657AE37B9480467A007B0190C7
:1034430017A8E0F91211239017AB1234C09017B1EB
:10345300F0A3F09017B31234B69017ECF0901D74EC
:103463007404F09017C8E4F07A2F7B9D12116585E0
:103473000882850983E0F91211711211657A837B41
:103483009A121165909FE9121C277A047B0090170A
:10349300A8E0F912111774041219A780077A487B60
:1034A3009812116579017F04021AD3A3A3E0F8A34C
:1034B300E0F922F0A3F09017B5F0A3F022E4F09026
:1034C3001D6974FEF0A304F09017ACE4F02274F7C6
:1034D300121A01E9FEECFFEE70067A727B9D8020E2
:1034E30074016E700FEF70067A527B9E80127AF130
:1034F3007B9E800C74026E700AEF70077A827B9D4C
:1035030012116502316502011F74F4121A0174FE6F
:103513001219918A0A8B0BEA2405FEE4350BFFEAA4
:103523002404F508E4350BF5099017ACE064016059
:1035330003023606850882850983E06407706F8E6F
:10354300828F83E060737A6A7B9B1211658E828F10
:1035530083E0F9121171121165E50A2406F8E435C6
:103563000BF9E8FAE9FB8A828B831238119017ADC5
:10357300124284123DF2E0FA88828983A3A3A3E076
:10358300F9EA9017AF123BAD7A767B9112116590F1
:1035930017AD1246C012116B1211657A917B91120D
:1035A30011659017AF1246C012116B121165850891
:1035B30082850983E064077032850A82850B83A3C1
:1035C300E0641A60030237F57A7D7B8F12116590F0
:1035D30017AD1238226007790212122B800D1238B0
:1035E3002A7A1F7B841211651212078508828509C6
:1035F30083E0640160030237F512382A7A727B8410
:1036030002371EE06402600302368F850882850953
:1036130083E0640970578E828F83E060311237FD37
:103623009017B1123BAD7A5B7B9A1211658E828F34
:1036330083E0F91211711211657AD47B8F1211652F
:103643009017B11246C012116B121165801F7A4791
:103653007B9A1211658E828F83E0F9121171121118
:10366300657AA97B8C121165790312122B85088266
:10367300850983E0640160030237F57AB77B901212
:10368300116512382A7A6A7B8202371EE06403606E
:1036930003023727850882850983E0640970607A0D
:1036A300907B9B8E828F83E0603A850A82850B83B1
:1036B300A3A3A3A3A3A3A31238119017B3123BADE3
:1036C3001211658E828F83E0F91211711211657ADE
:1036D3002B7B901211659017B31246C012116B1217
:1036E3001165801B1211658E828F83E0F9121171AF
:1036F3001211657AFE7B8D121165790412122B85E6
:103703000882850983E0640160030237F57AEF7B61
:103713009012116512382A7AC57B82121165121232
:10372300070237F5E0640460030237F585088285F4
:103733000983E0640960030237D68E828F83E060D9
:103743002E1237FD9017B5123BAD7ACC7B94121134
:10375300658E828F83E0F91211711211657A6A7B8B
:103763008B1211659017B51246C012116B8061124E
:10377300382A7A2A7B8C1211657A847B951211651B
:103783009017ABE0640270449017B1123822603C8A
:103793009017C8E0703612301F1205CBE9FE7ADCB1
:1037A3007B9B121165EEF9121171121165EE9017E0
:1037B300EC700B740112382E7A1F7B9A8012E4F09E
:1037C3007A8A7B8912116512120780077ACC7B866D
:1037D300121165850882850983E0640170147A25D6
:1037E3007B8D12116512382A1212077A7F7B8112A0
:1037F300116574021219A70234A98A828B83A3A3C9
:10380300A3A3A3A3A312381AFAA3E0F9EA22123856
:103813001AFCA3E0F9EC22123DF8E0229017B3E082
:10382300F8A3E0F9E849229017ACE4F09017C8F048
:103833002274F7121A0174EB121991E9FE9017AD75
:1038430012382270030238DCEE9017ACF09017AEFA
:10385300123BA49017AF1234B074021219DD123B5D
:10386300AC74041219DD7402F06E7016740512192B
:10387300DD74F2F074061219DD74FFF07A197B8798
:10388300803474036E701674051219DD74F1F074CC
:10389300061219DD74FFF07A697B88801974046E4F
:1038A300701774051219DD74F3F074061219DD74C0
:1038B300FFF07AED7B841211659017A8E0F9AC2133
:1038C300AD221246BD1205D1E9FF7A8B7B9F1211FF
:1038D30065EFF912117112116574151219A70231EE
:1038E30065C082C0839017C21246C012116B1211B9
:1038F300659017C1E0F91211711211659017C0E0BC
:10390300F91211711211659017BFE0F912117112BA
:1039130011659017BEE0F91211711211659017BD70
:10392300E0F91211710231A574F0121A011210ABF1
:103933008A088B098C0A8D0B7808121C107ABD7BC0
:10394300171210B174041219A77AA07B9E12116585
:103953007ABD7B171212319017DFE06401704C902F
:1039630017C2E09017E0F09017C1E09017E1F090D4
:1039730017C0E09017E2F09017BFE09017E3F090C4
:1039830017BEE09017E4F09017BDE09017E5123FE3
:103993004A121C147CE07D177AE67B171215E57436
:1039A300021219A77AF27B9D023A4AE0640260038D
:1039B300023A469017C2E09017E6F09017C1E090E4
:1039C30017E7F09017C0E09017E8F09017BFE0906A
:1039D30017E9F09017BEE09017EAF09017BDE0905A
:1039E30017EBF07ABC7B9E1211659017C47808120E
:1039F300184985080C85090D850A0E850B0F909FC4
:103A0300E5780C1217AF9017C4780C121858AA084F
:103A1300AB09AC0AAD0B121249E970219017DF74A0
:103A230001123F4A121C147CE67D177AE07B1712C1
:103A330015E574021219A77A6E7B9C800A7A407B83
:103A43009780047A977B9A1211657AE37B99121116
:103A5300657AD77B171212671211E302304174F2B1
:103A6300121A017ACF7B99121165901B2AE0642206
:103A730060077A007B80023B8E9017B7E0FEA3E0DD
:103A8300FF023B16E4F0A3F07A547B941211658590
:103A9300088285098312382270588E828F83A3A3EC
:103AA300A3A31234AE850882850983123BAC8E82B0
:103AB3008F83A3A31246C08A828B83A3A3A3A3A34A
:103AC300E07003023B76146020147003023B7B1406
:103AD3006003023B807C097D007901121603850A8D
:103AE30082850B837401F080127C0F7D00790112B3
:103AF3001603850A82850B83E06014EEFCEFFD7AE2
:103B0300B77B17121279E970069017BBE014F0AE79
:103B13000CAF0DEE4F60707ABB7B99121165901755
:103B2300BBE0F91211711211658E828F83E0F50CDF
:103B3300A3E0F50DEE2408123B9470B67A587B8E01
:103B4300121165EE24041241941238227003023AD2
:103B53009DC3E894D1E994078508828509835003BE
:103B6300023A87E02430F0A3E034F8F07A567B97EA
:103B7300023A8F7C0E023AEE7C28023AEE7A2A7BD6
:103B830097121165023AE17A3C7B94121165023F68
:103B930059F50AE43FF50B850A82F583E022E0F844
:103BA300A3E0F9852182852283E8F0A3E9F022745A
:103BB300F0121A0174FE1219919017B9E0F50EA3D1
:103BC300E0F50F7AA77B9912116580367A167B850B
:103BD300121165850E82850F83A3A3A3A3A3A3A3B9
:103BE300A37401F0AC0EAD0F7AB97B171212799062
:103BF30017BCE014F0852182852283E0F50EA3E053
:103C0300F50FE50E450F7003023DE07A7F7B9912B5
:103C130011659017BCE0F9121171121165850E82BE
:103C2300850F83123BA17A767B8E121165E50E24F4
:103C330002FEE4350FFF8E828F831246EC24FD7063
:103C430003023D99146009147003023D0C023DD92F
:103C53007A527B9F1211658E828F83123012A312C8
:103C63001C279017B71246C012126D74041219A7BD
:103C73008A088B09EA45097003023D058E828F830A
:103C8300123DF2A3A3A3E06404705FE8240D123D88
:103C9300EA24D0FAE43407FB9017C2EAF0A3EBF06E
:103CA300E8240E123DEA9017C1F0E8240F123DEA12
:103CB3009017C0F0E82410123DEA9017BFF0E824F3
:103CC30011123DEA9017BEF0E82412123DEA901754
:103CD300BDF07ABD7B171210BD1210A57AE27B9D51
:103CE3001211657ABD7B171212318508828509830B
:103CF300A3A3A3A3A3A3A3A37401F07AE07B8102EC
:103D03003BD37A747B80023BD37ADA7B9C121165B6
:103D13008E828F831246C0121261E97003023BD672
:103D23008E828F831246B31218497A097B001210D0
:103D3300CF8A0C8B0DAE0CAF0DEE4F60278E828FAA
:103D4300837425F0A378081218588E828F83A3A357
:103D5300A3A3A37403123F3A123F38A37455123E30
:103D6300027423F07AFA7B87121165E4F508F509EA
:103D73007808121C14EEFCEFFD7AB77B1712125B66
:103D830074021219A7E970077AD57B871211657A35
:103D9300F57B83023BD37A807B9F1211658E828FE2
:103DA30083123012A3121C279017B71246C01212A7
:103DB3006D74041219A78B09EA45097003023BCFFE
:103DC3008A828B83A3A3A3A3A3A3A3A37401F07ADF
:103DD3004A7B8C023BD37AD37B90023BD37AF47B2E
:103DE3009312116502303CF582E439F583E0221227
:103DF3003DF8A3A322E0F8A3E0F988828983221285
:103E03003F3EA3A32274F2121A018A088B098C0A7B
:103E13008D0B7A287B001210CF8A0C8B0DAE0CAF62
:103E23000DEE4F7003023F2D8E828F837425F0A316
:103E330078081218588E828F83A3A3A3A3A37402B6
:103E4300123F3A7420123F4A121C147C6B7D1DEE04
:103E53002407FAE43FFB12102174021219A7780811
:103E6300121C147CD77D17EE240DFAE43FFB1210CD
:103E73002174021219A79017DDE0C0E0EE2413F5B8
:103E830082E43FF583D0E0F07808121C147CCF7DE8
:103E930017EE2414FAE43FFB12102174021219A73F
:103EA3009017D5E0C0E0EE241AF582E43FF583D005
:103EB300E0F07808121C147CE07D17EE241BFAE472
:103EC3003FFB12102174021219A77808121C147CEC
:103ED300E67D17EE2421FAE43FFB1210217402124F
:103EE30019A7EE2427F582E43FF5837423F07A3093
:103EF3007B861211657508107509277808121C1442
:103F0300EEFCEFFD7AB77B1712125B74021219A74E
:103F1300E9FE700B7AE07B85121165790080147AD3
:103F2300087B86121165EEF980097A097B8F1211DD
:103F330065790180217401123F3E22F08E828F83C6
:103F4300A3A3A3A3A3A322F0750806750900780809
:103F53002274011219A77F06021AD374F2121A01EE
:103F63008A088B098C0A8D0B79019017B71246C00A
:103F73001212738B0DEA450D600C7A197B811211B5
:103F830065790002400F7AE37B801211657A0F7B1B
:103F9300001210CF8A0C8B0DAE0CAF0DEE4F606A82
:103FA3008E828F837425F0A378081218588E828F1F
:103FB30083A3A3A3A3A3123F387407123F4A121C7F
:103FC300147C6B7D1DEE2407FAE43FFB1210217471
:103FD300021219A712401274AAF0EE240EF582E41D
:103FE3003FF5837423F07AA07B8312116575081063
:103FF3007509277808121C14EEFCEFFD7AB77B17BE
:1040030012125B74021219A780027901023F59EE62
:10401300240DF582E43FF5832274F0121A01EAFEBF
:10402300EBFFEA2CF8EB3DF9880A890B80127A0A38
:104033007B8C121165850E82850F83A3AE82AF83BD
:104043008E828F83A3A3A3A3A3A3E0F50CF508EEAD
:104053002508F8E43FF9E82407F50EE439F50F8E57
:10406300828F83E064256003024175EE24051241CB
:1040730094E0C394064003024175C3E50A950EE537
:104083000B950F5003024175850E82850F83E06403
:104093002360030241757AF07B98121165850882CB
:1040A300850983E024FD700302414C14600514600C
:1040B3006C8082740C650C705DEE2407FCE43FFD9C
:1040C3007A6B7B1D1211EFE9604C7A227B9E1211F1
:1040D300657A147B001210CF8A088B09EA450970B0
:1040E30003024038750C14750D00780C121C14EE85
:1040F300FCEFFD12102174021219A7E4F50C780CE1
:10410300121C14AC08AD097AB97B1712125B740246
:104113001219A70240387A4A7B8302403574076537
:104123000C701F7A9C7B981211657A0F7B0012101A
:10413300CF8A088B09EA45097003024038750C0FD2
:1041430080A57A067B8B0240357401650C600302FF
:1041530040317AA37B9B1211657A097B001210CF41
:104163008A088B09EA45097003024038750C090275
:1041730040EA8E828F83A3AE82AF83C3E50A9EE5B6
:104183000B9F40030240437AD27B9D12116502309C
:1041930041F508E43FF509850882F5832274F2129C
:1041A3001A018A088B098C0A8D0BEA64B77003EB3A
:1041B300641770047EBB7F17EA64B97003EB64175E
:1041C30070047EBC7F17EC450B7003024261EA4525
:1041D3000970030242618E828F83E0C39414507E80
:1041E3007A097B001210CFEA4B70030242788A826D
:1041F3008B83A3A3E50AF0A3E50BF08A828B83E408
:10420300F0A3F0740E1219DD1234B08A828B83A3EB
:10421300A3A3A3A3A3E8124284A3A3A3A3E4F0A3A9
:1042230012428DA3A3F08508828509831238227078
:104233000C8508828509838015ECF8EDF98882895D
:1042430083E0FCA3E0FDEC4D70EF88828983EAF004
:10425300A3EBF08E828F83E004F0790080208E82BE
:104263008F83E0C3941440067A1F7B8880047AD638
:104273007B88121165AA0AAB0B1210D57901023F94
:1042830059F0A3E9F08A828B8322F08A828B83A37D
:10429300A3A3A3A3A32274F2121A0174FF12199108
:1042A3008A0C8B0DEA240CF582E4350DF583E0F5D9
:1042B300087AF07B97121165A90812117112116522
:1042C300E508C39480500D7AF77B991211657480C9
:1042D3002508F5087ADA7B97121165A9081211717E
:1042E300121165AC21AD227A01A9081215D3E97028
:1042F30009852182852283E070657A497B841211C6
:10430300657A107B001210CF8A0A8B0BAE0AAF0BB3
:10431300EE4F6044750A0F750B00780A121C14AC3B
:104323000CAD0D8E828F83A3AA82AB8312102174EE
:10433300021219A785218285228374011246797A94
:10434300947B8E1211657910EEFAEFFB121177EE62
:10435300FCEFFD7A1002447E7A477B900244A2C3AD
:10436300940A400302449EE075F00FA4A9F02410C0
:10437300FAE439FB1210CF8A0A8B0BAE0AAF0B7526
:104383000AB2750B88EE4F7003024498124653121B
:1043930015D3E960030244917A7E7B8A1211651278
:1043A30046671211778E828F83A385820A85830BDA
:1043B300750900800CE50A240FF50A5002050B0568
:1043C30009852182852283E0F8E509C398506DE5CC
:1043D3000C2407FCE4350DFDE50A2407FAE4350B4C
:1043E300FB1211EFE960CE7AAC7B91121165E50CFB
:1043F300240DF50C5002050DE50A240DF50A5002B3
:10440300050BF582850B83E0F8850C82850D83E02F
:104413006860177A287B8B121165850C82850D8362
:10442300E0850A82850B83F080407A637B8D1211CD
:1044330065EEFAEFFB1210D579008068850C828552
:104443000D83AC0AAD0B740F1218A485218285224B
:1044530083E0041246797AC47B841211657A8E7BD9
:1044630088121165124667121177EEFCEFFD75F0A5
:104473000F852182852283E0A404FAA9081215CDB1
:10448300E9F508EEFAEFFB1210D5A9088016EEFA4B
:10449300EFFB1210D5AA0AAB0B80047ACA7B8B12EE
:1044A30011657901023F5474F2121A0174FF121953
:1044B300918A0C8B0D8A828B83A3A3A3A3A3E0F51C
:1044C300087AD27B96121165A9081211711211652F
:1044D300E508C39480500D7A937B9912116574801B
:1044E3002508F5087AFE7B96121165A90812117149
:1044F300121165AC21AD227A01A9081215D3E97016
:1045030009852182852283E070077A1C7B8E02460F
:1045130015C3940B4003024634E075F00FA4A9F0D1
:104523002401FAE439FB1210CF8A0A8B0BAE0AAFCF
:104533000BEE4F70030246291246531215D3E9605E
:104543000302461C7A067B8D12116512466712110F
:10455300778E828F83A385820A85830B75090080FA
:104563000CE50A240FF50A5002050B050985218283
:10457300852283E0F8E509C398400302460AAC0CA0
:10458300AD0DE50A2407FAE4350BFB1211EFE960E0
:10459300D07A0A7B91121165E50A240DF582E43580
:1045A3000BF583E0850C82850D83A3A3A3A3A3A3AB
:1045B300A3F074012509FA801BE50A240FF8E435FA
:1045C3000BF988828983AC0AAD0B740F1218A48887
:1045D3000A890B0A852182852283E0F8EAC3984081
:1045E300D8E0141246797AE77B8C1211651246677C
:1045F3001211771246531215CDE9F508EEFAEFFBC7
:104603001210D5A9088046EEFAEFFB1210D57AC82E
:104613007B8C12116579008034EEFAEFFB1210D512
:104623007A397B8A80047A407B9112116579018003
:104633001C7AA07B8A121165852182852283E4F08E
:10464300AC21AD227A01A9081215CD7909023F5494
:10465300EEFCEFFD75F00F852182852283E0A40433
:10466300FAA9082275F00F852182852283E0A4042C
:10467300F9EEFAEFFB22F08E828F83F02274F412AC
:104683001A01740C1219DD780812184980078A82FE
:104693008B831246C0EA4B60108A828B83A3A312DA
:1046A30046B312162170E780047A007B000234A916
:1046B3001246F57808227D007912901D69E0FAA36D
:1046C300E0FB22C082C08380078A828B831246C0AC
:1046D300EA4B600E8A828B83A3A31246EC6970E9CE
:1046E30080047A007B000231A81246F5A3A3A3A39A
:1046F300E022123016A32274F2121A018A0C8B0DD7
:104703008A828B83E0FEA3E0FFEE4F6062EC4D6094
:104713005E7508007509008E828F83E0F50AA3E0B9
:10472300F50BEC6E7002ED6F70398E828F83A3A34D
:104733001246C01210D5EEFAEFFB1210D5E508456C
:10474300097008850C82850D83800685088285099A
:1047530083E50AF0A3E50BF07A927B9D121165794C
:104763000080158E088F09AE0AAF0BEE4F70A87A42
:10477300427B9E1211657907023F5974F7121A01A1
:1047830074EF121991909D40AC21AD22741112184F
:10479300A49017ED7430F0A37478F078EF7917EAEA
:1047A3002406FA50010B7E06EA24FF1AEB34FFFBC2
:1047B3008A828B83E0C41247D8A882A9838A828B1A
:1047C30083E01247D808A983DEDEE4F07AED7B1795
:1047D30074110238DE540FFC852182852283E58221
:1047E3002CF582E43583F583E088828983F0A32264
:1047F300C082C083E9901D21F0D083D08202011FC3
:1048030074F6121A01E990019CF09001FBE0F5089F
:104813007509007402780812197EAA08AB091210F0
:10482300CF90019D1251B690019D1255A3606F90D8
:1048330001FBE075F003A4FAABF01210CF9001BABC
:104843001251B69001BA1255A3700B90019D1255E7
:10485300741210D580489001BA1265087AFF7BFF65
:1048630012139F7A0080198A087509007402780868
:1048730012197E125FB074FF1249B6E4F0A3F00A76
:104883009001FBE0F8EAC39840DD790512077590C3
:10489300019CE0F91206617AFF7B071209D30260DB
:1048A3005374F4121A018A088B09EB548060479001
:1048B300019CE0F912105D8A0A8B0BAE0AAF0BEE76
:1048C3004F602A8E828F83E064B0701A120787E9E3
:1048D30060148E828F83A3A3A3A3E0F9EE2405FAC9
:1048E300E43FFB120757EEFAEFFB12104BAA08E561
:1048F300096480FB80047A007B00024B0674F21289
:104903001A0174FB121991EAFEEBFFEE4F60457436
:10491300031219DDEEF0A3EFF0852182852283ECEB
:10492300F0A3EDF074021219DDE9F0AA21AB221213
:10493300065BE9F508707574131219DDE0F50AA337
:10494300E0F50BE50A450B60638E828F83124F3FC0
:10495300EE4F700575080280537A067B001210CF64
:104963008A0C8B0DA80CA90DE849700575081380F6
:104973003B88828983E41249B6EEF0A3EF124AD250
:10498300E50AF0A3E50BF09001A0124ACB9001A039
:104993006017E0FCA3E08003EAFCEBFD8C828D83CF
:1049A300124ACB70F38C828D83125BCBA9087405FA
:1049B300026788F0A31264EAA32274F2121A01892F
:1049C30008890C750D007403780C12197E850C0A86
:1049D300850D0B90019FF090019D1259D6124AC983
:1049E300602E1210D57900801D890C750D0074029C
:1049F300780C12197E90019D125E6F8882F583A355
:104A0300A3E4F0A3F0099001FBE0F8E9C39840D9CF
:104A13009001FBE0FA850AF0A4CAA8F0850BF0A484
:104A230028FB1210CF8A0C8B0DAE0CAF0DEE4F701E
:104A330003024ABF9001FBE0FC850AF0A4CCA8F076
:104A4300850BF0A428FD79001210397C0080318D8C
:104A53000C750D007403780C12197E8A828B8312F5
:104A63004AC488828983E4F0124AD1A3A3F0A3F055
:104A73000DEDC3950840D8EE250AFEEF350BFF0C6C
:104A83009001FBE0F8ECC39850288C0C750D007472
:104A930002780C12197E90019D124AC4E824025038
:104AA3000109FAE9FB8A828B83EEF0A3EFF07D0024
:104AB30080BFE50890019FF07900800279130267B7
:104AC3008B125E73F922A3A3125578EA4B22A31229
:104AD30064EAA3A3A32274F4121A017900EAA2E000
:104AE300501F7508C375099F7808121C1479107C30
:104AF300047D007A237B1D12076F74021219A7E944
:104B0300F980007F04021AD3C082C0839001A012EF
:104B130055A3601C88828983A3A3E06A7003A3E082
:104B23006B8882898370E8A3A3A3A31255748004BE
:104B33007A007B000247FC74F2121A0174FD121909
:104B430091EAFEEBFF852182852283E4F0A3F074D2
:104B5300021219DD7401F01255A070141209251206
:104B630010CF9001A31251B61255A07003024CCC82
:104B73001252B6EE2404F50AE43FF50B850A82F5DA
:104B830083E024FE603C24FC607424FE607E24FEEB
:104B93007003024C1C24FE7003024C2924FE700394
:104BA300024C3624FE7003024C4324FE7003024C75
:104BB3005024FC7003024C7124FE7003024C8902E2
:104BC3004CC51209259001A5EAF0A3EB124CD812AB
:104BD30002B9E96003024CC59001A5121C2B8E8219
:104BE3008F83A3A3A3A3A3126508850882850983E2
:104BF30012557412073F74021219A7024CC5AC2157
:104C0300AD22EEFAEFFB12078D024C94AC21AD22DC
:104C1300EEFAEFFB1207938078AC21AD22EEFAEFA8
:104C2300FB120799806BAC21AD22EEFAEFFB120762
:104C33009F805EAC21AD22EEFAEFFB1207A58051F7
:104C4300AC21AD22EEFAEFFB1207AB8044740212E3
:104C530019E7880C890D780C121C1474021219F7C9
:104C6300EEFAEFFB1207B174021219A78023AC21ED
:104C7300AD22EEFAEFFB1207B7E9F87016740212D1
:104C830019DDE4F0803CAC21AD22EEFAEFFB120714
:104C9300BDE9F8E8602C8E828F83A3E06414602260
:104CA300850A82850B83E09001A5F0852182852208
:104CB300831255749001A61251B6E8A3124CD81270
:104CC30002B3EEFAEFFB12071574021219DDE0F9D5
:104CD3007403026788F07CA57D01850882850983BA
:104CE3001255782274E8121A0174FA121991740495
:104CF3001219DDECF0A3EDF08A128B13EA2405F50B
:104D03000EE43513F50FEA2402F510E43513F5111B
:104D1300851082F5831255741203FD8A0A8B0B7575
:104D230008007C037D0079007AA57B01121039E528
:104D33000E2402F516E4350FF51774021219E788ED
:104D43000C890D780C121C14850E82850F83A3A386
:104D5300A3A3E0F50C750D00780C121C14E50E24CA
:104D630005F50CE4350FF50D780C121C148516822D
:104D730085178312587B12067974061219A78A0CB9
:104D83008B0DE50C450D7003024F088020852182B1
:104D9300852283E088828983F00508852182852224
:104DA30083A3E0C0E0124F49D0E0F00508E50A24F0
:104DB300FBFAE50B34FFFBC3E5089AE49B400302CF
:104DC3004F087E007F00851282851383A3A3A3A3CC
:104DD300E0F5097809121C18E4F514F51578141296
:104DE3001C147514A27515017814121C149001A3D8
:104DF300121C2B74091219DD121C2BE50A24F9F974
:104E0300AC0CAD0D8510828511831255741207E722
:104E130074091219A7E96003024EA9850E82850F52
:104E230083A3A3A3A3A3A3A3E0F89001A2E06870C4
:104E330075E0F5148E157814121C14126505850E91
:104E430082850F83A3A3A3A3A3A3A3A312557412C1
:104E5300103374021219A7E9604C9001A61255A3EE
:104E6300703BE4F5147814121C147CFF7DFF790762
:104E73008510828511831255741207517402121919
:104E8300A71255A97017850E82850F831266A27427
:104E9300041219DD125F631258AC024F3C850C8279
:104EA300850D83124F3FA821A922881489157814F0
:104EB300121C1474041219DD121C2B85168285171B
:104EC300831251AC12068574041219A78A0C8B0D38
:104ED300EE4F7003024D85124F49EE124F54125894
:104EE30062EF124F54F8A3E03400F9E50C450D606E
:104EF30003024D908882898374FFF00508124F499D
:104F030074FFF00508E508601A1313543F1251BCEF
:104F13001202C5E960099001A612557412154F7962
:104F2300008016850E82850F831266A274041219FF
:104F3300DD125F63125BCB790A025835A3A3A3A3E7
:104F4300E0FEA3E0FF22A8089001A6E02812586221
:104F530022F00508089001A6E0282274E8121A013D
:104F630074FA12199174021219DD1251B6740412F3
:104F730019DDECF0A3EDF074021219DDE024051243
:104F8300584BE0F50CA3E0F50D74021219DDE02493
:104F930002F510A3E03400F511851082F583125554
:104FA300741203FD750800750900EA24FCFEEB3456
:104FB300FFFF8008050CE50C7002050DA808C3EE81
:104FC30098EF94005003025168A821A922880E8902
:104FD3000F780E121C14851482851583A3A3A3A333
:104FE30012650C121C14E5142405F50EE43515F5B1
:104FF3000F780E121C148514828515831251AA1280
:10500300067974061219A78A0E8B0FEA450F7003EF
:10501300025168EA2404F516E4350FF51785168264
:10502300F583E0F50CA3E0F50D852182852283123B
:1050330065088A828B83A3A3A3E0F9851082851177
:1050430083125574120667E9F50960030251687407
:10505300021219DD125872F5097809121C18E4F5C9
:1050630012F5137812121C147512A275130178121B
:10507300121C149001A3121C2B74071219DD121CAD
:105083002BEEF9AC0EAD0F8510828511831255748A
:105093001207E774091219A7E9F5096003025168B9
:1050A300E508703FE4F50EF50F780E121C147CFF33
:1050B3007DFF79098510828511831255741207517A
:1050C30074021219A7125898700D74041219DD1284
:1050D300519F791102519C9001A2E024029001A6F4
:1050E300F080149001A6E0FA9001A2E07900240276
:1050F3005001096A497072A8089001A2E0FAE82AEF
:10510300FAE43400FBEE9AEF9B405A85168285172A
:1051130083E0C0E09001A7124F4ED0E0F005088570
:105123001682851783A3E0C0E0089001A7124F4EB3
:10513300D0E0F005089001A212650C121C14126550
:1051430005A80812583F12102174021219A79001E2
:10515300A2E02508F50874FF650C700474FF650D63
:105163006003024FB7E508601F9001A6E0F5F0E584
:1051730008841251BC1202CBE960099001A71255B1
:105183007412154F79008011E509700375090A74CB
:10519300041219DD12519FA9090258351259DAE593
:1051A3000CF0A3E50DF022A3A3126797AA0CAB0D95
:1051B30022A3A3EAF0A3EBF0229001A5F07CA57D46
:1051C300018510828511831255782274EC121A011D
:1051D30074FC121991125CDB74021219F712556EEA
:1051E30012067F8A0C8B0DEA450D70030252A6123C
:1051F30052B6A821A922881089117810121C147C98
:10520300FF7DFF790B850882850983125574120788
:105213005174021219A71253AC700C850A82850BC4
:10522300831258A90252B38E828F83A3A3A3A3E050
:10523300F5127812121C18E4F512F5137812121CE9
:10524300147512A57513017812121C147810121C10
:105253001474091219DD121C2B74091219DDE0F9FB
:10526300AC0CAD0D8508828509831255741207E7CE
:1052730074091219A7E9FE70157CA57D01850882C2
:105283008509831255741202D1E9700980207416BE
:105293006E70027E009001A612557412154FEE70C7
:1052A30004800B7E01850A82850B83125BC8EEF9AD
:1052B300025BDDEE2402F508E43FF5092274EC12EB
:1052C3001A0174FC121991EAFEEBFF8C0E8D0FEE9E
:1052D3002405F508E43FF50974021219F7850882DD
:1052E30085098312557412067F8A0C8B0DEA450DCE
:1052F300700302539CEE2402F50AE43FF50BA82148
:10530300A922881089117810121C147CFF7DFF7963
:105313000D12556E12075174021219A71253AC7075
:105323000B8508828509831258A9807A8E828F8320
:10533300A3A3A3A3E0F5127812121C188508828593
:105343000983A3A3121C2B7512A5751301781212DE
:105353001C147810121C1474091219DD121C2B74FE
:10536300091219DDE0F912556A1207E774091219D7
:10537300A7E9FE700F7CA57D0112556E1202D7E9D5
:105383007009802074166E70027E009001A612557B
:105393007412154FEE7004800B7E01850882850917
:1053A30083125BC8EEF9025BDD1255B3F510A3E07F
:1053B300F511EA45112274E8121A0174FE121991CB
:1053C3008A168B178C148D15EA2405F50CE4351712
:1053D300F50DEA2402F50EE43517F50F850E82F577
:1053E300831255741203FD8A088B09750B007C0325
:1053F3007D0079007AA57B01121039750A00E50852
:1054030014F5100424FFF508E50934FFF509805469
:105413009001A5E0FA9001A2E0F8EA28F8E434004C
:10542300F9E50898E50999500D9001A5E0F8E51014
:10543300C3989001A2F0E0F5127513007812121CC4
:10544300141265059001A6E02AFAA3E03400FB12CA
:10545300102174021219A79001A2E0F89001A5E0AF
:1054630028F0050A850C82850D83A3A3125E7F4075
:105473000302554F9001A5E0C39508E49509400345
:1054830002554FAE0AEE2EFEE433FF12558EAC21C9
:10549300AD22126520E439FB12067F8A128B13AC0E
:1054A30012AD13EC4D701B750B0112557E125BCCC4
:1054B3009001A6124ACB600312154FA90B74020286
:1054C3005837851682851783A3A3A3A3E0F50B782A
:1054D3000B121C18E4F512F5137812121C14751232
:1054E300A27513017812121C149001A3121C2B74C1
:1054F300071219DD121C2BA910850E82850F83124A
:1055030055741207E774091219A7E9F50B709B90FC
:1055130001A61255A36003025413E4F512F51378A0
:1055230012121C147CFF7DFF790F850E82850F8379
:1055330012557412075174021219A71255A9600368
:1055430002541312557E1258AD0254C07CA57D013E
:10555300850E82850F831255741202DDE960030202
:1055630054B379000254C0AC0CAD0D850A82850B8F
:105573008312557822E0FAA3E0FB2212558EE0FA5B
:10558300A3E0F9EA85148285158322850C82850DB3
:1055930083E02EF8A3E03FF988828983229001A358
:1055A3001266A6E849221255B3F8A3E0F9E84922A6
:1055B3009001A6EAF0A3EBF09001A6E02274E812B2
:1055C3001A0174FA12199174041219DD1251B68C6E
:1055D300168D1774041219DDE02405F50EA3E034CB
:1055E30000F50F74041219DDE0240212584B125512
:1055F300741203FD8A0A8B0B7F007E00A821A92267
:10560300880889097808121C14850E82850F83A3E4
:10561300A3A3A3E0F5088E097808121C14E50E2451
:1056230005F508E4350FF5097808121C14850E8278
:10563300850F83A3A312587B12067974061219A748
:105643008A0C8B0D802912586CF00F12586CF00FD6
:105653009001A2125BB7121C14126505EFF81258E1
:105663003F12102174021219A79001A2E02FFFE547
:105673000C450D70030256FB852182852283125C43
:10568300EDA3A3A3E0F98514828515831255741243
:105693000667E9FEE50C2404F510E4350DF511EE7B
:1056A300705074041219DD125872F5087808121C30
:1056B30018E4F508F5097808121C147508A2750991
:1056C300017808121C149001A3121C2B74071219E1
:1056D300DD121C2BE50A24FAF9AC0CAD0D851482FE
:1056E3008515831255741207E774091219A7E9FE89
:1056F3006039125888125BCBEF7003025822900175
:10570300A6E0F5F0EF849001A5F07CA57D0185145A
:10571300828515831255741202E3E960099001A78B
:1057230012557412154F79000258358F08EF703BEC
:10573300E4F512F5137812121C147CFF7DFF791126
:105743008514828515831255741207517402121938
:10575300A712589870091258881258AC02583590FD
:1057630001A2E024049001A6F080359001A2E0F8A4
:105773009001A6E0FAE82404FCE43400FDEC6A4D51
:105783006003025701E50A24FAFAE50B34FFFBE54F
:105793000828F8E43400F9EA98EB9950030257011A
:1057A300851082851183E0C0E09001A7E02FF8A364
:1057B300E034008882F583D0E0F00F8510828511F4
:1057C30083A3E0C0E0125859D0E0F00F740212191D
:1057D300E7880889097808121C1474021219DD126B
:1057E3001C2B850E82850F831251AA120685740421
:1057F3001219A78A0C8B0DEA450D700302564974E2
:10580300021219DDE0C0E0125859D0E0F00F740223
:105813001219DDA3E0C0E0125859D0E0025651EE50
:1058230070027E0A850E82850F8312588E125BCB1F
:10583300EEF974061219A77F10021AD39001A7E09C
:1058430028FAA3E03400FB22F514A3E03400F51595
:10585300851482F5832212585D229001A7E02FFA66
:10586300A3E034008A82F5832212585D74FF22126A
:1058730059DAA3A3A3A3E022126797850E82850FAB
:1058830083125578228510828511831266A68516A8
:1058930082851783229001A7EAF0A3EBF09001A77A
:1058A3001266A6E84922125BD1E8F0A3E9F0791168
:1058B3002274EA121A0174FE1219918A088B098C58
:1058C300128D13EA2405FEE43509FFAC21AD228EC7
:1058D300828F8312557412067F8A0C8B0DEE240679
:1058E300F50EE43FF50FEA450D70030259ACE508E8
:1058F3002402F50AE43509F50B8A828B83A3A3A35B
:10590300E0A2E5502885218285228312557412076F
:10591300DB8A108B11EA45116020791212556A85D2
:1059230010828511831219FFE9F50C707F850E82B1
:10593300850F83E0600979528011750C0E806D85A7
:105943000882850983A3A3A3A3E0F9E4F508F50975
:105953007808121C148E828F83A3A3E0F5087808BD
:10596300121C148E828F83A3A3A3121C2B8E828FEF
:105973008312650812556E1207ED74061219A7E912
:10598300F50C7011850E82850F83E0702D12556E14
:105993001202E980257416650C7011750C007418D9
:1059A3001219DD1259D6E48010750C0112669E851A
:1059B3001282851383E8F0A3E9F0850E82850F83B5
:1059C300E0600479008002A90C74021219A77F0E0B
:1059D300021AD31259DA22E0F8A3E0F5838882226F
:1059E30074EC121A0174F71219918A0A8B0B8C103A
:1059F3008D11EA2405FEE4350BFF750C00AC21ADD7
:105A0300228E828F8312557412067F8A088B09EACD
:105A130045097003025BA2E50A2402F50A50020558
:105A23000B8A828B83A3A3A3E0A2E5502F85218257
:105A33008522831255741207DB8A0C8B0DEA450D00
:105A4300604F7912AC08AD0912556E850C82850D35
:105A5300831219FFE9F50C6003025BA5850A8285B1
:105A63000B83E0F508A3E0F509AA08FB1207CFEAC8
:105A73004B70197AFF7BFF1207CFEA4B7003025B6F
:105A8300988A828B83E508F0A3E509F07508008006
:105A930008750C0E025BA5050890019FE0F8E50868
:105AA300C3984003025B9885080E750F0074037852
:105AB3000E12197E8A828B83A3A3E0250EF8A3E03E
:105AC300350F125F6C70D08E828F83125BC01251C0
:105AD300B68E828F83A3A3125BC01251B4EE24044B
:105AE300F508E43FF509850882F583E08882898318
:105AF300A3A3A3A3F0A3E4F0EE2405F50EE43FF57E
:105B03000F850E82F583125BC0A3A3A3A31251B426
:105B13007512077513007812121C14EEFCEFFD7456
:105B2300041219EF12102174021219A7E4F5127866
