:020000040000FA
:060000000201070223A526
:03002B0002260E9C
:03003B0002262F6B
:030043000225CBC8
:0300530002241B69
:03007B000225F16A
:100083000221FBE5C754F84401F5C77901220000BA
:100093000080FB120086B900030200F1E4792378A3
:1000A30002B800028004F709D8FCE479257802B885
:1000B30000028004F709D8FCE4900141785A791CC6
:1000C3008002F0A3D8FCD9FA7A9A7B1C9001377886
:1000D3003A79028015E493A3AD82AE838A828B833F
:1000E300F0A3AA82AB838D828E83D8E9D9E7758288
:1000F300967583A97404120119758291758300742E
:100103000012011975D00075813F752141752201D7
:10011300759F00020096C09FF59FE473D09F22D085
:1001230083D082C09FE493C0E0740193C0E0740263
:1001330093F59F221404200456045004FF0000B4D6
:10014300000028002800283075A000A000A000A00F
:100153000000080008E001F000100010001000107B
:10016300001000100050005000500010001000D08C
:10017300070000000000000F0001000500307507B4
:10018300001000010081FF00000000FFFFFF0202DA
:10019300027FA001000070A00285A0010000F41CF2
:1001A3000275A001000078010285A0010000F51C82
:1001B3000273A00100008E01FFFF0100FF20027FF8
:1001C300A00100006DA00285A0010000231D02799B
:1001D300A000000000000277A0030000BA0117008E
:1001E300540C540C540C540C540C540C540C540C0C
:1001F300540C540C540C540C540C340E520E2E0E3E
:10020300FFFFFFFEFF11223344556668C90B04014B
:1002130001638253634433221145332211000EC616
:100223004455660044FFFFFFFFFFFFFFFFFFFF0092
:10023300430220000405B46E1B01E8030577100296
:100243000A01C0A8019E000EC6445566045EFFFF66
:10025300FF00C0A8010172375EF4FFFFFFFFFFFF3D
:1002630022600220000405B4016E1BFF001201226C
:10027300F696041201220997041201222A97041206
:100283000122959704120122D69704120122F797AF
:10029300041201221898041201225998041201220F
:1002A300F19804120122399904120122048B0412D9
:1002B3000122178B04120122488B04120122828B24
:1002C30004120122DB8B04120122228C041201226C
:1002D3006A8C04120122998C04120122C88C041224
:1002E3000122FF8C04120122468D041201225F8D2C
:1002F30004120122B48D04120122E28D04120122A0
:100303001C8E0412012233EE0212012236EF021276
:10031300012263EF02120122B4EF02120122D7EF8E
:1003230002120122E9EF02120122ECEF0212012272
:100333002AF0021201229EF0021201220AF1021295
:100343000122D2F102120122EEF10212012225F260
:10035300021201225FF202120122F6F202120122BC
:1003630048F30212012279F3021201227CF30212F2
:100373000122ADF302120122BAF302120122D2F3D7
:10038300021201223CF4021201223FF40212012262
:100393004CF4021201224FF402120122A6F40212BB
:1003A3000122B7F402120122F0F402120122F3F443
:1003B3000212012227F5021201222AF5021201225A
:1003C3007EF502120122C7F502120122D7F50212AD
:1003D30001220AF60212012217F6021201221AF66C
:1003E3000212012282F60212012284F70212012272
:1003F30028F80212012291F802120122CFF8021208
:100403000122A99D03120122A19E03120122D59E5E
:10041300031201226B9F03120122B69F03120122D2
:100423001AA003120122A4A0031201225DA1031248
:1004330001227FA403120122FCA5031201221FA69D
:100443000312012203ED03120122A8EE031201227B
:10045300C8EE03120122E9EF031201223CF003125A
:10046300012267F5031201228FF503120122BCF565
:1004730003120122F4F50312012252F603120122A0
:100483009EF60312012205F70312012245F7031218
:10049300012282F703120122B0F7031201225AF854
:1004A3000312012264F80312012271F803120122DC
:1004B300A4F803120122B0F803120122C8F80312B0
:1004C3000122D2F8031201221BFF0212012229FF8B
:1004D3000212012241FF0212012259FF02120122DC
:1004E30070FF02120122359202120122DF920212E0
:1004F30001225B9302120122799402120122B59424
:100503000212012250950212012234960212012294
:10051300F796021201226F9702120122FD9802122E
:1005230001226E9902120122289A021201221A9BB9
:10053300021201225A9B021201220E9C0212012274
:10054300409C02120122369E02120122789E021260
:100553000122969E021201221B9F02120122DF9F9B
:1005630002120122FEA102120122008004120122C2
:1005730016800412012234800412012245810412E0
:1005830001224F81041201227A8204120122718313
:1005930004120122DE8304120122EDDA0312012286
:1005A30091DB03120122C8DB0312012212DC0312C6
:1005B3000122D1DD03120122D1B80112012282B935
:1005C300011201229EB90112012267BA011201220E
:1005D30071BA011201228BBA0112012296BA0112D9
:1005E30001226CBB0112012249BC01120122A6BCEB
:1005F3000112012236BD01120122EDBD01120122B9
:10060300FBC001120122EAC2011201229CC30112A2
:10061300012265C401120122AAC70112012254C892
:10062300011201227DC90112012239CB01120122DB
:10063300D9CB0112012227CC0112012266CC01126F
:10064300012239CD011201226DCD01120122FACD11
:10065300011201220080021201228C800212012267
:10066300F08102120122FC8102120122378202125E
:100673000122A68202120122AF8302120122B88450
:10068300021201227F8502120122DC86021201225C
:10069300FA8602120122178702120122E28702124E
:1006A30001220A8802120122D48A02120122D98A63
:1006B30002120122F28C02120122408D0212012247
:1006C300B08D02120122EE8D02120122CA8E021295
:1006D30001228A8F02120122D68F02120122D98FA0
:1006E300021201221D9002120122659002120122C0
:1006F300A49002120122C69002120122FA90021261
:1007030001225D91021201227DCC0312012286CCCB
:100713000312012294CC03120122E7CC031201221B
:1007230006CD031201224BCD031201228FCE0312F9
:1007330001222ACF031201226ECF0312012298CF86
:100743000312012207D0031201224DD0031201220A
:10075300C4D00312012275D103120122F7470012FC
:100763000122074800120122A8480012012204496D
:1007730000120122C14900120122DD4A00120122A6
:100783000F4B001201223E4B00120122EB4C0012D0
:100793000122624F00120122D25100120122C452DF
:1007A30000120122BD5300120122C455001201227E
:1007B300B85800120122E75900120122EB5B001224
:1007C3000122FB5C001201228A5E001201227B5F80
:1007D30000120122C95F00120122386000120122B7
:1007E3005C6000120122AD60001201224E6500120E
:1007F30001224F6600120122B06600120122DB665D
:1008030000120122A1670012012260F903120122E2
:100813006AF903120122AFF903120122C3F9031289
:10082300012253FA031201227BFA03120122B6FAC0
:1008330003120122DFFA0312012213FB0312012226
:1008430028FB0312012293FB03120122B4FB0312C0
:100853000122C8FB03120122DDFB0312012217FC54
:10086300031201227CFC03120122BFFC03120122AA
:10087300E9FC0312012225FD031201229BA20412AB
:1008830001225AD8021201223DD902120122B8D9FB
:1008930002120122F3D90212012244DB02120122C5
:1008A300CDDB02120122E5DD0212012277E0021202
:1008B300012229E10212012248E202120122A1E2ED
:1008C3000212012247C2031201228AC20312012229
:1008D3000EC303120122E1C303120122B8C603129D
:1008E30001224DFD03120122FAFD0312012207FF2B
:1008F3000312012246FF03120122A0FF0312012269
:100903002D9F04120122909F041201222DA0041294
:1009130001225BA0041201227CA004120122B7A0D1
:1009230004120122D7A00412012287D1031201224B
:1009330013D203120122D2D203120122EAD30312E9
:10094300012204D603120122588A031201227D8A4E
:1009530003120122518B03120122BE8B03120122C7
:10096300148C03120122B08C03120122E48D0312B2
:100973000122BF8E031201221E8F03120122EF8F69
:10098300031201227B90031201227E9003120122A3
:10099300C890031201223A9103120122E591031236
:1009A30001220592031201224D9203120122699240
:1009B30003120122E39203120122F1920312012294
:1009C300809303120122E9930312012288DF0312A9
:1009D30001220DE0031201224FE00312012233E151
:1009E30003120122A0E103120122E4E10312012216
:1009F30028E20312012255E2031201227DE20312CF
:100A03000122B5E203120122F3E2031201221AE3E7
:100A13000312012294E303120122DEE303120122F3
:100A23000D6800120122DA6900120122C86B00125C
:100A330001221C6C00120122476C00120122F56C8A
:100A430000120122256D00120122546D00120122B1
:100A5300676D00120122A86D00120122D46D0012ED
:100A63000122226E00120122596E00120122A56E8C
:100A730000120122046F00120122976F001201225B
:100A83008170001201227071001201221B73001287
:100A930001223A78001201229378001201227C7A13
:100AA300001201224B7C00120122CD7C0012012294
:100AB3001B7E001201222C7E001201228594041257
:100AC3000122709504120122B395041201220296A9
:100AD30004120122539604120122A4960412012245
:100AE3008AA0011201220BA10112012238A10112D5
:100AF300012281A10112012282A201120122D1A2AB
:100B0300011201224DA401120122CFA401120122DC
:100B13002CA5011201227FA5011201226EA601124A
:100B2300012203A801120122CDA801120122DDA88E
:100B33000112012207A9011201220AA901120122AD
:100B4300EDA901120122D8AA0112012285AB0112DB
:100B53000122E2AB011201223BAC011201229FAC44
:100B63000112012247AD01120122E3AD011201225C
:100B730070AE01120122E5AE0112012241AF011252
:100B83000122A0AF01120122C7AF011201228CB0D2
:100B93000112012278B201120122C1B20112012213
:100BA300F1B20112012264B301120122EAB401126B
:100BB30001229AB501120122BFB501120122FEB52D
:100BC3000112012213B60112012256B601120122AB
:100BD300C6B60112012210B7011201221AB801127E
:100BE30001229BB8011201220C9403120122579493
:100BF3000312012263940312012237950312012287
:100C03004E95031201228B9503120122BC95031208
:100C13000122F495031201224A96031201226096DF
:100C2300031201229C9603120122AF9603120122A2
:100C3300D696031201220A97031201223098031257
:100C430001227A9903120122769A031201228C9BC4
:100C5300031201229D26001201221ABD0312012252
:100C6300C8C003120122FCC10312012275CC021277
:100C730001222ECF0212012234CF02120122E5D12A
:100C8300021201223FD4021201223BD60312012297
:100C9300D2D60312012290D703120122BAD703122C
:100CA3000122F0D903120122F0CE011201222BCF2F
:100CB300011201227FD901120122EBDA0112012272
:100CC300E8DB011201226DDF0112012262E0011251
:100CD3000122AEE001120122C8E00112012209E162
:100CE3000112012212E101120122C4E101120122C7
:100CF30094E201120122DBE20112012241E301121B
:100D03000122B3E301120122848E04120122618FB6
:100D130004120122A58F04120122DF8F0412012283
:100D2300779004120122E69004120122EF9004123C
:100D33000122FB90041201221591041201223F911A
:100D4300041201226F9104120122F5F8021201220A
:100D530002F9021201221CF9021201224FF90212B6
:100D630001228DF902120122F2F90212012207FA7D
:100D7300021201221EFA021201222CFA021201228D
:100D83003BFA0212012250FA0212012265FA021200
:100D9300012270FA021201227CFA0212012289FA5C
:100DA3000212012298FA02120122A3FA021201226C
:100DB300C8FA021201226CFB0212012281FB021209
:100DC300012296FB02120122B0FB02120122CDFB8B
:100DD30002120122EAFB02120122F5FB0212012296
:100DE300A1FC0212012282FD02120122A7FD0212BE
:100DF3000122B2FD02120122C7FD02120122DBFD14
:100E0300021201223CFE0212012242FE02120122C0
:100E130048FE021201224EFE0212012266FE021257
:100E2300012299FE02120122008003120122228074
:100E330003120122EA8003120122A4830312012276
:100E4300BA8403120122DB8503120122B586031241
:100E53000122648703120122F2BE0212012289BF1A
:100E63000212012221C00212012211C10212012227
:100E730048C1021201225BC102120122C9C102123E
:100E8300012264C3021201228BC3021201222DC468
:100E93000212012262C40212012273C4021201224D
:100EA300ECC4021201220DC50212012225C5021251
:100EB30001227DC60212012286C802120122D6CA6D
:100EC30002120122D9CB0212012228CC02120122E2
:100ED3000BA20212012208A302120122F3A302129F
:100EE3000122FDA3021201221FA4021201222BA43C
:100EF300021201227DA502120122ACA502120122D7
:100F0300DCA6021201221EA7021201224AA8021223
:100F1300012220A90212012272A902120122D1A9DF
:100F23000212012208AA0212012243AA021201227A
:100F3300DEAD02120122F7AD0212012279AE0212D6
:100F4300012287AE02120122DCAE02120122EAAEB6
:100F53000212012257AF02120122C9AF021201226B
:100F63000FB002120122E5A0041201220AA1041209
:100F730001227BA10412012272AF031201227BAF73
:100F83000312012284AF03120122B5B0031201221E
:100F9300D4B2031201220AB30312012244B303128F
:100FA30001227AB303120122B4B303120122E8B37C
:100FB3000312012214B4031201225DB403120122AD
:100FC30097B403120122DFB40312012235B50312D1
:100FD30001226AB503120122C5B503120122FFB52E
:100FE3000312012250B60312012286B60312012214
:100FF300C0B603120122E3B6031201225FA5041255
:1010030001228BA504120122E6A504120122F0A5F8
:101013000412012200A60412012288FA01120122FD
:1010230092FA01120122D0FA0112012219FB0112D4
:10103300012253FB01120122ADFB01120122CEFB5F
:1010430001120122D7FB0112012228FC0112012205
:1010530051FC0112012266FC01120122D7FC01128C
:10106300012265FD01120122A2FD01120122D2FD1E
:101073000112012256FE0112012296FE01120122E3
:10108300CEFE01120122E0FE01120122FFFE011237
:10109300012208FF01120122C2FF011201226AC7C5
:1010A300031201225FC80312012279C8031201222D
:1010B3008AC803120122BFCA03120122DECA031225
:1010C30001229D9104120122E1910412012217923F
:1010D30004120122FF9304120122599404120122E3
:1010E3006294041201226B940412012264A8041274
:1010F30001227AA80412012284A80412012249F1D0
:101103000312012262F10312012206F203120122E9
:1011130046F2031201225FF20312012293F2031239
:101123000122E0F20312012214F30312012256F307
:10113300031201225AF503120122DAA80412012232
:101143000AA60412012233A6041201225CA6041289
:10115300012274A6041201226B9B04120122879BB5
:1011630004120122049C04120122209C0412012275
:10117300839C04120122249D0412012271B70312DD
:101183000122B0B70312012239B8031201224EB86B
:101193000312012299B803120122D8B803120122C3
:1011A300E7B8031201229CB903120122F5B9031215
:1011B300012244BA0312012297BA03120122ACBBE3
:1011C30003120122A5BC03120122E2BC0312012275
:1011D300A826001201228A2800120122B62B00122F
:1011E3000122922C00120122722D0012012246309C
:1011F30000120122853000120122BD3000120122AB
:10120300D930001201226A3100120122AF310012DB
:101213000122C63100120122D534001201220D35FC
:101223000012012210350012012238380012012267
:10123300E838001201222F3900120122653A001208
:101243000122B63B001201220C3E00120122623F32
:1012530000120122204000120122A44100120122A7
:101263009D4200120122AE44001201228446001264
:101273000122CA4600120122FE46001201228247C1
:101283000012012298B00212012251B1021201226E
:10129300D0B1021201226DB50212012291B50212E0
:1012A300012237B70212012247BB0212012298BB67
:1012B30002120122EDBB0212012252BC02120122D0
:1012C30064BC0212012231BD0212012263BD02126B
:1012D300012293BD02120122BFBD02120122E7BD0A
:1012E3000212012239A904120122FFE40112012290
:1012F30075E701120122EDE8011201224EE9011204
:101303000122EDE901120122DFEA0112012264EB5D
:1013130001120122E0EB0112012205EC011201226C
:10132300CEEE0112012242EF011201222EF0011230
:10133300012268F001120122A8F00112012262F2D7
:101343000112012293F201120122E6F2011201229B
:101353002FF3011201229DF301120122CFF3011297
:101363000122E7F301120122FCF4011201220CF520
:101373000112012271F60112012291F601120122DA
:10138300C7F60112012274F801120122F4F80112C6
:10139300012233F9011201225AFA01120122519D4D
:1013A30004120122AE9D04120122719E0412012235
:1013B300909E04120122E69E04120122EBFF031207
:1013C3000122E9A90412012228AA04120122ECFF36
:1013D30001120122B0A604120122C0A604120122A6
:1013E300D8A60412012240A704120122AFA30412BB
:1013F300012234A4041201229AA404120122D9A7BF
:1014030004120122E1A70412012216A804120122E8
:10141300B3A404120122D4A404120122E7A40412E7
:101423000122F9A40412012226A5041201229AE83A
:1014330003120122AEE80312012227E9031201225B
:1014430000EA03120122BEEC03120122E883041214
:101453000122788404120122F684041201227F857A
:10146300041201222D8604120122B78604120122DE
:10147300C88604120122D78604120122ED860412C3
:10148300012200870412012260870412012274875B
:10149300041201224AE3021201229AE302120122F8
:1014A300FBE30212012243E40212012281E402124D
:1014B3000122B0E402120122DFE4021201227AE5E2
:1014C300021201226FE702120122C4E70212012273
:1014D300CFE80212012263EA0212012283EB021215
:1014E30001226BEC02120122C7EC0212012272EDFF
:1014F3000212012283ED02120122FDED02120122EA
:101503001EE403120122A5E403120122F1E40312F3
:101513000122B4E503120122E3E50312012214E6DA
:1015230003120122DDE7031201227EE803120122E6
:101533004AA704120122B3A704120122BEA7041270
:101543000122CEA7041201224F7E00120122A47EA3
:1015530000120122127F00120122827F0012012257
:10156300778704120122A187041201229B880412A7
:101573000122C08804120122578904120122D98949
:101583000412012242A703120122FFA70312012220
:101593003AA80312012262A803120122C4A803126B
:1015A300012210A90312012269A903120122FAA937
:1015B30003120122FCAA03120122B9AC0312012275
:1015C3003BAD03120122A0AD03120122B7AD0312FA
:1015D3000122C7AE0312012205AF0312012264994F
:1015E300041201228D9904120122D19904120122BD
:1015F300419A04120122379B04120122419B0412D7
:1016030001224B9B04120122569B04120122609B70
:101613000412012232AA04120122D67F00E066706E
:101623001008A3E066700A08A3E066700408A3E04C
:101633006622C3E7960809E7960809E7960809E7CB
:101643009622C3E09608A3E09608A3E09608A3E0D9
:101653009622C008C3E096F50808A3E0964208085E
:10166300A3E096420808A3E09645087001D3D0088A
:1016730022080808EAC0E0EBC0E086F0E7A4FA1805
:101683000986F0E7A42AFA180986F0E7A42AFA18CB
:101693000986F0E7A42AFA1986F0E7A4FBE5F02A05
:1016A300FA190886F0E7A42BFBE5F03AFA19088645
:1016B300F0E7A42BFBE5F03AFA18180986F0E7A443
:1016C300C5F02BFBE43AFA1908E7C5F0C6A426F6E1
:1016D300E5F03BFBE43AFA1886F0E7A4F6E5F008F8
:1016E30026F6E43B08F6E43A08F6D0E0FBD0E0FA4D
:1016F30022E4CFC0E0E4CEC0E0E4CDC0E0E4CCC05F
:10170300E075F020E626F608E633F608E633F60839
:10171300E633F6181818EC33FCED33FDEE33FEEF29
:1017230033FFC3EC9709ED9709EE9709EF97191962
:1017330019400FFFEC97FC09ED97FD09EE97FE1991
:101743001906D5F0BFECF709EDF709EEF709EFF746
:10175300191919D0E0FCD0E0FDD0E0FED0E0FF2263
:101763006016080808C6C313C618C613C618C613DE
:10177300C618C613C6D5E0EA227009080808226015
:1017830016181818C6C333C608C633C608C633C6E8
:1017930008C633C6D5E0EA22E627F60809E637F697
:1017A3000809E637F60809E637F622E026F608A325
:1017B300E036F608A3E036F608A3E036F622E02684
:1017C300F008A3E036F008A3E036F008A3E036F013
:1017D30022C3E697F60809E697F60809E697F6089E
:1017E30009E697F622C3E096F008A3E096F008A373
:1017F300E096F008A3E096F022E657F60809E657CC
:10180300F60809E657F60809E657F622E056F60801
:10181300A3E056F608A3E056F608A3E056F622E046
:1018230056F008A3E056F008A3E056F008A3E056EC
:10183300F022E066F608A3E066F608A3E066F60881
:10184300A3E066F622E0F608A3E0F608A3E0F608B4
:10185300A3E0F622E6F008A3E6F008A3E6F008A367
:10186300E6F022E0FAA3E0FBA3E0FCA3E0FD22EA1A
:10187300F0A3EBF0A3ECF0A3EDF022E0F8A3E0F982
:10188300A3E0FAA3E0FB22E8F0A3E9F0A3EAF0A3C4
:10189300EBF022CAC0E0E6F0A308DAFAD0E0FA22BD
:1018A300CAC0E0E0A3C582CCC582C583CDC583F0A1
:1018B300A3C582CCC582C583CDC583DAE6D0E0CA91
:1018C30022C3E498F8E499F91219058026C3E49A2F
:1018D300FAE49BFBE920E7E9121905E498F8E49997
:1018E300F922C3E498F8E499F9121905E498F8E4A5
:1018F30099F9C3E49AFAE49BFB22EB20E7CFE920B2
:10190300E7E0B90010BB0008E88AF084F8AAF022E7
:10191300E4FBC8FA22EB70227B10C833C8C933C971
:10192300335007C39AC3DBF280069A50012ADBEADD
:10193300C833F4C8C933F4C9FA2275F008E4C833CC
:10194300C8C933C933C99AC99B5004C92AC93BD5ED
:10195300F0ECFBC833F4C8E4C9FA22600D08C6A250
:10196300E713C618C613C6D5E0F322600C08C6C336
:1019730013C618C613C6D5E0F422700422600D18EE
:10198300C6C333C608C633C6D5E0F41822252110D2
:10199300AF08F521400C15228008F52140021522DD
:1019A300D2AF2200C0D0252110AF08F521500C057D
:1019B300228008F52150020522D2AFD0D022252162
:1019C300F58210AF08F521400C15228008F521405F
:1019D300021522D2AF852283222521F582E4352206
:1019E300F583222521F8E43522F9222521FAE4356D
:1019F30022FB222521FCE43522FD22E4732521C5A7
:101A030082C0E0E52234FFC583C0E0E521C39582AF
:101A130024F810AF088583228582218008858322DC
:101A2300858221D2AFCEF0A3E520F0A37808E608A3
:101A3300F0A3DEFAEFF0A3E58124FAF8E608F0A3B9
:101A4300E608F0A3E608F0A30808E608F0A3E60812
:101A5300F0A315811581D0E0FED0E0F81581158142
:101A63001581E8C0E0EEC0E0222521C582C0E0E593
:101A73002234FFC583C0E0E521C3958224F910AF6A
:101A8300088583228582218008858322858221D24D
:101A9300AFCEF0A3E520F0A37808E608F0A3DEFAC2
:101AA300EFF0A3E58124FBF8E608F0A3E608F0A332
:101AB3000808E608F0A3E608F0A315811581D0E035
:101AC300FED0E0F815811581E8C0E0EEC0E0228584
:101AD3002283852182E0A3FEE0A3F5207808E0A31A
:101AE300F608DFFAE0A3FFE0A3C0E0E0A3C0E0E074
:101AF300A3C0E0E0A3C0E0E0A3C0E010AF0885828C
:101B0300218583228008858221858322D2AFD083D9
:101B1300D08202011F852283852182E0A3FEE0A3F8
:101B2300F5207808E0A3F608DFFAE0A3FFE0A3C0FE
:101B3300E0E0A3C0E0E0A3C0E0E0A3C0E010AF0892
:101B43008582218583228008858221858322D2AFE5
:101B5300D083D08222C0D02521C582C0E0E52234C3
:101B6300FFC583C0E0E521C3958224F310AF088548
:101B730083228582218008858322858221D2AFC872
:101B8300F0A3E9F0A3EAF0A3EBF0A37908E709F0E7
:101B9300A3D8FAECF0A3EDF0A3EEF0A3EFF0A3D0FB
:101BA300E0F0A3D0E0F0A3D0E0F0A3E520F0A3E5BC
:101BB300F0F0A322852283852182E0C0E0A3E0F92F
:101BC300A3E0FAA3E0FBA37808E0F608A3DFFAE0BA
:101BD300FCA3E0FDA3E0FEA3E0FFA3E0C0E0A3E0DD
:101BE300C0E0A3E0F5D0A3E0F520A3E0A3F5F01057
:101BF300AF088583228582218008858322858221FF
:101C0300D2AFD082D083D0E0F8D0E0327404800623
:101C1300740280027401C0E0F4041219C1D0E0120E
:101C23001896227404800474028000CCC0E0EDC0D6
:101C3300E0E521C39CCCAD2250011D10AF068C21E1
:101C43008D2280068C218D22D2AF1218A3D0E0FD05
:101C5300D0E0FC22D083D082E9C0E0E493A3C38622
:101C6300F0C5F095F0F908E493A386F0C5F095F07C
:101C7300700BE493A3C3994005E9048002A3E475C0
:101C8300F002A42582F582E5F03583F583D0E0F9EF
:101C9300E493A3C0E0E493C0E022D083D082ECC0FD
:101CA300E0EDC0E0E493A3FCE493A3FDED4C600DF1
:101CB300121CE9EC24FFFCED34FFFD80EFE493A359
:101CC300FCE493A3FDED4C600D121D28EC24FFFCF6
:101CD300ED34FFFD80EFD0E0FDD0E0FCE493A3C042
:101CE300E0E493C0E022C0E0C3E493960874019358
:101CF3009618400FE4936670080874019366187091
:101D0300007019A3A3C3E49396087401939618A3D0
:101D1300A3400DD0E0D0E0D0E0021CD9A3A3A3A33D
:101D2300A3A3D0E022C0E0C0F088F0E4936670087B
:101D33000874019366187000A8F0A3A3700BD0F089
:101D4300D0E0D0E0D0E0021CD9A3A3D0F0D0E022B1
:101D540074F6121A6CEAFEEBFF8C088D09EE24343B
:101D6400F8E43FF9E8FCE9FDEE2435122049FAEEE7
:101D74002437122049F88508F0A4C885F00A85099B
:101D8400F0A4250AF9EA28F8E439F97A257B001247
:101D94001905EA8C828D83F0FA131313541FF8EE9D
:101DA40028F8E43FF9E8245DF582E439F583E0C0DE
:101DB400E074075AF8D0E0B800028004C313D8FCDA
:101DC400A2E0EE50082434F582E43F801824361251
:101DD4002049F5F0EA84A8F0EE28F8E43FF9E82475
:101DE40038F582E439F583E0F97F03021B1874F7B0
:101DF400121A6CEAFEEBFFEE2434122049C0E0EE26
:101E04002435F582E43FF583D0E0F08E828F83A3FE
:101E1400A3A3A3A3A3A3C082C0838E828F83A3A3FF
:101E2400A3A3A3121EBAD083D082E0C398F508A35B
:101E3400E099F509EE247F1220496401705DEE24D7
:101E440080121EB48E828F83A3A3A3A3A3A3A31281
:101E540021EC8E828F83A3A3A3A3A3E0FAA3E0FBC8
:101E6400C3EA9CEB9D5010C3EC98ED99402DC3EA56
:101E740098EB995026800EC3EA98EB994007C3EC7F
:101E840098ED9940167C7D7D05EEFAEFFB120B88E8
:101E9400EE247FF582E43FF583E4F0AC08AD09EE6F
:101EA400FAEFFB121D54E9F91225B77F02021B1841
:101EB400F582E43FF583E0F8A3E0F92274EF121A07
:101EC4006C900229E064086005E06407702A906160
:101ED400C8E06024900257E0F4601DE0F875F00C4F
:101EE400A4C8AAF02AF9745928FE740239FF8E8214
:101EF4008F83A3A3A3E07003021FCE906060E0C0B1
:101F0400E0EE2468F582E43FF583D0E0F0750CB987
:101F1400750D05750800750900E5D914F50AE5D9AC
:101F24005403F50E60127403650E6043E50A600AFB
:101F3400EE2467122049700280759005B4E06401B4
:101F4400601F12204660047A0480027A00E50AC306
:101F54009AFA95E0FB120A328A088B09EA4509705D
:101F640005120E0A806412204670048A0C8B0DE55B
:101F74000A6012850C82850D83F50BE5D9F0A31553
:101F84000BE50B70F6122046604474FC250AF50A32
:101F9400780C121C13AC0AA90EEEFAEFFB120C4ECD
:101FA40074021219A6E97026AA08AB0912154E7913
:101FB4003D8E828F83A3A3A3A3E0FA7B001208AC17
:101FC400EEFAEFFB120BAC120CAE7900806F7403C7
:101FD400650E6051850A107511007810121C13AC3F
:101FE4000CAD0DAA08AB09120C1274021219A6EE5C
:101FF400246812204964807004747F8001E0F50C29
:10200400780C121C17E50EF50C780C121C17A90A93
:10201400AC08AD09900257E0FA7B0012087C740208
:102024001219A68013900229E06408700BAC0CAD61
:102034000DEEFAEFFB120C7E120E1679017F0A02E6
:102044001B18EE2482F582E43FF583E02274F21239
:102054001A6C74FC121990EAFEEBFF8909A2AFE432
:1020640033F508C2AF02210DE0601B780C121C137B
:10207400AC0BA90EEEFAEFFB120C4874021219A66F
:102084007404250BF50B7401250BF5D9850ED9E5E0
:102094000B6018F50A850C82850D83E0F5D9A385BC
:1020A400820C85830D150AE50A70EA75E195EE2424
:1020B40063F8E43FF97A007B00A2AFE433F50BC286
:1020C400AF1221E8EC4D603288828983E0FAA3E004
:1020D400FB8A828B831221EC88828983ECF0A3ED46
:1020E400F08A828B83E4F0A3F01221E8EC4D700AAD
:1020F40088828983A3A3E4F0A3F0E50BA2E092AF66
:1021040012154E900584E004F0EE2463121EB4E828
:10211400496064EE24631220492402F8A3E03400E9
:10212400F988828983E5822402F50CE43583F50D70
:10213400E0F50BA3E0F50EEE246212204964017071
:10214400369061D0E0F812204660047C0480027C62
:10215400007480C398FA95E0FBE50B2CF8E4340096
:10216400F9E82402F8500109C3EA98EB99A2D26570
:10217400D033400302206C900584E0604D900585C7
:10218400E0F8900584E0C398500C74026509703A35
:10219400900586E060348E828F83A3A3A3A3E08599
:1021A40021828522831221DE74021219DCE81221B5
:1021B400DE900583E028F074021219F6AA21AB22FE
:1021C40079011208D6900584E4F0E508A2E092AF04
:1021D40074041219A67F07021B18F0A3E4F09005FB
:1021E40084E0F82288828983E0FCA3E0FD220000D9
:1021F4008523878524C622C0E074EB121B58A2AF46
:10220400E433F508C2AF759B00906182E0A2E05010
:1022140030E591A2E0502A7591FE74016523702186
:1022240012238E120D3E12237C121C261224F374E8
:10223400041219A6E9640170057901120D6E121ECB
:10224400C0906182E0A2E5505DE591A2E55057752A
:1022540091DF900229E064076005E06408702F12A2
:10226400238E74016523703E120D3E12237C121CD2
:10227400261224F374041219A6E964017005790185
:10228400120D6E7901EEFAEFFB1220518018E06412
:102294000D701390024BE004F064287002E4F07AAD
:1022A40000E0F9120E1C906182E0A2E640030223D2
:1022B40051E591A2E640030223517591BF90022992
:1022C400E064057008120D26120D328003120D2CE5
:1022D400752300120D8CE990022AF07900120D6E1C
:1022E400120AF27A017B00900228E0F9121074902D
:1022F4007803E0644270569005B8E014F0704EC262
:10230400AF122308007826D0E0F618D0E0F6E59F57
:102314005407F87005750DFF8003750D7FC4C0E088
:102324007825E6F50A08E6550DF50B740B780A12C4
:10233400196ED0E0250AF8906270E0A2E740F8E850
:10234400C333906272F0906270E0D2E0F0906181E9
:10235400E0A2E35009E5E9A2E3500375E9F7A3E03D
:10236400A2E75009E591A2E7500375917FE508A221
:10237400E092AF7F08021BB78E828F83E0F8A3E060
:10238400C82416F582E438F58322900257E0F875E4
:10239400F00CA4C8AAF02AF9745928FE740239FF73
:1023A40022C0E0C0D0C082C083906183E0A2E0502C
:1023B40009E5BFA2E0500375BFFEE0A2E15009E5C4
:1023C400BFA2E1500375BFFDE0A2E25009E5BFA240
:1023D400E2500375BFFBE0A2E35009E5BFA2E3505E
:1023E4000375BFF7E0A2E45009E5BFA2E45003750A
:1023F400BFEFE0A2E55009E5BFA2E5500375BFDFDA
:10240400E0A2E65009E5BFA2E6500375BFBFD08342
:10241400D082D0D0D0E032C0E074F2121B58E5A7CD
:10242400A2E6500FE5A1A2E6500953A7BF75A1BFCC
:1024340012246FE5A7A2E5500CE5A1A2E5500653CE
:10244400A7DF75A1DFE5A7A2E15009E5A1A2E1504C
:102454000375A1FDE5A7A2E2500CE5A1A2E2500696
:1024640053A7FB75A1FB7F01021BB774F7121A6C0B
:10247400752301900229E064067015120CD28A8239
:102484008B83A3A3A3A3A3A3E0FAA3E0FB120D14DD
:10249400A2AFE433FED2AF90022FE0640170187A49
:1024A400207B00900228E0F91211227A207B009010
:1024B4000228E0F912107A906182E0D2E6F09005E9
:1024C400B5E0602185C624801690022EE064017078
:1024D40008E5C654F84405F5C653BEFC1221F4744D
:1024E40001652360E4EEA2E092AF7F02021B187440
:1024F400F1121A6C8A088B098C0A8D0B90A005784E
:102504000812180F740F1219DC780C12184890A0D6
:1025140005780C12180F7808790C12163590A03D26
:1025240050107808790C1217D478081216554014F4
:10253400800E780C79081217D4780C1216555004B2
:102544007901800279007F08021B1874ED121A6C5D
:102554008A088B098C0A8D0B90A005780812180F35
:1025640074131219DC780C12184890A005780C1218
:10257400180F780C790812163540117808790C1266
:1025840017D4AA08AB09AC0AAD0B802275100075EC
:1025940011007512007513017810790C1217D47894
:1025A40010790812179BAA10AB11AC12AD137F0C53
:1025B400021B18C082C083E9906000F0D083D082EF
:1025C40022C2AF02000022C0E074F2121B58A2AF74
:1025D400E433FED2AFC2C0E5D1A2E4500653D1EF3A
:1025E40012148EEEA2E092AF7F01021BB7C0E0741A
:1025F400F2121B58E5A8FED2AF121428C2EBEEA2C9
:10260400E7A2E792AF7F01021BB7C0E0C0D0E8C0E9
:10261400E0E9C0E0E5A8D2AFC2C7A2E7A2E792AF63
:10262400D0E0F9D0E0F8D0D0D0E032C0E074F212BB
:102634001B58A2AFE433FCD2AF901B00E0F8A3E038
:10264400F9A3E0687003A3E069700A539AFB901B36
:102654000474018039C2E9901B00E0F8A3E0F9E8B2
:102664002401FAE439FB901B00EAF0A3EBF0747048
:1026740028F582741939F583E0F5C1901B00C3E095
:102684009490A3E094014007901B00E4F0A3F0ECC5
:10269400A2E092AF7F01021BB702011FFFFFFFFF01
:1026A400FFFFFFFF74F0121A0074F7121990E98506
:1026B4002182852283F09017A8F0852182852283C8
:1026C4007408F0AC21AD2279017A047B04121182E2
:1026D4007C707D177A027B001204627C707D177A0D
:1026E400037B001204627CC87D007A197B0012040B
:1026F400627A157B001204688A0E8B0F7A167B00AF
:102704001204688A0A8B0B7A1A7B001204688A08FE
:102714008B097A197B001204688A0C8B0D7A627B10
:102724009E121164AA0EAB0F12116A121164AA0A46
:10273400AB0B12116A121164AA08AB0912116A12C6
:102744001164AA0CAB0D12116A1211647C877D9876
:102754007A15790012059A74051219DC74C7F0A36E
:10276400744CF0A3E4F0A3F074041219DC7401F0C7
:1027740074031219DCE4F074021219DCE4F004129C
:1027840019DC7401F074051219F679047A087B04D3
:102794001212EA74041219F679017A007B041212F7
:1027A400EA74031219F679017A027B041212EA74AC
:1027B400021219F679017A037B041212EA740112E7
:1027C40019F679017A067B041212EA1205B89017F9
:1027D400A8E0F91205BE90A0111218661205A09087
:1027E400A01112186612077A9017A8E0F912114C7A
:1027F4009017A8E0F912115812152490A019121C70
:10280400267A087B009017A8E0F9121116740412B6
:1028140019A690A019121C267A107B009017A8E024
:10282400F912111674041219A690A029121C267A02
:10283400207B009017A8E0F912111674041219A64F
:1028440090A015121C267A407B009017A8E0F9127C
:10285400111674041219A690A015121C267A807BF6
:10286400009017A8E0F912111674041219A67A0040
:1028740079031214347A017B009017A8E0F912103E
:1028840074740902303E74F0121A0074FE12199026
:10289400EAFEEBFF5480700302291F9017A8E0F9A9
:1028A40012105C8A088B09EA450960678A828B8367
:1028B400E02450600A24F0603524DF6007804D1264
:1028C40011E88048A3A3E024CF60181460101460BA
:1028D400081470141212068033121200802E121182
:1028E400FA80291211F480247A917B9E801BA3A381
:1028F400A3E0F50AA2E050077AC97B9B121164E5B4
:102904000AA2E150077AB67B9B121164AA08AB09AC
:1029140012104AEEFAEF6480022BACEEA2E05014DF
:102924007A257BA012117C7A217BA0121314EE6409
:1029340001022BAA5402604C90A081AC21AD2274F8
:10294400021218A39017B0F0A3F09017AE1234B689
:102954009017B4F0A3F09017B2F0A3F09017AD0461
:10296400F09017A8E0F5087808121C177902740192
:102974001219F61246C11205C474011219A6EE64A6
:1029840002022BAAEE540460091211F4EE6404024C
:102994002BAAEF5401601E9017ACE06401700E7A0C
:1029A400667B891211647AFE7BFF121188EEFAEFBE
:1029B4006401022BACEE5408602090A019121C266E
:1029C4007A087B009017A8E0F91211167404121902
:1029D400A612123CEE6408022BAAEE54106020905A
:1029E400A019121C267A107B009017A8E0F9121186
:1029F4001674041219A6121242EE6410022BAAEEE7
:102A04005420602490A029121C267A207B00901761
:102A1400A8E0F912111674041219A67AE87B0312BD
:102A2400152AEE6420022BAAEE54407003022AD227
:102A34001210E68A088B097A167B9F121164AA0881
:102A4400AB0912116A1211641210DA8A088B097A1E
:102A5400CA7B9E121164AA08AB0912116A1211648E
:102A64001210E08A088B097A227B9F121164AA084B
:102A7400AB0912116A12116490A015121C267A4037
:102A84007B009017A8E0F912111674041219A6908D
:102A940017C5780C121848850C08850D09850E0A8F
:102AA400850F0B909FE578081217AE9017C5E508BF
:102AB400F0A3E509F0A3E50AF0A3E50BF0AA0CAB3B
:102AC4000DAC0EAD0F12124EEE6440022BAAEE5462
:102AD400807003022BAF90A015121C267A807B0015
:102AE4009017A8E0F912111674041219A69017C5CC
:102AF4007808121848909FE5780C1218489017C56A
:102B0400780C1217C179009017B81246C4121272C9
:102B14008B0DEA450D600A7AAC7B80121164022B9E
:102B2400A77A3B7B801211647A0E7B001210CE8A46
:102B34000E8B0FEA450F606B8A828B837425F0A39A
:102B440078081218578A828B83A3A3A3A3A3E41241
:102B540042917406F0F5087509007808121C137C7C
:102B64006B7D1DEA2407FAE4350FFB121020740272
:102B74001219A6E50E240DF582E4350FF5837423AE
:102B8400F07A907B8512116475081075092778080E
:102B9400121C13AC0EAD0F7AB87B1712125A7402C2
:102BA4001219A6EE6480FAEFFB80047A007B00021F
:102BB400303C74F6121A0074F91219907A227B963A
:102BC4001211649017ACE064026003022C81123885
:102BD400237003022C819017C9E06003022C81E466
:102BE400F508F5097808121C137C081246BD120773
:102BF4005074021219A674031219DCEAF0A3EBF064
:102C040074031219DC123826607A9017B4123BA5AB
:102C140074021219DC7408F074031219DCE0FCA3CA
:102C2400E0FD7583177582D874081218A374051211
:102C340019DCE4F074061219DCE41230291205D60A
:102C4400E9FE7AB27B8E121164EEF9121170121140
:102C540064EE700E901D747406122D6A7A5B7B917B
:102C6400801F7912AA21AB221207569017ED740423
:102C7400F07ACB7B8312116412120680077A987B58
:102C84008212116474071219A67F02021AD274F612
:102C9400121A0074F91219907AB47B92121164908A
:102CA40017ACE064026003022D609017B612382658
:102CB4007003022D609017C9E06003022D60E4F5F3
:102CC40008F5097808121C137C0D1246BD12075032
:102CD40074021219A674031219DCEAF0A3EBF0745F
:102CE400031219DC123826607A9017B6123BA574C9
:102CF400021219DC740DF074031219DCE0FCA3E079
:102D0400FD7583177582E0740D1218A374051219EA
:102D1400DCE4F074061219DCE41230291205D6E959
:102D2400FE7AB27B8E121164EEF9121170121164E4
:102D3400EE700E901D747407122D6A7A447B8D8098
:102D44001F7912AA21AB22120756901D747404F045
:102D54007A3C7B8212116412120680077A4D7B81C1
:102D6400121164022C88F09017C97401F02274F0D7
:102D7400121A0074FC121990EAFEEBFF9017ACE0F3
:102D84006402600A7ADB7B981211640230047A329E
:102D94007B93121164EE2404123B98F91211701201
:102DA4001164850A82850B83E0F8740B68602E74C5
:102DB40001686003022F7B8E828F83A3A3A3A3A346
:102DC400E0F8EE2408F582E43FF583740A686003B2
:102DD400022FA2E0F5087A1E7B89022FAE750E1F22
:102DE400750F9A750CDC750D9B8E828F83A385827B
:102DF400088583099017EDE064016003022EA41294
:102E040030087CD07D1774081218A37AB27B95120F
:102E1400116479087AD07B171211769017C9E4F0FF
:102E24007AC87B9C121164850882850983E0F912B3
:102E340011701211647A987B971211649017ACE0A8
:102E44006402705512382360509017C9E0704A74B8
:102E5400021219DC123BB09017A8E0F9740212199F
:102E6400F61246C11205CAE9F508AA0CAB0D1211F7
:102E740064A908121170121164E508700D9017ED21
:102E84007402F09017C914022F299017EDE4F07A18
:102E94008A7B89121164022FE07ACC7B86022F2E62
:102EA400E064026003022F341230087CD87D17746A
:102EB400081218A37A147B9712116479087AD87BC4
:102EC400171211769017C9E4F07A197B93121164E2
:102ED400850882850983E0F91211701211647A322F
:102EE4007B921211649017ACE0640270AC9017B638
:102EF40012382660A49017C9E0709E12301F120584
:102F0400CAE9F508AA0CAB0D121164A908121170D4
:102F1400121164E5086003022E8E9017ED7403F01D
:102F24009017C97401F0AA0EAB0F121164022FF2AC
:102F3400E064036003022FF21230087CE07D177412
:102F44000D1218A37A4C7B92121164790D7AE07BEE
:102F5400171211769017C9E4F09017EDF07A607BA0
:102F64008F121164850882850983E0F912117012A9
:102F7400116412123680777413687065901D74E0C2
:102F8400640770389017C9E4F07A9C7B941211643A
:102F9400790D7AE07B171211761211DC80507412CD
:102FA40068703EE0F5087A3F7B87121164A9081225
:102FB40011701211649017C9E4F08020E064067067
:102FC4002D9017C9E4F0901D747404F07A2F7B9946
:102FD40012116479087AD87B1712117612120680BE
:102FE4000D9017ADE06007EEFAEFFB121224850A8C
:102FF40082850B83E0F9EE2405FAE43FFB120756C1
:10300400740480368E828F83A3A3A3A3A3A3123058
:103014001622E0F8A3E0F5838882228521828522A6
:1030240083E8F0A3E9F09017A8E0F9AC21AD229071
:103034001D69E0FAA3E0FB2274021219A67F0802BC
:103044001AD274F7121A007F008F82A882EA28F538
:1030540082E43BF583E0FEEC28F582E43DF583E071
:103064006E600B7A0C7B94121164790080100FEF60
:10307400C3940640D47AC47B971211647901023157
:103084006574F7121A009017AAE070267401F09084
:1030940017A9E4F0FBFA7903121194E9FE7A027B92
:1030A4009E1211647A8B7B9F121164EEF9121170D7
:1030B40080047A807B9C023162C082C0839017AA0C
:1030C400E0600BE4F012119A7A757B9F80047AFC1D
:1030D4007B9C0231A574F7121A009017ACE070754E
:1030E4007401F07CCA7D177B007A00F912118EE915
:1030F400FE702E7AAE7B9E1211647ACA7B1712126E
:103104007E12116490A019121C267A007B0190177C
:10311400A8E0F912111674041219A67AAE7B9780EE
:10312400389017ACE4F07A6A7B8C121164EEF912D1
:1031340011701211647A837B9A121164909FE912C0
:103144001C267A047B009017A8E0F9121116740467
:103154001219A680077AD07B891211648003121198
:10316400647F01021AD2C082C0839017ACE064016C
:103174006005E06402700F7403F01246C1121188F6
:103184007A387B9C8016E070077A6D7B9512116407
:103194009017ACE0640370077AC67B9812116480C0
:1031A40003121164D083D08202011F74F7121A0033
:1031B400E9FE7AA97B9F121164EEF404F9121170EE
:1031C400809C74F4121A00EAFEEBFFEE2405F50865
:1031D400E43FF5098E828F83A3A3E0602314700378
:1031E40002334924FC700302338014700302343E1A
:1031F4001470030234A024FA70030232AF0234A71D
:103204007A827B8D1211647AC27B9D121164EE2442
:1032140003FAE43FFB12127E121164781379787A70
:103224000088828983E0C0E0746B2AF582E4341D4F
:10323400F583D0E0F0E824FF18E934FFF90AEAC383
:10324400940640DD7508067509007808121C137C85
:103254006B7D1D7A837B1D12102074021219A678CF
:1032640008121C137C6B7D1D7A6B7B1D121020745D
:10327400021219A67AEC7B8E12116479067A6B7BA2
:103284001D1211767A7E7B8612116479067A837B0D
:103294001D1211767A1E7B8312116479067A6B7B78
:1032A4001D1211767A827B970234847A3A7B9F12BC
:1032B4001164AA08AB0912127E1211647AB27B9DC2
:1032C400121164EE240CF582E43FF583E0F9124018
:1032D400161246C41211767871791D7E05E8FCE950
:1032E400FD8C828D83A3A882A983E5082EF582E450
:1032F4003509F583E0FF8C828D83E06F70391EEE13
:10330400C3940350D87A127B9E121164750A067511
:103314000B00780A121C13AC08AD097ACA7B171289
:10332400102074021219A67A467B9F12116412119E
:10333400FA1212000234A77A027B9C1211647A6397
:103344007B900234A49017AAE4F07A647B93121160
:10335400649017ACE0701E909FE9121C267A047BDF
:10336400009017A8E0F912111674041219A67A64D1
:103374007B960234A47A7A7B960234A47A007B0189
:103384009017A8E0F91211228E828F83A3858208F8
:10339400858309E09017AC60030234207402123E66
:1033A400061234AE901D69E8F0A3E9122D6A901755
:1033B400B2123826600D12382360089017B61238FE
:1033C400267017909FE5121C267A027B009017A89E
:1033D400E0F912111674041219A67AFD7B911211E8
:1033E40064EE2404FAE43FFB12127E1211647A3371
:1033F4007B9A1211641246C112116A121164901759
:10340400ABE060117A927B9C1211647CE87D03121C
:1034140046C11211A07AAC7B930234A41234C07A50
:103424001E7B9B121164850882850983E0F91211C1
:10343400701211647AE37B9480467A007B019017C2
:10344400A8E0F91211229017AC1234C09017B2F010
:10345400A3F09017B41234B69017EDF0901D747465
:1034640004F09017C9E4F07A2F7B9D12116485084B
:1034740082850983E0F91211701211647A837B9AB0
:10348400121164909FE9121C267A047B009017A8FD
:10349400E0F912111674041219A680077A487B9871
:1034A40012116479007F04021AD2A3A3E0F8A3E006
:1034B400F922F0A3F09017B6F0A3F022E4F0901DE7
:1034C4006974FEF0A304F09017ABE4F09017ADF02C
:1034D4002274F7121A00E9FEECFFEE70067A727B92
:1034E4009D802074016E700FEF70067A527B9E806F
:1034F400127AF17B9E800C74026E700AEF70077A68
:10350400827B9D12116402316502011F74F4121A48
:103514000074FE1219908A0A8B0BEA2405FEE43526
:103524000BFFEA2404F508E4350BF5099017ADE028
:103534006401600302360A850882850983E0640712
:10354400706F8E828F83E060737A6A7B9B12116442
:103554008E828F83E0F9121170121164E50A240639
:10356400F8E4350BF9E8FAE9FB8A828B8312381503
:103574009017AE124288123DF6E0FA88828983A33E
:10358400A3A3E0F9EA9017B0123BB17A767B9112CB
:1035940011649017AE1246C412116A1211647A9122
:1035A4007B911211649017B01246C412116A121161
:1035B40064850882850983E064077032850A828500
:1035C4000B83A3E0641A60030237F97A7D7B8F12C0
:1035D40011649017AE1238266007790212122A80FD
:1035E4000D12382E7A1F7B8412116412120685087C
:1035F40082850983E0640160030237F912382E7A68
:10360400727B84023722E0640260030236938508E9
:1036140082850983E0640970578E828F83E060316C
:103624001238019017B2123BB17A5B7B9A12116483
:103634008E828F83E0F91211701211647AD47B8F19
:103644001211649017B21246C412116A12116480E6
:103654001F7A477B9A1211648E828F83E0F91211CC
:10366400701211647AA97B8C121164790312122AE4
:10367400850882850983E0640160030237F97AB71B
:103684007B9012116412382E7A6A7B82023722E010
:103694006403600302372B850882850983E064098B
:1036A40070607A907B9B8E828F83E0603A850A8279
:1036B400850B83A3A3A3A3A3A3A31238159017B4C4
:1036C400123BB11211648E828F83E0F912117012D1
:1036D40011647A2B7B901211649017B41246C412B1
:1036E400116A121164801B1211648E828F83E0F9B7
:1036F4001211701211647AFE7B8D12116479041216
:10370400122A850882850983E0640160030237F97F
:103714007AEF7B9012116412382E7AC57B821211D3
:10372400641212060237F9E0640460030237F98573
:103734000882850983E0640960030237DA8E828F88
:1037440083E0602E1238019017B6123BB17ACC7B1D
:10375400941211648E828F83E0F912117012116435
:103764007A6A7B8B1211649017B61246C412116ADE
:10377400806112382E7A2A7B8C1211647A847B95AC
:103784001211649017ACE0640270449017B21238BE
:1037940026603C9017C9E0703612301F1205CAE942
:1037A400FE7ADC7B9B121164EEF912117012116423
:1037B400EE9017ED700B74011238327A1F7B9A80E9
:1037C40012E4F07A8A7B8912116412120680077A55
:1037D400CC7B86121164850882850983E0640170BC
:1037E400147A257B8D12116412382E1212067A7FF8
:1037F4007B8112116474021219A60234A98A828B85
:1038040083A3A3A3A3A3A3A312381EFAA3E0F9EAF4
:103814002212381EFCA3E0F9EC22123DFCE02290B7
:1038240017B4E0F8A3E0F9E849229017ADE4F0906A
:1038340017C9F02274F7121A0074EB121990E9FEFA
:103844009017AE12382670030238E0EE9017ADF0F0
:103854009017AF123BA89017B01234B0740212192B
:10386400DC123BB074041219DC7402F06E7016742E
:10387400051219DC74F2F074061219DC74FFF07A84
:10388400197B87803474036E701674051219DC7406
:10389400F1F074061219DC74FFF07A697B888019E0
:1038A40074046E701774051219DC74F3F074061244
:1038B40019DC74FFF07AED7B841211649017A8E090
:1038C400F9AC21AD221246C11205D0E9FF7A8B7BF7
:1038D4009F121164EFF91211701211647415121908
:1038E400A6023165C082C0839017C31246C4121168
:1038F4006A1211649017C2E0F912117012116490E7
:1039040017C1E0F91211701211649017C0E0F91296
:1039140011701211649017BFE0F912117012116442
:103924009017BEE0F91211700231A574F0121A005A
:103934001210AA8A088B098C0A8D0B7808121C0FA6
:103944007ABE7B171210B074041219A67AA07B9E5B
:103954001211647ABE7B171212309017E0E06401F2
:10396400704C9017C3E09017E1F09017C2E09017E5
:10397400E2F09017C1E09017E3F09017C0E09017C1
:10398400E4F09017BFE09017E5F09017BEE09017B1
:10399400E6123F4E121C137CE17D177AE77B171267
:1039A40015E474021219A67AF27B9D023A4EE06481
:1039B400026003023A4A9017C3E09017E7F09017A9
:1039C400C2E09017E8F09017C1E09017E9F0901763
:1039D400C0E09017EAF09017BFE09017EBF0901753
:1039E400BEE09017ECF07ABC7B9E1211649017C570
:1039F400780812184885080C85090D850A0E850B70
:103A04000F909FE5780C1217AE9017C5780C12181A
:103A140057AA08AB09AC0AAD0B121248E970219001
:103A240017E07401123F4E121C137CE77D177AE1F4
:103A34007B171215E474021219A67A6E7B9C800A15
:103A44007A407B9780047A977B9A1211647AE37B9D
:103A5400991211647AD87B171212661211E202309D
:103A64004174F2121A007ACF7B99121164901B2BC5
:103A7400E0642260077A007B80023B929017B8E0F2
:103A8400FEA3E0FF023B1AE4F0A3F07A547B941205
:103A9400116485088285098312382670588E828FB6
:103AA40083A3A3A3A31234AE850882850983123BA2
:103AB400B08E828F83A3A31246C48A828B83A3A36E
:103AC400A3A3A3E07003023B7A14602014700302E2
:103AD4003B7F146003023B847C097D00790112164C
:103AE40002850A82850B837401F080127C0F7D00AD
:103AF4007901121602850A82850B83E06014EEFCBC
:103B0400EFFD7AB87B17121278E970069017BCE0C3
:103B140014F0AE0CAF0DEE4F60707ABB7B991211AE
:103B2400649017BCE0F91211701211648E828F83B5
:103B3400E0F50CA3E0F50DEE2408123B9870B67A7C
:103B4400587B8E121164EE240412419812382670A8
:103B540003023AA1C3E894D1E99407850882850950
:103B6400835003023A8BE02430F0A3E034F8F07A77
:103B7400567B97023A937C0E023AF27C28023AF280
:103B84007A2A7B97121164023AE57A3C7B941211EB
:103B940064023F5DF50AE43FF50B850A82F583E094
:103BA40022E0F8A3E0F9852182852283E8F0A3E9E5
:103BB400F02274F0121A0074FE1219909017BAE0F1
:103BC400F50EA3E0F50F7AA77B9912116480367A7B
:103BD400167B85121164850E82850F83A3A3A3A38C
:103BE400A3A3A3A37401F0AC0EAD0F7ABA7B171292
:103BF40012789017BDE014F0852182852283E0F5C8
:103C04000EA3E0F50FE50E450F7003023DE47A7F45
:103C14007B991211649017BDE0F9121170121164AE
:103C2400850E82850F83123BA57A767B8E121164F2
:103C3400E50E2402FEE4350FFF8E828F831246F0D8
:103C440024FD7003023D9D146009147003023D10AD
:103C5400023DDD7A527B9F1211648E828F83123073
:103C640012A3121C269017B81246C412126C7404C4
:103C74001219A68A088B09EA45097003023D098EC8
:103C8400828F83123DF6A3A3A3E06404705FE8244B
:103C94000D123DEE24D0FAE43407FB9017C3EAF08A
:103CA400A3EBF0E8240E123DEE9017C2F0E8240FC7
:103CB400123DEE9017C1F0E82410123DEE9017C0AB
:103CC400F0E82411123DEE9017BFF0E82412123DE3
:103CD400EE9017BEF07ABE7B171210BC1210A47AB5
:103CE400E27B9D1211647ABE7B1712123085088222
:103CF400850983A3A3A3A3A3A3A3A37401F07AE0D8
:103D04007B81023BD77A747B80023BD77ADA7B9C37
:103D14001211648E828F831246C4121260E97003FA
:103D2400023BDA8E828F831246B71218487A097BD7
:103D3400001210CE8A0C8B0DAE0CAF0DEE4F602727
:103D44008E828F837425F0A378081218578E828F81
:103D540083A3A3A3A3A37403123F3E123F3CA37403
:103D640055123E067423F07AFA7B87121164E4F547
:103D740008F5097808121C13EEFCEFFD7AB87B17DE
:103D840012125A74021219A6E970077AD57B8712A7
:103D940011647AF57B83023BD77A807B9F1211648E
:103DA4008E828F83123012A3121C269017B81246EB
:103DB400C412126C74041219A68B09EA4509700323
:103DC400023BD38A828B83A3A3A3A3A3A3A3A37439
:103DD40001F07A4A7B8C023BD77AD37B90023BD7A3
:103DE4007AF47B9312116402303CF582E439F58352
:103DF400E022123DFCA3A322E0F8A3E0F988828923
:103E04008322123F42A3A32274F2121A008A088B5F
:103E1400098C0A8D0B7A287B001210CE8A0C8B0D2C
:103E2400AE0CAF0DEE4F7003023F318E828F837460
:103E340025F0A378081218578E828F83A3A3A3A317
:103E4400A37402123F3E7420123F4E121C137C6B6B
:103E54007D1DEE2407FAE43FFB12102074021219B0
:103E6400A67808121C137CD87D17EE240DFAE43FC3
:103E7400FB12102074021219A69017DEE0C0E0EEC7
:103E84002413F582E43FF583D0E0F07808121C1384
:103E94007CD07D17EE2414FAE43FFB121020740248
:103EA4001219A69017D6E0C0E0EE241AF582E43F7A
:103EB400F583D0E0F07808121C137CE17D17EE2422
:103EC4001BFAE43FFB12102074021219A6780812A0
:103ED4001C137CE77D17EE2421FAE43FFB1210202B
:103EE40074021219A6EE2427F582E43FF5837423A5
:103EF400F07A307B861211647508107509277808EA
:103F0400121C13EEFCEFFD7AB87B1712125A7402DE
:103F14001219A6E9FE700B7AE07B85121164790010
:103F240080147A087B86121164EEF980097A097B81
:103F34008F121164790180217401123F4222F08EA4
:103F4400828F83A3A3A3A3A3A322F07508067509F4
:103F54000078082274011219A67F06021AD274F29C
:103F6400121A008A088B098C0A8D0B79019017B8F4
:103F74001246C41212728B0DEA450D600C7A197B3D
:103F84008112116479000240137AE37B8012116478
:103F94007A0F7B001210CE8A0C8B0DAE0CAF0DEE97
:103FA4004F606A8E828F837425F0A37808121857A5
:103FB4008E828F83A3A3A3A3A3123F3C7407123F53
:103FC4004E121C137C6B7D1DEE2407FAE43FFB129A
:103FD400102074021219A612401674AAF0EE240ED0
:103FE400F582E43FF5837423F07AA07B8312116495
:103FF4007508107509277808121C13EEFCEFFD7A7A
:10400400B87B1712125A74021219A680027901029F
:104014003F5DEE240DF582E43FF5832274F0121A1D
:1040240000EAFEEBFFEA2CF8EB3DF9880A890B80E5
:10403400127A0A7B8C121164850E82850F83A3AEDB
:1040440082AF838E828F83A3A3A3A3A3A3E0F50CE3
:10405400F508EE2508F8E43FF9E82407F50EE439FD
:10406400F50F8E828F83E064256003024179EE248C
:1040740005124198E0C394064003024179C3E50A5E
:10408400950EE50B950F5003024179850E82850F3D
:1040940083E0642360030241797AF07B981211640F
:1040A400850882850983E024FD7003024150146071
:1040B4000514606C8082740C650C705DEE2407FC42
:1040C400E43FFD7A6B7B1D1211EEE9604C7A227B92
:1040D4009E1211647A147B001210CE8A088B09EAAE
:1040E4004509700302403C750C14750D00780C12E0
:1040F4001C13EEFCEFFD12102074021219A6E4F555
:104104000C780C121C13AC08AD097ABA7B17121286
:104114005A74021219A602403C7A4A7B830240393F
:104124007407650C701F7A9C7B981211647A0F7B5C
:10413400001210CE8A088B09EA4509700302403C3C
:10414400750C0F80A57A067B8B0240397401650CCF
:1041540060030240357AA37B9B1211647A097B00C9
:104164001210CE8A088B09EA4509700302403C7597
:104174000C090240EE8E828F83A3AE82AF83C3E527
:104184000A9EE50B9F40030240477AD27B9D1211A1
:1041940064023041F508E43FF509850882F583227D
:1041A40074F2121A008A088B098C0A8D0BEA64B81F
:1041B4007003EB641770047EBC7F17EA64BA700363
:1041C400EB641770047EBD7F17EC450B700302424D
:1041D40065EA450970030242658E828F83E0C394C9
:1041E40014507E7A097B001210CEEA4B700302420F
:1041F4007C8A828B83A3A3E50AF0A3E50BF08A8271
:104204008B83E4F0A3F0740E1219DC1234B08A82AA
:104214008B83A3A3A3A3A3A3E8124288A3A3A3A36A
:10422400E4F0A3124291A3A3F085088285098312C6
:104234003826700C8508828509838015ECF8EDF921
:1042440088828983E0FCA3E0FDEC4D70EF888289CD
:1042540083EAF0A3EBF08E828F83E004F079008090
:10426400208E828F83E0C3941440067A1F7B88805B
:10427400047AD67B88121164AA0AAB0B1210D47983
:1042840001023F5DF0A3E9F08A828B8322F08A82E7
:104294008B83A3A3A3A3A3A32274F2121A0074FF13
:1042A4001219908A0C8B0DEA240CF582E4350DF575
:1042B40083E0F5087AF07B97121164A90812117053
:1042C400121164E508C39480500D7AF77B9912119A
:1042D4006474802508F5087ADA7B97121164A908BA
:1042E400121170121164AC21AD227A01A9081215C1
:1042F400D2E97009852182852283E070657A497B41
:10430400841211647A107B001210CE8A0A8B0BAED1
:104314000AAF0BEE4F6044750A0F750B00780A1252
:104324001C13AC0CAD0D8E828F83A3AA82AB8312B7
:10433400102074021219A685218285228374011229
:10434400467D7A947B8E1211647910EEFAEFFB129B
:104354001176EEFCEFFD7A100244827A477B9002DC
:1043640044A6C3940A40030244A2E075F00FA4A932
:10437400F02410FAE439FB1210CE8A0A8B0BAE0A31
:10438400AF0B750AB2750B88EE4F700302449C1292
:1043940046571215D2E960030244957A7E7B8A124D
:1043A400116412466B1211768E828F83A385820A62
:1043B40085830B750900800CE50A240FF50A500269
:1043C400050B0509852182852283E0F8E509C39858
:1043D400506DE50C2407FCE4350DFDE50A2407FACD
:1043E400E4350BFB1211EEE960CE7AAC7B9112112D
:1043F40064E50C240DF50C5002050DE50A240DF5B9
:104404000A5002050BF582850B83E0F8850C828542
:104414000D83E06860177A287B8B121164850C8207
:10442400850D83E0850A82850B83F080407A637B67
:104434008D121164EEFAEFFB1210D47900806885B6
:104444000C82850D83AC0AAD0B740F1218A3852161
:1044540082852283E00412467D7AC47B841211642F
:104464007A8E7B8812116412466B121176EEFCEF81
:10447400FD75F00F852182852283E0A404FAA90842
:104484001215CCE9F508EEFAEFFB1210D4A9088056
:1044940016EEFAEFFB1210D4AA0AAB0B80047ACA08
:1044A4007B8B1211647901023F5874F2121A007462
:1044B400FF1219908A0C8B0D8A828B83A3A3A3A36A
:1044C400A3E0F5087AD27B96121164A90812117040
:1044D400121164E508C39480500D7A937B991211EC
:1044E4006474802508F5087AFE7B96121164A90885
:1044F400121170121164AC21AD227A01A9081215AF
:10450400D2E97009852182852283E070077A1C7BB9
:104514008E024619C3940B4003024638E075F00F2F
:10452400A4A9F02401FAE439FB1210CE8A0A8B0BF9
:10453400AE0AAF0BEE4F700302462D12465712150A
:10454400D2E960030246207A067B8D12116412467A
:104554006B1211768E828F83A385820A85830B75F5
:104564000900800CE50A240FF50A5002050B050921
:10457400852182852283E0F8E509C3984003024639
:104584000EAC0CAD0DE50A2407FAE4350BFB121151
:10459400EEE960D07A0A7B91121164E50A240DF5E4
:1045A40082E4350BF583E0850C82850D83A3A3A3F8
:1045B400A3A3A3A3F074012509FA801BE50A240F21
:1045C400F8E4350BF988828983AC0AAD0B740F12B9
:1045D40018A3880A890B0A852182852283E0F8EAD8
:1045E400C39840D8E01412467D7AE77B8C1211649C
:1045F40012466B1211761246571215CCE9F508EEE5
:10460400FAEFFB1210D4A9088046EEFAEFFB121061
:10461400D47AC87B8C12116479008034EEFAEFFBF3
:104624001210D47A397B8A80047A407B9112116407
:104634007901801C7AA07B8A1211648521828522EB
:1046440083E4F0AC21AD227A01A9081215CC7909D2
:10465400023F58EEFCEFFD75F00F85218285228321
:10466400E0A404FAA9082275F00F8521828522832B
:10467400E0A404F9EEFAEFFB22F08E828F83F0229D
:1046840074F4121A00740C1219DC78081218488099
:10469400078A828B831246C4EA4B60108A828B831A
:1046A400A3A31246B712162070E780047A007B0099
:1046B4000234A91246F97808227D007912901D6906
:1046C400E0FAA3E0FB22C082C08380078A828B8346
:1046D4001246C4EA4B600E8A828B83A3A31246F06F
:1046E4006970E980047A007B000231A81246F9A3BC
:1046F400A3A3A3E022123016A32274F2121A008A92
:104704000C8B0D8A828B83E0FEA3E0FFEE4F606288
:10471400EC4D605E7508007509008E828F83E0F5AC
:104724000AA3E0F50BEC6E7002ED6F70398E828F88
:1047340083A3A31246C41210D4EEFAEFFB1210D4D2
:10474400E50845097008850C82850D838006850877
:1047540082850983E50AF0A3E50BF07A927B9D122A
:104764001164790080158E088F09AE0AAF0BEE4FE5
:1047740070A87A427B9E1211647907023F5D74F738
:10478400121A0074EF121990909D40AC21AD22745E
:10479400111218A39017EE7430F0A37478F078F027
:1047A4007917EA2406FA50010B7E06EA24FF1AEB75
:1047B40034FFFB8A828B83E0C41247DCA882A9837E
:1047C4008A828B83E01247DC08A983DEDEE4F07A78
:1047D400EE7B1774110238E2540FFC852182852286
:1047E40083E5822CF582E43583F583E0888289832E
:1047F400F0A322C082C083E9901D22F0D083D0822E
:1048040002011F74F6121A00E990019CF09001FB5A
:10481400E0F5087509007402780812197DAA08AB3E
:10482400091210CE90019D1251BA90019D1255A704
:10483400606F9001FBE075F003A4FAABF01210CEA8
:104844009001BA1251BA9001BA1255A7700B900197
:104854009D1255781210D480489001BA12650C7AD2
:10486400FF7BFF12139E7A0080198A087509007471
:1048740002780812197D125FB474FF1249BAE4F089
:10488400A3F00A9001FBE0F8EAC39840DD79051231
:10489400077490019CE0F91206607AFE7B07120906
:1048A400D202605774F4121A008A088B09EB548000
:1048B400604790019CE0F912105C8A0A8B0BAE0AE7
:1048C400AF0BEE4F602A8E828F83E064B0701A12B1
:1048D4000786E960148E828F83A3A3A3A3E0F9EE75
:1048E4002405FAE43FFB120756EEFAEFFB12104AD6
:1048F400AA08E5096480FB80047A007B00024B0A65
:1049040074F2121A0074FB121990EAFEEBFFEE4FD8
:10491400604574031219DCEEF0A3EFF08521828563
:104924002283ECF0A3EDF074021219DCE9F0AA2161
:10493400AB2212065AE9F508707574131219DCE0FB
:10494400F50AA3E0F50BE50A450B60638E828F83BD
:10495400124F43EE4F700575080280537A067B00B0
:104964001210CE8A0C8B0DA80CA90DE849700575A0
:104974000813803B88828983E41249BAEEF0A3EFDE
:10498400124AD6E50AF0A3E50BF09001A0124ACF33
:104994009001A06017E0FCA3E08003EAFCEBFD8C2F
:1049A400828D83124ACF70F38C828D83125BCFA9E0
:1049B40008740502678CF0A31264EEA32274F21249
:1049C4001A008908890C750D007403780C12197D7E
:1049D400850C0A850D0B90019FF090019D1259DA08
:1049E400124ACD602E1210D47900801D890C750DE9
:1049F400007402780C12197D90019D125E738882F6
:104A0400F583A3A3E4F0A3F0099001FBE0F8E9C364
:104A14009840D99001FBE0FA850AF0A4CAA8F08571
:104A24000BF0A428FB1210CE8A0C8B0DAE0CAF0D2C
:104A3400EE4F7003024AC39001FBE0FC850AF0A428
:104A4400CCA8F0850BF0A428FD79001210387C0066
:104A540080318D0C750D007403780C12197D8A82D7
:104A64008B83124AC888828983E4F0124AD5A3A3AF
:104A7400F0A3F00DEDC3950840D8EE250AFEEF35FE
:104A84000BFF0C9001FBE0F8ECC39850288C0C75DC
:104A94000D007402780C12197D90019D124AC8E829
:104AA4002402500109FAE9FB8A828B83EEF0A3EF1A
:104AB400F07D0080BFE50890019FF07900800279C5
:104AC4001302678F125E77F922A3A312557CEA4B77
:104AD40022A31264EEA3A3A32274F4121A00790091
:104AE400EAA2E0501F7508C375099F7808121C13C9
:104AF40079107C047D007A247B1D12076E740212E7
:104B040019A6E9F980007F04021AD2C082C08390FA
:104B140001A01255A7601C88828983A3A3E06A7050
:104B240003A3E06B8882898370E8A3A3A3A312552F
:104B34007880047A007B0002480074F2121A007430
:104B4400FD121990EAFEEBFF852182852283E4F0B1
:104B5400A3F074021219DC7401F01255A47014123B
:104B640009241210CE9001A31251BA1255A4700355
:104B7400024CD01252BAEE2404F50AE43FF50B8538
:104B84000A82F583E024FE603C24FC607424FE6009
:104B94007E24FE7003024C2024FE7003024C2D245C
:104BA400FE7003024C3A24FE7003024C4724FE704C
:104BB40003024C5424FC7003024C7524FE7003025F
:104BC4004C8D024CC91209249001A5EAF0A3EB1202
:104BD4004CDC1202B8E96003024CC99001A5121C16
:104BE4002A8E828F83A3A3A3A3A312650C850882B4
:104BF40085098312557812073E74021219A6024CD5
:104C0400C9AC21AD22EEFAEFFB12078C024C98AC32
:104C140021AD22EEFAEFFB1207928078AC21AD228F
:104C2400EEFAEFFB120798806BAC21AD22EEFAEF9F
:104C3400FB12079E805EAC21AD22EEFAEFFB120759
:104C4400A48051AC21AD22EEFAEFFB1207AA8044F6
:104C540074021219E6880C890D780C121C13740264
:104C64001219F6EEFAEFFB1207B074021219A680BD
:104C740023AC21AD22EEFAEFFB1207B6E9F8701669
:104C840074021219DCE4F0803CAC21AD22EEFAEFA0
:104C9400FB1207BCE9F8E8602C8E828F83A3E064E2
:104CA400146022850A82850B83E09001A5F085219A
:104CB400828522831255789001A61251BAE8A31274
:104CC4004CDC1202B2EEFAEFFB1207147402121952
:104CD400DCE0F9740302678CF07CA57D0185088211
:104CE40085098312557C2274E8121A0074FA121989
:104CF4009074041219DCECF0A3EDF08A128B13EA21
:104D04002405F50EE43513F50FEA2402F510E43515
:104D140013F511851082F5831255781203FC8A0A63
:104D24008B0B7508007C037D0079007AA57B01124A
:104D34001038E50E2402F516E4350FF51774021247
:104D440019E6880C890D780C121C13850E82850FC8
:104D540083A3A3A3A3E0F50C750D00780C121C1318
:104D6400E50E2405F50CE4350FF50D780C121C1333
:104D740085168285178312587F12067874061219D5
:104D8400A68A0C8B0DE50C450D7003024F0C802098
:104D9400852182852283E088828983F00508852124
:104DA40082852283A3E0C0E0124F4DD0E0F00508D5
:104DB400E50A24FBFAE50B34FFFBC3E5089AE49B00
:104DC4004003024F0C7E007F00851282851383A36B
:104DD400A3A3A3E0F5097809121C17E4F514F5154B
:104DE4007814121C137514A27515017814121C136F
:104DF4009001A3121C2A74091219DC121C2AE50A58
:104E040024F9F9AC0CAD0D85108285118312557807
:104E14001207E674091219A6E96003024EAD850E65
:104E240082850F83A3A3A3A3A3A3A3E0F89001A265
:104E3400E0687075E0F5148E157814121C13126571
:104E440009850E82850F83A3A3A3A3A3A3A3A312FF
:104E5400557812103274021219A6E9604C9001A61A
:104E64001255A7703BE4F5147814121C137CFF7DD3
:104E7400FF790785108285118312557812075074C3
:104E8400021219A61255AD7017850E82850F831272
:104E940066A674041219DC125F671258B0024F4000
:104EA400850C82850D83124F43A821A92288148979
:104EB400157814121C1374041219DC121C2A85169A
:104EC400828517831251B012068474041219A68ABB
:104ED4000C8B0DEE4F7003024D89124F4DEE124FA5
:104EE40058125866EF124F58F8A3E03400F9E50C55
:104EF400450D6003024D948882898374FFF0050890
:104F0400124F4D74FFF00508E508601A1313543F5F
:104F14001251C01202C4E960099001A61255781218
:104F2400154E79008016850E82850F831266A6744D
:104F3400041219DC125F67125BCF790A025839A395
:104F4400A3A3A3E0FEA3E0FF22A8089001A6E02803
:104F540012586622F00508089001A6E0282274E899
:104F6400121A0074FA12199074021219DC1251BA4E
:104F740074041219DCECF0A3EDF074021219DCE0F5
:104F8400240512584FE0F50CA3E0F50D7402121934
:104F9400DCE02402F510A3E03400F511851082F55D
:104FA400831255781203FC750800750900EA24FC85
:104FB400FEEB34FFFF8008050CE50C7002050DA81C
:104FC40008C3EE98EF9400500302516CA821A92263
:104FD400880E890F780E121C13851482851583A3FD
:104FE400A3A3A3126510121C13E5142405F50EE403
:104FF4003515F50F780E121C13851482851583124E
:1050040051AE12067874061219A68A0E8B0FEA4561
:105014000F700302516CEA2404F516E4350FF517FA
:10502400851682F583E0F50CA3E0F50D85218285D4
:10503400228312650C8A828B83A3A3A3E0F98510D3
:1050440082851183125578120666E9F50960030218
:10505400516C74021219DC125876F5097809121C85
:1050640017E4F512F5137812121C137512A27513B6
:10507400017812121C139001A3121C2A740712192E
:10508400DC121C2AEEF9AC0EAD0F8510828511835B
:105094001255781207E674091219A6E9F509600396
:1050A40002516CE508703FE4F50EF50F780E121C02
:1050B400137CFF7DFF790985108285118312557851
:1050C40012075074021219A612589C700D7404121F
:1050D40019DC1251A379110251A09001A2E024021B
:1050E4009001A6F080149001A6E0FA9001A2E07964
:1050F4000024025001096A497072A8089001A2E0D4
:10510400FAE82AFAE43400FBEE9AEF9B405A85163B
:1051140082851783E0C0E09001A7124F52D0E0F0DF
:105124000508851682851783A3E0C0E0089001A7CF
:10513400124F52D0E0F005089001A2126510121C23
:1051440013126509A8081258431210207402121988
:10515400A69001A2E02508F50874FF650C7004749C
:10516400FF650D6003024FBBE508601F9001A6E0D8
:10517400F5F0E508841251C01202CAE960099001F1
:10518400A712557812154E79008011E50970037540
:10519400090A74041219DC1251A3A909025839121C
:1051A40059DEE50CF0A3E50DF022A3A312679BAA38
:1051B4000CAB0D22A3A3EAF0A3EBF0229001A5F01F
:1051C4007CA57D0185108285118312557C2274ECA7
:1051D400121A0074FC121990125CDF74021219F690
:1051E40012557212067E8A0C8B0DEA450D7003026D
:1051F40052AA1252BAA821A9228810891178101231
:105204001C137CFF7DFF790B850882850983125569
:105214007812075074021219A61253B0700C850A42
:1052240082850B831258AD0252B78E828F83A3A35B
:10523400A3A3E0F5127812121C17E4F512F5137803
:1052440012121C137512A57513017812121C13780F
:1052540010121C1374091219DC121C2A7409121975
:10526400DCE0F9AC0CAD0D85088285098312557814
:105274001207E674091219A6E9FE70157CA57D01D2
:105284008508828509831255781202D0E970098055
:105294002074166E70027E009001A61255781215C5
:1052A4004EEE7004800B7E01850A82850B83125BAF
:1052B400CCEEF9025BE1EE2402F508E43FF50922A5
:1052C40074EC121A0074FC121990EAFEEBFF8C0EB7
:1052D4008D0FEE2405F508E43FF50974021219F662
:1052E40085088285098312557812067E8A0C8B0DF7
:1052F400EA450D70030253A0EE2402F50AE43FF5DB
:105304000BA821A922881089117810121C137CFF84
:105314007DFF790D12557212075074021219A612EC
:1053240053B0700B8508828509831258AD807A8E3C
:10533400828F83A3A3A3A3E0F5127812121C17850E
:105344000882850983A3A3121C2A7512A57513016B
:105354007812121C137810121C1374091219DC121F
:105364001C2A74091219DCE0F912556E1207E6744E
:10537400091219A6E9FE700F7CA57D01125572125F
:1053840002D6E97009802074166E70027E009001C6
:10539400A612557812154EEE7004800B7E01850816
:1053A40082850983125BCCEEF9025BE11255B7F5F5
:1053B40010A3E0F511EA45112274E8121A0074FEF4
:1053C4001219908A168B178C148D15EA2405F50C86
:1053D400E43517F50DEA2402F50EE43517F50F85CB
:1053E4000E82F5831255781203FC8A088B09750B1B
:1053F400007C037D0079007AA57B01121038750AC0
:1054040000E50814F5100424FFF508E50934FFF558
:105414000980549001A5E0FA9001A2E0F8EA28F886
:10542400E43400F9E50898E50999500D9001A5E0E8
:10543400F8E510C3989001A2F0E0F5127513007816
:1054440012121C131265099001A6E02AFAA3E03493
:1054540000FB12102074021219A69001A2E0F89029
:1054640001A5E028F0050A850C82850D83A3A3120B
:105474005E8340030255539001A5E0C39508E4956B
:10548400094003025553AE0AEE2EFEE433FF1255D3
:1054940092AC21AD22126524E439FB12067E8A12F5
:1054A4008B13AC12AD13EC4D701B750B01125582AE
:1054B400125BD09001A6124ACF600312154EA90BBD
:1054C400740202583B851682851783A3A3A3A3E025
:1054D400F50B780B121C17E4F512F5137812121C55
:1054E400137512A27513017812121C139001A312E2
:1054F4001C2A74071219DC121C2AA910850E828535
:105504000F831255781207E674091219A6E9F50BF0
:10551400709B9001A61255A76003025417E4F5127C
:10552400F5137812121C137CFF7DFF790F850E8210
:10553400850F8312557812075074021219A612555A
:10554400AD60030254171255821258B10254C47C40
:10555400A57D01850E82850F831255781202DCE940
:1055640060030254B779000254C4AC0CAD0D850A33
:1055740082850B8312557C22E0FAA3E0FB221255AC
:1055840092E0FAA3E0F9EA85148285158322850C5A
:1055940082850D83E02EF8A3E03FF9888289832277
:1055A4009001A31266AAE849221255B7F8A3E0F9BC
:1055B400E849229001A6EAF0A3EBF09001A6E022CC
:1055C40074E8121A0074FA12199074041219DC1295
:1055D40051BA8C168D1774041219DCE02405F50EEB
:1055E400A3E03400F50F74041219DCE0240212580D
:1055F4004F1255781203FC8A0A8B0B7F007E00A899
:1056040021A922880889097808121C13850E82852D
:105614000F83A3A3A3A3E0F5088E097808121C1333
:10562400E50E2405F508E4350FF5097808121C1376
:10563400850E82850F83A3A312587F120678740601
:105644001219A68A0C8B0D8029125870F00F12586B
:1056540070F00F9001A2125BBB121C13126509EFCC
:10566400F812584312102074021219A69001A2E0F5
:105674002FFFE50C450D70030256FF85218285221C
:1056840083125CF1A3A3A3E0F98514828515831228
:105694005578120666E9FEE50C2404F510E4350D90
:1056A400F511EE705074041219DC125876F508786E
:1056B40008121C17E4F508F5097808121C1375087C
:1056C400A27509017808121C139001A3121C2A74F4
:1056D400071219DC121C2AE50A24FAF9AC0CAD0DE8
:1056E4008514828515831255781207E674091219F8
:1056F400A6E9FE603912588C125BCFEF7003025892
:10570400269001A6E0F5F0EF849001A5F07CA57D3C
:10571400018514828515831255781202E2E9600925
:105724009001A712557812154E79000258398F0846
:10573400EF703BE4F512F5137812121C137CFF7D15
:10574400FF791185148285158312557812075074D8
:10575400021219A612589C700912588C1258B002E1
:1057640058399001A2E024049001A6F080359001FC
:10577400A2E0F89001A6E0FAE82404FCE43400FD79
:10578400EC6A4D6003025705E50A24FAFAE50B3486
:10579400FFFBE50828F8E43400F9EA98EB99500394
:1057A400025705851082851183E0C0E09001A7E0CF
:1057B4002FF8A3E034008882F583D0E0F00F851041
:1057C40082851183A3E0C0E012585DD0E0F00F742D
:1057D400021219E6880889097808121C1374021247
:1057E40019DC121C2A850E82850F831251AE120613
:1057F4008474041219A68A0C8B0DEA450D700302F9
:10580400564D74021219DCE0C0E012585DD0E0F08D
:105814000F74021219DCA3E0C0E012585DD0E0025C
:105824005655EE70027E0A850E82850F83125892B9
:10583400125BCFEEF974061219A67F10021AD290E9
:1058440001A7E028FAA3E03400FB22F514A3E03416
:1058540000F515851482F58322125861229001A760
:10586400E02FFAA3E034008A82F58322125861748F
:10587400FF221259DEA3A3A3A3E02212679B850E85
:1058840082850F8312557C228510828511831266CE
:10589400AA851682851783229001A7EAF0A3EBF06C
:1058A4009001A71266AAE84922125BD5E8F0A3E9A1
:1058B400F079112274EA121A0074FE1219908A08FF
:1058C4008B098C128D13EA2405FEE43509FFAC2103
:1058D400AD228E828F8312557812067E8A0C8B0D30
:1058E400EE2406F50EE43FF50FEA450D7003025968
:1058F400B0E5082402F50AE43509F50B8A828B83A6
:10590400A3A3A3E0A2E55028852182852283125512
:10591400781207DA8A108B11EA4511602079121285
:10592400556E8510828511831219FEE9F50C707F7E
:10593400850E82850F83E0600979528011750C0E03
:10594400806D850882850983A3A3A3A3E0F9E4F508
:1059540008F5097808121C138E828F83A3A3E0F53F
:10596400087808121C138E828F83A3A3A3121C2A07
:105974008E828F8312650C1255721207EC74061214
:1059840019A6E9F50C7011850E82850F83E0702D40
:105994001255721202E880257416650C7011750C8C
:1059A4000074181219DC1259DAE48010750C011213
:1059B40066A2851282851383E8F0A3E9F0850E823E
:1059C400850F83E0600479008002A90C7402121927
:1059D400A67F0E021AD21259DE22E0F8A3E0F58364
:1059E40088822274EC121A0074F71219908A0A8BB6
:1059F4000B8C108D11EA2405FEE4350BFF750C00A9
:105A0400AC21AD228E828F8312557812067E8A08CD
:105A14008B09EA45097003025BA6E50A2402F50A2C
:105A24005002050B8A828B83A3A3A3E0A2E5502F27
:105A34008521828522831255781207DA8A0C8B0D10
:105A4400EA450D604F7912AC08AD09125572850C08
:105A540082850D831219FEE9F50C6003025BA985AA
:105A64000A82850B83E0F508A3E0F509AA08FB1276
:105A740007CEEA4B70197AFF7BFF1207CEEA4B7010
:105A840003025B9C8A828B83E508F0A3E509F07529
:105A940008008008750C0E025BA9050890019FE0C0
:105AA400F8E508C3984003025B9C85080E750F0057
:105AB4007403780E12197D8A828B83A3A3E0250ECA
:105AC400F8A3E0350F125F7070D08E828F83125B63
:105AD400C41251BA8E828F83A3A3125BC41251B82D
:105AE400EE2404F508E43FF509850882F583E0888F
:105AF400828983A3A3A3A3F0A3E4F0EE2405F50E07
:105B0400E43FF50F850E82F583125BC4A3A3A3A320
:105B14001251B87512077513007812121C13EEFC9B
:105B2400EFFD74041219EE12102074021219A6E487
