:020000040000FA
:060000000201070222EFDD
:03002B000225505B
:03003B000225712A
:0300430002250D86
:0300530002236223
:03007B0002253328
:1000830002215BE5C754F84401F5C779012200005A
:100093000080FB120086B900030200F1E4791A78AC
:1000A30002B800028004F709D8FCE4791C7802B88E
:1000B30000028004F709D8FCE490014178817911AA
:1000C3008002F0A3D8FCD9FA7AC17B11900137786A
:1000D3003779028015E493A3AD82AE838A828B8342
:1000E300F0A3AA82AB838D828E83D8E9D9E7758288
:1000F3007E75839F74041201197582917583007450
:100103000012011975D00075813F751841751901E9
:10011300759F00020096C09FF59FE473D09F22D085
:1001230083D082C09FE493C0E0740193C0E0740263
:1001330093F59F22F9030B043504FF03FF0000B47A
:10014300000028002800283075A000A000A000A00F
:100153000000080008E001F000100010001000107B
:10016300001000100050005000500010001000D08C
:10017300070000000000000F0001000500307507B4
:10018300001000010081FF00000000FF0202027066
:100193009F010000689F027E9F01000019120276F2
:1001A3009F0100007201027E9F0100001A12027477
:1001B3009F0100008801FFFF0100FF2002709F01E3
:1001C30000006B9F027E9F0100004812027A9F008D
:1001D3000000000002789F0300006502610B610BC1
:1001E300610B610B610B610B610B610B610B610BAC
:1001F300610B610B610B350D530D2F0DFFFFFFFEDF
:10020300FF0111223344556668C90B04010163825F
:1002130053634433221145332211000EC6445566FD
:100223000044FFFFFFFFFFFFFFFFFFFF004302202C
:10023300000405B4951001E803053F10020A01C04C
:10024300A8019E000EC6445566045EFFFFFF00C072
:10025300A8010172375EF4FFFFFFFFFFFF22600278
:1002630020000405B4019510FF00120122459504F6
:100273001201225B95041201228A9504120122C005
:100283009504120122D79504120122EE950412015E
:10029300222596041201227896041201228F9604D5
:1002A300120122629004120122799004120122AAFF
:1002B3009004120122E590041201220F910412010D
:1002C30022399104120122509104120122679104F0
:1002D3001201227E9104120122A79104120122BA73
:1002E3009104120122D09104120122FA9104120105
:1002F30022008003120122048103120122318103AF
:10030300120122878103120122AA8103120122BE54
:100313008103120122C08103120122E3810312012E
:1003230022F28203120122B683031201228B840379
:10033300120122FC84031201228885031201228BFD
:1003430085031201221386031201224E8603120132
:1003530022B58603120122B88603120122EF860317
:10036300120122188703120122C387031201224DAF
:1003730088031201229C8803120122A98803120117
:1003830022AC88031201220C89031201221789036C
:10039300120122968903120122998903120122ACC8
:1003A3008903120122AF89031201223E8A0312013B
:1003B30022588A03120122688A03120122988A03AF
:1003C300120122A58A03120122A88A0312012229FB
:1003D3008B03120122178C03120122C98C03120111
:1003E30022909703120122889803120122BC9803DA
:1003F3001201223E99031201225E9903120122A6E1
:100403009903120122F999031201225D9A03120141
:1004130022EA9A03120122A49B03120122B39E0330
:100423001201223EA00312012261A00312012288BD
:10043300F50312012225F70312012289F7031201A2
:1004430022E8F703120122F6F7031201221FF80331
:10045300120122AFD403120122D7D40312012205C1
:10046300D5031201223CD5031201229AD5031201AE
:1004730022E5D50312012230D60312012270D603DE
:10048300120122B6D603120122E4D603120122A1DD
:10049300D703120122ABD703120122B8D7031201EB
:1004A30022EBD703120122B7D803120122C3D803C8
:1004B300120122DBD803120122E5D80312012263C1
:1004C300D903120122169A04120122249A0412015A
:1004D300223C9A04120122549A041201226C9A04B7
:1004E300120122A4BA0212012250BB02120122CB32
:1004F300BB02120122ECBC0212012228BD0212012E
:1005030022D1BD02120122B8BE021201221CC00276
:1005130012012273C002120122F4C002120122E46A
:10052300C10212012231C202120122B7C202120118
:1005330022E9C202120122FDC4021201223FC502B6
:100543001201225DC502120122FFC502120122C758
:10055300C602120122D4C80212012233F903120186
:100563002249F9031201226FF9031201228BFA03C4
:1005730012012295FA03120122CAFB03120122C2BD
:10058300FC0312012216FB01120122BAFB01120124
:1005930022EDFB0112012237FC01120122FAFD01B7
:1005A3001201222CE801120122A5E801120122B551
:1005B300E801120122A3E901120122ADE9011201AE
:1005C30022D2E901120122DDE901120122C7EA0167
:1005D3001201222AEB01120122E0EB01120122C7D0
:1005E300ED0112012280EF011201225CF0011201E0
:1005F3002210F1011201224DF401120122FBF40138
:100603001201226AF601120122EAF7011201229174
:10061300F801120122DAF80112012211F901120183
:1006230022AEF90112012239FA01120122008002DD
:10063300120122558002120122B48102120122C446
:100643008102120122F18102120122488202120167
:1006530022F18202120122F88302120122C28402D1
:100663001201222286021201226586021201220A47
:1006730087021201223087021201223E89021201EF
:1006830022438902120122488B02120122958B0216
:10069300120122088C021201223B8C02120122DD7C
:1006A3008C02120122868D02120122BE8D021201DA
:1006B30022C18D02120122098E021201224B8E02E7
:1006C300120122A28E02120122147D00120122279E
:1006D3007D00120122357D001201227D7D00120171
:1006E30022937D00120122DA7D00120122EE7E00A8
:1006F3001201227B7F00120122C67F00120122EA2F
:100703006300120122FA63001201225D64001201E8
:1007130022A26400120122586500120122336600EE
:100723001201225C66001201228C6600120122CCA7
:100733006800120122B36A001201228B6C001201BD
:1007430022CF6D0012012236700012012244710083
:10075300120122967200120122A07300120122E2FA
:1007630073001201221A74001201223C7400120158
:10077300229F7400120122617900120122F679008E
:100783001201224A7A00120122717A00120122AF69
:100793007A00120122CE7A00120122287B00120174
:1007A30022287C00120122AD7C001201221FBE030D
:1007B30012012229BE03120122D1BE031201221407
:1007C300BF031201222FBF03120122BFBF03120175
:1007D30022E7BF031201221FC00312012256C003E6
:1007E3001201227FC003120122B9C003120122CEDB
:1007F300C0031201229BC103120122BEC1031201D5
:1008030022E0C103120122F5C1031201227BC203BC
:10081300120122B5C2031201222DC3031201227653
:10082300C303120122A0C303120122CBC30312018B
:1008330022F99704120122EDC8021201221BC902F8
:1008430012012276CA0212012256CB02120122752C
:10085300CB02120122F2CB0212012235CC02120189
:1008630022B0CD021201221FCE021201224AD0026F
:10087300120122CED2021201227FD302120122756B
:10088300D40212012215D50212012213D60212013B
:10089300229ED602120122A696041201220F970469
:1008A300120122639704120122929704120122B3C8
:1008B300970412012294E80312012201E9031201B1
:1008C3002248E90312012260EA031201225CEB03CE
:1008D3001201223FEC0312012208B1031201224A42
:1008E300B10312012223B2031201221DB303120129
:1008F30022FFB30312012268B40312012284B50359
:10090300120122F0B503120122F3B5031201221CD6
:10091300B60312012296B6031201223BB70312015A
:100923002250B70312012296B703120122AFB70375
:10093300120122B2B7031201228F8304120122CBC8
:100943008304120122098404120122D384041201B4
:10095300224285041201227D8504120122BB8504F3
:10096300120122EB85041201221286041201228055
:100973008604120122C286041201225CBC01120108
:10098300227BBE011201225EC0011201229AC00124
:10099300120122C7C0011201228EC101120122D904
:1009A300C10112012224C20112012236C201120125
:1009B3002276C201120122AAC201120122F8C20147
:1009C30012012229C3011201224CC301120122D3B5
:1009D300C301120122BBC401120122A8C5011201E5
:1009E30022A1C601120122B0C80112012252CE0176
:1009F300120122A2CE0112012219D10112012251A8
:100A03008A04120122068C04120122859F0112011D
:100A13002234A0011201227EA001120122B4A101FD
:100A23001201224AA301120122BFA30112012200D3
:100A3300A40112012252A401120122C3A501120131
:100A43002208A80112012202A90112012221A901EF
:100A530012012240A90112012243A90112012274A9
:100A6300AA011201226CAB0112012258AC0112013E
:100A730022C8AC011201223AAD01120122C1AD011B
:100A83001201229CAE0112012271AF011201225008
:100A9300B001120122DBB00112012249B10112019E
:100AA30022BDB101120122E8B101120122A7B20154
:100AB30012012294B501120122DDB5011201222097
:100AC300B60112012299B60112012231B7011201B6
:100AD3002222B80112012247B8011201228DB80166
:100AE300120122B7B801120122FFB8011201227AC2
:100AF300B901120122D4B9011201223DBB01120135
:100B030022EBBB011201222CBC011201224EE50291
:100B13001201229CE502120122A8E502120122869B
:100B2300E602120122B7E602120122E8E6021201EE
:100B33002268E702120122A0E702120122F2E70271
:100B43001201222FE8021201224CEA021201227240
:100B5300EC021201225DEE0212012247F0021201A1
:100B630022F6FF01120122F3C3031201223EC8033E
:100B730012012282C90312012250AC02120122087F
:100B8300AF021201220EAF02120122C8B1021201FA
:100B93002295B402120122EBD9031201228FDA0348
:100BA30012012261DB031201228BDB03120122D922
:100BB300DD031201220A46001201225446001201EB
:100BC300229554001201221A56001201223D5700A9
:100BD300120122AE5D00120122A95E00120122E67B
:100BE3005E00120122095F001201224B5F00120115
:100BF30022555F0012012243600012012239610075
:100C0300120122D261001201220A87041201220476
:100C13008804120122788804120122B68804120182
:100C2300222A8904120122A38904120122AC890415
:100C3300120122B88904120122CD89041201220B68
:100C43008A04120122218A04120122D6B703120157
:100C530022E3B703120122FDB7031201223CB803BA
:100C63001201227AB803120122DFB803120122F41F
:100C7300B8031201220BB90312012219B90312019D
:100C83002228B9031201223DB90312012252B903EA
:100C93001201225DB90312012269B90312012276FE
:100CA300B90312012285B90312012290B90312017B
:100CB30022B5B9031201225CBA0312012271BA03ED
:100CC30012012286BA03120122A0BA03120122BB27
:100CD300BA03120122D8BA03120122E3BA031201A2
:100CE300229FBB031201228BBC03120122B0BC035F
:100CF300120122BBBC03120122D0BC03120122E465
:100D0300BC0312012245BD031201224BBD03120194
:100D13002251BD0312012257BD031201226FBD03ED
:100D2300120122A2BD031201223A8D031201225C99
:100D33008D031201223C8E0312012213910312012F
:100D4300223F92031201226393031201221594039B
:100D5300120122B6940312012224D702120122A8FF
:100D6300D70212012257D802120122B6D902120168
:100D730022D7DB02120122C3DC02120122F8DC02B9
:100D83001201221ADD02120122C9DD02120122C15F
:100D9300DF02120122EADF021201227CE0021201C9
:100DA30022AEE002120122BBE00212012212E10292
:100DB30012012238E102120122A5E302120122A844
:100DC300E40212012200E5021201228F8F021201B6
:100DD300229990021201228091021201228A910229
:100DE300120122AC9102120122B891021201225186
:100DF30093021201228093021201229C9402120197
:100E030022F594021201225B96021201223A970202
:100E13001201229697021201220398021201223E26
:100E230098021201227D9802120122369B021201BE
:100E330022509B02120122DC9B02120122EA9B0236
:100E4300120122439C02120122519C02120122C46C
:100E53009C02120122289D02120122729D0212019C
:100E6300220C9204120122319204120122A3920451
:100E7300120122BCA903120122C5A903120122CE29
:100E8300A903120122A5AA0312012256AC031201DF
:100E9300228CAC03120122C6AC03120122FCAC0368
:100EA30012012236AD031201226AAD03120122960A
:100EB300AD03120122DFAD0312012219AE031201A9
:100EC3002262AE03120122BAAE03120122EFAE0375
:100ED3001201224AAF0312012284AF03120122D569
:100EE300AF031201220BB00312012245B00312011A
:100EF3002268B003120122B19B04120122DD9B047C
:100F0300120122389C04120122429C041201225233
:100F13009C0412012241CF031201224BCF03120181
:100F23002289CF03120122D2CF031201220CD00354
:100F330012012266D00312012287D00312012290EC
:100F4300D003120122E1D0031201220AD1031201BC
:100F53002214D10312012280D1031201220ED203E3
:100F63001201225CD20312012292D203120122192E
:100F7300D30312012259D30312012291D303120185
:100F830022A3D303120122C2D303120122CBD30320
:100F930012012285D40312012205DF03120122FA72
:100FA300DF0312012214E00312012225E0031201E0
:100FB300225AE20312012279E203120122638E0410
:100FC300120122998E04120122CF8E0412012228CB
:100FD3009004120122B79E04120122CD9E04120135
:100FE30022D79E041201226AF10312012283F10324
:100FF30012012227F20312012267F2031201228057
:10100300F203120122B4F20312012201F3031201CB
:101013002235F30312012277F3031201227BF50336
:1010230012012297FF011201225C9C041201228506
:101033009C04120122AE9C04120122C69C041201DC
:10104300220BFE0212012227FE02120122A4FE023B
:10105300120122C0FE0212012223FF02120122C446
:10106300FF02120122C5C90312012204CA0312019D
:10107300228DCA03120122A2CA03120122EDCA035E
:101083001201222CCB031201223BCB03120122EBD0
:10109300CB0312012244CC0312012293CC0312018D
:1010A30022E3CC03120122D7CD03120122CCCE03BB
:1010B30012012209CF03120122E82500120122871F
:1010C30027001201223F2A00120122D42A00120112
:1010D30022702B00120122502C00120122D12E006B
:1010E300120122172F00120122562F001201227C17
:1010F3002F00120122982F00120122073000120143
:10110300224330001201225E3000120122EC320031
:10111300120122243300120122273300120122423A
:101123003600120122DE36001201222C3700120192
:10113300226B3800120122C639001201221D3C0025
:101143001201226A3D00120122283E00120122AC44
:101153003F00120122AE4000120122BF42001201E1
:1011630022954400120122D94400120122084500AD
:101173001201228C4500120122FB9D02120122B4AE
:101183009E02120122339F02120122D0A2021201F7
:1011930022F4A2021201229AA402120122AAA80294
:1011A300120122FBA80212012250A902120122B548
:1011B300A902120122C7A90212012294AA02120152
:1011C30022C6AA02120122F6AA0212012222AB02AD
:1011D3001201224AAB02120122219F041201223280
:1011E300D301120122A8D50112012220D701120135
:1011F3002212D80112012297D80112012213D90118
:1012030012012238D901120122CEDC01120122423D
:10121300DD011201222EDE0112012268DE0112011C
:1012230022A8DE0112012262E00112012293E001F1
:10123300120122E6E0011201222FE1011201229D97
:10124300E101120122CFE101120122E7E1011201C2
:1012530022FCE2011201220CE3011201222BE40120
:101263001201224DE40112012283E401120122281A
:10127300E601120122A8E601120122E7E6011201AA
:1012830022FEE701120122F07F00120122D19F0406
:1012930012012210A004120122E6FF03120122020E
:1012A3009D04120122129D041201222A9D0412019F
:1012B30022929D0412012212990412012297990489
:1012C300120122FD99041201222C9E0412012234E0
:1012D3009E04120122699E04120122059B0412013D
:1012E30022269B04120122399B041201224B9B04E8
:1012F300120122789B0412012201ED03120122152F
:10130300ED031201228EED0312012267EE03120197
:101313002225F1031201220080041201229080048D
:101323001201220E81041201229781041201224527
:101333008204120122CF8204120122E082041201EC
:1013430022EF82041201220583041201221883046E
:101353001201227883041201228C830412012222B7
:10136300F30212012272F302120122D3F3021201D9
:10137300221BF40212012259F40212012288F40200
:10138300120122B7F40212012252F502120122477E
:10139300F7021201229CF702120122A7F80212019E
:1013A300223BFA021201225BFB0212012243FC02DE
:1013B3001201229FFC021201224AFD021201225B4A
:1013C300FD02120122D5FD0212012218E4031201CB
:1013D300229FE403120122EBE403120122AEE50390
:1013E300120122DDE5031201220EE603120122D7C8
:1013F300E70312012278E8031201229C9D041201E3
:1014030022069E04120122119E04120122219E042F
:10141300120122B1930412012206940412012274D0
:101423009404120122E49404120122CCFC0312015D
:1014330022F6FC03120122CBFD03120122BFFE039D
:1014430012012242FF031201228CA103120122493D
:10145300A20312012284A203120122ACA2031201ED
:10146300220EA3031201225AA303120122B3A303E0
:1014730012012244A40312012246A50312012203EE
:10148300A70312012285A703120122EAA70312016F
:101493002201A80312012211A9031201224FA90359
:1014A3001201225C8C04120122858C04120122C9D0
:1014B3008C04120122398D041201222F8E04120191
:1014C30022398E04120122438E041201224E8E040D
:1014D300120122588E04120122BAFF031201221AAA
:1014E300A004E76670100809E766700A0809E76652
:1014F30070040809E76622E066701008A3E06670CE
:101503000A08A3E066700408A3E06622C3E796080E
:1015130009E7960809E7960809E79622C3E09608C3
:10152300A3E09608A3E09608A3E09622C008C3E0D0
:1015330096F50808A3E096420808A3E09642080837
:10154300A3E09645087001D3D00822080808EAC032
:10155300E0EBC0E086F0E7A4FA180986F0E7A42AD6
:10156300FA180986F0E7A42AFA180986F0E7A42AEC
:10157300FA1986F0E7A4FBE5F02AFA190886F0E7E2
:10158300A42BFBE5F03AFA190886F0E7A42BFBE558
:10159300F03AFA18180986F0E7A4C5F02BFBE43AF1
:1015A300FA1908E7C5F0C6A426F6E5F03BFBE43AD2
:1015B300FA1886F0E7A4F6E5F00826F6E43B08F609
:1015C300E43A08F6D0E0FBD0E0FA22E4CFC0E0E44E
:1015D300CEC0E0E4CDC0E0E4CCC0E075F020E62668
:1015E300F608E633F608E633F608E633F618181875
:1015F300EC33FCED33FDEE33FEEF33FFC3EC970921
:10160300ED9709EE9709EF97191919400FFFEC971A
:10161300FC09ED97FD09EE97FE191906D5F0BFEC0D
:10162300F709EDF709EEF709EFF7191919D0E0FCFF
:10163300D0E0FDD0E0FED0E0FF226016080808C627
:10164300C313C618C613C618C613C618C613C6D501
:10165300E0EA227009080808226016181818C6C3A1
:1016630033C608C633C608C633C608C633C6D5E074
:10167300EA22E627F60809E637F60809E637F60808
:1016830009E637F622E026F608A3E036F608A3E0DB
:1016930036F608A3E036F622E026F008A3E036F09B
:1016A30008A3E036F008A3E036F022C3E697F60875
:1016B30009E697F60809E697F60809E697F622C3BE
:1016C300E096F008A3E096F008A3E096F008A3E004
:1016D30096F022E657F60809E657F60809E657F6A4
:1016E3000809E657F622E056F008A3E056F008A3EF
:1016F300E056F008A3E056F022E667F60809E6672D
:10170300F60809E667F60809E667F622E0F608A395
:10171300E0F608A3E0F608A3E0F622E6F008A3E665
:10172300F008A3E6F008A3E6F022E0FAA3E0FBA3A7
:10173300E0FCA3E0FD22EAF0A3EBF0A3ECF0A3EDC1
:10174300F022E0F8A3E0F9A3E0FAA3E0FB22E8F03B
:10175300A3E9F0A3EAF0A3EBF022CAC0E0E6F0A30A
:1017630008DAFAD0E0FA22CAC0E0E0A3C582CCC509
:1017730082C583CDC583F0A3C582CCC582C583CD85
:10178300C583DAE6D0E0CA22C3E498F8E499F912F3
:1017930017CC8026C3E49AFAE49BFBE920E7E9121D
:1017A30017CCE498F8E499F922C3E498F8E499F99A
:1017B3001217CCE498F8E499F9C3E49AFAE49BFB92
:1017C30022EB20E7CFE920E7E0B90010BB0008E8EF
:1017D3008AF084F8AAF022E4FBC8FA22EB70227B99
:1017E30010C833C8C933C9335007C39AC3DBF28067
:1017F300069A50012ADBEAC833F4C8C933F4C9FA9C
:101803002275F008E4C833C8C933C933C99AC99BE0
:101813005004C92AC93BD5F0ECFBC833F4C8E4C96A
:10182300FA22600D08C6A2E713C618C613C6D5E090
:10183300F322600C08C6C313C618C613C6D5E0F45A
:1018430022700422600D18C6C333C608C633C6D53A
:10185300E0F41822251810AF08F518400C1519806C
:1018630008F51840021519D2AF2200C0D025181070
:10187300AF08F518500C05198008F5185002051922
:10188300D2AFD0D0222518F58210AF08F518400C3E
:1018930015198008F51840021519D2AF851983224E
:1018A3002518F582E43519F583222518F8E435194E
:1018B300F9222518FAE43519FB222518FCE4351919
:1018C300FD22E4732518C582C0E0E51934FFC58302
:1018D300C0E0E518C3958224F810AF088583198505
:1018E30082188008858319858218D2AFCEF0A3E5CC
:1018F30020F0A37808E608F0A3DEFAEFF0A3E58171
:1019030024FAF8E608F0A3E608F0A3E608F0A30833
:1019130008E608F0A3E608F0A315811581D0E0FEE0
:10192300D0E0F8158115811581E8C0E0EEC0E02212
:101933002518C582C0E0E51934FFC583C0E0E5186A
:10194300C3958224F910AF0885831985821880080E
:10195300858319858218D2AFCEF0A3E520F0A37852
:1019630008E608F0A3DEFAEFF0A3E58124FBF8E62E
:1019730008F0A3E608F0A30808E608F0A3E608F0D9
:10198300A315811581D0E0FED0E0F815811581E81B
:10199300C0E0EEC0E022851983851882E0A3FEE053
:1019A300A3F5207808E0A3F608DFFAE0A3FFE0A39D
:1019B300C0E0E0A3C0E0E0A3C0E0E0A3C0E0E0A398
:1019C300C0E010AF088582188583198008858218C6
:1019D300858319D2AFD083D08202011F85198385F5
:1019E3001882E0A3FEE0A3F5207808E0A3F608DF61
:1019F300FAE0A3FFE0A3C0E0E0A3C0E0E0A3C0E0FF
:101A0300E0A3C0E010AF088582188583198008859C
:101A13008218858319D2AFD083D08222C0D02518F3
:101A2300C582C0E0E51934FFC583C0E0E518C3955E
:101A33008224F310AF088583198582188008858373
:101A430019858218D2AFC8F0A3E9F0A3EAF0A3EB9B
:101A5300F0A37908E709F0A3D8FAECF0A3EDF0A31B
:101A6300EEF0A3EFF0A3D0E0F0A3D0E0F0A3D0E03A
:101A7300F0A3E520F0A3E5F0F0A3228519838518F0
:101A830082E0C0E0A3E0F9A3E0FAA3E0FBA37808B7
:101A9300E0F608A3DFFAE0FCA3E0FDA3E0FEA3E089
:101AA300FFA3E0C0E0A3E0C0E0A3E0F5D0A3E0F52E
:101AB30020A3E0A3F5F010AF088583198582188071
:101AC30008858319858218D2AFD082D083D0E0F8FD
:101AD300D0E03274048006740280027401C0E0F422
:101AE30004121888D0E012175D2274048004740273
:101AF3008000CCC0E0EDC0E0E518C39CCCAD19502C
:101B0300011D10AF068C188D1980068C188D19D203
:101B1300AF12176AD0E0FDD0E0FC22D083D082E977
:101B2300C0E0E493A3C386F0C5F095F0F908E4930D
:101B3300A386F0C5F095F0700BE493A3C399400519
:101B4300E9048002A3E475F002A42582F582E5F09E
:101B53003583F583D0E0F9E493A3C0E0E493C0E0D8
:101B630022D083D082ECC0E0EDC0E0E493A3FCE498
:101B730093A3FDED4C600D121BB0EC24FFFCED3480
:101B8300FFFD80EFE493A3FCE493A3FDED4C600D14
:101B9300121BEFEC24FFFCED34FFFD80EFD0E0FDE2
:101BA300D0E0FCE493A3C0E0E493C0E022C0E0C330
:101BB300E49396087401939618400FE493667008B3
:101BC30008740193661870007019A3A3C3E4939675
:101BD300087401939618A3A3400DD0E0D0E0D0E0A1
:101BE300021BA0A3A3A3A3A3A3D0E022C0E0C0F041
:101BF30088F0E4936670080874019366187000A86F
:101C0300F0A3A3700BD0F0D0E0D0E0D0E0021BA093
:071C1300A3A3D0F0D0E022F2
:101C1C0074F5121933EAFEEBFFEE2434F8EF3400BE
:101C2C00F988088909EE2435F582EF3400F583E054
:101C3C00F8EE2437F582EF3400F583E0F50AEC85F5
:101C4C000AF0A4FCAAF0850AF0EDA42AFDE82CF811
:101C5C00E43DF97A257B001217CCEA8508828509C8
:101C6C0083F0F8740758F97401B900028004C33387
:101C7C00D9FCFAE8131313541FF8EE28F8EF3400CC
:101C8C00F9E8245DF582E93400F583E05A6008EE4A
:101C9C002434F582EF802CEE2434F582EF3400F5F9
:101CAC0083E0C0E0EE2436F582EF3400F583E0F5F6
:101CBC00F0D0E084A8F0EE28F8EF3400F9E82438EE
:101CCC00F582E93400F583E0F97F040219DF74F53D
:101CDC00121933EAFEEBFFEE2434F582EF3400F5F3
:101CEC0083E0C0E0EE2435F582EF3400F583D0E0DC
:101CFC00F08E828F83A3A3A3A3A3A3A3C082C083CC
:101D0C008E828F83A3A3A3A3A3E0F8A3E0F9D083CF
:101D1C00D082E0C398F508A3E099F509EE247FF58D
:101D2C0082EF3400F583E064017069EE2480F58263
:101D3C00EF3400F583E0F8A3E0F98E828F83A3A340
:101D4C00A3A3A3A3A3E0FCA3E0FD8E828F83A3A394
:101D5C00A3A3A3E0FAA3E0FBC3EA9CEB9D5010C342
:101D6C00EC98ED99402EC3EA98EB995027800EC35E
:101D7C00EA98EB994007C3EC98ED9940177C7F7D6E
:101D8C0006EEFAEFFB120AA7EE247FF582EF340081
:101D9C00F583E4F0EE2434F8EF3400F9E8FCE9FDC7
:101DAC00EE2435F582EF3400F583E0F8EE2437F5B8
:101DBC0082EF3400F583E0F50AE508850AF0A4F516
:101DCC0008AAF0850AF0E509A42AF509E82508F81F
:101DDC00E43509F97A257B001217CCEA8C828D83C5
:101DEC00F0F8740758F97401B900028004C333D9B0
:101DFC00FCFAE8131313541FF8EE28F8EF3400F92B
:101E0C00E8245DF582E93400F583E05A6008EE249D
:101E1C0034F582EF802CEE2434F582EF3400F58318
:101E2C00E0C0E0EE2436F582EF3400F583E0F5F007
:101E3C00D0E084A8F0EE28F8EF3400F9E82438F567
:101E4C0082E93400F583E0F91224F9021CD574EF11
:101E5C00121933900339E064086005E06407702AB6
:101E6C009061C8E06024900367E0F4601DE0F875B1
:101E7C00F005A4C8AAF02AF9746928FE740339FF86
:101E8C008E828F83A3A3A3E07003021F8A906060ED
:101E9C00E0C0E0EE2468F582EF3400F583D0E0F08A
:101EAC00750CBB750D06750800750900E5D914F5A0
:101EBC000AE5D95403F50E60177403650E605CE5F2
:101ECC000A6010EE2467F582EF3400F583E07003AE
:101EDC00021F6F9006B6E06401602AEE2482F58240
:101EEC00EF3400F583E06004780480027800850A02
:101EFC0008E508C398FA95E0FB12098D8A088B094E
:101F0C00EA45097005120D0B8074EE2482F582EF00
:101F1C003400F583E070048A0C8B0DE50A601285A1
:101F2C000C82850D83F50BE5D9F0A3150BE50B7031
:101F3C00F6EE2482F582EF3400F583E0604474FC05
:101F4C00250AF50A780C121ADAAC0AA90EEEFAEF89
:101F5C00FB120B5B740212186DE97026AA08AB0910
:101F6C00121419793D8E828F83A3A3A3A3E0FA7B6D
:101F7C0000120873EEFAEFFB120ACB120BBB7900BE
:101F8C0080747403650E6056850A10751100781004
:101F9C00121ADAAC0CAD0DAA08AB09120B3774028D
:101FAC0012186DEE2468F582EF3400F583E064803E
:101FBC007004747F8001E0F50C780C121ADEE50ECB
:101FCC00F50C780C121ADEA90AAC08AD099003675F
:101FDC00E0FA7B00120831740212186D8013900322
:101FEC0039E06408700BAC0CAD0DEEFAEFFB120B84
:101FFC008B120D1779017F0A0219DF74F512193350
:10200C0074FC121857EAFEEBFF8908A2AFE433F513
:10201C0009C2AF806AEE2463F8EF3400F97A007BD2
:10202C0000A2AFE433F50AC2AF88828983E0FCA337
:10203C00E0FDEC4D603A88828983E0FAA3E0FB8AEC
:10204C00828B83E0FCA3E0FD88828983ECF0A3ED16
:10205C00F08A828B83E4F0A3F088828983E0FCA36E
:10206C00E0FDEC4D700A88828983A3A3E4F0A3F011
:10207C00E50AA2E092AF121419900686E004F0EE85
:10208C002463F582EF3400F583E0F8A3E0F9E84926
:10209C00603DEE2463F582EF3400F583E02402FA10
:1020AC00A3E03400FBEA2402F50AEB3400F50B78CC
:1020BC000A121ADA8A828B83E0FCA3E0F9EEFAEFBB
:1020CC00FB120AFB740212186DE9700302202190B6
:1020DC000686E06063900687E0F8900686E0C39879
:1020EC00500C740265087050900688E0604A8E822D
:1020FC008F83A3A3A3A3E0851882851983F0A3E49F
:10210C00F0900686E0F874021218A3E8F0A3E4F04D
:10211C00900686E0F8900685E028F074021218A369
:10212C00AC82AD83851882851983AA82AB83790131
:10213C0012083D900686E4F0E509A2E092AF740423
:10214C0012186D021CD50000851A87851BC622C08B
:10215C00E0C0D0E8C0E0E9C0E0EAC0E0EBC0E0ECF1
:10216C00C0E0EDC0E0EEC0E0C008C009C00AC00B82
:10217C00C082C083C0F0A2AFE433FEC2AF759B0037
:10218C00906182E0A2E05012E591A2E0500C7591B2
:10219C00FE7401651A7003121E5AE0A2E55051E557
:1021AC0091A2E5504B7591DF900339E0640760050F
:1021BC00E0640870237401651A7035790190036727
:1021CC00E0FA75F005A4CAA8F028FB74692AFA7421
:1021DC00033BFB1220078018E0640D701390035B27
:1021EC00E004F064287002E4F07A00E0F9120D1DAE
:1021FC00906182E0A2E640030222A2E591A2E640B1
:10220C00030222A27591BF900339E0640570081295
:10221C000C27120C338003120C2D751A00120C8D26
:10222C00E990033AF07900120C6F120A177A017BCD
:10223C0000900338E0F9120F6F907803E06442705D
:10224C00559006BAE014F0704DC2AF12225A0078C5
:10225C001DD0E0F618D0E0F6E59F5407700575091F
:10226C00FF800375097FC4C0E0781CE6F50808E61A
:10227C005509F509740B7808121835D0E02508F8C3
:10228C00906270E0A2E740F8E8C333906272F0907D
:10229C006270E0D2E0F0906181E0A2E35009E5E9E0
:1022AC00A2E3500375E9F7A3E0A2E75009E591A278
:1022BC00E7500375917FEEA2E092AFD0F0D083D0BF
:1022CC0082D00BD00AD009D008D0E0FED0E0FDD0EF
:1022DC00E0FCD0E0FBD0E0FAD0E0F9D0E0F8D0D0D0
:1022EC00D0E032C0E0C0D0C082C083906183E0A255
:1022FC00E05009E5BFA2E0500375BFFEE0A2E1503B
:10230C0009E5BFA2E1500375BFFDE0A2E25009E56B
:10231C00BFA2E2500375BFFBE0A2E35009E5BFA2E8
:10232C00E3500375BFF7E0A2E45009E5BFA2E45007
:10233C000375BFEFE0A2E55009E5BFA2E5500375B8
:10234C00BFDFE0A2E65009E5BFA2E6500375BFBFB0
:10235C00D083D0828088C0E0C0D0E8C0E0E9C0E083
:10236C00EAC0E0EBC0E0ECC0E0EDC0E0C0F0E5A7F7
:10237C00A2E6500FE5A1A2E6500953A7BF75A1BF75
:10238C001223C7E5A7A2E5500CE5A1A2E550065320
:10239C00A7DF75A1DFE5A7A2E15009E5A1A2E150F5
:1023AC000375A1FDE5A7A2E2500CE5A1A2E250063F
:1023BC0053A7FB75A1FBD0F00222D874F812193385
:1023CC00751A01900339E064067015120BDF8A82CE
:1023DC008B83A3A3A3A3A3A3E0FAA3E0FB120C1586
:1023EC00A2AFE433FED2AF90033FE0640170187AE1
:1023FC00207B00900338E0F912100B7A207B0090C0
:10240C000338E0F9120F75906182E0D2E6F0900685
:10241C00B7E0602185C61B801690033EE064017016
:10242C0008E5C654F84405F5C653BEFC1221547495
:10243C0001651A60E4EEA2E092AF7F010219DF742D
:10244C00ED1219338A088B098C0A8D0B7413121830
:10245C00A3780C12170F7808790C12150F75100150
:10246C007511C875120075130050127808790C128A
:10247C0016AE7810790812150F50168010780C795A
:10248C00081216AE7810790C12150F4004790180E1
:10249C000279007F0C0219DF74ED1219338A088B54
:1024AC00098C0A8D0B74131218A3780C12170F7861
:1024BC000C790812150F40117808790C1216AEAA77
:1024CC0008AB09AC0AAD0B802275100075110075B4
:1024DC0012007513017810790C1216AE7810790869
:1024EC00121675AA10AB11AC12AD1380A6C082C027
:1024FC0083E9906000F0D083D08222C2AF0200004A
:10250C0022C0E074F2121A1FA2AFE433FED2AFC2A3
:10251C00C0E5D1A2E4500653D1EF121359EEA2E05C
:10252C0092AF7F01021A7EC0E074F2121A1FE5A866
:10253C00FED2AF1212F3C2EBEEA2E7A2E792AF7F8C
:10254C0001021A7EC0E0C0D0E8C0E0E9C0E0E5A816
:10255C00D2AFC2C7A2E7A2E792AFD0E0F9D0E0F8C1
:10256C00D0D0D0E032C0E074F2121A1FA2AFE43324
:10257C00FCD2AF901027E0F8A3E0F9A3E068700359
:10258C00A3E069700A539AFB90102B74018039C236
:10259C00E9901027E0F8A3E0F9E82401FAE439FB0C
:1025AC00901027EAF0A3EBF0749728F582740E399B
:1025BC00F583E0F5C1901027C3E09490A3E094015B
:1025CC004007901027E4F0A3F0ECA2E092AF7F015B
:0325DC00021A7E62
:1025E000FFFFFFFFFFFFFFFF74F71218C774F7121A
:1025F0001857E9900C8EF074041218A37408F07444
:10260000041218BD79017A047B0412106B7C707D72
:10261000177A027B001204537C707D177A037B00CB
:102620001204537C907D017A157B001204537C9038
:102630007D017A167B001204537C007D007A1A7BA0
:10264000001204537CFA7D007A197B001204537C3B
:10265000997D987A15790012058574051218A3746E
:10266000C7F0A3744CF0A3E4F0A3F074031218A312
:102670007401F0041218A3E4F0041218A3E4F08526
:10268000188285198304F074051218BD79047A083C
:102690007B041211DF74031218BD79017A007B04E8
:1026A0001211DF74021218BD79017A027B04121133
:1026B000DF74011218BD79017A037B041211DFACBB
:1026C00018AD1979017A067B041211DF1205A39067
:1026D0000C8EE0F91205A9909F6412172D12058B3C
:1026E000909F6412172D12071D900C8EE0F91210A6
:1026F00035900C8EE0F91210411213EF909F2412C6
:102700001AED7A087B00900C8EE0F9120FFF74042A
:1027100012186D909F24121AED7A107B00900C8E87
:10272000E0F9120FFF740412186D909F54121AED05
:102730007A207B00900C8EE0F9120FFF74041218BF
:102740006D909F20121AED7A407B00900C8EE0F97C
:10275000120FFF740412186D909F20121AED7A80E8
:102760007B00900C8EE0F9120FFF740412186D7A42
:102770000079031212FF7A017B00900C8EE0F912AF
:102780000F6F740902460274F01218C774FE121813
:1027900057EAFEEBFF5480607D900C8EE0F9120F3B
:1027A000578A088B09EA45096064EA2402F8E4358F
:1027B00009F98A828B83E02450600A24F0603A246D
:1027C000DF600780421210D7803D88828983E02431
:1027D000CF60181460101460081470141210FB807D
:1027E000261210F580211210EF801C1210E98017BC
:1027F0007AF07B9D12104D800EA3A3A3E0FA88828D
:102800008983E0F91210D1AA08AB09120F45EEFA3C
:10281000EF6480022A35EEA2E050147A607B9F12AA
:1028200010657A5C7B9F1211FDEE6401022A33541D
:1028300002604C909F80AC18AD19740212176A9018
:102840000CD6F0A3F0900CD41232CD900CDAF0A399
:10285000F0900CD8F0A3F0900CD304F0900C8EE024
:10286000F5087808121ADE790274011218BD1244B4
:10287000D01205AF740112186DEE6402022A33EE15
:10288000540460091210E9EE6404022A33EE54087D
:102890006020909F24121AED7A087B00900C8EE045
:1028A000F9120FFF740412186D121131EE64080250
:1028B0002A33EE54106020909F24121AED7A107B78
:1028C00000900C8EE0F9120FFF740412186D1211B3
:1028D00037EE6410022A33EE54206024909F541285
:1028E0001AED7A207B00900C8EE0F9120FFF740431
:1028F00012186D7AE87B031213F5EE6420022A3376
:10290000EE54406056909F20121AED7A407B009062
:102910000C8EE0F9120FFF740412186D900CEB7816
:102920000C12170F850C08850D09850E0A850F0BF3
:10293000909F2C7808121688900CEBE508F0A3E520
:1029400009F0A3E50AF0A3E50BF0AA0CAB0DAC0E61
:10295000AD0F121143EE6440022A33EE548070032F
:10296000022A38909F20121AED7A807B00900C8EFC
:10297000E0F9120FFF740412186D900CEB78081236
:10298000170F909F2C780C12170F900CEB780C12ED
:10299000169B7900900CDE1244D31211678B0DEA5E
:1029A000450D600A7AAC7B8012104D022A307A3BCA
:1029B0007B8012104D7A0E7B00120FC98A0E8B0F8E
:1029C000EA450F606B8A828B837425F0A378081226
:1029D000171E8A828B83A3A3A3A3A3E41240A2742D
:1029E00006F0F5087509007808121ADA7C8F7D1256
:1029F000EA2407FAE4350FFB120F1B740212186D5C
:102A0000E50E240DF582E4350FF5837423F07A6426
:102A10007B8512104D7508107509277808121ADA8F
:102A2000AC0EAD0F7ADE7B0C12114F740212186DD2
:102A3000EE6480FAEFFB80047A007B000238617458
:102A4000F71218C774E71218577A597B9712104D6E
:102A5000900CD2E06402707212362D606D900CEF13
:102A6000E070671239B074021218A37408F074038E
:102A70001218A3AC82AD8375830C7582FE740812A4
:102A8000176A74171218A3E4F074181218A3E4124A
:102A90002C3D1205C1E9FE7A5D7B8F12104DEEF9D7
:102AA00012105912104DEE700F9012987406122BDE
:102AB00069F07A957B908016900D137404F07A9FDC
:102AC0007B8312104D1210FB80077A987B821210C4
:102AD0004D02460074F71218C774E71218577AF2BD
:102AE0007B9112104D900CD2E064027072900CDC5D
:102AF000123630606A900CEFE070641239B07402E4
:102B00001218A3740DF074031218A3AC82AD837570
:102B1000830D758206740D12176A74171218A3E4D8
:102B2000F074181218A3E4122C3D1205C1E9FE7AC4
:102B30005D7B8F12104DEEF912105912104DEE9070
:102B40001298700C7407122B69F07A2A7B8D80130F
:102B50007404F07A3C7B8212104D1210FB80077ACD
:102B60004D7B8112104D024600F0900CEF74012253
:102B700074F71218C774E5121857EAFEA2E0400372
:102B8000022C227AFB7B9A12104D900CD2E0640248
:102B90006003022C22900CD81236307003022C22D3
:102BA000900CEFE0707C90128EE0604A7402121874
:102BB000A31239B674041218A37408F0740512181D
:102BC000A3AC82AD8375830C7582F6740812176A04
:102BD00074191218A3E4F0741A1218A3E4F0900CFC
:102BE0008EE0F974021218BD1244D01205C1E9FF3B
:102BF0007A0E7B9B800C122C331205B5E9FF7AE824
:102C00007B9A12104DEFF912105912104DEF7012FD
:102C1000900CEF7401F090128EE07004740180014A
:102C2000E4F0EEA2E150077A217B9B12104D741B59
:102C3000024602851882851983E8F0A3E9F0900C1A
:102C40008EE0F9AC18AD1990128CE0FAA3E0FB22EB
:102C500074F21218C774FC121857EAFEEBFF900CBE
:102C6000D2E0640260077AF17B97022E087A747BC7
:102C70009212104D12399FE0F912105912104D8521
:102C80000882850983E0F8740B68602D7401686020
:102C900003022E568E828F83A3A3A3A3A3E0F8EE94
:102CA0002408F582E43FF583740A686003022E7DF0
:102CB000E0FE7A3B7B88022E88750CAE750D987508
:102CC0000AE8750B9A8E828F83A385820885830913
:102CD000EE2406F8E43FF9900D13E064016003026E
:102CE0002D82888289837CF67D0C740812176A7A9B
:102CF000727B9512104D79087AF67B0C12105F905A
:102D00000CEFE4F07A467B9C12104D850882850911
:102D100083E0F912105912104D7A177B9712104D5B
:102D2000900CD2E06402705312362D604E900CEF7E
:102D3000E0704874021218A31239B6900C8EE0F9B4
:102D400074021218BD1244D01205B5E9FEAA0AABEE
:102D50000B12104DEEF912105912104DEE700D902D
:102D60000D137402F0900CEF14022E03900D13E477
:102D7000F07A7C7B8912104D022EBA7A797B86021A
:102D80002E08E064026003022E0E888289837CFE96
:102D90007D0C740812176A7AB17B9712104D79086E
:102DA0007AFE7B0C12105F900CEFE4F07ABF7B92FE
:102DB00012104D850882850983E0F912105912100E
:102DC0004D7ABE7B9112104D900CD2E0640270AB34
:102DD000900CDC12363060A3900CEFE0709D122C4A
:102DE000331205B5E9FEAA0AAB0B12104DEEF9122B
:102DF000105912104DEE6003022D6C900D137403E8
:102E0000122B69F0AA0CAB0D12104D022ECCE0640F
:102E1000036003022ECC888289837C067D0D740DAD
:102E200012176A7A407B9212104D790D7A067B0D4B
:102E300012105F900CEFE4F0900D13F07AE97B8EA6
:102E400012104D850882850983E0F912105912107D
:102E50004D12112B80767413687064901298E064A0
:102E6000077037900CEFE4F07AB37B9312104D7932
:102E70000D7A067B0D12105F1210C5804F74126818
:102E8000703DE0FE7A127B8712104DEEF912105958
:102E900012104D900CEFE4F08020E06406702D904D
:102EA0000CEFE4F09012987404F07A9E7B99121063
:102EB0004D79087AFE7B0C12105F1210FB800D908A
:102EC0000CD3E06007EEFAEFFB121119740402391B
:102ED000BE74F61218C77E05ECF8EDF98882898376
:102EE000A3AC82AD83EA2EF582E43BF583E0FF8854
:102EF000828983E06F600B7A807B9B12104D790092
:102F000080101EEEC3940350CF7AB07B9D12104DFB
:102F100079017F0202199974F71218C77F008F8216
:102F2000A882EA28F582E43BF583E0FEEC28F582EE
:102F3000E43DF583E06E600B7A737B9412104D795B
:102F40000080100FEFC3940640D47A2D7B971210A7
:102F50004D7901024605C082C083900CD0E0701507
:102F60007401F0900C8FE4F0FBFA790312107D7A73
:102F7000F07B9C80047AB67B9B023722C082C083A0
:102F8000900CD0E0600BE4F01210837AB37B9E804B
:102F9000047A9C7B9C02372274F71218C7900CD2DB
:102FA000E0705A7401F07CF07D0C7B007A00F9121D
:102FB0001077E9FE70107A0E7B9E12104D7AF07B2E
:102FC0000C121173803B900CD2E4F01209ED7AF3ED
:102FD0007B8A12104DEEF912105912104D7ABA7BFD
:102FE0009412104D909F30121AED7A047B00900CD1
:102FF0008EE0F9120FFF740412186D80077A137BAC
:103000008912104D024605C082C083900CD2E06444
:10301000016005E06402700F7403F01244D01210D6
:10302000717ADA7B9B8016E070077AD17B9412105C
:103030004D900CD2E0640370077A6F7B9812104DAC
:1030400002372574F71218C7E9FE7AD47B9E121056
:103050004DEEF404F912105912104D02460574F2A7
:103060001218C7EAFEEBFF750CBA750D94123FA259
:103070008E828F83A3A3E060201470030231242486
:10308000FC70030231401470030231F51470030226
:1030900032C324FA60250232CA7A137B8C12104D97
:1030A0007AD07B9D12104DEE2403FAE43FFB1211FF
:1030B0007312104D7A0A7B930232A77AA77B9E1275
:1030C000104DAA08AB0912117312104D7AE07B9DC6
:1030D00012104DEE240CF582E43FF583E0F9123E28
:1030E0001E1244D312105F7C957D12AA08AB091200
:1030F00010DDE96028750A06750B00780A121ADAE5
:10310000AC08AD097AF07B0C120F1B740212186D1B
:103110007A6B7B9E12104D1210EF0232927AD17BA5
:103120008F0232C7900CD0E4F07A2B7B9412104DB2
:10313000900CD2E060077A3B7B930232C70232AA3E
:103140008E828F83A3858208858309E0900CD260EC
:10315000030231D67402123C1712409A90128C125C
:1031600039B6900CEF7401F0900CD8123630600D27
:1031700012362D6008900CDC1236307017909F2CA0
:10318000121AED7A027B00900C8EE0F9120FFF7498
:103190000412186D7A6D7B9112104DEE2404FAE43E
:1031A0003FFB12117312104D7A767B9912104D125B
:1031B00044D012105312104D900CD1E060117A10CF
:1031C0007B9C12104D7CE87D031244D01210897A4A
:1031D000237B930232C71232D77A767B9A12104D34
:1031E000850882850983E0F912105912104DAA0C46
:1031F000AB0D0232C7900CD21232D7900CD8F0A38C
:10320000F0900CDA1232CD900D13F09012987404F5
:10321000F0900CEFE4F07A697B9C12104D850882E7
:10322000850983E0F912105912104D900C8FE0F5CA
:10323000097E907F0C900D14E0F5088009EE2408BB
:10324000FE50010F0508E508C39509504AEE240217
:10325000F50AE43FF50B7C957D12AA0AFB1210DDFE
:10326000E960DA74012508900D14123D60121ADA33
:10327000AC0AAD0B7AF07B0C120F1B740212186DA6
:103280007A7A7B8F12104D900D14E0F912105912BA
:10329000104D1210F58033900D14E4F07A067B8FF8
:1032A00012104DAA0CAB0D12104D909F30121AED5A
:1032B0007A047B00900C8EE0F9120FFF7404121850
:1032C0006D80077A307B9812104D0239C1F0A3F05F
:1032D000900CDCF0A3F022E4F090128C74FEF0A3CA
:1032E00004F0900CD1E4F0900CD3F02274F7121893
:1032F000C7E9FEECFFEE70067A807B9D80207401AA
:103300006E700FEF70067A607B9D80127A387B9E1C
:10331000800C74026E700AEF70077A107B9D121099
:103320004D02460502011F74F21218C774FE1218EE
:10333000578A0A8B0BEA2408F50CE4350BF50DEAE5
:103340002405FEE4350BFFEA2404F508E4350BF50B
:1033500009900CD3E06401600302341A8508828569
:103360000983E06407705E8E828F83E060627AD5A5
:103370007B9A12104D8E828F83E0F9121059121031
:103380004D850A82850B83124096900CD41239B673
:10339000850C82850D8312409C900CD61239B67A2A
:1033A000377B9112104D900CD41244D3121053124B
:1033B000104D7A017B9112104D900CD61244D3120D
:1033C000105312104D850882850983E0640770321E
:1033D000850A82850B83A3E0641A60030236117AA2
:1033E000CC7B8E12104D900CD412363060077902CF
:1033F00012111F800D1236387AF37B8312104D1292
:1034000010FB850882850983E064016003023611A0
:103410001236387A987B8402353AE06402600302FF
:1034200034A3850882850983E0640970578E828FF2
:1034300083E06031123616900CD81239B77A4E7B81
:103440009912104D8E828F83E0F912105912104D8F
:103450007A407B8F12104D900CD81244D312105327
:1034600012104D801F7A627B9912104D8E828F83CD
:10347000E0F912105912104D7A497B8D12104D79D6
:103480000312111F850882850983E064016003022D
:1034900036117A417B9012104D1236387AE07B81DA
:1034A00002353AE0640360030235438508828509EA
:1034B00083E0640970687A347B9B8E828F83E0603E
:1034C00042850A82850B83A3A3A3A3A3A3A3E0FC45
:1034D000850C82850D83E0F9EC900CDA1239B71275
:1034E000104D8E828F83E0F912105912104D7AED33
:1034F0007B8F12104D900CDA1244D312105312101D
:103500004D801B12104D8E828F83E0F912105912DC
:10351000104D7A877B8D12104D790412111F85088A
:1035200082850983E0640160030236117AB07B90E2
:1035300012104D1236387AC57B8212104D1210FBD4
:10354000023611E0640460030236118508828509A1
:1035500083E0640960030235F28E828F83E0602E7F
:10356000123616900CDC1239B77AA07B9512104DEA
:103570008E828F83E0F912105912104D7A937B8B53
:1035800012104D900CDC1244D3121053806112368D
:10359000387AB37B8B12104D7AFF7B9412104D90CA
:1035A0000CD2E064027044900CD8123630603C902B
:1035B0000CEFE07036122C331205B5E9FE7AE87B89
:1035C0009A12104DEEF912105912104DEE900D1383
:1035D000700B740112363C7AAE7B988012E4F07A5C
:1035E0007C7B8912104D1210FB80077A797B861242
:1035F000104D850882850983E0640170147ACD7BC3
:103600008C12104D1236381210FB7A7F7B8112100B
:103610004D74020239BE8A828B83A3A3A3A3A3A302
:10362000A3E0FA850C82850D83E0F9EA22900CDA9A
:10363000E0F8A3E0F9E84922900CD3E4F0900CEF15
:10364000F02274F71218C774EB121857E9FE900CA9
:10365000D412363070030236D9EE900CD3F0900CB1
:10366000D51239AE900CD612409C74021218A312D7
:1036700039B674041218A37402F06E701674051231
:1036800018A374F2F074061218A374FFF07AC67BC4
:1036900086803474036E701674051218A374F1F0EA
:1036A00074061218A374FFF07A5D7B878019740486
:1036B0006E701774051218A374F3F074061218A331
:1036C00074FFF07A137B8512104D900C8EE0F9ACEC
:1036D00018AD191244D01205BB7415024602C082FF
:1036E000C083900CE91244D312105312104D900C69
:1036F000E8E0F912105912104D900CE7E0F91210A1
:103700005912104D900CE6E0F912105912104D901C
:103710000CE5E0F912105912104D900CE4E0F9128A
:10372000105912104DD083D08202011F74F012186C
:10373000C7120FA58A088B098C0A8D0B7808121AFC
:10374000D67AE47B0C120FAB740412186D7A2A7BC4
:103750009E12104D7AE47B0C121125900D06E06448
:1037600001704C900CE9E0900D07F0900CE8E090AF
:103770000D08F0900CE7E0900D09F0900CE6E09059
:103780000D0AF0900CE5E0900D0BF0900CE4E09049
:103790000D0C123D60121ADA7C077D0D7A0D7B0D3F
:1037A0001214A9740212186D7A007B9D02384BE046
:1037B00064026003023847900CE9E0900D0DF09030
:1037C0000CE8E0900D0EF0900CE7E0900D0FF090FB
:1037D0000CE6E0900D10F0900CE5E0900D11F090EB
:1037E0000CE4E0900D12F07A1C7B9E12104D900CB0
:1037F000EB780812170F85080C85090D850A0E85D0
:103800000B0F909F2C780C121688900CEB780C12F2
:10381000171EAA08AB09AC0AAD0B12113DE97021C5
:10382000900D067401123D60121ADA7C0D7D0D7A3E
:10383000077B0D1214A9740212186D7A927B9B807B
:103840000A7A677B9680047A8A7B9912104D7AB245
:103850007B9912104D7AFE7B0C12115B1210CB80FB
:1038600005740212186D7F0802199974F21218C7B4
:103870007ADA7B9912104D901052E0642260077A38
:10388000007B8002399A900CDEE0FEA3E0FF023953
:103890001CE4F0A3F07ACB7B9312104D850882854F
:1038A000098312363070548E828F831240968508B9
:1038B000828509831239B68E828F83A3A31244D3E3
:1038C0008A828B83A3A3A3A3A3E07003023982148B
:1038D000602014700302398714600302398C7C095C
:1038E0007D0079011214C7850A82850B837401F06B
:1038F00080127C0F7D0079011214C7850A82850B26
:1039000083E06014EEFCEFFD7ADE7B0C12116DE9B2
:103910007006900CE2E014F0AE0CAF0DEE4F607646
:103920007AEE7B9912104D900CE2E0F912105912C8
:10393000104D8E828F83E0F50CA3E0F50DEE240888
:10394000F50AE43FF50B850A82F583E070AD7AE174
:103950007B8D12104D12399F12363070030238A73A
:10396000C3E894D1E994078508828509835003024E
:103970003891E02430F0A3E034F8F07AEB7B960243
:1039800038997C0E0238F47C280238F47A017B974F
:1039900012104D0238E77A6B7B9312104D8022EEA5
:1039A0002404F508E43FF509850882F58322E0F94F
:1039B000851882851983E8F0A3E9F02274011218B2
:1039C0006D7F0602199974F01218C774FE12185709
:1039D000900CE0E0F50EA3E0F50F7A027B9A12104E
:1039E0004D80367A1D7B8412104D850E82850F83A3
:1039F000A3A3A3A3A3A3A3A37401F0AC0EAD0F7A5A
:103A0000E07B0C12116D900CE3E014F085188285B8
:103A10001983E0F50EA3E0F50FE50E450F700302E4
:103A20003BF37A167B9A12104D900CE3E0F91210DA
:103A30005912104D850E82850F83E0F8A31239AE1E
:103A40007AFF7B8D12104DE50E2402FEE4350FFF48
:103A50008E828F831244FF24FD7003023BB11460F9
:103A600009147003023B24023BEC7A5F7B9E121028
:103A70004D123C05121AED900CDE1244D312116166
:103A8000740412186D8A088B09EA45097003023B19
:103A90001D8E828F8312409C88828983A3A3A3A357
:103AA000A3E06404705FE8240D123BFD24D0FAE427
:103AB0003407FB900CE9EAF0A3EBF0E8240E123B8C
:103AC000FD900CE8F0E8240F123BFD900CE7F0E8C5
:103AD0002410123BFD900CE6F0E82411123BFD90FF
:103AE0000CE5F0E82412123BFD900CE4F07AE47B44
:103AF0000C120FB7120F9F7AE07B9C12104D7AE4E4
:103B00007B0C121125850882850983A3A3A3A3A397
:103B1000A3A3A37401F07A0E7B820239E77A747B47
:103B2000800239E77AAD7B9C12104D8E828F831212
:103B300044D3121155E970030239EA8E828F831241
:103B400044CA12170F7A097B00120FC98A0C8B0D19
:103B5000AE0CAF0DEE4F60278E828F837425F0A3DD
:103B6000780812171E8E828F83A3A3A3A3A37403C6
:103B7000123D50123D4EA37455123C177423F07A37
:103B8000F17B8712104DE4F508F5097808121ADA6E
:103B9000EEFCEFFD7ADE7B0C12114F740212186DF1
:103BA000E970077A167B8812104D7AC97B83023937
:103BB000E77ABE7B9E12104D123C05121AED900C56
:103BC000DE1244D3121161740412186D8B09EA4598
:103BD0000970030239E38A828B83A3A3A3A3A3A35F
:103BE000A3A37401F07A137B8B0239E77A257B90CB
:103BF0000239E77AFB7B9312104D023861F582E4BB
:103C000039F583E0228E828F83123C0D22E0F8A3E7
:103C1000E0F5838882A322123D54A3A32274F212FA
:103C200018C78A088B098C0A8D0B7A287B00120F23
:103C3000C98A0C8B0DAE0CAF0DEE4F7003023D42E6
:103C40008E828F837425F0A3780812171E8E828FC0
:103C500083A3A3A3A3A37402123D507420123D605A
:103C6000121ADA7C8F7D12EE2407FAE43FFB120F62
:103C70001B740212186D7808121ADA7CFE7D0CEEA5
:103C8000240DFAE43FFB120F1B740212186D900D05
:103C900004E0C0E0EE2413F582E43FF583D0E0F0C9
:103CA0007808121ADA7CF67D0CEE2414FAE43FFB55
:103CB000120F1B740212186D900CFCE0C0E0EE2491
:103CC0001AF582E43FF583D0E0F07808121ADA7C26
:103CD000077D0DEE241BFAE43FFB120F1B7402124A
:103CE000186D7808121ADA7C0D7D0DEE2421FAE4A5
:103CF0003FFB120F1B740212186DEE2427F582E4AD
:103D00003FF5837423F07A2B7B8612104D750810D3
:103D10007509277808121ADAEEFCEFFD7ADE7B0CC3
:103D200012114F740212186DE9FE700B7A3C7B85FC
:103D300012104D790080147A8C7B8512104DEEF9AB
:103D400080097A237B8F12104D79010239C17401E9
:103D5000123D5422F08E828F83A3A3A3A3A3A32298
:103D6000F075080675090078082274F21218C78ADF
:103D7000088B098C0A8D0B7901900CDE1244D3124A
:103D800011678B0DEA450D600C7A197B8112104D7D
:103D90007900023E1B7AE37B8012104D7A0F7B0084
:103DA000120FC98A0C8B0DAE0CAF0DEE4F606A8EF0
:103DB000828F837425F0A3780812171E8E828F835A
:103DC000A3A3A3A3A3123D4E7407123D60121ADAF7
:103DD0007C8F7D12EE2407FAE43FFB120F1B740266
:103DE00012186D123E1E74AAF0EE240EF582E43F06
:103DF000F5837423F07A497B8312104D7508107592
:103E000009277808121ADAEEFCEFFD7ADE7B0C1235
:103E1000114F740212186D800279010239C1EE242B
:103E20000DF582E43FF5832274F01218C7EAFEEB29
:103E3000FFEA2CF8EB3DF9880A890B80127A737B34
:103E40008B12104D850E82850F83A3AE82AF838EB9
:103E5000828F83A3A3A3A3A3A3E0F50CF508EE250B
:103E600008F8E43FF9E82407F50EE439F50F8E82EF
:103E70008F83E064256003023F83123FA28508829E
:103E8000F583E0C394064003023F83C3E50A950E21
:103E9000E50B950F5003023F83850E82850F83E06B
:103EA00064236003023F837AC77B9712104D850815
:103EB00082850983E024FD7003023F5A14600514D3
:103EC000606C8080740C650C705DEE2407FCE43F30
:103ED000FD7A8F7B121210E3E9604C7A207B9D12F1
:103EE000104D7A147B00120FC98A088B09EA450924
:103EF0007003023E44750C14750D00780C121ADA2A
:103F0000EEFCEFFD120F1B740212186DE4F50C7835
:103F10000C121ADAAC08AD097AE07B0C12114F745E
:103F20000212186D023E447A1E7B83023E417407E2
:103F3000650C701F7A5A7B9812104D7A0F7B001215
:103F40000FC98A088B09EA45097003023E44750CC3
:103F50000F80A57A4B7B8A023E417401650C600399
:103F6000023E3D7A2A7B9A12104D7A097B00120F8D
:103F7000C98A088B09EA45097003023E44750C0999
:103F8000023EF88E828F83A3AE82AF83C3E50A9E82
:103F9000E50B9F4003023E4F7A407B9D12104D027D
:103FA0003866EE2405F508E43FF5092274F212188C
:103FB000C78A088B098C0A8D0BEA64DE7003EB64F8
:103FC0000C70047EE27F0CEA64E07003EB640C701A
:103FD000047EE37F0CEC450B7003024073EA450955
:103FE00070030240738E828F83E0C39414400302F7
:103FF00040737A097B00120FC9EA4B700302408AB2
:104000008A828B83A3A3E50AF0A3E50BF08A828B57
:1040100083E4F0A3F0740E1218A312409C8A828BE2
:1040200083A3A3A3A3A3A31239B68A828B83A3A3DA
:10403000A3A3E4F0A31240A2A3A3F08508828509FC
:1040400083123630700C8508828509838015ECF860
:10405000EDF988828983E0FCA3E0FDEC4D70EF88E8
:10406000828983EAF0A3EBF08E828F83E004F079FB
:104070000080208E828F83E0C3941440067AA77B51
:104080008780047A5F7B8812104DAA0AAB0B120F4F
:10409000CF79010239C1A3A3A3A3A3A3E0F8A3E0AE
:1040A000F922F08A828B83A3A3A3A3A3A32274F291
:1040B0001218C774FF1218578A0C8B0DEA240CF5DE
:1040C00082E4350DF583E0F5087A0F7B9612104DEA
:1040D000A90812105912104DE508C39480500D7AAA
:1040E000127B9912104D74802508F5087A3B7B9657
:1040F00012104DA90812105912104DAC18AD197AB2
:1041000001A908121497E97009851882851983E0BE
:1041100070657A6F7B8412104D7A107B00120FC984
:104120008A0A8B0BAE0AAF0BEE4F6044750A0F750F
:104130000B00780A121ADAAC0CAD0D8E828F83A3B5
:10414000AA82AB83120F1B740212186D8518828528
:104150001983740112448E7AA57B8D12104D79104B
:10416000EEFAEFFB12105FEEFCEFFD7A10024293C5
:104170007A5D7B900242B7C3940A40030242B3E0E7
:1041800075F00FA4A9F02410FAE439FB120FC98AC4
:104190000A8B0BAE0AAF0B750AEF750B88EE4F70EA
:1041A000030242AD124468121497E960030242A66A
:1041B0007A6D7B8A12104D12447C12105F8E828FB2
:1041C00083A385820A85830B750900800CE50A2488
:1041D0000FF50A5002050B0509851882851983E041
:1041E000F8E509C398506DE50C2407FCE4350DFD96
:1041F000E50A2407FAE4350BFB1210E3E960CE7AF6
:104200001C7B9112104DE50C240DF50C5002050D90
:10421000E50A240DF50A5002050BF582850B83E0B3
:10422000F8850C82850D83E06860177AD27B8A124C
:10423000104D850C82850D83E0850A82850B83F005
:1042400080407A327B8C12104DEEFAEFFB120FCFCA
:1042500079008068850C82850D83AC0AAD0B740FE4
:1042600012176A851882851983E00412448E7A46F3
:104270007B8412104D7A837B8812104D12447C127D
:10428000105FEEFCEFFD75F00F851882851983E055
:10429000A404FAA908121491E9F508EEFAEFFB124A
:1042A0000FCFA9088016EEFAEFFB120FCFAA0AABC8
:1042B0000B80047A537B8B12104D79010239BC7448
:1042C000F21218C774FF1218578A0C8B0D8A828B52
:1042D00083A3A3A3A3A3E0F5087A437B9712104D11
:1042E000A90812105912104DE508C39480500D7A98
:1042F000EA7B9812104D74802508F5087A6F7B9739
:1043000012104DA90812105912104DAC18AD197A9F
:1043100001A908121497E97009851882851983E0AC
:1043200070077AC37B8D02442AC3940B4003024476
:1043300049E075F00FA4A9F02401FAE439FB120F4B
:10434000C98A0A8B0BAE0AAF0BEE4F700302443ED4
:10435000124468121497E960030244317A0B7B8D92
:1043600012104D12447C12105F8E828F83A38582BF
:104370000A85830B750900800CE50A240FF50A50A5
:1043800002050B0509851882851983E0F8E509C344
:1043900098400302441FAC0CAD0DE50A2407FAE473
:1043A000350BFB1210E3E960D07AA37B9112104D1C
:1043B000E50A240DF582E4350BF583E0850C828552
:1043C0000D83A3A3A3A3A3A3A3F074012509FA80DB
:1043D0001BE50A240FF8E4350BF988828983AC0ABF
:1043E000AD0B740F12176A880A890B0A851882852B
:1043F0001983E0F8EAC39840D8E01412448E7AAEEC
:104400007B8C12104D12447C12105F1244681214FF
:1044100091E9F508EEFAEFFB120FCFA9088046EEFE
:10442000FAEFFB120FCF7A687B8D12104D79008066
:1044300034EEFAEFFB120FCF7A9F7B8980047A88E3
:104440007B9112104D7901801C7A077B8A12104DE6
:10445000851882851983E4F0AC18AD197A01A90892
:1044600012149179090239BCEEFCEFFD75F00F854D
:104470001882851983E0A404FAA9082275F00F8533
:104480001882851983E0A404F9EEFAEFFB22F08E7E
:10449000828F83F02274F41218C7740C1218A37858
:1044A0000812170F80078A828B831244D3EA4B606D
:1044B000108A828B83A3A31244CA1214FA70E78075
:1044C000047A007B007F04021999123C0D780822BF
:1044D00090128CE0FAA3E0FB22C082C08380078A9E
:1044E000828B831244D3EA4B600E8A828B83A3A310
:1044F0001244FF6970E980047A007B0002372512BC
:104500003C0DA3A3A3A3E02274F21218C78A0C8B5C
:104510000D8A828B83E0FEA3E0FFEE4F6062EC4DDC
:10452000605E7508007509008E828F83E0F50AA32E
:10453000E0F50BEC6E7002ED6F70398E828F83A305
:10454000A31244D3120FCFEEFAEFFB120FCFE50800
:1045500045097008850C82850D8380068508828553
:104560000983E50AF0A3E50BF07A507B9D12104D0C
:10457000790080158E088F09AE0AAF0BEE4F70A838
:104580007A707B9D12104D79070239C174F71218A9
:10459000C774EF121857909CCFAC18AD1974111254
:1045A000176A900D157430F0A37478F07817790DB0
:1045B000EA2406FA50010B7E06EA24FF1AEB34FFC8
:1045C000FB8A828B83E0C41245E5A882A9838A8294
:1045D0008B83E01245E508A983DEDEE4F07A157BE3
:1045E0000D7411801D540FFC851882851983E58296
:1045F0002CF582E43583F583E088828983F0A32259
:10460000741912186D7F01021999C082C083780C49
:10461000790788828983A3A3A3A3A3A3E4F0888254
:104620008983A3A3A3A3A374FFF0E82418F8E934B3
:1046300000F9E8646C7003E9640770D690070E74A3
:10464000FFF090070DE4F090070CF090070FF0A337
:10465000F0025F0274EC1218C790070FE0F508A390
:10466000E0F509E50845097006120A17025490851D
:104670000882850983E014601814601524FE601117
:1046800024C47003024E9624C07003024E96025456
:1046900090E0F9120BCD8A0A8B0BAE0AAF0B900398
:1046A00066E07003024A94120ABFE9F875F005A4A7
:1046B000C8AAF02AF9746928F50C740339F50D8538
:1046C0000C82F583E0F50AA3E0F50BAC0AFDEEFAE7
:1046D000EFFB120BC7E9F50E7402650E7003024A78
:1046E0003C8E828F83E024FE600A24FE7003024920
:1046F00026025490EE65087003EF65096021120AE6
:104700003590069AE064017016900699E070107971
:1047100001120CDB120CAB120CD57900120CE1E586
:104720000E6021E5082415F582E5093400F583E0E3
:104730006012900695E0F8A3E0F9A3E0687003A387
:10474000E0697042120C3F8A0C8B0D8C0E8D0F7538
:104750001003751100751200751300780C79101292
:1047600016757510FF7511FF7512FF780C79101210
:1047700016D68E828F83A3A3E50CF0A3E50DF0A3DC
:10478000E50EF0A3E4F0E5082415F582E509340010
:10479000F583E06401600302483E850A82850B834D
:1047A000A3A3750CF1750DFF750EFF750FFF780C47
:1047B000121688780C121AD68E828F83A3A3C08219
:1047C000C083900697E0F508A3E085080CF50DE49A
:1047D000F50EF50FD083D082780C121688AA0CAB98
:1047E0000DAC0EAD0F12244B740412186DE9701F3E
:1047F0008E828F83A3A3C082C083900697E0F508C2
:10480000A3E0F509E4F50AF50BD083D08280148586
:104810000A82850B83A3A37508F17509FF750AFF4A
:10482000750BFF7808121688750CFF750DFF750E55
:10483000FF750F007808790C1216D6024D8EEE2403
:104840000EF582EF3400F583121AED8E828F83A36A
:10485000A312172D12244B740412186DE964016021
:10486000030253B1850A82850B83A3A3750CF175EE
:104870000DFF750EFF750FFF780C121688780C125D
:104880001AD68E828F83A3A3C082C083900697E03E
:10489000F508A3E085080CF50DE4F50EF50FD083BF
:1048A000D082780C121688AA0CAB0DAC0EAD0F128C
:1048B000244B740412186DE9701F8E828F83A3A39A
:1048C000C082C083900697E0F508A3E0F509E4F5FF
:1048D0000AF50BD083D0828014850A82850B83A3CE
:1048E000A37508F17509FF750AFF750BFF780812AB
:1048F0001688750CFF750DFF750EFF750F00780893
:10490000790C1216D6EE240EF582EF3400F583787A
:104910000812171E90069DE064277004742580021B
:10492000E004F00253B1EE65087003EF65096031F1
:104930009006B1E0F9120A3B850882850983E0649C
:1049400002701E90069AE064017016900699E0705D
:10495000107900120CDB120CAB120CD57901120C81
:10496000E1E50E60129006ABE0F8A3E0F9A3E06881
:104970007003A3E0697039120C3F8A0C8B0D8C0E0A
:104980008D0F751003751100751200751300780CEA
:1049900079101216757510FF7511FF7512FF780CDE
:1049A00079101216D68E828F83A3A3780C12171E4D
:1049B000850A82850B83A3A3750CF1750DFF750E17
:1049C000FF750FFF780C121688780C121AD68E829B
:1049D0008F83A3A3C082C0839006ADE0F508A3E057
:1049E00085080CF50DE4F50EF50FD083D082780C18
:1049F000121688AA0CAB0DAC0EAD0F12244B74042A
:104A000012186DE9701F8E828F83A3A3C082C083AA
:104A10009006ADE0F508A3E0F509E4F50AF50BD042
:104A200083D0828014850A82850B83A3A37508F145
:104A30007509FF750AFF750BFF02519A850882857B
:104A40000983E06402701390069AE06401700B9091
:104A50000699E070057900120CDBE50C2404FEE5F4
:104A60000D3400FF8E828F83E0F9120C038E828F4B
:104A700083E0900367F07902FA75F005A4CAA8F004
:104A800028FB74692AFA74033BFB122007AA0AABBD
:104A90000B02548DEE65087003EF65098E828F83DB
:104AA0006003024CB0E024FE600A24FE7003024B57
:104AB000ED025489EE2415F582EF3400F583E060B1
:104AC0004C900695E0F8A3E0F9A3E0687003A3E03A
:104AD00069603A120C3F8A088B098C0A8D0B750CA1
:104AE0000A750D00750E00750F007808790C121606
:104AF000757808121AD68E828F83A3A312172D12EF
:104B0000244B740412186DE96003025489120C3F9F
:104B10008A088B098C0A8D0B750C03750D00750EB8
:104B200000750F007808790C121675750CFF750D5D
:104B3000FF750EFF7808790C1216D68E828F83A32C
:104B4000A3780812171EEE2415F582EF3400F583C2
:104B5000E0640170328E828F83A3A3C082C08390F1
:104B60000697E0F508A3E0F509E4F50AD083D082C2
:104B70007808121688EE240EF582EF3400F583785B
:104B80000812171E025489EE240EF582EF3400F548
:104B900083121AED8E828F83A3A312172D12244B3A
:104BA000740412186DE9640160030254898E828FC7
:104BB00083A3A3C082C083900697E0F508A3E0F525
:104BC00009E4F50AD083D0827808121688EE240E04
:104BD000F582EF3400F583780812171E90069DE0E9
:104BE0006427700474258002E0040254889006ABA8
:104BF000E0F8A3E0F9A3E0687003A3E0696037126E
:104C00000C3F8A088B098C0A8D0B750C0A750D00F8
:104C1000750E00750F007808790C12167578081259
:104C20001AD68E828F83A3A312172D12244B7404DD
:104C300012186DE97077EE2402F508EF3400F509DB
:104C4000120C3F8A0C8B0D8C0E8D0F751003751195
:104C500000751200751300780C7910121675751016
:104C6000FF7511FF7512FF780C79101216D68508A2
:104C700082850983780C12171E850882850983C0F6
:104C800082C0839006ADE0F508A3E0F509E4F50ADB
:104C9000F50BD083D0827808121688EE240EF582A8
:104CA000EF3400F583780812171E120A4102548966
:104CB000E024FE600A24FE7003024DA0025490120C
:104CC0000A3590069AE064017016900699E070101B
:104CD0007901120CDB120CAB120CD57900120CE12D
:104CE000900695E0F8A3E0F9A3E0687003A3E069FB
:104CF0006037120C3F8A088B098C0A8D0B750C0AE1
:104D0000750D00750E00750F007808790C12167578
:104D10007808121AD68E828F83A3A312172D12241D
:104D20004B740412186DE97074EE2402F508EF3428
:104D300000F509120C3F8A0C8B0D8C0E8D0F75102F
:104D400003751100751200751300780C7910121696
:104D5000757510FF7511FF7512FF780C791012161A
:104D6000D6850882850983780C12171E85088285EE
:104D70000983C082C083900697E0F508A3E0F50997
:104D8000E4F50AF50BD083D0827808121688EE2459
:104D90000EF582EF3400F583780812171E0253B126
:104DA0009006B1E0F9120A3B850882850983E06428
:104DB00002701E90069AE064017016900699E070E9
:104DC000107900120CDB120CAB120CD57901120C0D
:104DD000E19006ABE0F8A3E0F9A3E0687003A3E07C
:104DE000696037120C3F8A088B098C0A8D0B750C91
:104DF0000A750D00750E00750F007808790C1216F3
:104E0000757808121AD68E828F83A3A312172D12DB
:104E1000244B740412186DE97079EE2402F8EF3413
:104E200000F988088909120C3F8A0C8B0D8C0E8DB5
:104E30000F751003751100751200751300780C7949
:104E4000101216757510FF7511FF7512FF780C7929
:104E5000101216D6850882850983780C12171E85D4
:104E60000882850983C082C0839006ADE0F508A35F
:104E7000E0F509E4F50AF50BD083D0827808121624
:104E800088EE240EF582EF3400F583780812171EA1
:104E9000120A41025483900366E070030252A71283
:104EA0000ABFE9F875F005A4C8AAF02AF9746928C0
:104EB000F510740339F511851082F583E0F508A328
:104EC000E0F509900367E0F875F005A4C8AAF02A98
:104ED000F9746928F50C740339F50D90070DE05449
:104EE0000770030251B5A3E0F9120BCD8A0A8B0BB0
:104EF000AE0AAF0BAC08AD09120BC7E9F50E740290
:104F0000650E70030251B5850C82850D83A3A3A3A2
:104F1000A3E0F875F08AA4C8AAF02AF9747128F5FC
:104F20000A740739F50BAA0AFB120BF7AA0AAB0B96
:104F3000120BF17512807513007812121ADA7C00C8
:104F40007D60E50A2406FAE50B3401FB120B377489
:104F50000212186DA80AA90B906195E0C0E0E82440
:104F600086F582E93401F583D0E0F0906196E0C0E7
:104F7000E0E82487F582E93401F583D0E0F0906120
:104F800097E0C0E0E82488F582E93401F583D0E0B9
:104F9000F0906198E0C0E0E82489F582E93401F5F9
:104FA00083D0E0F08E828F83E024FE600A24FE70BE
:104FB000030250C00251B5120A3590069AE064010E
:104FC0007011900699E0700B120CAB120CD57900A1
:104FD000120CE1E50E6012900695E0F8A3E0F9A34B
:104FE000E0687003A3E0697036120C3F8A0C8B0DE9
:104FF0008C0E8D0F751003751100751200780C79E9
:10500000101216757510FF7511FF7512FF780C7967
:10501000101216D68E828F83A3A3780C12171E85CA
:105020000882850983A3A3750CF1750DFF750EFF2A
:10503000750FFF780C121688780C121AD68E828F94
:1050400083A3A3C082C083900697E0F50CA3E0F58C
:105050000DE4F50EF50FD083D082780C121688AAD5
:105060000CAB0DAC0EAD0F12244B740412186DE98D
:10507000701F8E828F83A3A3C082C083900697E0A7
:10508000F508A3E0F509E4F50AF50BD083D082809A
:1050900014850882850983A3A37508F17509FF7536
:1050A0000AFF750BFF7808121688750CFF750DFF47
:1050B000750EFF750F007808790C1216D60253A2F0
:1050C0009006B1E0F9120A3BE50E60129006ABE0E3
:1050D000F8A3E0F9A3E0687003A3E0697036120C4E
:1050E0003F8A0C8B0D8C0E8D0F751003751100759A
:1050F0001200780C79101216757510FF7511FF7576
:1051000012FF780C79101216D68E828F83A3A378A3
:105110000C12171E850882850983A3A3750CF175EF
:105120000DFF750EFF750FFF780C121688780C12A4
:105130001AD68E828F83A3A3C082C0839006ADE06F
:10514000F50CA3E0F50DE4F50EF50FD083D08278D1
:105150000C121688AA0CAB0DAC0EAD0F12244B74BA
:105160000412186DE9701F8E828F83A3A3C082C0C2
:10517000839006ADE0F508A3E0F509E4F50AF50B28
:10518000D083D0828014850882850983A3A3750803
:10519000F17509FF750AFF750BFF780812168875FF
:1051A0000CFF750DFF750EFF750F007808790C1256
:1051B00016D6025471E510650C7004E511650D708A
:1051C00003025285850C82850D83A3A3A3E070039F
:1051D000025269850C82850D83A3A3A3A3E0F87511
:1051E000F08AA4C8AAF02AF9747128FE740739FF5E
:1051F000EEFAEFFB120BF7EEFAEFFB120BF1750A6A
:1052000080750B00780A121ADA7C007D60EE2406A5
:10521000FAEF3401FB120B37740212186D9061958E
:10522000E0C0E0EE2486F582EF3401F583D0E0F0B3
:10523000906196E0C0E0EE2487F582EF3401F583BB
:10524000D0E0F0906197E0C0E0EE2488F582EF3482
:1052500001F583D0E0F0906198E0C0E0EE2489F59C
:1052600082EF3401F583D0E0F0E5102404FEE5116F
:105270003400FF8E828F83E0F9120C038E828F83BD
:10528000E0900367F07902900367E0FA75F005A4F7
:10529000CAA8F028FB74692AFA74033BFB122007A2
:1052A000AA08AB0902548D90070DE0540770030261
:1052B0005490A3E0F9120BCD8A088B09AE08AF0910
:1052C0008E828F83E024FE600A24FE70030253B9AD
:1052D000025490120A3590069AE064017016900606
:1052E00099E070107901120CDB120CAB120CD5791D
:1052F00000120CE1900695E0F8A3E0F9A3E06870D5
:1053000003A3E0696037120C3F8A088B098C0A8D71
:105310000B750C0A750D00750E00750F0078087975
:105320000C1216757808121AD68E828F83A3A312D8
:10533000172D12244B740412186DE97074EE2402B8
:10534000F508EF3400F509120C3F8A0C8B0D8C0E1A
:105350008D0F751003751100751200751300780C10
:1053600079101216757510FF7511FF7512FF780C04
:1053700079101216D6850882850983780C12171EBB
:10538000850882850983C082C083900697E0F5086E
:10539000A3E0F509E4F50AF50BD083D08278081272
:1053A0001688EE240EF582EF3400F5837808121784
:1053B0001E90070E74020254889006B1E0F9120A9A
:1053C0003B9006ABE0F8A3E0F9A3E0687003A3E02C
:1053D000696037120C3F8A088B098C0A8D0B750C9B
:1053E0000A750D00750E00750F007808790C1216FD
:1053F000757808121AD68E828F83A3A312172D12E6
:10540000244B740412186DE97076EE2402F8EF3420
:1054100000F988088909120C3F8A0C8B0D8C0E8DBF
:105420000F751003751100751200751300780C7953
:10543000101216757510FF7511FF7512FF780C7933
:10544000101216D6850882850983780C12171E85DE
:105450000882850983C082C0839006ADE0F508A369
:10546000E0F509E4F50AF50BD083D082780812162E
:1054700088EE240EF582EF3400F583780812171EAB
:10548000120A4190070E7404F0EEFAEFFB120BC102
:105490007F0C02199974F01218C7EAFEEBFFEE2494
:1054A00002F8EF3400F988088909EE2406F8EF3491
:1054B00000F9880A890B8882F583121AF18508821F
:1054C00085098312172D120C1B740212186D850AA0
:1054D00082850B83121AF185088285098312172DA4
:1054E000120C0F740212186DEE240EF582EF3400C8
:1054F000F58312172D120C218E828F83E064407089
:105500001CEE2412F8EF3400F988828983E0906061
:1055100064F088828983A3E090606580069060646F
:10552000E4F0A3F090070FEEF0A3EFF0EE2416F5F1
:1055300082EF3400F583E0F8A3E0F5838882121847
:10554000C5906054E4F0A3F0A3F0A3F0A3F0A3F09F
:10555000A3F0A3F0A3F0A3F0A3F0A3F0906182E086
:10556000C2E6F07591BFEE2415F582EF3400F583A5
:10557000E064017003120C51E5E170FCEE2414F5B7
:1055800082EF3400F583E0F46003E0F5E1EE2415EA
:10559000F582EF3400F5837401F090033FE064017D
:1055A0007073120C3F8A088B098C0A8D0B780812D5
:1055B0001AD68E828F83A3A312172D1224A47404EB
:1055C00012186D8A088B098C0A8D0B750C05750DE8
:1055D00000750E00750F007808790C12154E7403D3
:1055E000780812163DE50824F4F508E5093401F5BC
:1055F000099006B7E06003120F99E4F50AF50B78FD
:1056000008121AD67A207B00900338E0F9120FFFB7
:10561000740412186D7F0802199974EA1218C7EA07
:10562000FEEBFF8C148D15EE4F7003025736120CF3
:105630003F8A088B098C0A8D0B750C01750D00755E
:105640000E00750F007808790C121675750CFF7531
:105650000DFF750EFF7808790C1216D68E828F8397
:10566000E064027014900695E0F8A3E0F9A3E06806
:105670007003A3E06970248017E06404701D900635
:10568000ABE0F8A3E0F9A3E0687003A3E069700B56
:105690008E828F83A3A3780812171E75101A7511B6
:1056A000007512007513007808121AD685148285C9
:1056B0001583A3A312172D1224A4740412186D8A43
:1056C0000C8B0D8C0E8D0F7810790C12150F406617
:1056D000851482851583A3A3750CE7750DFF750EE0
:1056E000FF750FFF780C121688780C121AD68E826E
:1056F0008F83A3A312172D12244B740412186DE983
:105700007034750C07750D00750E00750F00780864
:10571000790C1216757808121AD68E828F83A3A37D
:1057200012172D12244B740412186DE970047900BD
:1057300080067901800279027F0E02199974F012B5
:1057400018C7890874FF650860030258CB90070DDD
:10575000E054077003025DA77A00780C790788820D
:105760008983A3A3A3A3A3E06404703FEA75F018A0
:10577000A4F8A9F0741228F582740739F583E0645F
:105780000170377A00780C790788828983A3A3A3F4
:10579000A3A3E06404600302582088828983A3A342
:1057A000A3A3A3A3E06401707780630AE82418F838
:1057B000E93400F9EAC3940440A47A00780C79072C
:1057C00088828983A3A3A3A3A3E064017067EA7519
:1057D000F018A4F8A9F0741228F582740739F5833B
:1057E000E0640170627A00780C790788828983A36B
:1057F000A3A3A3A3E0640160030258A7888289835E
:10580000A3A3A3A3A3A3E0640160030258A7EA75BE
:10581000F018A4F8A9F0741128FA740739025DA4ED
:105820000AE82418F8E93400F9EAC39404500302A2
:105830005789025DA70AE82418F8E93400F9EAC399
:10584000940450030257C07A00780C790788828943
:1058500083A3A3A3A3A3E064027061EA75F018A474
:10586000F8A9F0741228F582740739F583E0640111
:1058700070597A00780C790788828983A3A3A3A33F
:10588000A3E06402707A88828983A3A3A3A3A3A35D
:10589000E06401706BEA75F018A4F8A9F07411289F
:1058A000FA740739FB806F0AE82418F8E93400F924
:1058B000EAC3940450030257EB025DA70AE82418D8
:1058C000F8E93400F9EAC3940440827A00780C794C
:1058D0000788828983A3A3A3A3A3E06508703A88FD
:1058E000828983A3A3A3A3A3A3E06401702BEA7519
:1058F000F018A4F8A9F0741128FE740739FF802C61
:105900000AE82418F8E93400F9EAC39404500302C1
:1059100058787A007B00025DAB0AE82418F8E93475
:1059200000F9EAC3940440A97E007F007A00780C55
:10593000790788828983A3A3A3A3A3E06508701BCA
:10594000EA75F018A4F8A9F0741228F582740739E2
:10595000F583E0640170137A0180110AE82418F8D5
:10596000E93400F9EAC3940440C87A00E5081460F9
:1059700010147003025AE224FE7003025BF5025D0C
:10598000A77B00780C790788828983A3A3A3A3A3AC
:10599000E064027052EB75F018A4F8A9F0741228B4
:1059A000F582740739F583E06401704A7B00780C56
:1059B000790788828983A3A3A3A3A3E06402600379
:1059C000025A5088828983A3A3A3A3A3A3E06401FE
:1059D000707EEB75F018A4F8A9F0741128F50A741C
:1059E0000739F50B025A680BE82418F8E93400F976
:1059F000EBC3940440917B00780C790788828983FB
:105A0000A3A3A3A3A3E064046003025AA9EB75F067
:105A100018A4F8A9F0741228F582740739F583E008
:105A200064016003025ABB7B00780C790788828985
:105A300083A3A3A3A3A3E064046003025AC68882DD
:105A40008983A3A3A3A3A3A3E064017079025C49A3
:105A50000BE82418F8E93400F9EBC394045003026E
:105A600059B2750A00750B00EAA2E05035850A822A
:105A7000850B83A3A3750CF6750DFF750EFF750FCF
:105A8000FF780C121688780C121AD68E828F83A398
:105A9000A312172D12244B740412186DE97003021F
:105AA0005DA1AA0AAB0B025DAB0BE82418F8E93440
:105AB00000F9EBC3940450030259FCEAA2E0501B26
:105AC000EEFAEFFB80190BE82418F8E93400F9EB43
:105AD000C394045003025A2D025CEE7A007B00024C
:105AE0005DAB7B00780C790788828983A3A3A3A38D
:105AF000A3E064047040EB75F018A4F8A9F07412E8
:105B000028F582740739F583E0640170387B0078EA
:105B10000C790788828983A3A3A3A3A3E06404600C
:105B200003025BA788828983A3A3A3A3A3A3E06442
